:020000021000EC
:10C0000000000120D1680200F9680200FB6802000C
:10C01000FD680200FF6802000169020000000000E4
:10C0200000000000000000000000000003690200A2
:10C0300005690200000000000769020009690200AA
:10C040000B6902000B690200F57202000B69020025
:10C05000055702000B6902000B6902000B69020020
:10C060000B6902000B6902000B6902000B690200F8
:10C070000B6902000B6902000B6902000B690200E8
:10C080000B690200896902000B6902000B6902005A
:10C090000B6902000B6902000B6902000B690200C8
:10C0A0000B6902000B6902000B6902000B690200B8
:10C0B0000B6902000B690200000000000000000094
:10C0C0000B6902000B6902000B6902000B69020098
:10C0D0000B6902000B6902000B69020000000000FE
:10C0E0000000000000000000000000000000000050
:10C0F0000000000000000000000000000000000040
:10C10000000000000000000000000000000000002F
:10C11000000000000000000000000000000000001F
:10C40000044B05481B1A062B02D9044B03B11847ED
:10C41000704700BF73210020702100200000000041
:10C4200005490648091A891001EBD171491002D05B
:10C43000034B03B118477047702100207021002082
:10C440000000000010B5064C237843B9FFF7D8FF71
:10C45000044B13B10448AFF300800123237010BDD7
:10C460007021002000000000ECB5020008B5084B68
:10C470001BB108490848AFF300800848036813B9A6
:10C48000BDE80840CCE7064B002BF9D09847F7E70A
:10C490000000000074210020ECB502006C21002097
:10C4A00000000000154B002B08BF134B9D46A3F561
:10C4B000803A00218B460F461348144A121A0BF09B
:10C4C000D9FD0F4B002B00D098470E4B002B00D00E
:10C4D00098470020002104000D000D48002802D0DC
:10C4E0000C48AFF300800BF075FD200029000AF026
:10C4F000F5FF0BF049FD00BF00000800000001201F
:10C500000000000000000000702100206C2D0020C1
:10C5100000000000000000000B4B002210B51A6064
:10C520000A4B1B78044653B109490A480AF044FCF7
:10C53000204607F0E7F8014606480AF051FC0520BE
:10C54000BDE810400AF012BAF42300208820002031
:10C5500054AB0200F82C00200B4B002210B51A60DF
:10C560000A4B1B78044653B109490A480AF024FCD7
:10C57000204607F0C7F8014606480AF031FC0520BE
:10C58000BDE810400AF0F2B9F42300208820002012
:10C590006FAB0200F82C0020F0B5284B1B7887B059
:10C5A0000C461BB1264927480AF006FC23682046A2
:10C5B000DB689847236806461B692046984722494E
:10C5C000074668460AF0EEFE3546AB1BDBB29F42DB
:10C5D0004FF010020CD915F8011B03A80AF02AFF2E
:10C5E00003A968460AF04EFF03A80AF099FEECE79B
:10C5F00000210098154D0CF04BFC154B286018607D
:10C60000144910480AF0DCFB0A2229680D480AF098
:10C6100043FC23682046DB689847236805461B696E
:10C62000204698470146284607F00EFD05200AF0EF
:10C630009DF968460AF074FE07B0F0BD882000201E
:10C640008DAB0200F82C00202DAE020090200020BF
:10C6500048220020BAAB020010B5034B0360044629
:10C6600007F094F8204610BDB8AF020010B504469C
:10C67000FFF7F2FF20460AF045FF204610BD0000FC
:10C6800010B5034B03600446FFF7E6FF204610BDDC
:10C690002CAB020010B50446FFF7F2FF20460AF06B
:10C6A00031FF204610BD00009FEDF87ADFEDF87AEB
:10C6B000E0EE077A2DE9F04F9FEDF67AE0EE877A0B
:10C6C0009FEDF57AE1EE077A9FEDF47AE1EE877A55
:10C6D0009FEDF37AE2EE077A9FEDF27A77EEC77A72
:10C6E0009FEDF17A77EEC77A9FEDF07A77EEC77A11
:10C6F0009FEDEF7A77EEC77A9FEDEE7A2DED108BF6
:10C7000077EE877A87B0F1EE677A17EE900AB0EE8F
:10C71000419AF0EE618AB0EE428AB0EE40AAF0EEA5
:10C72000609A0BF073F841EC100B09F095FA0022B7
:10C7300051EC100BE04B0AF00BFF02460B460020B9
:10C74000DD490BF0E1F90BF097FB9FEDDC7ADFEDB3
:10C75000DC7AEAEE077A9FEDDB7AE9EE877A9FEDE5
:10C76000DA7AE9EE077A9FEDD97AE8EE877A9FEDDB
:10C77000D87AE8EE077A9FEDD77A77EE877A9FED41
:10C78000D67A77EE877A9FEDD57A77EE877A9FED26
:10C79000D47A77EEC77A9FEDD37A77EE877A0CEE6C
:10C7A000900AF1EE677A17EE900A0BF02FF841EC41
:10C7B000100B09F051FA002251EC100BBE4B0AF09D
:10C7C000C7FE02460B460020BB490BF09DF90BF05B
:10C7D00053FB9FEDC57ADFEDC57AEAEE077A9FED50
:10C7E000C47AE9EE877A9FEDC37AE9EE077A9FED86
:10C7F000C27AE8EE877A9FEDC17AE8EE077A9FED7C
:10C80000C07A77EE877A9FEDBF7A77EEC77A9FED91
:10C81000BE7A77EE877A9FEDBD7A77EE877A9FEDC5
:10C82000BC7A77EE877A0CEE100AF1EE677A17EE93
:10C83000900A0AF0EBFF41EC100B09F00DFA002210
:10C8400051EC100B9C4B0AF083FE02460B46002075
:10C8500099490BF059F90BF00FFB9FEDAE7ADFED24
:10C86000AE7AEAEE077A9FEDAD7AE9EE877A9FED30
:10C87000AC7AE9EE077A9FEDAB7AE8EE877A9FED26
:10C88000AA7AE8EE077A9FEDA97A77EE877A9FED8C
:10C89000A87A77EE877A9FEDA77A77EE877A9FED71
:10C8A000A67A77EE877A9FEDA57A77EE877A0DEEF6
:10C8B000900AF1EE677A17EE900A0AF0A7FF41ECB2
:10C8C000100B09F0C9F9002251EC100B7A4B0AF059
:10C8D0003FFE02460B46002077490BF015F90BF09E
:10C8E000CBFA9FED977ADFED977AEAEE077A9FED24
:10C8F000967AE9EE877A9FED957AE9EE077A9FEDD1
:10C90000947AE8EE877A9FED937AE8EE077A9FEDC6
:10C91000927A77EE877A9FED917A77EEC77A9FEDDC
:10C92000907A77EE877A9FED8F7A77EEC77A9FEDD0
:10C930008E7A77EE877A0DEE100AF1EE677A17EEAF
:10C94000900A0AF063FF41EC100B09F085F9002210
:10C9500051EC100B584B0AF0FBFD02460B46002031
:10C9600055490BF0D1F80BF087FA9FED807ADFED97
:10C97000807AEAEE077A9FED7F7AE9EE877A9FED7B
:10C980007E7AE9EE077A9FED7D7AE8EE877A9FED71
:10C990007C7AE8EE077A9FED7B7A77EE877A9FEDD7
:10C9A0007A7A77EE877A9FED797A77EE877A9FEDBC
:10C9B000787A77EE877A9FED777A77EE877A0AEE44
:10C9C000900AF1EE677A17EE900A0AF01FFF41EC29
:10C9D000100B09F041F99FED707ADFED707AB0EE3F
:10C9E00040BAF0EE60BAEAEE077A9FED6D7AE9EEB2
:10C9F000877A9FED6C7AE9EE077A9FED6B7AE8EE25
:10CA0000877A9FED6A7AE8EE077A9FED697A77EE8A
:10CA1000877A9FED687A77EE877A9FED677A77EE6F
:10CA2000877A9FED667A77EE877A9FED657A77EE63
:10CA3000877AF1EE677A17EE900A0AF0E7FE41EC8A
:10CA4000100B09F009F99FED5F7ADFED5F7AEAEEEE
:10CA5000077A9FED5E7AE9EE877A9FED5D7AE9EEDF
:10CA6000077A9FED5C7AE8EE877A9FED5B7AE8EED5
:10CA7000077A9FED5A7A77EE877A9FED597A77EEAB
:10CA8000877A9FED587A77EE877ADDE09CEAB63DAB
:10CA9000A574803F2A2BCD3CFA0E993D4D5C283D74
:10CAA00025D5843D9686453DBFA2103D81E9843D54
:10CAB00086E63E3D76AD483D0000F03F5BCC703DE4
:10CAC00060C3803F606A5FBD18BEF23CE52C9A3CB3
:10CAD000FD95DA3DF5696D3DC183C23DD39FD23DE1
:10CAE000AE9D693DC80C083E0CE83ABD9DD7803F1D
:10CAF0000A4AD33D443FCA3D2DB1023D33B8CDBCB7
:10CB0000350F853D6B4F463D0694983C0DDF743DD7
:10CB1000650F9F3D0E5F56BD33D8803F418F2ABCC5
:10CB20006C8A35BD527B153DC50B9B3D8C757B3D9D
:10CB300027CC4B3DAEB28F3D80F1833D1939D43DBA
:10CB4000858200BD698B803FF3624ABD94C7EB3D8F
:10CB5000B2AC91BD1556D63DAC1FB33D4E8D2A3DAE
:10CB60000C3F063D44A5003D7383F53DFD50583E06
:10CB70001657843FBC494D3E6E862C3EFAD8883EFF
:10CB8000BE736D3D5CC61A3E6E0E823E5B5A963E8B
:10CB90004BC2273EA579883EDDB0523ECEBC833FD6
:10CBA000666C473E7479773EAD3A013ECA19C03D86
:10CBB000CCB5263E8956883E42008D3E6FD6943EC7
:10CBC000F61B1E3ED46E453E4EB3843FAFA2F93DE8
:10CBD000D2B6073E4D1A4F3ED8E938BC45EC963EDA
:10CBE00011C5A03E708D613E1AD00D3EE78C6F3EA0
:10CBF000AE198A3EA25F853F3183253ECADF0F3ED4
:10CC000074AC903E8ED287BB4AE9273E234E373E16
:10CC10004496703E270D243ECB208C3E4F1E883E0E
:10CC20007568843F9C99BA3D27BC243EAF68593E45
:10CC3000945AECBB7D4B843E3798663E8B50273E22
:10CC4000E7DC723E75F19C3E1FED197A77EE877A2C
:10CC50001FED1A7A77EE877A5BEC10ABF1EE677A0C
:10CC600017EE900A0AF0D2FD41EC100B08F0F4FF29
:10CC70001FED217A5FED217AEAEE077A1FED227A25
:10CC8000E9EE877A1FED237AE9EE077A1FED247A21
:10CC9000E8EE877A1FED257AE8EE077A1FED267A0F
:10CCA00077EE877A1FED277A77EE877A1FED287A5D
:10CCB00077EE877A1FED297A77EE877A1FED2A7A49
:10CCC00077EE877A59EC108BF1EE677A17EE900ABF
:10CCD0000AF09CFD41EC100B08F0BEFF1FED317A0D
:10CCE0005FED317AEAEE077A1FED327AE9EE877A64
:10CCF0001FED337AE9EE077A1FED347AE8EE877A92
:10CD00001FED357AE8EE077A1FED367A77EE877AEF
:10CD10001FED377A77EE877A1FED387A77EE877ACC
:10CD20001FED397A77EE877A1FED3A7A77EE877AB8
:10CD300057EC106BF1EE677A17EE900A0AF066FD79
:10CD400041EC100B08F088FF51EC1B0B0022F44B58
:10CD500055EC104B0AF0FCFB02460B460020F04954
:10CD60000AF0D2FE0BF088F89FEDEE7ADFEDEE7A56
:10CD700006EE900AE6EE877A9FEDEC7A2AEE077AC5
:10CD8000ECEE877A9FEDEA7A29EE877AECEE877AE5
:10CD90009FEDE87A29EE077AECEE877A9FEDE67A46
:10CDA00028EE877AECEE877A9FEDE47A28EE077A10
:10CDB000ECEE877AF1EE677A17EE900A0AF026FD1C
:10CDC00041EC100B08F048FF002251EC100BD44B43
:10CDD0000AF0BEFB02460B460020D1490AF094FE41
:10CDE0000BF04AF800220CEE900ACD4B5046594603
:10CDF0000AF0AEFB02460B460020C9490AF084FE49
:10CE00000BF03AF89FEDCE7ADFEDCE7A06EE900A7F
:10CE1000E6EE877A9FEDCC7A2AEE077AECEE077A77
:10CE20009FEDCA7A29EE877AECEE077A9FEDC87AF1
:10CE300029EE077AECEE077A9FEDC67A28EE877A1C
:10CE4000ECEE077A9FEDC47A28EE077AECEE077ACB
:10CE5000F1EE677A17EE900A0AF0D8FC41EC100B5D
:10CE600008F0FAFE002251EC100BAD4B0AF070FBFB
:10CE700002460B460020AA490AF046FE0AF0FCFFD3
:10CE800000220CEE100AA64B404649460AF060FB11
:10CE900002460B460020A2490AF036FE0AF0ECFFDB
:10CEA0009FEDAE7ADFEDAE7A06EE900AE6EE877A77
:10CEB0009FEDAC7A2AEE077AEDEE877A9FEDAA7A9B
:10CEC00029EE877AEDEE877A9FEDA87A29EE077A28
:10CED000EDEE877A9FEDA67A28EE877AEDEE877AD7
:10CEE0009FEDA47A28EE077AEDEE877AF1EE677A65
:10CEF00017EE900A0AF08AFC41EC100B08F0ACFE29
:10CF0000002251EC100B864B0AF022FB02460B4626
:10CF1000002083490AF0F8FD0AF0AEFF00220BEE74
:10CF2000900A7F4B304639460AF012FB02460B4608
:10CF300000207B490AF0E8FD0AF09EFF9FED8E7A03
:10CF4000DFED8E7A06EE900AE6EE877A9FED8C7A18
:10CF50002AEE077AEDEE077A9FED8A7A29EE877A34
:10CF6000EDEE077A9FED887A29EE077AEDEE077AE3
:10CF70009FED867A28EE877AEDEE077A9FED847A28
:10CF800028EE077AEDEE077AF1EE677A17EE900A4F
:10CF90000AF03CFC41EC100B08F05EFE002251EC64
:10CFA000100B5F4B0AF0D4FA02460B4600205C4996
:10CFB0000AF0AAFD0AF060FF00220BEE100A584B9F
:10CFC000204629460AF0C4FA02460B46002054497E
:10CFD0000AF09AFD0AF050FF9FED6E7ADFED6E7A4F
:10CFE00006EE900AE6EE877A9FED6C7A2AEE077AD3
:10CFF000EAEE877A9FED6A7A29EE877AEAEE877AF7
:10D000009FED687A29EE077AEAEE877A9FED667AD5
:10D0100028EE877AEAEE877A9FED647A28EE077A1F
:10D02000EAEE877AF1EE677A17EE900A0AF0EEFBE5
:10D0300041EC100B08F010FE002251EC100B384BA5
:10D040000AF086FA02460B46002035490AF05CFDDC
:10D050000AF012FF9FED567ADFED567AEAEE077A74
:10D060009FED557AE9EE877A9FED547AE9EE077ADB
:10D070009FED537AE8EE877A9FED527AE8EE077AD1
:10D080009FED517AECEE877A9FED507AECEE077ABD
:10D090009FED4F7AEBEE877A9FED4E7AEBEE077AB3
:10D0A0000AEE900A9FED4C7AEAEE877AF1EE677A03
:10D0B00017EE900A0AF0AAFB41EC100B08F0CCFD29
:10D0C0009FED467ADFED467AEAEE077A9FED457AE4
:10D0D000E9EE877A9FED447AE9EE077A9FED437A8D
:10D0E000E8EE877A9FED427AE8EE077A9FED417A83
:10D0F000ECEE877A9FED407AECEE077A9FED3F7A6F
:10D10000EBEE877A9FED3E7AEBEE077A9FED3D7A64
:10D11000EAEE877A8DED000BF1EE677AD0E000BF82
:10D120000000F03F4C896F41D757423ED0AB733E71
:10D13000379A943EABA8853EBF9C483E09D9223E13
:10D14000BC3F6E4124A065BC93D0B63E6587BF3E10
:10D1500051F3823E132DB23E41C80E3C3CD16C418E
:10D16000F0C6813DBB8C8D3E9F8EB03E919FA13E0F
:10D170001752AB3E6493F33D19616E410857CB3DA6
:10D18000B7EBB43E15F2B33E8C39693EDD1FB13EBC
:10D190005167883D60C56C41CC41263E90C82D3E0C
:10D1A000E294AD3E7899883E34349F3E0CF0CD3DFC
:10D1B000FD52A4C1DBD9EF41E2D8CFC191ACE3412C
:10D1C0001254B63F43D070C1D4880CC0C52610C0DD
:10D1D00059470CC096EA0DC05A7C13C096979AC066
:10D1E00039A0FA411AC21AC298869A41504B864118
:10D1F0003F3686BDC5C5ADC0FC73B0C0E96AACC0E2
:10D200002C55B1C0637DAFC022AA0F42D1AF1741E8
:10D21000FBB515C2BF5B02C2B4C8A141B6E3AAC147
:10D220000A7CC63E0924A73E3BA9EA3EA485D73E18
:10D23000B19DD03EFBCBB24120FF7C4256538FC202
:10D240000FFE03C212D2F041C14B2DC0DF655BC09F
:10D25000911B55C016F75AC0836B5CC06AA856C0B4
:10D26000DDA80D42DFD01641D48416C23E2FFAC18C
:10D270005FB59E410A91A7C18F2F9A3EF3BDE03E54
:10D28000EAE0B43ED6A3E73E77AF8E3EB045D33C4E
:10D290003D19813FAFE2EA3B942D3BBC17F4943B30
:10D2A0008A5CB5BC92481BBD26BDB83DC22D7DBD74
:10D2B000E9D1EB3C0CE747BD87018D3D9BAA173CAC
:10D2C00017EE900A0AF0A2FA41EC100B08F0C4FC29
:10D2D0001FED337A5FED337AEAEE077A1FED347A89
:10D2E000E9EE877A1FED357AE9EE077A1FED367A97
:10D2F000E8EE877A1FED377AE8EE077A1FED387A85
:10D30000ECEE877A1FED397AECEE077A1FED3A7A68
:10D31000EBEE877A1FED3B7AEBEE077A1FED3C7A56
:10D32000EAEE877A8DED020BF1EE677A17EE900A3E
:10D330000AF06CFA41EC100B08F08EFC1FED437AFA
:10D340005FED437AB0EE40FAF0EE60FAEAEE077A6B
:10D350001FED467AE9EE877A1FED477AE9EE077A04
:10D360001FED487AE8EE877A1FED497AE8EE077AF2
:10D370001FED4A7AECEE877A1FED4B7AECEE077AD6
:10D380001FED4C7AEBEE877A1FED4D7AEBEE077AC4
:10D390001FED4E7AEAEE877AF1EE677A17EE900A81
:10D3A0000AF034FA41EC100B08F056FC1FED547AE9
:10D3B0005FED547AEAEE077A1FED557AE9EE877A47
:10D3C0001FED567AE9EE077A1FED577AE8EE877A75
:10D3D0001FED587AE8EE077A1FED597AECEE877A5E
:10D3E0001FED5A7AECEE077A1FED5B7AEBEE877A47
:10D3F0001FED5C7AEBEE077A1FED5D7AEAEE877A35
:10D400005BEC10ABF1EE677A17EE900A0AF0FEF9CA
:10D4100041EC100B08F020FC1FED647A5FED647A9C
:10D42000EAEE077A1FED657AE9EE877A1FED667AF4
:10D43000E9EE077A1FED677AE8EE877A1FED687AE2
:10D44000E8EE077A1FED697AECEE877A1FED6A7ACB
:10D45000ECEE077A1FED6B7AEBEE877A1FED6C7AB4
:10D46000EBEE077A1FED6D7AEAEE877A1FED6E7AA2
:10D4700077EE877A1FED6F7A77EEC77A55EC104B0F
:10D48000F1EE677A17EE900A0AF0C0F941EC100B42
:10D4900008F0E2FB002251EC100BF84B0AF058F8B0
:10D4A00002460B460020F5490AF02EFB0AF0E4FC88
:10D4B0009FEDF37ADFEDF37AEAEE077A9FEDF27AE9
:10D4C000E9EE877A9FEDF17AE9EE077A9FEDF07A3F
:10D4D000E8EE877A9FEDEF7AE8EE077A9FEDEE7A35
:10D4E000ECEE877A9FEDED7AECEE077A9FEDEC7A21
:10D4F000EBEE877A9FEDEB7AEBEE077A9FEDEA7A17
:10D50000EAEE877A9FEDE97A77EEC77A9FEDE87ABF
:10D5100077EEC77A0DEE900AF1EE677A17EE900A71
:10D520000AF074F941EC100B08F096FB002251EC64
:10D53000100BD24B0AF00CF802460B460020CF49E4
:10D540000AF0E2FA0AF098FC9FEDDA7ADFEDDA7A77
:10D55000EAEE077A9FEDD97AE9EE877A9FEDD87ADD
:10D56000E9EE077A9FEDD77AE8EE877A9FEDD67AD3
:10D57000E8EE077A9FEDD57AECEE877A9FEDD47AC4
:10D58000ECEE077A9FEDD37AEBEE877A9FEDD27AB5
:10D59000EBEE077A9FEDD17AEAEE877A9FEDD07AAB
:10D5A00077EE877A9FEDCF7A77EE877A0DEE100AC5
:10D5B000F1EE677A17EE900A0AF028F941EC100BA9
:10D5C00008F04AFB9FEDC87ADFEDC87AEAEE077AE9
:10D5D0009FEDC77AE9EE877A9FEDC67AE9EE077A82
:10D5E0009FEDC57AE8EE877A9FEDC47AE8EE077A78
:10D5F0009FEDC37AECEE877A9FEDC27AECEE077A64
:10D600009FEDC17AEBEE877A9FEDC07AEBEE077A59
:10D610009FEDBF7AEAEE877A9FEDBE7A77EE877A42
:10D620009FEDBD7A77EE877A59EC108BF1EE677A31
:10D6300017EE900A0AF0EAF841EC100B08F00CFB28
:10D6400000228E4B4046494657EC106B09F080FF94
:10D6500002460B46002089490AF056FA0AF00CFCF3
:10D660009FEDAE7ADFEDAE7A06EE900AE6EE877AAF
:10D670009FEDAC7A2AEE077AEDEE877A9FEDAA7AD3
:10D6800029EE877AEDEE877A9FEDA87A29EE077A60
:10D69000EDEE877A9FEDA67A28EE877AEDEE877A0F
:10D6A0009FEDA47A28EE077AEDEE877A9FEDA27AB5
:10D6B0002CEE877AEDEE877A9FEDA07A2CEE077A32
:10D6C000EDEE877A9FED9E7A2BEE877AEDEE877AE4
:10D6D0009FED9C7A2BEE077AEDEE877A9FED9A7A92
:10D6E0002AEE877AEDEE877AF1EE677A17EE900AE6
:10D6F0000AF08CF841EC100B08F0AEFA002251EC65
:10D70000100B5E4B09F024FF02460B4600205B49DC
:10D710000AF0FAF90AF0B0FB00220DEE900A574B1E
:10D720003046394609F014FF02460B4600205349A3
:10D730000AF0EAF90AF0A0FB9FED847ADFED847A23
:10D7400006EE900AE6EE877A9FED827A2AEE077A55
:10D75000EDEE077A9FED807A29EE877AEDEE077A73
:10D760009FED7E7A29EE077AEDEE077A9FED7C7ABF
:10D7700028EE877AEDEE077A9FED7A7A28EE077A1F
:10D78000EDEE077A9FED787A2CEE877AEDEE077A48
:10D790009FED767A2CEE077AEDEE077A9FED747A9C
:10D7A0002BEE877AEDEE077A9FED727A2BEE077AF1
:10D7B000EDEE077A9FED707A2AEE877AEDEE077A22
:10D7C000F1EE677A17EE900A0AF020F841EC100BA0
:10D7D00008F042FA002251EC100B284B09F0B8FE79
:10D7E00002460B46002025490AF08EF90AF044FB58
:10D7F0009FED627ADFED627AEAEE077A9FED617A59
:10D80000E9EE877A9FED607AE9EE077A9FED5F7A1D
:10D81000E8EE877A9FED5E7AE8EE077A9FED5D7A13
:10D82000ECEE877A9FED5C7AECEE077A9FED5B7AFF
:10D83000EBEE877A9FED5A7AEBEE077A9FED597AF5
:10D84000EAEE877A9FED587AEDEE877A0DEE100AB0
:10D850009FED567AEDEE077AF1EE677A17EE900AB1
:10D8600009F0D4FF41EC100B08F0F6F99FED507A67
:10D87000DFED507AEAEE077AB4E000BF0000F03F37
:10D88000902FFB3B29CA803F3754B03C4A101D3DC6
:10D890000B95E43D86DD993D45167C3D36E1EE3D38
:10D8A000D02DB5BC6855343DCD7FD23C2E16403DC1
:10D8B000B9AB6D3DE84F153DE094843F00B45B3D4E
:10D8C0005F2FD73D67A88E3D21762DBC6EB1C73D39
:10D8D000533A323ED679623E0E559D3DD1794C3E4B
:10D8E0003847FD3DAD3D0A3EF9F8BD3CAAB7833F40
:10D8F0003CCFFC3C6A08A33D3A74053EAFD6C83C19
:10D9000048049D3D13D7D83DD4E9283ED215613E49
:10D91000D42A453EB4D0A53DA4822C3E62CF4C41D2
:10D92000425CC83D13BCF73DD21C203EC3127E3E74
:10D930006576273EF367EB3D1BCC963D0FB9343E31
:10D940003ECAC03DA7458D3EA28E8D3E28054B4167
:10D950008DE5613D676A093E96BC543E57F1D63D60
:10D96000026C6C3ECF57E83AB3EFF53DDDB15D3E5A
:10D97000E1CBD73DB9C56B3E39D2803EBCFCFA4104
:10D98000D71BE03FCD2D81C12849E1419B887A41D9
:10D9900000AF1A413D5DF1C0191AF4C067F9F1C03A
:10D9A0009C68F4C0A001F5C01303F7C06EA5F3C0D6
:10D9B000A824C73F17E4A140FDC73EC1ECB0994081
:10D9C0006D7C61408ECFBBBFC84C3CBF007A5DBF51
:10D9D000BF3C5EBF0F5364BFAC504BBF0AAD67BFC7
:10D9E0005B8F5ABF1FED0C7AE9EE877A1FED0D7A37
:10D9F000E9EE077A1FED0E7AE8EE877A1FED0F7ACF
:10DA0000E8EE077A1FED107AECEE877A1FED117AB7
:10DA1000ECEE077A1FED127AEBEE877A1FED137AA0
:10DA2000EBEE077A1FED147AEAEE877A1FED157A8E
:10DA3000EDEE877A1FED167AEDEE077A57EC106B54
:10DA4000F1EE677A17EE900A09F0E0FE41EC100B58
:10DA500008F002F9002251EC100B694B09F078FD37
:10DA600002460B46002066490AF04EF80AF004FA16
:10DA700000220490624B3046394609F069FD0246A7
:10DA80000B4600205E490AF03FF80AF0F5F9002243
:10DA900005905B4B2046294609F05AFD02460B468D
:10DAA000002057490AF030F80AF0E6F900220EEE9D
:10DAB000100A534B5046594609F04AFD02460B46A0
:10DAC00000204F490AF020F80AF0D6F900220EEEA5
:10DAD000900A4B4B51EC1F0B09F03AFD02460B46E6
:10DAE000002047490AF010F80AF0C6F900220FEEAC
:10DAF000100A434BDDE9020109F02AFD02460B46FC
:10DB000000203F490AF000F80AF0B6F900220FEEB3
:10DB1000900A3B4BDDE9000109F01AFD02460B4675
:10DB20000020374909F0F0FF0AF0A6F9DFED357A59
:10DB300007EE100A6CEEA7CADFED337AE7EE2C7A17
:10DB40009FED327A2CEE07CA9FED317AEFEE8C7A98
:10DB50006BEE87BA9FED2F7AEFEE2B7A2BEE07BA9A
:10DB60009FED2D7AEEEE8B7A6AEE87AA9FED2B7AE7
:10DB7000EEEE2A7A6DEE87DA9DED057AE7EE2D7AE4
:10DB80009FED277A2DEE07DA9DED047AE7EE0D7A08
:10DB90009FED247AEAEE077A9FED237AE9EE877A01
:10DBA0009FED227AE9EE077A9FED217AE8EE877AF7
:10DBB0009FED207AE8EE077AF1EE677A17EE900A89
:10DBC00009F024FE41EC100B08F046F8002251EC5D
:10DBD000100B0B4B09F0BCFC02460B460020084919
:10DBE00009F092FF0AF048F99FED130A07EE900A38
:10DBF00027EE800A07B0BDEC108BBDE8F08F00BFA8
:10DC00000000F03F3E6CB9C030B1BB401192B7C0CC
:10DC1000103C1EC18B3C2FC1A9841DC1D7C504C1B6
:10DC2000462D15C0C4E96140F8D8844224E8DCC11F
:10DC30006A18D6C145747CC10000C8429FEDF87ACD
:10DC4000DFEDF87AE0EE077A2DE9F04F9FEDF67AF6
:10DC5000E0EE877A9FEDF57AE1EE077A9FEDF47AB0
:10DC6000E1EE877A9FEDF37AE2EE077A9FEDF27AA2
:10DC7000E2EE877A9FEDF17AE3EE077A9FEDF07A94
:10DC800077EE877A9FEDEF7A77EE877A9FEDEE7ADF
:10DC900077EE877A9FEDED7A77EE877A9FEDEC7AD3
:10DCA0002DED108B77EE877A89B0F1EE677A17EE5B
:10DCB000900AB0EE41AAF0EE619AB0EE429AF0EE10
:10DCC000628AB0EE438AB0EE40BAF0EE60AA09F084
:10DCD0009DFD41EC100B07F0BFFF002251EC100B33
:10DCE000DC4B09F035FC02460B460020D94909F00F
:10DCF0000BFF0AF0C1F89FEDD87ADFEDD87AEBEE92
:10DD0000077A9FEDD77AEAEE877A9FEDD67AEAEE28
:10DD1000077A9FEDD57AE9EE877A9FEDD47AE9EE1E
:10DD2000077A9FEDD37AE8EE877A9FEDD27AE8EE14
:10DD3000077A9FEDD17A77EEC77A9FEDD07A77EEAA
:10DD4000877A9FEDCF7A77EE877A9FEDCE7A77EE5E
:10DD5000C77A9FEDCD7A77EE877A0BEE900AF1EED7
:10DD6000677A17EE900A09F051FD41EC100B07F0AD
:10DD700073FF002251EC100BB64B09F0E9FB024691
:10DD80000B460020B34909F0BFFE0AF075F89FED7D
:10DD9000BF7ADFEDBF7AEBEE077A9FEDBE7AEAEE4F
:10DDA000877A9FEDBD7AEAEE077A9FEDBC7AE9EEBD
:10DDB000877A9FEDBB7AE9EE077A9FEDBA7AE8EEB3
:10DDC000877A9FEDB97AE8EE077A9FEDB87A77EE19
:10DDD000877A9FEDB77A77EE877A9FEDB67A77EEFE
:10DDE000C77A9FEDB57A77EE877A9FEDB47A77EEB2
:10DDF000C77A0DEE100AF1EE677A17EE900A09F075
:10DE000005FD41EC100B07F027FF002251EC100B31
:10DE1000904B09F09DFB02460B4600208D4909F00E
:10DE200073FE0AF029F89FEDA67ADFEDA67AEBEEF5
:10DE3000077A9FEDA57AEAEE877A9FEDA47AEAEE5B
:10DE4000077A9FEDA37AE9EE877A9FEDA27AE9EE51
:10DE5000077A9FEDA17AE8EE877A9FEDA07AE8EE47
:10DE6000077A9FED9F7A77EE877A9FED9E7A77EE1D
:10DE7000877A9FED9D7A77EE877A9FED9C7A77EE91
:10DE8000C77A9FED9B7A77EEC77A0EEE100AF1EE15
:10DE9000677A17EE900A09F0B9FC41EC100B07F015
:10DEA000DBFE002251EC100B6A4B09F051FB0246DD
:10DEB0000B460020674909F027FE09F0DDFF9FEDC2
:10DEC0008D7ADFED8D7AEBEE077A9FED8C7AEAEEB4
:10DED000877A9FED8B7AEAEE077A9FED8A7AE9EEF0
:10DEE000877A9FED897AE9EE077A9FED887AE8EEE6
:10DEF000877A9FED877AE8EE077A9FED867A77EE4C
:10DF0000877A9FED857A77EEC77A9FED847A77EEF0
:10DF1000877A9FED837A77EE877A9FED827A77EE24
:10DF2000C77A0DEE900AF1EE677A17EE900A09F0C3
:10DF30006DFC41EC100B07F08FFE002251EC100B32
:10DF4000444B09F005FB02460B460020414909F00D
:10DF5000DBFD09F091FF9FED747ADFED747AEBEE53
:10DF6000077A9FED737AEAEE877A9FED727AEAEE8E
:10DF7000077A9FED717AE9EE877A9FED707AE9EE84
:10DF8000077A9FED6F7AE8EE877A9FED6E7AE8EE7A
:10DF9000077A9FED6D7A77EE877A9FED6C7A77EE50
:10DFA000C77A9FED6B7A77EE877A9FED6A7A77EE84
:10DFB000877A9FED697A77EEC77A0EEE900AF1EED6
:10DFC000677A17EE900A09F021FC41EC100B07F07C
:10DFD00043FE9FED627ADFED627AEBEE077A9FED0A
:10DFE000617AEAEE877A9FED607AEAEE077A9FED32
:10DFF0005F7AE9EE877A9FED5E7AE9EE077A9FED28
:10E000005D7AE8EE877A9FED5C7AE8EE077A9FED1D
:10E010005B7A77EE877A9FED5A7A77EE877A05E119
:10E02000DE37383E3EF4B33F4B34E93DB16816BDB0
:10E0300033CFBF3D9918D3BDEE7E22BD977EA4BCE1
:10E0400054F0F53D171F3F3E06A0C53D697C413E9B
:10E0500072D5713E0000F03F7FDECFBC4A19813F90
:10E060001A954B3CACFB8F3C22AF413DB9A9DF3D3B
:10E07000871486BD9F91A33D5EB5823D61CA863DF2
:10E0800057FE8F3D0D6F2B3D69E45E3CAFC4913D63
:10E090002302813F6F19623BDC1493BD5227AB3DD5
:10E0A000C9A20E3CF368B73C4AFACE3D8E28633CC9
:10E0B000A6D4CB3DFE470E3C6F08893BAFFB8E3D9F
:10E0C0008F688B3D47F4803F5B0A28BDEB287B3D82
:10E0D00008AF8F3D78AAA73C42C0A93C6D1E523CB8
:10E0E000205C8F3D2D5A5F3D229DAC3DE187193D5F
:10E0F000B4788A3DE0AABA3D8214813F172465BCFA
:10E1000092A541BDD6D4CD3CB186D13D97F108BD95
:10E11000319EB63DCC92B93D37C3B93C057CA03D9C
:10E120005F25F53D08353E3D492DD7BDF58D873F2F
:10E13000EE72CBBD9759F4BE903AE63E643F24BEE2
:10E140008EF3813E17C0BBBD52329E3DE108653D56
:10E15000283C2A3D514A953C661B7B3D5A0ADA3DD4
:10E1600086C2853F0791EB3D095E463E26B9123EC9
:10E170002F0A2B3EC7AB6D3D6C834FBDEC6ED23D7D
:10E18000CA14683E3E6AF93D731FFD3D555A903EE4
:10E190008EB9A33D894C853F56A8853EE5EE713E7C
:10E1A000329B803EE50E9C3DEA79CA3DC23B86BD6E
:10E1B000601ABA3D19CA5F3E741EBA3DC9400E3E90
:10E1C000418BFB3D5B7B653E69F5843FD205FD3DA0
:10E1D0000A25083ED355643EA536B23B5D83DE3D3D
:10E1E0000CB8DBBBA5C7273D790E353E3ACF243EA0
:10E1F0009F985A3E2B3B253E6559D43DE850853FBC
:10E200001E70833EEE222D3ED350603ED206253E48
:10E210003A08053E8818CB3CD844693D3914063E7F
:10E2200087FCFB3D7478273E8F5A4A3E1FED2B7AC0
:10E2300077EE877A1FED2C7A77EE877A1FED2D7AAD
:10E2400077EE877A5BEC10ABF1EE677A17EE900A07
:10E2500009F0DCFA41EC100B07F0FEFC1FED347AFC
:10E260005FED347AEBEE077A1FED357AEAEE877AC6
:10E270001FED367AEAEE077A1FED377AE9EE877AF4
:10E280001FED387AE9EE077A1FED397AE8EE877AE2
:10E290001FED3A7AE8EE077A1FED3B7A77EE877A40
:10E2A0001FED3C7A77EE877A1FED3D7A77EE877A1D
:10E2B0001FED3E7A77EE877A1FED3F7A77EE877A09
:10E2C00059EC108BF1EE677A17EE900A09F09EFA7E
:10E2D00041EC100B07F0C0FC1FED467A5FED467A6B
:10E2E000EBEE077A1FED477AEAEE877A1FED487A60
:10E2F000EAEE077A1FED497AE9EE877A1FED4A7A4E
:10E30000E9EE077A1FED4B7AE8EE877A1FED4C7A3B
:10E31000E8EE077A1FED4D7A77EE877A1FED4E7A99
:10E3200077EE877A1FED4F7A77EE877A1FED507A76
:10E3300077EE877A1FED517A77EE877A57EC106B7C
:10E34000F1EE677A17EE900A09F060FA41EC100BD3
:10E3500007F082FC1FED587A5FED587AEBEE077AF2
:10E360001FED597AEAEE877A1FED5A7AEAEE077ABC
:10E370001FED5B7AE9EE877A1FED5C7AE9EE077AAA
:10E380001FED5D7AE8EE877A1FED5E7AE8EE077A98
:10E390001FED5F7A77EE877A1FED607A77EE877AE6
:10E3A0001FED617A77EE877A1FED627A77EE877AD2
:10E3B0001FED637A77EE877A55EC104BF1EE677AB2
:10E3C00017EE900A09F022FA41EC100B07F044FC1A
:10E3D0000022F34BB0EE40CAF0EE60CA50465946F8
:10E3E00009F0B6F802460B460020ED4909F08CFB17
:10E3F00009F042FD9FEDEB7ADFEDEB7A06EE900A35
:10E40000E6EE877A9FEDE97A2BEE077AEBEE877AD4
:10E410009FEDE77A2AEE877AEBEE877A9FEDE57A31
:10E420002AEE077AEBEE877A9FEDE37A29EE877A78
:10E43000EBEE877A9FEDE17A29EE077AEBEE877AA9
:10E440009FEDDF7A28EE877AEBEE877A9FEDDD7A13
:10E4500028EE077AEBEE877AF1EE677A17EE900AEC
:10E4600009F0D4F941EC100B07F0F6FB002251EC57
:10E47000100BCB4B09F06CF802460B460020C84944
:10E4800009F042FB09F0F8FC00220BEE900AC44BA5
:10E490004046494609F05CF802460B460020C04958
:10E4A00009F032FB09F0E8FC9FEDC77ADFEDC77A8F
:10E4B00006EE900AE6EE877A9FEDC57A2BEE077A94
:10E4C000EDEE077A9FEDC37A2AEE877AEDEE077AB2
:10E4D0009FEDC17A2AEE077AEDEE077A9FEDBF7ABB
:10E4E00029EE877AEDEE077A9FEDBD7A29EE077A5D
:10E4F000EDEE077A9FEDBB7A28EE877AEDEE077A8C
:10E500009FEDB97A28EE077AEDEE077AF1EE677A99
:10E5100017EE900A09F07AF941EC100B07F09CFB1A
:10E52000002251EC100B9E4B09F012F802460B46EC
:10E5300000209B4909F0E8FA09F09EFC00220DEE4C
:10E54000100A974B3046394609F002F802460B464E
:10E550000020934909F0D8FA09F08EFC9FEDA37AC8
:10E56000DFEDA37A06EE900AE6EE877A9FEDA17AB8
:10E570002BEE077AEEEE077A9FED9F7A2AEE877AE6
:10E58000EEEE077A9FED9D7A2AEE077AEEEE077A95
:10E590009FED9B7A29EE877AEEEE077A9FED997AC6
:10E5A00029EE077AEEEE077A9FED977A28EE877AC2
:10E5B000EEEE077A9FED957A28EE077AEEEE077A6F
:10E5C000F1EE677A17EE900A09F020F941EC100B92
:10E5D00007F042FB002251EC100B714B08F0B8FF22
:10E5E00002460B4600206E4909F08EFA09F044FC01
:10E5F00000220EEE100A6A4B2046294608F0A8FFBA
:10E6000002460B460020664909F07EFA09F034FC08
:10E610009FED7F7ADFED7F7A06EE900AE6EE877A4D
:10E620009FED7D7A2BEE077AEDEE877A9FED7B7A70
:10E630002AEE877AEDEE877A9FED797A2AEE077ACD
:10E64000EDEE877A9FED777A29EE877AEDEE877A7D
:10E650009FED757A29EE077AEDEE877A9FED737A52
:10E6600028EE877AEDEE877A9FED717A28EE077AA9
:10E67000EDEE877AF1EE677A17EE900A09F0C6F8A8
:10E6800041EC100B07F0E8FA002251EC100B444B60
:10E6900008F05EFF02460B460020414909F034FABB
:10E6A00009F0EAFB00220DEE900A3D4B51EC1C0BE9
:10E6B00008F04EFF02460B460020394909F024FAC3
:10E6C00009F0DAFB9FED5B7ADFED5B7A06EE900AEC
:10E6D000E6EE877A9FED597A2BEE077AEEEE877A8F
:10E6E0009FED577A2AEE877AEEEE877A9FED557A7C
:10E6F0002AEE077AEEEE877A9FED537A29EE877A33
:10E70000EEEE877A9FED517A29EE077AEEEE877A60
:10E710009FED4F7A28EE877AEEEE877A9FED4D7A5D
:10E7200028EE077AEEEE877AF1EE677A17EE900A16
:10E7300009F06CF841EC100B07F08EFA002251EC56
:10E74000100B174B08F004FF02460B46002014493B
:10E7500009F0DAF909F090FB9FED3F7ADFED3F7A9F
:10E76000EBEE077A9FED3E7AEAEE877A9FED3D7AEF
:10E77000EAEE077A9FED3C7AE9EE877A9FED3B7AE5
:10E78000E9EE077A9FED3A7AE8EE877A9FED397ADB
:10E79000E8EE077A9FED387AEBEE877AFCE000BF6F
:10E7A0000000F03F50252541C785433FB2BFEA3EF8
:10E7B0004B4FDD3EEB01C6BE1D49D33FC85608BED8
:10E7C000305C203F891C22BC5FF83841D0332F3E9B
:10E7D000330F523E440F933EB1039F3E653B383E9C
:10E7E0003936403EC2D97F3EDE76853C08943F41B3
:10E7F00029E2213E1BC2613E0C9E833E1358633EBC
:10E800009F44823ECA57FD3B83E79B3EA247DA3DC9
:10E810009B174541070C0D3E907E8F3E4D7EB73EC7
:10E82000E03E7C3E359F823E8C75B63C98B2013E00
:10E830002BF48E3DAF62414190D61F3EBF4D563EF8
:10E840008AF99B3EC8EF953E37E8783EA5033F3DE9
:10E8500046535D3EED8597BDCC71D8BEFC98F33F25
:10E86000CAF312BFD85D2DBF3BF44EBE1F2D34BF7F
:10E87000EA56D4BE268687BEDE1FBCBED559B5BEBD
:10E880004036C3BEA136AFBE1F66DDBEEF97BA3FAE
:10E89000298B9640EC681741A7D3D741C4E5E0C166
:10E8A000495D89BF840C9C4054F4DDBE0B9C4BC079
:10E8B000EA3C55C0026458C0060158C017F857C05A
:10E8C000E88F9BBC424825407B11CC3E560CEA3F6A
:10E8D000E11F36C0E2BD1A3FE7E79CBF24680C3E4B
:10E8E0004E640BBF72B224BF647B2CBFF29510BF85
:10E8F000F24539BFC9A5313F433B9B40976EA440C9
:10E90000C8E27C41E48989C146F85ABF0183784056
:10E91000B32C00BE8CE114C0038015C0B21719C01F
:10E92000654813C0917016C0CA665F407527814064
:10E9300063EFA44056DD8741BC03ADC1D093444092
:10E940000420ECC06C096BC002A495BF8E849CBFF0
:10E95000803E92BFEC349DBFC3AB95BFBF9F25BD2A
:10E960001F8F803F53FDA73DDE00F33C6BC9FFBC0A
:10E970001D02BE3CA986B0BD8BD5B63C202AACBDDD
:10E98000076DB43D59605FBDE72BACBD2880373DB6
:10E990001600F13ADFB1DC3D1FED487AEDEE077A63
:10E9A0001FED497AEEEE077A1FED4A7AEDEE877A8F
:10E9B0000CEE100A1FED4C7AECEE077AF1EE677A56
:10E9C00017EE900A08F022FF41EC100B07F044F913
:10E9D0001FED527A5FED527AEBEE077A1FED537A14
:10E9E000EAEE877A1FED547AEAEE077A1FED557A40
:10E9F000E9EE877A1FED567AE9EE077A1FED577A2E
:10EA0000E8EE877A1FED587AE8EE077A1FED597A1B
:10EA1000EBEE877A1FED5A7AEDEE077A1FED5B7AFF
:10EA2000EEEE077A1FED5C7AEDEE877A1FED5D7AE8
:10EA3000ECEE077A8DED000BF1EE677A17EE900A97
:10EA400008F0E4FE41EC100B07F006F91FED647AC4
:10EA50005FED647AEBEE077A1FED657AEAEE877A6E
:10EA60001FED667AEAEE077A1FED677AE9EE877A9C
:10EA70001FED687AE9EE077A1FED697AE8EE877A8A
:10EA80001FED6A7AE8EE077A1FED6B7AEBEE877A74
:10EA90001FED6C7AEDEE077A1FED6D7AEEEE077AD8
:10EAA0001FED6E7AEDEE877A1FED6F7AECEE077A46
:10EAB0008DED020BF1EE677A17EE900A08F0A6FED4
:10EAC00041EC100B07F0C8F81FED767A5FED767A0F
:10EAD000B0EE40FAF0EE60FAEBEE077A1FED797ACD
:10EAE000EAEE877A1FED7A7AEAEE077A1FED7B7AF3
:10EAF000E9EE877A1FED7C7AE9EE077A1FED7D7AE1
:10EB0000E8EE877A1FED7E7AE8EE077A1FED7F7ACE
:10EB1000EBEE877A1FED807AEDEE077A1FED817AB2
:10EB2000EEEE077A1FED827AEDEE877A1FED837A9B
:10EB3000ECEE077AF1EE677A17EE900A08F066FEBF
:10EB400041EC100B07F088F81FED897A5FED897AA8
:10EB5000EBEE077A1FED8A7AEAEE877A1FED8B7A61
:10EB6000EAEE077A1FED8C7AE9EE877A1FED8D7A4F
:10EB7000E9EE077A1FED8E7AE8EE877A1FED8F7A3D
:10EB8000E8EE077A1FED907AEBEE877A1FED917A27
:10EB9000EDEE077A1FED927AEEEE077A1FED937A8B
:10EBA000EDEE877A1FED947AECEE077A5BEC10AB12
:10EBB000F1EE677A17EE900A08F028FE41EC100B90
:10EBC00007F04AF81FED9B7A5FED9B7AEBEE077A30
:10EBD0001FED9C7AEAEE877A1FED9D7AEAEE077ABE
:10EBE0001FED9E7AE9EE877A1FED9F7AE9EE077AAC
:10EBF0001FEDA07AE8EE877A1FEDA17AE8EE077A9A
:10EC00001FEDA27AEBEE877A1FEDA37AEDEE077A7D
:10EC10001FEDA47AEEEE077A1FEDA57AEDEE877A66
:10EC20001FEDA67AECEE077A1FEDA77A77EE877ACA
:10EC30001FEDA87A77EE877A55EC104BF1EE677AE4
:10EC400017EE900A08F0E2FD41EC100B07F004F813
:10EC5000002251EC100BF74B08F07AFC02460B46F1
:10EC60000020F44908F050FF09F006F99FEDF27A10
:10EC7000DFEDF27AEBEE077A9FEDF17AEAEE877A32
:10EC80009FEDF07AEAEE077A9FEDEF7AE9EE877A68
:10EC90009FEDEE7AE9EE077A9FEDED7AE8EE877A5E
:10ECA0009FEDEC7AE8EE077A9FEDEB7AEBEE877A50
:10ECB0009FEDEA7AEDEE077A9FEDE97AEEEE077ABC
:10ECC0009FEDE87AEDEE877A9FEDE77AECEE077A32
:10ECD0009FEDE67A77EE877A9FEDE57A77EEC77A51
:10ECE0000EEE900AF1EE677A17EE900A08F08EFDAC
:10ECF00041EC100B06F0B0FF002251EC100BCD4B95
:10ED000008F026FC02460B460020CA4908F0FCFE2B
:10ED100009F0B2F89FEDD77ADFEDD77AEBEE077AFC
:10ED20009FEDD67AEAEE877A9FEDD57AEAEE077AFA
:10ED30009FEDD47AE9EE877A9FEDD37AE9EE077AF0
:10ED40009FEDD27AE8EE877A9FEDD17AE8EE077AE6
:10ED50009FEDD07AEBEE877A9FEDCF7AEDEE077AD2
:10ED60009FEDCE7AEEEE077A9FEDCD7AEDEE877AC3
:10ED70009FEDCC7AECEE077A9FEDCB7A77EE877A2F
:10ED80009FEDCA7A77EE877A0CEE900AF1EE677AF9
:10ED900017EE900A08F03AFD41EC100B06F05CFF0C
:10EDA0009FEDC37ADFEDC37AEBEE077A9FEDC27A6F
:10EDB000EAEE877A9FEDC17AEAEE077A9FEDC07A94
:10EDC000E9EE877A9FEDBF7AE9EE077A9FEDBE7A8A
:10EDD000E8EE877A9FEDBD7AE8EE077A9FEDBC7A80
:10EDE000EBEE877A9FEDBB7AEDEE077A9FEDBA7A6C
:10EDF000EEEE077A9FEDB97AEDEE877A9FEDB87A5D
:10EE0000ECEE077A9FEDB77A77EE877A9FEDB67AC8
:10EE100077EE877A59EC108BF1EE677A17EE900A4D
:10EE200008F0F4FC41EC100B06F016FF0022814BB9
:10EE30004046494657EC106B08F08AFB02460B46E9
:10EE400000207C4908F060FE09F016F89FEDA77AD3
:10EE5000DFEDA77A06EE900AE6EE877A9FEDA57AB7
:10EE60002BEE077AEEEE877A9FEDA37A2AEE877A69
:10EE7000EEEE877A9FEDA17A2AEE077AEEEE877A98
:10EE80009FED9F7A29EE877AEEEE877A9FED9D7A45
:10EE900029EE077AEEEE877A9FED9B7A28EE877A45
:10EEA000EEEE877A9FED997A28EE077AEEEE877A72
:10EEB0009FED977A2BEE877AEEEE877A9FED957A23
:10EEC0002DEE077AEEEE877A9FED937A2EEE077A93
:10EED000EEEE877A9FED917A2DEE877AEEEE877AC5
:10EEE0009FED8F7A2CEE077AEEEE877AF1EE677A55
:10EEF00017EE900A08F08AFC41EC100B06F0ACFE0D
:10EF0000002251EC100B4B4B08F022FB02460B4643
:10EF10000020484908F0F8FD08F0AEFF00220EEE90
:10EF2000900A444B3046394608F012FB02460B4625
:10EF30000020404908F0E8FD08F09EFF9FED797A37
:10EF4000DFED797A06EE900AE6EE877A9FED777A22
:10EF50002BEE077AECEE877A9FED757A2AEE877AA8
:10EF6000ECEE877A9FED737A2AEE077AECEE877AD9
:10EF70009FED717A29EE877AECEE877A9FED6F7AB2
:10EF800029EE077AECEE877A9FED6D7A28EE877A84
:10EF9000ECEE877A9FED6B7A28EE077AECEE877AB3
:10EFA0009FED697A2BEE877AECEE877A9FED677A90
:10EFB0002DEE077AECEE877A9FED657A2EEE077AD2
:10EFC000ECEE877A9FED637A2DEE877AECEE877A06
:10EFD0009FED617A2CEE077AECEE877AF1EE677A94
:10EFE00017EE900A08F012FC41EC100B06F034FE0C
:10EFF000002251EC100B0F4B08F0AAFA02460B4608
:10F0000000200C4908F080FD08F036FF9FED537A90
:10F01000DFED537AEBEE077A9FED527AEAEE877ACC
:10F020009FED517AEAEE077A9FED507AE9EE877A02
:10F03000D0E000BF0000F03F0CEB6DBD4AB4803F54
:10F04000B751963D72E79C3D2A01243D13B2C23D63
:10F05000AEE27C3CCC2080BD78E1A8BDDD465EBD43
:10F06000F29B94BD743613BD5A91713C3B404F3DA9
:10F07000A06D8B3C2040593CDAEF813F14F5BA3D3E
:10F08000CF82B83D18739A3D5E1AB03C90E0483B81
:10F09000FFBCC3BD9AF20E3D1D4CBD3DF8947DBC36
:10F0A000C4EA1E3ECF929C3D3F73EC3D0EFBD83D23
:10F0B0006918E63D8504833F882DAD3D72E2A23D8F
:10F0C00076B71F3D98B243BD88031BBDC8433BBD07
:10F0D00025D5693D79817A3CAEA38BBCF83AAA3D2F
:10F0E0000E8010BCD13FEE3DB6C60F3D4393B840F5
:10F0F000661C833DBAA4083E982E933C32F0543EE1
:10F10000F23D7F3D3E0E123E6782093E4BFB2F3C97
:10F11000EF59573DECDB3C3E25F0D03DB470253E29
:10F12000B2619E3D84C5A24010E3903D5E5F143EF7
:10F13000A61D463D01EB2A3EC25A213EC0758ABC3F
:10F1400018E9223E15BFC33DF8EA103EAAB92E3E8B
:10F150003D0F003E7E6D543D2364F43D69891ABE27
:10F160005B66FD3F5EFA103D50DD813F2C3CEFBFFA
:10F17000F114923E05F329BE227236BEF14CBEBE9A
:10F18000D20A06BF0131D5BEBB3D02BF78C7E1BE82
:10F190004739F6BEE16BF6BEDCB99FBEF557C83FF6
:10F1A0000A0CA7BEF00F3DBED8F972BF8F4E053DC9
:10F1B0001CE19BBE574F1FBEC67E0ABF0A37E8BE82
:10F1C00089CBFABE1D561ABF54BADEBE38FFFEBE4A
:10F1D0004C92DEBE1FED1A7AE9EE077A1FED1B7A1C
:10F1E000E8EE877A1FED1C7AE8EE077A1FED1D7AAC
:10F1F000EBEE877A1FED1E7AEDEE077A1FED1F7A90
:10F20000EEEE077A1FED207AEDEE877A1FED217A78
:10F21000ECEE077A1FED227AEEEE877A0CEE900A7A
:10F220001FED247AECEE877AF1EE677A17EE900AFA
:10F2300008F0ECFA41EC100B06F00EFD1FED2A7AF7
:10F240005FED2A7AEBEE077A1FED2B7AEAEE877AEA
:10F250001FED2C7AEAEE077A1FED2D7AE9EE877A18
:10F260001FED2E7AE9EE077A1FED2F7AE8EE877A06
:10F270001FED307AE8EE077A1FED317AEBEE877AF0
:10F280001FED327AEDEE077A1FED337AEEEE077A54
:10F290001FED347AEDEE877A1FED357AECEE077AC2
:10F2A0001FED367AEEEE877A1FED377AECEE877A2D
:10F2B00057EC106BF1EE677A17EE900A08F0A6FA99
:10F2C00041EC100B06F0C8FC002251EC100B6E4B09
:10F2D00008F03EF902460B4600206B4908F014FC8A
:10F2E00008F0CAFD00220490674B3046394608F00A
:10F2F0002FF902460B460020634908F005FC08F090
:10F30000BBFD00220590604B2046294608F020F9FD
:10F3100002460B4600205C4908F0F6FB08F0ACFD05
:10F3200000220690584B5046594608F011F9024603
:10F330000B460020544908F0E7FB08F09DFD002231
:10F340000790514B51EC1F0B08F002F902460B4697
:10F3500000204D4908F0D8FB08F08EFD00220FEE8A
:10F36000100A494BDDE9020108F0F2F802460B46AB
:10F370000020454908F0C8FB08F07EFD00220FEE92
:10F38000900A414BDDE9000108F0E2F802460B4625
:10F3900000203D4908F0B8FB08F06EFDDFED3B7A38
:10F3A00007EE100A6BEEA7BADFED397AE7EE2B7A9B
:10F3B0009FED387A2DEE07DA9FED377AEFEE8D7AF2
:10F3C0002EEE07EA9FED357AEFEE0E7A6DEE87DAD4
:10F3D0009DED077AE7EE2D7A9FED317A2CEE07CA84
:10F3E0009DED067AE7EE0C7A9FED2E7A6EEE87EAB7
:10F3F0009DED057AE7EE2E7A9FED2B7A6CEE87CAAB
:10F400009DED047AE7EE2C7A9FED287AEBEE077AF1
:10F410009FED277AEAEE877A9FED267AEAEE077A61
:10F420009FED257AE9EE877A9FED247AE9EE077A57
:10F430009FED237AE8EE877A9FED227AE8EE077A4D
:10F44000F1EE677A17EE900A08F0E0F941EC100B44
:10F4500006F002FC002251EC100B0B4B08F078F880
:10F4600002460B460020084908F04EFB08F004FD58
:10F470009FED150A07EE900A27EE800A09B0BDEC51
:10F48000108BBDE8F08F00BF0000F03F42954CBFED
:10F49000DCA2B6C0B5204E4195DEB63F921CF240CC
:10F4A0005BF65F412F76553F5001063ED89F3440B2
:10F4B000714E034152E02F42F3075EC246C2343F11
:10F4C00079EB9AC0A43B0BC10000C8429FEDF87ACB
:10F4D000DFEDF87AE0EE077A2DE9F04F9FEDF67A4E
:10F4E000E0EE877A9FEDF57AE1EE077A9FEDF47A08
:10F4F000E1EE877A9FEDF37AE2EE077A9FEDF27AFA
:10F5000077EE877A9FEDF17A77EEC77A9FEDF07A02
:10F5100077EE877A9FEDEF7A77EE877A9FEDEE7A36
:10F520002DED108B77EEC77A87B0F1EE677A17EE84
:10F53000900AB0EE419AF0EE618AB0EE428AB0EEE7
:10F5400040AAF0EE609A08F061F941EC100B06F069
:10F5500083FB002251EC100BE04B07F0F9FF024651
:10F560000B460020DD4908F0CFFA08F085FC9FED3E
:10F57000DC7ADFEDDC7AEAEE077A9FEDDB7AE9EE02
:10F58000877A9FEDDA7AE9EE077A9FEDD97AE8EE8D
:10F59000877A9FEDD87AE8EE077A9FEDD77A77EEF3
:10F5A000C77A9FEDD67A77EEC77A9FEDD57A77EE58
:10F5B000877A9FEDD47A77EEC77A9FEDD37A77EE8C
:10F5C000877A0CEE900AF1EE677A17EE900A08F04F
:10F5D0001DF941EC100B06F03FFB002251EC100B23
:10F5E000BE4B07F0B5FF02460B460020BB4908F0B2
:10F5F0008BFA08F041FC9FEDC57ADFEDC57AEAEEA3
:10F60000077A9FEDC47AE9EE877A9FEDC37AE9EE37
:10F61000077A9FEDC27AE8EE877A9FEDC17AE8EE2D
:10F62000077A9FEDC07A77EE877A9FEDBF7A77EE03
:10F63000877A9FEDBE7A77EEC77A9FEDBD7A77EE37
:10F64000C77A9FEDBC7A77EE877A0CEE100AF1EE5E
:10F65000677A17EE900A08F0D9F841EC100B06F023
:10F66000FBFA002251EC100B9C4B07F071FF024695
:10F670000B460020994908F047FA08F0FDFB9FED82
:10F68000AE7ADFEDAE7AEAEE077A9FEDAD7AE9EE7B
:10F69000877A9FEDAC7AE9EE077A9FEDAB7AE8EED8
:10F6A000877A9FEDAA7AE8EE077A9FEDA97A77EE3E
:10F6B000877A9FEDA87A77EE877A9FEDA77A77EE23
:10F6C000C77A9FEDA67A77EEC77A9FEDA57A77EE97
:10F6D000C77A0DEE900AF1EE677A17EE900A08F0FD
:10F6E00095F841EC100B06F0B7FA002251EC100B24
:10F6F0007A4B07F02DFF02460B460020774908F0B1
:10F7000003FA08F0B9FB9FED977ADFED977AEAEEFE
:10F71000077A9FED967AE9EE877A9FED957AE9EE82
:10F72000077A9FED947AE8EE877A9FED937AE8EE78
:10F73000077A9FED927A77EE877A9FED917A77EE4E
:10F74000877A9FED907A77EE877A9FED8F7A77EEC2
:10F75000877A9FED8E7A77EEC77A0DEE100AF1EE7A
:10F76000677A17EE900A08F051F841EC100B06F09A
:10F7700073FA002251EC100B584B07F0E9FE0246D9
:10F780000B460020554908F0BFF908F075FB9FEDC6
:10F79000807ADFED807AEAEE077A9FED7F7AE9EEF4
:10F7A000877A9FED7E7AE9EE077A9FED7D7AE8EE23
:10F7B000877A9FED7C7AE8EE077A9FED7B7A77EE89
:10F7C000877A9FED7A7A77EE877A9FED797A77EE6E
:10F7D000877A9FED787A77EE877A9FED777A77EE62
:10F7E000877A0AEE900AF1EE677A17EE900A08F02F
:10F7F0000DF841EC100B06F02FFA9FED707ADFED5B
:10F80000707AB0EE40BAF0EE60BAEAEE077A9FED99
:10F810006D7AE9EE877A9FED6C7AE9EE077A9FEDD3
:10F820006B7AE8EE877A9FED6A7AE8EE077A9FEDC9
:10F83000697A77EE877A9FED687A77EE877A9FED1F
:10F84000677A77EE877A9FED667A77EE877A9FED13
:10F85000657A77EE877AF1EE677A17EE900A07F00D
:10F86000D5FF41EC100B06F0F7F99FED5F7ADFED65
:10F870005F7AEAEE077A9FED5E7AE9EE877A9FED8E
:10F880005D7AE9EE077A9FED5C7AE8EE877A9FED84
:10F890005B7AE8EE077A9FED5A7A77EE877A9FEDEA
:10F8A000597A77EE877A9FED587A77EE877ADDE09E
:10F8B00083582C3DD4E1803F4A41CE3D3BD0E33DCF
:10F8C00010CBB33DF67EDCBB52AF783D133BE43B3F
:10F8D0008475613CAE185C3DFE72E63C0000F03F72
:10F8E00000F50E3DC529813F1815393CC08E5BBD22
:10F8F000E8695B3D5085E23C8302343DD27B023DAA
:10F900001D484B3BCA2B9F3B72CB0E3E909F02BBC8
:10F91000C0A2803FF66FC43C1F87023D69037ABDD9
:10F9200030A17ABC0BEE333DF6B9FB3DDB6B373DC6
:10F930002C3F5F3CB7A0053E8FAE123CE5A8803F50
:10F9400061BC043E3C81D2BC9959C73DE5BBDC3D5E
:10F95000044D9A3D996CF33CABAA713DAA25D33C6A
:10F960001428853DE61480BBFE7E813FF3F54CBD37
:10F970009F16773D75800BBD88F7C03CF927013D88
:10F98000EDCA883DA30FAF3D98F8003D35783B3D6B
:10F990003E80433EB601853FD92C8D3E6B71383E8B
:10F9A00015BF053E0584533E173DF93D04E6503E24
:10F9B000D886093ED1603B3E1C840B3E12A37C3EA0
:10F9C0004475833FD7CE603E52C95F3E9B2B203E9D
:10F9D0000F8A2F3E6CD4003E61135B3E9ED8363EAC
:10F9E0008180563EA5431A3E0F96AF3D01E7833F07
:10F9F000514FFA3D9927133E15AE773E1C84463E83
:10FA0000448B693E1254BE3DBFDA8E3E48148A3E96
:10FA10006BBA393EFF302F3E2F9B843FB1D4C33D9C
:10FA200074BC8B3E9AFC173E4AC2EE3D5D5A8D3E39
:10FA3000D761973E9098F43DAFD3273ED428FA3D46
:10FA4000C4B6373E117E843F3129333EC93BE03D89
:10FA50009E24183E2287863DCC8A863E12F4E73DDE
:10FA6000F0F6523EF87C873E0E065F3E1FED197A97
:10FA700077EE877A1FED1A7A77EE877A5BEC10AB18
:10FA8000F1EE677A17EE900A07F0C0FE41EC100B1A
:10FA900006F0E2F81FED217A5FED217AEAEE077AAF
:10FAA0001FED227AE9EE877A1FED237AE9EE077AD5
:10FAB0001FED247AE8EE877A1FED257AE8EE077AC3
:10FAC0001FED267A77EE877A1FED277A77EE877A11
:10FAD0001FED287A77EE877A1FED297A77EE877AFD
:10FAE0001FED2A7A77EE877A59EC108BF1EE677A60
:10FAF00017EE900A07F08AFE41EC100B06F0ACF806
:10FB00001FED317A5FED317AEAEE077A1FED327A36
:10FB1000E9EE877A1FED337AE9EE077A1FED347A42
:10FB2000E8EE877A1FED357AE8EE077A1FED367A30
:10FB300077EE877A1FED377A77EE877A1FED387A7E
:10FB400077EE877A1FED397A77EE877A1FED3A7A6A
:10FB500077EE877A57EC106BF1EE677A17EE900A22
:10FB600007F054FE41EC100B06F076F851EC1B0B3D
:10FB70000022F44B55EC104B07F0EAFC02460B4612
:10FB80000020F04907F0C0FF08F076F99FEDEE7A0B
:10FB9000DFEDEE7A06EE900AE6EE877A9FEDEC7ADC
:10FBA0002AEE077AECEE877A9FEDEA7A29EE877AD9
:10FBB000ECEE877A9FEDE87A29EE077AECEE877A09
:10FBC0009FEDE67A28EE877AECEE877A9FEDE47A6D
:10FBD00028EE077AECEE877AF1EE677A17EE900A54
:10FBE00007F014FE41EC100B06F036F8002251EC41
:10FBF000100BD44B07F0ACFC02460B460020D14959
:10FC000007F082FF08F038F900220CEE900ACD4B85
:10FC10005046594607F09CFC02460B460020C94955
:10FC200007F072FF08F028F99FEDCE7ADFEDCE7A6B
:10FC300006EE900AE6EE877A9FEDCC7A2AEE077AF6
:10FC4000ECEE077A9FEDCA7A29EE877AECEE077A16
:10FC50009FEDC87A29EE077AECEE077A9FEDC67A17
:10FC600028EE877AECEE077A9FEDC47A28EE077AC1
:10FC7000ECEE077AF1EE677A17EE900A07F0C6FD10
:10FC800041EC100B05F0E8FF002251EC100BAD4BDE
:10FC900007F05EFC02460B460020AA4907F034FF3D
:10FCA00008F0EAF800220CEE100AA64B404649463E
:10FCB00007F04EFC02460B460020A24907F024FF45
:10FCC00008F0DAF89FEDAE7ADFEDAE7A06EE900A34
:10FCD000E6EE877A9FEDAC7A2AEE077AEDEE877A28
:10FCE0009FEDAA7A29EE877AEDEE877A9FEDA87AC2
:10FCF00029EE077AEDEE877A9FEDA67A28EE877ACD
:10FD0000EDEE877A9FEDA47A28EE077AEDEE877AFA
:10FD1000F1EE677A17EE900A07F078FD41EC100BD0
:10FD200005F09AFF002251EC100B864B07F010FCF7
:10FD300002460B460020834907F0E6FE08F09CF8D7
:10FD400000220BEE900A7F4B3046394607F000FC4C
:10FD500002460B4600207B4907F0D6FE08F08CF8DF
:10FD60009FED8E7ADFED8E7A06EE900AE6EE877AC8
:10FD70009FED8C7A2AEE077AEDEE077A9FED8A7A6C
:10FD800029EE877AEDEE077A9FED887A29EE077AD9
:10FD9000EDEE077A9FED867A28EE877AEDEE077A08
:10FDA0009FED847A28EE077AEDEE077AF1EE677A16
:10FDB00017EE900A07F02AFD41EC100B05F04CFFFE
:10FDC000002251EC100B5F4B07F0C2FB02460B46C2
:10FDD00000205C4907F098FE08F04EF800220BEE78
:10FDE000100A584B2046294607F0B2FB02460B4644
:10FDF0000020544907F088FE08F03EF89FED6E7A27
:10FE0000DFED6E7A06EE900AE6EE877A9FED6C7A69
:10FE10002AEE077AEAEE877A9FED6A7A29EE877AE8
:10FE2000EAEE877A9FED687A29EE077AEAEE877A1A
:10FE30009FED667A28EE877AEAEE877A9FED647AFC
:10FE400028EE077AEAEE877AF1EE677A17EE900AE3
:10FE500007F0DCFC41EC100B05F0FEFE002251EC3B
:10FE6000100B384B07F074FB02460B460020354957
:10FE700007F04AFE08F000F89FED567ADFED567A5B
:10FE8000EAEE077A9FED557AE9EE877A9FED547A8C
:10FE9000E9EE077A9FED537AE8EE877A9FED527A82
:10FEA000E8EE077A9FED517AECEE877A9FED507A73
:10FEB000ECEE077A9FED4F7AEBEE877A9FED4E7A64
:10FEC000EBEE077A0AEE900A9FED4C7AEAEE877A1B
:10FED000F1EE677A17EE900A07F098FC41EC100BF0
:10FEE00005F0BAFE9FED467ADFED467AEAEE077A34
:10FEF0009FED457AE9EE877A9FED447AE9EE077A3D
:10FF00009FED437AE8EE877A9FED427AE8EE077A32
:10FF10009FED417AECEE877A9FED407AECEE077A1E
:10FF20009FED3F7AEBEE877A9FED3E7AEBEE077A14
:10FF30009FED3D7AEAEE877A8DED000BF1EE677A60
:10FF4000D0E000BF0000F03F22284041A55ECC3D3C
:10FF50000F1D863EB1D39F3E95327E3E602C9B3E68
:10FF600039A0623E441F44414F244F3C761C993EC9
:10FF700073DCAF3EE4DE943E6F128D3E9F3D2C3E1F
:10FF800019724641569A1F3E502A803EDC175D3E4C
:10FF90001D72593E4DD6A53E1A49243E07144241D2
:10FFA000B3BE2B3E0834843E65B54F3EC751463E36
:10FFB000EE2C9D3EBF67783E27815641DB77FC3DA6
:10FFC0006583B33E59389A3EA871AC3EA5444E3E77
:10FFD00005F0AE3DD53D42C288DB28429A0C8AC16D
:10FFE0003B8DB6C02F50A7BE3BBF9EC1275CFD40D6
:10FFF000B49601418FFB00411E7E0041E56EFE403C
:020000022000DC
:100000006EE0AEC128569E414D4079C13BF392400F
:10001000F52F22C1C5A5A8C029CD7640F0D87640DD
:10002000456474405DE27540E3FF7740D719F0C145
:10003000B7F3324231E103C27BA89F3F1C07F6C1F0
:1000400013BC5E41444FAF4028BCAB408A3CAA4041
:100050007E8BAD40F2FBA940B35AF4C137D50E42B6
:100060009D69B0C1E0FA9740CF2C71C12A93FFC0BF
:1000700018858E40B68B8F4070508F40420D944053
:100080003E9E92409DDFACC12D969B41D54177C1EC
:10009000D4FF9140E8AE1DC1B6D5A3C0C36E754074
:1000A0002E5A6D4095876D40F42373404C3978404B
:1000B000C17E653CAB7F803F7AFCC23DA1B953BD98
:1000C000B50E7ABD56AC863CDF4DE23C42F9813D2F
:1000D0007C75C7BB3BC0A53DB89F27BD3531A53D4D
:1000E00065FECA3D17EE900A07F090FB41EC100B3D
:1000F00005F0B2FD1FED337A5FED337AEAEE077A51
:100100001FED347AE9EE877A1FED357AE9EE077A4A
:100110001FED367AE8EE877A1FED377AE8EE077A38
:100120001FED387AECEE877A1FED397AECEE077A1C
:100130001FED3A7AEBEE877A1FED3B7AEBEE077A0A
:100140001FED3C7AEAEE877A8DED020BF1EE677ACD
:1001500017EE900A07F05AFB41EC100B05F07CFDFE
:100160001FED437A5FED437AB0EE40FAF0EE60FAAD
:10017000EAEE077A1FED467AE9EE877A1FED477AB5
:10018000E9EE077A1FED487AE8EE877A1FED497AA3
:10019000E8EE077A1FED4A7AECEE877A1FED4B7A8C
:1001A000ECEE077A1FED4C7AEBEE877A1FED4D7A75
:1001B000EBEE077A1FED4E7AEAEE877AF1EE677A78
:1001C00017EE900A07F022FB41EC100B05F044FDFE
:1001D0001FED547A5FED547AEAEE077A1FED557AF7
:1001E000E9EE877A1FED567AE9EE077A1FED577A26
:1001F000E8EE877A1FED587AE8EE077A1FED597A14
:10020000ECEE877A1FED5A7AECEE077A1FED5B7AF7
:10021000EBEE877A1FED5C7AEBEE077A1FED5D7AE5
:10022000EAEE877A5BEC10ABF1EE677A17EE900A94
:1002300007F0ECFA41EC100B05F00EFD1FED647AAF
:100240005FED647AEAEE077A1FED657AE9EE877A68
:100250001FED667AE9EE077A1FED677AE8EE877A96
:100260001FED687AE8EE077A1FED697AECEE877A7F
:100270001FED6A7AECEE077A1FED6B7AEBEE877A68
:100280001FED6C7AEBEE077A1FED6D7AEAEE877A56
:100290001FED6E7A77EEC77A1FED6F7A77EE877A69
:1002A00055EC104BF1EE677A17EE900A07F0AEFAB4
:1002B00041EC100B05F0D0FC002251EC100BF84B78
:1002C00007F046F902460B460020F54907F01CFCF2
:1002D00007F0D2FD9FEDF37ADFEDF37AEAEE077ACD
:1002E0009FEDF27AE9EE877A9FEDF17AE9EE077AEF
:1002F0009FEDF07AE8EE877A9FEDEF7AE8EE077AE5
:100300009FEDEE7AECEE877A9FEDED7AECEE077AD0
:100310009FEDEC7AEBEE877A9FEDEB7AEBEE077AC6
:100320009FEDEA7AEAEE877A9FEDE97A77EE877AAF
:100330009FEDE87A77EEC77A0DEE900AF1EE677AD4
:1003400017EE900A07F062FA41EC100B05F084FCFE
:10035000002251EC100BD24B07F0FAF802460B4684
:100360000020CF4907F0D0FB07F086FD9FEDDA7A39
:10037000DFEDDA7AEAEE077A9FEDD97AE9EE877A4D
:100380009FEDD87AE9EE077A9FEDD77AE8EE877A83
:100390009FEDD67AE8EE077A9FEDD57AECEE877A74
:1003A0009FEDD47AECEE077A9FEDD37AEBEE877A65
:1003B0009FEDD27AEBEE077A9FEDD17AEAEE877A5B
:1003C0009FEDD07A77EE877A9FEDCF7A77EE877AB6
:1003D0000DEE100AF1EE677A17EE900A07F016FAA2
:1003E00041EC100B05F038FC9FEDC87ADFEDC87AC0
:1003F000EAEE077A9FEDC77AE9EE877A9FEDC67A33
:10040000E9EE077A9FEDC57AE8EE877A9FEDC47A28
:10041000E8EE077A9FEDC37AECEE877A9FEDC27A19
:10042000ECEE077A9FEDC17AEBEE877A9FEDC07A0A
:10043000EBEE077A9FEDBF7AEAEE877A9FEDBE7A00
:1004400077EE877A9FEDBD7A77EE877A59EC108B3D
:10045000F1EE677A17EE900A07F0D8F941EC100B2D
:1004600005F0FAFB00228E4B4046494657EC106BD4
:1004700007F06EF802460B460020894907F044FB5E
:1004800007F0FAFC9FEDAE7ADFEDAE7A06EE900A49
:10049000E6EE877A9FEDAC7A2AEE077AEDEE877A60
:1004A0009FEDAA7A29EE877AEDEE877A9FEDA87AFA
:1004B00029EE077AEDEE877A9FEDA67A28EE877A05
:1004C000EDEE877A9FEDA47A28EE077AEDEE877A33
:1004D0009FEDA27A2CEE877AEDEE877A9FEDA07AD7
:1004E0002CEE077AEDEE877A9FED9E7A2BEE877AD7
:1004F000EDEE877A9FED9C7A2BEE077AEDEE877A08
:100500009FED9A7A2AEE877AEDEE877AF1EE677A96
:1005100017EE900A07F07AF941EC100B05F09CFBFE
:10052000002251EC100B5E4B07F012F802460B460E
:1005300000205B4907F0E8FA07F09EFC00220DEE70
:10054000900A574B3046394607F002F802460B46F0
:100550000020534907F0D8FA07F08EFC9FED847A0B
:10056000DFED847A06EE900AE6EE877A9FED827AD6
:100570002AEE077AEDEE077A9FED807A29EE877AE8
:10058000EDEE077A9FED7E7A29EE077AEDEE077A97
:100590009FED7C7A28EE877AEDEE077A9FED7A7AE6
:1005A00028EE077AEDEE077A9FED787A2CEE877ABF
:1005B000EDEE077A9FED767A2CEE077AEDEE077A6C
:1005C0009FED747A2BEE877AEDEE077A9FED727AC3
:1005D0002BEE077AEDEE077A9FED707A2AEE877A96
:1005E000EDEE077AF1EE677A17EE900A07F00EF952
:1005F00041EC100B05F030FB002251EC100B284BA6
:1006000006F0A6FF02460B460020254907F07CFABB
:1006100007F032FC9FED627ADFED627AEAEE077A4C
:100620009FED617AE9EE877A9FED607AE9EE077ACD
:100630009FED5F7AE8EE877A9FED5E7AE8EE077AC3
:100640009FED5D7AECEE877A9FED5C7AECEE077AAF
:100650009FED5B7AEBEE877A9FED5A7AEBEE077AA5
:100660009FED597AEAEE877A9FED587AEDEE877A18
:100670000DEE100A9FED567AEDEE077AF1EE677AED
:1006800017EE900A07F0C2F841EC100B05F0E4FAFF
:100690009FED507ADFED507AEAEE077AB4E000BFC2
:1006A0000000F03F6DEE6BBD8772803FC27F653DFD
:1006B0003E28E0BCF65EC93D889D803DC2047CBDFD
:1006C0008446B23D606B993DDB4717BD2C645A3DB3
:1006D000D5AED43CD88C2E3D7F22FE3DF8C3823F60
:1006E0005B08813D107E0D3DCB90023E2E69B03CF3
:1006F0006681273EAC38D63DC14C1B3E5A55143E50
:10070000D928393E6A87FD3DEFAB373D70B42E3EA8
:10071000A23C823F2C56283E57431E3EA733463DFF
:10072000C7F5703BF8DA343E808B723D6F7DA23D99
:10073000205B3E3E3AEB323EBA83BC3C60DE263E56
:10074000C38B294190AD153EA2F58B3D33F5D73DC6
:100750007C00173EC8CA3F3E611AD13D6A4A423EFC
:1007600050C1523EE4A1DA3DB28C103EC408793D3E
:1007700007272541FA9C353D18D6613EB34A023E13
:10078000BFBE573E3B31AB3DEEBF3B3EBE1F153EAD
:100790009470A53DC27B393E6CADA53DD023903D04
:1007A0008B213DC1147B0C419BF401C180B5BD3F41
:1007B0009DF0A3C09409B7BF0F63B03F4DE5B33FB1
:1007C000DF83BE3F6E42B73FB2AEB73F0CA1AF3F33
:1007D000D31DBB3FE4B054C1DC6C1B41BD2610C12E
:1007E000A536DF3F697FB8C0CAD2DCBF8CD6CC3F0C
:1007F0006626DB3F9BA5D33FA9A0D93FFEF0CF3FA4
:10080000184AD63FDCC0DE3F1FED0C7AE9EE877A4E
:100810001FED0D7AE9EE077A1FED0E7AE8EE877A82
:100820001FED0F7AE8EE077A1FED107AECEE877A6B
:100830001FED117AECEE077A1FED127AEBEE877A54
:100840001FED137AEBEE077A1FED147AEAEE877A42
:100850001FED157AEDEE877A1FED167AEDEE077A29
:1008600057EC106BF1EE677A17EE900A06F0CEFFA8
:1008700041EC100B05F0F0F9002251EC100B694B24
:1008800006F066FE02460B460020664907F03CF97A
:1008900007F0F2FA00220490624B3046394606F027
:1008A00057FE02460B4600205E4907F02DF907F07F
:1008B000E3FA002205905B4B2046294606F048FEED
:1008C00002460B460020574907F01EF907F0D4FAFC
:1008D00000220EEE100A534B5046594606F038FEE1
:1008E00002460B4600204F4907F00EF907F0C4FA04
:1008F00000220EEE900A4B4B51EC1F0B06F028FE27
:1009000002460B460020474907F0FEF807F0B4FA0C
:1009100000220FEE100A434BDDE9020106F018FE3B
:1009200002460B4600203F4907F0EEF807F0A4FA14
:1009300000220FEE900A3B4BDDE9000106F008FEB5
:1009400002460B460020374907F0DEF807F094FA1C
:10095000DFED357A07EE100A6CEEA7CADFED337AC9
:10096000E7EE2C7A9FED327A2CEE07CA9FED317AB2
:10097000EFEE8C7A6BEE87BA9FED2F7AEFEE2B7A43
:100980002BEE07BA9FED2D7AEEEE8B7A6AEE87AAF0
:100990009FED2B7AEEEE2A7A6DEE87DA9DED057AE1
:1009A000E7EE2D7A9FED277A2DEE07DA9DED047A9A
:1009B000E7EE0D7A9FED247AEAEE077A9FED237A2F
:1009C000E9EE877A9FED227AE9EE077A9FED217AA8
:1009D000E8EE877A9FED207AE8EE077AF1EE677A03
:1009E00017EE900A06F012FF41EC100B05F034F9F7
:1009F000002251EC100B0B4B06F0AAFD02460B46F1
:100A00000020084907F080F807F036FA9FED130A36
:100A100007EE900A27EE800A07B0BDEC108BBDE808
:100A2000F08F00BF0000F03FDFD96841A8AEA641BB
:100A30004002914060F65F41F1B7BE40A03E8F405A
:100A4000ED643F40BB0C49400D8B46C295D8D2C1E6
:100A500033C56B4167B653C1701496410000C8425C
:100A60009FEDF87ADFEDF87AE0EE077A2DE9F04FA6
:100A70009FEDF67AE0EE877A9FEDF57AE1EE077A60
:100A80009FEDF47AE1EE877A9FEDF37AE2EE077A52
:100A90009FEDF27AE2EE877A9FEDF17AE3EE077A44
:100AA0009FEDF07A77EE877A9FEDEF7A77EE877A8F
:100AB0009FEDEE7A77EE877A9FEDED7A77EEC77A43
:100AC0009FEDEC7A2DED108B77EE877A89B0F1EE01
:100AD000677A17EE900AB0EE41AAF0EE619AB0EE96
:100AE000429AF0EE628AB0EE438AB0EE40BAF0EE7F
:100AF00060AA06F08BFE41EC100B05F0ADF8002269
:100B000051EC100BDC4B06F023FD02460B46002097
:100B1000D94906F0F9FF07F0AFF99FEDD87ADFED7C
:100B2000D87AEBEE077A9FEDD77AEAEE877A9FEDD7
:100B3000D67AEAEE077A9FEDD57AE9EE877A9FEDCD
:100B4000D47AE9EE077A9FEDD37AE8EE877A9FEDC3
:100B5000D27AE8EE077A9FEDD17A77EE877A9FED29
:100B6000D07A77EE877A9FEDCF7A77EE877A9FED0E
:100B7000CE7A77EE877A9FEDCD7A77EE877A0BEE95
:100B8000900AF1EE677A17EE900A06F03FFE41EC0C
:100B9000100B05F061F8002251EC100BB64B06F07B
:100BA000D7FC02460B460020B34906F0ADFF07F024
:100BB00063F99FEDBF7ADFEDBF7AEBEE077A9FED29
:100BC000BE7AEAEE877A9FEDBD7AEAEE077A9FED6C
:100BD000BC7AE9EE877A9FEDBB7AE9EE077A9FED62
:100BE000BA7AE8EE877A9FEDB97AE8EE077A9FED58
:100BF000B87A77EE877A9FEDB77A77EE877A9FEDAE
:100C0000B67A77EE877A9FEDB57A77EE877A9FEDA1
:100C1000B47A77EE877A0DEE100AF1EE677A17EE66
:100C2000900A06F0F3FD41EC100B05F015F80022D8
:100C300051EC100B904B06F08BFC02460B4600204B
:100C40008D4906F061FF07F017F99FEDA67ADFEDF9
:100C5000A67AEBEE077A9FEDA57AEAEE877A9FED0A
:100C6000A47AEAEE077A9FEDA37AE9EE877A9FED00
:100C7000A27AE9EE077A9FEDA17AE8EE877A9FEDF6
:100C8000A07AE8EE077A9FED9F7A77EEC77A9FED1C
:100C90009E7A77EE877A9FED9D7A77EE877A9FED41
:100CA0009C7A77EE877A9FED9B7A77EEC77A0EEE85
:100CB000100AF1EE677A17EE900A06F0A7FD41ECF4
:100CC000100B04F0C9FF002251EC100B6A4B06F028
:100CD0003FFC02460B460020674906F015FF07F06F
:100CE000CBF89FED8D7ADFED8D7AEBEE077A9FEDF5
:100CF0008C7AEAEE877A9FED8B7AEAEE077A9FED9F
:100D00008A7AE9EE877A9FED897AE9EE077A9FED94
:100D1000887AE8EE877A9FED877AE8EE077A9FED8A
:100D2000867A77EE877A9FED857A77EE877A9FEDE0
:100D3000847A77EEC77A9FED837A77EE877A9FED94
:100D4000827A77EE877A0DEE900AF1EE677A17EEE7
:100D5000900A06F05BFD41EC100B04F07DFF0022D1
:100D600051EC100B444B06F0F3FB02460B460020FF
:100D7000414906F0C9FE07F07FF89FED747ADFED78
:100D8000747AEBEE077A9FED737AEAEE877A9FED3D
:100D9000727AEAEE077A9FED717AE9EE877A9FED33
:100DA000707AE9EE077A9FED6F7AE8EE877A9FED29
:100DB0006E7AE8EE077A9FED6D7A77EE877A9FED8F
:100DC0006C7A77EE877A9FED6B7A77EE877A9FED74
:100DD0006A7A77EE877A9FED697A77EE877A0EEEF8
:100DE000900AF1EE677A17EE900A06F00FFD41ECDB
:100DF000100B04F031FF9FED627ADFED627AEBEECB
:100E0000077A9FED617AEAEE877A9FED607AEAEEE3
:100E1000077A9FED5F7AE9EE877A9FED5E7AE9EED9
:100E2000077A9FED5D7AE8EE877A9FED5C7AE8EECF
:100E3000077A9FED5B7A77EE877A9FED5A7A77EEA5
:100E4000877A05E1A3EC5FBD91BE803F926851BDFA
:100E50001E6D6BBD3597553DD9E667BD35210CBD7F
:100E6000736CC43CC77C073DFCABD73D293B043EBB
:100E70001DDDAA3C7D7F013D0000F03FB8B482BC7F
:100E800049D5803FBF1D3DBD995CA13D09BE463C93
:100E9000D0DB77BD1686BC3D0A05A53D1FB61B3DC0
:100EA000A343D43D2669273DD7EA933D892A533C85
:100EB0001D5CD73D819A803FD0C4B43C787CF43D22
:100EC000A47ABA3D52B3D73C77B1603DF3821B3D63
:100ED000117F073B5206DD3CDFA4EA3D51B1433DA3
:100EE00037BCBF3DE0AE423C97CE803FD958E93D8C
:100EF0007C42C53D2222293C52E2E33C8171CB3D3C
:100F0000C95F753D5E30E13B0514B33D5D897A3DB7
:100F100013B0A43B9993863D476B91BD2085803FDC
:100F20005F7AC33DE52FBA3D76E56E3DC33995BD89
:100F3000B56EB83DB6989C3C3009B83D09231B3DC1
:100F40005FBE943CBC79D03D6EA3BB3DD877213EBB
:100F5000AD12843FE88AFE3D4C9FF13D11DED23D4B
:100F6000284F543ED62A113EEDCE323DEF4C0B3E7B
:100F7000EA266B3E9C84403EDF102B3E5D5F7D3E4B
:100F8000FD27523EE15B833F55D4CC3DFC966F3E3E
:100F9000B9B34C3EB90C533E460F213E813B5EBC7B
:100FA0002FBE253E5E16E53DB1742B3E0D23613EFE
:100FB000A3FC1A3E51773A3E4569833FF0466F3EA7
:100FC000237BEA3D368A313E9C0E303ECF59D63DDA
:100FD00041C2443CDE3D0F3EBC33793E74A3373EF4
:100FE000EDB2B93DA8851E3E0AA8493E4904833F9B
:100FF000FBA0523E44EE6D3DD9FB263EB93E2E3E4F
:101000006D8E0A3EE5B3423D7BC73F3E0FF05B3E2F
:10101000D13EBE3D7AD6363EE7C45E3E5E285B3E9C
:10102000A4A8823FC295673E72D7D03D886C833DAD
:101030000E45EC3DE146343E0D26A63D43742B3E65
:101040002F46F43D81E46E3EBE9A423E5254643EC9
:101050001FED2B7A77EE877A1FED2C7A77EE877A61
:101060001FED2D7A77EE877A5BEC10ABF1EE677AA5
:1010700017EE900A06F0CAFB41EC100B04F0ECFDF1
:101080001FED347A5FED347AEBEE077A1FED357A97
:10109000EAEE877A1FED367AEAEE077A1FED377AA5
:1010A000E9EE877A1FED387AE9EE077A1FED397A93
:1010B000E8EE877A1FED3A7AE8EE077A1FED3B7A81
:1010C00077EE877A1FED3C7A77EE877A1FED3D7ACF
:1010D00077EE877A1FED3E7A77EE877A1FED3F7ABB
:1010E00077EE877A59EC108BF1EE677A17EE900A5B
:1010F00006F08CFB41EC100B04F0AEFD1FED467AC0
:101100005FED467AEBEE077A1FED477AEAEE877AD3
:101110001FED487AEAEE077A1FED497AE9EE877A01
:101120001FED4A7AE9EE077A1FED4B7AE8EE877AEF
:101130001FED4C7AE8EE077A1FED4D7A77EE877A4D
:101140001FED4E7A77EE877A1FED4F7A77EE877A2A
:101150001FED507A77EE877A1FED517A77EE877A16
:1011600057EC106BF1EE677A17EE900A06F04EFB23
:1011700041EC100B04F070FD1FED587A5FED587ACA
:10118000EBEE077A1FED597AEAEE877A1FED5A7A6D
:10119000EAEE077A1FED5B7AE9EE877A1FED5C7A5B
:1011A000E9EE077A1FED5D7AE8EE877A1FED5E7A49
:1011B000E8EE077A1FED5F7A77EE877A1FED607AA7
:1011C00077EE877A1FED617A77EE877A1FED627A84
:1011D00077EE877A1FED637A77EE877A55EC104BBE
:1011E000F1EE677A17EE900A06F010FB41EC100B57
:1011F00004F032FD0022F34BB0EE40CAF0EE60CABC
:101200005046594606F0A4F902460B460020ED4927
:1012100006F07AFC06F030FE9FEDEB7ADFEDEB7A1C
:1012200006EE900AE6EE877A9FEDE97A2BEE077AD2
:10123000EBEE877A9FEDE77A2AEE877AEBEE877AF4
:101240009FEDE57A2AEE077AEBEE877A9FEDE37A57
:1012500029EE877AEBEE877A9FEDE17A29EE077A1D
:10126000EBEE877A9FEDDF7A28EE877AEBEE877ACE
:101270009FEDDD7A28EE077AEBEE877AF1EE677A5A
:1012800017EE900A06F0C2FA41EC100B04F0E4FCF1
:10129000002251EC100BCB4B06F05AF902460B46DC
:1012A0000020C84906F030FC06F0E6FD00220BEEF7
:1012B000900AC44B4046494606F04AF902460B469E
:1012C0000020C04906F020FC06F0D6FD9FEDC77A4D
:1012D000DFEDC77A06EE900AE6EE877A9FEDC57AD3
:1012E0002BEE077AEDEE077A9FEDC37A2AEE877A26
:1012F000EDEE077A9FEDC17A2AEE077AEDEE077AD6
:101300009FEDBF7A29EE877AEDEE077A9FEDBD7AE1
:1013100029EE077AEDEE077A9FEDBB7A28EE877A01
:10132000EDEE077A9FEDB97A28EE077AEDEE077AAF
:10133000F1EE677A17EE900A06F068FA41EC100BAE
:1013400004F08AFC002251EC100B9E4B06F000F9D1
:1013500002460B4600209B4906F0D6FB06F08CFDAA
:1013600000220DEE100A974B3046394606F0F0F891
:1013700002460B460020934906F0C6FB06F07CFDB2
:101380009FEDA37ADFEDA37A06EE900AE6EE877A68
:101390009FEDA17A2BEE077AEEEE077A9FED9F7A0A
:1013A0002AEE877AEEEE077A9FED9D7A2AEE077A8B
:1013B000EEEE077A9FED9B7A29EE877AEEEE077ABA
:1013C0009FED997A29EE077AEEEE077A9FED977AEC
:1013D00028EE877AEEEE077A9FED957A28EE077A67
:1013E000EEEE077AF1EE677A17EE900A06F00EFA43
:1013F00041EC100B04F030FC002251EC100B714B4F
:1014000006F0A6F802460B4600206E4906F07CFB6B
:1014100006F032FD00220EEE100A6A4B20462946E5
:1014200006F096F802460B460020664906F06CFB73
:1014300006F022FD9FED7F7ADFED7F7A06EE900ABF
:10144000E6EE877A9FED7D7A2BEE077AEDEE877ACE
:101450009FED7B7A2AEE877AEDEE877A9FED797A97
:101460002AEE077AEDEE877A9FED777A29EE877A72
:10147000EDEE877A9FED757A29EE077AEDEE877AA1
:101480009FED737A28EE877AEDEE877A9FED717A79
:1014900028EE077AEDEE877AF1EE677A17EE900A7A
:1014A00006F0B4F941EC100B04F0D6FB002251EC2D
:1014B000100B444B06F04CF802460B460020414905
:1014C00006F022FB06F0D8FC00220DEE900A3D4B00
:1014D00051EC1C0B06F03CF802460B460020394943
:1014E00006F012FB06F0C8FC9FED5B7ADFED5B7A3D
:1014F00006EE900AE6EE877A9FED597A2BEE077A90
:10150000EEEE877A9FED577A2AEE877AEEEE877AAB
:101510009FED557A2AEE077AEEEE877A9FED537AA1
:1015200029EE877AEEEE877A9FED517A29EE077AD7
:10153000EEEE877A9FED4F7A28EE877AEEEE877A85
:101540009FED4D7A28EE077AEEEE877AF1EE677A14
:1015500017EE900A06F05AF941EC100B04F07CFBF0
:10156000002251EC100B174B05F0F2FF02460B4620
:101570000020144906F0C8FA06F07EFC9FED3F7A81
:10158000DFED3F7AEBEE077A9FED3E7AEAEE877A5F
:101590009FED3D7AEAEE077A9FED3C7AE9EE877A95
:1015A0009FED3B7AE9EE077A9FED3A7AE8EE877A8B
:1015B0009FED397AE8EE077A9FED387AEBEE877A7D
:1015C000FCE000BF0000F03F34B35B41B207103EC7
:1015D0000C22983EEE395F3ED0D4803EF7F93A3E79
:1015E00003497B3E3770CD3D76B3593DF22B5B41CD
:1015F00066E481BC03A93B3ED9F3893EABACA03E77
:101600003CA58B3EFCDD8C3E5EEA1C3E67522D3DC8
:101610009F645B4129B1353D0446953EEA92293EDF
:101620003D57A33E1C59AA3E5C63293EA50C933D41
:101630007830263D8C985941D334153CA442763EEF
:101640008254783E81A5943EFF58893E1A21523E2D
:10165000CDBF043EDDB00D3E0F5E5C41CE6DCF3D93
:10166000B4C32B3E20B9973E28C5943ECFE9943EA3
:101670001BE7853DFED37A3DFC0D5A3D5F4913C201
:10168000F30EC9410F2ECDC1B8BA4D42F02706C2A4
:101690002AB725404BA6C74180E306BD41236CBF56
:1016A000739977BFEC326EBF9EC262BFD82352BF20
:1016B00055CEC5C1276CC6405DD282C122150042FD
:1016C000A7C70CC1AFAD0540817DACC08ACC00C0BE
:1016D000BE3AC73F54B4C53F2DE1D13F5DEAC23F9A
:1016E000B653D03F929DB5C1F375AA41D5FA95C1C5
:1016F00061F4E441F3A9A2C1C5B33B40AAD292C0B0
:10170000417EF34077D2753F1EDE7C3F216A5E3F0B
:101710004D895F3FCFDC5C3FE29F93C03C0CDF40D4
:101720001765E4C057C51741C96AAAC04D8CFFBFF1
:101730001E7F36C083B534C1C65FF53ECE7A013F09
:1017400035B1153F038B083F6147113FC34925C0A1
:1017500022276E406F1012C087965640B50715C0FD
:1017600061EB0ABE22D184BF91E80AC0FC3E47BEAD
:10177000223B56BECE0B32BE991C1CBEE3AA98BEBD
:10178000BC1EE53D1F9F803FE184D73D30C76FBD44
:10179000EF12993D4A27A33D140AD13BFB206C3D33
:1017A000B25ADA3C5FE44D3DD1ECD43D72B4993C81
:1017B00053A2E73C5D78983D455B493D1FED487A73
:1017C000EDEE077A1FED497AEEEE077A1FED4A7AC1
:1017D000EDEE877A0CEE100A1FED4C7AECEE077AEC
:1017E000F1EE677A17EE900A06F010F841EC100B54
:1017F00004F032FA1FED527A5FED527AEBEE077A7F
:101800001FED537AEAEE877A1FED547AEAEE077AF3
:101810001FED557AE9EE877A1FED567AE9EE077AE1
:101820001FED577AE8EE877A1FED587AE8EE077ACF
:101830001FED597AEBEE877A1FED5A7AEDEE077AB3
:101840001FED5B7AEEEE077A1FED5C7AEDEE877A9C
:101850001FED5D7AECEE077A8DED000BF1EE677A05
:1018600017EE900A05F0D2FF41EC100B04F0F4F9EA
:101870001FED647A5FED647AEBEE077A1FED657A0F
:10188000EAEE877A1FED667AEAEE077A1FED677A4D
:10189000E9EE877A1FED687AE9EE077A1FED697A3B
:1018A000E8EE877A1FED6A7AE8EE077A1FED6B7A29
:1018B000EBEE877A1FED6C7AEDEE077A1FED6D7A0D
:1018C000EEEE077A1FED6E7AEDEE877A1FED6F7AF6
:1018D000ECEE077A8DED020BF1EE677A17EE900AC7
:1018E00005F094FF41EC100B04F0B6F91FED767A89
:1018F0005FED767AB0EE40FAF0EE60FAEBEE077A42
:101900001FED797AEAEE877A1FED7A7AEAEE077AA6
:101910001FED7B7AE9EE877A1FED7C7AE9EE077A94
:101920001FED7D7AE8EE877A1FED7E7AE8EE077A82
:101930001FED7F7AEBEE877A1FED807AEDEE077A66
:101940001FED817AEEEE077A1FED827AEDEE877A4F
:101950001FED837AECEE077AF1EE677A17EE900AC4
:1019600005F054FF41EC100B04F076F91FED897A75
:101970005FED897AEBEE077A1FED8A7AEAEE877AD5
:101980001FED8B7AEAEE077A1FED8C7AE9EE877A03
:101990001FED8D7AE9EE077A1FED8E7AE8EE877AF1
:1019A0001FED8F7AE8EE077A1FED907AEBEE877ADB
:1019B0001FED917AEDEE077A1FED927AEEEE077A3F
:1019C0001FED937AEDEE877A1FED947AECEE077AAD
:1019D0005BEC10ABF1EE677A17EE900A05F016FF9C
:1019E00041EC100B04F038F91FED9B7A5FED9B7A08
:1019F000EBEE077A1FED9C7AEAEE877A1FED9D7A6F
:101A0000EAEE077A1FED9E7AE9EE877A1FED9F7A5C
:101A1000E9EE077A1FEDA07AE8EE877A1FEDA17A4A
:101A2000E8EE077A1FEDA27AEBEE877A1FEDA37A34
:101A3000EDEE077A1FEDA47AEEEE077A1FEDA57A98
:101A4000EDEE877A1FEDA67AECEE077A1FEDA77A06
:101A500077EEC77A1FEDA87A77EE877A55EC104BB0
:101A6000F1EE677A17EE900A05F0D0FE41EC100B0C
:101A700004F0F2F8002251EC100BF74B05F068FD72
:101A800002460B460020F44906F03EF806F0F4F951
:101A90009FEDF27ADFEDF27AEBEE077A9FEDF17AC5
:101AA000EAEE877A9FEDF07AEAEE077A9FEDEF7A19
:101AB000E9EE877A9FEDEE7AE9EE077A9FEDED7A0F
:101AC000E8EE877A9FEDEC7AE8EE077A9FEDEB7A05
:101AD000EBEE877A9FEDEA7AEDEE077A9FEDE97AF1
:101AE000EEEE077A9FEDE87AEDEE877A9FEDE77AE2
:101AF000ECEE077A9FEDE67A77EE877A9FEDE57A4E
:101B000077EEC77A0EEE900AF1EE677A17EE900A3A
:101B100005F07CFE41EC100B04F09EF8002251EC25
:101B2000100BCD4B05F014FD02460B460020CA49B0
:101B300005F0EAFF06F0A0F99FEDD77ADFEDD77A3E
:101B4000EBEE077A9FEDD67AEAEE877A9FEDD57AAB
:101B5000EAEE077A9FEDD47AE9EE877A9FEDD37AA1
:101B6000E9EE077A9FEDD27AE8EE877A9FEDD17A97
:101B7000E8EE077A9FEDD07AEBEE877A9FEDCF7A89
:101B8000EDEE077A9FEDCE7AEEEE077A9FEDCD7AF5
:101B9000EDEE877A9FEDCC7AECEE077A9FEDCB7A6B
:101BA00077EE877A9FEDCA7A77EE877A0CEE900A05
:101BB000F1EE677A17EE900A05F028FE41EC100B63
:101BC00004F04AF89FEDC37ADFEDC37AEBEE077AB3
:101BD0009FEDC27AEAEE877A9FEDC17AEAEE077A44
:101BE0009FEDC07AE9EE877A9FEDBF7AE9EE077A3A
:101BF0009FEDBE7AE8EE877A9FEDBD7AE8EE077A30
:101C00009FEDBC7AEBEE877A9FEDBB7AEDEE077A1B
:101C10009FEDBA7AEEEE077A9FEDB97AEDEE877A0C
:101C20009FEDB87AECEE077A9FEDB77A77EE877A78
:101C30009FEDB67A77EE877A59EC108BF1EE677AE2
:101C400017EE900A05F0E2FD41EC100B04F004F8E9
:101C50000022814B4046494657EC106B05F078FC5A
:101C600002460B4600207C4905F04EFF06F004F9C1
:101C70009FEDA77ADFEDA77A06EE900AE6EE877A67
:101C80009FEDA57A2BEE077AEEEE877A9FEDA37A89
:101C90002AEE877AEEEE877A9FEDA17A2AEE077A0E
:101CA000EEEE877A9FED9F7A29EE877AEEEE877ABD
:101CB0009FED9D7A29EE077AEEEE877A9FED9B7A6B
:101CC00028EE877AEEEE877A9FED997A28EE077AEA
:101CD000EEEE877A9FED977A2BEE877AEEEE877A93
:101CE0009FED957A2DEE077AEEEE877A9FED937A47
:101CF0002EEE077AEEEE877A9FED917A2DEE877AB7
:101D0000EEEE877A9FED8F7A2CEE077AEEEE877AE9
:101D1000F1EE677A17EE900A05F078FD41EC100BB2
:101D200003F09AFF002251EC100B4B4B05F010FC16
:101D300002460B460020484905F0E6FE06F09CF8F6
:101D400000220EEE900A444B3046394605F000FC66
:101D500002460B460020404905F0D6FE06F08CF8FE
:101D60009FED797ADFED797A06EE900AE6EE877AD2
:101D70009FED777A2BEE077AECEE877A9FED757AF6
:101D80002AEE877AECEE877A9FED737A2AEE077A4D
:101D9000ECEE877A9FED717A29EE877AECEE877AFE
:101DA0009FED6F7A29EE077AECEE877A9FED6D7AD8
