:020000040001F9
:10C0000058E0002039C5010041C5010043C50100C9
:10C0100045C5010047C5010049C5010000000000F9
:10C020000000000000000000000000004BC50100FF
:10C030004DC50100000000004FC5010051C50100C1
:10C0400053C5010053C5010053C5010053C501008C
:10C0500053C5010053C501002DE6010053C5010081
:10C0600053C5010053C5010053C5010053C501006C
:10C0700053C5010053C5010053C5010053C501005C
:10C0800053C50100ADED010053C5010053C50100CA
:10C0900053C5010053C5010051EE010053C5010015
:10C0A00053C5010053C5010053C5010053C501002C
:10C0B00053C5010053C5010000000000000000004E
:10C0C00053C5010053C5010053C5010053C501000C
:10C0D000F1ED010053C5010051E501000000000031
:10C0E0000000000000000000000000000000000050
:10C0F0000000000000000000000000000000000040
:10C10000000000000000000000000000000000002F
:10C11000000000000000000000000000000000001F
:10C40000DFF80CD000F016FD00480047D987020085
:10C4100058E00020056885F308884068FF2464B26E
:10C42000EFF30585002D01D1A646004725460646B7
:10C4300021273FBAF0B40024002500260027F0B4DD
:10C44000F92040B200470000401E00BF00BF00BFFF
:10C4500000BF00BF00BF00BF00BF00BF00BF00BFE4
:10C4600000BF00BF00BF00BF00BF00BF00BF00BFD4
:10C4700000BF00BF00BF00BF00BF00BF00BF00BFC4
:10C4800000BF00BF00BF00BF00BF00BF00BF00BFB4
:10C4900000BF00BF00BF00BF00BF00BF00BF00BFA4
:10C4A00000BF00BF00BF00BF00BF00BF00BF00BF94
:10C4B00000BF00BF00BF00BF00BFC5D17047000074
:10C4C000401E00BF00BF00BF00BF00BF00BF00BFD5
:10C4D00000BF00BF00BF00BF00BF00BF00BF00BF64
:10C4E00000BF00BF00BF00BF00BF00BF00BF00BF54
:10C4F00000BF00BF00BF00BF00BF00BF00BF00BF44
:10C5000000BF00BF00BF00BF00BF00BF00BF00BF33
:10C5100000BF00BF00BF00BF00BF00BF00BF00BF23
:10C5200000BF00BF00BF00BF00BF00BF00BF00BF13
:10C5300000BFC5D170470000064880470648004745
:10C54000FEE7FEE7FEE7FEE7FEE7FEE7FEE7FEE7C3
:10C55000FEE7FEE7D1F9010001C4010038B5D0E9DA
:10C560000221491E01EB410102EBC1014268C1EB0E
:10C57000011102EB81010268C1EB011102EB8102A2
:10C58000D0E9043101EB410103EB81013023A1F536
:10C59000527191FBF3F4174D6C4302EBC41291FB03
:10C5A000F3F403FB141100921A2902DB124B1A4414
:10C5B00000920C2291FBF2F3104C6343009C04EBBD
:10C5C000C313009391FBF2F302FB13110C4A08E032
:10C5D000491E40F2A324535C6343009C04EBC31345
:10C5E00000930029F4DC0146684600F0C7FA009881
:10C5F00038BD00003F0C0F008051010067C20300EE
:10C60000B52C040010B5431A934209D28318881838
:10C6100003E010F8011D03F8011D521EF9D210BDF0
:10C6200040EA01039B0703D009E008C9121F08C0B4
:10C63000042AFAD203E011F8013B00F8013B521E34
:10C64000F9D210BDD2B201E000F8012B491EFBD295
:10C6500070470022F6E710B513460A46044619460D
:10C66000FFF7F0FF204610BD421C10F8011B002907
:10C67000FBD1801A704730B504460020034600E025
:10C680005B1C934203D2E05CCD5C401BF8D030BD14
:10C6900030B505460020034600E05B1C934205D2FE
:10C6A000EC5CC85C201A01D1002CF6D130BD2DE91C
:10C6B000FE4F804681EA0300C00F0C46009021F037
:10C6C000004123F00045B8EB0200A94105D24046E5
:10C6D000214690461C460B46024623F0004010437C
:10C6E00047D0270DC7F30A00C3F30A510290401A3E
:10C6F000019040286BDAC3F3130040F4801B0098CC
:10C70000924620B10023D2EB030A63EB0B0B019896
:10C710005946C0F14002504600F0FEF906460D466B
:10C7200050465946019A00F016FA10EB0800614194
:10C73000002487EA115284EAE7731A4340D0009A32
:10C7400062B3019A012A4FEA075215DC001B61EB24
:10C7500002014FF0004202EA0752CDE90042001CFC
:10C7600041F5801132462B4600F094FA03B0BDE843
:10C77000F08F40462146F9E7001B61EB0201001CE7
:10C7800041F5801300185B412018A2F5001747EB14
:10C79000030140EAD570B6196D4111E06D084FEA0A
:10C7A000360645EAC0754FEA0752001B61EB0201ED
:10C7B000001C41F5801149084FEA30000019514131
:10C7C00032462B4603B0BDE8F04F00F054BA009853
:10C7D000012240000023D0EB020263EBE0730098DB
:10C7E00021464FEAE074B8EB000061EB0401E9E791
:10C7F00083F000435BE781F0004158E72DE9FE4FED
:10C8000081EA030404F0004421F0004100944FF059
:10C81000000B23F0004350EA01045ED052EA030407
:10C820005BD0C3F30A54C1F30A552C44A4F2F33489
:10C830000194A0FB0254C1F3130141F48011C3F32E
:10C84000130343F4801301FB024400FB034E840AEC
:10C85000970A44EA815447EA8357A4FB0768029584
:10C860008D0A05FB07854FEA932C04FB0C54270522
:10C87000029D4FEA065847EA1637B5EB08056EEBFE
:10C88000070C870E920E47EA811742EA8312A7FB34
:10C890000201B6EB0B0164EB00042B0D43EA0C33F1
:10C8A0005E1844EB1C50DA465146E7FB0201C5F323
:10C8B00013044FEA0B3343EA14534FEA0432019C4A
:10C8C00043EA0603A4F10C040294009CCDE900B4F1
:10C8D00000F0E0F903B0BDE8F08F00200146F9E771
:10C8E0002DE9F04D81EA030404F0004B21F00045EE
:10C8F00014464FF0000A23F0004150EA050220D010
:10C9000054EA01021DD0C5F30A570246C5F31303CA
:10C91000C1F31300C1F30A5640F4801543F48013A9
:10C92000A7EB0608101BD64608F2FD3873EB05008E
:10C9300002D308F1010801E092185B41B8F1000F41
:10C9400003DA00200146BDE8F08D00204FF480118D
:10C95000064684460EE0171B73EB050705D3121B32
:10C9600063EB050306434CEA010C49084FEA30002B
:10C9700092185B4150EA0107EDD152EA030012D050
:10C9800082EA040083EA0501084305D0101BAB418D
:10C9900006D20122002306E000224FF0004302E00D
:10C9A0006FF0010253101AEB06004CEB085110EB2C
:10C9B0000A0041EB0B01BDE8F04D00F05CB90EB58B
:10C9C000C10F80EAE0700844CA07002140F23343F7
:10C9D0008DE80E000A460B4600F05CF903B000BD7E
:10C9E0000EB540F2334102910021CDE900110A4613
:10C9F0000B4600F04FF903B000BDC1F30A5210B569
:10CA0000C1F3130140F2FF3341F480119A4201DA7D
:10CA1000002010BD40F233439A42A2F2334203DCBD
:10CA2000524200F088F810BD904010BD00F0004266
:10CA300030F000400AD0C10D01F56071C0F316005E
:10CA400042EA0151C20840071143704700200146E5
:10CA5000704701F0004330B421F0004150EA010278
:10CA600006D00A0DA2F56072C1F31301002A02DCA0
:10CA700030BC00207047440F44EAC104C100E018F4
:10CA800030BC00EBC25000F0BFB830B50B460146D9
:10CA900000202022012409E021FA02F59D4205D35D
:10CAA00003FA02F5491B04FA02F52844151EA2F107
:10CAB0000102F1DC30BD2DE9F05F05460020924611
:10CAC0009B4688460646814640241BE02846414650
:10CAD0004746224600F02FF853465A46C01A914165
:10CAE00010D311461846224600F016F82D1A67EBAF
:10CAF00001084F4622460120002100F00DF817EBF7
:10CB000000094E41201EA4F10104DFDC48463146F5
:10CB10002A464346BDE8F09F202A04DB203A00FA6B
:10CB200002F1002070479140C2F1200320FA03F384
:10CB3000194390407047202A04DB203A21FA02F082
:10CB40000021704721FA02F3D040C2F12002914047
:10CB5000084319467047202A06DBCB17203A41FAD2
:10CB600002F043EAE07306E041FA02F3D040C2F17A
:10CB700020029140084319467047000010B5006834
:10CB80003C22B0FBF2F302FB1303B0FBF2F00B60AC
:10CB9000B0FBF2F302FB1303B0FBF2F018224B6080
:10CBA000B0FBF2F302FB1303B0FBF2F0021D8B604B
:10CBB0000723B2FBF3F403FB1422800040F2B553C9
:10CBC00000F66C308A61B0FBF3F2B0FBF3F403FBC8
:10CBD0001400443280084A61C8613B2802D392079E
:10CBE00000D0401C0022074C13460A61E25C8242DE
:10CBF00003D8801A5B1C0B61F8E7401CC86008462C
:10CC000010BD0000E82D04000029A8BF7047401C9B
:10CC1000490008BF20F00100704710B4B0FA80FC52
:10CC200000FA0CF050EA010404BF10BC704749B18F
:10CC3000CCF1200421FA04F411FA0CF118BF0121FF
:10CC400021430843A3EB0C01CB1D4FEA00614FEADF
:10CC5000102042BF002010BC704700EBC3501044AE
:10CC60000029A4BF10BC7047401C490008BF20F039
:10CC7000010010BC704710B5141E73F1000408DAEF
:10CC8000401C41F1000192185B411A4301D120F090
:10CC9000010010BD2DE9F04D92469B4611B1B1FA4D
:10CCA00081F202E0B0FA80F220329046FFF734FFC2
:10CCB00004460F4640EA0A0041EA0B0153465A4631
:10CCC000084313D0114653EA010019D0C8F14002BD
:10CCD0005046FFF730FF05460E465046594642463D
:10CCE000FFF71AFF084305D0012004E0204639462B
:10CCF000BDE8F08D0020054346EAE0762C4337433B
:10CD00000A986305E40AA0EB08000022FD0A44EA41
:10CD100047540A3002D500200146E9E70105101901
:10CD20006941DDE9084500196941BDE8F04DA2E718
:10CD30002DE9F04D00231A461B1A8A4103DB00201F
:10CD40000146BDE8F08DC1F30A52C1F3130141F46D
:10CD500080154FF0000BD10702D100186D41521E13
:10CD60000027044640F2FF11384601EB620A3E46B6
:10CD70008046024600204FF48011FFF7DCFEC21906
:10CD80007141BB1846EB0100B4EB030C75EB000CD2
:10CD900004D3E41A65EB000517460E46241908F182
:10CDA00001006D4180463428E3DDF91946EB0600A9
:10CDB000091BA84103D24FF0FF32134601E00022C5
:10CDC00013461BEB070046EB0A51BDE8F04DFFF799
:10CDD00052BFC1F30A52C1F3130140F2FF3341F4D1
:10CDE00080119A4202DA00200146704740F2334334
:10CDF0009A42A2F2334202DC5242FFF79CBEFFF796
:10CE00008BBE000030B5041E71F1000404DB4FF04E
:10CE10000044404264EB0101141E73F1000405DB81
:10CE20001C464FF00043524263EB0403994208BF93
:10CE3000904230BD064C074D06E0E06840F001032B
:10CE400094E8070098471034AC42F6D3FFF7DCFAB9
:10CE5000F42D0400142E040070B5C1F30A5201F041
:10CE600000450024C1F3130140F2FF3341F4801167
:10CE70009A4201DA002070BD40F233439A42A2F296
:10CE8000334203DC5242FFF756FE00E090402C4351
:10CE9000F1D0404270BD70B58C1810F8015B15F0F0
:10CEA000070301D110F8013B2A1106D110F8012B1C
:10CEB00003E010F8016B01F8016B5B1EF9D12B0741
:10CEC00005D40023521E0DD401F8013BFAE710F8F7
:10CED000013BCB1A921C03E013F8015B01F8015BE4
:10CEE000521EF9D5A142D8D3002070BD70B5A0F173
:10CEF00020035E2B5AD800EB800303EBC00400EB49
:10CF0000400500EB00130D2912D2DFE801F01107F4
:10CF10000A13191C22282B31374147006FF0FF01FB
:10CF200001E04FF4007101EBC00008210CF0AAFCF5
:10CF3000012070BD4FF4906000EB85000C21F5E7F7
:10CF40004FF4E86001E04FF4885000EB44001A21F0
:10CF5000ECE74FF4E05101EB00101021E6E74FF44D
:10CF6000FE5001E04FF4325000EB43002221DDE798
:10CF70004FF45E5000EB05103021D7E700EB800145
:10CF800001EB401045F6406101EB40004A21CDE73E
:10CF900047F6403101EB80104021C7E700EB8010DD
:10CFA0004FF40B4101EB40008221BFE7002070BD30
:10CFB00070B5144E002505EB450006EB40042046F5
:10CFC00002F0E0FCA01D02F0DDFC04F10C0002F018
:10CFD000D9FC04F1120002F0D5FC04F1180002F0B3
:10CFE000D1FC04F11E0002F0CDFC04F1240002F09B
:10CFF000C9FC04F12A0002F0C5FC0835102DDADB6B
:10D0000070BD0000602E0020A0F1300109299CBFF6
:10D01000C8B27047A0F1410119299EBF3738C0B28C
:10D020007047202804BF24207047242804BF2520EF
:10D030007047252804BF262070472A2804BF2720D0
:10D0400070472B2804BF282070472D2804BF2920B3
:10D0500070472E2804BF2A2070472F280CBF2B2092
:10D060002C2070472DE9F0471646134A00274FF051
:10D0700080781D463C460120C2F80080DFF83C90D5
:10D08000C9F80000DFF838A041F0800150460EF0EA
:10D090000BF8002D07D9FF2150460EF005F830554A
:10D0A000641CA542F7D80020C9F800000548C0F864
:10D0B00000803846BDE8F0870C0500500035004080
:10D0C00000300040080500502DE9F0471546124A8F
:10D0D00000274FF080781E463C460120C2F80080B1
:10D0E000DFF83890C9F80000DFF834A050460DF0A2
:10D0F000DBFF002E06D9295D50460DF0D5FF641CDC
:10D10000A642F8D80020C9F800000648C0F8008000
:10D110003846BDE8F08700000C050050003500409F
:10D1200000300040080500504FF47A714143481E1A
:10D130000029D8BF704700BF011EA0F10100FADC32
:10D14000704700000C4803220F21C0F800170B485D
:10D150004FF4002303600A4BC3F800174FF48021FB
:10D160000160084B0C21C3F800170749C1F80027DC
:10D170004FF08071016070474C000050080500506E
:10D1800048000050500000506000005010B50128C9
:10D1900008D0042004F0CEFFBDE810400EA100200E
:10D1A00001F036BC0E4C6088A0F57F41FF3909D0F4
:10D1B000132176DF002818BF04F044FE09A10020E7
:10D1C00001F026FCA068BDE810404FF4FA724FF45D
:10D1D00080710BF0DDBF000073687574757000001E
:10D1E00008210020746F2064697363002DE9F00347
:10D1F00001694FF0000C67460029C8BFA1F104087F
:10D200002DDD0024B8F1000F26DDC7EBC70202EBCD
:10D21000420216180123621C9142C4BF344494F8A0
:10D22000149016DD19F0110F0CBF01240024B5185D
:10D230002D7D15F0110F0CBF01250025AC4203D147
:10D24000521C5B1C9142EDDC052BA4BF6344A3F18F
:10D25000020C1446A045DDDC7F1CB942D1DC00265F
:10D260000029C8BF0F1F30DD0024002F2ADD012355
:10D27000621C914223DDC4EBC40404EB4404044467
:10D28000344494F8148018F0110F0CBF01240024CA
:10D29000C2EBC20505EB4505054435442D7D15F06F
:10D2A000110F0CBF01250025AC4203D1521C5B1CA1
:10D2B0009142E8DC052BA4BF6344A3F1020C1446A1
:10D2C000A742D4DC761CB142CEDC0027A1F10108D4
:10D2D000B8F1000F3DDD0022B8F1000F36DDC7EBDD
:10D2E000C70303EB430303EB000909EB02031C7DB7
:10D2F00014F0110F0CBF0125002593F8296016F0DA
:10D30000110F0CBF01260026B5421CD114F0110FDD
:10D3100014BF002501255E7D16F0110F0CBF0126FC
:10D320000026B5420FD114F0110F14BF00240124C0
:10D3300093F82A3013F0110F0CBF012300239C42F5
:10D3400008BF0CF1030C521C9045CEDC7F1CB84585
:10D35000C1DC00260029C8BF8D1F65DD0022002D1D
:10D360005FDDC6EBC60303EB43031C18A3181F7D48
:10D3700017F0110F52D05F7D17F0110F08D04DE05C
:10D38000002AF3D0A318DB7C13F0110FEED045E098
:10D390009F7D17F0110F1FBFDF7D17F0110F1F7E4C
:10D3A00017F0110F3AD05F7E17F0110F36D19F7E24
:10D3B00017F0110F32D0CF1F97421CBFDF7E17F03E
:10D3C000110F2BD1022A03DB9F7C17F0110F0BD119
:10D3D000032A03DB5F7C17F0110F05D1042A1BDB46
:10D3E0001F7C17F0110F17D0A1F10807974203DD3A
:10D3F0001F7F17F0110F11D1A1F10907974203DD2B
:10D400005F7F17F0110F09D1A1F10A07974203DDE1
:10D410009B7F13F0110F01D10CF1280C521C954287
:10D42000AEDC761CB14299DC00240029C8BF8D1FF8
:10D4300076DD0022002D0CDC6FE052B1C2EBC2039E
:10D4400003EB43030344234413F8013C13F0110F8F
:10D4500060D1C2EBC20303EB4303034423441E7DAC
:10D4600016F0110F56D093F8296016F0110F51D114
:10D4700093F83E6016F0110F1FBF93F8536016F03B
:10D48000110F93F8686016F0110F43D093F87D6088
:10D4900016F0110F3ED193F8926016F0110F39D0AB
:10D4A000CE1F96421CBF93F8A76016F0110F31D122
:10D4B000022A2DDB13F8166C16F0110F0DD1032A7A
:10D4C00026DB13F82B6C16F0110F06D1042A1FDB94
:10D4D00013F8406C16F0110F1AD0A1F1080696420D
:10D4E00004DD93F8BC6016F0110F13D1A1F1090609
:10D4F000964204DD93F8D16016F0110F0AD1A1F124
:10D500000A06964204DD93F8E63013F0110F01D1BC
:10D510000CF1280C521C95428FDC641CA14288DC63
:10D5200000231C46002913DD002200290DDDC4EB79
:10D53000C40505EB45050544AE18367D16F0110F00
:10D5400008BF5B1C521C9142F6DC641CA142EBDC60
:10D5500001FB01F06421594391FBF0F0D0F132005E
:10D5600048BF40420649BDE8F00381FB001041106E
:10D57000A1EBE07000EB80000CEB40007047000076
:10D580006766666630B4294B0F21294C19705970B3
:10D59000D4F804C083F802C0C0F307212268C0B2E7
:10D5A00022B3012A26D0022A28D0032A2AD0042A0C
:10D5B0002CD0052A2ED0062A32D0072A1CBF30BC18
:10D5C000704759749874002108461A18401CD27884
:10D5D00010281144F9DBD974002020600CF10100FF
:10D5E000606030BC1421114807F0B6BBD9701871C7
:10D5F000012012E05971987102200EE0D971187261
:10D6000003200AE059729872042006E0D972187358
:10D61000052002E0597398730620206030BC7047E3
:10D62000D97318740720206030BC7047187200202E
:10D630009C2200202DE9F84FDFF8B8A105460E0125
:10D64000DAE90207B84286BF4FF0FF08DFF8A89179
:10D65000BDE8F88FDAF81400C15DE1B17A1C805C96
:10D6600000EB012080B2A0F58851FF2982BFA0F510
:10D67000445130395F2905D9A0F52C4242F6AF312B
:10D680008A424DD802F0F0FB81B25C4810230022A0
:10D69000009023204CE0791C405C0A2818BF0D281C
:10D6A0007ED0564A0621FFF721FCDFF850C12C46F8
:10D6B000002200201CF8023023FA00F111F0010FC3
:10D6C0000AD0602CBCBF3118402905DA01EB4101BA
:10D6D00009EB411101F80480401C0828ECDB0CEB3D
:10D6E00002000021037A23FA01F010F0010F0ED09E
:10D6F000602C0CDA701800F1080BBBF1400F06DA51
:10D7000000EB400009EB4010204480F80083491CE6
:10D710000829E8DB521C641C082ACADB083544E0EF
:10D7200002F0ACFA81B2354800901023002221208B
:10D730000AF006FF314C29460023002014F803C0EC
:10D740002CFA00F212F0010F0AD06029BCBF321887
:10D75000402A05DA02EB420209EB421202F801808C
:10D76000401C0828ECDBE01890F810C000202CFAD0
:10D7700000F212F0010F0ED060290CDA321802F11B
:10D78000080BBBF1400F06DA02EB420209EB421232
:10D790000A4482F80083401C0828E8DB491C00E0AA
:10D7A00003E05B1C102BC8DB1035DAF80800B91C4D
:10D7B000884298BFBDE8F88FDAF81420515C79B13F
:10D7C00005F11001602905DD00251036402EA8BFA7
:10D7D000BDE8F88FBF1CB8423FF63CAFBDE8F88FFC
:10D7E00005F108016029F5DD00251036402EF1DB3A
:10D7F000BDE8F88F70270020085A0020DE2700209F
:10D80000224808B5007E98B101281AD0022821D0FC
:10D81000032828D005282FD0042818BF08BD1C488D
:10D8200000902A2335220B21152009F04FF908BD5D
:10D83000184800902A2335220B21152009F046F9BB
:10D8400008BD154800902A2335220B21152009F028
:10D850003DF908BD114800902A2335220B211520DF
:10D8600009F034F908BD0E4800902A2335220B2117
:10D87000152009F02BF908BD0A4800902A2335220B
:10D880000B21152009F022F908BD000070270020A7
:10D89000511B040025DD0300D7E5030089EE0300DA
:10D8A0003BF703009F1204002DE9F84F7E4B4FF029
:10D8B0000006304659681A69B1F1000C07DD145CA6
:10D8C000002C0CBF08361036801C8842F7DB602E17
:10D8D000C4BF00254FF0180806DCC6F1600000EB5D
:10D8E000D07045104FF020080027BCF1000F86BF14
:10D8F0004FF0FF09DFF8B4A1BDE8F88F6A4800696E
:10D90000C15DE1B17A1C805C00EB012080B2A0F522
:10D910008851FF2982BFA0F5445130395F2905D9CC
:10D92000A0F52C4242F6AF318A4250D802F09CFA60
:10D9300081B25F4810230022009023204FE0791C21
:10D94000405C0A2818BF0D2840D0594A0621FFF72D
:10D95000CDFADFF85CC12C46002200201CF8023012
:10D9600023FA00F111F0010F0BD0602CBCBF08EBC3
:10D970000001402905DA01EB41010AEB411101F8F0
:10D980000490401C0828EBDB0CEB0200037A00201B
:10D9900023FA00F111F0010F0FD0602C0DDA08EB23
:10D9A000000101F1080BBBF1400F06DA01EB410168
:10D9B0000AEB4111214481F80093401C0828E7DB61
:10D9C000521C641C082AC8DB0835083E45E002F0FA
:10D9D00055F981B2364800901023002221200AF028
:10D9E000AFFD334C29460023002014F803C02CFA65
:10D9F00000F212F0010F0BD06029BCBF08EB00024F
:10DA0000402A05DA02EB42020AEB421202F80190C8
:10DA1000401C0828EBDBE01890F810C000202CFA1E
:10DA200000F212F0010F0FD060290DDA08EB0002AE
:10DA300002F1080BBBF1400F06DA02EB42020AEBDF
:10DA400042120A4482F80093401C0828E7DB491C74
:10DA50005B1C102BC8DB1035103E134AB81C5168F4
:10DA6000814298BFBDE8F88F1269105C90B105F152
:10DA70001000602808DD08F11008602E04DCC6F1F3
:10DA8000600000EBD0704510BF1CB9423FF636AFC6
:10DA9000BDE8F88F05F108006028F5DD08F11008F1
:10DAA000602EECDDF0E7000070270020085A00200F
:10DAB000DE2700202DE9F04F85B00446DDE90F8018
:10DAC0000D460E9925601F461646E1600028DCBF12
:10DAD0004046FEF7C9FD002804BF05B0BDE8F08F41
:10DAE0000346D4F808C3424631462046E0470028A2
:10DAF00004BF05B0BDE8F08F56B1B042DCBF304680
:10DB0000666006DD002F02BF002005B0BDE8F08F83
:10DB1000606000EB8001904E01EB401006EB80004E
:10DB200000EB8500D4F8D011D0F80890C1EBC90300
:10DB3000042BC8BF0423002B06DDD4F814C3002235
:10DB40002046E047C4F8D001D4F8D001EC21C01D34
:10DB5000C21700EB5270C010484509DA2218EC29B0
:10DB600082F8D4110CBF1121EC21401C4845F5DB93
:10DB70006068794E00EB800101EB401006EB8000FD
:10DB8000416804F51470C4F84C12FEF762FD616838
:10DB9000002001EB810202EB411106EB810205EB53
:10DBA0004501039102EB81018446D1F834A04A6E0D
:10DBB00000920AEB0205D1F86C80CE6B0246BAF1F6
:10DBC000000F15DD0021002EC8BF02F514770ADD15
:10DBD000231805FB014B93F8D431401C491C0BF86A
:10DBE00007308E42F4DC521C0CF1010CE245E9DCFA
:10DBF000009900230029C4BF05FB0641029125DDE1
:10DC00000021B8F1000F1CDD02F5147C03F5147738
:10DC1000CDF804C0B14204EB000C08DA05FB014E5C
:10DC2000DDF804B09CF8D4C10EF80BC005E09CF8F8
:10DC3000D4B1DDF808C00CF807B0401C491C4145C0
:10DC4000E8DB0099521C5B1C8B42D9DB6068002723
:10DC500000EB800101EB40113F48BB4600EB810126
:10DC6000039801EB8000816B891B0291806E039702
:10DC7000A0EB08000190BAF1000F2EDD992104F20B
:10DC80006A20FEF7E6FCE01900F5EA71324604F27C
:10DC90006A20FEF7B7FCD4F82C33314604F26A2030
:10DCA000029A9847029900200029C8BF09EB0B028D
:10DCB0000BDD05FB00432118134491F86A1283F829
:10DCC00050120299401C8142F3DC03983744401CF7
:10DCD0000BF1010B03908245D0DC00980026002850
:10DCE0002DDD992104F26A20FEF7B3FCE01900F55E
:10DCF000EA71424604F26A20FEF784FCD4F82C3321
:10DD0000414604F26A20019A9847019900200029AF
:10DD1000C8BF09EB0B020BDD05FB004321181344C0
:10DD200091F86A1283F850120199401C8142F3DC89
:10DD30000098761C47440BF1010BB042D1DC6068BF
:10DD4000112101EB80002061D4F830132046884770
:10DD500005B00120BDE8F08F880503002DE9F84FDC
:10DD60000D4604461F4690464C2100F50070FEF714
:10DD700070FC0026C4F8E861B8F1000FC4BFA8F138
:10DD8000010A04F5F67943DD564525DAA819D4F8D9
:10DD900020234178A85D9047002818BF03201BD09E
:10DDA000002E08BF84F8EC01D4F8E81111F809201E
:10DDB000824205D0491CC4F8E811214481F8EC01E5
:10DDC000D4F8E81104EB8101D1F80022521CC1F80B
:10DDD0000022032819D110E0D4F81813A85D884751
:10DDE000002818BF0020DBD1D4F81C13A85D884799
:10DDF000002814BF01200220D2E7D4F8E801511C0A
:10DE000004EB8000761CC0F80012761C4645BBDB94
:10DE1000D4F8E8014FF00008401CC4F8E801401EA7
:10DE2000002840F35F8104EB080999F8EC1139B13F
:10DE3000012904BF99F8ED01002806D000F04AB985
:10DE400099F8ED01012840F0458104EB8806D4F8EB
:10DE500010C3D6F800223B462046E0478246D4F85D
:10DE600010C399F8ED11D6F804223B462046E0474E
:10DE70008244D6E980014218D4F810C33B46012100
:10DE80002046E0470090504580F22481B8F1010F10
:10DE9000A4BF99F8EB01022820D1D6E97F014218EE
:10DEA000D4F810C33B4602212046E0478246D4F80E
:10DEB00010C399F8ED11D6F804223B462046E047FE
:10DEC0000AEB000BD4F810C3D6F8FC213B46022124
:10DED0002046E04700990844584501DA4FF0000B0E
:10DEE000D4F8E801801E404523DD99F8EE010228B0
:10DEF0001FD1D4F810C399F8EC11D6F800223B4694
:10DF00002046E0478246D6E981014218D4F810C382
:10DF10003B4602212046E0478244D4F810C3D6F89D
:10DF200008223B4602212046E0470099084450451C
:10DF300001DA4FF0000ABBF1000F07D0BAF1000F71
:10DF400001D0D34507DA4FF0FF3005E0BAF1000FFA
:10DF500008BF002000D00120E8B3B0F1FF3F25D07A
:10DF6000022089F8ED01D6E981010844C6F80402CF
:10DF7000D4F8E81108F10200491E814210DD211891
:10DF800091F8ED2181F8EC2104EB8001401CD1F8DF
:10DF90000422C1F80022D4F8E811491E8142EEDCC7
:10DFA000D4F8E801401EC4F8E80195E0D6E97F0105
:10DFB0000844C6F8FC01D4F8E8114046491E8142E5
:10DFC000EEDD211891F8ED2181F8EC2104EB8001C0
:10DFD000D1F8042200E008E0C1F80022D4F8E811EA
:10DFE000401C491E8142ECDCDAE7D4F8E801801ECF
:10DFF000404525DD99F8EE01012821D1D6E98101BE
:10E000000844C6F80402D4F8E81108F10200491ED9
:10E01000814210DD211891F8ED2181F8EC2104EB0B
:10E020008001401CD1F80422C1F80022D4F8E81184
:10E03000491E8142EEDCD4F8E801401EC4F8E80134
:10E04000012089F8EC01D6E980010844C6F80002F5
:10E05000D4F8E81108F10100491E814210DD2118B1
:10E0600091F8ED2181F8EC2104EB8001401CD1F8FE
:10E070000422C1F80022D4F8E811491E8142EEDCE6
:10E08000D4F8E801401EC4F8E801B8F1010FA4BFBC
:10E0900099F8EB0101281FD1D6E97F010844C6F8A1
:10E0A000FC01D4F8E8114046491E81427FF778AF61
:10E0B000211891F8ED2181F8EC2104EB8001401C3E
:10E0C000D1F80422C1F80022D4F8E811491E814297
:10E0D000EEDC65E708F10108D4F8E801401E404590
:10E0E0003FF7A1AED4F8E8010026DFF850B4401E97
:10E0F00000287CDD04EB860804EB0609D4F810C385
:10E1000099F8EC11D8F800223B462046E0478246B9
:10E11000D4F810C399F8ED11D8F804223B462046F4
:10E12000E0478244D8E980014218D4F810C33B4646
:10E1300002212046E047012EA4BF99F8EB110229E5
:10E1400003D15BF82710401A001FD4F8E811891E8C
:10E15000B14207DD99F8EE11022903D15BF82710CF
:10E16000401A001F8245D8BF761C7CDD012EA4BF5B
:10E1700099F8EB01022821D1D8E97F010844C8F8B9
:10E18000FC01D4F8E8113046491E814210DD211807
:10E1900091F8ED2181F8EC2104EB8001401CD1F8CD
:10E1A0000422C1F80022D4F8E811491E8142EEDCB5
:10E1B000D4F8E801401E761EC4F8E801D4F8E8015E
:10E1C000801EB04229DDA01990F8EE01022824D16A
:10E1D00004EB8600D0E981121144C0F80412D4F88F
:10E1E000E811B01C491E814212DD211800E046E012
:10E1F00091F8ED2181F8EC2104EB8001401CD1F86D
:10E200000422C1F80022D4F8E811491E8142ECDC56
:10E21000D4F8E801401EC4F8E801A119022081F8F1
:10E22000EC0104EB8600D0E980121144C0F8001222
:10E23000D4F8E811701C491E814210DD211891F8B4
:10E24000ED2181F8EC2104EB8001401CD1F804227F
:10E25000C1F80022D4F8E811491E8142EEDCD4F85E
:10E26000E801401E00E004E0C4F8E801012EA8BF68
:10E27000761ED4F8E801401EB0423FF73BAF0026BF
:10E28000132104F5EA70C4F8D061FEF7E2F9B14653
:10E2900000F03DB904EB090090F8EC0100B301284F
:10E2A0007BD0D4F814C302284FF0040376D00822A0
:10E2B0002046E04704EB890AC4F8D0010146A04A91
:10E2C000DAF80002D4F814C352F8273000EBD0700B
:10E2D00042102046E0474FF00008C4F8D0010AE1A0
:10E2E0000423D4F814C301222046E0479549C4F81A
:10E2F000D00104EB890A51F827300146D4F814C341
:10E30000DAF800222046E047C4F8D001DAF800022B
:10E310004FF000080028C8BFDFF82CB256DD811E80
:10E3200041451EDD06EB080000EB0501285C8A78FC
:10E33000A0F1300000EBC00303EB001002EB800201
:10E340004878D4F814C300EB80000BEB4000024483
:10E350004FF00A032046D4F8D011E047C4F8D001AA
:10E360002EE01CD106EB080000EB0501285C497883
:10E37000A0F1300000EB80026FF02F0000EB4200B4
:10E3800001EB0002D4F814C34FF007032046D4F881
:10E39000D011E047C4F8D00112E018E068E0401E58
:10E3A00040450DD106EB0800D4F814C3285C0423C3
:10E3B000A0F130022046D4F8D011E047C4F8D001D3
:10E3C000DAF8000208F103084045A8DC7BE00423EA
:10E3D000D4F814C302222046E0475C49C4F8D001B7
:10E3E00004EB890A51F827300146D4F814C3DAF84F
:10E3F00000222046E047C4F8D001DAF800024FF0CE
:10E40000000800285FDD401E404506EB08001ADDCD
:10E410000090D4F82413285C8847C0EB001000EB70
:10E42000400B0098D4F824132844407888470BEB1D
:10E430000002D4F814C30B232046D4F8D011E047CF
:10E44000C4F8D0010DE0D4F82413285C88470246B4
:10E45000D4F814C306232046D4F8D011E047C4F8FA
:10E46000D001DAF8000208F102084045CBDC2AE0CE
:10E4700004222046E0473149C4F8D00104EB890A60
:10E4800051F827300146D4F814C3DAF800222046A8
:10E49000E047C4F8D001DAF800024FF00008002885
:10E4A00011DD06EB0800D4F814C32A5C08232046CB
:10E4B000D4F8D011E047C4F8D001DAF8000208F12E
:10E4C00001084045EDDC06441FE006EB4800411919
:10E4D000285C497801EB0020D4F8281388470246CD
:10E4E000D4F814C30D232046D4F8D011E04708F126
:10E4F0000108C4F8D001DAF8000200EBD070B8EBE4
:10E50000600FE2DBDAF80002064409F10109D4F8F1
:10E51000E801484506DDD4F8D011B1F1FF3F7FF4A2
:10E52000B9AE07E0D4F8D001B0F1FF3F1CBF012025
:10E53000BDE8F88F0020BDE8F88F0000541F0300ED
:10E54000601F03003C1F0300F0FDFFFF481F030096
:10E5500004480068F1EE101A016C21F09F0101647B
:10E560007047000038EF00E070B5044640F2B91182
:10E570001430FEF76EF8D4F8341320468847D4F8E8
:10E58000441320468847E068B0F1FF3F25D10021C1
:10E59000E160D4F8482320469047D4F84C23204625
:10E5A000E1689047D4F85013204688470646012575
:10E5B000D4F84823294620469047D4F84C232946CE
:10E5C00020469047D4F8501320468847B042BCBF3D
:10E5D0000646E5606D1C072DEADDD4F84823204689
:10E5E000E1689047D4F84C232046E16890472069C1
:10E5F00000230028D8BF70BD00202169002911DD4B
:10E60000C3EBC30101EB410101EB040C0CEB000176
:10E610000A7D12F0110218BF01220A752169401CFF
:10E620008142F3DC5B1C9942E6DC70BD70B51F4D86
:10E63000D5F800011E4E002401280BD1C5F8004179
:10E64000D5F800011B48012100680AF077FD306809
:10E65000401C3060D5F8040101280BD1C5F80441F5
:10E66000D5F804011448022100680AF067FD7068BB
:10E67000401C7060D5F80801104E012807D1C5F87C
:10E680000841D5F80801082130680AF057FDD5F88F
:10E690000C01012818BF70BDC5F80C41D5F80C015C
:10E6A0003068BDE8704008210AF048BD00600040B5
:10E6B00090220020602100207C210020FC200020EE
:10E6C00010B4042481B102EBD27C4FEA6C00012922
:10E6D00025D0022935D01F4900EB800202EBC00093
:10E6E00051F82310001D29E01B48DFF870C080FBA3
:10E6F0000210A0EBE07101EB81005CF82330A1EB8C
:10E70000810104EB400011441844012902BF001D9F
:10E7100010BC7047022908BFC01D10BC70471049CB
:10E7200051F8231000EB400303EBC00001442CF030
:10E730000100101A00EB400004EB400010BC08443C
:10E740007047084804EBC20150F8230010BC08448D
:10E7500070470000601F0300565555553C1F0300CD
:10E76000481F0300541F03002DE9F0411F46904647
:10E7700004461B29A8BF022503DA0A29ACBF0125DC
:10E780000025022DD8BF324E5EDCD4F80CC32B46D8
:10E790003A4641462046E047002852D025B1012D97
:10E7A0001CD0022D34D04CE0D4F8D0210120D21D51
:10E7B000D317216802EB537200EB800303EB401385
:10E7C00006EB830303EB81039B68B3EBE20FA8BF67
:10E7D000BDE8F081401C0928EEDD32E0D4F8D0110C
:10E7E0000A20C91DCB17226801EB537100EB80038F
:10E7F00003EB401306EB830303EB82039B68B3EB4D
:10E80000E10FA8BFBDE8F081401C1A28EEDD18E03A
:10E81000D4F8D0211B20D21DD317216802EB5372EC
:10E8200000EB800303EB401306EB830303EB810350
:10E830009B68B3EBE20FA8BFBDE8F081401C28281D
:10E84000EEDD6D1C022DA0DD0020BDE8F081000092
:10E85000880503002DE9F04F00260029D8BFBDE848
:10E86000F08FDFF87CE0DFF87C80DFF87C908B189D
:10E87000AEF5807AA3F1010C037813B31EF8037090
:10E880000023002A13DD58F82240E45C3C44A9FB35
:10E8900004B5ED09A5EB05252C44E4B2C5181AF81A
:10E8A00004406D786C40C4545B1C9A42EBDC134608
:10E8B0009C4510DDC4186478C4545B1C9C45F9DC8D
:10E8C00009E00023BCF1000F05DDC4186478C454CE
:10E8D0005B1C9C45F9DC761C8E42CDDBBDE8F08FDD
:10E8E0003C1E0300D822002081808080A0F13001EE
:10E8F000092984BFA0F14101192913D9202818BF83
:10E9000024280FD0252818BF2A280BD02B2818BF61
:10E910002D2807D02E2818BF2F2803D03A281CBF37
:10E920000020704701207047A0F181021E2A84BF99
:10E93000A0F1E0020B2A0DD840290BD39F2802D06A
:10E94000EB2803D004E0FC2904D801E0BF2901D85A
:10E9500001207047002070473038092894BF0120FB
:10E96000002070470246C2F30F2110B5D3B2D2B2D5
:10E9700000204C1E521E542C08D85D2A06D8C4EB29
:10E98000041000EB441003EB4000401E58390129ED
:10E990000AD85D2A08D8C1EB011000EB411003EB47
:10E9A000400041F63571084410BD0246C2F30F2104
:10E9B0000020A1F1A103D2B20C2B09D2A12A07D3C6
:10E9C000C3EB031000EB431002EB4000A13870478B
:10E9D000B0391829FBD8A12AF9D3C1EB011000EBFB
:10E9E000411002EB400000F2BA307047A0F501413F
:10E9F000403941F6BC62914284BFA0F541414039A3
:10EA0000081200EB4000800150FA81F070470000CE
:10EA10000FB41C4810B500689CB0002802BF1CB0A1
:10EA200010BC5DF814FB20AB402168461F9A01F032
:10EA300051FD04461448C17864311591017914914F
:10EA40004179139101781291417811918078109059
:10EA500010A8FDF783FD0D4B010E1970010C5970C4
:10EA6000010A9970D870102CD4BF2046102002469D
:10EA70006946181DFDF7C6FD1CB0002010BC5DF8EE
:10EA800014FB000040270020A420002050B30020E9
:10EA90002DE9F041104E0546174630680C46A84255
:10EAA00007D04FF480617069FDF7D3FD0020B0609E
:10EAB000F060B268C2F580618C4288BF0C46706914
:10EAC000394610442246FDF79DFD3560B06820446C
:10EAD000B0600020BDE8F081702700202DE9F041F2
:10EAE000104E0546174630680C46A84206D01E2137
:10EAF0003069FDF7AEFD00207060F0607268C2F111
:10EB00001E018C4288BF0C463069394610442246AB
:10EB1000FDF778FD35607068204470600020BDE826
:10EB2000F081000070270020094810B54FF0FF3138
:10EB30000160002141608160C1601E210548FDF730
:10EB400088FDBDE810404FF480610348FDF781BDAA
:10EB50007027002024BC002042BC002000B508A083
:10EB600083B0D0E90010CDE900106A4608210120E9
:10EB7000FFF7B4FF012000F057F803B000BD00001C
:10EB80000031003200330034F0B4254D002001463E
:10EB9000D5E9023207469A423FD0302B3DD3AC46EE
:10EBA0009A42DCF814C038BF1E4E31D2EC68A41C67
:10EBB000EC601CF80240002C18BF103018D0941CD8
:10EBC000A34225D91CF80440D4B100F11004602CF4
:10EBD00003DD0020103140291ADA921C934217D924
:10EBE0006028B8BF4029E1DB3468641C3460DDE78D
:10EBF000541C1CF804400A2C18BF0830DFD1ECE785
:10EC000000F10804602CE8DD002010314029E4DB2D
:10EC1000E86898421CBFF0BC7047EF60F0BC7047DA
:10EC2000702700206C270020034981F8200003484A
:10EC3000802100680AF082BA702700201C21002081
:10EC400070B4164A0024A2F14403108900281CBFA6
:10EC500010880F2882BF1C7070BC7047187804257C
:10EC6000401C0E49C0B21870897A1E2821F002019A
:10EC70000AD3DFF82CC0DCF80C60DCF820C0A6EB6F
:10EC80000C0CBCF1B40F03D22D283CBF70BC7047F4
:10EC90001C709172557370BC704700006421002095
:10ECA000FC2D0020F0B4354C0022FF23D4F810C016
:10ECB00002EB4205002100EB45156B54491C60290D
:10ECC000FBDB521C402AF3DB0022154602EB420319
:10ECD000002100EB43135D54491C1829FBDB521C37
:10ECE000402AF3DB002202EB4203482100EB4313EE
:10ECF0005D54491C6029FBDB521C402AF3DB0022D7
:10ED000002EB4203002100EB43135D54491C6029D0
:10ED1000FBDB521C082AF3DB382202EB4203002102
:10ED200000EB43135D54491C6029FBDB521C402A55
:10ED3000F3DB0023C3EBC302002102EB42021719ED
:10ED400003EB430200EB82166345B8BF61450CDA62
:10ED50007A18127D4AB106EB410282F83B5482F8E0
:10ED60003C5482F89B5482F89C54491C6029EBDB8C
:10ED70005B1C402BDEDBF0BC00207047EC23002046
:10ED800000B583B00021CDE90010074802910122AF
:10ED9000D0F804C30B46E04700280CBF4FF0FF300B
:10EDA000002003B000BD0000EC23002070B50E4C25
:10EDB000D4F84001002501280AD1C4F840510B487D
:10EDC0004168491C416001200CF036FD0120A06023
:10EDD000D4F80001012818BF70BDC4F80051BDE887
:10EDE000704032200AF058BA00100140EC20002098
:10EDF0000748D0F80011012918BF70470021C0F85A
:10EE00000011044881681431816009F0D1BA000012
:10EE100000400240EC20002009480F21C0F80017F4
:10EE200008484FF400620260074AC2F800174FF426
:10EE30008051016005490C20C1F8000770470000AF
:10EE40002C000050080500503000005050000050C9
:10EE5000074810B5406838B18047002808BF10BD8A
:10EE6000BDE8104002F0EEBFBDE8104009F09CBBC9
:10EE70007C2200202DE9F0437F4E804D8BB096F828
:10EE800003C0A5FB0C10C008404200EB80000CEB57
:10EE90004000CD211CFB01F1794CC90A40EA011068
:10EEA00020753379A5FB0310C008404200EB8000B9
:10EEB00003EB4000CD2113FB01F1C90A40EA011028
:10EEC00060757279A5FB0210C008404200EB80001B
:10EED00002EB4000CD2112FB01F1C90A40EA01100A
:10EEE000A0753178A5FB0170C008404200EB80009E
:10EEF00001EB4000CD2711FB07F7FF0A40EA07109E
:10EF0000E0757078A5FB0075ED086D4205EB850591
:10EF100000EB4505CD2710FB07F7FF0A45EA07156B
:10EF20002576CDE90101B0780090581ECDE9032087
:10EF30000CF1640005906846FDF710FBE061216A62
:10EF4000E068504E411A002002270125B42971784B
:10EF50004FF0030804F13C0267D8DFF82C91012937
:10EF60001FD17070D07A917A00EB0120517B127B17
:10EF700001EB0221A28C43181A44A284228D104472
:10EF80002085E08C0844E084102104F13C0008F066
:10EF9000FDFAB0684021401CB060D9F800000AF0CA
:10EFA000CDF860882188A38C42181A44A284228D4F
:10EFB00010442085E08C0844E0840CF05BFB0221C7
:10EFC000D9F800000AF0BAF8B068304A401CB060C6
:10EFD000002021180B7913541318097D401C597116
:10EFE0000528F6DB6188080A9072D1722088030A2E
:10EFF00013735073002918BF957310D01021234844
:10F0000008F0C4FA4021D9F800000AF097F841F25C
:10F0100088324FF00061306C0AF0BAF81FE0002827
:10F0200014BF977382F80E80E8E7012908BF70705B
:10F03000002021180B7913541318097D401C5971B5
:10F040000528F6DB6188080A9072D1722088030ACD
:10F0500013735073002918BF957307D07570E0685B
:10F060002061E06920620BB0BDE8F083002814BF86
:10F07000977382F80E80F1E7A4200020CDCCCCCC91
:10F08000FC2D002020210020CC210020282E002053
:10F090002DE9F05FDFF8D490DFF8D4A0804600249B
:10F0A00008EB440018F804B04179807901F00F02B0
:10F0B000090901EB810102EB4101CEB200F00F0121
:10F0C000000900EB800001EB4000C5B204EB4407EF
:10F0D000F8B22B463246594601F03CFA00283AD1A4
:10F0E000E81CC5B23B2D11D9A9FB05104009A0EBC6
:10F0F000001005EB8000C5B2701CC0B2AAFB002155
:10F100000909A1EB810100EBC100C6B2781CC0B2B5
:10F110002B463246594601F01DFAE0B9681DC3B2CC
:10F120003B2B11D9A9FB03104009A0EB001003EB06
:10F130008000C3B2701CC0B2AAFB00210909A1EB78
:10F14000810100EBC100C6B2B81CC0B232465946BC
:10F1500001F000FA18B14FF0FF30BDE8F09F641CD9
:10F16000032C9DDB0020BDE8F09F00008988888883
:10F17000ABAAAAAAC1EBC10303EB430303441344A4
:10F180001B7D13F0200F18BF70472DE9F001A2F18D
:10F1900002088C1E0022114E0127002108EB0205F7
:10F1A000B35CC1F1040C07FA0CFC13EA0C0F14BF9A
:10F1B0003023202304EB010CCCEBCC0C0CEB4C0CDF
:10F1C0008444AC44491C8CF814300529E8DB521CFB
:10F1D000052AE2DBBDE8F00170470000CC220020E8
:10F1E0002DE9F003B1F1FF3F04D001EB0309B9F1C0
:10F1F000980F04DDBDE8F0034FF0FF3070474FF08B
:10F20000000C002BC8BF4FF001081EDDA3EB0C045F
:10F21000641E08FA04F4144213D001EB0C04E51741
:10F2200004EB557500EBE50625F0070506F5EA77D2
:10F23000641B96F8D461C4F1070408FA04F434435B
:10F240003C700CF1010C9C45E0DB4846BDE8F00346
:10F2500070472DE9F0070169D0F84C324A1E4FF093
:10F26000010C00276446002BCEBF4FF00109BDE81A
:10F27000F0077047002300EB07086144DCF1000C45
:10F280000DD5121948BF002204D40569954208BF64
:10F290006A1E04D16442891E062908BF0521C1EBFC
:10F2A000C10505EB4505054415442E7D16F0200FDC
:10F2B000E3D198F85062C3F1070A09FA0AFA16EA8C
:10F2C0000A0618BF02262E755B1C082BD5DBD0F86A
:10F2D0004C327F1C9F42CDDBBDE8F0077047000039
:10F2E000992898BF122903D8312A98BF062B02D932
:10F2F0004FF0FF30704700F00F0C000900EB80006A
:10F300000CEB400010B4DFF834C001F00F048CF8AF
:10F310000300080900EB800004EB40008CF80400B7
:10F32000100902F00F0100EB800001EB40008CF8A7
:10F3300005008CF8063010BC00207047A420002087
:10F340002DE9F001DFF848804FF0000C0127002381
:10F3500002EB0C0618F80C40C3F1060507FA05F598
:10F360002C4214BF30242024CD18C5EBC50505EB75
:10F370004505054435445B1C2C75072BEADB0CF175
:10F38000010CBCF1070FE2DBBDE8F00170470000A3
:10F39000D122002030B40268002A08BF082207D01A
:10F3A000012A08BF002203D0022A14BF102218220B
:10F3B00002EB010C00214FEA8C2240F2375301246A
:10F3C000C1F10E0504FA05F5154204D0C1F104059A
:10F3D00003FA05F56A40491C0529F1DB02EB8C2193
:10F3E00045F212425140002204FA02F30B4214BFCC
:10F3F0003023202300EB020C521C8CF8BC30052A71
:10F40000F2DD11F0400F14BF3022202280F8C3201B
:10F4100011F0800F14BF3022202280F8C42011F494
:10F42000807F14BF3022202280F8AF20092204FA06
:10F4300002F30B4214BF30232023C2F10E0CCCEB9D
:10F44000CC0C0CEB4C0C8444521C8CF81C300E2A57
:10F45000EDDD002204FA02F30B4214BF3023202317
:10F46000D0F810C0ACEB020CCCEBCC0C0CEB4C0C81
:10F470008444521C8CF80730072AEBDD036900F145
:10F48000B40C302203F80C20082204FA02F30B42D9
:10F4900014BF30232023D0F810C002F1AD058444FE
:10F4A000521C0CF805300E2AEFDD30BC704700000E
:10F4B0002DE9F0410022D0F8383304461146984730
:10F4C0002069D4F83833C11F0022204698472069AC
:10F4D000D4F83833C21F002120469847002020214D
:10F4E000221800F19F0C82F8A710C0EBC00202EBBB
:10F4F000420213190C32D97623690344C3EBC303C8
:10F5000003EB4303234403F88D1C2369C3EBC303BC
:10F5100003EB430323440344401C03F8941C236976
:10F520000828234403F80C10236923449954D7DB9B
:10F530000020221882F8BC10C0EBC00202EB42028D
:10F540002244401C11770928F3DB0020226900F1D6
:10F55000B4032244D15422690244C2EBC20202EB3A
:10F5600042022244401C02F88C1C0828EEDBD4F82E
:10F5700040132046884760683E4F00EB800101EB56
:10F58000401007EB80000026806900284FDD60688E
:10F59000D4F83C3300EB800101EB401007EB800016
:10F5A00000EB86000622C169204698476068D4F8BF
:10F5B0003C3300EB800101EB401007EB800000EBD7
:10F5C00086000621C269204698476068002500EB46
:10F5D000800101EB401007EB8000806900281BDDF3
:10F5E0006068D4F83C3300EB800101EB401007EB7E
:10F5F000800000EB850100EB8600CA69C1692046E6
:10F60000984760686D1C00EB800101EB401007EB30
:10F6100080008069A842E3DC6068761C00EB800112
:10F6200001EB401007EB80008069B042AFDC21693C
:10F63000082009390829B8BFBDE8F08100F00101B0
:10F6400000290CBF30212021C0EBC00202EB420296
:10F65000224491760CBF3021202104EB000200F1FE
:10F66000010082F892102169A1F109018142E5DAD5
:10F67000BDE8F0818805030002690023002AD8BF95
:10F6800070472DE9F00F4E4DD0F810C00022BCF1AC
:10F69000000FC4BF03EBD37828F001070FDDC2EBE6
:10F6A000C20C0CEB4C0C84440CEB0306347D14F0C0
:10F6B000200F0AD0D0F810C0521C9445EFDC5B1C20
:10F6C0009C45E1DCBDE8F00F7047072953D2DFE825
:10F6D00001F0040D101A2630430003EB020C0CEB72
:10F6E000DC7929F00109E14566D054E09F4263D0FE
:10F6F00051E085FB029CACEBEC7CACEB8C0C1CEB86
:10F70000020F59D047E003EB020C85FB0CA9A9EBD3
:10F71000E979A9EB890919EB0C0F4DD03BE085FB8A
:10F72000029CACEBEC7C8CEA680C1CF0010F43D023
:10F7300031E003FB02FC85FB0CA9A9EBE979A9EBFD
:10F7400089090CEBDC7AE1442AF0010AACEB0A0CE3
:10F7500019EB0C0F30D01EE003FB02FC85FB0CA95B
:10F76000A9EBE979A9EB8909E14489EA0C0C1CF0C1
:10F77000010F21D00FE003FB02FC85FB0CBAAAEBC2
:10F78000EA7AAAEB8A0A03EB0209D4448CEA090C50
:10F790001CF0010F10D04FF0000C04F0FE0904F033
:10F7A0000204012C8CBF0124002484EA0C0C49EAD9
:10F7B0000C0C86F814C07DE74FF0010CEDE700005B
:10F7C00056555555232899BF5929592A4FF0FF30CE
:10F7D000704700F00F03000900EB800003EB4000CE
:10F7E000094B01F00F0C1870080900EB80000CEBBE
:10F7F00040005870100902F00F0100EB800001EB8F
:10F800004000987000207047A4200020D0F804C069
:10F81000BCF1060FD8BF70472DE9F00100214FEA77
:10F820000C3241F625730126C1F1110406FA04F4E5
:10F83000144204D0C1F1050403FA04F46240491CE7
:10F840000629F1DB02EB0C370023C3EBC3020021D6
:10F8500003EB430502EB42046A1806FA02F23A424D
:10F8600014BF30222022D0F810C004EB01088444D9
:10F87000C4448CF80920D0F810C08C44CCEBCC0CDC
:10F880000CEB4C0C84449C44491C0CF8D32C0329ED
:10F89000E2DB5B1C062BD8DBBDE8F0017047000003
:10F8A000F0B5354E354D8BB096F803C0A5FB0C1066
:10F8B000C008404200EB80000CEB4000CD211CFB57
:10F8C00001F12F4CC90A40EA011020713379A5FBE0
:10F8D0000310C008404200EB800003EB4000CD2144
:10F8E00013FB01F1C90A40EA011060717279A5FBAE
:10F8F0000210C008404200EB800002EB4000CD2126
:10F9000012FB01F1C90A40EA0110A0713178A5FB90
:10F910000170C008404200EB800001EB4000CD27A1
:10F9200011FB07F7FF0A40EA0710E0717078A5FBAA
:10F930000075ED086D4205EB850500EB4505CD270B
:10F9400010FB07F7FF0A45EA07152572CDE901010B
:10F95000B0780090581ECDE903200CF164000590AA
:10F960006846FCF7FBFDE060002020756075A0751F
:10F97000E07520760BB0F0BDA4200020CDCCCCCC1F
:10F98000FC2D002010B50446B0F9000000F5007110
:10F99000002001F047FF05F0ABFAB4F9020000F5D2
:10F9A0000071012001F03EFF05F0FEFAB4F90400F9
:10F9B00000F50071022001F035FF05F053FB03480C
:10F9C000016819310160002010BD0000B022002044
:10F9D000844830B4844A0078111D01244FF0000C93
:10F9E000062804BF137813F00F0F04D10B7803F02F
:10F9F000F003302B0CD0062804BF137813F00F0F40
:10FA00000AD0062804BF137813F00F0F19D113E0A2
:10FA1000774D764B6B6707E00B7803F0F003302BE4
:10FA20001CBF402B502BECD14FF08053D3F8443205
:10FA3000704DC3F342332B600B7803F0F003302B8F
:10FA40000CD0062804BF137813F00F0F0CD0062833
:10FA500004BF137813F00F0F1CD116E0664B1D681E
:10FA600025F080751D6007E00B7803F0F003302B64
:10FA70001CBF402B502BEAD14FF08043C3F80CC180
:10FA8000C3F810C15D4BC3F800C00B7803F0F0035E
:10FA9000302B06D0062804BF137813F00F0F09D1BE
:10FAA00003E0574A032010600BE00B7803F0F003EB
:10FAB000302B06D0062804BF107810F00F0F54D159
:10FAC0000AE0504A052010604F4804604F48C0F8D3
:10FAD00000C03F20121D1060087800F0F000502890
:10FAE00043D14B4800684B4908604B480068091DEA
:10FAF00008604A480068091D086049480068091DF7
:10FB0000086048480068091D086047480068091DEA
:10FB10000860464800684649086046480068091D74
:10FB2000086045480068091D086044480068091DD0
:10FB3000086043480068091D086042480068091DC4
:10FB40000860414800684149086041480068091D53
:10FB5000086040480068091D08603F480068091DAA
:10FB600008603E480068091D08603D48016841F48E
:10FB700070010160BFF34F8FBFF36F8F4FF0102202
:10FB8000D2F8000210F0004F04BFD2F8040210F0C7
:10FB9000004F22D0334B1C60334801680029FCD051
:10FBA0001524C2F8004201680029FCD0C2F80442C2
:10FBB00001680029FCD0C3F800C001680029FCD00E
:10FBC000BFF34F8F29480168294A01F4E0611143CE
:10FBD0000160BFF34F8F00BFFDE72749254808604C
:10FBE00030BC7047E00F00F0E40F00F00DF0ADBA4C
:10FBF00000C007403C050040FCED00E03805004037
:10FC0000A00500401056004088560040185600409D
:10FC10000404001020C50040080400100C0400106B
:10FC20001004001014040010180400101C0400102C
:10FC300040C50040200400102404001028040010D7
:10FC40002C040010300400103404001060C5004083
:10FC5000380400103C04001040040010440400105C
:10FC600088ED00E004E5014000E401400CED00E017
:10FC70000400FA050090D00340290020F8B504469E
:10FC800000207549A4F1A00240F2B1339A4204D891
:10FC900000EB44000844A0F5A070A4F50052103A0F
:10FCA00040F232639A4207D840F2647000EB44009D
:10FCB0000844A0F580402038A4F5405240F2D533E6
:10FCC0009A4206D841F2CA3000EB44000844A0F53D
:10FCD000C040A4F59C4245F2A5139A4206D841F6CD
:10FCE000763000EB44000844A0F51C40A4F57E42A9
:10FCF000303A3B2A06D84BF6C26000EB4400574A24
:10FD0000084410446FF47F4222445D2A07D84BF622
:10FD10003A7000EB44000844A0F5FF30801EA4F5C3
:10FD20007F42E03A052A06D84BF6F67000EB440015
:10FD30004B4A08441044A4F579422C3AFD2A06D8CF
:10FD40004CF2A00000EB4400464A08441044A4F5DD
:10FD50006842163A4E2A07D84CF29C2000EB440029
:10FD60000844A0F5E8302C386FF43A522244492A6E
:10FD700007D84CF23A3000EB44000844A0F5BA40F2
:10FD80000238A4F59242473A702A07D84CF2CE3096
:10FD900000EB44000844A0F512408E38A4F59842C8
:10FDA000773AB2F59C7F07D24CF2B04000EB4400AA
:10FDB0000844A0F51840EE38A4F55052473A40F6F2
:10FDC00099039A4207D84CF2207000EB4400084493
:10FDD000A0F5D0408E38A4F58042563AB2F5E76FD0
:10FDE00007D24DF6540000EB44000844A0F5004053
:10FDF000AC386A46022109F045FD9DF801009DF8E6
:10FE00000010A4F5674200EB0120A4F53C518D3AA7
:10FE1000F039D61FA4F5F05580B24EF296733F3DEF
:10FE200004D09C4205D14AF2F36008E04AF6BC00D7
:10FE3000F8BD0B2903D847F69A10204480B2062A51
:10FE400003D8A4F58040B43880B2012EF0D8A4F5D0
:10FE50008044A83CA0B2F8BD278C1600A003FEFF8A
:10FE60004000FEFFA80DFEFF08B51F4AA0F1A1014A
:10FE7000B1F56C7F01D888B225E0A0F500511539A5
:10FE8000B1F5CB6F02D800F5677007E0A0F54051DF
:10FE900040F2DD33994204D8A0F2F650A0F50050AC
:10FEA00010E0A0F52C4142F69D33994202D801F6AC
:10FEB000E85007E0A0F57941B1F5E06F11D2A0F567
:10FEC0003F407A3880B260B102EB40006A460221BE
:10FED00009F0D8FC9DF801009DF8001000EB01200E
:10FEE00008BD002008BD0000D5B018002DE9F007BE
:10FEF0002F4B4FF0000C2F4F03EB02164FF0FF0873
:10FF0000E14616F81C50002300EB0C0245FA03F4FE
:10FF100014F0010F0BD0602ABCBFCC18402C11DAB2
:10FF200004EB440407EB441404F802800AE0602A5E
:10FF3000BCBFCC18402C05DA04EB440407EB441496
:10FF400004F802905B1C082BE0DB06EB4C035D78A9
:10FF5000002345FA03F414F0010F0FD0602A1CDAD5
:10FF6000CC1804F1080ABAF1400F16DA04EB440485
:10FF700007EB4414144484F800830EE0602A0CDA82
:10FF8000CC1804F1080ABAF1400F06DA04EB440475
:10FF900007EB4414144484F800935B1C042BD8DB57
:10FFA0000CF1010CBCF1080FABDBBDE8F0077047AA
:10FFB000CF2B0300085A00202DE9F0072F4B4FF0FC
:10FFC000000C2F4F03EB02164FF0FF08E14616F826
:10FFD0001C50002300EB0C0245FA03F414F0010F4F
:10FFE0000BD0602ABCBFCC18402C11DA04EB4404BF
:10FFF00007EB441404F802800AE0602ABCBFCC1866
:020000040002F8
:10000000402C05DA04EB440407EB441404F8029096
:100010005B1C082BE0DB06EB4C035D78002345FA04
:1000200003F414F0010F0FD0602A1CDACC1804F18D
:10003000080ABAF1400F16DA04EB440407EB441443
:10004000144484F800830EE0602A0CDACC1804F122
:10005000080ABAF1400F06DA04EB440407EB441433
:10006000144484F800935B1C082BD8DB0CF1010CC2
:10007000BCF1080FABDBBDE8F00770470B290300AC
:10008000085A00202DE9F003DFF86CC00024C2EB11
:10009000C2021A4F0CEB4209DEB2A04619F8045016
:1000A0000022031945FA02FC1CF0010F0DD0602B51
:1000B000BCBF01EB020CBCF1400F13DA0CEB4C0C93
:1000C00007EB4C1C0CF803600CE0602BBCBF01EB91
:1000D000020CBCF1400F05DA0CEB4C0C07EB4C1C8E
:1000E0000CF80380521C082ADCDB641C0E2CD5DBC8
:1000F000BDE8F00370470000CF2D0300085A002030
:100100002DE9F0072F4B4FF0000C2F4F03EB021699
:100110004FF0FF08E14616F81C50002300EB0C02DC
:1001200045FA03F414F0010F0BD0602ABCBFCC18C1
:10013000402C11DA04EB440407EB441404F8028069
:100140000AE0602ABCBFCC18402C05DA04EB44045A
:1001500007EB441404F802905B1C082BE0DB06EB71
:100160004C035D78002345FA03F414F0010F0FD01F
:10017000602A1CDACC1804F1080ABAF1400F16DA2A
:1001800004EB440407EB4414144484F800830EE0A9
:10019000602A0CDACC1804F1080ABAF1400F06DA2A
:1001A00004EB440407EB4414144484F800935B1CF0
:1001B000042BD8DB0CF1010CBCF1080FABDBBDE864
:1001C000F00770474B280300085A0020F0B50E4690
:1001D0001B498A42D5BF42F20F710A468A42052363
:1001E0000CDCB2F57A7FA8BF042307DA632AC8BF04
:1001F000032303DC092ACCBF02230123C0F16001E1
:10020000C3F1000C01EBCC0101EBD17100EB6100FB
:1002100000EBC3000B4FA0F1080587FB0203981009
:10022000A0EBE374634203EB830002EB4002314630
:100230002846FFF765FF221EA5F10805EDDCF0BD9D
:100240009F860100676666662DE9F007304B4FF028
:10025000000C02EB42022F4F03EB02164FF0FF0897
:10026000E14616F81C50002300EB0C0245FA03F49B
:1002700014F0010F0BD0602ABCBFCC18402C11DA4F
:1002800004EB440407EB441404F802800AE0602AFB
:10029000BCBFCC18402C05DA04EB440407EB441433
:1002A00004F802905B1C082BE0DB06EB4C035D7846
:1002B000002345FA03F414F0010F0FD0602A1CDA72
:1002C000CC1804F1080ABAF1400F16DA04EB440422
:1002D00007EB4414144484F800830EE0602A0CDA1F
:1002E000CC1804F1080ABAF1400F06DA04EB440412
:1002F00007EB4414144484F800935B1C042BD8DBF4
:100300000CF1010CBCF1140FABDBBDE8F00770473A
:100310007F2A0300085A00202DE9F0030024194B1E
:10032000194E03EB4219FF27A04619F8045000228A
:10033000031945FA02FC1CF0010F0DD0602BBCBF65
:1003400001EB020CBCF1400F13DA0CEB4C0C06EB8A
:100350004C1C0CF803700CE0602BBCBF01EB020CD2
:10036000BCF1400F05DA0CEB4C0C06EB4C1C0CF806
:100370000380521C082ADCDB641C142CD5DBBDE88E
:10038000F00370470F2C0300085A00202DE9F003FA
:1003900000241A4B02EB4202194E03EB4209FF27DD
:1003A000A04619F804500022031945FA02FC1CF07B
:1003B000010F0DD0602BBCBF01EB020CBCF1400F54
:1003C00013DA0CEB4C0C06EB4C1C0CF803700CE035
:1003D000602BBCBF01EB020CBCF1400F05DA0CEB4B
:1003E0004C0C06EB4C1C0CF80380521C082ADCDB7E
:1003F000641C062CD5DBBDE8F0037047F82503002C
:10040000085A00202DE9F007304B4FF0000CC2EBEA
:10041000C2022F4F03EB42064FF0FF08E14616F8E9
:100420001C50002300EB0C0245FA03F414F0010FFA
:100430000BD0602ABCBFCC18402C11DA04EB44046A
:1004400007EB441404F802800AE0602ABCBFCC1811
:10045000402C05DA04EB440407EB441404F8029042
:100460005B1C082BE0DB06EB4C035D78002345FAB0
:1004700003F414F0010F0FD0602A1CDACC1804F139
:10048000080ABAF1400F16DA04EB440407EB4414EF
:10049000144484F800830EE0602A0CDACC1804F1CE
:1004A000080ABAF1400F06DA04EB440407EB4414DF
:1004B000144484F800935B1C042BD8DB0CF1010C72
:1004C000BCF1070FABDBBDE8F0077047EF2C030072
:1004D000085A00207CB5491E1C461546CDE900018E
:1004E000044B6A462146284600F0FAFD009A002196
:1004F00011707CBD0F18020000210160017170476E
:10050000002101608180704700210160818081713C
:10051000704700210160416070470A6802600B79F2
:100520000371704703B401984100009850EAC1205C
:1005300018BF04204A0D18BF40F0010040F2FF72BE
:10054000B2EB515F08BF40F00200012808BF052050
:1005500002B07047022998BF092803D8172A98BF0C
:100560003B2B02D94FF0FF3070472DE9F0011A4EB6
:1005700044000325D6F814C0A5402CEA050CC6F8A3
:1005800014C0012707FA00F5D6F81880012928EAD7
:100590000508C6F8188002D0022913D017E007FA20
:1005A00004F14CEA0101716106EB400106F81020EC
:1005B0004B7000281CBF0328062808D1B0692843C7
:1005C000B06104E00220A0404CEA00007061BDE888
:1005D000F001002070470000802000200000000093
:1005E00010B52F499FED2C1B2DED020B84B0059803
:1005F00020F000408842DCBF00209DED040B32DD7E
:100600002849884209D1049840B94FF0010000F010
:10061000AFFC00F07DFC06B010BD05DB9DED040BCA
:1006200000F06AFC06B010BD68469DED040B00F0BA
:100630007BF810F0030011D0012818D09DED021BAB
:100640009DED000B02281AD000F08AFA51EC100B35
:1006500081F0004106B041EC100B10BD9DED021B76
:100660009DED000B012000F0AFFB06B010BD9DED2D
:10067000021B9DED000B00F073FA06B010BD0120C7
:1006800000F0A2FB51EC100B81F0004106B041ECF0
:10069000100B10BD00000000000000000000000072
:1006A000FB21E93F0000F07F00B52DED048BB0EE9B
:1006B000409AF0EE609A83B051EC190BFCF738FBCE
:1006C00041EC180B18EE100A18EE901A8DED008B05
:1006D000002818BF0120084320F00040C0F17F60CF
:1006E00000F1E040C00F14D019EE101A19EE900A74
:1006F0008DED009B002918BF0121084320F0004028
:10070000C0F17F6000F1E040C00F04BF012000F0A5
:100710002FFCB0EE480A03B0F0EE680ABDEC048B83
:1007200000BD0000000000002DE9F14F04462DED52
:10073000020B2DED088B8AB09FEDE70B80ED020BCD
:10074000139EE74826F0004585420ADC9DED120B1A
:10075000002084ED000B0AB0BDEC088B03B0BDE8AF
:10076000F08FE0489FEDE0AB9FEDE1BBA84247DD95
:10077000E14F9FEDE39B9FEDE48B9DED120B53EC5E
:100780001A2B51EC100B002E1CDDFCF731F841EC5C
:10079000100BBD4208D053EC1B2B51EC100BFCF797
:1007A00027F8C4E900010BE053EC192B51EC100BB6
:1007B000FCF71EF853EC182BFCF71AF8C4E90001FB
:1007C0000120C8E7FBF773FF41EC100BBD4208D0D6
:1007D00053EC1B2B51EC100BFBF769FFC4E9000134
:1007E0000BE053EC192B51EC100BFBF760FF53ECB3
:1007F000182BFBF75CFFC4E900014FF0FF30AAE7BC
:10080000C348A84279DB9DED120B51EC100B06F0AA
:1008100073FA41EC180B9FEDC00B53EC102BFBF758
:10082000EDFF9FEDBF1B53EC112BFBF740FFFCF7D7
:1008300013FB0746FCF7C3F841EC190B53EC1A2BDA
:10084000FBF7DCFF53EC182BFBF7D5FF41EC180B43
:1008500053EC1B2B51EC190BFBF7D0FFDFF8C8A2B0
:1008600041EC100B4FEA15580125FA4453EC102BBC
:1008700051EC180BFBF7BCFF032DC4E900013DD080
:10088000C1F30A5005EB4511A8EB00001139814274
:1008900034DA0AEB051BB0EE48AA9BED000BF0EE34
:1008A00068AA53EC102B51EC190BFBF7A7FF41EC96
:1008B0001B0B51EC1A0B53EC1B2BFBF799FF41EC74
:1008C000180B51EC1A0B53EC182BFBF791FF53EC60
:1008D0001B2BFBF78DFF9BED020B41EC1A0B53EC2E
:1008E000102B51EC190BFBF789FF53EC1A2BFBF77C
:1008F0007FFF41EC100B6D1CB8E70EE0002EA8BF87
:100900003846BFF628AF94ED000B51EC100B81F088
:100910000041C4E9000178421DE7C6F3130040F42A
:10092000801EC6F30A50A0F2F530471100F01F05F3
:10093000C5F12000DDF848B008900020069007902F
:100940000520EC467949002D07EB0002794408BFE9
:1009500051F8221009D051F8223001EB8201AB404E
:100960004A68089922FA01F11943A1FB0E26A1FB5E
:100970000B131A449A4234BF0123002303EB0608E9
:100980000CEB8003D3E901A60E448E4234BF012153
:10099000002192448A4411B1924502D903E0924564
:1009A00001D2012100E00021C3E901A641444CF835
:1009B0002010011EA0F10100C4DC029800F10050DB
:1009C000850F0298DDE903678000DDF81480FBF7EE
:1009D000F6FF41EC1A0B3046FCF702F89FED541B72
:1009E00053EC112BFBF70AFF41EC1B0B3846FBF7CE
:1009F000F7FF9FED511B53EC112BFBF7FFFE41EC72
:100A0000180B4046FBF7ECFF9FED4D1B53EC112BF1
:100A1000FBF7F4FE41EC190B51EC180B53EC192BBE
:100A2000FBF745FE53EC1B2BFBF741FE53EC1A2B57
:100A3000FBF73DFECDE90801002008909DED080B75
:100A400053EC1A2B51EC100BFBF7D2FE53EC1B2B83
:100A5000FBF7CEFE53EC182BFBF7CAFE53EC192B19
:100A6000FBF7C9FE9FED381B53EC112BFBF7C6FEBD
:100A70009FED370B41EC180B53EC102B9DED080B41
:100A800051EC100BFBF7BAFE53EC182BFBF70FFEE3
:100A90009FED310B41EC180B53EC102B9DED080B27
:100AA00051EC100BFBF7AAFE53EC182BFBF7FFFDE4
:100AB00041EC100B139810F0004F06D06D4251EC32
:100AC000100B81F0004141EC100B284684ED000B27
:100AD00041E60000000000000000000000000000EF
:100AE000FB21E93F7CD9024000004054FB21F93F43
:100AF0003163621A61B4D03DFB21F93F0000000070
:100B00000000601A61B4D03D7370032E8A19A33BB4
:100B1000FB2139410000000083C8C96D305FE43F0C
:100B2000000000000000E03F8A240200D8230200F9
:100B3000000000000000103E000000000000103C1B
:100B4000000000000000103A182D4454FB21F93D2C
:100B50003326A611460B113C00000054FB21F93D41
:100B600010B52DED040B2DED088B82B0B0EE419A3F
:100B7000F0EE619A0B9820F000449FED4BABB4F17E
:100B8000795F11DA9DED0A0B51EC100BFCF764F95B
:100B9000002801BFB0EE4A0AF0EE6A0A02B0BDECCE
:100BA000088B04BF04B010BD9DED0A0B53EC102B55
:100BB00051EC100BFBF722FE41EC180B3C480621D0
:100BC000B0EE480AF0EE680A784400F081F853EC81
:100BD000182B51EC100BFBF711FE9DED0A0B41ECAD
:100BE0001B0B53EC192B51EC100BFBF707FE41ECE0
:100BF000190B53EC1B2B51EC180BFBF7FFFD53ECBF
:100C0000192BFBF7F5FD9FED2C0B41EC190B53EC69
:100C1000102B51EC180BFBF7F1FD41EC100B2848A1
:100C2000844210DA53EC192B51EC100BFBF7E0FD6A
:100C300053EC1A2BFBF7DFFD41EC100B02B0BDECBF
:100C4000088B04B010BD1F48A042BCBF9FED1E1B07
:100C50008DED001B06DBA4F5001001900020009034
:100C60009DED001B51EC100B53EC112BFBF7C0FD5D
:100C70009DED000B41EC180B53EC102B51EC1A0BB3
:100C8000FBF7B6FD41EC1A0B53EC192B51EC180B8A
:100C9000FBF7AEFD53EC1A2BFBF7ADFD41EC100B4F
:100CA000CCE7000000000000000000000000F03F62
:100CB000FC20020000000000000000000000E03FF7
:100CC0003333D33F0000E93F000000000000D23F73
:100CD00070B504462DED028B4D1E00EBC500B0EE45
:100CE000408AF0EE608A90ED000B35F0060017D0D8
:100CF00053EC182B51EC100BFBF780FD41EC100B63
:100D00006D1E04EBC50090ED001B51EC100B53EC75
:100D1000112BFBF7CCFC41EC100B35F00600E7D1B2
:100D2000022D36D0042D1CD0062D1CBFBDEC028B2D
:100D300070BD53EC182B51EC100BFBF75FFD94EDDD
:100D40000A1B53EC112BFBF7B2FC53EC182BFBF7EF
:100D500055FD94ED081B53EC112BFBF7A8FC41EC5F
:100D6000100B53EC182B51EC100BFBF747FD94EDD7
:100D7000061B53EC112BFBF79AFC53EC182BFBF7DB
:100D80003DFD94ED040B53EC102BFBF790FC41EC74
:100D9000100B53EC182B51EC100BFBF72FFD94EDBF
:100DA000021B53EC112BFBF782FC53EC182BFBF7C7
:100DB00025FD94ED001B53EC112BFBF778FCBDECEB
:100DC000028B41EC100B70BD31B504462DED040BC8
:100DD0002DED0A8BB0EE41BAF0EE61BA0B989DEDA5
:100DE0000A0B20F00040B0F1795F0DDA51EC100BE6
:100DF000FFF798FB042808BF00F09AF89DED0A0B56
:100E0000BDEC0A8B05B030BD53EC102B51EC100B30
:100E1000FBF7F4FC41EC180B9DED0A0B53EC182B7F
:100E200051EC100BFBF7EAFC41EC190B2C48B0EE2F
:100E3000480AF0EE680A05217844FFF749FF9FED64
:100E40002ACBB0EE40AAF0EE60AA9CB353EC1C2B68
:100E500051EC190BFBF7D2FC41EC1C0B53EC1A2B99
:100E600051EC190BFBF7CAFC9FED210B41EC190B60
:100E700053EC102B51EC1B0BFBF7C0FC53EC192B64
:100E8000FBF7B6FC53EC182BFBF7B8FC53EC1B2B11
:100E9000FBF7AEFC53EC1C2BFBF7AAFC9DED0A1BE9
:100EA00053EC112BFBF7A7FCBDEC0A8B05B041EC12
:100EB000100B30BDFFE753EC1A2B51EC180BFBF76E
:100EC0009DFC53EC1C2BFBF7F2FB53EC192BFBF7AF
:100ED00095FC9DED0A1B53EC112BFBF7E8FBE3E7B8
:100EE000841F020000000000495555555555C5BFE7
:100EF000000000000000E03F10B553EC102B51EC57
:100F0000100BFBF7D4FB41EC100B10BD00000000F0
:100F10009FED050B10B553EC102B51EC100BFBF7AC
:100F2000DFFC41EC100B10BD0000000000000000D1
:100F30009FED050B10B553EC102B51EC100BFBF78C
:100F40005DFC41EC100B10BD000000000000001023
:100F500002E008C8121F08C1002AFAD17047704782
:100F6000002001E001C1121F002AFBD170470000E0
:100F70000149086070470000482900202DE9FF5F03
:100F8000DDE90220010DDDF838B0024318D044F647
:100F90001050A1F2FF3141430D140F98012820D0C9
:100FA000A5EB0B00401C5FEA000A4FF00004474E1F
:100FB000DFF81C91A046504616D5CAF1000728E07C
:100FC0000F98012443A2012808D0002100980F9B0C
:100FD000C0E90021C0E90243BDE8FF9F6FEA0B01B1
:100FE000F4E7CBF10000DEE7074612E0F80707D090
:100FF0002246334640464946FBF700FC8046894678
:101000002246334610461946FBF7F8FB04460E46C7
:101010007F10002FEAD1DDE90201BAF1000F42464C
:101020004B4602DAFBF7EAFB01E0FBF759FC04460A
:101030000E460022284BFBF7E5FE03D84FF0FF30A9
:10104000014607E00022254B20463146FBF72FFBE7
:10105000FBF7BFFE102409E0002C0ADB0A22002364
:10106000FBF729FD019B30321A55641E50EA01023C
:10107000F2D1641C019AC4F1110314440F9A012A9D
:1010800003D0012208430DD10AE0084304D0002018
:101090004FF0110B0F9080E7A3EB0B056D1E0DE0D9
:1010A0005B4504DD4FF0000205F1010504E003DAC1
:1010B0004FF00002A5F10105002AECD000980F992D
:1010C000C0E90231C0E9004586E700000000244085
:1010D0000000F03F300000000000F0430000E03F5F
:1010E0002DE9FF4F95B09B468946064600250FE245
:1010F000252877D100242746F84A0121059400E0ED
:10110000044316F8013F203B01FA03F01042F7D1E7
:1011100030782A2811D06FF02F033078A0F13002F8
:10112000092A16D8059A44F0020402EB820203EB66
:1011300042021044761C0590EFE759F8042B059203
:10114000002A03DA504244F40054059044F00204AB
:10115000761C30782E2816D116F8010F44F00404BE
:101160002A280DD06FF02F023078A0F13003092B20
:1011700009D807EB870302EB4303C718761CF3E794
:1011800059F8047B761C30786C280FD006DC4C288C
:1011900017D068280DD06A2814D104E0742810D024
:1011A0007A280FD10DE044F400140AE044F48014CE
:1011B00001E044F440147278824202D104F58014B4
:1011C000761C761C307866280BD013DC582877D034
:1011D00009DC002875D04528F6D04628F4D04728E9
:1011E0001AD19DE118E0632835D0642879D06528AC
:1011F00012D195E1702873D008DC6728F1D06928F6
:101200006FD06E280DD06F2806D1B5E073282CD092
:10121000752875D0782874D05A46179990476D1C58
:1012200075E1C4F30250022809D003280DD0D9F883
:10123000001004280DD00D6009F1040967E1D9F808
:101240000010EA17C1E90052F6E7D9F800100D8046
:10125000F2E70D70F0E719F8041B8DF8001000207C
:101260008DF80100EA46012003E059F804AB4FF085
:10127000FF3061074FF0000102D40DE008F10101D9
:101280008846B9420FDA8045F8DB1AF808100029C1
:10129000F4D108E008F1010188468142FADB1AF82E
:1012A00008100029F6D105985B46A0EB08072146F7
:1012B0003846179A00F094FA284400EB080507E036
:1012C0004DE029E10DE01AF8010B5A4617999047B5
:1012D000B8F10108F7D25B4621463846179A13E168
:1012E00042E00A220092C4F302524FF0000A022A9E
:1012F00008D059F804CB032A4FEAEC710AD00DE06C
:1013000029E02AE009F1070121F00702F2E802C111
:10131000914609E00FFA8CFC4FEAEC71042A03D1E4
:101320004FFA8CFC4FEAEC71002907DA0A460021DB
:10133000DCF1000C61EB02012D2202E0220504D554
:101340002B228DF80420012203E0E20701D02022A5
:10135000F7E7904659E00A2102E010220DE0102143
:101360004FF0000A00910BE010224FF0000A44F009
:1013700004040827009203E008224FF0000A0092BC
:10138000C4F30252022A05D059F804CB0021032AE3
:1013900008D009E009F1070121F00702F2E802C1D3
:1013A000914605E01FFA8CFC042A01D10CF0FF0CD9
:1013B0004FF00008220728D5702806D0009B83F044
:1013C000100353EA0A0305D00EE040228DF80420F2
:1013D000012208E05CEA010206D030228DF80420E8
:1013E0008DF8050002229046009B83F0080353EA23
:1013F0000A030AD15CEA010201D1620705D5302255
:101400008DF804204FF001087F1E582804D034A026
:1014100003900EA802900DE036A0F9E7534660460F
:10142000009AFBF748FB84460398825C0298401EB2
:10143000029002705CEA0100F0D1029806A9081A35
:1014400000F1200A600702D524F4803400E001276F
:10145000574502DDA7EB0A0000E0002000EB0A017F
:10146000009005984144401A0590E00306D45B467D
:101470002146179A059800F0B3F90544002706E0C5
:1014800001A85A46C05D179990476D1C7F1C4745BF
:10149000F6DBE0030CD55B462146179A059800F071
:1014A0009FF9054404E030205A46179990476D1C77
:1014B0000099481E00900029F5DC08E00298029986
:1014C0005A460078491C0291179990476D1CBAF151
:1014D0000001AAF1010AF1DC65E100000928010020
:1014E000303132333435363738396162636465669A
:1014F000000000003031323334353637383941425C
:10150000434445460000000000F058F90544761CAD
:10151000307800287FF4ECAD19B02846BDE8F08F94
:10152000620700D4062709F1070222F0070CFCE845
:101530000223E14603F000485FEA080C02D00FF2F4
:10154000702C0DE05FEA045C02D50FF2682C07E016
:101550005FEAC47C02D00FF2602C01E0AFF2700CA5
:101560004FF0FF3823F00043CDF850C065280CD071
:1015700006DC452809D046281DD047283DD13DE04E
:10158000662818D067287ED138E00021112F01DBB2
:10159000112000E0781CCDE9000106A90EA8FFF794
:1015A000EDFCDDE90F010E9A03910021009207F195
:1015B000010A04914DE04FF000400097CDE9011081
:1015C00006A90EA8FFF7DAFCDDE90F0203920E9BD5
:1015D00011990022DDF80CA00093049211B9791C36
:1015E00000EB010AB7EB0A0004D4C0F1FF3007F1A9
:1015F000010A0490AAEB0700019044E0012F00DAF1
:1016000001270021112F01DD112000E03846CDE92E
:10161000000106A90EA8FFF7B1FCDDE90F010E9A43
:101620000391002104910092BA4621070CD403993A
:10163000514500DA8A46BAF1010F05DD009AAAF198
:101640000101515C302908D0B84202DA10F1040FD0
:1016500006DA0121CDE9011015E0AAF10101E9E75F
:10166000002805DC049901440491AAEB000102E082
:10167000411C514500DD8A460499401A401C0190E6
:101680004FF000400290200704D40198504501DB40
:10169000CDF8048000208DF84F0002980DF14F071F
:1016A000B0F1004F25D02B200E9002984FF0020889
:1016B00000280CDA404202902D200E9007E00A210B
:1016C0000298FBF7E2F93031029007F8011DB8F1FA
:1016D0000001A8F10108F2DC02980028EFD1791E80
:1016E0000E980870307800F0200040F0450007F8B0
:1016F000020D12A8C01B00F107081498007800B171
:10170000012000EB0A01019801EBE07105984144CA
:10171000401A401E0590E00306D45B462146179A06
:10172000059800F05DF805441498007818B15A4601
:10173000179990476D1CE00324D55B462146179A04
:10174000059800F04DF805441CE00498002807DBDC
:10175000DDE90301884203DD0098405C179901E050
:10176000179930205A469047049805F10105401C0E
:1017700004900198401E019004D12E205A461799DA
:1017800090476D1CBAF10001AAF1010ADDDC05E009
:1017900017F8010B5A46179990476D1CB8F10001D4
:1017A000A8F10108F4DC5B462146179A0598ABE6E0
:1017B0002D0000002B000000200000002DE9F0416A
:1017C000044600251E461746880404D405E0394621
:1017D0002020B0476D1C641EF9D52846BDE8F08175
:1017E0002DE9F041044600251E469046C80301D568
:1017F000302700E02027880404D505E0414638461C
:10180000B0476D1C641EF9D52846BDE8F0814A68D2
:10181000002A06D00A68531C0B6010704868401EEE
:1018200048607047DFF834C0002300EBC0001A4660
:101830000CEB800000EB820CDCF804C040F822C006
:10184000521C6344082AF5D301625818044981FBED
:1018500000104110A1EBE07070470000887200207A
:10186000398EE3382DE9F04F0E46002183B01788FA
:10187000154611800446426B8A4611204FF0030E34
:101880004FF00208BAB11278032F38BF0C210FD3E2
:1018900086F800802988491C89B2298070542988DB
:1018A000491C89B2298072542988491C2980002149
:1018B000002940F06282226B4FF00C0BFAB12988AC
:1018C00001F11203BB4288BF594615D870542888CD
:1018D0001021401C80B2288031542888401C288068
:1018E0000F202B88115C401EF154298840B2491CFE
:1018F00029800028F5DA5146002940F03E8294F80C
:101900002E004FF0010900282DD02988CA1CBA42A8
:1019100088BF0C2124D806F8018029881C22491C84
:1019200089B2298072542988491C89B229800128EA
:1019300008BF06F801A00FD0022808BF06F80190E2
:101940000AD0032808BF06F8018005D0042814BF78
:10195000072106F801E003D12888401C28800021D7
:10196000002940F00A8294F82D0090B328880930AD
:10197000B84288BF594603D8684671DF010003D0DA
:10198000002940F0FA8125E02A880821B1542888EE
:101990001B21401C80B2288031542888401C80B212
:1019A00028803044DDF801100160BDF80510818009
:1019B0002888801D80B228809DF80010002914BF5F
:1019C00006F8009006F800A028885146401C2880A0
:1019D000D6E7FFE7A07818B32888001DB84288BF73
:1019E00059461AD8684679DF010016D1298819228C
:1019F00006F801E02888401C80B2288032542888EC
:101A0000401C81B229803144BDF800000870000AF2
:101A1000487028885146801C2880002940F0AD81FC
:101A2000E078D8B1288894F90310C21CBA4288BF64
:101A30000C2110D806F800802888401C80B228802D
:101A400006F800902888401C80B2288031542888ED
:101A5000401C28800021002940F08F816068D8B1A7
:101A600090F900102888C21CBA4288BF0C2110D8F7
:101A700006F8008028880A23401C80B2288033544E
:101A80002888401C80B2288031542888401C288037
:101A90000021002940F071812089D8B1CDE900579B
:101AA00004F1080902214FF0060833460A46484669
:101AB0000CF088FE01000AD1CDE900573346102210
:101AC000414648460CF07EFE010008BF5146002901
:101AD00040F05381208AD8B1CDE9005704F11009B4
:101AE00003214FF007083346022248460CF06AFEF5
:101AF00001000AD1CDE9005733461022414648463D
:101B00000CF060FE010008BF5146002940F035810D
:101B1000208BD8B1CDE9005704F1180914214FF0FA
:101B200015083346022248460CF04CFE01000AD14B
:101B3000CDE9005733461022414648460CF042FE9C
:101B4000010008BF5146002940F01781206AE8B320
:101B50002B88991D8F4238BF59463AD30288062AEE
:101B600015D34FF6FF7CB2F5486F01D962450ED10F
:101B7000418806290BD3B1F5486F01D9614506D1DB
:101B800062451CBF61458A4298BF002100D90721E8
:101B9000F9B90522F25429881223491C89B22980F7
:101BA00073542988491C8AB22A80324401881170F2
:101BB000090A51702988891C89B2298031444088DA
:101BC0000870000A48702888801C00E003E0288024
:101BD000514600297CD1D4F82480B8F1000F34D0CC
:101BE000B8F804002988021D0A44801CBA4294BF38
:101BF000FE28594627D8401C70542888FF22401CD4
:101C000080B2288032542888401C81B22980314417
:101C1000B8F800000870000A48702888801C80B25C
:101C20002880B8F804206AB1D8F80810002908BF45
:101C3000072108D03044FAF7E5FC2888B8F80410EA
:101C4000084428805146002942D194F82C00E8B37A
:101C5000A16AE1B34FF0000900283CD9A06A09EB62
:101C6000490100EB8108B8F80400801CFE2801D966
:101C7000594631E02A88401C1621B0542888401C5F
:101C800080B2288031542888401C81B22980314498
:101C9000B8F800000870000A48702888801C80B2DC
:101CA0002880B8F8042052B1D8F8081079B130442F
:101CB000FAF7A8FC2888B8F804100844288009F12D
:101CC000010000F0FF0994F82C0002E008E005E0B4
:101CD00040E04845C2D85146E1BB01E00721FBE79F
:101CE0002078B8B3B046012802BF617800290721E7
:101CF00043D029888A1CBA422BD8012804D16078A5
:101D00000844801CB84224D8781A801E86B2ADF8E8
:101D10000060288808F10201084469467DDF01005F
:101D20002BD12178022905D1BDF80000B04298BF1F
:101D300009200AD90820012905D16178B14298BF4C
:101D4000ADF8001001D9ADF80060BDF80010FE2913
:101D500001D9594611E02A88491C08F8021029883F
:101D6000491C89B2298008F801002888401C288075
:101D7000BDF8001008442880514603B00846BDE86D
:101D8000F08F000000220249024800F04DBC000024
:101D90005D27002098B3002000B583B000201A4AC8
:101DA0000090014601904FF40073A2F1E00000F0B2
