:020000021000EC
:10C0000000000120590A0200810A0200830A02008E
:10C01000850A0200870A0200890A02000000000067
:10C020000000000000000000000000008B0A020079
:10C030008D0A0200000000008F0A0200910A02002F
:10C04000930A0200930A020085140200930A020078
:10C050001DFA0100930A0200930A0200930A0200EB
:10C06000930A0200930A0200930A0200930A020054
:10C07000930A0200930A0200930A0200930A020044
:10C08000930A0200110B0200930A0200930A0200B5
:10C09000930A0200930A0200930A0200930A020024
:10C0A000930A0200930A0200930A0200930A020014
:10C0B000930A0200930A0200000000000000000042
:10C0C000930A0200930A0200930A0200930A0200F4
:10C0D000930A0200930A0200930A02000000000083
:10C0E0000000000000000000000000000000000050
:10C0F0000000000000000000000000000000000040
:10C10000000000000000000000000000000000002F
:10C11000000000000000000000000000000000001F
:10C40000044B05481B1A062B02D9044B03B11847ED
:10C41000704700BF63210020602100200000000061
:10C4200005490648091A891001EBD171491002D05B
:10C43000034B03B1184770476021002060210020A2
:10C440000000000010B5064C237843B9FFF7D8FF71
:10C45000044B13B10448AFF300800123237010BDD7
:10C460006021002000000000045E020008B5084BB7
:10C470001BB108490848AFF300800848036813B9A6
:10C48000BDE80840CCE7064B002BF9D09847F7E70A
:10C490000000000064210020045E02005C210020F6
:10C4A00000000000154B002B08BF134B9D46A3F561
:10C4B000803A00218B460F461348144A121A06F0A0
:10C4C0002DF80F4B002B00D098470E4B002B00D0BF
:10C4D00098470020002104000D000D48002802D0DC
:10C4E0000C48AFF3008005F0C9FF2000290005F0DB
:10C4F000BDF805F09DFF00BF00000800000001200E
:10C50000000000000000000060210020902D0020AD
:10C51000000000000000000070B505460C468E18B3
:10C52000B44206D02178284601F040FA04F8010B05
:10C53000F6E770BD014A0260416070472C2C002074
:10C54000704770B5044615460E464068002104F059
:10C55000BBFB04F108012068267265720222FFF716
:10C56000DBFF60680121BDE8704004F0ADBB38B569
:10C5700004460D464068002104F0A6FB214665F004
:10C580007F0501F8085F02222068FFF7C5FF606899
:10C59000012104F099FB607A38BD10B504460121F1
:10C5A000406804F06FFB0121606804F08DFB206897
:10C5B00001F0E6F90F212046FFF7D9FF032819D132
:10C5C00041221A212046FFF7BCFF02221F212046EC
:10C5D000FFF7B7FFD8221C212046FFF7B2FF012248
:10C5E00027212046FFF7ADFF2046C1221B21FFF780
:10C5F000A8FF002010BD000070B54D00E91C0646E4
:10C60000FFF7B5FFA91C04463046FFF7B0FF40EA2C
:10C61000042000B205F0B0F90022044B05F012FA34
:10C6200005F0F2FC00EE100A70BD00BF0000103FE4
:10C630000D4B012210B51A700C4B00221A600C4BE6
:10C640001B78044653B10B490B4804F067FC2046A5
:10C6500001F01EFA0146084804F074FC0520BDE80C
:10C66000104004F047BA00BF8C2100200C240020A9
:10C6700094200020D44F02001C2D00200C4A0023DF
:10C6800010B513700B4A13600B4B1B78044653B163
:10C690000A490B4804F042FC204601F0F9F9014632
:10C6A000074804F04FFC0520BDE8104004F022BA12
:10C6B0008C2100200C24002094200020EF4F020049
:10C6C0001C2D0020F0B5294B1B7899B00C461BB1EE
:10C6D0002749284804F022FC23682046DB68984755
:10C6E000236807461B692046984700250646EBB29B
:10C6F0009E4211D9795D102201A804F063FF102237
:10C700000021019806F018FE04AB43F8250001A8AB
:10C7100004F0CEFE0135EAE71749164804F002FCA2
:10C720000025B5420CDA04AB0A2253F82510114853
:10C7300004F078FC11490F4804F0F4FB0135F0E7F0
:10C740000E490C4804F0FEFB23682046DB6898473E
:10C75000236805461B69204698470146284601F094
:10C76000FFFD052004F0C6F919B0F0BD94200020AB
:10C770000D5002001C2D00203A500200345B0200D4
:10C7800038B50B4C0B490546204604F0CBFB102274
:10C790002946204604F00EFC0749204604F0C2FB5F
:10C7A000296820461022BDE8384004F00FBC00BFC5
:10C7B0001C2D00204C5002005F50020070B50E1A74
:10C7C0001549164804F0AEFB4FF47A740A2296FB22
:10C7D000F4F51248294604F003FC11490F4804F00F
:10C7E000A1FB04FB15650A2495FBF4F4092C03DC7A
:10C7F0000C490A4804F096FB0A49084804F092FBE9
:10C8000021460A22054804F00DFC07490348BDE80B
:10C81000704004F097BB00BF345B02001C2D002069
:10C8200034540200C45102006350020038B51A4962
:10C8300004461A4804F086FB1949184804F072FBB4
:10C8400010222146154804F0B7FB1649134804F09E
:10C8500069FB2146144803F0EFFB0A2201460F480A
:10C8600004F0E2FB11490D4804F06CFB00250E4872
:10C8700003F0B5FB854208DA20460434036801332F
:10C8800001D0FFF77DFF0135F1E709490348BDE815
:10C89000384004F057BB00BF665002001C2D00203A
:10C8A0008650020097500200122D0020AF50020067
:10C8B000CB52020038B5064C06490546204604F026
:10C8C00031FB294620461022BDE8384004F072BBF7
:10C8D0001C2D00205450020038B5064C0649054670
:10C8E000204604F01FFB294620460A22BDE83840B6
:10C8F00004F06CBB1C2D0020CD5002000149024801
:10C9000004F020BBDD5002001C2D0020014902482C
:10C9100004F018BBE15002001C2D002008B1FFF705
:10C92000EDBFFFF7F3BF0000F0B52DED028B002146
:10C9300083B04D484D4CFFF75FFEB2EE048A20EE07
:10C94000080A0121484884ED000AFFF755FE20EE51
:10C95000080A0221444884ED010AFFF74DFE20EE4B
:10C96000088A206884ED028A05F018F8D4ED018A5F
:10C9700068EE087A0446E8EEA87A0D4617EE900AAB
:10C9800005F00CF841EC100B03F04AFCB0EE401A35
:10C99000F0EE601A45EC104B03F040FC2EA3D3E9F7
:10C9A000002351EC100B05F04DF8314D314CF1EEF8
:10C9B000487AC5E9000117EE900A04F0EFFFF1EEA6
:10C9C000687ACDE9000117EE900A04F0E7FF9DEDCB
:10C9D000001B41EC100B03F021FC1FA3D3E9002343
:10C9E00051EC100B05F02EF8002206460F46224BA4
:10C9F000D5E9000104F074FE0022C5E900011F4BD7
:10CA00003046394605F090FAB8B115A3D3E90023B2
:10CA10003046394604F064FE0022194B06460F46A4
:10CA200005F0A0FA10B9C4E900670EE00022144B2B
:10CA30003046394604F052FE05E00022114B3046E4
:10CA4000394604F04DFEC4E9000103B0BDEC028B91
:10CA5000F0BD00BFAFF3008046DF617EDCA54C4037
:10CA60000000000000207C4024220020A0210020A3
:10CA7000E82B00201022002000806640008056C075
:10CA8000008076400080564010B52DED028B1A488C
:10CA90009FED1A8A847803F049F910FB04F4A4B2DC
:10CAA00007EE904AF8EE677A38EE678A18EE100AB9
:10CAB00004F074FF0EA3D3E9002305F035FA104B00
:10CAC00010B983ED008A01E000221A600A4803F0E1
:10CAD00033F850B10B4B1B783BB1BDEC028B0A49CC
:10CAE0000A48BDE8104004F01DBABDEC028B10BD31
:10CAF0009A9999999999B93F162C002000007F4383
:10CB0000E4210020942000200E5102001C2D002062
:10CB100038B50F4B1C68002C18DD0E4D2A78013CEF
:10CB200052B91C6094B9022201210F201A6004F04E
:10CB3000CBF801232B7038BD0CB11C6038BD1E2210
:10CB400021460F201A6004F0BFF82C7038BD00BFDA
:10CB500084200020142C0020304B31481A68314BBF
:10CB600070B5314D314C1A6002F0DEFF18212846B5
:10CB7000FFF7E0FC22462E492E4E28462E4D05F0AA
:10CB80001FFCFF231A461946284601F0D5FA224613
:10CB90002A49284605F014FC29492A482A4D01F063
:10CBA00095FB142302222949304600F0DFFF30466E
:10CBB000274E2246294605F003FC14230822254966
:10CBC000304600F0D3FF3046234E2246294605F07A
:10CBD000F7FB142312222149304600F0C7FF3046EC
:10CBE0001F4E2246294605F0EBFB142312221D4955
:10CBF000304600F0BBFF30461B4E2246294605F06A
:10CC0000DFFB082219493046142300F0AFFF22460B
:10CC100029463046BDE8704005F0D2BB8820002090
:10CC2000162C0020802100202422002080200020BB
:10CC300041C50100402200208C220020ADE001000F
:10CC4000C15102001822002019DB0100C651020068
:10CC500068220020CB510200BC210020D0510200EC
:10CC6000E8210020D5510200F02B0020DA5102000B
:10CC700038B5054651B101290AD002290AD0032945
:10CC80000AD0042914BF00242D2406E00C4604E039
:10CC90002A2402E02B2400E02C242146134802F031
:10CCA000FEFD2946114802F017FD012003F022FF86
:10CCB00000210E4802F0FDFD214603220B4802F040
:10CCC000EBFD012003F016FF084802F017FD0446B3
:10CCD000064802F013FD0546044802F00FFD01204E
:10CCE00003F008FF44EA052080B238BD542C002030
:10CCF00008B5FFF7BDFF07EE900AF8EE677A17EE6A
:10CD0000900A04F04BFE0AA3D3E9002304F09AFE34
:10CD100005F07AF904F042FE07A3D3E9002304F0FA
:10CD2000DDFC05F071F900EE100A08BDAFF30080DC
:10CD30007B14AE47E17A943F666666666612714080
:10CD400008B501462720FFF7D3FFF2EE027A20EE66
:10CD5000270AF1EE047A80EE277ADFED057A77EE86
:10CD6000277A17EE900A04F019FE41EC100B08BD6B
:10CD70000000004208B501462620FFF7B9FFF2EE99
:10CD8000027A20EE270AF1EE047A80EE277ADFEDB0
:10CD9000057A77EE277A17EE900A04F0FFFD41EC52
:10CDA000100B08BD00000042F8B5174E174F0024C5
:10CDB000354601342046FFF7DDFF51EC100B05F03E
:10CDC00023F946F8040B2046FFF7BAFF51EC100B8D
:10CDD00005F01AF9042C47F8040BEAD195ED017A15
:10CDE000D5ED007A0A4B77EE877A95ED027A77EEE9
:10CDF000877A95ED037A77EE877AB5EE007A67EE5B
:10CE0000877AC3ED007AF8BD90210020AC21002084
:10CE100088210020F8B52D4C2D4D2E4E2E4F294641
:10CE2000204600F0EAFF29462C4D204601F075F916
:10CE3000284600F0E6FD0146204600F0DBFF2046D4
:10CE40004FF6FF7101F06CF929462046244D01F0A0
:10CE50002AF9311D204601F026F9291D204601F04E
:10CE600022F920461F4901F01EF920461E4901F013
:10CE70001AF920461D4901F016F920461C4A0021E6
:10CE800000F0E5FF20461B4A012100F0E0FF3A4692
:10CE90003046002100F09FFE3A462846002100F06F
:10CEA0009AFE0021304600F028FE0021284600F0BE
:10CEB00024FE114B49F640421A6003F003FE0F4B6B
:10CEC00018602046BDE8F84000F0E5BF8C22002045
:10CED0000E52020040220020C5C601001822002088
:10CEE00068220020C0210020EC210020F42B00202B
:10CEF00031C601007DC60100E02100201024002081
:10CF00002DE9F8434FF4E131734804F084F9734B91
:10CF10001A7898461AB172496F4804F003F8322023
:10CF200003F0E8FD6F48704C02F01AFC322003F069
:10CF3000E1FD6E49684804F005F8204602F02CFF38
:10CF40004FF4FA7003F0D6FD6949634803F0FAFF25
:10CF5000204602F08BFE4FF4FA7003F0CBFD6425FF
:10CF600064495D4803F0EEFF2846A58003F0C2FD4A
:10CF70000221204602F074FE284603F0BBFD5E4904
:10CF8000554803F0CFFF5D48FFF707FB0A22014633
:10CF9000514804F049F8C82003F0ACFD01210F20EE
:10CFA00003F070FE01210F2003F08EFE00211D20F2
:10CFB00003F068FE0121082003F064FE0021082030
:10CFC00003F082FE02214E4802F082FD4D4B4E4A94
:10CFD0004E4918680023834203DA42F8041B0133E8
:10CFE000F9E74B493C484B4C4B4E03F0ABFF4B49E8
:10CFF000394803F0A7FF4A49374803F093FF4948EF
:10D0000002F0EAFF0A220146334804F00DF84649CF
:10D01000314803F087FF434802F0E1FF0A2201464E
:10D020002D4804F001F841492B4803F07BFF3D48AF
:10D0300002F0D8FF0A220146274803F0F5FF3C49D9
:10D04000254803F06FFF374803F038F807EE900AE1
:10D05000B8EE677ADFED377AC7EE276A16EE900AE8
:10D0600004F09CFC41EC100B02211B4804F087F8F3
:10D070003149194803F056FF10223049164803F091
:10D080009BFF03F01FFD2D492060264802F0F0FFB2
:10D09000054603F017FD691C306055D128490E483C
:10D0A00003F040FF102225490B4803F083FF31684D
:10D0B0002068FFF783FB2349074803F033FF03F0A1
:10D0C00001FD1E492060174803F04AF8054603F0A9
:10D0D000F9FC30603CE000BF1C2D002094200020B3
:10D0E00015520200542C0020162C00201F52020062
:10D0F0002C5202004F5202007052020024220020E3
:10D10000102D002090200020142400207DFFC74215
:10D11000895202000C2200207C210020A85202002B
:10D12000EB520200122D002008530200315302007E
:10D13000535302000000C8426B5302002BA7CBE7F9
:10D1400087530200AB5302008249834803F0EAFE92
:10D150002846FFF7AFFB31682068FFF72FFB284612
:10D16000FFF764FB2868FFF7B7FB7C497A4803F0B8
:10D17000E9FE00277A49784803F0D4FE0A223946AE
:10D18000754803F051FF7749734803F0DBFE2846EA
:10D19000FFF74CFB2868FFF79FFB73496E4803F0CD
:10D1A000C1FE03F08FFC29462060704802F01CFF8E
:10D1B00003F088FC014630602068FFF7FFFA6C49F5
:10D1C000654803F0AFFE03F07DFC6A4920606748C4
:10D1D00002F0C6FF814603F075FC30604846FFF759
:10D1E00069FB31682068FFF7E9FAB9F1FF3F03D125
:10D1F0006149594803F0A6FE2A6860480132494651
:10D2000002F0D2FE5E495448DFF8B09103F08AFE86
:10D2100003F058FC29462060544802F0F9FE03F060
:10D2200051FC014630602068FFF7C8FA55494A486A
:10D2300003F078FE03F046FC4E4920604B4802F0B4
:10D2400017FF054603F03EFC014630602068FFF7FB
:10D25000B5FA2846FFF7EAFA2868FFF73DFB092FE1
:10D2600013DD49493C4803F05DFE03F02BFCC9F88F
:10D2700000003E4802F0B7FF03F024FC434B014698
:10D280001860D9F80000FFF799FA4149324803F0D5
:10D2900059FE013740F2DC5003F02CFC142F7FF4D0
:10D2A00069AF3C492C4803F04DFE2E492A4803F053
:10D2B00049FE3949284803F035FE102237492648EF
:10D2C00003F0B2FE3649244803F02CFE33492748C8
:10D2D00002F0CEFE421C044609D132491E4803F03A
:10D2E00031FE2E49214802F03BFF044601E0FFF7E2
:10D2F00005FB2D4D2D49184803F014FE2A46214602
:10D300001E4802F051FE2068431B58425841FFF767
:10D3100005FB2749104803F005FE2049134802F099
:10D320001FFF2068401B18BF0120FFF7F7FA2149B3
:10D33000094803F007FEFFF76DFD98F800301BB1B8
:10D340001D49054803F0FEFD4FF4FA70BDE8F843AF
:10D3500003F0D0BBC35302001C2D0020D9530200A0
:10D3600036540200425402005C540200122D002088
:10D370007E5402002BA7CBE79C540200112D002005
:10D38000FC54020017550200395502007C21002090
:10D390000256020058550200715502009FAA94528D
:10D3A0008A5502009D55020078563412BF5502007E
:10D3B000CB550200E6550200055602000C22002063
:10D3C00030B52DED028B8DB068467F4900F032FDFF
:10D3D000684600F04DFB002800F0D6809FED7B7A78
:10D3E0007B4A9FED7C6A03AB07ADB0EE475AF2EE85
:10D3F000005AF2EC017AF4EEC77AF1EE10FA02D597
:10D4000083ED007A08E0F4EEC67AF1EE10FAD4BFAC
:10D41000C3ED007A83ED006AD3ED007ADFED6B6A2D
:10D4200077EEC57A67EEA57AE3EC017AAB42E0D1FC
:10D43000694BD3ED007AF4EEE67AF1EE10FA09D4F6
:10D440009FED647AF4EE477AF1EE10FAC8BFF0EE81
:10D45000477A01E0F0EE667A9FED5C8A1C2037EE99
:10D46000C88A03F06BFB07EE900A9FED5C7A5C4B79
:10D47000F8EE676A1422C6EE877A002128469FEDEF
:10D48000597A67EE877AFDEEE77A17EE904AC3ED98
:10D49000007A05F043F8544BD3E9000104F094FD01
:10D4A000524B8DF81C00D3E9000104F08DFD504B68
:10D4B0008DF82440D3ED007A4E4C8DF81D00FCEE23
:10D4C000E77A206817EE903ADDED037A8DF81E308A
:10D4D000FCEEE77A17EE903ADDED047A8DF81F3016
:10D4E000FCEEE77A17EE903ADDED057A8DF8203004
:10D4F000FCEEE77A17EE903ADDED067A8DF82130F2
:10D50000FCEEE77A17EE903AF2EE007A68EE277AB0
:10D510008DF82230FCEEE77A17EE903A8DF8233042
:10D5200004F03CFA0022344B04F0DAF80022334BCA
:10D5300004F088FA04F048FD8DF82600606804F0D5
:10D540002DFA00222C4B04F0CBF800222B4B04F0D8
:10D5500079FA04F039FD8DF82700A06804F01EFA6E
:10D560000022254B04F0BCF80022244B04F06AFA98
:10D5700004F02AFD14228DF828002946204800F0E6
:10D58000E0FA052003F0B6FA1E4B1B78C3B11E4922
:10D590001E4803F0C7FC03F07DFA1D4B07EE900A0E
:10D5A000B8EE677AD3ED007A77EE677A17EE900AD5
:10D5B00004F0F4F941EC100B0221144803F0DFFDF4
:10D5C0000DB0BDEC028B30BD8C22002000008C42DF
:10D5D000AC2100200000CA428821002000807F4446
:10D5E0008C2000200000C84210220020E82B0020E0
:10D5F000E4210020A02100200000F03F000059405D
:10D60000BC210020842100202E5602001C2D002069
:10D610003C22002070B59B4B9B4C2DED028BD4ED32
:10D62000007A93ED008A37EE888A03F033FA07EE2A
:10D63000900AF8EE677AB4EEE78AF1EE10FA40F15C
:10D640001E8103F027FA914B07EE900A1A78F8EE44
:10D65000677A1E46C4ED007ADAB18D498D4803F031
:10D6600071FC8D498B4803F05DFC94ED007ADFED91
:10D670008B7AC7EE276A16EE900A04F08FF941EC18
:10D68000100B0221834803F077FD8549814803F0A0
:10D6900059FC844D2B78BBB183497E4803F042FC92
:10D6A00003F0F8F907EE900AB8EE677AD4ED007A45
:10D6B00077EE677A17EE900A04F070F941EC100BE0
:10D6C0000221744803F05BFD784800F08BFB2B7857
:10D6D000BBB177496F4803F025FC03F0DBF907EE97
:10D6E000900AB8EE677AD4ED007A77EE677A17EE93
:10D6F000900A04F053F941EC100B0221654803F045
:10D700003EFDFFF705FA2B78BBB16A49614803F08B
:10D7100009FC03F0BFF907EE900AB8EE677AD4ED82
:10D72000007A77EE677A17EE900A04F037F941EC49
:10D73000100B0221574803F022FD5F4B1B782BB9D9
:10D7400033781BB92B78002B00F09980FFF7ECF8A9
:10D750002B78BBB159494F4803F0E4FB03F09AF929
:10D7600007EE900AB8EE677AD4ED007A77EE677A22
:10D7700017EE900A04F012F941EC100B0221454813
:10D7800003F0FDFCFFF710FB2B78BBB14C4941487F
:10D7900003F0C8FB03F07EF907EE900AB8EE677A53
:10D7A000D4ED007A77EE677A17EE900A04F0F6F877
:10D7B00041EC100B0221374803F0E1FCFFF764F95C
:10D7C0002B78BBB13F49334803F0ACFB03F062F95F
:10D7D00007EE900AB8EE677AD4ED007A77EE677AB2
:10D7E00017EE900A04F0DAF841EC100B02212948F8
:10D7F00003F0C5FCFFF7E4FD2B78BBB132492548A7
:10D8000003F090FB03F046F907EE900AB8EE677A52
:10D81000D4ED007A77EE677A17EE900A04F0BEF83E
:10D8200041EC100B02211B4803F0A9FC274B1B689D
:10D830003BB1274A00231360264A1360264B00227F
:10D840001A702B78DBB12549124803F06BFB03F00B
:10D8500021F907EE900AB8EE677AD4ED007A77EEF8
:10D86000677A17EE900A04F099F8BDEC028B41EC50
:10D87000100BBDE870400221064803F080BCBDECEF
:10D88000028B70BD802100203C22002094200020CB
:10D89000345B02001C2D00204A56020000007A442E
:10D8A0005156020084210020545602008C22002090
:10D8B000785602008E5602008C210020A8560200E5
:10D8C000C8560200E1560200FC5602006422002005
:10D8D000E42B002008240020202200201F570200F3
:10D8E00038B50025057329B90B4B0C4A0C48232188
:10D8F00004F06CFD01600B4951F82220027151F8CF
:10D90000233083719DF8103051F823304371022386
:10D91000C371856038BD00BF685702002B570200F5
:10D9200076570200E8590200037B23B943738373DF
:10D9300003610123037370471FB50DF1100E0EE94B
:10D940000E009DF80810026800230129C2F8003576
:10D95000039B08D004D3032907D143F0040304E058
:10D9600043F0020301E043F00603C2F85435019B83
:10D97000C2F824350123C2F8003505B05DF804FB78
:10D9800010B5FFF7D1FF03688279C3F80825427903
:10D99000C3F80C250279C3F81025034BBDE81040ED
:10D9A0000ECBFFF7C9BF00BF202C00200368C3F8CF
:10D9B0001C15D3F80821002AFBD0D3F81805002243
:10D9C000C3F80821C0B2704707B5094B09490A4896
:10D9D0004FF080421A6000229A6002221A711323CB
:10D9E000009314221223FFF77BFF03B05DF804FBC2
:10D9F000202C0020003000402C2C00200160828070
:10DA00007047006870478088704729DF704728DFBB
:10DA1000704703681868013018BF0120704708B5C7
:10DA20004FF080531A690368B3FBF2F31846FFF70F
:10DA3000EEFF1128FAD008BD38B504460D46194648
:10DA4000FFF7EDFF8B081A4629462068FFF7DDFF38
:10DA50001128F8D038BD10B502680846043A441AB7
:10DA6000A34204D952F8044F40F8044BF7E710BD25
:10DA700007B500230622694604300093ADF8043050
:10DA800004F032FD003018BF012003B05DF804FB44
:10DA900010B5034C0430214600F020FC204610BD98
:10DAA000402C00200B6843608B8803817047002363
:10DAB00043600381704708B50160FFF7F8FF08BDB8
:10DAC000807A7047C0687047007C704700207047BC
:10DAD000C368585C704770B50D461146026804462D
:10DAE000D6691A46B0470123A374A36923B121461E
:10DAF0002846BDE87040184770BD70B5044608461A
:10DB00000D4605F077FB2368C2B229462046DB6943
:10DB1000BDE8704018470000044B10B50446036090
:10DB2000C06808B104F0D8FC204610BDB45702000C
:10DB300010B50446FFF7F0FF204603F0ABFD20468A
:10DB400010BD10B5837A9A42044628BF1A46027463
:10DB5000C06804F0D8FC606928B1036821461B68DE
:10DB6000BDE810401847012010BD000070B5044604
:10DB70001D461646043042F6030200F06DF8142DDF
:10DB80004FF0000228460A4B236028BF1420A072E1
:10DB9000E26022746674A274E2746261A261E2615E
:10DBA000226215B104F090FCE060204670BD00BF19
:10DBB000B4570200407C7047C07C70470346002A7F
:10DBC000DA7414BF07220822084653F822200AB14B
:10DBD0001946104770470B299CBF063140F8212099
:10DBE0007047416170477047704770470020704729
:10DBF0007047704700207047002070470020704732
:10DC000000207047002070470020704700207047B8
:10DC100000207047002070470020704700207047A8
:10DC200000207047704770477047704710B5044632
:10DC300003F030FD204610BD054A02606422828058
:10DC400001210022C28002818172C260026170479C
:10DC5000E45702000161704710B50446FFF7CEFE9D
:10DC6000024A137801331370204610BD522C002055
:10DC7000014B1878704700BF522C0020C068036821
:10DC80001B6A1847A0F10400FFF7F8BFC0680368DB
:10DC90005B6A1847A0F10400FFF7F8BFC06803688B
:10DCA0009B6A1847A0F10400FFF7F8BFC06803683B
:10DCB000DB6A1847A0F10400FFF7F8BFC0680368EB
:10DCC0001B6B1847A0F10800FFF7F8BFC068036896
:10DCD0005B6B1847A0F10800FFF7F8BFC068036846
:10DCE0009B6B1847A0F10800FFF7F8BFC06810B49D
:10DCF0000468E46BA4465DF8044B6047A0F108009B
:10DD0000FFF7F4BFC06803681B6C1847A0F1080058
:10DD1000FFF7F8BFC06803685B6C1847A0F1080004
:10DD2000FFF7F8BFC06803689B6C1847A0F10800B4
:10DD3000FFF7F8BFC0680368DB6C1847A0F1080064
:10DD4000FFF7F8BFD0F8743113B100F5B070184781
:10DD50007047D0F8783113B100F5B07018477047AC
:10DD600030B414461A4623685D6A9DF8083000F501
:10DD7000B071AC46204630BC60477047704770B504
:10DD8000054600F5B07411462046FFF78BFED5F826
:10DD90006C311BB12046BDE87040184770BDD0F80B
:10DDA000703110B500F5B0740BB12046984720468D
:10DDB000BDE81040FFF77BBE10B4144600F5B0710B
:10DDC0001A4620465DF8044BFFF7F8BE10B414461F
:10DDD00000F5B0711A4620469DF804305DF8044BFA
:10DDE00000F056BAC0680368DB681847C06803686B
:10DDF0001B691847C0F88C107047C0F89C1070471A
:10DE000038B5D0F8A83004460D463BB900F01CFAEE
:10DE100000B2800004F058FBC4F8A80094F8AC20CD
:10DE2000D4F8A83043F8225094F8AC30013384F889
:10DE3000AC3038BD38B505460C460846FFF7D2FF72
:10DE400004F5B07107C985E80700284638BD0F29D9
:10DE50009CBF00EB8100C0F86C21704710B50446F0
:10DE6000FFF706FF00B2800004F02EFB04F1B003C0
:10DE7000036004F1BC03436004F1E003836004F534
:10DE80008073C36004F586730361052384F8A430AE
:10DE9000C4F8A00010BD2DE9F043D0F89010ADB04B
:10DEA000002304468DF83030E1B106A800F07EFA78
:10DEB00006A800F0ADFA022805468CBF15231423EE
:10DEC0008DF8500006A88DF8513000F09FFA2A46D0
:10DED0000146C5F11A050DF1520004F014FBEDB234
:10DEE000012601E01C250E46D4F88C1031B306A89B
:10DEF00000F05CFA06A800F08BFA431CAB42074620
:10DF00001CDAC6EB46182CAB434402288CBF062211
:10DF1000022203F8600C03F85F2C06A800F076FAE2
:10DF20002CAB984401463A46A8F15E00023D04F04D
:10DF3000EAFA0136ED1BF6B205F0FF05D4F89410AD
:10DF4000C9B194F89820B2B1022D14D9531CAB4238
:10DF5000C6EB46102CAB0344A4BF023DEAB2FF253A
:10DF600003F8602C03F85F5C2CAB18445E3804F0B7
:10DF7000CAFA0136F6B2D4F89C50BDB1284605F075
:10DF800039F9C0B21D288ABF1D238DF830008DF8E5
:10DF900030309DF8302090428CBF082009208DF849
:10DFA000310029460DF1320004F0ADFAD4F8A0306A
:10DFB00013B92046FFF752FF002742F6030804F189
:10DFC000040994F8A4309F4205DB002742F60308B9
:10DFD00004F108091BE0D4F8A03053F82750284674
:10DFE000FFF711FD404506D10DB1281F00E028467E
:10DFF0004946FFF7F6FD0137E3E7D4F8A83053F8B8
:10E0000027502846FFF7FFFC404505D0013794F81C
:10E01000AC309F42F1DB07E00DB1281F00E028463D
:10E02000494600F049F9F1E74BB104F596712046F5
:10E03000FFF7E6FE04F59C712046FFF7E1FEE0687D
:10E0400094F8AC1002680491D4F8A810039194F8E5
:10E05000A41002919DF83030D4F8A01001910CA9C1
:10E060000033009118BF01239568314614AAA847D0
:10E07000E06803681B6D98472DB0BDE8F08338B5A4
:10E08000D0F8A03004460D460BB9FFF7E7FE94F830
:10E09000A420D4F8A03043F8225094F8A4300133DF
:10E0A00084F8A43038BDFFF7EABF0000154B10B567
:10E0B00003F1680203600446803342608360FFF727
:10E0C00095FED4F8A80008B104F006FAD4F8A00030
:10E0D00008B104F001FA04F59A7000F0BBF804F5F9
:10E0E0008470FFF719FD04F1DC00FFF715FD04F162
:10E0F000B800FFF711FD04F1100000F06BFE2046A0
:10E1000010BD00BF6C58020010B50446FFF7CEFFEB
:10E11000204603F0BFFA204610BDB830FFF7EDBC33
:10E1200007B502AB022223F8021DDC301946FFF7C7
:10E1300008FD03B05DF804FB2DE9F843354BDFF82B
:10E14000E890DFF8E88003F108020446026000F17D
:10E15000100703F17002883300254260836038465F
:10E1600001F074FA04F1B806C4F88C50C4F8905069
:10E17000C4F8945084F89850C4F89C50C4F8A05047
:10E1800084F8A450C4F8A85084F8AC50224904F193
:10E19000B00000F09BF81323022220493046FFF71D
:10E1A000E5FC02231A461E4904F1DC00FFF7DEFC01
:10E1B000494604F5807000F089F804232022414686
:10E1C00004F58470FFF7D2FC494604F5967000F020
:10E1D00075F82022414604F59A7000F043F8214674
:10E1E00004F5B070FFF767FC10222946E76004F5DC
:10E1F000B67004F093F90B493046FFF77EFC2946D0
:10E200002046FFF78DFFE0682146FFF723FD2046FB
:10E21000BDE8F883645802004058020045580200E7
:10E220004A580200595802004F5802005458020040
:10E2300010B50446FFF7E2FB024A1378013313706E
:10E24000204610BD532C0020014B1878704700BFAA
:10E25000532C0020704710B5044603F01BFA2046EB
:10E2600010BD000038B504461546043042F60302DE
:10E27000FFF7DEFF054B23600023A572E372A36264
:10E2800084F822306362204638BD00BF1459020072
:10E2900070B50446C3720D460C3011461A4604F0A0
:10E2A00032F9012384F82230A36A23B1214628469B
:10E2B000BDE87040184770BD4162704710B54FF41B
:10E2C00020520446FFF7B4FF204610BD10B54FF4AE
:10E2D00020520446FFF7C0FC204610BD70B58AB03E
:10E2E00004460E4601A81B4903F024F9194904A865
:10E2F00003F020F90634052514F8013D0F2B03D84F
:10E30000154901A803F08AF91022217807A803F023
:10E3100059F907A904A803F03CF907A803F0C8F8C5
:10E3200004A901A803F076F91DB10C4901A803F076
:10E3300075F915F1FF35DFD200231222314601A80D
:10E3400003F07BF904A803F0B3F801A803F0B0F8D8
:10E350000AB070BD1E520200C45102009B5502005B
:10E36000F8B505460F460446631B9F4213DD23782C
:10E3700013F0F00F264603D109490A4802F0D2FDF6
:10E3800031780848102202F013FE0749054801348D
:10E3900002F0C8FDE8E70348BDE8F84002F0CABD56
:10E3A000C45102001C2D0020345B0200F7B5044666
:10E3B00000232160037508460E468DF804308DF861
:10E3C00005308DF8063004F015FF451E002D1ADBD0
:10E3D000277D0F2F17D8735D2D2B01D1013510E04C
:10E3E0007219002112F8012C8DF8042001A81022C6
:10E3F0008DF8053005F028F827443871237D013366
:10E400002375023DE2E7204603B0F0BD04307047BB
:10E41000007D704771DF704772DF704773DF7047B0
:10E4200075DF704776DF704777DF704778DF7047BA
:10E430007ADF70477CDF70477EDF70477FDF704791
:10E4400086DF704790DF704792DF704796DF704736
:10E4500098DF704799DF7047A0DF7047A2DF7047F1
:10E46000A3DF7047A4DF7047A6DF7047A9DF7047BE
:10E4700060DF704761DF704762DF704763DF7047BE
:10E4800053DF704710DF704711DF704790F860006E
:10E49000003018BF0120704770B590F871600023FC
:10E4A000B34214DA1A01456FAC18AA588A420CD14B
:10E4B000E38973B1227B02F0020202F0FF0342B152
:10E4C00090F8780080F0010070BD0133E8E700208B
:10E4D00070BD184670BD70B590F871600023B342EE
:10E4E0001ADA1A01456FAC18AA588A4212D1E1898A
:10E4F000A1B1227B02F0020202F0FF0382B10123EC
:10E5000080F878300022808FFFF7A0FFB0FA80F00B
:10E51000400970BD0133E2E7002070BD084670BDC0
:10E52000184670BD70B590F871600023B3421CDAD4
:10E530001A01456FAC18AA588A4214D1E389B3B1C5
:10E54000227B130704D590F8780080F0010070BD9D
:10E5500002F0040202F0FF034AB190F860000030BC
:10E5600018BF012070BD0133E0E7002070BD1846E0
:10E5700070BDF0B590F871E085B0002474452FDAD5
:10E580002501476F7E197D598D4227D1F4894CB3FF
:10E59000357B15F00C0127D090F8601021B315F0F1
:10E5A000080F14BF01250225ADF80A3001390123F7
:10E5B00080F860108DF8045080F87830002501A9AB
:10E5C000808F8DF80550ADF80640ADF808500392E5
:10E5D000FFF73EFFB0FA80F0400906E00134CDE7D6
:10E5E000002002E0204600E0084605B0F0BD70B50E
:10E5F00090F871600023B34210DA1A01456FAC182D
:10E60000AA588A4208D1E08948B1237B13F0300F21
:10E6100014BF0120002070BD0133ECE7002070BD65
:10E620007FB590F871600023B3422EDA1A01456F6E
:10E63000AC18AA588A4226D1E28942B3217B11F054
:10E64000300326D0012311F0100F14BF1946022108
:10E650001A44ADF80210ADF80620002102228DF810
:10E660000510ADF80810ADF80A2080F878306A443B
:10E6700001A9808F8DF804300392FFF7E9FEB0FA0C
:10E6800080F0400906E00133CEE7002002E01046AA
:10E6900000E0184604B070BD03681B6C18477FB5D6
:10E6A00090F871600023B3422ADA1A01456FAC1862
:10E6B000AA588A4222D1E28922B3237B13F0300385
:10E6C0004FF0000120D001231A44ADF806200222A9
:10E6D000ADF802108DF80510ADF80810ADF80A205D
:10E6E00080F878306A4401A9808F8DF80430039255
:10E6F000FFF7AEFEB0FA80F0400906E00133D2E742
:10E70000002002E0104600E0184604B070BD11F190
:10E71000270F08B514DB11F11D0F14DB11F1130FD6
:10E7200014DB11F10F0F14DB11F10B0F14DBCA1DF9
:10E7300015DBCB1C16DB0029D4BF0020042013E01E
:10E740006FF0270010E06FF01D000DE06FF0130078
:10E750000AE06FF00F0007E06FF00B0004E06FF0CD
:10E76000070001E06FF00300FFF75EFEB0FA80F0F3
:10E77000400908BD1321808FFFF754BE07B501463D
:10E780006846FFF747FE086920B103680DF10102F2
:10E79000DB69984703B05DF804FB000013B504463D
:10E7A00002A8002340F8043DFFF76AFE019803F039
:10E7B000E3F8084B002203F045F903F025FC236938
:10E7C00033B11A6800EE100A126A214618469047C3
:10E7D00002B010BD0000D03F704710B5044686B0AF
:10E7E00018220021684603F099FEA37A33B994F801
:10E7F0003430002B14BF0223032300E000238DF8E4
:10E800000030A38868460A221B0193FBF2F3ADF89F
:10E810001030FFF703FE06B010BD2DE9F0430546AA
:10E8200090F861008FB00C460023142683425DDA15
:10E8300006FB03F2696E8F188A58A24207D1204660
:10E84000FFF7B8F9C30751D57B6813B94EE0013320
:10E85000ECE795F833600DF11808324605F1140124
:10E86000404603F050FE236820461B699847043059
:10E870000644F6B21F2E39D87868FFF7C2F8014671
:10E880006846FFF793FD236895F833701B692046AF
:10E8900098470EAB1F44033007F8200C95F83370EF
:10E8A0003B441622684603F81F2CFFF7AFFD0237E2
:10E8B000038828F80730236895F83370DB68204612
:10E8C0009847236881461B69204698470437474488
:10E8D00002464946384603F016FE00231A463146E2
:10E8E0004046FFF799FDAC63012000E000200FB027
:10E8F000BDE8F0832DE9F047D4B04FF48E730446A1
:10E900000DF10A010DA8ADF80A30FFF7B3FD03467B
:10E91000002840F04482BDF83420302A00F03C81C9
:10E9200011D8112A5CD004D8012A21D0102A27D06E
:10E9300035E2142A00F0C780192A00F0D080132A8B
:10E9400040F02D829BE0382A00F0DA8106D8322A86
:10E9500000F06481362A00F0BA8120E2502A00F0EB
:10E96000D180522A00F01281392A40F01882ECE15D
:10E9700094F860209DF83C30134484F860300EE237
:10E98000BDF83800A08705A9FFF776FD20699DF83E
:10E99000143084F8603028B103680DF13D021B6823
:10E9A00021469847E288052A12D92389B3F5486F92
:10E9B0000ED8ADF816300023ADF8183005A94FF485
:10E9C000C873A08FADF81420ADF81A30FFF728FDFA
:10E9D00094F86830002B00F0E2810022012109E167
:10E9E0004FF6FF72A28784F8600005464FF01409C5
:10E9F000804694F861309D4216DA676E09FB05F691
:10EA0000BB19B85983F8108083F81180FFF7D4F848
:10EA100040B1206930B10368BA59D3F814A0214637
:10EA20000023D0470135E4E7206918B10368214687
:10EA30005B68984700230C20194694F8682093429D
:10EA400002DB0023184605E0E26E00FB03220133DF
:10EA50009160F2E794F87120934208DA616F1A012D
:10EA6000114401330873616F0A44D081F2E7002337
:10EA700084F87830236820469B6998478FE1E068E6
:10EA8000002800F08681FEF7C4FF002840F0818155
:10EA9000012303228DF80F3062F306138DF80C303A
:10EAA00007238DF80D30102300218DF80E30E36D13
:10EAB00005938DF8101009910A910B910691079119
:10EAC00005AB03AA68E1E16DBDF84420488A904295
:10EAD00018BF1946A08F1A46FFF7B2FC5FE19DF8F8
:10EAE0003C20002A40F05B81E06820B11C2304F147
:10EAF0004001FEF7A1FF2069002800F05081036863
:10EB00009B68E1E0BDF83A8006464FF0140994F89E
:10EB100061309E4280F24381616E09FB06F3CF189B
:10EB20003A8942450CD12069002800F038810368F9
:10EB30009DF8442000921D693A680DF1460323E1D7
:10EB4000BA89424520D19DF847009DF8462042EA07
:10EB5000002295B202F001023A74C5F340027A74C1
:10EB600015F00305C85818BF0125FFF725F8A8427E
:10EB70000AD02069002800F0128103683A685E69B3
:10EB800021462B46B0470AE10136C0E7024601465E
:10EB9000A08FFFF76BFC02E1BDF83A2072BBBDF815
:10EBA00040500DA913460C26AB421CDA94F868704D
:10EBB0000020B84214DAE26E91F810C006FB002281
:10EBC00092F806E0F44509D1B1F80EC0B2F804E0BD
:10EBD000F44503D1D1F81200906001E00130E8E77C
:10EBE00001330831E0E70DAB03EBC5050022A9892D
:10EBF000013189B2A08FFFF725FCD0E094F868209E
:10EC00000C20934280F2CB80E16E00FB03110D8952
:10EC100015B14D89002D4BD10133F2E7BDF83A20F3
:10EC200094F87030002A36D1E66E03EB430306EB0E
:10EC300083030A259B6805930DAB9A8905FB023572
:10EC4000AB4223D0002194F87120914219DA626F0F
:10EC500094F8700002EB011200EB400056F82070AF
:10EC6000506887420BD11F7C907A874207D1108968
:10EC7000DF89874201BF987C1073D88AD081013127
:10EC8000E1E7DA8AADF814200A33D9E705A9A08FA5
:10EC9000FFF7DAFB83E001330C2294F868005A4353
:10ECA00083420CDAE16E11440D892DB14D891DB1FD
:10ECB00084F870300831EAE701330C32F0E720695C
:10ECC00000286CD00368DB682146984767E0BDF8F0
:10ECD0003A1084F8780040F20512914201D1E268BE
:10ECE000CAB9BDF8401094F871000023834256DA87
:10ECF000626F02EB0312D5898D423BD00133F5E7F9
:10ED0000BDF83A1084F8780040F20512914246D1DD
:10ED1000E268002A43D01A0E8DF8183042F0010242
:10ED2000DBB28DF8172043F00103032262F30613D0
:10ED30008DF8143007238DF8153005A91023A08F06
:10ED40008DF81630FFF778FB29E09DF84230BDF8CA
:10ED50004050022B03D12946A08FFFF77BFB94F88C
:10ED6000711000238B421ADA626F02EB0312D08912
:10ED7000A8420CD1206990B19DF84410036800911D
:10ED800012689D690DF146032146A84707E001334B
:10ED9000E8E700231A468521A08FFFF74FFB54B008
:10EDA000BDE8F08710B50446FFF76EFB606F08B151
:10EDB00003F092FBE06E08B103F08EFB606E08B1C9
:10EDC00003F08AFB002384F8613084F8683084F80B
:10EDD000713010BD10B5054B03600446FFF7E2FF2C
:10EDE0002046FEF722FF204610BD00BF2859020032
:10EDF00010B50446FFF7EEFF204602F04BFC20461C
:10EE000010BD07B51288ADF80020ADF802106A46B3
:10EE100001464FF6FF700193FFF724FB03B05DF846
:10EE200004FB00002DE9F04FEDB09A469DF8E83163
:10EE30000193A24B769E9DF8E081054618680890E4
:10EE40000F4608A800211446FFF71CFB9C4B0993B2
:10EE5000142200210DA803F061FB0A2309A9ADF8D3
:10EE600034300DA801238DF840308DF83C30FFF789
:10EE7000FFFA2822ADF82C205022ADF82E204FF0BA
:10EE800000094FF4C8720BA8ADF83220ADF83090ED
:10EE9000FFF7CEFA4846FFF7C7FA6B750623022242
:10EEA000AB7503232A7585F833301FB314B31444AC
:10EEB000B9451FDA95F8330014F8023C2A180133DB
:10EEC0001375023014F8013C5375C0B285F8330055
:10EED000284414F8022C2146143003F014FB14F8D3
:10EEE000023C95F83320134485F8333009F10109C9
:10EEF0001F34DDE724AFBAF1000F20D00EB34FF07E
:10EF0000000902364B46D1451CDA16F802BC16F849
:10EF1000011C0BF10102FA549C1CFA18E4B2517066
:10EF200038195A46314603F0EEFA5C444FF00102BC
:10EF3000E3B285F8342009F101091F36E3E75346AF
:10EF400000E033463A4695F8331005F11400FFF718
:10EF500063FA0020FFF76AFA002442F603064445EC
:10EF60000DDA779B53F82400FEF74DFDB04202BF47
:10EF700095F86130013385F861300134EFE795F899
:10EF800061000338C0B285F8610000EB80008000AA
:10EF900003F09AFA00266866ADF814600296B1464E
:10EFA000464580F2BE81779B53F826402046FEF707
:10EFB00028FD014617A8FFF7F9F917A8FFF726FA69
:10EFC000074617A8FFF724FA022809D17A783B7878
:10EFD00043EA0223ADF8283001238DF82A301CE0E3
:10EFE0003B460DF1B00E07F1100C186859687246D7
:10EFF00003C2083363459646F7D17A7B3B7B43EAED
:10F000000223ADF828300DF12A0100232CA88DF839
:10F01000BD308DF8BC30FFF731FA2046FEF7F3FC27
:10F02000B0F5205F204611D1FEF7EBFC254904F036
:10F03000CFF8002800F073812046FEF7E2FC224959
:10F0400004F0C6F8002800F06A8131E2FEF7DBFC2C
:10F0500042F60303984240F0358104B1043C271D79
:10F060003846FEF7CEFC194904F0B2F8B8B99DF85D
:10F07000B030012262F3030362F307138DF8B0305E
:10F0800023682046DB689847236807461B692046AB
:10F090009847394682B22CA8FFF7CCF93FE13846B1
:10F0A000FEF7AFFC0A4904F093F898B923682046AC
:10F0B000DB6898470088FFF7B9F930E11C59020076
:10F0C00080200020405802004F580200455802009E
:10F0D0004A5802003846FEF794FCC14904F078F81B
:10F0E000002800F01C812046FEF764FD236882465C
:10F0F0001B69204698476A6EADF8160009EB890136
:10F100004FEA810B02EB0B0342F821400027029AE1
:10F110005A601F745F741C2239461DA803F0FEF963
:10F120002AF001031AF0300F8DF8743010D001234B
:10F13000194663F307118DF81810194606AA63F3F0
:10F14000071163F342078DF819108DF81A70229297
:10F1500000231AF0320FADF81C308DF81E300BD0A2
:10F160009DF81C30E968012262F3030301B1022219
:10F1700062F307138DF81C301AF00C0F10D0EB68F7
:10F1800001222BB19DF81D3062F30303022203E03C
:10F190009DF81D3062F3030362F307138DF81D30F1
:10F1A0009DF81E30012262F342038DF81E30236861
:10F1B00020469B6998479DF81E3080F0010060F35F
:10F1C00000038DF81E30771C47453CDA779B53F8D7
:10F1D00027A05046FEF717FCB0F5245F33D1BAF1F3
:10F1E000000F01D0AAF1040A0AF1040318460393A0
:10F1F000FEF707FC7B4903F0EBFF039BA0B9DAF8AD
:10F20000003050469B6898471E90DAF80030504610
:10F21000DB689847DAF80030ADF87C00DB685046D0
:10F220009847ADF87E000CE01846FEF7EAFB6E4901
:10F2300003F0CEFF28B9DAF8003050469B689847B3
:10F2400020900137C0E71422002112A803F066F9CC
:10F250000DF1160A0AAB129307AB1393BAF80030FC
:10F26000ADF85030236820469B6898476B6EADF828
:10F27000540000275B44083312AA1DA9384616978C
:10F28000FFF7ECF8BAF80030BBB12CABBAF80020AD
:10F290000393974208DA226839465269204690471C
:10F2A000039BD8550137F1E76B6E9B4452462CAB5C
:10F2B0000021BBF80800FFF7A4FD09F101095FFA7E
:10F2C00089F92CE02046FEF79EFBB0F5245F26D19D
:10F2D00004B1043C271D3846FEF793FB414903F077
:10F2E00077FFE0B13846FEF78CFB404903F070FF32
:10F2F000A8B13846FEF785FB3D4903F069FF70B1C0
:10F300003846FEF77EFB384903F062FF38B1D6E09D
:10F310002CAB52460021BDF81400FFF772FD0136F8
:10F320003EE6019B23B3A3F102085FFA88F60024AE
:10F3300042F60307B442B0461CDA799B53F82480A6
:10F340004046FEF760FBB0F5205F05D195F86830C8
:10F35000013385F8683009E04046FEF754FBB842B7
:10F3600002BF95F87130013385F871300134E1E75F
:10F37000DDF8048095F8680000EB4000800003F0A1
:10F38000A3F8E86695F87100000103F09DF8DDF838
:10F39000E4916867002609EB88083746B246C14504
:10F3A00079D059F8044B2046FEF72BFB01462CA8D8
:10F3B000FEF7FCFF2CA8FFF729F883462CA8FFF7DF
:10F3C00027F8022816D19BF801209BF8003043EA69
:10F3D0000223ADF85C3001238DF85E3029E000BFD8
:10F3E0005458020084590200895902008E590200C3
:10F3F000935902005B460DF1740E0BF1100C186866
:10F400005968724603C2083363459646F7D19BF8A4
:10F410000D209BF80C3043EA0223ADF85C300DF16F
:10F420005E0100231DA88DF881308DF88030FFF734
:10F4300025F82046FEF7E7FAB0F5205F10D1EA6E16
:10F4400007EB47018B00D01842F82140179A426021
:10F45000EA6E1344013700229A60FFB2A2469EE78B
:10F460002046FEF7D0FA42F60303984297D1696F1F
:10F470003301CA1804B1043CCC50C2F804A0179957
:10F4800091606A6F1A44002111736A6F1344013648
:10F49000D981F6B283E7E86818B1FEF7BAFA002816
:10F4A00065D12B6828469B6998476DB0BDE8F08F01
:10F4B00005AA0AA90120FEF7CFFF02942FE72368CF
:10F4C0002046DB68984712AF14220021ADF81C00DB
:10F4D0001DA803F023F84FF0010A00233B806AF3D4
:10F4E0004203BB7023682046DB689847BDF81C10B8
:10F4F000BB78EA6880B2401A18BF012060F30003AD
:10F50000BB703B782AB16AF30303022262F307134C
:10F5100003E06AF303036AF307133B700AAB1E9719
:10F520001D932368ADF87C10DB68204698470027C0
:10F530000DF11C0AADF8800005AA1DA938462197D7
:10F54000FEF78EFFBAF80030002B3FF4E8AE0DF165
:10F55000B00BBAF800309F42BFF6DAAE23683946E6
:10F560001B69204698470BF807000137F1E71C2379
:10F57000002205F14001E868FEF76DFA91E700BF4F
:10F580002DE9F04F87B004460D46002601274FF0C5
:10F5900014090DF1060894F861309E4252DA09FB15
:10F5A00006F3626E02EB030AD358AB4248D1A36B59
:10F5B0009D4204D1236829465B6A204698472B6800
:10F5C00028461B6998472B68ADF80600DB68BAF837
:10F5D00008B0284698474246034600215846FFF7A0
:10F5E00010FC1022002102A802F098FFBAF808309F
:10F5F000ADF808309AF81030CDF8108073B194F857
:10F60000603053B1013B84F8603002A90123A08F20
:10F610008DF80A30FEF728FF00E01F469AF81130F7
:10F6200073B194F8603053B1013B84F8603002A9A3
:10F630000223A08F8DF80A30FEF716FF00E01F4668
:10F640000136A8E7384607B0BDE8F08F10B504468C
:10F65000FEF7F2FA104B236000214FF6FF7304F11E
:10F66000400084F8331084F83410A163A38784F831
:10F67000601084F86110616684F86810E16684F8AF
:10F68000701084F87110616784F87810E0651C22AE
:10F6900002F044FF204610BD285902002DE9F8432E
:10F6A00080460D46174601EB02090C464C45A4EB7B
:10F6B000050609D0D8F8003014F8011B1B68404635
:10F6C00098470028F2D100E03E463046BDE8F88376
:10F6D0007047203001F086BD38B5437F0D462BB111
:10F6E00000F16804204601F08BFD08B1002038BD10
:10F6F0002046294601F059FD012038BD203001F097
:10F7000063BD203001F074BD2DE9F0411E464FF479
:10F710007A7300258360104B4560044640F8203B17
:10F720001746884601F036FD04F1680001F032FD0D
:10F730000A4B9DF81820C4F8108053F822206276F6
:10F740009DF81C20676153F82230A37626766577F2
:10F750002046BDE8F08100BFA0590200E859020030
:10F76000837E4FF0A04203F5E07330B5012140F2F3
:10F770000C64C17642F82340437E03F5E07342F8FF
:10F78000234003694FF0CC72C3F824250622C3F846
:10F790000025827EC3F80825427EC3F80C25027E30
:10F7A00053B2D2B202F01F055C09A94060340F4D7C
:10F7B000002B45F8241006DA0D4B02F00F0213441B
:10F7C00040221A7606E003F1604303F561434022CC
:10F7D00083F80023037E01215AB203F01F0301FACC
:10F7E00003F35209014941F8223030BD00E100E045
:10F7F000FCEC00E02DE9F84306468946984615469C
:10F80000B2B100F12007384601F0DAFC3469012278
:10F81000C4F888952262C4F83475C4F8385522605B
:10F82000D4F84C313BB9D4F82431002BF8D002E0A5
:10F830001046BDE8F8830023C4F84C31D4F85C319D
:10F840001BB9D4F82431002BF8D00023C4F85C3164
:10F850000122B8F1000F02D1D4F8243143B1626122
:10F86000D4F80431002BFBD00023C4F8043107E0A6
:10F87000E261D4F84831002BFBD00023C4F84831B2
:10F88000D4F8243113B10023C4F82431D4F83C0552
:10F890003066C0B2BDE8F8830123FFF7ABBF10B5F7
:10F8A000044680F8B010683001F08AFC01236377C9
:10F8B00010BD2DE9F041002305694377012790F839
:10F8C000B030C5F8883500F1680604462F6230462E
:10F8D000C5F84465884601F085FC2369C5F84805EC
:10F8E0009F60D3F850211AB9D3F82421002AF8D008
:10F8F0000022C3F85021304601F074FC236930B176
:10F90000D3F860211AB9D3F82421002AF8D00022B4
:10F91000C3F860210122B8F1000F02D1D3F82411FD
:10F9200041B15A61D3F80421002AFBD00022C3F868
:10F93000042107E0DA61D3F84821002AFBD0002235
:10F94000C3F84821D3F8240170B10022C3F8242160
:10F95000D3F8C404C3F8C404022805D0042814BF93
:10F9600004200320BDE8F081BDE8F0810121FFF70C
:10F97000A0BF4369D3F8642170B5044682B1002268
:10F98000012500F12006C3F864210577304601F017
:10F9900017FC63694022C3F83465C3F838251D633A
:10F9A0006369D3F86821D2B10025C3F8685104F126
:10F9B0006806012363772577304601F001FCD4F80F
:10F9C000B43003B19847657765693046C5F844653A
:10F9D00001F008FC6369C5F8480501225A636369B0
:10F9E000D3F804215AB10022C3F80421227F32B196
:10F9F000D3F83C05D4F8B830206603B19847636962
:10FA0000D3F8242142B10022C3F82421D3F8D02412
:10FA1000C3F8D02401225A6170BD00000148FFF7ED
:10FA2000A8BF00BF542C002007B50C230B228DE883
:10FA30000C004FF04022042311460348FFF764FEF8
:10FA400003B05DF804FB00BF542C00203BDF70477F
:10FA50003CDF704712DF704707B50DF10700FFF775
:10FA6000F9FF9DF80730012B02D1FFF7F1FF04E009
:10FA70004FF080430122C3F8002503B05DF804FB7A
:10FA800007B50DF10700FFF7E5FF9DF80730012BE3
:10FA900003D10020FFF7DAFF03E04FF0804301229B
:10FAA0009A6703B05DF804FB07B50DF10700FFF797
:10FAB000D1FF9DF80700012802D1FFF7C7FF03E03F
:10FAC0004FF080430122DA6703B05DF804FB0000C9
:10FAD000022910B504460CD0032913D001291AD1EC
:10FAE0000D490E4801F02EFA2046BDE81040FFF700
:10FAF000B3BF0B49094801F025FA2046BDE8104084
:10FB0000FFF7D2BF0749054801F01CFA2046BDE8BF
:10FB10001040FFF7B5BF10BDB85902001C2D0020E2
:10FB2000C2590200CC590200292242700022827080
:10FB3000C2708280827170470346002280799A7178
:10FB400070470000F8B50C4C0E460546417820463B
:10FB50001746FFF7A4FE310A2046FFF7BDFDF1B2BC
:10FB60002046FFF7B9FD39462046FFF7B5FD204690
:10FB7000FFF7FCFE2870F8BD542C0020F8B50E4CA1
:10FB80000F460546417820461646FFF788FE390A9B
:10FB90002046FFF7A1FDF9B22046FFF79DFD310A8F
:10FBA0002046FFF799FDF1B22046FFF795FD20466C
:10FBB000FFF7DCFE2870F8BD542C002070B5104C07
:10FBC00005460E4641782046FFF769FE310A204679
:10FBD000FFF782FDF1B22046FFF77EFD2046FFF7DA
:10FBE000C5FE6978287001222046FFF755FE2046A1
:10FBF000FFF784FD05462046FFF7B8FEE8B270BD6A
:10FC0000542C0020154B10B5044633F81120817098
:10FC10009621FFF7B3FFA378E278B2FBF3F2204618
:10FC20002421FFF78FFFA37820462121142292FB85
:10FC3000F3F2FFF787FF2D212046FFF7BFFFA278E1
:10FC400020F00100012A14BF024640F00102D2B2A6
:10FC500020462D21BDE81040FFF774BFDE59020099
:10FC60004B1E022B01D8FFF7CDBF704710B52622DF
:10FC700004464FF48571FFF765FF204646223F2179
:10FC8000FFF760FF2046FF223121FFF75BFF204690
:10FC900063224021FFF772FF204601222E21FFF749
:10FCA00051FF204609221B21FFF74CFF204631223D
:10FCB0003E21FFF747FF204624221421FFF742FF91
:10FCC000204631221C21FFF73DFF204640F2A321B0
:10FCD0000022FFF737FF20460121BDE81040FFF763
:10FCE00091BF38B5044600F0D5FE85B24F212046BD
:10FCF000FFF764FF43070DD4A388002BF6D000F074
:10FD0000C9FEA38880B2401B9842EFDD0123A37196
:10FD1000FF2038BD62212046FFF750FF0122054633
:10FD200015212046FFF70EFF284638BD10B50122E9
:10FD300004461821FFF706FF2046BDE81040FFF7F4
:10FD4000D0BF000070B5134C05460E4641782046E2
:10FD5000FFF7A5FD310A2046FFF7BEFCF1B22046B1
:10FD6000FFF7BAFC2046FFF701FE697828700222EF
:10FD70002046FFF791FD2046FFF7C0FC05462046D0
:10FD8000FFF7BCFC40EA052085B22046FFF7EEFDF8
:10FD9000284670BD542C002038B524210446FFF7B6
:10FDA0000DFF1621E0702046FFF708FF01280546E9
:10FDB00040F0A880A070024640F207212046FFF7DD
:10FDC000C1FE2A4620464FF40271FFF7BBFE2046D3
:10FDD00000229621FFF7B6FE2046FD229721FFF76D
:10FDE000B1FE20460022E321FFF7ACFE20460422AC
:10FDF000E421FFF7A7FE20460222E521FFF7A2FE3D
:10FE00002A462046E621FFF79DFE20460322E721F1
:10FE1000FFF798FE20460222F521FFF793FE2046C9
:10FE20000522D921FFF78EFE2046CE22DB21FFF7E7
:10FE300089FE20460322DC21FFF784FE2046F822BB
:10FE4000DD21FFF77FFE204600229F21FFF77AFE8B
:10FE500020463C22A321FFF775FE20460022B72151
:10FE6000FFF770FE20463C22BB21FFF76BFE2046C9
:10FE70000922B221FFF766FE20460922CA21FFF7B8
:10FE800061FE2A4620464FF4CC71FFF75BFE204608
:10FE900017224FF4D871FFF755FE2046002240F29A
:10FEA000AD11FFF74FFE20460522FF21FFF74AFE66
:10FEB000204605224FF48071FFF744FE20460522BC
:10FEC00040F29911FFF73EFE20461B224FF4D371FA
:10FED000FFF738FE20463E224FF4D671FFF732FE80
:10FEE00020461F2240F2A711FFF72CFE20460022D9
:10FEF0003021FFF727FE204600221621BDE83840BA
:10FF0000FFF720BE96212046FFF71CFF542801D1A1
:10FF1000032303E07F280CBF02230123A370E278B0
:10FF2000A37812FB03F3E37038BD0C2070474FF049
:10FF300080535869704742F210707047024AD2F8F5
:10FF40000034002BFBD0704700E001402DE9F04168
:10FF50008F1821F480518F42054620D9114B02227F
:10FF6000D3F80485C3F804251C468F4228460D4E5D
:10FF700006D9FFF7E3FFC4F8081501F58051F4E74F
:10FF8000FFF7DCFF00232846C6F80435FFF7D6FF4D
:10FF9000C6F804852846BDE8F041FFF7CFBFBDE8AD
:10FFA000F08100BF00E001400B68934270B5164637
:10FFB0000FD0084D0123C5F80435FFF7BFFF0E60D1
:10FFC000FFF7BCFF0023C5F80435BDE87040FFF71C
:10FFD000B5BF70BD00E0014040F6F870704740F2D8
:10FFE000FE3070470720704721F47F6121F00F0138
:10FFF0000B68013308D04A68530005D522F08042CF
:020000022000DC
:1000000004310248FFF7D0BF704700BF112D002018
:1000100021F47F6121F00F010B68013308D04A6899
:10002000002A05DA22F0004204310248FFF7BCBF83
:10003000704700BF112D002021F47F6121F00F01D6
:10004000486880F08040C0F38070704770B5074DFD
:1000500028460E46FFF76BFF04462846FFF765FF6C
:1000600004FA00F0A0EB063070BD00BF112D002097
:1000700070B505460E460124A1B22846FFF7E6FFFB
:100080000368B34204D143685A0001D4002B0DDB4E
:100090000134092CF0D10124A1B22846FFF7D6FF84
:1000A00003689E4204D14368002B01DA083070BD1A
:1000B0000134092CF0D14FF0FF3070BD70B5064609
:1000C00001240025A1B23046FFF7C0FF436823F0AA
:1000D0007F4301339D4204F1010438BF1D46092CC2
:1000E000F0D10648FFF727FF024642F210700023C6
:1000F000A5FB000101F0D8FF70BD00BF112D00204D
:1001000070B521F47F6424F00F0494E828000133D3
:10011000164606D1231D04F6FC7253F8041F013164
:1001200006D04FF4805221460C48FFF70FFF01E044
:100130009342F2D1324621460848FFF735FF636803
:1001400001330AD125F07F420132211D42F07F4266
:100150000248BDE87040FFF727BF70BD112D002099
:100160002DE9F8434FF0FF36804689460127344693
:10017000B9B24046FFF76AFF03684B45054609D10F
:100180004368002B06DA20F47F6323F00F035B68DB
:100190005A0021D46A6822F07F430133B3420AD265
:1001A000296841B1013104D0002AA4BF1E462C4663
:1001B00001E01E462C460137092FD9D1631C08D017
:1001C00040464A462146FFF79BFF04F10800BDE880
:1001D000F8832046BDE8F88301464FF0FF324046E1
:1001E000FFF78EFFD6E770B505460124A6B231466B
:1001F0002846FFF72BFF4368002B0BDB31462846D0
:10020000FFF724FF4FF0FF3201462846BDE870405B
:10021000FFF776BF0134092CE8D170BD00F060B85B
:10022000D0B52DED048BB0EE409AF0EE609A294CDB
:100230008AB000F04BF994F90030B0EE408AF0EE4D
:10024000608A01330FD0B0EE490AF0EE690A00F07F
:10025000D3FB40B10026002751EC190B32463B4638
:1002600001F062FE38B9B0EE480AF0EE680A0AB052
:10027000BDEC048BD0BD184B2478019301220023E0
:100280008DED049B8DED029B009208936CB9CDE936
:100290000667684600F0DEFB88B1089BA3B99DEDB8
:1002A000060B0AB0BDEC048BD0BD32463B4630464F
:1002B000394601F0F1FC022CCDE90601E9D102F04A
:1002C000B1F821230360E8E702F0ACF8089B036073
:1002D000E5E700BF95200020685A020000000000FA
:1002E00051EC110B43422DE9F047034321F0004844
:1002F000754F48EAD373BB4255EC104B49D8634263
:10030000234325F0004A4AEAD373BB42A94640D8AA
:1003100001F1404303F5801303438E4650D08E17FE
:1003200006F0020654EA0A0346EAD57639D050EAC6
:1003300008033ED0B84555D0BA453AD0C8EB0A08B4
:100340004FEA2858B8F13C0F40DC002970DB024628
:100350000B462046294601F09FFC41EC100B00F0B3
:1003600043FB00F085F951EC100B012E5AD0022E00
:1003700048D0002E42D03EA3D3E9002301F0AEF9CD
:100380003DA3D3E9002301F0A9F941EC100BBDE82E
:10039000F08722462B4601F0A3F941EC100BBDE893
:1003A000F087022E16D0032E0ED19FED350BBDE83F
:1003B000F087B9F1000F11DB9FED330BBDE8F0873B
:1003C000BDE8F04700F054B9BDE8F0872EA1D1E9AF
:1003D0000001CAE79FED280BBDE8F0879FED2C0BCD
:1003E000BDE8F087C24529D0022EF3D0032EDCD021
:1003F000012E2DD09FED280BBDE8F08741EC100BAE
:10040000BDE8F0871AA3D3E9002301F067F902469B
:100410000B4619A1D1E9000101F060F941EC100B84
:10042000BDE8F08701F1004141EC100BBDE8F08719
:1004300018F13C0F8BDA0020002196E7022E13D032
:10044000032E0DD0012E07D09FED150BBDE8F087D0
:100450009FED150BBDE8F0879FED150BBDE8F0870C
:100460009FED150BBDE8F0879FED150BBDE8F087FC
:10047000075C143326A6A13C182D4454FB210940E7
:10048000182D4454FB2109C0182D4454FB21F93F79
:10049000182D4454FB21F9BF0000000000000000AB
:1004A000182D4454FB21E93F0000000000000080AB
:1004B000182D4454FB21E9BFD221337F7CD902C0DF
:1004C000D221337F7CD902400000F07F2DE9F0413A
:1004D000654955EC104B0E462940B14200F097801B
:1004E000002D2B4610EE102A74DD2F157FD0A7F2B9
:1004F000FF37C3F31303F90743F4801365D403EB09
:10050000D27100260B447F105200B64616204FF4DD
:1005100000110EEB01049C424FEAD2754FEA4202F1
:1005200003DC1B1B04EB010E0E44013805EB4303F7
:100530004FEA5101EDD1844620244FF0004109E0FB
:1005400020D003EBD275013C4FEA51012B444FEA16
:10055000420220D09E4501EB0C05F1DA002D05EB9F
:10056000010C09DBF0469542CEEB030300D9013BB9
:10057000521B0844C646E4E7BCF1000FF2DB0EF163
:100580000108F0E795421ED8002D05EB010C50DB69
:1005900098460023ECE7134304D0421C4DD000F0F2
:1005A0000103184440087110F30701F17F5101F570
:1005B000001148BF40F0004001EB0753024643ECF6
:1005C000102BBDE8F0817346BBE75B0003EBD273F1
:1005D000520094E725F00041214328D0ADBB2F46BF
:1005E000D30A153F5205002BFAD0DD0228D4002192
:1005F00000E001465B00DC0201F10100F9D5C0F129
:10060000200422FA04F423437F1A82406FE710EE9D
:10061000102A2B4610EE100A294601F013FA224642
:100620002B4601F05DF841EC100BBDE8F081BDE810
:10063000F081BCF1000FABDBA1E701362046B2E749
:1006400020244FF0FF310020DBE710EE102A2B466C
:100650002046294601F042F802460B4601F01CFBF9
:1006600041EC100BBDE8F0810000F07F00000000BD
:100670002DE9F84F55EC104BD14B25F000469E422A
:10068000AB4610DDCF4B9E4200F3B28000F0AD8050
:10069000BBF1000F40F3FD80ADA5D5E9004545EC69
:1006A000104BBDE8F88FC84B9E4200F3C080A3F109
:1006B000DE739E4240F3A8804FF0FF3A22462B465D
:1006C0002046294601F0BEF902460B46804689467F
:1006D00001F0B8F9A0A3D3E9002306460F4601F0C4
:1006E000B1F99FA3D3E9002300F0FAFF32463B465D
:1006F00001F0A8F99CA3D3E9002300F0F1FF3246F2
:100700003B4601F09FF99AA3D3E9002300F0E8FFEC
:1007100032463B4601F096F997A3D3E9002300F057
:10072000DFFF32463B4601F08DF995A3D3E9002364
:1007300000F0D6FF42464B4601F084F992A3D3E97C
:100740000023804689463046394601F07BF990A364
:10075000D3E9002300F0C2FF32463B4601F072F9B4
:100760008DA3D3E9002300F0B9FF32463B4601F0E8
:1007700069F98BA3D3E9002300F0B0FF32463B4672
:1007800001F060F988A3D3E9002300F0A7FF324607
:100790003B4601F057F9BAF1FF3F02460B467CD0C9
:1007A0004046494600F09CFF22462B4601F04AF99C
:1007B000864E874B4FEACA0A56449A44DAE9002328
:1007C00000F08CFF22462B4600F088FF02460B46C5
:1007D000D6E9000100F082FFBBF1000F52DB0446B6
:1007E0000D4645EC104BBDE8F88F002C3FF450AFA0
:1007F00022462B462046294600F072FF04460D464D
:1008000045EC104BBDE8F88F69A3D3E9002310EE47
:10081000100A294600F064FF00226E4B01F0A2FB93
:1008200000283FF449AF45EC104BBDE8F88F00F0CD
:10083000DBF8694B9E4255EC104B3FDCA3F550238F
:100840009E4268DC10EE102A10EE100A2B46294654
:1008500000F046FF00225F4B00F040FF00220646FA
:100860000F464FF080432046294600F039FF0246EC
:100870000B463046394601F00FFA4FF0000A0446A5
:100880000D461BE7044601F1004545EC104BBDE861
:10089000F88F49A5D5E90045B2E74046494600F042
:1008A0001FFF22462B4601F0CDF802460B4620469C
:1008B000294600F013FF04460D46A1E7474B9E4230
:1008C0001DDC10EE100A0022454B294600F006FF01
:1008D000002206460F46424B2046294601F0B2F858
:1008E00000223C4B00F0FCFE02460B4630463946E7
:1008F00001F0D2F94FF0020A04460D46DEE62B461F
:1009000010EE102A0020374901F0C6F94FF0030A13
:1009100004460D46D2E610EE100A00222D4B294661
:1009200000F0DCFE002206460F462A4B20462946F0
:1009300000F0D6FE02460B463046394601F0ACF9CF
:100940004FF0010A04460D46B8E600BFAFF3008041
:10095000182D4454FB21F93F11DA22E33AAD903FC0
:10096000EB0D76244B7BA93F513DD0A0660DB13FE6
:100970006E204CC5CD45B73FFF8300922449C23F4E
:100980000D5555555555D53F2F6C6A2C44B4A2BF13
:100990009AFDDE522DDEAD3F6D9A74AFF2B0B33FDB
:1009A000711623FEC671BC3FC4EB98999999C93F53
:1009B0009C7500883CE4377E182D4454FB21F9BF18
:1009C000FFFF0F440000F07FFFFFDB3F905A020063
:1009D000705A02000000F03FFFFFF23FFF7F03402C
:1009E0000000F83F0000F0BF53EC102B23F0004351
:1009F00043EC102B704700BF53EC102B33F0004139
:100A000010B408D01148A3F58014844208D80420FB
:100A10005DF8044B70471AB902205DF8044B70472B
:100A200003F1FF43094803F5E0038342EFD9B1F531
:100A3000801F01D20320EBE7054B994201D0002033
:100A4000E6E7B2FA82F04009E2E700BFFFFFDF7F8E
:100A50000000F07F002070470649074A074B9B1AA9
:100A600003DD043BC858D050FBDC00F079F9FBF7FC
:100A700019FD0000105E020080200020602100208F
:100A8000FEE7FEE7FEE7FEE7FEE7FEE7FEE7FEE73E
:100A9000FEE7FEE7094B1968094B30B5D3F80405AA
:100AA0000A060B0A02434FF47A71A2FB014501FBCF
:100AB0000355E00B40EA454030BD00BF142D002037
:100AC00000100140084B1968084B30B5D3F80405F5
:100AD0000A060B0A06490243A2FB014501FB035526
:100AE000E00B40EA454030BD142D002000100140CD
:100AF00040420F0038B5044648B1FFF7CBFF05462A
:100B000000F01AF8FFF7C6FF401B8442F8D838BD42
:100B1000074B0022C3F8042182B0D3F80431054A00
:100B20000193019B13680133DBB2136002B070477D
:100B300000100140142D0020704700001F2837B519
:100B400000F293804A4B53F82030052B19D007D878
:100B5000032B12D013D8022B40F08780012215E01E
:100B60001D2B10D003D81C2B7FD105220EE01E2B8D
:100B70000BD01F2B79D1082208E0022206E00322C5
:100B800004E0042202E0062200E00722394B196843
:100B9000082908DD0A2909DD0D29B5BF0C240E241A
:100BA0000223032304E00824002301E00A24012394
:100BB0003148C0F8F0350123C0F800350020054663
:100BC000030103F1804303F5E04301300828C3F833
:100BD0001455C3F81055F3D1284B1868284B1B68DF
:100BE00000021B0303F4805300F4E0601843224B1F
:100BF000C3F81805C3F81425C3F810250DF1060233
:100C0000C3F82C260122C3F830261A60D3F800015D
:100C1000194A0028FAD00023C2F80031012353609A
:100C2000D2F80401144B0028FAD00022C3F80421A2
:100C300001229A60D3F81421002AFBD00E4A002327
:100C4000C2F81431BDF906209A420B4AB8BFADF87C
:100C500006308C42C2F80035BDF9060006D08BBFC5
:100C6000611A091BC840884000E0002003B030BD75
:100C7000E85902009C2000200070004098200020CD
:100C8000182D00201F281BD80E4B53F820300329A5
:100C900016D8DFE801F0020E060A03F5E073002122
:100CA0000AE003F5E0730C2106E003F5E07304218C
:100CB00002E003F5E07303214FF0A04242F8231055
:100CC000704700BFE85902001F280CD8064B53F8A4
:100CD000200001234FF0A042834011B9C2F80C3527
:100CE0007047C2F808357047E85902000C4B1B7872
:100CF000062B10D10B4B1B681A070CD10A4B186836
:100D000000F0F003302B08D000F0E000A0F1400329
:100D1000584258417047002070470120704700BF7B
:100D2000E00F00F0E40F00F0E80F00F0094B1B7833
:100D3000062B0CD1084B1B681A0708D1074B186803
:100D400000F0F000A0F130035842584170470020F5
:100D5000704700BFE00F00F0E40F00F0E80F00F074
:100D600008B5FFF7E3FF10B14B4B4C4A1A60FFF791
:100D7000BDFF28B14A4B4B4A1B68C3F34233136093
:100D8000FFF7D4FF20B1484AD36823F08073D360C3
:100D9000FFF7ACFF40B14FF080430022C3F80C21B5
:100DA000C3F81021C3F83825FFF7C0FF10B13F4B3F
:100DB00003221A60FFF7BAFF40B13D4B05221A60CB
:100DC00001229A6700229A603F225A60394B1B78B1
:100DD000062B09D1384B1B681B0705D1374B1B6805
:100DE00003F0F003502B0ED0354AD2F8883043F48C
:100DF0007003C2F88830BFF34F8FBFF36F8F314B52
:100E0000314A1A6008BD4FF08052304BD2F80414BA
:100E1000C3F82015D2F80814C3F82415D2F80C141E
:100E2000C3F82815D2F81014C3F82C15D2F81414EE
:100E3000C3F83015D2F81814C3F83415D2F81C14BE
:100E4000C3F84015D2F82014C3F84415D2F824147E
:100E5000C3F84815D2F82814C3F84C15D2F82C144E
:100E6000C3F85015D2F83014C3F85415D2F834141E
:100E7000C3F86015D2F83814C3F86415D2F83C14DE
:100E8000C3F86815D2F84014C3F86C15D2F844249E
:100E9000C3F87025A8E700BF74C007400DF0ADBAD5
:100EA000440200103C050040F0ED00E0A0050040C9
:100EB00010560040E00F00F0E40F00F0E80F00F0E3
:100EC00000ED00E0A02000200090D00300C0004012
:100ED0002DE9F04106460D4601EB02080C4644455B
:100EE000A4EB050707D0336814F8011B1B683046D4
:100EF00098470028F3D13846BDE8F08170B5054623
:100F00000C46084649B102F075F92B6802462146A5
:100F100028465B68BDE87040184770BD08B5FFF70C
:100F2000EDFF08BD08B5FFF7E9FF08BD03681B68C2
:100F30001847000008B50249FFF7E0FF08BD00BFF1
:100F40000256020038B50546FFF7D8FF044628468A
:100F5000FFF7F0FF204438BDF0B58BB000238DF8CB
:100F60002430012A98BF0A220DF12305B1FBF2F4C7
:100F700002FB1416F3B2092E94BF30333733DBB2C1
:100F80002F46214605F80139002CEFD13946FFF7ED
:100F9000B5FF0BB0F0BD10B42AB903685DF8044B7F
:100FA0001B68C9B21847D2B25DF8044BFFF7D4BF33
:100FB000FFF7F1BFFFF7EFBF38B50546FFF7EBFFCF
:100FC00004462846FFF7B6FF204438BD38B505462D
:100FD000FFF7E1FF04462846FFF7ACFF204438BD89
:100FE0002DE9F04107460E4615462AB90368C9B2F5
:100FF0001B68BDE8F04118470A2A02D1002901DA2E
:1010000004E0D2B2BDE8F041FFF7A6BF2D21FFF703
:101010008DFF2A46044671423846FFF79DFF204463
:10102000BDE8F081FFF7DCBF38B50546FFF7D8FF14
:1010300004462846FFF77EFF204438BD2DE9F843DB
:10104000804657EC106B0D46FFF7D6FC08B94249B5
:1010500010E047EC106BFFF7CFFC012801D13F49AE
:1010600008E04FF060423E4B3046394600F07AFFD0
:1010700028B13C494046FFF741FFBDE8F8834FF0F7
:101080006042394B3046394600F04EFF0028F0D11F
:10109000002200233046394600F046FF40B12D21A2
:1010A0004046FFF743FF07F1004304461F4600E0B8
:1010B00004462E494FF0000900205FFA89F39D4253
:1010C00006D900222A4B00F0E7FD09F10109F4E7F7
:1010D00032463B4600F004FB0F46064600F074FF24
:1010E0000A22014681464046FFF736FF04447DB39D
:1010F000484600F031FC02460B463046394600F0C7
:10110000EDFA06460F4640461A49FFF7F7FE04443B
:10111000174B00223046394600F094FC0F46064635
:1011200000F02AFF0A22014681464046FFF758FF99
:101130000444484600F020FC02460B46304639463F
:1011400000F0CCFA013D15F0FF0506460F46DFD151
:101150002046BDE8F88300BFB05A0200B45A02002E
:10116000FFFFEF41B85A0200FFFFEFC10000E03F70
:101170000000244034540200C9B2FFF75FBF38B505
:10118000C9B20546FFF75AFF04462846FFF7D2FECC
:10119000204438BD10B540220446002101F0BEF9BC
:1011A000002323646364204610BD026C10B5531CF9
:1011B000446C03F03F039C421CBF8154036410BD88
:1011C0000023036443647047436C026C93421FBF67
:1011D000C25C013303F03F03436414BF10464FF079
:1011E000FF307047036C406C181A48BF403070479E
:1011F000436C026C934214BFC05C4FF0FF307047E9
:10120000036C406C013303F03F031B1A58425841F2
:1012100070470120704703681322DB691847704745
:101220000369C3F81C15D3F81C21002AFBD0002247
:10123000C3F81C210120704790F85C305AB2520963
:1012400010B4012120320F4C03F01F0301FA03F305
:1012500044F8223003695DF8044B0422C3F80823E4
:1012600000225960D960C3F800254FF0FF32C3F85F
:101270000C251430C3F81425C3F80825C3F810252D
:10128000FFF79EBF00E100E01430FFF7ABBF143062
:10129000FFF7AEBF1430FFF797BF0000026990F868
:1012A0005E3030B5C2F80C3590F85D30C2F81435B8
:1012B00090F86130012B01BF90F85F40C2F81045F3
:1012C00090F86040C2F8084518BF0023B1F5966F4A
:1012D000C2F86C352ED9B1F5166F2ED9B1F5965FDF
:1012E0002ED9B1F5165F2DD9B1F5615F2CD9B1F5C5
:1012F000964F2BD9B1F5E14F2AD9B1F5164F29D91F
:10130000B1F5614F29D9B1F5963F29D9B1F5E13F42
:1013100028D9B1F5613F28D9344B994228D9B1F584
:10132000E12F28D9B1F5612F8CBF4FF080534FF0DA
:10133000706322E04FF49E231FE04FF41D231CE056
:101340002B4B1AE02B4B18E02B4B16E02B4B14E0E9
:101350002B4B12E04FF41D030FE04FF46B030CE036
:10136000284B0AE04FF0EB7307E04FF06C7304E09A
:101370004FF0806301E04FF0E863C2F824350021AC
:101380000423C2F80035C2F80811C2F81C1101216B
:1013900011609160C2F8043390F85C2053B2D2B26D
:1013A00002F01F055C09A9406034174D002B45F879
:1013B000241006DA154B02F00F02134460221A764D
:1013C00006E003F1604303F56143602283F80023E4
:1013D00090F85C3001215AB203F01F0301FA03F3C5
:1013E0005209094941F8223030BD00BF90D00300B6
:1013F00000B013000050270000F03A0000A04E009B
:1014000000C0750000903A0100E100E0FCEC00E053
:101410002DE9F0411E464FF47A73002583600E4B90
:101420004560044640F8143B17468846FFF7B2FE75
:101430000A4AC4F8108052F8263084F85D309DF8CE
:10144000183084F85C7052F8233084F85E3084F8E9
:1014500061502046BDE8F081C45A0200E8590200FC
:101460000369D3F8082110B504464AB1D3F818151A
:101470001430C9B2FFF799FE23690022C3F808218E
:1014800010BD00000148FFF7EBBF00BF1C2D00207E
:1014900007B50D23009302220E2303490348FFF7EB
:1014A000B7FF03B05DF804FB002000401C2D0020B6
:1014B00010B50446006801F00FF8204610BD10B5C5
:1014C0000446006808B101F007F800232360A36018
:1014D000636010BD38B504460D460068013101F067
:1014E0005FFE10B184E82100012038BD036810B50B
:1014F000044613B143688B4207D22046FFF7EAFF48
:1015000020B1A3680BB922681370012010BD70B51B
:101510000E46114604461546FFF7E8FF18B9204667
:10152000FFF7CDFF04E0A5603146206801F05AFEC8
:10153000204670BD38B500230446036043608360D5
:101540000D4639B1084601F055FE294602462046AF
:10155000FFF7DDFF204638BD38B5054600680C466C
:1015600060B16A688B689A4206D3096801F03AFE56
:10157000A368AB6000230AE000F0AEFF23682B6095
:1015800063686B60A368AB60002323606360A36043
:1015900038BD884210B5044601D0FFF7DDFF204674
:1015A00010BD38B505460C4641B1084601F022FE93
:1015B000214602462846FFF7AAFF01E0FFF77FFF1A
:1015C000284638BD1FB50446002323606360A3602E
:1015D000084601A901F07EFF01A92046FFF7E1FFBF
:1015E000204604B010BD70B504460E4609B900206F
:1015F00070BD6AB18368D5182946FFF777FF0028C8
:10160000F5D02068A3683146184401F0EBFDA560D1
:10161000012070BD8A680968FFF7E5BF38B5054647
:101620000C46084641B101F0E5FD21460246284638
:10163000BDE83840FFF7D7BF38BD70B50E469AB148
:1016400091B185689D4202D800230B7070BD541E75
:10165000ED1A0168AC4228BF2C4619442246304698
:1016600001F0D0FD0023335570BD704708B500F080
:1016700013F8FFF7FAFF0120FFF73CFAFBF740FCF5
:10168000034CFBF7C7FF002CFBD0AFF30080F8E75B
:101690000000000000F020BF0D4BE02283F8112372
:1016A0004FF40032C3F880211A604FF080430122CA
:1016B000C3F818259A6003F588330021C3F808158C
:1016C0000221C3F80413C3F844131A60704700BF23
:1016D00000E100E081F0004102E000BF83F0004340
:1016E00030B54FEA41044FEA430594EA050F08BFBD
:1016F00090EA020F1FBF54EA000C55EA020C7FEA81
:10170000645C7FEA655C00F0E2804FEA5454D4EBFD
:101710005555B8BF6D420CDD2C4480EA020281EAC7
:10172000030382EA000083EA010180EA020281EAFF
:101730000303362D88BF30BD11F0004F4FEA013151
:101740004FF4801C4CEA113102D0404261EB410160
:1017500013F0004F4FEA03334CEA133302D05242E6
:1017600063EB430394EA050F00F0A780A4F10104A2
:10177000D5F1200E0DDB02FA0EFC22FA05F28018DC
:1017800041F1000103FA0EF2801843FA05F35941C2
:101790000EE0A5F120050EF1200E012A03FA0EFC41
:1017A00028BF4CF0020C43FA05F3C01851EBE3716B
:1017B00001F0004507D54FF0000EDCF1000C7EEB88
:1017C00000006EEB0101B1F5801F1BD3B1F5001FC6
:1017D0000CD349085FEA30004FEA3C0C04F10104E5
:1017E0004FEA445212F5800F80F09A80BCF1004F0E
:1017F00008BF5FEA500C50F1000041EB045141EA90
:10180000050130BD5FEA4C0C404141EB010111F490
:10181000801FA4F10104E9D191F0000F04BF01463B
:101820000020B1FA81F308BF2033A3F10B03B3F119
:1018300020020CDA0C3208DD02F1140CC2F10C02A9
:1018400001FA0CF021FA02F10CE002F11402D8BF07
:10185000C2F1200C01FA02F120FA0CFCDCBF41EAD3
:101860000C019040E41AA2BF01EB0451294330BDA2
:101870006FEA04041F3C1CDA0C340EDC04F114047F
:10188000C4F1200220FA04F001FA02F340EA030056
:1018900021FA04F345EA030130BDC4F10C04C4F19C
:1018A000200220FA02F001FA04F340EA030029467C
:1018B00030BD21FA04F0294630BD94F0000F83F4C6
:1018C000801306BF81F480110134013D4EE77FEAA9
:1018D000645C18BF7FEA655C29D094EA050F08BFF5
:1018E00090EA020F05D054EA000C04BF19461046D6
:1018F00030BD91EA030F1EBF0021002030BD5FEA1A
:10190000545C05D14000494128BF41F0004130BD41
:1019100014F580043CBF01F5801130BD01F0004595
:1019200045F0FE4141F470014FF0000030BD7FEA08
:10193000645C1ABF194610467FEA655C1CBF0B4603
:10194000024650EA013406BF52EA033591EA030F1A
:1019500041F4002130BD00BF90F0000F04BF002112
:10196000704730B54FF4806404F132044FF0000545
:101970004FF0000150E700BF90F0000F04BF0021BE
:10198000704730B54FF4806404F1320410F0004524
:1019900048BF40424FF000013EE700BF42004FEA1F
:1019A000E2014FEA31014FEA02701FBF12F07F439C
:1019B00093F07F4F81F06051704792F0000F14BF99
:1019C00093F07F4F704730B54FF4607401F00045DD
:1019D00021F0004120E700BF50EA010208BF704734
:1019E00030B54FF000050AE050EA010208BF704729
:1019F00030B511F0004502D5404261EB41014FF492
:101A0000806404F132045FEA915C3FF4DCAE4FF095
:101A100003025FEADC0C18BF03325FEADC0C18BF7C
:101A2000033202EBDC02C2F1200300FA03FC20FACD
:101A300002F001FA03FE40EA0E0021FA02F114441A
:101A4000C1E600BF70B54FF0FF0C4CF4E06C1CEA2F
:101A500011541DBF1CEA135594EA0C0F95EA0C0FA4
:101A600000F0DEF82C4481EA030621EA4C5123EA17
:101A70004C5350EA013518BF52EA033541F4801146
:101A800043F4801338D0A0FB02CE4FF00005E1FBF9
:101A900002E506F00042E0FB03E54FF00006E1FB43
:101AA00003569CF0000F18BF4EF0010EA4F1FF0486
:101AB000B6F5007F64F5407404D25FEA4E0E6D41C6
:101AC00046EB060642EAC62141EA55514FEAC520D7
:101AD00040EA5E504FEACE2EB4F1FD0C88BFBCF553
:101AE000E06F1ED8BEF1004F08BF5FEA500E50F104
:101AF000000041EB045170BD06F0004646EA0101CA
:101B000040EA020081EA0301B4EB5C04C2BFD4EBFB
:101B10000C0541EA045170BD41F480114FF0000EF4
:101B2000013C00F3AB8014F1360FDEBF002001F062
:101B3000004170BDC4F10004203C35DA0C341BDCDC
:101B400004F11404C4F1200500FA05F320FA04F0AE
:101B500001FA05F240EA020001F0004221F00041E2
:101B600010EBD37021FA04F642EB06015EEA430E55
:101B700008BF20EAD37070BDC4F10C04C4F1200585
:101B800000FA04F320FA05F001FA04F240EA020038
:101B900001F0004110EBD37041F100015EEA430E09
:101BA00008BF20EAD37070BDC4F1200500FA05F229
:101BB0004EEA020E20FA04F301FA05F243EA0203A8
:101BC00021FA04F001F0004121FA04F220EA0200B7
:101BD00000EBD3705EEA430E08BF20EAD37070BDFD
:101BE00094F0000F0FD101F00046400041EB0101DD
:101BF00011F4801F08BF013CF7D041EA060195F0BF
:101C0000000F18BF704703F00046520043EB030378
:101C100013F4801F08BF013DF7D043EA0603704765
:101C200094EA0C0F0CEA135518BF95EA0C0F0CD070
:101C300050EA410618BF52EA4306D1D181EA0301B6
:101C400001F000414FF0000070BD50EA410606BFB0
:101C50001046194652EA430619D094EA0C0F02D1F5
:101C600050EA013613D195EA0C0F05D152EA03363A
:101C70001CBF104619460AD181EA030101F0004158
:101C800041F0FE4141F470014FF0000070BD41F0A1
:101C9000FE4141F4780170BD70B54FF0FF0C4CF47B
:101CA000E06C1CEA11541DBF1CEA135594EA0C0F9A
:101CB00095EA0C0F00F0A7F8A4EB050481EA030EE7
:101CC00052EA03354FEA013100F088804FEA0333CE
:101CD0004FF0805545EA131343EA12634FEA02229C
:101CE00045EA111545EA10654FEA00260EF000415D
:101CF0009D4208BF964244F1FD0404F5407402D2AF
:101D00005B084FEA3202B61A65EB03055B084FEA3F
:101D100032024FF480104FF4002CB6EB020E75EB3C
:101D2000030E22BFB61A754640EA0C005B084FEA64
:101D30003202B6EB020E75EB030E22BFB61A7546E1
:101D400040EA5C005B084FEA3202B6EB020E75EB2C
:101D5000030E22BFB61A754640EA9C005B084FEAA4
:101D60003202B6EB020E75EB030E22BFB61A7546B1
:101D700040EADC0055EA060E18D04FEA051545EAA0
:101D800016754FEA06164FEAC30343EA52734FEA49
:101D9000C2025FEA1C1CC0D111F4801F0BD141EAC2
:101DA00000014FF000004FF0004CB6E711F4801F27
