:020000021000EC
:10C0000000000120A1650200C9650200CB650200A5
:10C01000CD650200CF650200D1650200000000007E
:10C02000000000000000000000000000D3650200D6
:10C03000D565020000000000D7650200D965020046
:10C04000DB650200DB650200996E0200DB65020021
:10C05000D9530200DB650200DB650200DB650200EC
:10C06000DB650200DB650200DB650200DB650200C8
:10C07000DB650200DB650200DB650200DB650200B8
:10C08000DB65020059660200DB650200DB65020029
:10C09000DB650200DB650200DB650200DB65020098
:10C0A000DB650200DB650200DB650200DB65020088
:10C0B000DB650200DB6502000000000000000000FC
:10C0C000DB650200DB650200DB650200DB65020068
:10C0D000DB650200DB650200DB650200000000009A
:10C0E0000000000000000000000000000000000050
:10C0F0000000000000000000000000000000000040
:10C10000000000000000000000000000000000002F
:10C11000000000000000000000000000000000001F
:10C40000044B05481B1A062B02D9044B03B11847ED
:10C41000704700BF5F2100205C2100200000000069
:10C4200005490648091A891001EBD171491002D05B
:10C43000034B03B1184770475C2100205C210020AA
:10C440000000000010B5064C237843B9FFF7D8FF71
:10C45000044B13B10448AFF300800123237010BDD7
:10C46000602100200000000094B1020008B5084BD4
:10C470001BB108490848AFF300800848036813B9A6
:10C48000BDE80840CCE7064B002BF9D09847F7E70A
:10C49000000000006421002094B102005821002017
:10C4A00000000000154B002B08BF134B9D46A3F561
:10C4B000803A00218B460F461348144A121A0BF09B
:10C4C000D7FB0F4B002B00D098470E4B002B00D012
:10C4D00098470020002104000D000D48002802D0DC
:10C4E0000C48AFF300800BF059FB200029000AF044
:10C4F000D9FD0BF02DFB00BF00000800000001205B
:10C50000000000000000000060210020442D0020F9
:10C5100000000000000000000B4B002210B51A6064
:10C520000A4B1B78044653B109490A480AF008FA35
:10C53000204606F05DFF014606480AF023FA052072
:10C54000BDE810400AF07AB8EC2300208C200020CF
:10C5500054A70200D02C00200B4B002210B51A600B
:10C560000A4B1B78044653B109490A480AF0E8F916
:10C57000204606F03DFF014606480AF003FA052072
:10C58000BDE810400AF05AB8EC2300208C200020AF
:10C590006FA70200D02C0020F0B5284B1B7887B085
:10C5A0000C461BB1264927480AF0CAF923682046E1
:10C5B000DB689847236806461B692046984722494E
:10C5C000074668460AF0C0FC3546AB1BDBB29F420B
:10C5D0004FF010020CD915F8011B03A80AF00EFD4C
:10C5E00003A968460AF032FD03A80AF06BFCECE7E9
:10C5F00000210098154D0CF049FA154B2860186081
:10C60000144910480AF0A5F90A2229680D480AF0D1
:10C6100015FA23682046DB689847236805461B699E
:10C62000204698470146284607F084FB05200AF07B
:10C6300005F868460AF046FC07B0F0BD8C200020E3
:10C640008DA70200D02C0020C4A902009020002059
:10C6500044220020BAA7020010B5034B0360044631
:10C6600006F00AFF204610BD60AB020010B504467C
:10C67000FFF7F2FF20460AF029FD204610BD00001A
:10C6800010B5034B03600446FFF7E6FF204610BDDC
:10C690002CA7020010B50446FFF7F2FF20460AF06F
:10C6A00015FD204610BD00009FEDF87ADFEDF87A09
:10C6B000E0EE077A2DE9F04F9FEDF67AE0EE877A0B
:10C6C0009FEDF57AE1EE077A9FEDF47AE1EE877A55
:10C6D0009FEDF37AE2EE077A9FEDF27A77EE877AB2
:10C6E0009FEDF17A77EEC77A9FEDF07A77EE877A51
:10C6F0009FEDEF7A77EE877A9FEDEE7A2DED108B36
:10C7000077EEC77A87B0F1EE677A17EE900AB0EE4F
:10C71000419AF0EE618AB0EE428AB0EE40AAF0EEA5
:10C72000609A0AF057FE41EC100B09F0FDF8002268
:10C7300051EC100BE04B0AF0EFFC02460B460020D8
:10C74000DD490AF0C5FF0BF07BF99FEDDC7ADFEDE8
:10C75000DC7AEAEE077A9FEDDB7AE9EE877A9FEDE5
:10C76000DA7AE9EE077A9FEDD97AE8EE877A9FEDDB
:10C77000D87AE8EE077A9FEDD77A77EEC77A9FED01
:10C78000D67A77EEC77A9FEDD57A77EE877A9FEDE6
:10C79000D47A77EEC77A9FEDD37A77EE877A0CEE6C
:10C7A000900AF1EE677A17EE900A0AF013FE41EC58
:10C7B000100B09F0B9F8002251EC100BBE4B0AF037
:10C7C000ABFC02460B460020BB490AF081FF0BF090
:10C7D00037F99FEDC57ADFEDC57AEAEE077A9FED6E
:10C7E000C47AE9EE877A9FEDC37AE9EE077A9FED86
:10C7F000C27AE8EE877A9FEDC17AE8EE077A9FED7C
:10C80000C07A77EE877A9FEDBF7A77EE877A9FEDD1
:10C81000BE7A77EEC77A9FEDBD7A77EEC77A9FED45
:10C82000BC7A77EE877A0CEE100AF1EE677A17EE93
:10C83000900A0AF0CFFD41EC100B09F075F80022C8
:10C8400051EC100B9C4B0AF067FC02460B46002093
:10C8500099490AF03DFF0BF0F3F89FEDAE7ADFED5A
:10C86000AE7AEAEE077A9FEDAD7AE9EE877A9FED30
:10C87000AC7AE9EE077A9FEDAB7AE8EE877A9FED26
:10C88000AA7AE8EE077A9FEDA97A77EE877A9FED8C
:10C89000A87A77EE877A9FEDA77A77EEC77A9FED31
:10C8A000A67A77EEC77A9FEDA57A77EEC77A0DEE76
:10C8B000900AF1EE677A17EE900A0AF08BFD41ECD0
:10C8C000100B09F031F8002251EC100B7A4B0AF0F2
:10C8D00023FC02460B46002077490AF0F9FE0BF0D4
:10C8E000AFF89FED977ADFED977AEAEE077A9FED42
:10C8F000967AE9EE877A9FED957AE9EE077A9FEDD1
:10C90000947AE8EE877A9FED937AE8EE077A9FEDC6
:10C91000927A77EE877A9FED917A77EE877A9FED1C
:10C92000907A77EE877A9FED8F7A77EE877A9FED10
:10C930008E7A77EEC77A0DEE100AF1EE677A17EE6F
:10C94000900A0AF047FD41EC100B08F0EDFF0022C1
:10C9500051EC100B584B0AF0DFFB02460B4600204F
:10C9600055490AF0B5FE0BF06BF89FED807ADFEDCC
:10C97000807AEAEE077A9FED7F7AE9EE877A9FED7B
:10C980007E7AE9EE077A9FED7D7AE8EE877A9FED71
:10C990007C7AE8EE077A9FED7B7A77EE877A9FEDD7
:10C9A0007A7A77EE877A9FED797A77EE877A9FEDBC
:10C9B000787A77EE877A9FED777A77EE877A0AEE44
:10C9C000900AF1EE677A17EE900A0AF003FD41EC47
:10C9D000100B08F0A9FF9FED707ADFED707AB0EED2
:10C9E00040BAF0EE60BAEAEE077A9FED6D7AE9EEB2
:10C9F000877A9FED6C7AE9EE077A9FED6B7AE8EE25
:10CA0000877A9FED6A7AE8EE077A9FED697A77EE8A
:10CA1000877A9FED687A77EE877A9FED677A77EE6F
:10CA2000877A9FED667A77EE877A9FED657A77EE63
:10CA3000877AF1EE677A17EE900A0AF0CBFC41ECA8
:10CA4000100B08F071FF9FED5F7ADFED5F7AEAEE81
:10CA5000077A9FED5E7AE9EE877A9FED5D7AE9EEDF
:10CA6000077A9FED5C7AE8EE877A9FED5B7AE8EED5
:10CA7000077A9FED5A7A77EE877A9FED597A77EEAB
:10CA8000877A9FED587A77EE877ADDE083582C3DE0
:10CA9000D4E1803F4A41CE3D3BD0E33D10CBB33D96
:10CAA000F67EDCBB52AF783D133BE43B8475613CC2
:10CAB000AE185C3DFE72E63C0000F03F00F50E3D16
:10CAC000C529813F1815393CC08E5BBDE8695B3DC7
:10CAD0005085E23C8302343DD27B023D1D484B3BF6
:10CAE000CA2B9F3B72CB0E3E909F02BBC0A2803FE1
:10CAF000F66FC43C1F87023D69037ABD30A17ABC42
:10CB00000BEE333DF6B9FB3DDB6B373D2C3F5F3C15
:10CB1000B7A0053E8FAE123CE5A8803F61BC043E45
:10CB20003C81D2BC9959C73DE5BBDC3D044D9A3DE3
:10CB3000996CF33CABAA713DAA25D33C1428853DE2
:10CB4000E61480BBFE7E813FF3F54CBD9F16773D1A
:10CB500075800BBD88F7C03CF927013DEDCA883DC3
:10CB6000A30FAF3D98F8003D35783B3D3E80433EF6
:10CB7000B601853FD92C8D3E6B71383E15BF053E01
:10CB80000584533E173DF93D04E6503ED886093EE4
:10CB9000D1603B3E1C840B3E12A37C3E4475833F18
:10CBA000D7CE603E52C95F3E9B2B203E0F8A2F3E60
:10CBB0006CD4003E61135B3E9ED8363E8180563E6B
:10CBC000A5431A3E0F96AF3D01E7833F514FFA3D13
:10CBD0009927133E15AE773E1C84463E448B693E32
:10CBE0001254BE3DBFDA8E3E48148A3E6BBA393EBF
:10CBF000FF302F3E2F9B843FB1D4C33D74BC8B3E8E
:10CC00009AFC173E4AC2EE3D5D5A8D3ED761973E73
:10CC10009098F43DAFD3273ED428FA3DC4B6373EB2
:10CC2000117E843F3129333EC93BE03D9E24183EAE
:10CC30002287863DCC8A863E12F4E73DF0F6523ECE
:10CC4000F87C873E0E065F3E1FED197A77EE877AF5
:10CC50001FED1A7A77EE877A5BEC10ABF1EE677A0C
:10CC600017EE900A0AF0B6FB41EC100B08F05CFEE0
:10CC70001FED217A5FED217AEAEE077A1FED227A25
:10CC8000E9EE877A1FED237AE9EE077A1FED247A21
:10CC9000E8EE877A1FED257AE8EE077A1FED267A0F
:10CCA00077EE877A1FED277A77EE877A1FED287A5D
:10CCB00077EE877A1FED297A77EE877A1FED2A7A49
:10CCC00077EE877A59EC108BF1EE677A17EE900ABF
:10CCD0000AF080FB41EC100B08F026FE1FED317AC4
:10CCE0005FED317AEAEE077A1FED327AE9EE877A64
:10CCF0001FED337AE9EE077A1FED347AE8EE877A92
:10CD00001FED357AE8EE077A1FED367A77EE877AEF
:10CD10001FED377A77EE877A1FED387A77EE877ACC
:10CD20001FED397A77EE877A1FED3A7A77EE877AB8
:10CD300057EC106BF1EE677A17EE900A0AF04AFB97
:10CD400041EC100B08F0F0FD51EC1B0B0022F44BF2
:10CD500055EC104B0AF0E0F902460B460020F04972
:10CD60000AF0B6FC0AF06CFE9FEDEE7ADFEDEE7A8B
:10CD700006EE900AE6EE877A9FEDEC7A2AEE077AC5
:10CD8000ECEE877A9FEDEA7A29EE877AECEE877AE5
:10CD90009FEDE87A29EE077AECEE877A9FEDE67A46
:10CDA00028EE877AECEE877A9FEDE47A28EE077A10
:10CDB000ECEE877AF1EE677A17EE900A0AF00AFB3A
:10CDC00041EC100B08F0B0FD002251EC100BD44BDD
:10CDD0000AF0A2F902460B460020D1490AF078FC7D
:10CDE0000AF02EFE00220CEE900ACD4B504659461A
:10CDF0000AF092F902460B460020C9490AF068FC85
:10CE00000AF01EFE9FEDCE7ADFEDCE7A06EE900A96
:10CE1000E6EE877A9FEDCC7A2AEE077AECEE077A77
:10CE20009FEDCA7A29EE877AECEE077A9FEDC87AF1
:10CE300029EE077AECEE077A9FEDC67A28EE877A1C
:10CE4000ECEE077A9FEDC47A28EE077AECEE077ACB
:10CE5000F1EE677A17EE900A0AF0BCFA41EC100B7B
:10CE600008F062FD002251EC100BAD4B0AF054F9B2
:10CE700002460B460020AA490AF02AFC0AF0E0FD0F
:10CE800000220CEE100AA64B404649460AF044F92F
:10CE900002460B460020A2490AF01AFC0AF0D0FD17
:10CEA0009FEDAE7ADFEDAE7A06EE900AE6EE877A77
:10CEB0009FEDAC7A2AEE077AEDEE877A9FEDAA7A9B
:10CEC00029EE877AEDEE877A9FEDA87A29EE077A28
:10CED000EDEE877A9FEDA67A28EE877AEDEE877AD7
:10CEE0009FEDA47A28EE077AEDEE877AF1EE677A65
:10CEF00017EE900A0AF06EFA41EC100B08F014FDE0
:10CF0000002251EC100B864B0AF006F902460B4644
:10CF1000002083490AF0DCFB0AF092FD00220BEEB0
:10CF2000900A7F4B304639460AF0F6F802460B4627
:10CF300000207B490AF0CCFB0AF082FD9FED8E7A3F
:10CF4000DFED8E7A06EE900AE6EE877A9FED8C7A18
:10CF50002AEE077AEDEE077A9FED8A7A29EE877A34
:10CF6000EDEE077A9FED887A29EE077AEDEE077AE3
:10CF70009FED867A28EE877AEDEE077A9FED847A28
:10CF800028EE077AEDEE077AF1EE677A17EE900A4F
:10CF90000AF020FA41EC100B08F0C6FC002251EC1C
:10CFA000100B5F4B0AF0B8F802460B4600205C49B4
:10CFB0000AF08EFB0AF044FD00220BEE100A584BDB
:10CFC000204629460AF0A8F802460B46002054499C
:10CFD0000AF07EFB0AF034FD9FED6E7ADFED6E7A8B
:10CFE00006EE900AE6EE877A9FED6C7A2AEE077AD3
:10CFF000EAEE877A9FED6A7A29EE877AEAEE877AF7
:10D000009FED687A29EE077AEAEE877A9FED667AD5
:10D0100028EE877AEAEE877A9FED647A28EE077A1F
:10D02000EAEE877AF1EE677A17EE900A0AF0D2F903
:10D0300041EC100B08F078FC002251EC100B384B3F
:10D040000AF06AF802460B46002035490AF040FB18
:10D050000AF0F6FC9FED567ADFED567AEAEE077A93
:10D060009FED557AE9EE877A9FED547AE9EE077ADB
:10D070009FED537AE8EE877A9FED527AE8EE077AD1
:10D080009FED517AECEE877A9FED507AECEE077ABD
:10D090009FED4F7AEBEE877A9FED4E7AEBEE077AB3
:10D0A0000AEE900A9FED4C7AEAEE877AF1EE677A03
:10D0B00017EE900A0AF08EF941EC100B08F034FCE0
:10D0C0009FED467ADFED467AEAEE077A9FED457AE4
:10D0D000E9EE877A9FED447AE9EE077A9FED437A8D
:10D0E000E8EE877A9FED427AE8EE077A9FED417A83
:10D0F000ECEE877A9FED407AECEE077A9FED3F7A6F
:10D10000EBEE877A9FED3E7AEBEE077A9FED3D7A64
:10D11000EAEE877A8DED000BF1EE677AD0E000BF82
:10D120000000F03F22284041A55ECC3D0F1D863E09
:10D13000B1D39F3E95327E3E602C9B3E39A0623E2D
:10D14000441F44414F244F3C761C993E73DCAF3E54
:10D15000E4DE943E6F128D3E9F3D2C3E1972464197
:10D16000569A1F3E502A803EDC175D3E1D72593E86
:10D170004DD6A53E1A49243E07144241B3BE2B3E6C
:10D180000834843E65B54F3EC751463EEE2C9D3E69
:10D19000BF67783E27815641DB77FC3D6583B33E10
:10D1A00059389A3EA871AC3EA5444E3E05F0AE3DBE
:10D1B000D53D42C288DB28429A0C8AC13B8DB6C05D
:10D1C0002F50A7BE3BBF9EC1275CFD40B4960141D6
:10D1D0008FFB00411E7E0041E56EFE406EE0AEC159
:10D1E00028569E414D4079C13BF39240F52F22C114
:10D1F000C5A5A8C029CD7640F0D8764045647440D6
:10D200005DE27540E3FF7740D719F0C1B7F33242D2
:10D2100031E103C27BA89F3F1C07F6C113BC5E41EE
:10D22000444FAF4028BCAB408A3CAA407E8BAD4007
:10D23000F2FBA940B35AF4C137D50E429D69B0C183
:10D24000E0FA9740CF2C71C12A93FFC018858E4019
:10D25000B68B8F4070508F40420D94403E9E92405E
:10D260009DDFACC12D969B41D54177C1D4FF914044
:10D27000E8AE1DC1B6D5A3C0C36E75402E5A6D4031
:10D2800095876D40F42373404C397840C17E653CEE
:10D29000AB7F803F7AFCC23DA1B953BDB50E7ABDCC
:10D2A00056AC863CDF4DE23C42F9813D7C75C7BB04
:10D2B0003BC0A53DB89F27BD3531A53D65FECA3DA4
:10D2C00017EE900A0AF086F841EC100B08F02CFBE0
:10D2D0001FED337A5FED337AEAEE077A1FED347A89
:10D2E000E9EE877A1FED357AE9EE077A1FED367A97
:10D2F000E8EE877A1FED377AE8EE077A1FED387A85
:10D30000ECEE877A1FED397AECEE077A1FED3A7A68
:10D31000EBEE877A1FED3B7AEBEE077A1FED3C7A56
:10D32000EAEE877A8DED020BF1EE677A17EE900A3E
:10D330000AF050F841EC100B08F0F6FA1FED437AB2
:10D340005FED437AB0EE40FAF0EE60FAEAEE077A6B
:10D350001FED467AE9EE877A1FED477AE9EE077A04
:10D360001FED487AE8EE877A1FED497AE8EE077AF2
:10D370001FED4A7AECEE877A1FED4B7AECEE077AD6
:10D380001FED4C7AEBEE877A1FED4D7AEBEE077AC4
:10D390001FED4E7AEAEE877AF1EE677A17EE900A81
:10D3A0000AF018F841EC100B08F0BEFA1FED547AA1
:10D3B0005FED547AEAEE077A1FED557AE9EE877A47
:10D3C0001FED567AE9EE077A1FED577AE8EE877A75
:10D3D0001FED587AE8EE077A1FED597AECEE877A5E
:10D3E0001FED5A7AECEE077A1FED5B7AEBEE877A47
:10D3F0001FED5C7AEBEE077A1FED5D7AEAEE877A35
:10D400005BEC10ABF1EE677A17EE900A09F0E2FFE1
:10D4100041EC100B08F088FA1FED647A5FED647A36
:10D42000EAEE077A1FED657AE9EE877A1FED667AF4
:10D43000E9EE077A1FED677AE8EE877A1FED687AE2
:10D44000E8EE077A1FED697AECEE877A1FED6A7ACB
:10D45000ECEE077A1FED6B7AEBEE877A1FED6C7AB4
:10D46000EBEE077A1FED6D7AEAEE877A1FED6E7AA2
:10D4700077EEC77A1FED6F7A77EE877A55EC104B0F
:10D48000F1EE677A17EE900A09F0A4FF41EC100B59
:10D4900008F04AFA002251EC100BF84B09F03CFE60
:10D4A00002460B460020F5490AF012F90AF0C8FAC4
:10D4B0009FEDF37ADFEDF37AEAEE077A9FEDF27AE9
:10D4C000E9EE877A9FEDF17AE9EE077A9FEDF07A3F
:10D4D000E8EE877A9FEDEF7AE8EE077A9FEDEE7A35
:10D4E000ECEE877A9FEDED7AECEE077A9FEDEC7A21
:10D4F000EBEE877A9FEDEB7AEBEE077A9FEDEA7A17
:10D50000EAEE877A9FEDE97A77EE877A9FEDE87AFF
:10D5100077EEC77A0DEE900AF1EE677A17EE900A71
:10D5200009F058FF41EC100B08F0FEF9002251EC15
:10D53000100BD24B09F0F0FD02460B460020CF49FC
:10D540000AF0C6F80AF07CFA9FEDDA7ADFEDDA7AB3
:10D55000EAEE077A9FEDD97AE9EE877A9FEDD87ADD
:10D56000E9EE077A9FEDD77AE8EE877A9FEDD67AD3
:10D57000E8EE077A9FEDD57AECEE877A9FEDD47AC4
:10D58000ECEE077A9FEDD37AEBEE877A9FEDD27AB5
:10D59000EBEE077A9FEDD17AEAEE877A9FEDD07AAB
:10D5A00077EE877A9FEDCF7A77EE877A0DEE100AC5
:10D5B000F1EE677A17EE900A09F00CFF41EC100BC0
:10D5C00008F0B2F99FEDC87ADFEDC87AEAEE077A83
:10D5D0009FEDC77AE9EE877A9FEDC67AE9EE077A82
:10D5E0009FEDC57AE8EE877A9FEDC47AE8EE077A78
:10D5F0009FEDC37AECEE877A9FEDC27AECEE077A64
:10D600009FEDC17AEBEE877A9FEDC07AEBEE077A59
:10D610009FEDBF7AEAEE877A9FEDBE7A77EE877A42
:10D620009FEDBD7A77EE877A59EC108BF1EE677A31
:10D6300017EE900A09F0CEFE41EC100B08F074F9D9
:10D6400000228E4B4046494657EC106B09F064FDB2
:10D6500002460B46002089490AF03AF80AF0F0F930
:10D660009FEDAE7ADFEDAE7A06EE900AE6EE877AAF
:10D670009FEDAC7A2AEE077AEDEE877A9FEDAA7AD3
:10D6800029EE877AEDEE877A9FEDA87A29EE077A60
:10D69000EDEE877A9FEDA67A28EE877AEDEE877A0F
:10D6A0009FEDA47A28EE077AEDEE877A9FEDA27AB5
:10D6B0002CEE877AEDEE877A9FEDA07A2CEE077A32
:10D6C000EDEE877A9FED9E7A2BEE877AEDEE877AE4
:10D6D0009FED9C7A2BEE077AEDEE877A9FED9A7A92
:10D6E0002AEE877AEDEE877AF1EE677A17EE900AE6
:10D6F00009F070FE41EC100B08F016F9002251EC15
:10D70000100B5E4B09F008FD02460B4600205B49FA
:10D7100009F0DEFF0AF094F900220DEE900A574B53
:10D720003046394609F0F8FC02460B4600205349C2
:10D7300009F0CEFF0AF084F99FED847ADFED847A58
:10D7400006EE900AE6EE877A9FED827A2AEE077A55
:10D75000EDEE077A9FED807A29EE877AEDEE077A73
:10D760009FED7E7A29EE077AEDEE077A9FED7C7ABF
:10D7700028EE877AEDEE077A9FED7A7A28EE077A1F
:10D78000EDEE077A9FED787A2CEE877AEDEE077A48
:10D790009FED767A2CEE077AEDEE077A9FED747A9C
:10D7A0002BEE877AEDEE077A9FED727A2BEE077AF1
:10D7B000EDEE077A9FED707A2AEE877AEDEE077A22
:10D7C000F1EE677A17EE900A09F004FE41EC100BB7
:10D7D00008F0AAF8002251EC100B284B09F09CFC31
:10D7E00002460B460020254909F072FF0AF028F98D
:10D7F0009FED627ADFED627AEAEE077A9FED617A59
:10D80000E9EE877A9FED607AE9EE077A9FED5F7A1D
:10D81000E8EE877A9FED5E7AE8EE077A9FED5D7A13
:10D82000ECEE877A9FED5C7AECEE077A9FED5B7AFF
:10D83000EBEE877A9FED5A7AEBEE077A9FED597AF5
:10D84000EAEE877A9FED587AEDEE877A0DEE100AB0
:10D850009FED567AEDEE077AF1EE677A17EE900AB1
:10D8600009F0B8FD41EC100B08F05EF89FED507A1E
:10D87000DFED507AEAEE077AB4E000BF0000F03F37
:10D880006DEE6BBD8772803FC27F653D3E28E0BC78
:10D89000F65EC93D889D803DC2047CBD8446B23D94
:10D8A000606B993DDB4717BD2C645A3DD5AED43C27
:10D8B000D88C2E3D7F22FE3DF8C3823F5B08813D20
:10D8C000107E0D3DCB90023E2E69B03C6681273E16
:10D8D000AC38D63DC14C1B3E5A55143ED928393E72
:10D8E0006A87FD3DEFAB373D70B42E3EA23C823FD0
:10D8F0002C56283E57431E3EA733463DC7F5703B86
:10D90000F8DA343E808B723D6F7DA23D205B3E3E57
:10D910003AEB323EBA83BC3C60DE263EC38B2941E3
:10D9200090AD153EA2F58B3D33F5D73D7C00173EFB
:10D93000C8CA3F3E611AD13D6A4A423E50C1523E7A
:10D94000E4A1DA3DB28C103EC408793D0727254199
:10D95000FA9C353D18D6613EB34A023EBFBE573EE3
:10D960003B31AB3DEEBF3B3EBE1F153E9470A53D27
:10D97000C27B393E6CADA53DD023903D8B213DC18E
:10D98000147B0C419BF401C180B5BD3F9DF0A3C049
:10D990009409B7BF0F63B03F4DE5B33FDF83BE3F90
:10D9A0006E42B73FB2AEB73F0CA1AF3FD31DBB3FF6
:10D9B000E4B054C1DC6C1B41BD2610C1A536DF3F6D
:10D9C000697FB8C0CAD2DCBF8CD6CC3F6626DB3FAD
:10D9D0009BA5D33FA9A0D93FFEF0CF3F184AD63F21
:10D9E000DCC0DE3F1FED0C7AE9EE877A1FED0D7A81
:10D9F000E9EE077A1FED0E7AE8EE877A1FED0F7ACF
:10DA0000E8EE077A1FED107AECEE877A1FED117AB7
:10DA1000ECEE077A1FED127AEBEE877A1FED137AA0
:10DA2000EBEE077A1FED147AEAEE877A1FED157A8E
:10DA3000EDEE877A1FED167AEDEE077A57EC106B54
:10DA4000F1EE677A17EE900A09F0C4FC41EC100B76
:10DA500007F06AFF002251EC100B694B09F05CFBE8
:10DA600002460B460020664909F032FE09F0E8FF45
:10DA700000220490624B3046394609F04DFB0246C5
:10DA80000B4600205E4909F023FE09F0D9FF002271
:10DA900005905B4B2046294609F03EFB02460B46AB
:10DAA0000020574909F014FE09F0CAFF00220EEECB
:10DAB000100A534B5046594609F02EFB02460B46BE
:10DAC00000204F4909F004FE09F0BAFF00220EEED3
:10DAD000900A4B4B51EC1F0B09F01EFB02460B4604
:10DAE0000020474909F0F4FD09F0AAFF00220FEEDB
:10DAF000100A434BDDE9020109F00EFB02460B461A
:10DB000000203F4909F0E4FD09F09AFF00220FEEE2
:10DB1000900A3B4BDDE9000109F0FEFA02460B4694
:10DB20000020374909F0D4FD09F08AFFDFED357A8E
:10DB300007EE100A6CEEA7CADFED337AE7EE2C7A17
:10DB40009FED327A2CEE07CA9FED317AEFEE8C7A98
:10DB50006BEE87BA9FED2F7AEFEE2B7A2BEE07BA9A
:10DB60009FED2D7AEEEE8B7A6AEE87AA9FED2B7AE7
:10DB7000EEEE2A7A6DEE87DA9DED057AE7EE2D7AE4
:10DB80009FED277A2DEE07DA9DED047AE7EE0D7A08
:10DB90009FED247AEAEE077A9FED237AE9EE877A01
:10DBA0009FED227AE9EE077A9FED217AE8EE877AF7
:10DBB0009FED207AE8EE077AF1EE677A17EE900A89
:10DBC00009F008FC41EC100B07F0AEFE002251EC0E
:10DBD000100B0B4B09F0A0FA02460B460020084937
:10DBE00009F076FD09F02CFF9FED130A07EE900A6D
:10DBF00027EE800A07B0BDEC108BBDE8F08F00BFA8
:10DC00000000F03FDFD96841A8AEA6414002914034
:10DC100060F65F41F1B7BE40A03E8F40ED643F40EB
:10DC2000BB0C49400D8B46C295D8D2C133C56B4160
:10DC300067B653C1701496410000C8429FEDF87A50
:10DC4000DFEDF87AE0EE077A2DE9F04F9FEDF67AF6
:10DC5000E0EE877A9FEDF57AE1EE077A9FEDF47AB0
:10DC6000E1EE877A9FEDF37AE2EE077A9FEDF27AA2
:10DC7000E2EE877A9FEDF17AE3EE077A9FEDF07A94
:10DC800077EE877A9FEDEF7A77EE877A9FEDEE7ADF
:10DC900077EE877A9FEDED7A77EEC77A9FEDEC7A93
:10DCA0002DED108B77EE877A89B0F1EE677A17EE5B
:10DCB000900AB0EE41AAF0EE619AB0EE429AF0EE10
:10DCC000628AB0EE438AB0EE40BAF0EE60AA09F084
:10DCD00081FB41EC100B07F027FE002251EC100BEA
:10DCE000DC4B09F019FA02460B460020D94909F02D
:10DCF000EFFC09F0A5FE9FEDD87ADFEDD87AEBEEC8
:10DD0000077A9FEDD77AEAEE877A9FEDD67AEAEE28
:10DD1000077A9FEDD57AE9EE877A9FEDD47AE9EE1E
:10DD2000077A9FEDD37AE8EE877A9FEDD27AE8EE14
:10DD3000077A9FEDD17A77EE877A9FEDD07A77EEEA
:10DD4000877A9FEDCF7A77EE877A9FEDCE7A77EE5E
:10DD5000877A9FEDCD7A77EE877A0BEE900AF1EE17
:10DD6000677A17EE900A09F035FB41EC100B07F0CB
:10DD7000DBFD002251EC100BB64B09F0CDF9024649
:10DD80000B460020B34909F0A3FC09F059FE9FEDB2
:10DD9000BF7ADFEDBF7AEBEE077A9FEDBE7AEAEE4F
:10DDA000877A9FEDBD7AEAEE077A9FEDBC7AE9EEBD
:10DDB000877A9FEDBB7AE9EE077A9FEDBA7AE8EEB3
:10DDC000877A9FEDB97AE8EE077A9FEDB87A77EE19
:10DDD000877A9FEDB77A77EE877A9FEDB67A77EEFE
:10DDE000877A9FEDB57A77EE877A9FEDB47A77EEF2
:10DDF000877A0DEE100AF1EE677A17EE900A09F0B5
:10DE0000E9FA41EC100B07F08FFD002251EC100BEA
:10DE1000904B09F081F902460B4600208D4909F02C
:10DE200057FC09F00DFE9FEDA67ADFEDA67AEBEE2A
:10DE3000077A9FEDA57AEAEE877A9FEDA47AEAEE5B
:10DE4000077A9FEDA37AE9EE877A9FEDA27AE9EE51
:10DE5000077A9FEDA17AE8EE877A9FEDA07AE8EE47
:10DE6000077A9FED9F7A77EEC77A9FED9E7A77EEDD
:10DE7000877A9FED9D7A77EE877A9FED9C7A77EE91
:10DE8000877A9FED9B7A77EEC77A0EEE100AF1EE55
:10DE9000677A17EE900A09F09DFA41EC100B07F033
:10DEA00043FD002251EC100B6A4B09F035F9024694
:10DEB0000B460020674909F00BFC09F0C1FD9FEDFE
:10DEC0008D7ADFED8D7AEBEE077A9FED8C7AEAEEB4
:10DED000877A9FED8B7AEAEE077A9FED8A7AE9EEF0
:10DEE000877A9FED897AE9EE077A9FED887AE8EEE6
:10DEF000877A9FED877AE8EE077A9FED867A77EE4C
:10DF0000877A9FED857A77EE877A9FED847A77EE30
:10DF1000C77A9FED837A77EE877A9FED827A77EEE4
:10DF2000877A0DEE900AF1EE677A17EE900A09F003
:10DF300051FA41EC100B07F0F7FC002251EC100BEA
:10DF4000444B09F0E9F802460B460020414909F02C
:10DF5000BFFB09F075FD9FED747ADFED747AEBEE8F
:10DF6000077A9FED737AEAEE877A9FED727AEAEE8E
:10DF7000077A9FED717AE9EE877A9FED707AE9EE84
:10DF8000077A9FED6F7AE8EE877A9FED6E7AE8EE7A
:10DF9000077A9FED6D7A77EE877A9FED6C7A77EE50
:10DFA000877A9FED6B7A77EE877A9FED6A7A77EEC4
:10DFB000877A9FED697A77EE877A0EEE900AF1EE16
:10DFC000677A17EE900A09F005FA41EC100B07F09A
:10DFD000ABFC9FED627ADFED627AEBEE077A9FEDA4
:10DFE000617AEAEE877A9FED607AEAEE077A9FED32
:10DFF0005F7AE9EE877A9FED5E7AE9EE077A9FED28
:10E000005D7AE8EE877A9FED5C7AE8EE077A9FED1D
:10E010005B7A77EE877A9FED5A7A77EE877A05E119
:10E02000A3EC5FBD91BE803F926851BD1E6D6BBD7C
:10E030003597553DD9E667BD35210CBD736CC43CA1
:10E04000C77C073DFCABD73D293B043E1DDDAA3C08
:10E050007D7F013D0000F03FB8B482BC49D5803FD0
:10E06000BF1D3DBD995CA13D09BE463CD0DB77BDDF
:10E070001686BC3D0A05A53D1FB61B3DA343D43DF6
:10E080002669273DD7EA933D892A533C1D5CD73D3D
:10E09000819A803FD0C4B43C787CF43DA47ABA3DE8
:10E0A00052B3D73C77B1603DF3821B3D117F073BF4
:10E0B0005206DD3CDFA4EA3D51B1433D37BCBF3DD4
:10E0C000E0AE423C97CE803FD958E93D7C42C53D09
:10E0D0002222293C52E2E33C8171CB3DC95F753D70
:10E0E0005E30E13B0514B33D5D897A3D13B0A43B3E
:10E0F0009993863D476B91BD2085803F5F7AC33DF4
:10E10000E52FBA3D76E56E3DC33995BDB56EB83D98
:10E11000B6989C3C3009B83D09231B3D5FBE943C3A
:10E12000BC79D03D6EA3BB3DD877213EAD12843F74
:10E13000E88AFE3D4C9FF13D11DED23D284F543E12
:10E14000D62A113EEDCE323DEF4C0B3EEA266B3E19
:10E150009C84403EDF102B3E5D5F7D3EFD27523E9E
:10E16000E15B833F55D4CC3DFC966F3EB9B34C3E4A
:10E17000B90C533E460F213E813B5EBC2FBE253E6F
:10E180005E16E53DB1742B3E0D23613EA3FC1A3EA5
:10E1900051773A3E4569833FF0466F3E237BEA3D27
:10E1A000368A313E9C0E303ECF59D63D41C2443C6A
:10E1B000DE3D0F3EBC33793E74A3373EEDB2B93D30
:10E1C000A8851E3E0AA8493E4904833FFBA0523E53
:10E1D00044EE6D3DD9FB263EB93E2E3E6D8E0A3E85
:10E1E000E5B3423D7BC73F3E0FF05B3ED13EBE3DB7
:10E1F0007AD6363EE7C45E3E5E285B3EA4A8823FE8
:10E20000C295673E72D7D03D886C833D0E45EC3D8C
:10E21000E146343E0D26A63D43742B3E2F46F43D89
:10E2200081E46E3EBE9A423E5254643E1FED2B7A0C
:10E2300077EE877A1FED2C7A77EE877A1FED2D7AAD
:10E2400077EE877A5BEC10ABF1EE677A17EE900A07
:10E2500009F0C0F841EC100B07F066FB1FED347AB3
:10E260005FED347AEBEE077A1FED357AEAEE877AC6
:10E270001FED367AEAEE077A1FED377AE9EE877AF4
:10E280001FED387AE9EE077A1FED397AE8EE877AE2
:10E290001FED3A7AE8EE077A1FED3B7A77EE877A40
:10E2A0001FED3C7A77EE877A1FED3D7A77EE877A1D
:10E2B0001FED3E7A77EE877A1FED3F7A77EE877A09
:10E2C00059EC108BF1EE677A17EE900A09F082F89C
:10E2D00041EC100B07F028FB1FED467A5FED467A04
:10E2E000EBEE077A1FED477AEAEE877A1FED487A60
:10E2F000EAEE077A1FED497AE9EE877A1FED4A7A4E
:10E30000E9EE077A1FED4B7AE8EE877A1FED4C7A3B
:10E31000E8EE077A1FED4D7A77EE877A1FED4E7A99
:10E3200077EE877A1FED4F7A77EE877A1FED507A76
:10E3300077EE877A1FED517A77EE877A57EC106B7C
:10E34000F1EE677A17EE900A09F044F841EC100BF1
:10E3500007F0EAFA1FED587A5FED587AEBEE077A8C
:10E360001FED597AEAEE877A1FED5A7AEAEE077ABC
:10E370001FED5B7AE9EE877A1FED5C7AE9EE077AAA
:10E380001FED5D7AE8EE877A1FED5E7AE8EE077A98
:10E390001FED5F7A77EE877A1FED607A77EE877AE6
:10E3A0001FED617A77EE877A1FED627A77EE877AD2
:10E3B0001FED637A77EE877A55EC104BF1EE677AB2
:10E3C00017EE900A09F006F841EC100B07F0ACFAD2
:10E3D0000022F34BB0EE40CAF0EE60CA50465946F8
:10E3E00008F09AFE02460B460020ED4909F070F94C
:10E3F00009F026FB9FEDEB7ADFEDEB7A06EE900A53
:10E40000E6EE877A9FEDE97A2BEE077AEBEE877AD4
:10E410009FEDE77A2AEE877AEBEE877A9FEDE57A31
:10E420002AEE077AEBEE877A9FEDE37A29EE877A78
:10E43000EBEE877A9FEDE17A29EE077AEBEE877AA9
:10E440009FEDDF7A28EE877AEBEE877A9FEDDD7A13
:10E4500028EE077AEBEE877AF1EE677A17EE900AEC
:10E4600008F0B8FF41EC100B07F05EFA002251EC07
:10E47000100BCB4B08F050FE02460B460020C8495B
:10E4800009F026F909F0DCFA00220BEE900AC44BE1
:10E490004046494608F040FE02460B460020C0496F
:10E4A00009F016F909F0CCFA9FEDC77ADFEDC77ACB
:10E4B00006EE900AE6EE877A9FEDC57A2BEE077A94
:10E4C000EDEE077A9FEDC37A2AEE877AEDEE077AB2
:10E4D0009FEDC17A2AEE077AEDEE077A9FEDBF7ABB
:10E4E00029EE877AEDEE077A9FEDBD7A29EE077A5D
:10E4F000EDEE077A9FEDBB7A28EE877AEDEE077A8C
:10E500009FEDB97A28EE077AEDEE077AF1EE677A99
:10E5100017EE900A08F05EFF41EC100B07F004FACA
:10E52000002251EC100B9E4B08F0F6FD02460B4604
:10E5300000209B4909F0CCF809F082FA00220DEE88
:10E54000100A974B3046394608F0E6FD02460B4666
:10E550000020934909F0BCF809F072FA9FEDA37A04
:10E56000DFEDA37A06EE900AE6EE877A9FEDA17AB8
:10E570002BEE077AEEEE077A9FED9F7A2AEE877AE6
:10E58000EEEE077A9FED9D7A2AEE077AEEEE077A95
:10E590009FED9B7A29EE877AEEEE077A9FED997AC6
:10E5A00029EE077AEEEE077A9FED977A28EE877AC2
:10E5B000EEEE077A9FED957A28EE077AEEEE077A6F
:10E5C000F1EE677A17EE900A08F004FF41EC100BA9
:10E5D00007F0AAF9002251EC100B714B08F09CFDDA
:10E5E00002460B4600206E4909F072F809F028FA3D
:10E5F00000220EEE100A6A4B2046294608F08CFDD8
:10E6000002460B460020664909F062F809F018FA44
:10E610009FED7F7ADFED7F7A06EE900AE6EE877A4D
:10E620009FED7D7A2BEE077AEDEE877A9FED7B7A70
:10E630002AEE877AEDEE877A9FED797A2AEE077ACD
:10E64000EDEE877A9FED777A29EE877AEDEE877A7D
:10E650009FED757A29EE077AEDEE877A9FED737A52
:10E6600028EE877AEDEE877A9FED717A28EE077AA9
:10E67000EDEE877AF1EE677A17EE900A08F0AAFEBF
:10E6800041EC100B07F050F9002251EC100B444BF9
:10E6900008F042FD02460B460020414909F018F8F7
:10E6A00009F0CEF900220DEE900A3D4B51EC1C0B07
:10E6B00008F032FD02460B460020394909F008F8FF
:10E6C00009F0BEF99FED5B7ADFED5B7A06EE900A0A
:10E6D000E6EE877A9FED597A2BEE077AEEEE877A8F
:10E6E0009FED577A2AEE877AEEEE877A9FED557A7C
:10E6F0002AEE077AEEEE877A9FED537A29EE877A33
:10E70000EEEE877A9FED517A29EE077AEEEE877A60
:10E710009FED4F7A28EE877AEEEE877A9FED4D7A5D
:10E7200028EE077AEEEE877AF1EE677A17EE900A16
:10E7300008F050FE41EC100B07F0F6F8002251EC07
:10E74000100B174B08F0E8FC02460B46002014495A
:10E7500008F0BEFF09F074F99FED3F7ADFED3F7AD4
:10E76000EBEE077A9FED3E7AEAEE877A9FED3D7AEF
:10E77000EAEE077A9FED3C7AE9EE877A9FED3B7AE5
:10E78000E9EE077A9FED3A7AE8EE877A9FED397ADB
:10E79000E8EE077A9FED387AEBEE877AFCE000BF6F
:10E7A0000000F03F34B35B41B207103E0C22983EAC
:10E7B000EE395F3ED0D4803EF7F93A3E03497B3EC6
:10E7C0003770CD3D76B3593DF22B5B4166E481BC99
:10E7D00003A93B3ED9F3893EABACA03E3CA58B3EA2
:10E7E000FCDD8C3E5EEA1C3E67522D3D9F645B4122
:10E7F00029B1353D0446953EEA92293E3D57A33E58
:10E800001C59AA3E5C63293EA50C933D7830263DF9
:10E810008C985941D334153CA442763E8254783EBC
:10E8200081A5943EFF58893E1A21523ECDBF043E39
:10E83000DDB00D3E0F5E5C41CE6DCF3DB4C32B3ECF
:10E8400020B9973E28C5943ECFE9943E1BE7853D0D
:10E85000FED37A3DFC0D5A3D5F4913C2F30EC94108
:10E860000F2ECDC1B8BA4D42F02706C22AB72540B7
:10E870004BA6C74180E306BD41236CBF739977BFA8
:10E88000EC326EBF9EC262BFD82352BF55CEC5C107
:10E89000276CC6405DD282C122150042A7C70CC1B9
:10E8A000AFAD0540817DACC08ACC00C0BE3AC73F49
:10E8B00054B4C53F2DE1D13F5DEAC23FB653D03FCE
:10E8C000929DB5C1F375AA41D5FA95C161F4E441B1
:10E8D000F3A9A2C1C5B33B40AAD292C0417EF34086
:10E8E00077D2753F1EDE7C3F216A5E3F4D895F3FD8
:10E8F000CFDC5C3FE29F93C03C0CDF401765E4C077
:10E9000057C51741C96AAAC04D8CFFBF1E7F36C0CC
:10E9100083B534C1C65FF53ECE7A013F35B1153FB0
:10E92000038B083F6147113FC34925C022276E4032
:10E930006F1012C087965640B50715C061EB0ABE2E
:10E9400022D184BF91E80AC0FC3E47BE223B56BE9E
:10E95000CE0B32BE991C1CBEE3AA98BEBC1EE53D80
:10E960001F9F803FE184D73D30C76FBDEF12993DB7
:10E970004A27A33D140AD13BFB206C3DB25ADA3C36
:10E980005FE44D3DD1ECD43D72B4993C53A2E73CD9
:10E990005D78983D455B493D1FED487AEDEE077A7D
:10E9A0001FED497AEEEE077A1FED4A7AEDEE877A8F
:10E9B0000CEE100A1FED4C7AECEE077AF1EE677A56
:10E9C00017EE900A08F006FD41EC100B06F0ACFFC4
:10E9D0001FED527A5FED527AEBEE077A1FED537A14
:10E9E000EAEE877A1FED547AEAEE077A1FED557A40
:10E9F000E9EE877A1FED567AE9EE077A1FED577A2E
:10EA0000E8EE877A1FED587AE8EE077A1FED597A1B
:10EA1000EBEE877A1FED5A7AEDEE077A1FED5B7AFF
:10EA2000EEEE077A1FED5C7AEDEE877A1FED5D7AE8
:10EA3000ECEE077A8DED000BF1EE677A17EE900A97
:10EA400008F0C8FC41EC100B06F06EFF1FED647A75
:10EA50005FED647AEBEE077A1FED657AEAEE877A6E
:10EA60001FED667AEAEE077A1FED677AE9EE877A9C
:10EA70001FED687AE9EE077A1FED697AE8EE877A8A
:10EA80001FED6A7AE8EE077A1FED6B7AEBEE877A74
:10EA90001FED6C7AEDEE077A1FED6D7AEEEE077AD8
:10EAA0001FED6E7AEDEE877A1FED6F7AECEE077A46
:10EAB0008DED020BF1EE677A17EE900A08F08AFCF2
:10EAC00041EC100B06F030FF1FED767A5FED767AA1
:10EAD000B0EE40FAF0EE60FAEBEE077A1FED797ACD
:10EAE000EAEE877A1FED7A7AEAEE077A1FED7B7AF3
:10EAF000E9EE877A1FED7C7AE9EE077A1FED7D7AE1
:10EB0000E8EE877A1FED7E7AE8EE077A1FED7F7ACE
:10EB1000EBEE877A1FED807AEDEE077A1FED817AB2
:10EB2000EEEE077A1FED827AEDEE877A1FED837A9B
:10EB3000ECEE077AF1EE677A17EE900A08F04AFCDD
:10EB400041EC100B06F0F0FE1FED897A5FED897A3B
:10EB5000EBEE077A1FED8A7AEAEE877A1FED8B7A61
:10EB6000EAEE077A1FED8C7AE9EE877A1FED8D7A4F
:10EB7000E9EE077A1FED8E7AE8EE877A1FED8F7A3D
:10EB8000E8EE077A1FED907AEBEE877A1FED917A27
:10EB9000EDEE077A1FED927AEEEE077A1FED937A8B
:10EBA000EDEE877A1FED947AECEE077A5BEC10AB12
:10EBB000F1EE677A17EE900A08F00CFC41EC100BAE
:10EBC00006F0B2FE1FED9B7A5FED9B7AEBEE077AC3
:10EBD0001FED9C7AEAEE877A1FED9D7AEAEE077ABE
:10EBE0001FED9E7AE9EE877A1FED9F7AE9EE077AAC
:10EBF0001FEDA07AE8EE877A1FEDA17AE8EE077A9A
:10EC00001FEDA27AEBEE877A1FEDA37AEDEE077A7D
:10EC10001FEDA47AEEEE077A1FEDA57AEDEE877A66
:10EC20001FEDA67AECEE077A1FEDA77A77EEC77A8A
:10EC30001FEDA87A77EE877A55EC104BF1EE677AE4
:10EC400017EE900A08F0C6FB41EC100B06F06CFEC4
:10EC5000002251EC100BF74B08F05EFA02460B460F
:10EC60000020F44908F034FD08F0EAFE9FEDF27A46
:10EC7000DFEDF27AEBEE077A9FEDF17AEAEE877A32
:10EC80009FEDF07AEAEE077A9FEDEF7AE9EE877A68
:10EC90009FEDEE7AE9EE077A9FEDED7AE8EE877A5E
:10ECA0009FEDEC7AE8EE077A9FEDEB7AEBEE877A50
:10ECB0009FEDEA7AEDEE077A9FEDE97AEEEE077ABC
:10ECC0009FEDE87AEDEE877A9FEDE77AECEE077A32
:10ECD0009FEDE67A77EE877A9FEDE57A77EEC77A51
:10ECE0000EEE900AF1EE677A17EE900A08F072FBCA
:10ECF00041EC100B06F018FE002251EC100BCD4B2E
:10ED000008F00AFA02460B460020CA4908F0E0FC67
:10ED100008F096FE9FEDD77ADFEDD77AEBEE077A13
:10ED20009FEDD67AEAEE877A9FEDD57AEAEE077AFA
:10ED30009FEDD47AE9EE877A9FEDD37AE9EE077AF0
:10ED40009FEDD27AE8EE877A9FEDD17AE8EE077AE6
:10ED50009FEDD07AEBEE877A9FEDCF7AEDEE077AD2
:10ED60009FEDCE7AEEEE077A9FEDCD7AEDEE877AC3
:10ED70009FEDCC7AECEE077A9FEDCB7A77EE877A2F
:10ED80009FEDCA7A77EE877A0CEE900AF1EE677AF9
:10ED900017EE900A08F01EFB41EC100B06F0C4FDC4
:10EDA0009FEDC37ADFEDC37AEBEE077A9FEDC27A6F
:10EDB000EAEE877A9FEDC17AEAEE077A9FEDC07A94
:10EDC000E9EE877A9FEDBF7AE9EE077A9FEDBE7A8A
:10EDD000E8EE877A9FEDBD7AE8EE077A9FEDBC7A80
:10EDE000EBEE877A9FEDBB7AEDEE077A9FEDBA7A6C
:10EDF000EEEE077A9FEDB97AEDEE877A9FEDB87A5D
:10EE0000ECEE077A9FEDB77A77EE877A9FEDB67AC8
:10EE100077EE877A59EC108BF1EE677A17EE900A4D
:10EE200008F0D8FA41EC100B06F07EFD0022814B71
:10EE30004046494657EC106B08F06EF902460B4607
:10EE400000207C4908F044FC08F0FAFD9FEDA77A09
:10EE5000DFEDA77A06EE900AE6EE877A9FEDA57AB7
:10EE60002BEE077AEEEE877A9FEDA37A2AEE877A69
:10EE7000EEEE877A9FEDA17A2AEE077AEEEE877A98
:10EE80009FED9F7A29EE877AEEEE877A9FED9D7A45
:10EE900029EE077AEEEE877A9FED9B7A28EE877A45
:10EEA000EEEE877A9FED997A28EE077AEEEE877A72
:10EEB0009FED977A2BEE877AEEEE877A9FED957A23
:10EEC0002DEE077AEEEE877A9FED937A2EEE077A93
:10EED000EEEE877A9FED917A2DEE877AEEEE877AC5
:10EEE0009FED8F7A2CEE077AEEEE877AF1EE677A55
:10EEF00017EE900A08F06EFA41EC100B06F014FDC4
:10EF0000002251EC100B4B4B08F006F902460B4661
:10EF10000020484908F0DCFB08F092FD00220EEECC
:10EF2000900A444B3046394608F0F6F802460B4644
:10EF30000020404908F0CCFB08F082FD9FED797A73
:10EF4000DFED797A06EE900AE6EE877A9FED777A22
:10EF50002BEE077AECEE877A9FED757A2AEE877AA8
:10EF6000ECEE877A9FED737A2AEE077AECEE877AD9
:10EF70009FED717A29EE877AECEE877A9FED6F7AB2
:10EF800029EE077AECEE877A9FED6D7A28EE877A84
:10EF9000ECEE877A9FED6B7A28EE077AECEE877AB3
:10EFA0009FED697A2BEE877AECEE877A9FED677A90
:10EFB0002DEE077AECEE877A9FED657A2EEE077AD2
:10EFC000ECEE877A9FED637A2DEE877AECEE877A06
:10EFD0009FED617A2CEE077AECEE877AF1EE677A94
:10EFE00017EE900A08F0F6F941EC100B06F09CFCC5
:10EFF000002251EC100B0F4B08F08EF802460B4626
:10F0000000200C4908F064FB08F01AFD9FED537ACC
:10F01000DFED537AEBEE077A9FED527AEAEE877ACC
:10F020009FED517AEAEE077A9FED507AE9EE877A02
:10F03000D0E000BF0000F03F123E0DBD24AB803F8A
:10F04000CB5FF83C01DED23CF9DC2C3DBBFF863DBA
:10F050005BD6513CBBAD8EBDEBD691BD3A6465BC71
:10F06000B8710C3CC5A1F8BBFF48F1BB0F1FD63DE2
:10F07000618BC63C0B5E783DD343833FF3C90D3EA5
:10F080008DD0ED3D8030ED3B43CAB83DD66E983D06
:10F0900055CFB43D3605273DA958373D69B3B33D3B
:10F0A0002514113CF191A83DB7B4533EE674023EDD
:10F0B0008D839A3DDA0C823F7455E5BBF6522C3EA7
:10F0C000C72C0F3E36F6143D655BFD3D9E6EE73D59
:10F0D00042DC393E568D073E05452D3EBE5D083D5E
:10F0E0008C7CCBBB5374283E6271103D620721417A
:10F0F000A8289E3D55F2E53D45A1383E61DE613EC2
:10F10000969D593EA563093E05FDDB3D9224FD3ADF
:10F11000330EBF3D4869093D03960B3E78C75E3EFE
:10F1200025D6F63DE05F1641A570B5BC7122C03D05
:10F13000494A793E2806E63D9BF0EA3D7F84863DBC
:10F140005D7B453DE2600ABC603A3B3ECFBA253E5E
:10F15000AAC03C3E1A10FB3DBAA2FD3D149B99C0CB
:10F160008D0CC740873BCFC02583084108C397C09B
:10F1700029A0B0BF35B01FC0A51020C1CA33CF3EF3
:10F180004AA99B3E1A15C23E8B10BC3EDCB2CA3E59
:10F19000F94FA83EEC2D953EB858F9BF3BB82F402B
:10F1A0009640C8BF331F09408F8BCDBF11F5A6BD58
:10F1B000D92855BF53B08ABFC6DA84BE4A90A4BED0
:10F1C000F0FB94BED42A87BE9AC013BEE39C12BE45
:10F1D00063A6A2BE1FED1A7AE9EE077A1FED1B7A2D
:10F1E000E8EE877A1FED1C7AE8EE077A1FED1D7AAC
:10F1F000EBEE877A1FED1E7AEDEE077A1FED1F7A90
:10F20000EEEE077A1FED207AEDEE877A1FED217A78
:10F21000ECEE077A1FED227AEEEE877A0CEE900A7A
:10F220001FED247AECEE877AF1EE677A17EE900AFA
:10F2300008F0D0F841EC100B06F076FB1FED2A7AAF
:10F240005FED2A7AEBEE077A1FED2B7AEAEE877AEA
:10F250001FED2C7AEAEE077A1FED2D7AE9EE877A18
:10F260001FED2E7AE9EE077A1FED2F7AE8EE877A06
:10F270001FED307AE8EE077A1FED317AEBEE877AF0
:10F280001FED327AEDEE077A1FED337AEEEE077A54
:10F290001FED347AEDEE877A1FED357AECEE077AC2
:10F2A0001FED367AEEEE877A1FED377AECEE877A2D
:10F2B00057EC106BF1EE677A17EE900A08F08AF8B7
:10F2C00041EC100B06F030FB002251EC100B6E4BA2
:10F2D00007F022FF02460B4600206B4908F0F8F9C0
:10F2E00008F0AEFB00220490674B3046394607F029
:10F2F00013FF02460B460020634908F0E9F908F0C5
:10F300009FFB00220590604B2046294607F004FF32
:10F3100002460B4600205C4908F0DAF908F090FB41
:10F3200000220690584B5046594607F0F5FE02461B
:10F330000B460020544908F0CBF908F081FB00226D
:10F340000790514B51EC1F0B07F0E6FE02460B46AF
:10F3500000204D4908F0BCF908F072FB00220FEEC6
:10F36000100A494BDDE9020107F0D6FE02460B46C2
:10F370000020454908F0ACF908F062FB00220FEECE
:10F38000900A414BDDE9000107F0C6FE02460B463C
:10F3900000203D4908F09CF908F052FBDFED3B7A74
:10F3A00007EE100A6BEEA7BADFED397AE7EE2B7A9B
:10F3B0009FED387A2DEE07DA9FED377AEFEE8D7AF2
:10F3C0002EEE07EA9FED357AEFEE0E7A6DEE87DAD4
:10F3D0009DED077AE7EE2D7A9FED317A2CEE07CA84
:10F3E0009DED067AE7EE0C7A9FED2E7A6EEE87EAB7
:10F3F0009DED057AE7EE2E7A9FED2B7A6CEE87CAAB
:10F400009DED047AE7EE2C7A9FED287AEBEE077AF1
:10F410009FED277AEAEE877A9FED267AEAEE077A61
:10F420009FED257AE9EE877A9FED247AE9EE077A57
:10F430009FED237AE8EE877A9FED227AE8EE077A4D
:10F44000F1EE677A17EE900A07F0C4FF41EC100B5B
:10F4500006F06AFA002251EC100B0B4B07F05CFE31
:10F4600002460B460020084908F032F908F0E8FA95
:10F470009FED150A07EE900A27EE800A09B0BDEC51
:10F48000108BBDE8F08F00BF0000F03F42AE24417A
:10F490006CD2E440973D75419F912B41BA5EAE40DE
:10F4A0000E35EE3F71C583402B14AE3FF41C42C2B3
:10F4B000EF15BFC18C884D42D52FA3C16B06DA4032
:10F4C00004A9C040CDAA823E0000C8429FEDF87A50
:10F4D000DFEDF87AE0EE077A2DE9F04F9FEDF67A4E
:10F4E000E0EE877A9FEDF57AE1EE077A9FEDF47A08
:10F4F000E1EE877A9FEDF37AE2EE077A9FEDF27AFA
:10F5000077EE877A9FEDF17A77EE877A9FEDF07A42
:10F5100077EE877A9FEDEF7A77EE877A9FEDEE7A36
:10F520002DED108B77EE877A87B0F1EE677A17EEC4
:10F53000900AB0EE419AF0EE618AB0EE428AB0EEE7
:10F5400040AAF0EE609A07F045FF41EC100B06F080
:10F55000EBF9002251EC100BE04B07F0DDFD024609
:10F560000B460020DD4908F0B3F808F069FA9FED7A
:10F57000DC7ADFEDDC7AEAEE077A9FEDDB7AE9EE02
:10F58000877A9FEDDA7AE9EE077A9FEDD97AE8EE8D
:10F59000877A9FEDD87AE8EE077A9FEDD77A77EEF3
:10F5A000877A9FEDD67A77EE877A9FEDD57A77EED8
:10F5B000C77A9FEDD47A77EE877A9FEDD37A77EE8C
:10F5C000C77A0CEE900AF1EE677A17EE900A07F010
:10F5D00001FF41EC100B06F0A7F9002251EC100BD3
:10F5E000BE4B07F099FD02460B460020BB4908F0D0
:10F5F0006FF808F025FA9FEDC57ADFEDC57AEAEEDF
:10F60000077A9FEDC47AE9EE877A9FEDC37AE9EE37
:10F61000077A9FEDC27AE8EE877A9FEDC17AE8EE2D
:10F62000077A9FEDC07A77EE877A9FEDBF7A77EE03
:10F63000C77A9FEDBE7A77EE877A9FEDBD7A77EE37
:10F64000C77A9FEDBC7A77EE877A0CEE100AF1EE5E
:10F65000677A17EE900A07F0BDFE41EC100B06F03A
:10F6600063F9002251EC100B9C4B07F055FD02464C
:10F670000B460020994908F02BF808F0E1F99FEDBE
:10F68000AE7ADFEDAE7AEAEE077A9FEDAD7AE9EE7B
:10F69000877A9FEDAC7AE9EE077A9FEDAB7AE8EED8
:10F6A000877A9FEDAA7AE8EE077A9FEDA97A77EE3E
:10F6B000C77A9FEDA87A77EE877A9FEDA77A77EEE3
:10F6C000877A9FEDA67A77EE877A9FEDA57A77EE17
:10F6D000C77A0DEE900AF1EE677A17EE900A07F0FE
:10F6E00079FE41EC100B06F01FF9002251EC100BD3
:10F6F0007A4B07F011FD02460B460020774907F0D0
:10F70000E7FF08F09DF99FED977ADFED977AEAEE33
:10F71000077A9FED967AE9EE877A9FED957AE9EE82
:10F72000077A9FED947AE8EE877A9FED937AE8EE78
:10F73000077A9FED927A77EE877A9FED917A77EE4E
:10F74000877A9FED907A77EE877A9FED8F7A77EEC2
:10F75000877A9FED8E7A77EE877A0DEE100AF1EEBA
:10F76000677A17EE900A07F035FE41EC100B06F0B1
:10F77000DBF8002251EC100B584B07F0CDFC024691
:10F780000B460020554907F0A3FF08F059F99FEDFB
:10F79000807ADFED807AEAEE077A9FED7F7AE9EEF4
:10F7A000877A9FED7E7AE9EE077A9FED7D7AE8EE23
:10F7B000877A9FED7C7AE8EE077A9FED7B7A77EE89
:10F7C000877A9FED7A7A77EE877A9FED797A77EE6E
:10F7D000877A9FED787A77EE877A9FED777A77EE62
:10F7E000877A0AEE900AF1EE677A17EE900A07F030
:10F7F000F1FD41EC100B06F097F89FED707ADFED0C
:10F80000707AB0EE40BAF0EE60BAEAEE077A9FED99
:10F810006D7AE9EE877A9FED6C7AE9EE077A9FEDD3
:10F820006B7AE8EE877A9FED6A7AE8EE077A9FEDC9
:10F83000697A77EE877A9FED687A77EE877A9FED1F
:10F84000677A77EE877A9FED667A77EE877A9FED13
:10F85000657A77EE877AF1EE677A17EE900A07F00D
:10F86000B9FD41EC100B06F05FF89FED5F7ADFED1C
:10F870005F7AEAEE077A9FED5E7AE9EE877A9FED8E
:10F880005D7AE9EE077A9FED5C7AE8EE877A9FED84
:10F890005B7AE8EE077A9FED5A7A77EE877A9FEDEA
:10F8A000597A77EE877A9FED587A77EE877ADDE09E
:10F8B0007E228BBCC999813F4FDB84BC48A9CDBC5B
:10F8C000E87FEEBCC3EE7E3D545F473D5CD6E63D2F
:10F8D000D77FB73DE2BE013E4CF94D3D0000F03F01
:10F8E000DAF313BD8823813F2CC8DB3D3C87E23D22
:10F8F000FB708CBD49E44D3D351E1B3C9D9EFF3D7C
:10F90000C765513D39D05C3D12B1833DC70426BD6A
:10F9100067BC803FE68DE9BCFE7DD6BC78A3BA3CCF
:10F920001531883DC72B093ED8383E3D290A4D3C4C
:10F93000F046433B9596A33D6B1D213DD7A8803FE4
:10F9400008ED3CBD7BD3B5BCC8EEFA3DEF0995BDD3
:10F950003D5E1C3D7119633D803EB33C257D643D99
:10F960001C25A63C41C520BDFC51813FBED9E93DC7
:10F97000BA7B9BBA4AF2A83C422B073D3063943DC8
:10F980006452EF3DF343CC3C4675613CE763E93D8F
:10F990004BBF033EA7A0833F10A43D3EFF6C893EB2
:10F9A0001E88643E0A1B863D5219F43DA96C063E32
:10F9B0006E60693EBF8A443E5150793E08F7543E1E
:10F9C000D6D6823F6A486E3EDF6B093EE94F653E00
:10F9D000F5ECDC3DB6340B3E402B783E57AC103E88
:10F9E000C8B4793ECBD2703EBD24E83DD94A833FAE
:10F9F000C3D63A3E5E364B3E1507B53D868C783D04
:10FA00005BBA6B3EDEBE8E3EAABA533E92F7873E8D
:10FA1000C12A853E4123773EBA18843F3441683E6F
:10FA2000CB9B653E060A403EDD9BA63DB7B1243E1A
:10FA300098F53E3E0F70063EE79C4F3EE116803E35
:10FA400096F4853EC1AD833F425E0B3ED76E263EA7
:10FA5000A3A2423E8CC0343E43DA333E5E574E3E54
:10FA60002976E33D87468D3EEF9FDA3D1FED197AFB
:10FA700077EE877A1FED1A7A77EE877A5BEC10AB18
:10FA8000F1EE677A17EE900A07F0A4FC41EC100B38
:10FA900005F04AFF1FED217A5FED217AEAEE077A41
:10FAA0001FED227AE9EE877A1FED237AE9EE077AD5
:10FAB0001FED247AE8EE877A1FED257AE8EE077AC3
:10FAC0001FED267A77EE877A1FED277A77EE877A11
:10FAD0001FED287A77EE877A1FED297A77EE877AFD
:10FAE0001FED2A7A77EE877A59EC108BF1EE677A60
:10FAF00017EE900A07F06EFC41EC100B05F014FFB6
:10FB00001FED317A5FED317AEAEE077A1FED327A36
:10FB1000E9EE877A1FED337AE9EE077A1FED347A42
:10FB2000E8EE877A1FED357AE8EE077A1FED367A30
:10FB300077EE877A1FED377A77EE877A1FED387A7E
:10FB400077EE877A1FED397A77EE877A1FED3A7A6A
:10FB500077EE877A57EC106BF1EE677A17EE900A22
:10FB600007F038FC41EC100B05F0DEFE51EC1B0BEE
:10FB70000022F44B55EC104B07F0CEFA02460B4630
:10FB80000020F04907F0A4FD07F05AFF9FEDEE7A40
:10FB9000DFEDEE7A06EE900AE6EE877A9FEDEC7ADC
:10FBA0002AEE077AECEE877A9FEDEA7A29EE877AD9
:10FBB000ECEE877A9FEDE87A29EE077AECEE877A09
:10FBC0009FEDE67A28EE877AECEE877A9FEDE47A6D
:10FBD00028EE077AECEE877AF1EE677A17EE900A54
:10FBE00007F0F8FB41EC100B05F09EFE002251ECF3
:10FBF000100BD44B07F090FA02460B460020D14977
:10FC000007F066FD07F01CFF00220CEE900ACD4BBA
:10FC10005046594607F080FA02460B460020C94973
:10FC200007F056FD07F00CFF9FEDCE7ADFEDCE7AA0
:10FC300006EE900AE6EE877A9FEDCC7A2AEE077AF6
:10FC4000ECEE077A9FEDCA7A29EE877AECEE077A16
:10FC50009FEDC87A29EE077AECEE077A9FEDC67A17
:10FC600028EE877AECEE077A9FEDC47A28EE077AC1
:10FC7000ECEE077AF1EE677A17EE900A07F0AAFB2E
:10FC800041EC100B05F050FE002251EC100BAD4B77
:10FC900007F042FA02460B460020AA4907F018FD79
:10FCA00007F0CEFE00220CEE100AA64B4046494655
:10FCB00007F032FA02460B460020A24907F008FD81
:10FCC00007F0BEFE9FEDAE7ADFEDAE7A06EE900A4B
:10FCD000E6EE877A9FEDAC7A2AEE077AEDEE877A28
:10FCE0009FEDAA7A29EE877AEDEE877A9FEDA87AC2
:10FCF00029EE077AEDEE877A9FEDA67A28EE877ACD
:10FD0000EDEE877A9FEDA47A28EE077AEDEE877AFA
:10FD1000F1EE677A17EE900A07F05CFB41EC100BEE
:10FD200005F002FE002251EC100B864B07F0F4F9AF
:10FD300002460B460020834907F0CAFC07F080FE0C
:10FD400000220BEE900A7F4B3046394607F0E4F96B
:10FD500002460B4600207B4907F0BAFC07F070FE14
:10FD60009FED8E7ADFED8E7A06EE900AE6EE877AC8
:10FD70009FED8C7A2AEE077AEDEE077A9FED8A7A6C
:10FD800029EE877AEDEE077A9FED887A29EE077AD9
:10FD9000EDEE077A9FED867A28EE877AEDEE077A08
:10FDA0009FED847A28EE077AEDEE077AF1EE677A16
:10FDB00017EE900A07F00EFB41EC100B05F0B4FDB6
:10FDC000002251EC100B5F4B07F0A6F902460B46E0
:10FDD00000205C4907F07CFC07F032FE00220BEEAD
:10FDE000100A584B2046294607F096F902460B4662
:10FDF0000020544907F06CFC07F022FE9FED6E7A5C
:10FE0000DFED6E7A06EE900AE6EE877A9FED6C7A69
:10FE10002AEE077AEAEE877A9FED6A7A29EE877AE8
:10FE2000EAEE877A9FED687A29EE077AEAEE877A1A
:10FE30009FED667A28EE877AEAEE877A9FED647AFC
:10FE400028EE077AEAEE877AF1EE677A17EE900AE3
:10FE500007F0C0FA41EC100B05F066FD002251ECF2
:10FE6000100B384B07F058F902460B460020354975
:10FE700007F02EFC07F0E4FD9FED567ADFED567A91
:10FE8000EAEE077A9FED557AE9EE877A9FED547A8C
:10FE9000E9EE077A9FED537AE8EE877A9FED527A82
:10FEA000E8EE077A9FED517AECEE877A9FED507A73
:10FEB000ECEE077A9FED4F7AEBEE877A9FED4E7A64
:10FEC000EBEE077A0AEE900A9FED4C7AEAEE877A1B
:10FED000F1EE677A17EE900A07F07CFA41EC100B0E
:10FEE00005F022FD9FED467ADFED467AEAEE077ACD
:10FEF0009FED457AE9EE877A9FED447AE9EE077A3D
:10FF00009FED437AE8EE877A9FED427AE8EE077A32
:10FF10009FED417AECEE877A9FED407AECEE077A1E
:10FF20009FED3F7AEBEE877A9FED3E7AEBEE077A14
:10FF30009FED3D7AEAEE877A8DED000BF1EE677A60
:10FF4000D0E000BF0000F03F3AE84B4165813B3D07
:10FF5000E8678B3E0267823EF95CA43E5CBC8D3E46
:10FF60005C5E923E4D294E413270993D6A399F3E0A
:10FF70008F84B53EAE4E553EFC393B3E999D603E6A
:10FF80002AB45441B418923D46F25C3EB3F6953E15
:10FF9000F7386C3E2B8AAA3EFB981B3EBA0E5B419B
:10FFA000D23D133E84123D3EEE43AE3E691D573EA8
:10FFB00011A5A43E0DC4E73D4B0B4B41F784083E11
:10FFC000820B5A3E23946B3E5921A93E0FE1963E87
:10FFD000391D683EFC8B9BC01CFCBF40C1ABA0C060
:10FFE0003B8AA1C0F90841419BB2D2C0C2ACB3BEAA
:10FFF00006ABF5BE80DDD6BE776DACBE0AB5BEBE23
:020000022000DC
:1000000072A485C0C5F5B2400F06A3C0C27E9DC0D4
:100010000B0E31419862ABC0A36DF4BE95D3D4BE34
:100020009452E2BE2D76A3BE6FEF9ABE5F9483C159
:10003000C9DC184116ED1640B9A3BB3F440D594227
:100040006AC284C14D5CE9C06CEAE7C09AB0E6C000
:1000500010F9E5C010B5E9C0765C3641BA304541CB
:100060004EB053C2FBCA11C209C321428A9FE3C0EA
:10007000FBF282409DB081400D548440BF95834087
:100080007A328340D2FC4FC0E10677405F394AC0E4
:10009000A92C45C002B7DB404B50BBBF97962DBF84
:1000A00001B21EBF5EA732BFFC9E47BF8BA122BF1D
:1000B000B5D386BD5154803FDCCDED3B883B1EBDA2
:1000C000D330773D6E5BADBD926A293DA7B6B63C95
:1000D0009E9B57BB0EE5D13D802F6E3D9EC74E3C8B
:1000E0001376813D17EE900A07F074F941EC100B7E
:1000F00005F01AFC1FED337A5FED337AEAEE077AEA
:100100001FED347AE9EE877A1FED357AE9EE077A4A
:100110001FED367AE8EE877A1FED377AE8EE077A38
:100120001FED387AECEE877A1FED397AECEE077A1C
:100130001FED3A7AEBEE877A1FED3B7AEBEE077A0A
:100140001FED3C7AEAEE877A8DED020BF1EE677ACD
:1001500017EE900A07F03EF941EC100B05F0E4FBB6
:100160001FED437A5FED437AB0EE40FAF0EE60FAAD
:10017000EAEE077A1FED467AE9EE877A1FED477AB5
:10018000E9EE077A1FED487AE8EE877A1FED497AA3
:10019000E8EE077A1FED4A7AECEE877A1FED4B7A8C
:1001A000ECEE077A1FED4C7AEBEE877A1FED4D7A75
:1001B000EBEE077A1FED4E7AEAEE877AF1EE677A78
:1001C00017EE900A07F006F941EC100B05F0ACFBB6
:1001D0001FED547A5FED547AEAEE077A1FED557AF7
:1001E000E9EE877A1FED567AE9EE077A1FED577A26
:1001F000E8EE877A1FED587AE8EE077A1FED597A14
:10020000ECEE877A1FED5A7AECEE077A1FED5B7AF7
:10021000EBEE877A1FED5C7AEBEE077A1FED5D7AE5
:10022000EAEE877A5BEC10ABF1EE677A17EE900A94
:1002300007F0D0F841EC100B05F076FB1FED647A67
:100240005FED647AEAEE077A1FED657AE9EE877A68
:100250001FED667AE9EE077A1FED677AE8EE877A96
:100260001FED687AE8EE077A1FED697AECEE877A7F
:100270001FED6A7AECEE077A1FED6B7AEBEE877A68
:100280001FED6C7AEBEE077A1FED6D7AEAEE877A56
:100290001FED6E7A77EE877A1FED6F7A77EE877AA9
:1002A00055EC104BF1EE677A17EE900A07F092F8D2
:1002B00041EC100B05F038FB002251EC100BF84B11
:1002C00006F02AFF02460B460020F54907F000FA27
:1002D00007F0B6FB9FEDF37ADFEDF37AEAEE077AEB
:1002E0009FEDF27AE9EE877A9FEDF17AE9EE077AEF
:1002F0009FEDF07AE8EE877A9FEDEF7AE8EE077AE5
:100300009FEDEE7AECEE877A9FEDED7AECEE077AD0
:100310009FEDEC7AEBEE877A9FEDEB7AEBEE077AC6
:100320009FEDEA7AEAEE877A9FEDE97A77EE877AAF
:100330009FEDE87A77EE877A0DEE900AF1EE677A14
:1003400017EE900A07F046F841EC100B05F0ECFAB6
:10035000002251EC100BD24B06F0DEFE02460B469B
:100360000020CF4907F0B4F907F06AFB9FEDDA7A75
:10037000DFEDDA7AEAEE077A9FEDD97AE9EE877A4D
:100380009FEDD87AE9EE077A9FEDD77AE8EE877A83
:100390009FEDD67AE8EE077A9FEDD57AECEE877A74
:1003A0009FEDD47AECEE077A9FEDD37AEBEE877A65
:1003B0009FEDD27AEBEE077A9FEDD17AEAEE877A5B
:1003C0009FEDD07A77EE877A9FEDCF7A77EE877AB6
:1003D0000DEE100AF1EE677A17EE900A06F0FAFFBA
:1003E00041EC100B05F0A0FA9FEDC87ADFEDC87A5A
:1003F000EAEE077A9FEDC77AE9EE877A9FEDC67A33
:10040000E9EE077A9FEDC57AE8EE877A9FEDC47A28
:10041000E8EE077A9FEDC37AECEE877A9FEDC27A19
:10042000ECEE077A9FEDC17AEBEE877A9FEDC07A0A
:10043000EBEE077A9FEDBF7AEAEE877A9FEDBE7A00
:1004400077EE877A9FEDBD7A77EE877A59EC108B3D
:10045000F1EE677A17EE900A06F0BCFF41EC100B44
:1004600005F062FA00228E4B4046494657EC106B6D
:1004700006F052FE02460B460020894907F028F993
:1004800007F0DEFA9FEDAE7ADFEDAE7A06EE900A67
:10049000E6EE877A9FEDAC7A2AEE077AEDEE877A60
:1004A0009FEDAA7A29EE877AEDEE877A9FEDA87AFA
:1004B00029EE077AEDEE877A9FEDA67A28EE877A05
:1004C000EDEE877A9FEDA47A28EE077AEDEE877A33
:1004D0009FEDA27A2CEE877AEDEE877A9FEDA07AD7
:1004E0002CEE077AEDEE877A9FED9E7A2BEE877AD7
:1004F000EDEE877A9FED9C7A2BEE077AEDEE877A08
:100500009FED9A7A2AEE877AEDEE877AF1EE677A96
:1005100017EE900A06F05EFF41EC100B05F004FAAE
:10052000002251EC100B5E4B06F0F6FD02460B4626
:1005300000205B4907F0CCF807F082FA00220DEEAC
:10054000900A574B3046394606F0E6FD02460B4608
:100550000020534907F0BCF807F072FA9FED847A47
:10056000DFED847A06EE900AE6EE877A9FED827AD6
:100570002AEE077AEDEE077A9FED807A29EE877AE8
:10058000EDEE077A9FED7E7A29EE077AEDEE077A97
:100590009FED7C7A28EE877AEDEE077A9FED7A7AE6
:1005A00028EE077AEDEE077A9FED787A2CEE877ABF
:1005B000EDEE077A9FED767A2CEE077AEDEE077A6C
:1005C0009FED747A2BEE877AEDEE077A9FED727AC3
:1005D0002BEE077AEDEE077A9FED707A2AEE877A96
:1005E000EDEE077AF1EE677A17EE900A06F0F2FE6A
:1005F00041EC100B05F098F9002251EC100B284B40
:1006000006F08AFD02460B460020254907F060F8F7
:1006100007F016FA9FED627ADFED627AEAEE077A6A
:100620009FED617AE9EE877A9FED607AE9EE077ACD
:100630009FED5F7AE8EE877A9FED5E7AE8EE077AC3
:100640009FED5D7AECEE877A9FED5C7AECEE077AAF
:100650009FED5B7AEBEE877A9FED5A7AEBEE077AA5
:100660009FED597AEAEE877A9FED587AEDEE877A18
:100670000DEE100A9FED567AEDEE077AF1EE677AED
:1006800017EE900A06F0A6FE41EC100B05F04CF9AF
:100690009FED507ADFED507AEAEE077AB4E000BFC2
:1006A0000000F03F1D67893D0D75803F4369A23D05
:1006B0007050323CB359CA3D1DD7B03D5D3E38BC89
:1006C000443A40BC6D98883C96035EBDE5AD86BD5E
:1006D000BA99DB3D05510C3DCB9CC83D4AE4813FB6
:1006E000FE371C3EDF5AB53D0A0BDC3D058A903DC6
:1006F000FDEA323DBF81453D8FF566BC0112AF3D3D
:10070000652C133E5096783C3353EC3DE254C1BB0C
:10071000A8D8833F27E8D03CFFA2DD3C2BEE903CDD
:10072000BC600BBDE39E193E4B81803DEBDF233D5A
:100730005B6AC73C5FB3B43DAD46C63DC4E21B3DFA
:10074000CD27C240C81FDB3D0FFCD13D18D6163E59
:10075000610F653D6948003E41C5953B947D363E3D
:1007600033320B3E83998BBCEEFC9D3DB4A23C3EE4
:100770007D8FBA406FD21F3E5B3FC53D71E3163E91
:100780004BF21D3E3447A13D0972B03DE116F13DEB
:100790002F5B003E8628D43DC988283E4F101A3E64
:1007A000476857BFF364F23FA128A0BF7DCEB0BF1A
:1007B0001F2B803F2C512CBF289C09BF47C802BF6C
:1007C0004983DDBE8CB004BFCB4F13BFCE571EBFD5
:1007D0001BEBE8BE953659BF3FEFF43F0039BBBF76
:1007E00025A8D1BF045E853F681569BF70F0FCBEC7
:1007F0001E4FCCBEA9BAEBBE6FA4C9BE1296F8BEFE
:10080000B80B0FBFC50AF5BE1FED0C7AE9EE877A6B
:100810001FED0D7AE9EE077A1FED0E7AE8EE877A82
:100820001FED0F7AE8EE077A1FED107AECEE877A6B
:100830001FED117AECEE077A1FED127AEBEE877A54
:100840001FED137AEBEE077A1FED147AEAEE877A42
:100850001FED157AEDEE877A1FED167AEDEE077A29
:1008600057EC106BF1EE677A17EE900A06F0B2FDC6
:1008700041EC100B05F058F8002251EC100B694BBD
:1008800006F04AFC02460B460020664906F020FFAF
:1008900007F0D6F800220490624B3046394606F045
:1008A0003BFC02460B4600205E4906F011FF07F0B4
:1008B000C7F8002205905B4B2046294606F02CFC29
:1008C00002460B460020574906F002FF07F0B8F831
:1008D00000220EEE100A534B5046594606F01CFCFF
:1008E00002460B4600204F4906F0F2FE07F0A8F83A
:1008F00000220EEE900A4B4B51EC1F0B06F00CFC45
:1009000002460B460020474906F0E2FE07F098F841
:1009100000220FEE100A434BDDE9020106F0FCFB5A
:1009200002460B4600203F4906F0D2FE07F088F849
:1009300000220FEE900A3B4BDDE9000106F0ECFBD4
:1009400002460B460020374906F0C2FE07F078F851
:10095000DFED357A07EE100A6CEEA7CADFED337AC9
:10096000E7EE2C7A9FED327A2CEE07CA9FED317AB2
:10097000EFEE8C7A6BEE87BA9FED2F7AEFEE2B7A43
:100980002BEE07BA9FED2D7AEEEE8B7A6AEE87AAF0
:100990009FED2B7AEEEE2A7A6DEE87DA9DED057AE1
:1009A000E7EE2D7A9FED277A2DEE07DA9DED047A9A
:1009B000E7EE0D7A9FED247AEAEE077A9FED237A2F
:1009C000E9EE877A9FED227AE9EE077A9FED217AA8
:1009D000E8EE877A9FED207AE8EE077AF1EE677A03
:1009E00017EE900A06F0F6FC41EC100B04F09CFFA9
:1009F000002251EC100B0B4B06F08EFB02460B460F
:100A00000020084906F064FE07F01AF89FED130A6B
:100A100007EE900A27EE800A07B0BDEC108BBDE808
:100A2000F08F00BF0000F03FB8DD62C0D34A024142
:100A300022443EC080AB36C1E90DADC1B99314C0AC
:100A400007043DBF7DED57BF31FBD541879EDC419B
:100A5000C49AFB41724F6FC2EB2C14C20000C84213
:100A60009FEDF87ADFEDF87AE0EE077A2DE9F04FA6
:100A70009FEDF67AE0EE877A9FEDF57AE1EE077A60
:100A80009FEDF47AE1EE877A9FEDF37AE2EE077A52
:100A90009FEDF27AE2EE877A9FEDF17AE3EE077A44
:100AA0009FEDF07A77EE877A9FEDEF7A77EE877A8F
:100AB0009FEDEE7A77EE877A9FEDED7A77EE877A83
:100AC0009FEDEC7A2DED108B77EE877A89B0F1EE01
:100AD000677A17EE900AB0EE41AAF0EE619AB0EE96
:100AE000429AF0EE628AB0EE438AB0EE40BAF0EE7F
:100AF00060AA06F06FFC41EC100B04F015FF002219
:100B000051EC100BDC4B06F007FB02460B460020B5
:100B1000D94906F0DDFD06F093FF9FEDD87ADFEDB1
:100B2000D87AEBEE077A9FEDD77AEAEE877A9FEDD7
:100B3000D67AEAEE077A9FEDD57AE9EE877A9FEDCD
:100B4000D47AE9EE077A9FEDD37AE8EE877A9FEDC3
:100B5000D27AE8EE077A9FEDD17A77EEC77A9FEDE9
:100B6000D07A77EE877A9FEDCF7A77EE877A9FED0E
:100B7000CE7A77EEC77A9FEDCD7A77EE877A0BEE55
:100B8000900AF1EE677A17EE900A06F023FC41EC2A
:100B9000100B04F0C9FE002251EC100BB64B06F00E
:100BA000BBFA02460B460020B34906F091FD06F061
:100BB00047FF9FEDBF7ADFEDBF7AEBEE077A9FED3F
:100BC000BE7AEAEE877A9FEDBD7AEAEE077A9FED6C
:100BD000BC7AE9EE877A9FEDBB7AE9EE077A9FED62
:100BE000BA7AE8EE877A9FEDB97AE8EE077A9FED58
:100BF000B87A77EE877A9FEDB77A77EE877A9FEDAE
:100C0000B67A77EEC77A9FEDB57A77EE877A9FED61
:100C1000B47A77EEC77A0DEE100AF1EE677A17EE26
:100C2000900A06F0D7FB41EC100B04F07DFE002289
:100C300051EC100B904B06F06FFA02460B46002069
:100C40008D4906F045FD06F0FBFE9FEDA67ADFED2F
:100C5000A67AEBEE077A9FEDA57AEAEE877A9FED0A
:100C6000A47AEAEE077A9FEDA37AE9EE877A9FED00
:100C7000A27AE9EE077A9FEDA17AE8EE877A9FEDF6
:100C8000A07AE8EE077A9FED9F7A77EE877A9FED5C
:100C90009E7A77EE877A9FED9D7A77EE877A9FED41
:100CA0009C7A77EEC77A9FED9B7A77EEC77A0EEE45
:100CB000100AF1EE677A17EE900A06F08BFB41EC12
:100CC000100B04F031FE002251EC100B6A4B06F0C1
:100CD00023FA02460B460020674906F0F9FC06F0AD
:100CE000AFFE9FED8D7ADFED8D7AEBEE077A9FED0B
:100CF0008C7AEAEE877A9FED8B7AEAEE077A9FED9F
:100D00008A7AE9EE877A9FED897AE9EE077A9FED94
:100D1000887AE8EE877A9FED877AE8EE077A9FED8A
:100D2000867A77EE877A9FED857A77EEC77A9FEDA0
:100D3000847A77EE877A9FED837A77EE877A9FEDD4
:100D4000827A77EEC77A0DEE900AF1EE677A17EEA7
:100D5000900A06F03FFB41EC100B04F0E5FD002289
:100D600051EC100B444B06F0D7F902460B4600201D
:100D7000414906F0ADFC06F063FE9FED747ADFEDAD
:100D8000747AEBEE077A9FED737AEAEE877A9FED3D
:100D9000727AEAEE077A9FED717AE9EE877A9FED33
:100DA000707AE9EE077A9FED6F7AE8EE877A9FED29
:100DB0006E7AE8EE077A9FED6D7A77EE877A9FED8F
:100DC0006C7A77EEC77A9FED6B7A77EE877A9FED34
:100DD0006A7A77EE877A9FED697A77EEC77A0EEEB8
:100DE000900AF1EE677A17EE900A06F0F3FA41ECFA
:100DF000100B04F099FD9FED627ADFED627AEBEE65
:100E0000077A9FED617AEAEE877A9FED607AEAEEE3
:100E1000077A9FED5F7AE9EE877A9FED5E7AE9EED9
:100E2000077A9FED5D7AE8EE877A9FED5C7AE8EECF
:100E3000077A9FED5B7A77EE877A9FED5A7A77EEA5
:100E4000877A05E1DE37383E3EF4B33F4B34E93D67
:100E5000B16816BD33CFBF3D9918D3BDEE7E22BD1C
:100E6000977EA4BC54F0F53D171F3F3E06A0C53D3C
:100E7000697C413E72D5713E0000F03F7FDECFBC01
:100E80004A19813F1A954B3CACFB8F3C22AF413D48
:100E9000B9A9DF3D871486BD9F91A33D5EB5823D14
:100EA00061CA863D57FE8F3D0D6F2B3D69E45E3C68
:100EB000AFC4913D2302813F6F19623BDC1493BDA7
:100EC0005227AB3DC9A20E3CF368B73C4AFACE3D6F
:100ED0008E28633CA6D4CB3DFE470E3C6F08893B71
:100EE000AFFB8E3D8F688B3D47F4803F5B0A28BD8A
:100EF000EB287B3D08AF8F3D78AAA73C42C0A93CB8
:100F00006D1E523C205C8F3D2D5A5F3D229DAC3DB5
:100F1000E187193DB4788A3DE0AABA3D8214813F49
:100F2000172465BC92A541BDD6D4CD3CB186D13D38
:100F300097F108BD319EB63DCC92B93D37C3B93C5F
:100F4000057CA03D5F25F53D08353E3D492DD7BDCB
:100F5000F58D873FEE72CBBD9759F4BE903AE63ED1
:100F6000643F24BE8EF3813E17C0BBBD52329E3D0E
:100F7000E108653D283C2A3D514A953C661B7B3D76
:100F80005A0ADA3D86C2853F0791EB3D095E463E2F
:100F900026B9123E2F0A2B3EC7AB6D3D6C834FBD69
:100FA000EC6ED23DCA14683E3E6AF93D731FFD3DAA
:100FB000555A903E8EB9A33D894C853F56A8853E33
:100FC000E5EE713E329B803EE50E9C3DEA79CA3DDE
:100FD000C23B86BD601ABA3D19CA5F3E741EBA3D57
:100FE000C9400E3E418BFB3D5B7B653E69F5843F0E
:100FF000D205FD3D0A25083ED355643EA536B23BD9
:101000005D83DE3D0CB8DBBBA5C7273D790E353EC1
:101010003ACF243E9F985A3E2B3B253E6559D43DFE
:10102000E850853F1E70833EEE222D3ED350603E39
:10103000D206253E3A08053E8818CB3CD844693D87
:101040003914063E87FCFB3D7478273E8F5A4A3E92
:101050001FED2B7A77EE877A1FED2C7A77EE877A61
:101060001FED2D7A77EE877A5BEC10ABF1EE677AA5
:1010700017EE900A06F0AEF941EC100B04F054FCA8
:101080001FED347A5FED347AEBEE077A1FED357A97
:10109000EAEE877A1FED367AEAEE077A1FED377AA5
:1010A000E9EE877A1FED387AE9EE077A1FED397A93
:1010B000E8EE877A1FED3A7AE8EE077A1FED3B7A81
:1010C00077EE877A1FED3C7A77EE877A1FED3D7ACF
:1010D00077EE877A1FED3E7A77EE877A1FED3F7ABB
:1010E00077EE877A59EC108BF1EE677A17EE900A5B
:1010F00006F070F941EC100B04F016FC1FED467A77
:101100005FED467AEBEE077A1FED477AEAEE877AD3
:101110001FED487AEAEE077A1FED497AE9EE877A01
:101120001FED4A7AE9EE077A1FED4B7AE8EE877AEF
:101130001FED4C7AE8EE077A1FED4D7A77EE877A4D
:101140001FED4E7A77EE877A1FED4F7A77EE877A2A
:101150001FED507A77EE877A1FED517A77EE877A16
:1011600057EC106BF1EE677A17EE900A06F032F941
:1011700041EC100B04F0D8FB1FED587A5FED587A64
:10118000EBEE077A1FED597AEAEE877A1FED5A7A6D
:10119000EAEE077A1FED5B7AE9EE877A1FED5C7A5B
:1011A000E9EE077A1FED5D7AE8EE877A1FED5E7A49
:1011B000E8EE077A1FED5F7A77EE877A1FED607AA7
:1011C00077EE877A1FED617A77EE877A1FED627A84
:1011D00077EE877A1FED637A77EE877A55EC104BBE
:1011E000F1EE677A17EE900A06F0F4F841EC100B76
:1011F00004F09AFB0022F34BB0EE40CAF0EE60CA56
:101200005046594605F088FF02460B460020ED493E
:1012100006F05EFA06F014FC9FEDEB7ADFEDEB7A58
:1012200006EE900AE6EE877A9FEDE97A2BEE077AD2
:10123000EBEE877A9FEDE77A2AEE877AEBEE877AF4
:101240009FEDE57A2AEE077AEBEE877A9FEDE37A57
:1012500029EE877AEBEE877A9FEDE17A29EE077A1D
:10126000EBEE877A9FEDDF7A28EE877AEBEE877ACE
:101270009FEDDD7A28EE077AEBEE877AF1EE677A5A
:1012800017EE900A06F0A6F841EC100B04F04CFBA8
:10129000002251EC100BCB4B05F03EFF02460B46F3
:1012A0000020C84906F014FA06F0CAFB00220BEE33
:1012B000900AC44B4046494605F02EFF02460B46B5
:1012C0000020C04906F004FA06F0BAFB9FEDC77A89
:1012D000DFEDC77A06EE900AE6EE877A9FEDC57AD3
:1012E0002BEE077AEDEE077A9FEDC37A2AEE877A26
:1012F000EDEE077A9FEDC17A2AEE077AEDEE077AD6
:101300009FEDBF7A29EE877AEDEE077A9FEDBD7AE1
:1013100029EE077AEDEE077A9FEDBB7A28EE877A01
:10132000EDEE077A9FEDB97A28EE077AEDEE077AAF
:10133000F1EE677A17EE900A06F04CF841EC100BCC
:1013400004F0F2FA002251EC100B9E4B05F0E4FE83
:1013500002460B4600209B4906F0BAF906F070FBE6
:1013600000220DEE100A974B3046394605F0D4FEA8
:1013700002460B460020934906F0AAF906F060FBEE
:101380009FEDA37ADFEDA37A06EE900AE6EE877A68
:101390009FEDA17A2BEE077AEEEE077A9FED9F7A0A
:1013A0002AEE877AEEEE077A9FED9D7A2AEE077A8B
:1013B000EEEE077A9FED9B7A29EE877AEEEE077ABA
:1013C0009FED997A29EE077AEEEE077A9FED977AEC
:1013D00028EE877AEEEE077A9FED957A28EE077A67
:1013E000EEEE077AF1EE677A17EE900A05F0F2FF5B
:1013F00041EC100B04F098FA002251EC100B714BE9
:1014000005F08AFE02460B4600206E4906F060F9A0
:1014100006F016FB00220EEE100A6A4B2046294603
:1014200005F07AFE02460B460020664906F050F9A8
:1014300006F006FB9FED7F7ADFED7F7A06EE900ADD
:10144000E6EE877A9FED7D7A2BEE077AEDEE877ACE
:101450009FED7B7A2AEE877AEDEE877A9FED797A97
:101460002AEE077AEDEE877A9FED777A29EE877A72
:10147000EDEE877A9FED757A29EE077AEDEE877AA1
:101480009FED737A28EE877AEDEE877A9FED717A79
:1014900028EE077AEDEE877AF1EE677A17EE900A7A
:1014A00005F098FF41EC100B04F03EFA002251ECDD
:1014B000100B444B05F030FE02460B46002041491C
:1014C00006F006F906F0BCFA00220DEE900A3D4B3C
:1014D00051EC1C0B05F020FE02460B46002039495A
:1014E00006F0F6F806F0ACFA9FED5B7ADFED5B7A7A
:1014F00006EE900AE6EE877A9FED597A2BEE077A90
:10150000EEEE877A9FED577A2AEE877AEEEE877AAB
:101510009FED557A2AEE077AEEEE877A9FED537AA1
:1015200029EE877AEEEE877A9FED517A29EE077AD7
:10153000EEEE877A9FED4F7A28EE877AEEEE877A85
:101540009FED4D7A28EE077AEEEE877AF1EE677A14
:1015500017EE900A05F03EFF41EC100B04F0E4F9A1
:10156000002251EC100B174B05F0D6FD02460B463E
:101570000020144906F0ACF806F062FA9FED3F7ABD
:10158000DFED3F7AEBEE077A9FED3E7AEAEE877A5F
:101590009FED3D7AEAEE077A9FED3C7AE9EE877A95
:1015A0009FED3B7AE9EE077A9FED3A7AE8EE877A8B
:1015B0009FED397AE8EE077A9FED387AEBEE877A7D
:1015C000FCE000BF0000F03F50252541C785433FA8
:1015D000B2BFEA3E4B4FDD3EEB01C6BE1D49D33FD5
:1015E000C85608BE305C203F891C22BC5FF83841D9
:1015F000D0332F3E330F523E440F933EB1039F3EF4
:10160000653B383E3936403EC2D97F3EDE76853C6A
:1016100008943F4129E2213E1BC2613E0C9E833E5D
:101620001358633E9F44823ECA57FD3B83E79B3E6F
:10163000A247DA3D9B174541070C0D3E907E8F3E39
:101640004D7EB73EE03E7C3E359F823E8C75B63C7B
:1016500098B2013E2BF48E3DAF62414190D61F3EC1
:10166000BF4D563E8AF99B3EC8EF953E37E8783E1F
:10167000A5033F3D46535D3EED8597BDCC71D8BE79
:10168000FC98F33FCAF312BFD85D2DBF3BF44EBEAA
:101690001F2D34BFEA56D4BE268687BEDE1FBCBED1
:1016A000D559B5BE4036C3BEA136AFBE1F66DDBE3E
:1016B000EF97BA3F298B9640EC681741A7D3D741E3
:1016C000C4E5E0C1495D89BF840C9C4054F4DDBE93
:1016D0000B9C4BC0EA3C55C0026458C0060158C080
:1016E00017F857C0E88F9BBC424825407B11CC3E81
:1016F000560CEA3FE11F36C0E2BD1A3FE7E79CBF48
:1017000024680C3E4E640BBF72B224BF647B2CBFB6
:10171000F29510BFF24539BFC9A5313F433B9B400D
:10172000976EA440C8E27C41E48989C146F85ABF5B
:1017300001837840B32C00BE8CE114C0038015C037
:10174000B21719C0654813C0917016C0CA665F40D1
:101750007527814063EFA44056DD8741BC03ADC1CE
:10176000D09344400420ECC06C096BC002A495BF28
:101770008E849CBF803E92BFEC349DBFC3AB95BFAF
:10178000BF9F25BD1F8F803F53FDA73DDE00F33C6B
:101790006BC9FFBC1D02BE3CA986B0BD8BD5B63C53
:1017A000202AACBD076DB43D59605FBDE72BACBDD1
:1017B0002880373D1600F13ADFB1DC3D1FED487A55
:1017C000EDEE077A1FED497AEEEE077A1FED4A7AC1
:1017D000EDEE877A0CEE100A1FED4C7AECEE077AEC
:1017E000F1EE677A17EE900A05F0F4FD41EC100B6C
:1017F00004F09AF81FED527A5FED527AEBEE077A19
:101800001FED537AEAEE877A1FED547AEAEE077AF3
:101810001FED557AE9EE877A1FED567AE9EE077AE1
:101820001FED577AE8EE877A1FED587AE8EE077ACF
:101830001FED597AEBEE877A1FED5A7AEDEE077AB3
:101840001FED5B7AEEEE077A1FED5C7AEDEE877A9C
:101850001FED5D7AECEE077A8DED000BF1EE677A05
:1018600017EE900A05F0B6FD41EC100B04F05CF8A1
:101870001FED647A5FED647AEBEE077A1FED657A0F
:10188000EAEE877A1FED667AEAEE077A1FED677A4D
:10189000E9EE877A1FED687AE9EE077A1FED697A3B
:1018A000E8EE877A1FED6A7AE8EE077A1FED6B7A29
:1018B000EBEE877A1FED6C7AEDEE077A1FED6D7A0D
:1018C000EEEE077A1FED6E7AEDEE877A1FED6F7AF6
:1018D000ECEE077A8DED020BF1EE677A17EE900AC7
:1018E00005F078FD41EC100B04F01EF81FED767A40
:1018F0005FED767AB0EE40FAF0EE60FAEBEE077A42
:101900001FED797AEAEE877A1FED7A7AEAEE077AA6
:101910001FED7B7AE9EE877A1FED7C7AE9EE077A94
:101920001FED7D7AE8EE877A1FED7E7AE8EE077A82
:101930001FED7F7AEBEE877A1FED807AEDEE077A66
:101940001FED817AEEEE077A1FED827AEDEE877A4F
:101950001FED837AECEE077AF1EE677A17EE900AC4
:1019600005F038FD41EC100B03F0DEFF1FED897A26
:101970005FED897AEBEE077A1FED8A7AEAEE877AD5
:101980001FED8B7AEAEE077A1FED8C7AE9EE877A03
:101990001FED8D7AE9EE077A1FED8E7AE8EE877AF1
:1019A0001FED8F7AE8EE077A1FED907AEBEE877ADB
:1019B0001FED917AEDEE077A1FED927AEEEE077A3F
:1019C0001FED937AEDEE877A1FED947AECEE077AAD
:1019D0005BEC10ABF1EE677A17EE900A05F0FAFCBB
:1019E00041EC100B03F0A0FF1FED9B7A5FED9B7A9B
:1019F000EBEE077A1FED9C7AEAEE877A1FED9D7A6F
:101A0000EAEE077A1FED9E7AE9EE877A1FED9F7A5C
:101A1000E9EE077A1FEDA07AE8EE877A1FEDA17A4A
:101A2000E8EE077A1FEDA27AEBEE877A1FEDA37A34
:101A3000EDEE077A1FEDA47AEEEE077A1FEDA57A98
:101A4000EDEE877A1FEDA67AECEE077A1FEDA77A06
:101A500077EE877A1FEDA87A77EE877A55EC104BF0
:101A6000F1EE677A17EE900A05F0B4FC41EC100B2A
:101A700003F05AFF002251EC100BF74B05F04CFB22
:101A800002460B460020F44905F022FE05F0D8FF7F
:101A90009FEDF27ADFEDF27AEBEE077A9FEDF17AC5
:101AA000EAEE877A9FEDF07AEAEE077A9FEDEF7A19
:101AB000E9EE877A9FEDEE7AE9EE077A9FEDED7A0F
:101AC000E8EE877A9FEDEC7AE8EE077A9FEDEB7A05
:101AD000EBEE877A9FEDEA7AEDEE077A9FEDE97AF1
:101AE000EEEE077A9FEDE87AEDEE877A9FEDE77AE2
:101AF000ECEE077A9FEDE67A77EE877A9FEDE57A4E
:101B000077EEC77A0EEE900AF1EE677A17EE900A3A
:101B100005F060FC41EC100B03F006FF002251ECD5
:101B2000100BCD4B05F0F8FA02460B460020CA49CF
:101B300005F0CEFD05F084FF9FEDD77ADFEDD77A73
:101B4000EBEE077A9FEDD67AEAEE877A9FEDD57AAB
:101B5000EAEE077A9FEDD47AE9EE877A9FEDD37AA1
:101B6000E9EE077A9FEDD27AE8EE877A9FEDD17A97
:101B7000E8EE077A9FEDD07AEBEE877A9FEDCF7A89
:101B8000EDEE077A9FEDCE7AEEEE077A9FEDCD7AF5
:101B9000EDEE877A9FEDCC7AECEE077A9FEDCB7A6B
:101BA00077EE877A9FEDCA7A77EE877A0CEE900A05
:101BB000F1EE677A17EE900A05F00CFC41EC100B81
:101BC00003F0B2FE9FEDC37ADFEDC37AEBEE077A46
:101BD0009FEDC27AEAEE877A9FEDC17AEAEE077A44
:101BE0009FEDC07AE9EE877A9FEDBF7AE9EE077A3A
:101BF0009FEDBE7AE8EE877A9FEDBD7AE8EE077A30
:101C00009FEDBC7AEBEE877A9FEDBB7AEDEE077A1B
:101C10009FEDBA7AEEEE077A9FEDB97AEDEE877A0C
:101C20009FEDB87AECEE077A9FEDB77A77EE877A78
:101C30009FEDB67A77EE877A59EC108BF1EE677AE2
:101C400017EE900A05F0C6FB41EC100B03F06CFE9A
:101C50000022814B4046494657EC106B05F05CFA78
:101C600002460B4600207C4905F032FD05F0E8FEF7
:101C70009FEDA77ADFEDA77A06EE900AE6EE877A67
:101C80009FEDA57A2BEE077AEEEE877A9FEDA37A89
:101C90002AEE877AEEEE877A9FEDA17A2AEE077A0E
:101CA000EEEE877A9FED9F7A29EE877AEEEE877ABD
:101CB0009FED9D7A29EE077AEEEE877A9FED9B7A6B
:101CC00028EE877AEEEE877A9FED997A28EE077AEA
:101CD000EEEE877A9FED977A2BEE877AEEEE877A93
:101CE0009FED957A2DEE077AEEEE877A9FED937A47
:101CF0002EEE077AEEEE877A9FED917A2DEE877AB7
:101D0000EEEE877A9FED8F7A2CEE077AEEEE877AE9
:101D1000F1EE677A17EE900A05F05CFB41EC100BD0
:101D200003F002FE002251EC100B4B4B05F0F4F9CE
:101D300002460B460020484905F0CAFC05F080FE2B
:101D400000220EEE900A444B3046394605F0E4F985
:101D500002460B460020404905F0BAFC05F070FE33
:101D60009FED797ADFED797A06EE900AE6EE877AD2
:101D70009FED777A2BEE077AECEE877A9FED757AF6
:101D80002AEE877AECEE877A9FED737A2AEE077A4D
:101D9000ECEE877A9FED717A29EE877AECEE877AFE
:101DA0009FED6F7A29EE077AECEE877A9FED6D7AD8
