:020000021000EC
:10C000000000012081020200A9020200AB0202002E
:10C01000AD020200AF020200B10202000000000007
:10C02000000000000000000000000000B302020059
:10C03000B502020000000000B7020200B9020200CF
:10C04000BB020200BB020200790B0200BB0202002D
:10C05000F9F40100BB020200BB020200BB020200B5
:10C06000BB020200BB020200BB020200BB020200D4
:10C07000BB020200BB020200BB020200BB020200C4
:10C08000BB02020039030200BB020200BB02020035
:10C09000BB020200BB020200BB020200BB020200A4
:10C0A000BB020200BB020200BB020200BB02020094
:10C0B000BB020200BB020200000000000000000002
:10C0C000BB020200BB020200BB020200BB02020074
:10C0D000BB020200BB020200BB0202000000000023
:10C0E0000000000000000000000000000000000050
:10C0F0000000000000000000000000000000000040
:10C10000000000000000000000000000000000002F
:10C11000000000000000000000000000000000001F
:10C40000044B05481B1A062B02D9044B03B11847ED
:10C41000704700BF57210020542100200000000079
:10C4200005490648091A891001EBD171491002D05B
:10C43000034B03B1184770475421002054210020BA
:10C440000000000010B5064C237843B9FFF7D8FF71
:10C45000044B13B10448AFF300800123237010BDD7
:10C4600058210020000000000C4E020008B5084BC7
:10C470001BB108490848AFF300800848036813B9A6
:10C48000BDE80840CCE7064B002BF9D09847F7E70A
:10C49000000000005C2100200C4E02005021002012
:10C4A00000000000154B002B08BF134B9D46A3F561
:10C4B000803A00218B460F461348144A121A05F0A1
:10C4C00047FA0F4B002B00D098470E4B002B00D0A3
:10C4D00098470020002104000D000D48002802D0DC
:10C4E0000C48AFF3008005F0C9F92000290004F0E2
:10C4F00049FC05F09DF900BF000008000000012084
:10C50000000000000000000058210020302D002015
:10C5100000000000000000000D4B012210B51A6061
:10C520000C4B00221A600C4B1B78044653B10B498C
:10C530000B4804F075F8204600F0EAFF0146084871
:10C5400004F090F80A20BDE8104003F0E7BE00BFF9
:10C5500020220020142200207821002034440200F0
:10C56000BC2C00200C4A002310B513600B4A13604A
:10C570000B4B1B78044653B10A490B4804F050F8A2
:10C58000204600F0C5FF0146074804F06BF80A207A
:10C59000BDE8104003F0C2BE20220020142200207B
:10C5A000782100204F440200BC2C0020F0B5274B1E
:10C5B0001B7887B00C461BB12549264804F030F89B
:10C5C00023682046DB689847236806461B69204697
:10C5D000984721490746684604F026FB3546AB1BC1
:10C5E000DBB29F424FF010020CD915F8011B03A8D3
:10C5F00004F074FB03A9684604F098FB03A804F058
:10C60000D1FAECE700210098144D06F0AFF8144978
:10C610002860104804F00DF80A2229680D4804F03B
:10C620007DF823682046DB689847236805461B6928
:10C63000204698470146284601F00CFC0A2003F0EA
:10C640006DFE684604F0AEFA07B0F0BD7821002018
:10C650006D440200BC2C0020714602002022002004
:10C660009A44020010B5034B0360044600F094FFA7
:10C67000204610BD0C48020010B50446FFF7F2FF3B
:10C68000204604F093FB204610BD000010B5034B7C
:10C6900003600446FFF7E6FF204610BD0C4402008D
:10C6A00010B50446FFF7F2FF204604F07FFB20465A
:10C6B00010BD0000284B29481A684FF47A7393FB89
:10C6C000F2F307EE903A70B5F8EEE77A244B254D79
:10C6D000254CC3ED007A02F0B3FF1821284602F082
:10C6E00031FF22462149224E2846224D05F068F8A6
:10C6F000FF231A461946284601F080FA22461E49B1
:10C7000028461E4D05F05CF81D491E4801F040FB0F
:10C7100002221D49284601F043FB28461B4D2246B4
:10C72000314605F04DF808221949284601F038FB3A
:10C730002846184D2246314605F042F81222164985
:10C740002846142300F052FF224628461349BDE82C
:10C75000704005F035B800BF8C2000201822002062
:10C7600088210020C82300208020002051F50100EE
:10C770008DC601004C22002071DB01008C210020BD
:10C78000FD440200F023002002450200E0210020C9
:10C7900007450200B02100200C45020099D5010098
:10C7A00038B5054651B101290AD002290AD003291A
:10C7B0000AD0042914BF00242D2406E00C4604E00E
:10C7C0002A2402E02B2400E02C242146134802F006
:10C7D000E0FD2946114802F0F9FC012003F09EFD1E
:10C7E00000210E4802F0DFFD214603220B4802F033
:10C7F000CDFD012003F092FD084802F0F9FC04464B
:10C80000064802F0F5FC0546044802F0F1FC012060
:10C8100003F084FD44EA052080B238BDFC2B0020E3
:10C8200008B5FFF7BDFF07EE900AF8EE677A17EE3E
:10C83000900A04F03FFC0AA3D3E9002304F08EFC25
:10C8400004F06EFF04F036FC07A3D3E9002304F0E4
:10C85000D1FA04F065FF00EE100A08BDAFF30080C6
:10C860007B14AE47E17A943F666666666612714055
:10C8700008B501462720FFF7D3FFF2EE027A20EE3B
:10C88000270AF1EE047A80EE277ADFED057A77EE5B
:10C89000277A17EE900A04F00DFC41EC100B08BD4E
:10C8A0000000004208B501462620FFF7B9FFF2EE6E
:10C8B000027A20EE270AF1EE047A80EE277ADFED85
:10C8C000057A77EE277A17EE900A04F0F3FB41EC35
:10C8D000100B08BD000000422DE9F04FB24BB34CE5
:10C8E0002DED028BD4ED007A93ED008A97B037EEF0
:10C8F000888A03F0E3FC07EE900AF8EE677AB4EE5C
:10C90000E78AF1EE10FA40F11D8403F0D7FCA84B42
:10C9100007EE900A1A78F8EE677A9B46C4ED007A23
:10C92000DAB1A449A44803F09DFEA449A24803F04B
:10C9300080FE94ED007ADFEDA27AC7EE276A16EE4C
:10C94000900A04F0B7FB41EC100B02219A4803F067
:10C950008DFF9C49984803F085FE9B4B1A789A46B8
:10C96000BAB19A49944803F064FE03F0A7FC07EEBD
:10C97000900AB8EE677AD4ED007A77EE677A17EE10
:10C98000900A04F097FB41EC100B02218A4803F057
:10C9900070FF8F4800F088FF052003F0BFFC9AF875
:10C9A0000030BBB18B49844803F043FE03F086FCA2
:10C9B00007EE900AB8EE677AD4ED007A77EE677AE0
:10C9C00017EE900A04F076FB41EC100B02217A4836
:10C9D00003F04FFF1D2003F0F9FC7F4B7F4E1860E2
:10C9E000012805461F460AD13368092B07DC50236E
:10C9F00001460F20336003F0D7FC794B1D709BF884
:10CA0000003043B177496C4803F013FE0A223968BD
:10CA1000694803F083FE3568704B002D16DD704EBB
:10CA20003278013D1D604AB985B9022201210F20EB
:10CA30001A6003F0B9FC0123337007E035B91E22F8
:10CA400029460F201A6003F0AFFC35709AF80030C9
:10CA5000BBB16549584803F0ECFD03F02FFC07EE2D
:10CA6000900AB8EE677AD4ED007A77EE677A17EE1F
:10CA7000900A04F01FFB41EC100B02214E4803F01A
:10CA8000F8FE002159485A4DDFF8788102F0BCFDCC
:10CA9000B2EE048A20EE080A0121544885ED000A0E
:10CAA00002F0B2FD20EE080A0221504885ED010A8D
:10CAB00002F0AAFD20EE088A286885ED028A04F0BB
:10CAC000F9FAD5ED018A68EE087A0646E8EEA87A0A
:10CAD0000F4617EE900A04F0EDFA41EC100B02F04D
:10CAE000B3FFB0EE401AF0EE601A47EC106B02F0A4
:10CAF000A9FF29A3D3E9002351EC100B04F02EFB6E
:10CB0000F1EE487AC8E9000117EE900A04F0D2FA73
:10CB1000F1EE687ACDE9000117EE900A04F0CAFA46
:10CB20009DED001B41EC100B02F08CFF1AA3D3E922
:10CB3000002351EC100B04F011FB002206460F46B7
:10CB40002C4BD8E9000104F057F90022C8E9000194
:10CB5000294B3046394604F073FDCDF80880002893
:10CB600052D00FA3D3E900233046394604F044F9EC
:10CB70000022224B06460F4604F080FD18B9204BD8
:10CB8000C3E9006749E000221C4B3046394604F0F7
:10CB900031F93FE0AFF3008046DF617EDCA54C4019
:10CBA0000000000000207C4088210020302200206E
:10CBB000782100203C4B0200BC2C002011450200D3
:10CBC00000007A4418450200EC2300201B450200B7
:10CBD0004C2200203F450200E82300208420002052
:10CBE00048220020554502005E450200C82300206F
:10CBF000D421002000806640008056C0008076402E
:10CC000028220020802100200022C54B30463946D2
:10CC100004F0F2F8C34BC3E900019AF80030BBB14D
:10CC2000C149C24803F005FD03F048FB07EE900A36
:10CC3000B8EE677AD4ED007A77EE677A17EE900A4D
:10CC400004F038FA41EC100B0221B84803F011FE51
:10CC5000B74FB84B0093B8460026B9460136304668
:10CC60000393FFF71FFE51EC100B04F059FD48F839
:10CC7000040B3046FFF7FCFD51EC100B04F050FDA7
:10CC8000039B042E43F8040BE8D199ED017AD9ED0A
:10CC9000007AA94B9AF8002077EE877A99ED027A0C
:10CCA00077EE877A99ED037A77EE877AB5EE007A98
:10CCB00067EE877A9846C3ED007ABAB19F499B48E0
:10CCC00003F0B7FC03F0FAFA07EE900AB8EE677AC1
:10CCD000D4ED007A77EE677A17EE900A04F0EAF95D
:10CCE00041EC100B0221914803F0C3FD9BF800308A
:10CCF0001BB193498D4803F0B5FCDFF89492484688
:10CD000099F8026002F09EFD10FB06F6B6B207EE3F
:10CD1000906A9FED8C7A8C4B0393F8EE677A4846C5
:10CD200077EE677AC3ED007A02F092FC20B19BF8AF
:10CD30000030002B40F001829AF80030BBB18349EB
:10CD40007A4803F076FC03F0B9FA07EE900AB8EEE1
:10CD5000677AD4ED007A77EE677A17EE900A04F0DE
:10CD6000A9F941EC100B0221704803F082FD9BF8F9
:10CD70000030002B00F089806E4E4FF0000909F161
:10CD800001097349694803F054FC0A22494667487F
:10CD900003F0C2FC6F49654803F04BFC56F8040BE6
:10CDA00004F088F941EC100B0221604803F05EFDAD
:10CDB00069495E4803F03DFC0A2249465B4803F09E
:10CDC000ABFC6449594803F034FC57F8040B04F0F9
:10CDD00071F941EC100B0221544803F04AFDB9F1FE
:10CDE000040FCCD15D49514803F023FCD8F8000072
:10CDF00004F060F941EC100B02214C4803F036FDC1
:10CE000057494A4803F02EFC5649484803F011FCA4
:10CE1000286804F04FF941EC100B0221434803F05D
:10CE200025FD4F49414803F01DFC4F493F4803F0A1
:10CE300000FC686804F03EF941EC100B02213B480D
:10CE400003F014FD4649394803F00CFC47493748C4
:10CE500003F0EFFBA86804F02DF941EC100B022160
:10CE6000324803F003FD3E49304803F0FBFB4049E4
:10CE70002E4803F0DEFB344B186804F01BF941EC3C
:10CE8000100B0221294803F0F4FC264BD3E900895A
:10CE9000029BD3E9006703F029FA364B1B68C01ADE
:10CEA000354B1B689842C0F011814946404604F05A
:10CEB000EFFB0A22014604A803F0FEFE3946304685
:10CEC00004F0E6FB0A22014607A803F0F5FE9BF8F2
:10CED00000307BB12949154803F0ABFB07A9134883
:10CEE00003F0A2FB2649114803F0A3FB04A90F4855
:10CEF00003F0AEFB0AA8234900F0FEFC0AA800F0EC
:10CF0000F7FA002800F0D6809FED1F7ADFED1F6A48
:10CF10000DAB11AEF0EE475AB2EE006A3AE000BF38
:10CF2000008056402822002078450200BC2C0020BA
:10CF30000422002038220020E0230020984502002F
:10CF4000B145020000007F43E4230020CE450200EB
:10CF5000E945020020460200EC450200F3450200CC
:10CF6000604B0200FB450200034602000B46020034
:10CF700013460200342200207421002023460200C0
:10CF80003C4B02004C22002000008C420000CA42B0
:10CF900018220020009AF2EC017AF4EEC77AF1EE42
:10CFA00010FA009202D583ED007A08E0F4EEE67AFA
:10CFB000F1EE10FAD4BFC3ED007AC3ED006AD3EDF1
:10CFC000007A77EEE57A67EE867AE3EC017A9E42A4
:10CFD000E0D114220021304604F0BAFC5C4BD3E9C6
:10CFE000000104F07DFB029B8DF84400D3E90001B1
:10CFF00004F076FB039B8DF84500D3ED007A28689A
:10D00000FCEEE77A17EE903ADDED0D7A8DF84630BA
:10D01000FCEEE77A17EE903ADDED0E7A8DF84730A8
:10D02000FCEEE77A17EE903ADDED0F7A8DF8483096
:10D03000FCEEE77A17EE903ADDED107A8DF8493084
:10D04000FCEEE77A17EE903A8DF84A3004F032F8A9
:10D050000022404B03F0D0FE00223F4B04F07EF84C
:10D0600004F03EFB8DF84B00686804F023F80022C2
:10D07000384B03F0C1FE0022374B04F06FF804F088
:10D080002FFB8DF84C00A86804F014F80022314BF7
:10D0900003F0B2FE0022304B04F060F804F020FBF5
:10D0A00014228DF84D0031462C4800F08AFA0F20EA
:10D0B00003F034F92A4A2B4B11681B6807A80B446C
:10D0C000136003F06FFD04A803F06CFD9AF80030C4
:10D0D000BBB12549254803F0ACFA03F0EFF807EEA1
:10D0E000900AB8EE677AD4ED007A77EE677A17EE99
:10D0F000900A03F0DFFF41EC100B02211B4803F004
:10D10000B8FB9AF80030EBB11949184803F091FACE
:10D1100003F0D4F807EE900AB8EE677AD4ED007AFF
:10D1200077EE677A17EE900A03F0C4FF41EC100B1C
:10D1300002210E4803F09DFB04E00E490B4803F06A
:10D1400078FAF9E517B0BDEC028BBDE8F08F00BFAF
:10D15000282200200000F03F00005940B0210020AC
:10D16000342200207421002037460200BC2C00200D
:10D17000534602005F46020073B54FF4E1315F4849
:10D1800003F0C3FB5E4B1A781E461AB15D495B483B
:10D1900003F04FFA322003F0C1F85B485B4C02F019
:10D1A00059F8322003F0BAF85949544803F05AFAB2
:10D1B000204602F07DFB4FF4FA7003F0AFF82046F2
:10D1C00002F0E0FA64254FF4FA7003F0A7F8A580A6
:10D1D000284603F0A3F80221204602F0CDFA2846A3
:10D1E00003F09CF84B49454803F023FA4A4802F003
:10D1F000DCF90A220146414803F090FAC82003F006
:10D200008DF801210F2003F0ADF800210F2003F06D
:10D21000CBF800211D2003F0A5F80121082003F020
:10D22000A1F80021082003F0BFF83C493C4800F079
:10D2300046FB3A493A4800F0D2FC3A4800F021F95E
:10D240000146374800F038FB4FF6FF71344800F0D4
:10D25000C9FC3449324800F088FC3349304800F0BA
:10D2600084FC32492E4800F080FC31492C4800F003
:10D270007CFC304A2A48002100F04BFB2E4A28480B
:10D28000012100F046FB2D4A2D48002100F0E3F972
:10D290002A4A2C48002100F0DEF902A9002401F8F6
:10D2A000014D0122264800F08CF902A9012201F863
:10D2B000024D244800F085F9234B49F640421A609C
:10D2C00003F014F8214B1860154800F046FB337842
:10D2D0001BB11F49094803F0C5F91E4B1E4A1F49DF
:10D2E00018680023834203DA42F8041B0133F9E78C
:10D2F0004FF4FA7003F012F802B070BDBC2C00209D
:10D300007821002068460200FC2B00201822002013
:10D31000724602007F460200C823002098460200A1
:10D320004C220020F023002090210020E421002046
:10D33000B421002019C5010065C50100ADC501007B
:10D340008C210020E02100207421002034220020C4
:10D35000A246020088200020F82300207DFFC7425B
:10D3600038B50025057329B90B4B0C4A0C4823210D
:10D3700004F02CFA01600B4951F82220027151F897
:10D38000233083719DF8103051F82330437102230C
:10D39000C371856038BD00BFF9460200BC4602007B
:10D3A00007470200E8490200037B23B943738373F4
:10D3B00003610123037370471FB50DF1100E0EE9D1
:10D3C0000E009DF80810026800230129C2F80035FC
:10D3D000039B08D004D3032907D143F0040304E0DE
:10D3E00043F0020301E043F00603C2F85435019B09
:10D3F000C2F824350123C2F8003505B05DF804FBFE
:10D4000010B5FFF7D1FF03688279C3F80825427988
:10D41000C3F80C250279C3F81025034BBDE8104072
:10D420000ECBFFF7C9BF00BFC82B00200368C3F8AD
:10D430001C15D3F80821002AFBD0D3F818050022C8
:10D44000C3F80821C0B2704707B5094B09490A481B
:10D450004FF080421A6000229A6002221A71132350
:10D46000009314221223FFF77BFF03B05DF804FB47
:10D47000C82B002000300040D42B002001608280A7
:10D480007047006870478088704729DF704728DF41
:10D49000704703681868013018BF0120704708B54D
:10D4A0004FF080531A690368B3FBF2F31846FFF795
:10D4B000EEFF1128FAD008BD38B504460D461946CE
:10D4C000FFF7EDFF8B081A4629462068FFF7DDFFBE
:10D4D0001128F8D038BD10B502680846043A441A3D
:10D4E000A34204D952F8044F40F8044BF7E710BDAB
:10D4F00007B500230622694604300093ADF80430D6
:10D5000004F00CFA003018BF012003B05DF804FBF2
:10D5100010B5034C0430214600F05AFC204610BDE3
:10D52000E82B00200B6843608B8803817047002341
:10D5300043600381704708B50160FFF7F8FF08BD3D
:10D54000807A7047C0687047007C70470020704741
:10D55000C368585C704770B50D46114602680446B2
:10D56000D6691A46B0470123A374A36923B12146A3
:10D570002846BDE87040184770BD70B5044608469F
:10D580000D4605F051F82368C2B229462046DB69F2
:10D59000BDE8704018470000044B10B50446036016
:10D5A000C06808B104F0B2F9204610BD7847020007
:10D5B00010B50446FFF7F0FF204603F0F7FB2046C6
:10D5C00010BD10B5837A9A42044628BF1A460274E9
:10D5D000C06804F0B2F9606928B1036821461B688D
:10D5E000BDE810401847012010BD000070B504468A
:10D5F0001D461646043042F6030200F08FF8142D43
:10D600004FF0000228460A4B236028BF1420A07266
:10D61000E26022746674A274E2746261A261E261E3
:10D62000226215B104F06AF9E060204670BD00BFC7
:10D6300078470200407C7047C07C70470346002A50
:10D64000DA7414BF07220822084653F822200AB1D0
:10D650001946104770470B299CBF063140F821201E
:10D6600070474161704770477047704700207047AE
:10D6700070477047002070470020704700207047B7
:10D68000002070470020704700207047002070473E
:10D69000002070470020704700207047002070472E
:10D6A00000207047704770477047704710B50446B8
:10D6B00003F07CFB204610BD054A02606422828094
:10D6C00001210022C28002818172C2600261704722
:10D6D000A8470200016170470120704710B5034B55
:10D6E00003600446FFF758FF204610BD0C480200B7
:10D6F00010B50446FFF7F2FF204603F057FB204623
:10D7000010BD000038B504461D46FFF76FFF024B01
:10D7100025742360204638BD0C48020010B504462D
:10D72000FFF7ACFE024A137801331370204610BD98
:10D73000FA2B0020014B1878704700BFFA2B00200D
:10D74000C06803681B6A1847A0F10400FFF7F8BF20
:10D75000C06803685B6A1847A0F10400FFF7F8BFD0
:10D76000C06803689B6A1847A0F10400FFF7F8BF80
:10D77000C0680368DB6A1847A0F10400FFF7F8BF30
:10D78000C06803681B6B1847A0F10800FFF7F8BFDB
:10D79000C06803685B6B1847A0F10800FFF7F8BF8B
:10D7A000C06803689B6B1847A0F10800FFF7F8BF3B
:10D7B000C06810B40468E46BA4465DF8044B60478D
:10D7C000A0F10800FFF7F4BFC06803681B6C18479E
:10D7D000A0F10800FFF7F8BFC06803685B6C18474A
:10D7E000A0F10800FFF7F8BFC06803689B6C1847FA
:10D7F000A0F10800FFF7F8BFC0680368DB6C1847AA
:10D80000A0F10800FFF7F8BFD0F8743113B100F5AC
:10D81000B07018477047D0F8783113B100F5B07088
:10D820001847704730B414461A4623685D6A9DF85D
:10D83000083000F5B071AC46204630BC60477047F8
:10D84000704770B5054600F5B07411462046FFF7E5
:10D8500069FED5F86C311BB12046BDE87040184711
:10D8600070BDD0F8703110B500F5B0740BB1204622
:10D8700098472046BDE81040FFF759BE10B4144643
:10D8800000F5B0711A4620465DF8044BFFF7D6BE8E
:10D8900010B4144600F5B0711A4620469DF80430C5
:10D8A0005DF8044B00F056BAC0680368DB6818479F
:10D8B000C06803681B691847C0F88C107047C0F82F
:10D8C0009C10704738B5D0F8A83004460D463BB9D7
:10D8D00000F01CFA00B2800004F010F8C4F8A800B0
:10D8E00094F8AC20D4F8A83043F8225094F8AC3027
:10D8F000013384F8AC3038BD38B505460C460846CF
:10D90000FFF7D2FF04F5B07107C985E80700284684
:10D9100038BD0F299CBF00EB8100C0F86C21704717
:10D9200010B50446FFF706FF00B2800003F0E6FFE3
:10D9300004F1B003036004F1BC03436004F1E003AD
:10D94000836004F58073C36004F586730361052367
:10D9500084F8A430C4F8A00010BD2DE9F043D0F83D
:10D960009010ADB0002304468DF83030E1B106A828
:10D9700000F096FA06A800F0C5FA022805468CBF0A
:10D98000152314238DF8500006A88DF8513000F0AF
:10D99000B7FA2A460146C5F11A050DF1520003F007
:10D9A000CCFFEDB2012601E01C250E46D4F88C1008
:10D9B00031B306A800F074FA06A800F0A3FA431CDD
:10D9C000AB4207461CDAC6EB46182CAB4344022890
:10D9D0008CBF0622022203F8600C03F85F2C06A815
:10D9E00000F08EFA2CAB984401463A46A8F15E004E
:10D9F000023D03F0A2FF0136ED1BF6B205F0FF0574
:10DA0000D4F89410C9B194F89820B2B1022D14D969
:10DA1000531CAB42C6EB46102CAB0344A4BF023DE3
:10DA2000EAB2FF2503F8602C03F85F5C2CAB1844C6
:10DA30005E3803F082FF0136F6B2D4F89C50BDB1D7
:10DA4000284604F0F1FDC0B21D288ABF1D238DF8C1
:10DA500030008DF830309DF8302090428CBF082087
:10DA600009208DF8310029460DF1320003F065FFE1
:10DA7000D4F8A03013B92046FFF752FF002742F632
:10DA8000030804F1040994F8A4309F4205DB002741
:10DA900042F6030804F108091BE0D4F8A03053F85B
:10DAA00027502846FFF7EFFC404506D10DB1281F4F
:10DAB00000E028464946FFF7D4FD0137E3E7D4F8F4
:10DAC000A83053F827502846FFF7DDFC404505D025
:10DAD000013794F8AC309F42F1DB07E00DB1281F0D
:10DAE00000E02846494600F049F9F1E74BB104F55A
:10DAF00096712046FFF7E6FE04F59C712046FFF77D
:10DB0000E1FEE06894F8AC1002680491D4F8A81023
:10DB1000039194F8A41002919DF83030D4F8A0102D
:10DB200001910CA90033009118BF0123956831467B
:10DB300014AAA847E06803681B6D98472DB0BDE89C
:10DB4000F08338B5D0F8A03004460D460BB9FFF786
:10DB5000E7FE94F8A420D4F8A03043F8225094F8BB
:10DB6000A430013384F8A43038BDFFF7EABF0000C9
:10DB7000154B10B503F16802036004468033426020
:10DB80008360FFF795FED4F8A80008B103F0BEFE4D
:10DB9000D4F8A00008B103F0B9FE04F59A7000F0C3
:10DBA000BBF804F58470FFF7F7FC04F1DC00FFF725
:10DBB000F3FC04F1B800FFF7EFFC04F1100000F0F3
:10DBC00083FE204610BD00BF6048020010B5044629
:10DBD000FFF7CEFF204603F0E9F8204610BDB8302D
:10DBE000FFF7CBBC07B502AB022223F8021DDC30E5
:10DBF0001946FFF7E6FC03B05DF804FB2DE9F84396
:10DC0000354BDFF8E890DFF8E88003F108020446BE
:10DC1000026000F1100703F17002883300254260B2
:10DC20008360384601F08CFA04F1B806C4F88C50D1
:10DC3000C4F89050C4F8945084F89850C4F89C509C
:10DC4000C4F8A05084F8A450C4F8A85084F8AC508C
:10DC5000224904F1B00000F09BF81323022220496E
:10DC60003046FFF7C3FC02231A461E4904F1DC00CC
:10DC7000FFF7BCFC494604F5807000F089F80423E6
:10DC80002022414604F58470FFF7B0FC494604F5B4
:10DC9000967000F075F82022414604F59A7000F065
:10DCA00043F8214604F5B070FFF745FC10222946E1
:10DCB000E76004F5B67003F04BFE0B493046FFF702
:10DCC0005CFC29462046FFF78DFFE0682146FFF700
:10DCD00001FD2046BDE8F8835848020034480200A0
:10DCE000394802003E4802004D4802004348020005
:10DCF0004848020010B50446FFF7C0FB024A1378FB
:10DD000001331370204610BDFB2B0020014B187807
:10DD1000704700BFFB2B0020704710B5044603F08E
:10DD200045F8204610BD000038B5044615460430BD
:10DD300042F60302FFF7DEFF054B23600023A572C6
:10DD4000E372A36284F822306362204638BD00BFCC
:10DD50000849020070B50446C3720D460C301146E6
:10DD60001A4603F0EAFD012384F82230A36A23B1A6
:10DD700021462846BDE87040184770BD4162704793
:10DD800010B54FF420520446FFF7B4FF204610BDF3
:10DD900010B54FF420520446FFF7C0FC204610BDDA
:10DDA00013B501230446FFF7ADFC02A9064B23601F
:10DDB000002301F8013D01222046FFF702FC034B3E
:10DDC0002360204602B010BD184902000C44020036
:10DDD00070B58AB004460E4601A81B4902F024FF24
:10DDE000194904A802F020FF0634052514F8013D66
:10DDF0000F2B03D8154901A802F09CFF10222178AF
:10DE000007A802F06BFF07A904A802F03CFF07A8CF
:10DE100002F0C8FE04A901A802F088FF1DB10C4958
:10DE200001A802F087FF15F1FF35DFD2002312228F
:10DE3000314601A802F08DFF04A802F0B3FE01A84C
:10DE400002F0B0FE0AB070BD71460200004502004B
:10DE500040490200F8B505460F460446631B9F4241
:10DE600013DD237813F0F00F264603D109490A4841
:10DE700002F0DFFB31780848102202F029FC074944
:10DE80000548013402F0D5FBE8E70348BDE8F84057
:10DE900002F0D6BB00450200BC2C00203C4B020027
:10DEA000F7B5044600232160037508460E468DF839
:10DEB00004308DF805308DF8063004F0B5FB451EB2
:10DEC000002D1ADB277D0F2F17D8735D2D2B01D165
:10DED000013510E07219002112F8012C8DF8042090
:10DEE00001A810228DF8053004F0C8FC27443871D1
:10DEF000237D01332375023DE2E7204603B0F0BDE8
:10DF000004307047007D704771DF704772DF7047E3
:10DF100073DF704775DF704776DF704777DF7047D4
:10DF200078DF70477ADF70477CDF70477EDF7047AD
:10DF30007FDF704786DF704790DF704792DF704762
:10DF400096DF704798DF704799DF7047A0DF704712
:10DF5000A2DF7047A3DF7047A4DF7047A6DF7047DA
:10DF6000A9DF704760DF704761DF704762DF70478D
:10DF700063DF704753DF704710DF704711DF704772
:10DF800090F86000003018BF0120704770B590F81D
:10DF900071600023B34214DA1A01456FAC18AA5815
:10DFA0008A420CD1E38973B1227B02F0020202F0B3
:10DFB000FF0342B190F8780080F0010070BD01339A
:10DFC000E8E7002070BD184670BD70B590F871602C
:10DFD0000023B3421ADA1A01456FAC18AA588A42D4
:10DFE00012D1E189A1B1227B02F0020202F0FF030B
:10DFF00082B1012380F878300022808FFFF7A0FFE4
:10E00000B0FA80F0400970BD0133E2E7002070BD36
:10E01000084670BD184670BD70B590F87160002359
:10E02000B3421CDA1A01456FAC18AA588A4214D1BF
:10E03000E389B3B1227B130704D590F8780080F010
:10E04000010070BD02F0040202F0FF034AB190F833
:10E050006000003018BF012070BD0133E0E70020F0
:10E0600070BD184670BDF0B590F871E085B0002421
:10E0700074452FDA2501476F7E197D598D4227D1CE
:10E08000F4894CB3357B15F00C0127D090F8601063
:10E0900021B315F0080F14BF01250225ADF80A3091
:10E0A0000139012380F860108DF8045080F8783031
:10E0B000002501A9808F8DF80550ADF80640ADF818
:10E0C00008500392FFF73EFFB0FA80F0400906E0E7
:10E0D0000134CDE7002002E0204600E0084605B00C
:10E0E000F0BD70B590F871600023B34210DA1A01E8
:10E0F000456FAC18AA588A4208D1E08948B1237B01
:10E1000013F0300F14BF0120002070BD0133ECE785
:10E11000002070BD7FB590F871600023B3422EDA05
:10E120001A01456FAC18AA588A4226D1E28942B337
:10E13000217B11F0300326D0012311F0100F14BF02
:10E14000194602211A44ADF80210ADF8062000214C
:10E1500002228DF80510ADF80810ADF80A2080F8FD
:10E1600078306A4401A9808F8DF804300392FFF75C
:10E17000E9FEB0FA80F0400906E00133CEE7002066
:10E1800002E0104600E0184604B070BD03681B6C46
:10E1900018477FB590F871600023B3422ADA1A015C
:10E1A000456FAC18AA588A4222D1E28922B3237B58
:10E1B00013F030034FF0000120D001231A44ADF8D2
:10E1C00006200222ADF802108DF80510ADF80810F7
:10E1D000ADF80A2080F878306A4401A9808F8DF864
:10E1E00004300392FFF7AEFEB0FA80F0400906E07B
:10E1F0000133D2E7002002E0104600E0184604B0E8
:10E2000070BD11F1270F08B514DB11F11D0F14DBE0
:10E2100011F1130F14DB11F10F0F14DB11F10B0FC0
:10E2200014DBCA1D15DBCB1C16DB0029D4BF002074
:10E23000042013E06FF0270010E06FF01D000DE0E8
:10E240006FF013000AE06FF00F0007E06FF00B00B3
:10E2500004E06FF0070001E06FF00300FFF75EFEDF
:10E26000B0FA80F0400908BD1321808FFFF754BE3B
:10E2700007B501466846FFF747FE086920B1036805
:10E280000DF10102DB69984703B05DF804FB000063
:10E2900013B5044602A8002340F8043DFFF76AFEC8
:10E2A000019802F0F5FE084B002202F057FF03F040
:10E2B00037FA236933B11A6800EE100A126A214650
:10E2C0001846904702B010BD0000D03F704710B50F
:10E2D000044686B018220021684603F039FBA37A71
:10E2E00033B994F83430002B14BF0223032300E029
:10E2F00000238DF80030A38868460A221B0193FB97
:10E30000F2F3ADF81030FFF703FE06B010BD2DE9B3
:10E31000F043054690F861008FB00C4600231426A8
:10E3200083425DDA06FB03F2696E8F188A58A242B7
:10E3300007D12046FFF77EF9C30751D57B6813B993
:10E340004EE00133ECE795F833600DF118083246E2
:10E3500005F11401404603F0F0FA236820461B69DA
:10E36000984704300644F6B21F2E39D87868FFF774
:10E3700088F801466846FFF793FD236895F83370E7
:10E380001B69204698470EAB1F44033007F8200C4A
:10E3900095F833703B441622684603F81F2CFFF7AC
:10E3A000AFFD0237038828F80730236895F83370EB
:10E3B000DB6820469847236881461B6920469847BA
:10E3C0000437474402464946384603F0B6FA00236C
:10E3D0001A4631464046FFF799FDAC63012000E044
:10E3E00000200FB0BDE8F0832DE9F047D4B04FF422
:10E3F0008E7304460DF10A010DA8ADF80A30FFF73F
:10E40000B3FD0346002840F04482BDF83420302A92
:10E4100000F03C8111D8112A5CD004D8012A21D007
:10E42000102A27D035E2142A00F0C780192A00F0FC
:10E43000D080132A40F02D829BE0382A00F0DA8148
:10E4400006D8322A00F06481362A00F0BA8120E230
:10E45000502A00F0D180522A00F01281392A40F06F
:10E460001882ECE194F860209DF83C30134484F865
:10E4700060300EE2BDF83800A08705A9FFF776FDF1
:10E4800020699DF8143084F8603028B103680DF1DC
:10E490003D021B6821469847E288052A12D9238944
:10E4A000B3F5486F0ED8ADF816300023ADF818302C
:10E4B00005A94FF4C873A08FADF81420ADF81A3039
:10E4C000FFF728FD94F86830002B00F0E28100226D
:10E4D000012109E14FF6FF72A28784F8600005462A
:10E4E0004FF01409804694F861309D4216DA676E49
:10E4F00009FB05F6BB19B85983F8108083F8118021
:10E50000FFF79AF840B1206930B10368BA59D3F8DF
:10E5100014A021460023D0470135E4E7206918B153
:10E52000036821465B68984700230C20194694F83D
:10E530006820934202DB0023184605E0E26E00FBF0
:10E54000032201339160F2E794F87120934208DAD4
:10E55000616F1A01114401330873616F0A44D0815D
:10E56000F2E7002384F87830236820469B699847B7
:10E570008FE1E068002800F08681FEF78AFF00281E
:10E5800040F08181012303228DF80F3062F30613DE
:10E590008DF80C3007238DF80D30102300218DF8F5
:10E5A0000E30E36D05938DF8101009910A910B91CF
:10E5B0000691079105AB03AA68E1E16DBDF844201F
:10E5C000488A904218BF1946A08F1A46FFF7B2FC3E
:10E5D0005FE19DF83C20002A40F05B81E06820B1BB
:10E5E0001C2304F14001FEF767FF2069002800F0BA
:10E5F000508103689B68E1E0BDF83A8006464FF021
:10E60000140994F861309E4280F24381616E09FBE7
:10E6100006F3CF183A8942450CD12069002800F052
:10E62000388103689DF8442000921D693A680DF115
:10E63000460323E1BA89424520D19DF847009DF861
:10E64000462042EA002295B202F001023A74C5F374
:10E6500040027A7415F00305C85818BF0125FEF76B
:10E66000EBFFA8420AD02069002800F0128103685D
:10E670003A685E6921462B46B0470AE10136C0E799
:10E6800002460146A08FFFF76BFC02E1BDF83A207D
:10E6900072BBBDF840500DA913460C26AB421CDAE4
:10E6A00094F868700020B84214DAE26E91F810C055
:10E6B00006FB002292F806E0F44509D1B1F80EC03D
:10E6C000B2F804E0F44503D1D1F81200906001E003
:10E6D0000130E8E701330831E0E70DAB03EBC50596
:10E6E0000022A989013189B2A08FFFF725FCD0E073
:10E6F00094F868200C20934280F2CB80E16E00FBFE
:10E7000003110D8915B14D89002D4BD10133F2E76D
:10E71000BDF83A2094F87030002A36D1E66E03EB4B
:10E72000430306EB83030A259B6805930DAB9A8987
:10E7300005FB0235AB4223D0002194F871209142B1
:10E7400019DA626F94F8700002EB011200EB4000DE
:10E7500056F82070506887420BD11F7C907A874210
:10E7600007D11089DF89874201BF987C1073D88A4E
:10E77000D0810131E1E7DA8AADF814200A33D9E714
:10E7800005A9A08FFFF7DAFB83E001330C2294F890
:10E7900068005A4383420CDAE16E11440D892DB1B1
:10E7A0004D891DB184F870300831EAE701330C322D
:10E7B000F0E7206900286CD00368DB6821469847A1
:10E7C00067E0BDF83A1084F8780040F205129142F3
:10E7D00001D1E268CAB9BDF8401094F87100002375
:10E7E000834256DA626F02EB0312D5898D423BD029
:10E7F0000133F5E7BDF83A1084F8780040F20512CD
:10E80000914246D1E268002A43D01A0E8DF81830A2
:10E8100042F00102DBB28DF8172043F0010303221E
:10E8200062F306138DF8143007238DF8153005A90F
:10E830001023A08F8DF81630FFF778FB29E09DF8A4
:10E840004230BDF84050022B03D12946A08FFFF77C
:10E850007BFB94F8711000238B421ADA626F02EB93
:10E860000312D089A8420CD1206990B19DF84410C0
:10E870000368009112689D690DF146032146A8477F
:10E8800007E00133E8E700231A468521A08FFFF750
:10E890004FFB54B0BDE8F08710B50446FFF76EFBA0
:10E8A000606F08B103F032F8E06E08B103F02EF8A3
:10E8B000606E08B103F02AF8002384F8613084F810
:10E8C000683084F8713010BD10B5054B0360044604
:10E8D000FFF7E2FF2046FEF7E8FE204610BD00BF2E
:10E8E0005049020010B50446FFF7EEFF204602F043
:10E8F0005DFA204610BD07B51288ADF80020ADF8CE
:10E9000002106A4601464FF6FF700193FFF724FBA1
:10E9100003B05DF804FB00002DE9F04FEDB09A461E
:10E920009DF8E8310193A24B769E9DF8E081054663
:10E93000186808900F4608A800211446FFF71CFB32
:10E940009C4B0993142200210DA803F001F80A231F
:10E9500009A9ADF834300DA801238DF840308DF8A9
:10E960003C30FFF7FFFA2822ADF82C205022ADF8FA
:10E970002E204FF000094FF4C8720BA8ADF83220DA
:10E98000ADF83090FFF7CEFA4846FFF7C7FA6B753F
:10E9900006230222AB7503232A7585F833301FB393
:10E9A00014B31444B9451FDA95F8330014F8023C47
:10E9B0002A1801331375023014F8013C5375C0B2A4
:10E9C00085F83300284414F8022C2146143002F054
:10E9D000B4FF14F8023C95F83320134485F8333023
:10E9E00009F101091F34DDE724AFBAF1000F20D08F
:10E9F0000EB34FF0000902364B46D1451CDA16F82B
:10EA000002BC16F8011C0BF10102FA549C1CFA1806
:10EA1000E4B2517038195A46314602F08EFF5C4418
:10EA20004FF00102E3B285F8342009F101091F36E5
:10EA3000E3E7534600E033463A4695F8331005F1D4
:10EA40001400FFF763FA0020FFF76AFA002442F689
:10EA5000030644450DDA779B53F82400FEF713FDB7
:10EA6000B04202BF95F86130013385F8613001345E
:10EA7000EFE795F861000338C0B285F8610000EB5C
:10EA80008000800002F03AFF00266866ADF814604E
:10EA90000296B146464580F2BE81779B53F82640E8
:10EAA0002046FEF7EEFC014617A8FFF7F9F917A874
:10EAB000FFF726FA074617A8FFF724FA022809D11C
:10EAC0007A783B7843EA0223ADF8283001238DF8A9
:10EAD0002A301CE03B460DF1B00E07F1100C18680F
:10EAE0005968724603C2083363459646F7D17A7B6C
:10EAF0003B7B43EA0223ADF828300DF12A010023C5
:10EB00002CA88DF8BD308DF8BC30FFF731FA2046C7
:10EB1000FEF7B9FCB0F5205F204611D1FEF7B1FC3D
:10EB2000254903F06FFD002800F073812046FEF7B1
:10EB3000A8FC224903F066FD002800F06A8131E25A
:10EB4000FEF7A1FC42F60303984240F0358104B180
:10EB5000043C271D3846FEF794FC194903F052FD8A
:10EB6000B8B99DF8B030012262F3030362F30713D2
:10EB70008DF8B03023682046DB6898472368074645
:10EB80001B6920469847394682B22CA8FFF7CCF97A
:10EB90003FE13846FEF775FC0A4903F033FD98B9AA
:10EBA00023682046DB6898470088FFF7B9F930E111
:10EBB00042490200802000203448020043480200FD
:10EBC000394802003E4802003846FEF75AFCC14967
:10EBD00003F018FD002800F01C812046FEF72AFDF6
:10EBE000236882461B69204698476A6EADF8160076
:10EBF00009EB89014FEA810B02EB0B0342F821403C
:10EC00000027029A5A601F745F741C2239461DA89F
:10EC100002F09EFE2AF001031AF0300F8DF87430D6
:10EC200010D00123194663F307118DF81810194607
:10EC300006AA63F3071163F342078DF819108DF8E4
:10EC40001A70229200231AF0320FADF81C308DF8A2
:10EC50001E300BD09DF81C30E968012262F30303DB
:10EC600001B1022262F307138DF81C301AF00C0F69
:10EC700010D0EB6801222BB19DF81D3062F3030325
:10EC8000022203E09DF81D3062F3030362F30713D1
:10EC90008DF81D309DF81E30012262F342038DF87D
:10ECA0001E30236820469B6998479DF81E3080F0EF
:10ECB000010060F300038DF81E30771C47453CDAF5
:10ECC000779B53F827A05046FEF7DDFBB0F5245F95
:10ECD00033D1BAF1000F01D0AAF1040A0AF10403FA
:10ECE00018460393FEF7CDFB7B4903F08BFC039B97
:10ECF000A0B9DAF8003050469B6898471E90DAF8C1
:10ED000000305046DB689847DAF80030ADF87C00F8
:10ED1000DB6850469847ADF87E000CE01846FEF7D9
:10ED2000B0FB6E4903F06EFC28B9DAF800305046AB
:10ED30009B68984720900137C0E71422002112A851
:10ED400002F006FE0DF1160A0AAB129307AB1393FD
:10ED5000BAF80030ADF85030236820469B689847D9
:10ED60006B6EADF8540000275B44083312AA1DA94E
:10ED700038461697FFF7ECF8BAF80030BBB12CAB69
:10ED8000BAF800200393974208DA2268394652699C
:10ED900020469047039BD8550137F1E76B6E9B44A3
:10EDA00052462CAB0021BBF80800FFF7A4FD09F187
:10EDB00001095FFA89F92CE02046FEF764FBB0F503
:10EDC000245F26D104B1043C271D3846FEF759FBC9
:10EDD000414903F017FCE0B13846FEF752FB4049C9
:10EDE00003F010FCA8B13846FEF74BFB3D4903F099
:10EDF00009FC70B13846FEF744FB384903F002FCC9
:10EE000038B1D6E02CAB52460021BDF81400FFF714
:10EE100072FD01363EE6019B23B3A3F102085FFABF
:10EE200088F6002442F60307B442B0461CDA799B08
:10EE300053F824804046FEF726FBB0F5205F05D14D
:10EE400095F86830013385F8683009E04046FEF7F0
:10EE50001AFBB84202BF95F87130013385F8713062
:10EE60000134E1E7DDF8048095F8680000EB40002C
:10EE7000800002F043FDE86695F87100000102F0A1
:10EE80003DFDDDF8E4916867002609EB8808374608
:10EE9000B246C14579D059F8044B2046FEF7F1FA45
:10EEA00001462CA8FEF7FCFF2CA8FFF729F88346A3
:10EEB0002CA8FFF727F8022816D19BF801209BF811
:10EEC000003043EA0223ADF85C3001238DF85E3058
:10EED00029E000BF48480200AC490200B1490200E5
:10EEE000B6490200BB4902005B460DF1740E0BF1FE
:10EEF000100C18685968724603C208336345964679
:10EF0000F7D19BF80D209BF80C3043EA0223ADF8B3
:10EF10005C300DF15E0100231DA88DF881308DF865
:10EF20008030FFF725F82046FEF7ADFAB0F5205FF8
:10EF300010D1EA6E07EB47018B00D01842F8214050
:10EF4000179A4260EA6E1344013700229A60FFB2BA
:10EF5000A2469EE72046FEF796FA42F60303984241
:10EF600097D1696F3301CA1804B1043CCC50C2F880
:10EF700004A0179991606A6F1A44002111736A6F97
:10EF800013440136D981F6B283E7E86818B1FEF779
:10EF900080FA002865D12B6828469B6998476DB098
:10EFA000BDE8F08F05AA0AA90120FEF7CFFF029461
:10EFB0002FE723682046DB68984712AF1422002110
:10EFC000ADF81C001DA802F0C3FC4FF0010A00239D
:10EFD0003B806AF34203BB7023682046DB68984796
:10EFE000BDF81C10BB78EA6880B2401A18BF012037
:10EFF00060F30003BB703B782AB16AF3030302227B
:10F0000062F3071303E06AF303036AF307133B7029
:10F010000AAB1E971D932368ADF87C10DB68204671
:10F02000984700270DF11C0AADF8800005AA1DA91C
:10F0300038462197FEF78EFFBAF80030002B3FF4D8
:10F04000E8AE0DF1B00BBAF800309F42BFF6DAAE71
:10F05000236839461B69204698470BF8070001379B
:10F06000F1E71C23002205F14001E868FEF733FABE
:10F0700091E700BF2DE9F04F87B004460D4600260A
:10F0800001274FF014090DF1060894F861309E42F3
:10F0900052DA09FB06F3626E02EB030AD358AB4265
:10F0A00048D1A36B9D4204D1236829465B6A204660
:10F0B00098472B6828461B6998472B68ADF80600CF
:10F0C000DB68BAF808B02846984742460346002154
:10F0D0005846FFF710FC1022002102A802F038FC6D
:10F0E000BAF80830ADF808309AF81030CDF8108032
:10F0F00073B194F8603053B1013B84F8603002A9D9
:10F100000123A08F8DF80A30FEF728FF00E01F468C
:10F110009AF8113073B194F8603053B1013B84F820
:10F12000603002A90223A08F8DF80A30FEF716FF87
:10F1300000E01F460136A8E7384607B0BDE8F08F6B
:10F1400010B50446FEF7B8FA104B236000214FF6C5
:10F15000FF7304F1400084F8331084F83410A16385
:10F16000A38784F8601084F86110616684F86810E1
:10F17000E16684F8701084F87110616784F8781083
:10F18000E0651C2202F0E4FB204610BD504902005D
:10F190002DE9F84380460D46174601EB02090C465F
:10F1A0004C45A4EB050609D0D8F8003014F8011B33
:10F1B0001B68404698470028F2D100E03E463046A2
:10F1C000BDE8F8837047203001F086BB38B5437F37
:10F1D0000D462BB100F16804204601F08BFB08B10D
:10F1E000002038BD2046294601F059FB012038BDDA
:10F1F000203001F063BB203001F074BB2DE9F041F9
:10F200001E464FF47A7300258360104B4560044618
:10F2100040F8203B1746884601F036FB04F16800B1
:10F2200001F032FB0A4B9DF81820C4F8108053F807
:10F23000222062769DF81C20676153F82230A37665
:10F24000267665772046BDE8F08100BFC8490200F8
:10F25000E8490200837E4FF0A04203F5E07330B529
:10F26000012140F20C64C17642F82340437E03F54D
:10F27000E07342F8234003694FF0CC72C3F82425B1
:10F280000622C3F80025827EC3F80825427EC3F813
:10F290000C25027E53B2D2B202F01F055C09A940D0
:10F2A00060340F4D002B45F8241006DA0D4B02F0A8
:10F2B0000F02134440221A7606E003F1604303F57F
:10F2C0006143402283F80023037E01215AB203F0F8
:10F2D0001F0301FA03F35209014941F8223030BDFE
:10F2E00000E100E0FCEC00E02DE9F8430646894629
:10F2F00098461546B2B100F12007384601F0DAFA17
:10F3000034690122C4F888952262C4F83475C4F8BF
:10F3100038552260D4F84C313BB9D4F82431002B55
:10F32000F8D002E01046BDE8F8830023C4F84C3161
:10F33000D4F85C311BB9D4F82431002BF8D0002369
:10F34000C4F85C310122B8F1000F02D1D4F82431A5
:10F3500043B16261D4F80431002BFBD00023C4F820
:10F36000043107E0E261D4F84831002BFBD00023E0
:10F37000C4F84831D4F8243113B10023C4F824313F
:10F38000D4F83C053066C0B2BDE8F8830123FFF72E
:10F39000ABBF10B5044680F8B010683001F08AFAAF
:10F3A0000123637710BDF8B5056900234377044650
:10F3B00090F8B030C5F88835012668302E62C5F85F
:10F3C00044050F4601F088FA2369C5F848059E6098
:10F3D000D3F850211AB9D3F82421002AF8D00022FA
:10F3E000C3F85021D3F860211AB9D3F82421002A98
:10F3F000F8D00022C3F86021012217B9D3F82411F4
:10F4000041B15A61D3F80421002AFBD00022C3F88D
:10F41000042107E0DA61D3F84821002AFBD000225A
:10F42000C3F84821D3F8240168B10022C3F824218D
:10F43000D3F8C404C3F8C404022804D0042814BFB9
:10F4400004200320F8BDF8BD0121FFF7ACBF4369DC
:10F45000D3F8642170B5044682B10022012500F181
:10F460002006C3F864210577304601F023FA63696A
:10F470004022C3F83465C3F838251D636369D3F8A7
:10F480006821D2B10025C3F8685104F16806012350
:10F4900063772577304601F00DFAD4F8B43003B124
:10F4A0009847657765693046C5F8446501F014FAF8
:10F4B0006369C5F8480501225A636369D3F80421DA
:10F4C0005AB10022C3F80421227F32B1D3F83C059F
:10F4D000D4F8B830206603B198476369D3F8242183
:10F4E00042B10022C3F82421D3F8D024C3F8D02499
:10F4F00001225A6170BD00000148FFF7A8BF00BF9C
:10F50000FC2B002007B50C230B228DE80C004FF0DC
:10F510004022042311460348FFF770FE03B05DF854
:10F5200004FB00BFFC2B002070B505460C468E186E
:10F53000B44206D021782846FDF778FF04F8010B85
:10F54000F6E770BD014A026041607047D42B00208D
:10F55000704770B5044615460E464068002100F01D
:10F5600023FF04F108012068267265720222FFF76A
:10F57000DBFF60680121BDE8704000F015BF38B5C1
:10F5800004460D464068002100F00EFF214665F05C
:10F590007F0501F8085F02222068FFF7C5FF606859
:10F5A000012100F001FF607A38BD10B50446012149
:10F5B000406800F0D7FE0121606800F0F5FE206889
:10F5C000FDF71EFF0F212046FFF7D9FF032819D1B1
:10F5D00041221A212046FFF7BCFF02221F212046AC
:10F5E000FFF7B7FFD8221C212046FFF7B2FF012208
:10F5F00027212046FFF7ADFF2046C1221B21FFF740
:10F60000A8FF002010BD000070B54D00E91C0646A3
:10F61000FFF7B5FFA91C04463046FFF7B0FF40EAEC
:10F62000042000B201F034FD0022044B01F096FDED
:10F6300002F076F800EE100A70BD00BF0000103F27
:10F640002922427000228270C270828082717047CB
:10F650000346002280799A7170470000F8B50C4C7F
:10F660000E460546417820461746FFF792FE310ABE
:10F670002046FFF7ABFDF1B22046FFF7A7FD394664
:10F680002046FFF7A3FD2046FFF7DEFE2870F8BDF9
:10F69000FC2B0020F8B50E4C0F460546417820465D
:10F6A0001646FFF776FE390A2046FFF78FFDF9B2BE
:10F6B0002046FFF78BFD310A2046FFF787FDF1B2A8
:10F6C0002046FFF783FD2046FFF7BEFE2870F8BDF9
:10F6D000FC2B002070B5104C05460E4641782046A4
:10F6E000FFF757FE310A2046FFF770FDF1B22046C2
:10F6F000FFF76CFD2046FFF7A7FE6978287001220E
:10F700002046FFF743FE2046FFF772FD05462046E0
:10F71000FFF79AFEE8B270BDFC2B0020154B10B528
:10F72000044633F8112081709621FFF7B3FFA378C8
:10F73000E278B2FBF3F220462421FFF78FFFA37893
:10F7400020462121142292FBF3F2FFF787FF2D219F
:10F750002046FFF7BFFFA27820F00100012A14BF66
:10F76000024640F00102D2B220462D21BDE81040F1
:10F77000FFF774BFE04902004B1E022B01D8FFF7D0
:10F78000CDBF704710B5302204464FF48571FFF7A6
:10F7900065FF204646223F21FFF760FF2046FF22FB
:10F7A0003121FFF75BFF204663224021FFF772FF04
:10F7B000204601222E21FFF751FF204609221B215E
:10F7C000FFF74CFF204631223E21FFF747FF20463E
:10F7D00024221421FFF742FF204631221C21FFF78B
:10F7E0003DFF204640F2A3210022FFF737FF2046CD
:10F7F0000121BDE81040FFF791BF38B5044600F085
:10F800005DFD85B24F212046FFF764FF43070DD40D
:10F81000A388002BF6D000F051FDA38880B2401BD6
:10F820009842EFDD0123A371FF2038BD62212046FD
:10F83000FFF750FF0122054615212046FFF70EFF76
:10F84000284638BD10B5012204461821FFF706FFEF
:10F850002046BDE81040FFF7D0BF000070B5134C44
:10F8600005460E4641782046FFF793FD310A2046B3
:10F87000FFF7ACFCF1B22046FFF7A8FC2046FFF7EB
:10F88000E3FD6978287002222046FFF77FFD2046BD
:10F89000FFF7AEFC05462046FFF7AAFC40EA05202C
:10F8A00085B22046FFF7D0FD284670BDFC2B002016
:10F8B00038B524210446FFF70DFF1621E0702046DD
:10F8C000FFF708FF0128054640F0A880A070024617
:10F8D00040F207212046FFF7C1FE2A4620464FF49A
:10F8E0000271FFF7BBFE204600229621FFF7B6FE0D
:10F8F0002046FD229721FFF7B1FE20460022E3219A
:10F90000FFF7ACFE20460422E421FFF7A7FE2046C5
:10F910000222E521FFF7A2FE2A462046E621FFF754
:10F920009DFE20460322E721FFF798FE2046022293
:10F93000F521FFF793FE20460522D921FFF78EFE21
:10F940002046CE22DB21FFF789FE20460322DC2160
:10F95000FFF784FE2046F822DD21FFF77FFE2046D8
:10F9600000229F21FFF77AFE20463C22A321FFF7C9
:10F9700075FE20460022B721FFF770FE20463C228C
:10F98000BB21FFF76BFE20460922B221FFF766FE7E
:10F9900020460922CA21FFF761FE2A4620464FF47D
:10F9A000CC71FFF75BFE204617224FF4D871FFF7AA
:10F9B00055FE2046002240F2AD11FFF74FFE2046D3
:10F9C0000522FF21FFF74AFE204605224FF48071F1
:10F9D000FFF744FE2046052240F29911FFF73EFE54
:10F9E00020461B224FF4D371FFF738FE20463E22FB
:10F9F0004FF4D671FFF732FE20461F2240F2A711C6
:10FA0000FFF72CFE204600223021FFF727FE20467C
:10FA100000221621BDE83840FFF720BE962120467F
:10FA2000FFF71CFF542801D1032303E07F280CBFFC
:10FA300002230123A370E278A37812FB03F3E3709F
:10FA400038BD000000F060B8D0B52DED048BB0EEED
:10FA5000409AF0EE609A294C8AB000F04BF994F984
:10FA60000030B0EE408AF0EE608A01330FD0B0EE85
:10FA7000490AF0EE690A00F0D3FB40B100260027E6
:10FA800051EC190B32463B4601F0DAFD38B9B0EEC5
:10FA9000480AF0EE680A0AB0BDEC048BD0BD184BE2
:10FAA00024780193012200238DED049B8DED029BB0
:10FAB000009208936CB9CDE90667684600F0DEFB5A
:10FAC00088B1089BA3B99DED060B0AB0BDEC048B71
:10FAD000D0BD32463B463046394601F069FC022C27
:10FAE000CDE90601E9D101F09DFE21230360E8E79D
:10FAF00001F098FE089B0360E5E700BF902000201E
:10FB0000684A02000000000051EC110B43422DE94D
:10FB1000F047034321F00048754F48EAD373BB42D6
:10FB200055EC104B49D86342234325F0004A4AEA7A
:10FB3000D373BB42A94640D801F1404303F580137B
:10FB400003438E4650D08E1706F0020654EA0A038D
:10FB500046EAD57639D050EA08033ED0B84555D0AC
:10FB6000BA453AD0C8EB0A084FEA2858B8F13C0F1A
:10FB700040DC002970DB02460B462046294601F096
:10FB800017FC41EC100B00F043FB00F085F951EC41
:10FB9000100B012E5AD0022E48D0002E42D03EA388
:10FBA000D3E9002301F026F93DA3D3E9002301F0B6
:10FBB00021F941EC100BBDE8F08722462B4601F0FD
:10FBC0001BF941EC100BBDE8F087022E16D0032E76
:10FBD0000ED19FED350BBDE8F087B9F1000F11DBB9
:10FBE0009FED330BBDE8F087BDE8F04700F054B956
:10FBF000BDE8F0872EA1D1E90001CAE79FED280BEF
:10FC0000BDE8F0879FED2C0BBDE8F087C24529D0F9
:10FC1000022EF3D0032EDCD0012E2DD09FED280B29
:10FC2000BDE8F08741EC100BBDE8F0871AA3D3E9DB
:10FC3000002301F0DFF802460B4619A1D1E90001CB
:10FC400001F0D8F841EC100BBDE8F08701F100415C
:10FC500041EC100BBDE8F08718F13C0F8BDA002067
:10FC6000002196E7022E13D0032E0DD0012E07D0CF
:10FC70009FED150BBDE8F0879FED150BBDE8F087F4
:10FC80009FED150BBDE8F0879FED150BBDE8F087E4
:10FC90009FED150BBDE8F087075C143326A6A13C49
:10FCA000182D4454FB210940182D4454FB2109C050
:10FCB000182D4454FB21F93F182D4454FB21F9BF62
:10FCC0000000000000000000182D4454FB21E93F13
:10FCD0000000000000000080182D4454FB21E9BF03
:10FCE000D221337F7CD902C0D221337F7CD902401C
:10FCF0000000F07F2DE9F041654955EC104B0E46B0
:10FD00002940B14200F09780002D2B4610EE102ABA
:10FD100074DD2F157FD0A7F2FF37C3F31303F90764
:10FD200043F4801365D403EBD27100260B447F109B
:10FD30005200B64616204FF400110EEB01049C420F
:10FD40004FEAD2754FEA420203DC1B1B04EB010EA3
:10FD50000E44013805EB43034FEA5101EDD18446CF
:10FD600020244FF0004109E020D003EBD275013C84
:10FD70004FEA51012B444FEA420220D09E4501EB4D
:10FD80000C05F1DA002D05EB010C09DBF04695427C
:10FD9000CEEB030300D9013B521B0844C646E4E7FF
:10FDA000BCF1000FF2DB0EF10108F0E795421ED81E
:10FDB000002D05EB010C50DB98460023ECE71343C4
:10FDC00004D0421C4DD000F00103184440087110CB
:10FDD000F30701F17F5101F5001148BF40F00040E9
:10FDE00001EB0753024643EC102BBDE8F08173464C
:10FDF000BBE75B0003EBD273520094E725F00041B0
:10FE0000214328D0ADBB2F46D30A153F5205002B06
:10FE1000FAD0DD0228D4002100E001465B00DC02BC
:10FE200001F10100F9D5C0F1200422FA04F42343C2
:10FE30007F1A82406FE710EE102A2B4610EE100A50
:10FE4000294601F08BF922462B4600F0D5FF41EC04
:10FE5000100BBDE8F081BDE8F081BCF1000FABDB19
:10FE6000A1E701362046B2E720244FF0FF31002001
:10FE7000DBE710EE102A2B462046294600F0BAFF99
:10FE800002460B4601F094FA41EC100BBDE8F081FC
:10FE90000000F07F000000002DE9F84F55EC104BFA
:10FEA000D14B25F000469E42AB4610DDCF4B9E4223
:10FEB00000F3B28000F0AD80BBF1000F40F3FD8095
:10FEC000ADA5D5E9004545EC104BBDE8F88FC84B12
:10FED0009E4200F3C080A3F1DE739E4240F3A880EF
:10FEE0004FF0FF3A22462B462046294601F036F9CC
:10FEF00002460B468046894601F030F9A0A3D3E9BB
:10FF0000002306460F4601F029F99FA3D3E90023F9
:10FF100000F072FF32463B4601F020F99CA3D3E982
:10FF2000002300F069FF32463B4601F017F99AA31F
:10FF3000D3E9002300F060FF32463B4601F00EF9A2
:10FF400097A3D3E9002300F057FF32463B4601F068
:10FF500005F995A3D3E9002300F04EFF42464B4636
:10FF600001F0FCF892A3D3E900238046894630468D
:10FF7000394601F0F3F890A3D3E9002300F03AFFEB
:10FF800032463B4601F0EAF88DA3D3E9002300F0A6
:10FF900031FF32463B4601F0E1F88BA3D3E9002361
:10FFA00000F028FF32463B4601F0D8F888A3D3E999
:10FFB000002300F01FFF32463B4601F0CFF8BAF1B4
:10FFC000FF3F02460B467CD04046494600F014FFF6
:10FFD00022462B4601F0C2F8864E874B4FEACA0AEA
:10FFE00056449A44DAE9002300F004FF22462B46E7
:10FFF00000F000FF02460B46D6E9000100F0FAFED1
:020000022000DC
:10000000BBF1000F52DB04460D4645EC104BBDE83A
:10001000F88F002C3FF450AF22462B46204629464D
:1000200000F0EAFE04460D4645EC104BBDE8F88FA3
:1000300069A3D3E9002310EE100A294600F0DCFE84
:1000400000226E4B01F01AFB00283FF449AF45EC4B
:10005000104BBDE8F88F00F0DBF8694B9E4255EC81
:10006000104B3FDCA3F550239E4268DC10EE102AB3
:1000700010EE100A2B46294600F0BEFE00225F4B10
:1000800000F0B8FE002206460F464FF0804320469F
:10009000294600F0B1FE02460B463046394601F0D3
:1000A00087F94FF0000A04460D461BE7044601F1AC
:1000B000004545EC104BBDE8F88F49A5D5E9004552
:1000C000B2E74046494600F097FE22462B4601F033
:1000D00045F802460B462046294600F08BFE0446B2
:1000E0000D46A1E7474B9E421DDC10EE100A002290
:1000F000454B294600F07EFE002206460F46424B45
:100100002046294601F02AF800223C4B00F074FEFC
:1001100002460B463046394601F04AF94FF0020AD2
:1001200004460D46DEE62B4610EE102A0020374925
:1001300001F03EF94FF0030A04460D46D2E610EEF8
:10014000100A00222D4B294600F054FE00220646DC
:100150000F462A4B2046294600F04EFE02460B462B
:100160003046394601F024F94FF0010A04460D46A5
:10017000B8E600BFAFF30080182D4454FB21F93FCF
:1001800011DA22E33AAD903FEB0D76244B7BA93F89
:10019000513DD0A0660DB13F6E204CC5CD45B73F57
:1001A000FF8300922449C23F0D5555555555D53F03
:1001B0002F6C6A2C44B4A2BF9AFDDE522DDEAD3FF7
:1001C0006D9A74AFF2B0B33F711623FEC671BC3F97
:1001D000C4EB98999999C93F9C7500883CE4377E97
:1001E000182D4454FB21F9BFFFFF0F440000F07F9E
:1001F000FFFFDB3F904A0200704A02000000F03F20
:10020000FFFFF23FFF7F03400000F83F0000F0BF18
:1002100053EC102B23F0004343EC102B704700BF2E
:1002200053EC102B33F0004110B408D01148A3F563
:100230008014844208D804205DF8044B70471AB932
:1002400002205DF8044B704703F1FF43094803F5B2
:10025000E0038342EFD9B1F5801F01D20320EBE721
:10026000054B994201D00020E6E7B2FA82F040093E
:10027000E2E700BFFFFFDF7F0000F07F0020704754
:100280000649074A074B9B1A03DD043BC858D05068
:10029000FBDC00F0E7F8FCF705F90000184E02005F
:1002A0008020002058210020FEE7FEE7FEE7FEE761
:1002B000FEE7FEE7FEE7FEE7FEE7FEE7094B19680B
:1002C000094B30B5D3F804050A060B0A02434FF474
:1002D0007A71A2FB014501FB0355E00B40EA454062
:1002E00030BD00BFB82C002000100140084B196839
:1002F000084B30B5D3F804050A060B0A0649024339
:10030000A2FB014501FB0355E00B40EA454030BD2F
:10031000B82C00200010014040420F0038B50446C0
:1003200048B1FFF7CBFF054600F01AF8FFF7C6FF0C
:10033000401B8442F8D838BD074B0022C3F8042183
:1003400082B0D3F80431054A0193019B136801334D
:10035000DBB2136002B0704700100140B82C0020DF
:10036000704700001F281BD80E4B53F8203003297C
:1003700016D8DFE801F0020E060A03F5E07300214B
:100380000AE003F5E0730C2106E003F5E0730421B5
:1003900002E003F5E07303214FF0A04242F823107E
:1003A000704700BFE84902001F280CD8064B53F8DD
:1003B000200001234FF0A042834011B9C2F80C3550
:1003C0007047C2F808357047E84902001F289FBFF0
:1003D0004FF0A043054AD3F8103552F820009ABFD9
:1003E00023FA00F000F0010000207047E849020005
:1003F0000C4B1B78062B10D10B4B1B681A070CD12A
:100400000A4B186800F0F003302B08D000F0E00031
:10041000A0F1400358425841704700207047012026
:10042000704700BFE00F00F0E40F00F0E80F00F0AD
:10043000094B1B78062B0CD1084B1B681A0708D1F7
:10044000074B186800F0F000A0F130035842584103
:1004500070470020704700BFE00F00F0E40F00F08D
:10046000E80F00F008B5FFF7E3FF10B14B4B4C4A23
:100470001A60FFF7BDFF28B14A4B4B4A1B68C3F314
:1004800042331360FFF7D4FF20B1484AD36823F00A
:100490008073D360FFF7ACFF40B14FF08043002280
:1004A000C3F80C21C3F81021C3F83825FFF7C0FFAB
:1004B00010B13F4B03221A60FFF7BAFF40B13D4B2A
:1004C00005221A6001229A6700229A603F225A6030
:1004D000394B1B78062B09D1384B1B681B0705D1FC
:1004E000374B1B6803F0F003502B0ED0354AD2F87F
:1004F000883043F47003C2F88830BFF34F8FBFF3E6
:100500006F8F314B314A1A6008BD4FF08052304B2B
:10051000D2F80414C3F82015D2F80814C3F824152F
:10052000D2F80C14C3F82815D2F81014C3F82C15FF
:10053000D2F81414C3F83015D2F81814C3F83415CF
:10054000D2F81C14C3F84015D2F82014C3F844158F
:10055000D2F82414C3F84815D2F82814C3F84C155F
:10056000D2F82C14C3F85015D2F83014C3F854152F
:10057000D2F83414C3F86015D2F83814C3F86415EF
:10058000D2F83C14C3F86815D2F84014C3F86C15BF
:10059000D2F84424C3F87025A8E700BF74C0074010
:1005A0000DF0ADBA440200103C050040F0ED00E053
:1005B000A005004010560040E00F00F0E40F00F0EE
:1005C000E80F00F000ED00E0942000200090D00340
:1005D00000C000402DE9F04106460D4601EB02083F
:1005E0000C464445A4EB050707D0336814F8011BFB
:1005F0001B68304698470028F3D13846BDE8F081A3
:1006000070B505460C46084649B102F00DF82B6856
:100610000246214628465B68BDE87040184770BD19
:1006200008B5FFF7EDFF08BD03688A685B680968D5
:10063000184708B5FFF7E4FF08BD03681B681847B3
:1006400008B50249FFF7DCFF08BD00BFB04A020051
:1006500038B50546FFF7E8FF04462846FFF7F0FFE8
:10066000204438BD38B50546FFF7CAFF0446284682
:10067000FFF7E6FF204438BDF0B58BB000238DF8BE
:100680002430012A98BF0A220DF12305B1FBF2F4B0
:1006900002FB1416F3B2092E94BF30333733DBB2AA
:1006A0002F46214605F80139002CEFD13946FFF7D6
:1006B000A7FF0BB0F0BD10B42AB903685DF8044B76
:1006C0001B68C9B21847D2B25DF8044BFFF7D4BF1C
:1006D000FFF7F1BF2DE9F04107460E4615462AB94E
:1006E0000368C9B21B68BDE8F04118470A2A02D165
:1006F000002901DA04E0D2B2BDE8F041FFF7BCBF47
:100700002D21FFF79AFF2A46044671423846FFF72B
:10071000B3FF2044BDE8F081FFF7DCBF38B50546E4
:10072000FFF7D8FF04462846FFF78AFF204438BD6C
:100730002DE9F843804657EC106B0D46FFF770FD2E
:1007400008B9424910E047EC106BFFF769FD01283A
:1007500001D13F4908E04FF060423E4B30463946F8
:1007600000F08CFF28B13C494046FFF749FFBDE847
:10077000F8834FF06042394B3046394600F060FF55
:100780000028F0D1002200233046394600F058FFFF
:1007900040B12D214046FFF750FF07F100430446CA
:1007A0001F4600E004462E494FF0000900205FFA82
:1007B00089F39D4206D900222A4B00F0F9FD09F188
:1007C0000109F4E732463B4600F016FB0F460646A9
:1007D00000F086FF0A22014681464046FFF74CFFA3
:1007E00004447DB3484600F043FC02460B463046C5
:1007F000394600F0FFFA06460F4640461A49FFF711
:10080000FFFE0444174B00223046394600F0A6FC98
:100810000F46064600F03CFF0A220146814640464C
:10082000FFF758FF0444484600F032FC02460B46EE
:100830003046394600F0DEFA013D15F0FF05064668
:100840000F46DFD12046BDE8F88300BFB34A02005F
:10085000B74A0200FFFFEF41BB4A0200FFFFEFC1B2
:100860000000E03F00002440BF4A0200C9B2FFF789
:100870005FBF38B5C9B20546FFF75AFF04462846A0
:10088000FFF7DEFE204438BD10B5402204460021AB
:1008900001F05EF8002323646364204610BD026CFF
:1008A00010B5531C446C03F03F039C421CBF8154A1
:1008B000036410BD0023036443647047436C026CFF
:1008C00093421FBFC25C013303F03F03436414BF74
:1008D00010464FF0FF307047036C406C181A48BF49
:1008E00040307047436C026C934214BFC05C4FF0C1
:1008F000FF307047036C406C013303F03F031B1A59
:100900005842584170470120704703681322DB6941
:10091000184770470369C3F81C15D3F81C21002A37
:10092000FBD00022C3F81C210120704790F85C30F6
:100930005AB2520910B4012120320F4C03F01F03A8
:1009400001FA03F344F8223003695DF8044B0422F2
:10095000C3F8082300225960D960C3F800254FF07E
:10096000FF32C3F80C251430C3F81425C3F808254A
:10097000C3F81025FFF79EBF00E100E01430FFF739
:10098000ABBF1430FFF7AEBF1430FFF797BF0000C6
:10099000026990F85E3030B5C2F80C3590F85D30E1
:1009A000C2F8143590F86130012B01BF90F85F4018
:1009B000C2F8104590F86040C2F8084518BF0023FF
:1009C000B1F5966FC2F86C352ED9B1F5166F2ED9E8
:1009D000B1F5965F2ED9B1F5165F2DD9B1F5615FEE
:1009E0002CD9B1F5964F2BD9B1F5E14F2AD9B1F5F4
:1009F000164F29D9B1F5614F29D9B1F5963F29D9BB
:100A0000B1F5E13F28D9B1F5613F28D9344B99427E
:100A100028D9B1F5E12F28D9B1F5612F8CBF4FF05E
:100A200080534FF0706322E04FF49E231FE04FF499
:100A30001D231CE02B4B1AE02B4B18E02B4B16E030
:100A40002B4B14E02B4B12E04FF41D030FE04FF43F
:100A50006B030CE0284B0AE04FF0EB7307E04FF01C
:100A60006C7304E04FF0806301E04FF0E863C2F87C
:100A7000243500210423C2F80035C2F80811C2F859
:100A80001C11012111609160C2F8043390F85C20C0
:100A900053B2D2B202F01F055C09A9406034174D71
:100AA000002B45F8241006DA154B02F00F02134410
:100AB00060221A7606E003F1604303F56143602289
:100AC00083F8002390F85C3001215AB203F01F0331
:100AD00001FA03F35209094941F8223030BD00BF41
:100AE00090D0030000B013000050270000F03A003F
:100AF00000A04E0000C0750000903A0100E100E047
:100B0000FCEC00E02DE9F0411E464FF47A7300251D
:100B100083600E4B4560044640F8143B17468846F8
:100B2000FFF7B2FE0A4AC4F8108052F8263084F863
:100B30005D309DF8183084F85C7052F8233084F8EA
:100B40005E3084F861502046BDE8F081CC4A020056
:100B5000E84902000369D3F8082110B504464AB1F8
:100B6000D3F818151430C9B2FFF799FE2369002293
:100B7000C3F8082110BD00000148FFF7EBBF00BF1C
:100B8000BC2C002007B50D23009302220E2303493D
:100B90000348FFF7B7FF03B05DF804FB00200040F7
:100BA000BC2C002010B50446006800F0AFFE2046C3
:100BB00010BD10B50446006808B100F0A7FE002380
:100BC0002360A360636010BD38B504460D4600681D
:100BD000013101F0FFFC10B184E82100012038BD93
:100BE000036810B5044613B143688B4207D2204610
:100BF000FFF7EAFF20B1A3680BB922681370012048
:100C000010BD70B50E46114604461546FFF7E8FFC5
:100C100018B92046FFF7CDFF04E0A56031462068F3
:100C200001F0FAFC204670BD38B50023044603608D
:100C3000436083600D4639B1084601F0F5FC294652
:100C400002462046FFF7DDFF204638BD38B5054691
:100C500000680C4660B16A688B689A4206D30968DE
:100C600001F0DAFCA368AB6000230AE000F04EFE5E
:100C700023682B6063686B60A368AB60002323600C
:100C80006360A36038BD884210B5044601D0FFF709
:100C9000DDFF204610BD38B505460C4641B108467B
:100CA00001F0C2FC214602462846FFF7AAFF01E0F8
:100CB000FFF77FFF284638BD10B5044600238AB0F1
:100CC00023606360A360084601A900F014FE01A937
:100CD0002046FFF7E0FF20460AB010BD1FB50446CE
:100CE000002323606360A360084601A901F00CFEA5
:100CF00001A92046FFF7CFFF204604B010BD70B514
:100D000004460E4609B9002070BD6AB18368D51843
:100D10002946FFF765FF0028F5D02068A368314613
:100D2000184401F079FCA560012070BD8A6809684B
:100D3000FFF7E5BF38B505460C46084641B101F05E
:100D400073FC214602462846BDE83840FFF7D7BF6E
:100D500038BD70B50E469AB191B185689D4202D8F2
:100D600000230B7070BD541EED1A0168AC4228BF01
:100D70002C4619442246304601F05EFC00233355D0
:100D800070BD704708B500F013F8FFF7FAFF0120B7
:100D9000FFF7C4FAFCF7F0F9034CFBF79DFD002CBC
:100DA000FBD0AFF30080F8E70000000000F0AEBD1C
:100DB0000D4BE02283F811234FF40032C3F8802159
:100DC0001A604FF080430122C3F818259A6003F59A
:100DD00088330021C3F808150221C3F80413C3F8AF
:100DE00044131A60704700BF00E100E081F0004149
:100DF00002E000BF83F0004330B54FEA41044FEA00
:100E0000430594EA050F08BF90EA020F1FBF54EA9A
:100E1000000C55EA020C7FEA645C7FEA655C00F036
:100E2000E2804FEA5454D4EB5555B8BF6D420CDD07
:100E30002C4480EA020281EA030382EA000083EA8A
:100E4000010180EA020281EA0303362D88BF30BD2A
:100E500011F0004F4FEA01314FF4801C4CEA113180
:100E600002D0404261EB410113F0004F4FEA0333DF
:100E70004CEA133302D0524263EB430394EA050F6A
:100E800000F0A780A4F10104D5F1200E0DDB02FAD9
:100E90000EFC22FA05F2801841F1000103FA0EF26D
:100EA000801843FA05F359410EE0A5F120050EF133
:100EB000200E012A03FA0EFC28BF4CF0020C43FA64
:100EC00005F3C01851EBE37101F0004507D54FF071
:100ED000000EDCF1000C7EEB00006EEB0101B1F5C1
:100EE000801F1BD3B1F5001F0CD349085FEA300007
:100EF0004FEA3C0C04F101044FEA445212F5800F12
:100F000080F09A80BCF1004F08BF5FEA500C50F1AE
:100F1000000041EB045141EA050130BD5FEA4C0C91
:100F2000404141EB010111F4801FA4F10104E9D11A
:100F300091F0000F04BF01460020B1FA81F308BF11
:100F40002033A3F10B03B3F120020CDA0C3208DDDD
:100F500002F1140CC2F10C0201FA0CF021FA02F1B8
:100F60000CE002F11402D8BFC2F1200C01FA02F128
:100F700020FA0CFCDCBF41EA0C019040E41AA2BF4D
:100F800001EB0451294330BD6FEA04041F3C1CDA15
:100F90000C340EDC04F11404C4F1200220FA04F035
:100FA00001FA02F340EA030021FA04F345EA0301DF
:100FB00030BDC4F10C04C4F1200220FA02F001FAA1
:100FC00004F340EA0300294630BD21FA04F0294623
:100FD00030BD94F0000F83F4801306BF81F48011BC
:100FE0000134013D4EE77FEA645C18BF7FEA655C2F
:100FF00029D094EA050F08BF90EA020F05D054EA01
:10100000000C04BF1946104630BD91EA030F1EBF05
:101010000021002030BD5FEA545C05D14000494109
:1010200028BF41F0004130BD14F580043CBF01F5FC
:10103000801130BD01F0004545F0FE4141F47001E2
:101040004FF0000030BD7FEA645C1ABF19461046BD
:101050007FEA655C1CBF0B46024650EA013406BFBE
:1010600052EA033591EA030F41F4002130BD00BF7D
:1010700090F0000F04BF0021704730B54FF480643A
:1010800004F132044FF000054FF0000150E700BFBB
:1010900090F0000F04BF0021704730B54FF480641A
:1010A00004F1320410F0004548BF40424FF0000107
:1010B0003EE700BF42004FEAE2014FEA31014FEA4A
:1010C00002701FBF12F07F4393F07F4F81F0605199
:1010D000704792F0000F14BF93F07F4F704730B508
:1010E0004FF4607401F0004521F0004120E700BF9B
:1010F00050EA010208BF704730B54FF000050AE022
:1011000050EA010208BF704730B511F0004502D522
:10111000404261EB41014FF4806404F132045FEA24
:10112000915C3FF4DCAE4FF003025FEADC0C18BFC9
:1011300003325FEADC0C18BF033202EBDC02C2F1BF
:10114000200300FA03FC20FA02F001FA03FE40EA51
:101150000E0021FA02F11444C1E600BF70B54FF051
:10116000FF0C4CF4E06C1CEA11541DBF1CEA135533
:1011700094EA0C0F95EA0C0F00F0DEF82C4481EA9B
:10118000030621EA4C5123EA4C5350EA013518BFBB
:1011900052EA033541F4801143F4801338D0A0FBA8
:1011A00002CE4FF00005E1FB02E506F00042E0FB55
:1011B00003E54FF00006E1FB03569CF0000F18BF5B
:1011C0004EF0010EA4F1FF04B6F5007F64F5407403
:1011D00004D25FEA4E0E6D4146EB060642EAC62196
:1011E00041EA55514FEAC52040EA5E504FEACE2E03
:1011F000B4F1FD0C88BFBCF5E06F1ED8BEF1004F06
:1012000008BF5FEA500E50F1000041EB045170BD81
:1012100006F0004646EA010140EA020081EA0301C5
:10122000B4EB5C04C2BFD4EB0C0541EA045170BDC1
:1012300041F480114FF0000E013C00F3AB8014F13B
:10124000360FDEBF002001F0004170BDC4F1000484
:10125000203C35DA0C341BDC04F11404C4F1200505
:1012600000FA05F320FA04F001FA05F240EA020060
:1012700001F0004221F0004110EBD37021FA04F696
:1012800042EB06015EEA430E08BF20EAD37070BD50
:10129000C4F10C04C4F1200500FA04F320FA05F0AF
:1012A00001FA04F240EA020001F0004110EBD370B1
:1012B00041F100015EEA430E08BF20EAD37070BD21
:1012C000C4F1200500FA05F24EEA020E20FA04F3FA
:1012D00001FA05F243EA020321FA04F001F00041A9
:1012E00021FA04F220EA020000EBD3705EEA430E1A
:1012F00008BF20EAD37070BD94F0000F0FD101F049
:101300000046400041EB010111F4801F08BF013C81
:10131000F7D041EA060195F0000F18BF704703F0BF
:101320000046520043EB030313F4801F08BF013D46
:10133000F7D043EA0603704794EA0C0F0CEA135502
:1013400018BF95EA0C0F0CD050EA410618BF52EABC
:101350004306D1D181EA030101F000414FF00000C2
:1013600070BD50EA410606BF1046194652EA4306D0
:1013700019D094EA0C0F02D150EA013613D195EA44
:101380000C0F05D152EA03361CBF104619460AD18C
:1013900081EA030101F0004141F0FE4141F4700196
:1013A0004FF0000070BD41F0FE4141F4780170BD86
:1013B00070B54FF0FF0C4CF4E06C1CEA11541DBFEB
:1013C0001CEA135594EA0C0F95EA0C0F00F0A7F8ED
:1013D000A4EB050481EA030E52EA03354FEA01311A
:1013E00000F088804FEA03334FF0805545EA13132D
:1013F00043EA12634FEA022245EA111545EA1065F5
:101400004FEA00260EF000419D4208BF964244F18B
:10141000FD0404F5407402D25B084FEA3202B61AAA
:1014200065EB03055B084FEA32024FF480104FF47E
:10143000002CB6EB020E75EB030E22BFB61A7546F2
:1014400040EA0C005B084FEA3202B6EB020E75EB85
:10145000030E22BFB61A754640EA5C005B084FEAED
:101460003202B6EB020E75EB030E22BFB61A7546BA
:1014700040EA9C005B084FEA3202B6EB020E75EBC5
:10148000030E22BFB61A754640EADC0055EA060E86
:1014900018D04FEA051545EA16754FEA06164FEAC9
:1014A000C30343EA52734FEAC2025FEA1C1CC0D175
:1014B00011F4801F0BD141EA00014FF000004FF002
:1014C000004CB6E711F4801F04BF01430020B4F1C3
:1014D000FD0C88BFBCF5E06F3FF6AFAEB5EB030C7B
:1014E00004BFB6EB020C5FEA500C50F1000041EB78
:1014F000045170BD0EF0004E4EEA113114EB5C0445
:10150000C2BFD4EB0C0541EA045170BD41F4801117
:101510004FF0000E013C90E645EA060E8DE60CEA1F
:10152000135594EA0C0F08BF95EA0C0F3FF43BAF3C
:1015300094EA0C0F0AD150EA01347FF434AF95EAF3
:101540000C0F7FF425AF104619462CE795EA0C0FD7
:1015500006D152EA03353FF4FDAE1046194622E7A4
:1015600050EA410618BF52EA43067FF4C5AE50EA7E
:1015700041047FF40DAF52EA43057FF4EBAE12E76E
:101580004FF0FF3C06E000BF4FF0010C02E000BF4F
:101590004FF0010C4DF804CD4FEA410C7FEA6C5C32
:1015A0004FEA430C18BF7FEA6C5C1BD001B050EAD5
:1015B000410C0CBF52EA430C91EA030F02BF90EAC0
:1015C000020F0020704710F1000F91EA030F58BF7F
:1015D000994208BF90422CBFD8176FEAE37040F0E1
:1015E000010070474FEA410C7FEA6C5C02D150EA7F
:1015F000013C07D14FEA430C7FEA6C5CD6D152EA3A
:10160000033CD3D05DF8040B704700BF84461046FE
:1016100062468C461946634600E000BF01B5FFF7FD
:10162000B7FF002848BF10F1000F01BD4DF808EDCD
:10163000FFF7F4FF0CBF012000205DF808FB00BF9E
:101640004DF808EDFFF7EAFF34BF012000205DF8F8
:1016500008FB00BF4DF808EDFFF7E0FF94BF012045
:1016600000205DF808FB00BF4DF808EDFFF7CEFF46
:1016700094BF012000205DF808FB00BF4DF808ED85
:10168000FFF7C4FF34BF012000205DF808FB00BF56
:101690004FEA410212F5001215D211D56FF478739A
:1016A000B3EB625212D94FEAC12343F0004343EA3D
:1016B000505311F0004F23FA02F018BF4042704718
:1016C0004FF00000704750EA013005D111F00040A2
:1016D00008BF6FF0004070474FF00000704700BF38
:1016E0004A0011D212F5001211D20DD56FF47873A1
:1016F000B3EB62520ED44FEAC12343F0004343EAF6
:10170000505323FA02F070474FF00000704750EA40
:10171000013002D14FF0FF3070474FF000007047AA
:101720004FEA4102B2F1E04324BFB3F5001CDCF103
:10173000FE5C0DD901F0004C4FEAC0024CEA50703B
:10174000B2F1004F40EB830008BF20F0010070476A
:1017500011F0804F21D113F13872BCBF01F000406D
:10176000704741F480114FEA5252C2F11802C2F19F
:10177000200C10FA0CF320FA02F018BF40F0010020
:101780004FEAC1234FEAD32303FA0CFC40EA0C00D2
:1017900023FA02F34FEA4303CCE77FEA625307D10F
:1017A00050EA01331EBF4FF0FE4040F44000704746
:1017B00001F0004040F0FE4040F40000704700BFE0
:1017C0000B460146184600F01FB800001FB51C4626
:1017D000094B1B680546D86812B9084B1A4600E049
:1017E000074B02928DE80A0022462B46054900F07D
:1017F00033F801F04BF900BFF820002071460200D9
:10180000F44A0200014B020010B5054C13462CB1FE
:101810000A4601460220AFF3008010BD204610BDED
:1018200000000000014B1868704700BFF82000203E
:1018300008B5074B044613B10021AFF30080054BF8
:101840001868836A03B19847204602F0CDFD00BFB7
:1018500000000000344B02000EB403B5014603AB98
:10186000054853F8042B0068019300F03DF902B0DD
:101870005DF804EB03B07047F820002070B50E4B04
:101880000E4CE41AA41000251E46A54204D056F8BA
:10189000253098470135F8E702F0A8FD084C094BC0
:1018A000E41AA41000251E46A54204D056F825309F
:1018B00098470135F8E770BD382100203821002015
:1018C0004C21002038210020931E222B10B50C46FD
:1018D00002D90020087010BD0A2A06D1002804DAB7
:1018E0002D230B704042012100E00021214400F033
:1018F000CFFF204610BDFFF7E7BF0000024B0146B7
:10190000186800F073B800BFF8200020024B0146B1
:10191000186800F025B800BFF820002010B5013984
:101920000244904207D010F8013B11F8014FA34246
:10193000F7D0181B10BD002010BD10B5431E0A447F
:10194000914204D011F8014B03F8014FF8E710BDA4
:1019500002440346934202D003F8011BFAE77047A2
:1019600030B500293ED051F8042C0B1F1E49002A27
:10197000B8BF9B180A680C4612B95A600B6030BD9C
:101980009A420ED919685818824204BF10685268EA
:101990005A6004BF09181960236030BD994203D80A
:1019A0000A4651680029F9D1146815199D420AD1D7
:1019B0001B682344D0188142136013D10868034484
:1019C00013604B680DE002D90C23036030BD18682A
:1019D0001C18A14204BF0C684968596004BF001973
:1019E0001860536030BD00BF242D002070B5CD1CA1
:1019F00025F0030508350C2D38BF0C25002D0646B3
:101A000003DA0C233360002070BDA942F9D81F4BC4
:101A10001C681A462146A1B10B685B1B0ED40B2B28
:101A200003D90B60CC18CD501EE08C420DBF63680B
:101A30004B686360136018BF0C4615E00C4649689C
:101A4000E9E7134C23681BB9304600F0CBFD20605A
:101A50002946304600F0C6FD431CD2D0C41C24F0F9
:101A60000304A0420AD1256004F10B00231D20F0DD
:101A70000700C31A09D05A42E25070BD211A3046FD
:101A800000F0B0FD0130EED1BBE770BD242D002089
:101A9000202D00209368013B002B10B4936009DADD
:101AA0009469A34202DBCBB20A2B03D15DF8044B4D
:101AB00000F02CBF1368581C10601970C8B25DF894
:101AC000044B7047F8B506460F461446D518AC428D
:101AD00008D03A4614F8011B3046FFF7DBFF431CE1
:101AE000F5D100E00020F8BD2DE9F04F9DB00C4687
:101AF00017460393064618B183690BB901F0EEFE51
:101B00007F4B9C4201D1746808E07E4B9C4201D11E
:101B1000B46803E07C4B9C4208BFF468A3891807B3
:101B20000CD5236953B10023099320238DF8293064
:101B300030238DF82A30DFF8D4B144E02146304616
:101B400000F038FF0028EED04FF0FF30D5E0039AC8
:101B5000111D12680391002A80F28C80524243F0DA
:101B600002000792049098F800302E2B00F0848039
:101B7000032298F80010654801F092FF48B1402315
:101B8000CBEB000003FA00F0049B1843049008F12B
:101B9000010898F800105E488DF82810062208F118
:101BA000010701F07DFF002800F09580594B002BC4
:101BB00040F08880039B073323F007030833039327
:101BC000099B53440993B846454615F8013B1BB998
:101BD000B8EB07090FD003E0252BF9D0A846F3E7AF
:101BE0004B463A4621463046FFF76CFF01307FD026
:101BF000099B4B44099398F80030002B78D00023C0
:101C00004FF0FF3204930793059206938DF85330FB
:101C10001A930127052229783F4801F041FF05F179
:101C20000108049B38B13C4A801A07FA00F01843B7
:101C300004904546EEE7D90644BF20228DF8532094
:101C40001A0744BF2B228DF853202A782A2A3FF402
:101C50007EAF079A00210A20A846013598F8003087
:101C6000303B092B03D800FB02320121F4E70029A5
:101C70003FF479AF079276E798F801302A2B0BD121
:101C8000039B1A1D1B680392002BB8BF4FF0FF3354
:101C900008F1020805936BE70023059308F10100A2
:101CA00019460A258046013098F80020303A092A62
:101CB00003D805FB01210123F4E7002B3FF458AFC3
:101CC000059155E703AB00932246144B04A9304617
:101CD00000F0BAF807E003AB009322460F4B04A9CB
:101CE000304600F051FBB0F1FF3F82467FF468AF11
:101CF000A3895B063FF528AF09981DB0BDE8F08FBA
:101D0000A84C0200C84C0200E84C02003E4B020006
:101D1000424B0200491E0200384B0200C51A020065
:101D20002DE9FF4755EC104B0D9FDDF830A0002D3D
:101D30000E4691461946B8BF22462B4627F020078B
:101D4000BBBF05F100431D4600232D23B8BF144639
:101D5000462F0B7003D0452F03D1013601E003213C
:101D600000E0022103AB019302AB009332465346DD
:101D700045EC104B00F020FF472F804602D119F0B0
:101D8000010F28D0462F08EB060911D198F8003032
:101D9000302B0AD10022002320462946FFF746FCBB
:101DA00018B9C6F10106CAF80060DAF800309944A3
