:020000021000EC
:10C0000000000120791F0200A11F0200A31F0200EF
:10C01000A51F0200A71F0200A91F020000000000C8
:10C02000000000000000000000000000AB1F020044
:10C03000AD1F020000000000AF1F0200B11F020090
:10C04000B31F0200B31F020071280200B31F0200D9
:10C05000B10D0200B31F0200B31F0200B31F0200A4
:10C06000B31F0200B31F0200B31F0200B31F020080
:10C07000B31F0200B31F0200B31F0200B31F020070
:10C08000B31F020031200200B31F0200B31F0200E1
:10C09000B31F0200B31F0200B31F0200B31F020050
:10C0A000B31F0200B31F0200B31F0200B31F020040
:10C0B000B31F0200B31F02000000000000000000D8
:10C0C000B31F0200B31F0200B31F0200B31F020020
:10C0D000B31F0200B31F0200B31F020000000000E4
:10C0E0000000000000000000000000000000000050
:10C0F0000000000000000000000000000000000040
:10C10000000000000000000000000000000000002F
:10C11000000000000000000000000000000000001F
:10C40000044B05481B1A062B02D9044B03B11847ED
:10C41000704700BF57210020542100200000000079
:10C4200005490648091A891001EBD171491002D05B
:10C43000034B03B1184770475421002054210020BA
:10C440000000000010B5064C237843B9FFF7D8FF71
:10C45000044B13B10448AFF300800123237010BDD7
:10C460005821002000000000346B020008B5084B82
:10C470001BB108490848AFF300800848036813B9A6
:10C48000BDE80840CCE7064B002BF9D09847F7E70A
:10C49000000000005C210020346B020050210020CD
:10C4A00000000000154B002B08BF134B9D46A3F561
:10C4B000803A00218B460F461348144A121A07F09F
:10C4C000C3F80F4B002B00D098470E4B002B00D029
:10C4D00098470020002104000D000D48002802D0DC
:10C4E0000C48AFF3008007F045F82000290006F063
:10C4F000C5FA07F019F800BF00000800000001208D
:10C50000000000000000000058210020302D002015
:10C5100000000000000000000D4B012210B51A6061
:10C520000C4B00221A600C4B1B78044653B10B498C
:10C530000B4805F0F1FE204602F046FC0146084893
:10C5400005F00CFF0520BDE8104005F063BD00BFFD
:10C5500020220020142200207C21002024610200DF
:10C56000BC2C00200C4A002310B513600B4A13604A
:10C570000B4B1B78044653B10A490B4805F0CCFE1F
:10C58000204602F021FC0146074805F0E7FE0520A1
:10C59000BDE8104005F03EBD2022002014220020FE
:10C5A0007C2100203F610200BC2C0020F0B5274B0D
:10C5B0001B7887B00C461BB12549264805F0ACFE18
:10C5C00023682046DB689847236806461B69204697
:10C5D000984721490746684606F0A2F93546AB1B45
:10C5E000DBB29F424FF010020CD915F8011B03A8D3
:10C5F00006F0F0F903A9684606F014FA03A806F05D
:10C600004DF9ECE700210098144D07F02BFF144979
:10C610002860104805F089FE0A2229680D4805F0B7
:10C62000F9FE23682046DB689847236805461B69A6
:10C63000204698470146284603F068F8052005F093
:10C64000E9FC684606F02AF907B0F0BD7C2100201D
:10C650005D610200BC2C00206163020020220020EA
:10C660008A61020010B5034B0360044602F0F0FB40
:10C67000204610BDFC64020010B50446FFF7F2FF2F
:10C68000204606F00FFA204610BD000010B5034BFF
:10C6900003600446FFF7E6FF204610BDFC60020081
:10C6A00010B50446FFF7F2FF204606F0FBF92046DE
:10C6B00010BD00009FEDF87ADFEDF87AE0EE077A22
:10C6C0002DE9F04F9FEDF67AE0EE877A9FEDF57A4F
:10C6D000E1EE077A9FEDF47AE1EE877A9FEDF37A47
:10C6E000E2EE077A9FEDF27AE2EE877A9FEDF17A39
:10C6F000E3EE077A9FEDF07A77EE877A9FEDEF7A97
:10C7000077EE877A9FEDEE7A77EE877A9FEDED7A76
:10C7100077EEC77A9FEDEC7A2DED108B77EE877A66
:10C7200089B0F1EE677A17EE900AB0EE41AAF0EE0A
:10C73000619AB0EE429AF0EE628AB0EE438AB0EEB1
:10C7400040BAF0EE60AA06F031FB41EC100B04F0A9
:10C75000D7FD002251EC100BDC4B06F0C9F9024664
:10C760000B460020D94906F09FFC06F055FE9FEDD0
:10C77000D87ADFEDD87AEBEE077A9FEDD77AEAEE3A
:10C78000877A9FEDD67AEAEE077A9FEDD57AE9EEC1
:10C79000877A9FEDD47AE9EE077A9FEDD37AE8EEB7
:10C7A000877A9FEDD27AE8EE077A9FEDD17A77EE1D
:10C7B000877A9FEDD07A77EE877A9FEDCF7A77EE02
:10C7C000877A9FEDCE7A77EE877A9FEDCD7A77EEF6
:10C7D000877A0BEE900AF1EE677A17EE900A06F070
:10C7E000E5FA41EC100B04F08BFD002251EC100B2C
:10C7F000B64B06F07DF902460B460020B34906F021
:10C8000053FC06F009FE9FEDBF7ADFEDBF7AEBEE39
:10C81000077A9FEDBE7AEAEE877A9FEDBD7AEAEE5F
:10C82000077A9FEDBC7AE9EE877A9FEDBB7AE9EE55
:10C83000077A9FEDBA7AE8EE877A9FEDB97AE8EE4B
:10C84000077A9FEDB87A77EE877A9FEDB77A77EE21
:10C85000877A9FEDB67A77EE877A9FEDB57A77EE95
:10C86000877A9FEDB47A77EE877A0DEE100AF1EEB3
:10C87000677A17EE900A06F099FA41EC100B04F073
:10C880003FFD002251EC100B904B06F031F90246AF
:10C890000B4600208D4906F007FC06F0BDFD9FED1C
:10C8A000A67ADFEDA67AEBEE077A9FEDA57AEAEE9F
:10C8B000877A9FEDA47AEAEE077A9FEDA37AE9EEF4
:10C8C000877A9FEDA27AE9EE077A9FEDA17AE8EEEA
:10C8D000877A9FEDA07AE8EE077A9FED9F7A77EE50
:10C8E000C77A9FED9E7A77EE877A9FED9D7A77EEF5
:10C8F000877A9FED9C7A77EE877A9FED9B7A77EE29
:10C90000C77A0EEE100AF1EE677A17EE900A06F07B
:10C910004DFA41EC100B04F0F3FC002251EC100B2B
:10C920006A4B06F0E5F802460B460020674906F020
:10C93000BBFB06F071FD9FED8D7ADFED8D7AEBEE9E
:10C94000077A9FED8C7AEAEE877A9FED8B7AEAEE92
:10C95000077A9FED8A7AE9EE877A9FED897AE9EE88
:10C96000077A9FED887AE8EE877A9FED877AE8EE7E
:10C97000077A9FED867A77EE877A9FED857A77EE54
:10C98000877A9FED847A77EEC77A9FED837A77EE88
:10C99000877A9FED827A77EE877A0DEE900AF1EE34
:10C9A000677A17EE900A06F001FA41EC100B04F0DA
:10C9B000A7FC002251EC100B444B06F099F80246FC
:10C9C0000B460020414906F06FFB06F025FD9FED68
:10C9D000747ADFED747AEBEE077A9FED737AEAEE04
:10C9E000877A9FED727AEAEE077A9FED717AE9EE27
:10C9F000877A9FED707AE9EE077A9FED6F7AE8EE1D
:10CA0000877A9FED6E7AE8EE077A9FED6D7A77EE82
:10CA1000877A9FED6C7A77EE877A9FED6B7A77EE67
:10CA2000877A9FED6A7A77EE877A9FED697A77EE5B
:10CA3000877A0EEE900AF1EE677A17EE900A06F00A
:10CA4000B5F941EC100B04F05BFC9FED627ADFED71
:10CA5000627AEBEE077A9FED617AEAEE877A9FEDD4
:10CA6000607AEAEE077A9FED5F7AE9EE877A9FEDCA
:10CA70005E7AE9EE077A9FED5D7AE8EE877A9FEDC0
:10CA80005C7AE8EE077A9FED5B7A77EE877A9FED26
:10CA90005A7A77EE877A05E1A3EC5FBD91BE803FBD
:10CAA000926851BD1E6D6BBD3597553DD9E667BD8A
:10CAB00035210CBD736CC43CC77C073DFCABD73D36
:10CAC000293B043E1DDDAA3C7D7F013D0000F03F77
:10CAD000B8B482BC49D5803FBF1D3DBD995CA13D26
:10CAE00009BE463CD0DB77BD1686BC3D0A05A53D98
:10CAF0001FB61B3DA343D43D2669273DD7EA933D8E
:10CB0000892A533C1D5CD73D819A803FD0C4B43CF8
:10CB1000787CF43DA47ABA3D52B3D73C77B1603DFE
:10CB2000F3821B3D117F073B5206DD3CDFA4EA3D4B
:10CB300051B1433D37BCBF3DE0AE423C97CE803F54
:10CB4000D958E93D7C42C53D2222293C52E2E33CD2
:10CB50008171CB3DC95F753D5E30E13B0514B33D4E
:10CB60005D897A3D13B0A43B9993863D476B91BD97
:10CB70002085803F5F7AC33DE52FBA3D76E56E3D67
:10CB8000C33995BDB56EB83DB6989C3C3009B83DEB
:10CB900009231B3D5FBE943CBC79D03D6EA3BB3DD9
:10CBA000D877213EAD12843FE88AFE3D4C9FF13D8F
:10CBB00011DED23D284F543ED62A113EEDCE323DF5
:10CBC000EF4C0B3EEA266B3E9C84403EDF102B3E32
:10CBD0005D5F7D3EFD27523EE15B833F55D4CC3DFA
:10CBE000FC966F3EB9B34C3EB90C533E460F213E06
:10CBF000813B5EBC2FBE253E5E16E53DB1742B3EEB
:10CC00000D23613EA3FC1A3E51773A3E4569833FAE
:10CC1000F0466F3E237BEA3D368A313E9C0E303E25
:10CC2000CF59D63D41C2443CDE3D0F3EBC33793E38
:10CC300074A3373EEDB2B93DA8851E3E0AA8493E11
:10CC40004904833FFBA0523E44EE6D3DD9FB263E96
:10CC5000B93E2E3E6D8E0A3EE5B3423D7BC73F3E58
:10CC60000FF05B3ED13EBE3D7AD6363EE7C45E3E17
:10CC70005E285B3EA4A8823FC295673E72D7D03D36
:10CC8000886C833D0E45EC3DE146343E0D26A63DC5
:10CC900043742B3E2F46F43D81E46E3EBE9A423EE5
:10CCA0005254643E1FED2B7A77EE877A1FED2C7A73
:10CCB00077EE877A1FED2D7A77EE877A5BEC10ABF3
:10CCC000F1EE677A17EE900A06F070F841EC100B5F
:10CCD00004F016FB1FED347A5FED347AEBEE077A41
:10CCE0001FED357AEAEE877A1FED367AEAEE077A9B
:10CCF0001FED377AE9EE877A1FED387AE9EE077A89
:10CD00001FED397AE8EE877A1FED3A7AE8EE077A76
:10CD10001FED3B7A77EE877A1FED3C7A77EE877AC4
:10CD20001FED3D7A77EE877A1FED3E7A77EE877AB0
:10CD30001FED3F7A77EE877A59EC108BF1EE677A28
:10CD400017EE900A06F032F841EC100B04F0D8FA16
:10CD50001FED467A5FED467AEBEE077A1FED477AD4
:10CD6000EAEE877A1FED487AEAEE077A1FED497AF4
:10CD7000E9EE877A1FED4A7AE9EE077A1FED4B7AE2
:10CD8000E8EE877A1FED4C7AE8EE077A1FED4D7AD0
:10CD900077EE877A1FED4E7A77EE877A1FED4F7A1E
:10CDA00077EE877A1FED507A77EE877A1FED517A0A
:10CDB00077EE877A57EC106BF1EE677A17EE900AF0
:10CDC00005F0F4FF41EC100B04F09AFA1FED587ACD
:10CDD0005FED587AEBEE077A1FED597AEAEE877A23
:10CDE0001FED5A7AEAEE077A1FED5B7AE9EE877A51
:10CDF0001FED5C7AE9EE077A1FED5D7AE8EE877A3F
:10CE00001FED5E7AE8EE077A1FED5F7A77EE877A9C
:10CE10001FED607A77EE877A1FED617A77EE877A79
:10CE20001FED627A77EE877A1FED637A77EE877A65
:10CE300055EC104BF1EE677A17EE900A05F0B6FF4D
:10CE400041EC100B04F05CFA0022F34BB0EE40CA48
:10CE5000F0EE60CA5046594605F04AFE02460B46BF
:10CE60000020ED4906F020F906F0D6FA9FEDEB7AA6
:10CE7000DFEDEB7A06EE900AE6EE877A9FEDE97A2F
:10CE80002BEE077AEBEE877A9FEDE77A2AEE877A28
:10CE9000EBEE877A9FEDE57A2AEE077AEBEE877A5A
:10CEA0009FEDE37A29EE877AEBEE877A9FEDE17AC0
:10CEB00029EE077AEBEE877A9FEDDF7A28EE877A04
:10CEC000EBEE877A9FEDDD7A28EE077AEBEE877A34
:10CED000F1EE677A17EE900A05F068FF41EC100B4F
:10CEE00004F00EFA002251EC100BCB4B05F000FEC3
:10CEF00002460B460020C84906F0D6F806F08CFA28
:10CF000000220BEE900AC44B4046494605F0F0FD66
:10CF100002460B460020C04906F0C6F806F07CFA2F
:10CF20009FEDC77ADFEDC77A06EE900AE6EE877AC4
:10CF30009FEDC57A2BEE077AEDEE077A9FEDC37A67
:10CF40002AEE877AEDEE077A9FEDC17A2AEE077A0C
:10CF5000EDEE077A9FEDBF7A29EE877AEDEE077A3C
:10CF60009FEDBD7A29EE077AEDEE077A9FEDBB7A49
:10CF700028EE877AEDEE077A9FEDB97A28EE077AE8
:10CF8000EDEE077AF1EE677A17EE900A05F00EFFE4
:10CF900041EC100B04F0B4F9002251EC100B9E4B45
:10CFA00005F0A6FD02460B4600209B4906F07CF8E2
:10CFB00006F032FA00220DEE100A974B3046394641
:10CFC00005F096FD02460B460020934906F06CF8EA
:10CFD00006F022FA9FEDA37ADFEDA37A06EE900A1F
:10CFE000E6EE877A9FEDA17A2BEE077AEEEE077ACE
:10CFF0009FED9F7A2AEE877AEEEE077A9FED9D7A73
:10D000002AEE077AEEEE077A9FED9B7A29EE877A71
:10D01000EEEE077A9FED997A29EE077AEEEE077A1F
:10D020009FED977A28EE877AEEEE077A9FED957A54
:10D0300028EE077AEEEE077AF1EE677A17EE900A9D
:10D0400005F0B4FE41EC100B04F05AF9002251EC4B
:10D05000100B714B05F04CFD02460B4600206E494B
:10D0600006F022F806F0D8F900220EEE100A6A4BFC
:10D070002046294605F03CFD02460B460020664945
:10D0800006F012F806F0C8F99FED7F7ADFED7F7A9F
:10D0900006EE900AE6EE877A9FED7D7A2BEE077A10
:10D0A000EDEE877A9FED7B7A2AEE877AEDEE877A2E
:10D0B0009FED797A2AEE077AEDEE877A9FED777AFF
:10D0C00029EE877AEDEE877A9FED757A29EE077A59
:10D0D000EDEE877A9FED737A28EE877AEDEE877A08
:10D0E0009FED717A28EE077AEDEE877AF1EE677A96
:10D0F00017EE900A05F05AFE41EC100B04F000F90F
:10D10000002251EC100B444B05F0F2FC02460B469A
:10D110000020414905F0C8FF06F07EF900220DEE1F
:10D12000900A3D4B51EC1C0B05F0E2FC02460B460D
:10D130000020394905F0B8FF06F06EF99FED5B7AE3
:10D14000DFED5B7A06EE900AE6EE877A9FED597A7C
:10D150002BEE077AEEEE877A9FED577A2AEE877AE2
:10D16000EEEE877A9FED557A2AEE077AEEEE877A11
:10D170009FED537A29EE877AEEEE877A9FED517A0A
:10D1800029EE077AEEEE877A9FED4F7A28EE877ABE
:10D19000EEEE877A9FED4D7A28EE077AEEEE877AEB
:10D1A000F1EE677A17EE900A05F000FE41EC100BE5
:10D1B00004F0A6F8002251EC100B174B05F098FC78
:10D1C00002460B460020144905F06EFF06F024F9D4
:10D1D0009FED3F7ADFED3F7AEBEE077A9FED3E7AE7
:10D1E000EAEE877A9FED3D7AEAEE077A9FED3C7A88
:10D1F000E9EE877A9FED3B7AE9EE077A9FED3A7A7E
:10D20000E8EE877A9FED397AE8EE077A9FED387A73
:10D21000EBEE877AFCE000BF0000F03F34B35B41E7
:10D22000B207103E0C22983EEE395F3ED0D4803ECD
:10D23000F7F93A3E03497B3E3770CD3D76B3593D11
:10D24000F22B5B4166E481BC03A93B3ED9F3893EE6
:10D25000ABACA03E3CA58B3EFCDD8C3E5EEA1C3EAA
:10D2600067522D3D9F645B4129B1353D0446953E93
:10D27000EA92293E3D57A33E1C59AA3E5C63293ED3
:10D28000A50C933D7830263D8C985941D334153CFC
:10D29000A442763E8254783E81A5943EFF58893E52
:10D2A0001A21523ECDBF043EDDB00D3E0F5E5C4103
:10D2B000CE6DCF3DB4C32B3E20B9973E28C5943EDA
:10D2C000CFE9943E1BE7853DFED37A3DFC0D5A3DE8
:10D2D0005F4913C2F30EC9410F2ECDC1B8BA4D42FA
:10D2E000F02706C22AB725404BA6C74180E306BDFA
:10D2F00041236CBF739977BFEC326EBF9EC262BF91
:10D30000D82352BF55CEC5C1276CC6405DD282C15D
:10D3100022150042A7C70CC1AFAD0540817DACC04E
:10D320008ACC00C0BE3AC73F54B4C53F2DE1D13FBF
:10D330005DEAC23FB653D03F929DB5C1F375AA4195
:10D34000D5FA95C161F4E441F3A9A2C1C5B33B404C
:10D35000AAD292C0417EF34077D2753F1EDE7C3F59
:10D36000216A5E3F4D895F3FCFDC5C3FE29F93C007
:10D370003C0CDF401765E4C057C51741C96AAAC015
:10D380004D8CFFBF1E7F36C083B534C1C65FF53EEE
:10D39000CE7A013F35B1153F038B083F6147113FFE
:10D3A000C34925C022276E406F1012C08796564091
:10D3B000B50715C061EB0ABE22D184BF91E80AC04F
:10D3C000FC3E47BE223B56BECE0B32BE991C1CBE55
:10D3D000E3AA98BEBC1EE53D1F9F803FE184D73D78
:10D3E00030C76FBDEF12993D4A27A33D140AD13BC8
:10D3F000FB206C3DB25ADA3C5FE44D3DD1ECD43DAC
:10D4000072B4993C53A2E73C5D78983D455B493D39
:10D410001FED487AEDEE077A1FED497AEEEE077AB6
:10D420001FED4A7AEDEE877A0CEE100A1FED4C7A6A
:10D43000ECEE077AF1EE677A17EE900A05F0B6FC8B
:10D4400041EC100B03F05CFF1FED527A5FED527A56
:10D45000EBEE077A1FED537AEAEE877A1FED547AE6
:10D46000EAEE077A1FED557AE9EE877A1FED567AD4
:10D47000E9EE077A1FED577AE8EE877A1FED587AC2
:10D48000E8EE077A1FED597AEBEE877A1FED5A7AAC
:10D49000EDEE077A1FED5B7AEEEE077A1FED5C7A10
:10D4A000EDEE877A1FED5D7AECEE077A8DED000BDD
:10D4B000F1EE677A17EE900A05F078FC41EC100B5C
:10D4C00003F01EFF1FED647A5FED647AEBEE077ADE
:10D4D0001FED657AEAEE877A1FED667AEAEE077A43
:10D4E0001FED677AE9EE877A1FED687AE9EE077A31
:10D4F0001FED697AE8EE877A1FED6A7AE8EE077A1F
:10D500001FED6B7AEBEE877A1FED6C7AEDEE077A02
:10D510001FED6D7AEEEE077A1FED6E7AEDEE877AEB
:10D520001FED6F7AECEE077A8DED020BF1EE677A64
:10D5300017EE900A05F03AFC41EC100B03F0E0FE08
:10D540001FED767A5FED767AB0EE40FAF0EE60FA93
:10D55000EBEE077A1FED797AEAEE877A1FED7A7A99
:10D56000EAEE077A1FED7B7AE9EE877A1FED7C7A87
:10D57000E9EE077A1FED7D7AE8EE877A1FED7E7A75
:10D58000E8EE077A1FED7F7AEBEE877A1FED807A5F
:10D59000EDEE077A1FED817AEEEE077A1FED827AC3
:10D5A000EDEE877A1FED837AECEE077AF1EE677A7B
:10D5B00017EE900A05F0FAFB41EC100B03F0A0FE09
:10D5C0001FED897A5FED897AEBEE077A1FED8A7A93
:10D5D000EAEE877A1FED8B7AEAEE077A1FED8C7AF6
:10D5E000E9EE877A1FED8D7AE9EE077A1FED8E7AE4
:10D5F000E8EE877A1FED8F7AE8EE077A1FED907AD2
:10D60000EBEE877A1FED917AEDEE077A1FED927AB5
:10D61000EEEE077A1FED937AEDEE877A1FED947A9E
:10D62000ECEE077A5BEC10ABF1EE677A17EE900A3E
:10D6300005F0BCFB41EC100B03F062FE1FED9B7A82
:10D640005FED9B7AEBEE077A1FED9C7AEAEE877A24
:10D650001FED9D7AEAEE077A1FED9E7AE9EE877A52
:10D660001FED9F7AE9EE077A1FEDA07AE8EE877A40
:10D670001FEDA17AE8EE077A1FEDA27AEBEE877A2A
:10D680001FEDA37AEDEE077A1FEDA47AEEEE077A8E
:10D690001FEDA57AEDEE877A1FEDA67AECEE077AFC
:10D6A0001FEDA77A77EEC77A1FEDA87A77EE877A13
:10D6B00055EC104BF1EE677A17EE900A05F076FB09
:10D6C00041EC100B03F01CFE002251EC100BF74B49
:10D6D00005F00EFA02460B460020F44905F0E4FC82
:10D6E00005F09AFE9FEDF27ADFEDF27AEBEE077A23
:10D6F0009FEDF17AEAEE877A9FEDF07AEAEE077A0B
:10D700009FEDEF7AE9EE877A9FEDEE7AE9EE077A00
:10D710009FEDED7AE8EE877A9FEDEC7AE8EE077AF6
:10D720009FEDEB7AEBEE877A9FEDEA7AEDEE077AE2
:10D730009FEDE97AEEEE077A9FEDE87AEDEE877AD3
:10D740009FEDE77AECEE077A9FEDE67A77EE877A3F
:10D750009FEDE57A77EEC77A0EEE900AF1EE677AE2
:10D7600017EE900A05F022FB41EC100B03F0C8FD08
:10D77000002251EC100BCD4B05F0BAF902460B46D6
:10D780000020CA4905F090FC05F046FE9FEDD77ACF
:10D79000DFEDD77AEBEE077A9FEDD67AEAEE877A5D
:10D7A0009FEDD57AEAEE077A9FEDD47AE9EE877A93
:10D7B0009FEDD37AE9EE077A9FEDD27AE8EE877A89
:10D7C0009FEDD17AE8EE077A9FEDD07AEBEE877A7B
:10D7D0009FEDCF7AEDEE077A9FEDCE7AEEEE077AE7
:10D7E0009FEDCD7AEDEE877A9FEDCC7AECEE077A5D
:10D7F0009FEDCB7A77EE877A9FEDCA7A77EE877ABC
:10D800000CEE900AF1EE677A17EE900A05F0CEFA68
:10D8100041EC100B03F074FD9FEDC37ADFEDC37A8A
:10D82000EBEE077A9FEDC27AEAEE877A9FEDC17A36
:10D83000EAEE077A9FEDC07AE9EE877A9FEDBF7A2C
:10D84000E9EE077A9FEDBE7AE8EE877A9FEDBD7A22
:10D85000E8EE077A9FEDBC7AEBEE877A9FEDBB7A14
:10D86000EDEE077A9FEDBA7AEEEE077A9FEDB97A80
:10D87000EDEE877A9FEDB87AECEE077A9FEDB77AF6
:10D8800077EE877A9FEDB67A77EE877A59EC108B30
:10D89000F1EE677A17EE900A05F088FA41EC100B6A
:10D8A00003F02EFD0022814B4046494657EC106B99
:10D8B00005F01EF902460B4600207C4905F0F4FBFA
:10D8C00005F0AAFD9FEDA77ADFEDA77A06EE900A94
:10D8D000E6EE877A9FEDA57A2BEE077AEEEE877A51
:10D8E0009FEDA37A2AEE877AEEEE877A9FEDA17AF2
:10D8F0002AEE077AEEEE877A9FED9F7A29EE877AF5
:10D90000EEEE877A9FED9D7A29EE077AEEEE877A22
:10D910009FED9B7A28EE877AEEEE877A9FED997AD3
:10D9200028EE077AEEEE877A9FED977A2BEE877ACC
:10D93000EEEE877A9FED957A2DEE077AEEEE877AF6
:10D940009FED937A2EEE077AEEEE877A9FED917A2D
:10D950002DEE877AEEEE877A9FED8F7A2CEE077A9E
:10D96000EEEE877AF1EE677A17EE900A05F01EFA6E
:10D9700041EC100B03F0C4FC002251EC100B4B4B9C
:10D9800005F0B6F802460B460020484905F08CFB2E
:10D9900005F042FD00220EEE900A444B3046394617
:10D9A00005F0A6F802460B460020404905F07CFB36
:10D9B00005F032FD9FED797ADFED797A06EE900A77
:10D9C000E6EE877A9FED777A2BEE077AECEE877A90
:10D9D0009FED757A2AEE877AECEE877A9FED737A5F
:10D9E0002AEE077AECEE877A9FED717A29EE877A34
:10D9F000ECEE877A9FED6F7A29EE077AECEE877A64
:10DA00009FED6D7A28EE877AECEE877A9FED6B7A40
:10DA100028EE077AECEE877A9FED697A2BEE877A0B
:10DA2000ECEE877A9FED677A2DEE077AECEE877A37
:10DA30009FED657A2EEE077AECEE877A9FED637A9A
:10DA40002DEE877AECEE877A9FED617A2CEE077ADD
:10DA5000ECEE877AF1EE677A17EE900A05F0A6F9F8
:10DA600041EC100B03F04CFC002251EC100B0F4B5F
:10DA700005F03EF802460B4600200C4905F014FB69
:10DA800005F0CAFC9FED537ADFED537AEBEE077A8F
:10DA90009FED527AEAEE877A9FED517AEAEE077AA5
:10DAA0009FED507AE9EE877AD0E000BF0000F03FAA
:10DAB000123E0DBD24AB803FCB5FF83C01DED23C73
:10DAC000F9DC2C3DBBFF863D5BD6513CBBAD8EBD2A
:10DAD000EBD691BD3A6465BCB8710C3CC5A1F8BBEE
:10DAE000FF48F1BB0F1FD63D618BC63C0B5E783DF6
:10DAF000D343833FF3C90D3E8DD0ED3D8030ED3BE8
:10DB000043CAB83DD66E983D55CFB43D3605273D46
:10DB1000A958373D69B3B33D2514113CF191A83D97
:10DB2000B7B4533EE674023E8D839A3DDA0C823FD1
:10DB30007455E5BBF6522C3EC72C0F3E36F6143D0D
:10DB4000655BFD3D9E6EE73D42DC393E568D073EEE
:10DB500005452D3EBE5D083D8C7CCBBB5374283EF5
:10DB60006271103D62072141A8289E3D55F2E53DB6
:10DB700045A1383E61DE613E969D593EA563093E52
:10DB800005FDDB3D9224FD3A330EBF3D4869093D5A
:10DB900003960B3E78C75E3E25D6F63DE05F164104
:10DBA000A570B5BC7122C03D494A793E2806E63DC4
:10DBB0009BF0EA3D7F84863D5D7B453DE2600ABC8B
:10DBC000603A3B3ECFBA253EAAC03C3E1A10FB3D10
:10DBD000BAA2FD3D149B99C08D0CC740873BCFC0B6
:10DBE0002583084108C397C029A0B0BF35B01FC026
:10DBF000A51020C1CA33CF3E4AA99B3E1A15C23E8A
:10DC00008B10BC3EDCB2CA3EF94FA83EEC2D953ECF
:10DC1000B858F9BF3BB82F409640C8BF331F0940E2
:10DC20008F8BCDBF11F5A6BDD92855BF53B08ABF84
:10DC3000C6DA84BE4A90A4BEF0FB94BED42A87BE46
:10DC40009AC013BEE39C12BE63A6A2BE1FED1A7A51
:10DC5000E9EE077A1FED1B7AE8EE877A1FED1C7A52
:10DC6000E8EE077A1FED1D7AEBEE877A1FED1E7A3C
:10DC7000EDEE077A1FED1F7AEEEE077A1FED207AA0
:10DC8000EDEE877A1FED217AECEE077A1FED227A0E
:10DC9000EEEE877A0CEE900A1FED247AECEE877A8E
:10DCA000F1EE677A17EE900A05F080F841EC100B60
:10DCB00003F026FB1FED2A7A5FED2A7AEBEE077A56
:10DCC0001FED2B7AEAEE877A1FED2C7AEAEE077ABF
:10DCD0001FED2D7AE9EE877A1FED2E7AE9EE077AAD
:10DCE0001FED2F7AE8EE877A1FED307AE8EE077A9B
:10DCF0001FED317AEBEE877A1FED327AEDEE077A7F
:10DD00001FED337AEEEE077A1FED347AEDEE877A67
:10DD10001FED357AECEE077A1FED367AEEEE877A54
:10DD20001FED377AECEE877A57EC106BF1EE677ADD
:10DD300017EE900A05F03AF841EC100B03F0E0FA08
:10DD4000002251EC100B6C4B04F0D2FE02460B4645
:10DD50000020694905F0A8F905F05EFB0022049057
:10DD6000654B3046394604F0C3FE02460B460020A0
:10DD7000614905F099F905F04FFB002205905E4BD3
:10DD80002046294604F0B4FE02460B4600205A49BC
:10DD900005F08AF905F040FB00220690564B5046EC
:10DDA000594604F0A5FE02460B460020524905F0F4
:10DDB0007BF905F031FB002207904F4B51EC1F0B14
:10DDC00004F096FE02460B4600204B4905F06CF924
:10DDD00005F022FB00220FEE100A474BDDE902019D
:10DDE00004F086FE02460B460020434905F05CF92C
:10DDF00005F012FB00220FEE900A3F4BDDE9000117
:10DE000004F076FE02460B4600203B4905F04CF933
:10DE100005F002FBDFED397A07EE100A6BEEA7BAC8
:10DE2000DFED377AE7EE2B7A9FED367A2DEE07DAC3
:10DE30009FED357AEFEE8D7A2EEE07EA9FED337A7D
:10DE4000EFEE0E7A6DEE87DA9DED077AE7EE2D7A2A
:10DE50009FED2F7A2CEE07CA9DED067AE7EE0C7A3D
:10DE60009FED2C7A6EEE87EA9DED057AE7EE2E7A2D
:10DE70009FED297A6CEE87CA9DED047AE7EE2C7A45
:10DE80009FED267AEBEE077A9FED257AEAEE877A08
:10DE90009FED247AEAEE077A9FED237AE9EE877AFE
:10DEA0009FED227AE9EE077A9FED217AE8EE877AF4
:10DEB0009FED207AE8EE077AF1EE677A17EE900A86
:10DEC00004F074FF41EC100B03F01AFA002251EC3D
:10DED000100B094B04F00CFE02460B4600200649CD
:10DEE00005F0E2F805F098FA00EE100A09B0BDEC72
:10DEF000108BBDE8F08F00BF0000F03F42AE244120
:10DF00006CD2E440973D75419F912B41BA5EAE4083
:10DF10000E35EE3F71C583402B14AE3FF41C42C258
:10DF2000EF15BFC18C884D42D52FA3C16B06DA40D7
:10DF300004A9C040CDAA823E284B29481A684FF454
:10DF40007A7393FBF2F307EE903A70B5F8EEE77A46
:10DF5000244B254D254CC3ED007A02F0CDFF18214E
:10DF6000284602F04BFF22462149224E2846224DE8
:10DF700005F0A2FAFF231A461946284601F09AFA3C
:10DF800022461E4928461E4D05F096FA1D491E4898
:10DF900001F05AFB02221D49284601F05DFB28468C
:10DFA0001B4D2246314605F087FA082219492846BA
:10DFB00001F052FB2846184D2246314605F07CFA06
:10DFC000122216492846142300F06CFF22462846E8
:10DFD0001349BDE8704005F06FBA00BF8C200020E7
:10DFE0001822002088210020C82300208020002043
:10DFF000090E02008DC601004C22002029F4010008
:10E000008C210020ED610200F0230020F26102006B
:10E01000E0210020F7610200B0210020FC61020035
:10E0200051EE010038B5054651B101290AD0022947
:10E030000AD003290AD0042914BF00242D2406E0A5
:10E040000C4604E02A2402E02B2400E02C24214684
:10E05000134802F0FAFD2946114802F013FD012091
:10E0600003F0D8FF00210E4802F0F9FD21460322FB
:10E070000B4802F0E7FD012003F0CCFF084802F056
:10E0800013FD0446064802F00FFD0546044802F061
:10E090000BFD012003F0BEFF44EA052080B238BD2D
:10E0A000FC2B00200000000008B5FFF7BBFF07EEC7
:10E0B000900AF8EE677A17EE900A04F077FE0AA34A
:10E0C000D3E9002304F0C6FE05F0A6F904F06EFEC5
:10E0D00007A3D3E9002304F009FD05F09DF900EE44
:10E0E000100A08BDAFF300807B14AE47E17A943F7D
:10E0F000666666666612714008B501462720FFF71E
:10E10000D3FFF2EE027A20EE270AF1EE047A80EED7
:10E11000277ADFED057A77EE277A17EE900A04F07A
:10E1200045FE41EC100B08BD0000004208B5014659
:10E130002620FFF7B9FFF2EE027A20EE270AF1EE71
:10E14000047A80EE277ADFED057A77EE277A17EEEC
:10E15000900A04F02BFE41EC100B08BD00000042B9
:10E160002DE9F04FB04BB14C2DED028BD4ED007A80
:10E1700093ED008A99B037EE888A03F01BFF07EE13
:10E18000900AF8EE677AB4EEE78AF1EE10FA40F101
:10E190002D8403F00FFFA64B029307EE900A1A7826
:10E1A000F8EE677AC4ED007ADAB1A249A24804F029
:10E1B000D5F8A249A04804F0B8F894ED007ADFED54
:10E1C000A07AC7EE276A16EE900A04F0EFFD41EC44
:10E1D000100B0221984804F0C5F99A49964804F0BA
:10E1E000BDF8994D2B78BBB19849934804F09DF840
:10E1F00003F0E0FE07EE900AB8EE677AD4ED007AFD
:10E2000077EE677A17EE900A04F0D0FD41EC100B20
:10E210000221894804F0A9F98D4800F0A1FF2B786C
:10E22000BBB18C49844804F080F803F0C3FE07EECC
:10E23000900AB8EE677AD4ED007A77EE677A17EE37
:10E24000900A04F0B3FD41EC100B02217A4804F06F
:10E250008CF91D2003F036FF7F4B804F186001289A
:10E26000064698460AD13B68092B07DC5023014635
:10E270000F203B6003F014FF794B1E70029B1B784C
:10E280004BB178496C4804F050F80A22D8F80010D5
:10E29000694804F0BFF83E68704B002E16DD704FE1
:10E2A0003A78013E1E604AB986B9022201210F2048
:10E2B0001A6003F0F5FE01233B7007E036B91E2219
:10E2C00031460F201A6003F0EBFE3E702B78BBB195
:10E2D0006549594804F029F803F06CFE07EE900AEE
:10E2E000B8EE677AD4ED007A77EE677A17EE900A87
:10E2F00004F05CFD41EC100B02214F4804F035F9AD
:10E3000000215A48DFF874B1DFF87481DFF874A196
:10E3100002F0D6FDB2EE048A20EE080A012153482D
:10E320008BED000A02F0CCFD20EE080A02214F48D6
:10E330008BED010A02F0C4FD20EE088ADBF8000034
:10E34000DBED018A8BED028A04F030FD68EE087A7D
:10E350000646E8EEA87A0F4617EE900A04F026FD6E
:10E3600041EC100B03F050F8B0EE401AF0EE601ADA
:10E3700047EC106B02F0C2FF27A3D3E9002351EC56
:10E38000100B04F067FDF1EE487AC8E9000117EEC2
:10E39000900A04F00BFDF1EE687ACDE9000117EE6A
:10E3A000900A04F003FD9DED001B41EC100B02F000
:10E3B000A5FF19A3D3E9002351EC100B04F04AFD8B
:10E3C000002206460F462A4BD8E9000104F090FBD4
:10E3D0000022C8E90001274B3046394604F0ACFF63
:10E3E000CDF8008000284FD00DA3D3E9002330469C
:10E3F000394604F07DFB00221F4B06460F4604F011
:10E40000B9FF10B9CAE9006746E000221A4B30464E
:10E41000394604F06BFB3DE046DF617EDCA54C40F5
:10E420000000000000207C408821002030220020D5
:10E430007C21002064680200BC2C002001620200E4
:10E4400000007A4408620200EC2300200B62020004
:10E450004C2200202F620200E823002084200020AC
:10E4600048220020456202004E620200C8230020BC
:10E4700000806640008056C000807640D421002095
:10E4800080210020282200200022C24B304639463D
:10E4900004F02EFBCAE900012B78BBB1BE49BF488E
:10E4A00003F043FF03F086FD07EE900AB8EE677AAB
:10E4B000D4ED007A77EE677A17EE900A04F076FCD6
:10E4C00041EC100B0221B54804F04FF8B44FB54BA6
:10E4D0000393B8460026B946013630460493FFF749
:10E4E00025FE51EC100B04F097FF48F8040B304662
:10E4F000FFF702FE51EC100B04F08EFF049B042E7C
:10E5000043F8040BE8D199ED017AD9ED007AA64BD6
:10E510002A7877EE877A99ED027A77EE877A99ED05
:10E52000037A77EE877AB5EE007A67EE877A9846B7
:10E53000C3ED007ABAB19D49984803F0F6FE03F0A6
:10E5400039FD07EE900AB8EE677AD4ED007A77EEDF
:10E55000677A17EE900A04F029FC41EC100B0221B7
:10E560008E4804F002F8029B1B781BB190498B483F
:10E5700003F0F4FEDFF87892484699F8026002F062
:10E58000BDFD10FB06F6B6B207EE906A9FED897AE4
:10E59000894B0493F8EE677A484677EE677AC3EDC5
:10E5A000007A02F0B1FC20B1029B1B78002B40F0F6
:10E5B00018822B78BBB18149784803F0B6FE03F08E
:10E5C000F9FC07EE900AB8EE677AD4ED007A77EEA0
:10E5D000677A17EE900A04F0E9FB41EC100B022178
:10E5E0006E4803F0C2FF029B1B78002B00F08C806A
:10E5F0006C4E4FF0000909F101097149674803F0B9
:10E6000094FE0A224946654803F002FF6D496348BB
:10E6100003F08BFE56F8040B04F0C8FB41EC100B22
:10E6200002215E4803F09EFF67495C4803F07DFECF
:10E630000A224946594803F0EBFE6249574803F065
:10E6400074FE57F8040B04F0B1FB41EC100B0221EF
:10E65000524803F08AFFB9F1040FCCD15B494F480F
:10E6600003F063FED8F8000004F0A0FB41EC100BAF
:10E6700002214A4803F076FF5549484803F06EFEF0
:10E680005449464803F051FEDBF8000004F08EFBCD
:10E6900041EC100B0221414803F064FF4C493F4814
:10E6A00003F05CFE4C493D4803F03FFEDBF80400FC
:10E6B00004F07CFB41EC100B0221384803F052FFC0
:10E6C0004349364803F04AFE4449344803F02DFEDE
:10E6D000DBF8080004F06AFB41EC100B02212F4824
:10E6E00003F040FF3A492D4803F038FE3C492B48DF
:10E6F00003F01BFE304B186804F058FB41EC100B84
:10E700000221264803F031FF364B1B68DBB1DAE902
:10E71000000104F081FE009B0590D3E9000104F0A4
:10E720007BFE204B244A9DED053A92ED002AD3ED65
:10E73000031A93ED021AD3ED010A93ED000A02EEDB
:10E74000900AFDF7B7FF009BDAE90089D3E900677B
:10E7500003F048FC244B1B68C01A244B1B689842EA
:10E76000C0F00A814946404604F00EFE0A220146E6
:10E7700006A804F01DF93946304604F005FE0A22C9
:10E78000014609A804F014F9029B1B78002B41D024
:10E7900030E000BF0080564068620200BC2C0020C0
:10E7A0000422002038220020E0230020886202009A
:10E7B000A162020000007F43E4230020BE62020049
:10E7C000D962020010630200DC620200E362020010
:10E7D00088680200EB620200F3620200FB62020042
:10E7E00003630200742100203422002078210020DD
:10E7F000182200208049814803F097FD09A97F482D
:10E8000003F08EFD7E497D4803F08FFD06A97B480D
:10E8100003F09AFD0CA87B4900F0CAFC0CA800F09C
:10E82000C3FA002800F09C809FED777ADFED776ACD
:10E830000FAB13AEF0EE475AB2EE006A039AF2EC59
:10E84000017AF4EEC77AF1EE10FA039202D583ED65
:10E85000007A08E0F4EEE67AF1EE10FAD4BFC3EDE8
:10E86000007AC3ED006AD3ED007A77EEE57A67EEC1
:10E87000867AE3EC017A9E42E0D1142200213046F0
:10E8800004F0E2FEDAE9000104F0A6FD009B8DF839
:10E890004C00D3E9000104F09FFD049B8DF84D006E
:10E8A000D3ED007ADBF80000FCEEE77A17EE903A41
:10E8B000DDED0F7A8DF84E30FCEEE77A17EE903AE8
:10E8C000DDED107A8DF84F30FCEEE77A17EE903AD6
:10E8D000DDED117A8DF85030FCEEE77A17EE903AC4
:10E8E000DDED127A8DF85130FCEEE77A17EE903AB2
:10E8F0008DF8523004F05AFA0022454B04F0F8F833
:10E900000022444B04F0A6FA04F066FD8DF8530093
:10E91000DBF8040004F04AFA00223D4B04F0E8F86A
:10E9200000223C4B04F096FA04F056FD8DF854009A
:10E93000DBF8080004F03AFA0022354B04F0D8F86E
:10E940000022344B04F086FA04F046FD14228DF8C0
:10E9500055003146304800F090FA082003F05AFB89
:10E960002E4A2F4B11681B6809A80B44136003F053
:10E9700095FF06A803F092FF2B78BBB129491F48E9
:10E9800003F0D3FC03F016FB07EE900AB8EE677AAB
:10E99000D4ED007A77EE677A17EE900A04F006FA63
:10E9A00041EC100B0221154803F0DFFD2B78EBB191
:10E9B0001D49124803F0B9FC03F0FCFA07EE900A77
:10E9C000B8EE677AD4ED007A77EE677A17EE900AA0
:10E9D00004F0ECF941EC100B0221084803F0C5FDEE
:10E9E00004E01249054803F0A0FCE2E519B0BDECD3
:10E9F000028BBDE8F08F00BF13630200BC2C002027
:10EA0000646802004C22002000008C420000CA42D0
:10EA10000000F03F00005940B021002034220020C7
:10EA20007821002027630200436302004F63020045
:10EA300073B54FF4E1315F4803F0E3FD5E4B1A78A4
:10EA40001E461AB15D495B4803F06FFC322003F0AB
:10EA5000E1FA5B485B4C02F059F8322003F0DAFA35
:10EA60005949544803F07AFC204602F07DFB4FF4EC
:10EA7000FA7003F0CFFA204602F0E0FA64254FF472
:10EA8000FA7003F0C7FAA580284603F0C3FA022102
:10EA9000204602F0CDFA284603F0BCFA4B4945481F
:10EAA00003F043FC4A4802F0DCF90A2201464148DF
:10EAB00003F0B0FCC82003F0ADFA01210F2003F0F1
:10EAC000CDFA00210F2003F0EBFA00211D2003F006
:10EAD000C5FA0121082003F0C1FA0021082003F043
:10EAE000DFFA3C493C4800F046FB3A493A4800F01E
:10EAF000D2FC3A4800F021F90146374800F038FBD3
:10EB00004FF6FF71344800F0C9FC3449324800F038
:10EB100088FC3349304800F084FC32492E4800F02C
:10EB200080FC31492C4800F07CFC304A2A48002106
:10EB300000F04BFB2E4A2848012100F046FB2D4AED
:10EB40002D48002100F0E3F92A4A2C48002100F06A
:10EB5000DEF902A9002401F8014D0122264800F047
:10EB60008CF902A9012201F8024D244800F085F930
:10EB7000234B49F640421A6003F034FA214B1860E7
:10EB8000154800F046FB33781BB11F49094803F0D4
:10EB9000E5FB1E4B1E4A1F4918680023834203DA17
:10EBA00042F8041B0133F9E74FF4FA7003F032FA2C
:10EBB00002B070BDBC2C00207C21002058630200F4
:10EBC000FC2B002018220020626302006F63020009
:10EBD000C8230020886302004C220020F02300207C
:10EBE00090210020E4210020B421002019C501005B
:10EBF00065C50100ADC501008C210020E021002089
:10EC00007821002034220020926302008820002016
:10EC1000F82300207DFFC74238B50025057329B9C8
:10EC20000B4B0C4A0C48232104F04CFC01600B49AF
:10EC300051F82220027151F8233083719DF8103071
:10EC400051F8233043710223C371856038BD00BF82
:10EC5000E9630200AC630200F7630200D8660200B9
:10EC6000037B23B9437383730361012303737047E9
:10EC70001FB50DF1100E0EE90E009DF80810026888
:10EC800000230129C2F80035039B08D004D30329CF
:10EC900007D143F0040304E043F0020301E043F032
:10ECA0000603C2F85435019BC2F824350123C2F88B
:10ECB000003505B05DF804FB10B5FFF7D1FF036820
:10ECC0008279C3F808254279C3F80C250279C3F884
:10ECD0001025034BBDE810400ECBFFF7C9BF00BFA6
:10ECE000C82B00200368C3F81C15D3F80821002A9C
:10ECF000FBD0D3F818050022C3F80821C0B2704732
:10ED000007B5094B09490A484FF080421A600022B2
:10ED10009A6002221A711323009314221223FFF720
:10ED20007BFF03B05DF804FBC82B002000300040DF
:10ED3000D42B002001608280704700687047808873
:10ED4000704729DF704728DF704703681868013073
:10ED500018BF0120704708B54FF080531A69036847
:10ED6000B3FBF2F31846FFF7EEFF1128FAD008BD07
:10ED700038B504460D461946FFF7EDFF8B081A46D5
:10ED800029462068FFF7DDFF1128F8D038BD10B5FF
:10ED900002680846043A441AA34204D952F8044FC0
:10EDA00040F8044BF7E710BD07B50023062269467B
:10EDB00004300093ADF8043004F02CFC003018BF90
:10EDC000012003B05DF804FB10B5034C043021466C
:10EDD00000F05AFC204610BDE82B00200B68436071
:10EDE0008B8803817047002343600381704708B517
:10EDF0000160FFF7F8FF08BD807A7047C068704770
:10EE0000007C704700207047C368585C704770B53D
:10EE10000D46114602680446D6691A46B0470123DA
:10EE2000A374A36923B121462846BDE87040184762
:10EE300070BD70B5044608460D4605F071FA2368AA
:10EE4000C2B229462046DB69BDE870401847000081
:10EE5000044B10B504460360C06808B104F0D2FB4F
:10EE6000204610BD6864020010B50446FFF7F0FFAD
:10EE7000204603F017FE204610BD10B5837A9A4253
:10EE8000044628BF1A460274C06804F0D2FB6069C9
:10EE900028B1036821461B68BDE8104018470120CF
:10EEA00010BD000070B504461D461646043042F6FB
:10EEB000030200F08FF8142D4FF0000228460A4B91
:10EEC000236028BF1420A072E26022746674A274CA
:10EED000E2746261A261E261226215B104F08AFB10
:10EEE000E060204670BD00BF68640200407C70474F
:10EEF000C07C70470346002ADA7414BF0722082238
:10EF0000084653F822200AB11946104770470B29CA
:10EF10009CBF063140F8212070474161704770471F
:10EF20007047704700207047704770470020704757
:10EF30000020704700207047002070470020704775
:10EF40000020704700207047002070470020704765
:10EF500000207047002070470020704770477047BE
:10EF60007047704710B5044603F09CFD204610BD65
:10EF7000054A02606422828001210022C28002814F
:10EF80008172C2600261704798640200016170473B
:10EF90000120704710B5034B03600446FFF758FF8C
:10EFA000204610BDFC64020010B50446FFF7F2FFD6
:10EFB000204603F077FD204610BD000038B504461A
:10EFC0001D46FFF76FFF024B25742360204638BDB6
:10EFD000FC64020010B50446FFF7ACFE024A137849
:10EFE00001331370204610BDFA2B0020014B187816
:10EFF000704700BFFA2B0020C06803681B6A1847DF
:10F00000A0F10400FFF7F8BFC06803685B6A184707
:10F01000A0F10400FFF7F8BFC06803689B6A1847B7
:10F02000A0F10400FFF7F8BFC0680368DB6A184767
:10F03000A0F10400FFF7F8BFC06803681B6B184716
:10F04000A0F10800FFF7F8BFC06803685B6B1847C2
:10F05000A0F10800FFF7F8BFC06803689B6B184772
:10F06000A0F10800FFF7F8BFC06810B40468E46BB3
:10F07000A4465DF8044B6047A0F10800FFF7F4BF19
:10F08000C06803681B6C1847A0F10800FFF7F8BFC1
:10F09000C06803685B6C1847A0F10800FFF7F8BF71
:10F0A000C06803689B6C1847A0F10800FFF7F8BF21
:10F0B000C0680368DB6C1847A0F10800FFF7F8BFD1
:10F0C000D0F8743113B100F5B07018477047D0F81C
:10F0D000783113B100F5B0701847704730B414465A
:10F0E0001A4623685D6A9DF8083000F5B071AC4699
:10F0F000204630BC60477047704770B5054600F544
:10F10000B07411462046FFF769FED5F86C311BB18B
:10F110002046BDE87040184770BDD0F8703110B57A
:10F1200000F5B0740BB1204698472046BDE810406A
:10F13000FFF759BE10B4144600F5B0711A462046C8
:10F140005DF8044BFFF7D6BE10B4144600F5B0715D
:10F150001A4620469DF804305DF8044B00F056BA7C
:10F16000C0680368DB681847C06803681B691847F4
:10F17000C0F88C107047C0F89C10704738B5D0F8B4
:10F18000A83004460D463BB900F01CFA00B28000DE
:10F1900004F030FAC4F8A80094F8AC20D4F8A830F1
:10F1A00043F8225094F8AC30013384F8AC3038BDC9
:10F1B00038B505460C460846FFF7D2FF04F5B07196
:10F1C00007C985E80700284638BD0F299CBF00EB1A
:10F1D0008100C0F86C21704710B50446FFF706FFA8
:10F1E00000B2800004F006FA04F1B003036004F1F9
:10F1F000BC03436004F1E003836004F58073C360E3
:10F2000004F586730361052384F8A430C4F8A000D4
:10F2100010BD2DE9F043D0F89010ADB000230446A6
:10F220008DF83030E1B106A800F096FA06A800F09B
:10F23000C5FA022805468CBF152314238DF850000B
:10F2400006A88DF8513000F0B7FA2A460146C5F1FC
:10F250001A050DF1520004F0ECF9EDB2012601E0BF
:10F260001C250E46D4F88C1031B306A800F074FAB1
:10F2700006A800F0A3FA431CAB4207461CDAC6EB13
:10F2800046182CAB434402288CBF0622022203F806
:10F29000600C03F85F2C06A800F08EFA2CAB9844A3
:10F2A00001463A46A8F15E00023D04F0C2F901367B
:10F2B000ED1BF6B205F0FF05D4F89410C9B194F82F
:10F2C0009820B2B1022D14D9531CAB42C6EB4610A4
:10F2D0002CAB0344A4BF023DEAB2FF2503F8602C27
:10F2E00003F85F5C2CAB18445E3804F0A2F90136D9
:10F2F000F6B2D4F89C50BDB1284605F011F8C0B262
:10F300001D288ABF1D238DF830008DF830309DF800
:10F31000302090428CBF082009208DF8310029460A
:10F320000DF1320004F085F9D4F8A03013B920466D
:10F33000FFF752FF002742F6030804F1040994F88E
:10F34000A4309F4205DB002742F6030804F10809B8
:10F350001BE0D4F8A03053F827502846FFF7EFFC05
:10F36000404506D10DB1281F00E028464946FFF769
:10F37000D4FD0137E3E7D4F8A83053F827502846E6
:10F38000FFF7DDFC404505D0013794F8AC309F42D3
:10F39000F1DB07E00DB1281F00E02846494600F0E8
:10F3A00049F9F1E74BB104F596712046FFF7E6FE07
:10F3B00004F59C712046FFF7E1FEE06894F8AC107C
:10F3C00002680491D4F8A810039194F8A410029153
:10F3D0009DF83030D4F8A01001910CA900330091B1
:10F3E00018BF01239568314614AAA847E06803684E
:10F3F0001B6D98472DB0BDE8F08338B5D0F8A0302C
:10F4000004460D460BB9FFF7E7FE94F8A420D4F8A4
:10F41000A03043F8225094F8A430013384F8A4308B
:10F4200038BDFFF7EABF0000154B10B503F16802C5
:10F4300003600446803342608360FFF795FED4F892
:10F44000A80008B104F0DEF8D4F8A00008B104F078
:10F45000D9F804F59A7000F0BBF804F58470FFF752
:10F46000F7FC04F1DC00FFF7F3FC04F1B800FFF750
:10F47000EFFC04F1100000F083FE204610BD00BF39
:10F480005065020010B50446FFF7CEFF204603F09A
:10F4900009FB204610BDB830FFF7CBBC07B502AB67
:10F4A000022223F8021DDC301946FFF7E6FC03B008
:10F4B0005DF804FB2DE9F843354BDFF8E890DFF801
:10F4C000E88003F108020446026000F1100703F12E
:10F4D00070028833002542608360384601F08CFA60
:10F4E00004F1B806C4F88C50C4F89050C4F8945095
:10F4F00084F89850C4F89C50C4F8A05084F8A450E4
:10F50000C4F8A85084F8AC50224904F1B00000F0CF
:10F510009BF81323022220493046FFF7C3FC022345
:10F520001A461E4904F1DC00FFF7BCFC494604F50D
:10F53000807000F089F804232022414604F584708D
:10F54000FFF7B0FC494604F5967000F075F82022EC
:10F55000414604F59A7000F043F8214604F5B07076
:10F56000FFF745FC10222946E76004F5B67004F069
:10F570006BF80B493046FFF75CFC29462046FFF745
:10F580008DFFE0682146FFF701FD2046BDE8F883C6
:10F590004865020024650200296502002E6502000C
:10F5A0003D650200336502003865020010B504466F
:10F5B000FFF7C0FB024A137801331370204610BDD9
:10F5C000FB2B0020014B1878704700BFFB2B00205D
:10F5D000704710B5044603F065FA204610BD0000E0
:10F5E00038B504461546043042F60302FFF7DEFF45
:10F5F000054B23600023A572E372A36284F82230D6
:10F600006362204638BD00BFF865020070B504464D
:10F61000C3720D460C3011461A4604F00AF8012355
:10F6200084F82230A36A23B121462846BDE8704001
:10F63000184770BD4162704710B54FF42052044620
:10F64000FFF7B4FF204610BD10B54FF4205204461A
:10F65000FFF7C0FC204610BD13B501230446FFF799
:10F66000ADFC02A9064B2360002301F8013D0122F5
:10F670002046FFF702FC034B2360204602B010BD7A
:10F6800008660200FC60020070B58AB004460E46AF
:10F6900001A81B4903F044F9194904A803F040F9F3
:10F6A0000634052514F8013D0F2B03D8154901A890
:10F6B00003F0BCF91022217807A803F08BF907A901
:10F6C00004A803F05CF907A803F0E8F804A901A86E
:10F6D00003F0A8F91DB10C4901A803F0A7F915F131
:10F6E000FF35DFD200231222314601A803F0ADF925
:10F6F00004A803F0D3F801A803F0D0F80AB070BD55
:10F7000061630200F061020030660200F8B5054650
:10F710000F460446631B9F4213DD237813F0F00F5E
:10F72000264603D109490A4802F0FFFD317808480E
:10F73000102202F049FE07490548013402F0F5FDA8
:10F74000E8E70348BDE8F84002F0F6BDF0610200CA
:10F75000BC2C002064680200F7B504460023216039
:10F76000037508460E468DF804308DF805308DF887
:10F77000063004F0D5FD451E002D1ADB277D0F2F26
:10F7800017D8735D2D2B01D1013510E072190021BE
:10F7900012F8012C8DF8042001A810228DF80530F4
:10F7A00004F0E8FE27443871237D01332375023DC0
:10F7B000E2E7204603B0F0BD04307047007D70479B
:10F7C00071DF704772DF704773DF704775DF704716
:10F7D00076DF704777DF704778DF70477ADF7047F2
:10F7E0007CDF70477EDF70477FDF704786DF7047C2
:10F7F00090DF704792DF704796DF704798DF704761
:10F8000099DF7047A0DF7047A2DF7047A3DF704722
:10F81000A4DF7047A6DF7047A9DF704760DF70473D
:10F8200061DF704762DF704763DF704753DF704707
:10F8300010DF704711DF704790F86000003018BF8C
:10F840000120704770B590F871600023B34214DA5C
:10F850001A01456FAC18AA588A420CD1E38973B1DA
:10F86000227B02F0020202F0FF0342B190F878001E
:10F8700080F0010070BD0133E8E7002070BD18463C
:10F8800070BD70B590F871600023B3421ADA1A01A6
:10F89000456FAC18AA588A4212D1E189A1B1227BE6
:10F8A00002F0020202F0FF0382B1012380F87830F7
:10F8B0000022808FFFF7A0FFB0FA80F0400970BDF2
:10F8C0000133E2E7002070BD084670BD184670BDE8
:10F8D00070B590F871600023B3421CDA1A01456FCD
:10F8E000AC18AA588A4214D1E389B3B1227B13071A
:10F8F00004D590F8780080F0010070BD02F0040299
:10F9000002F0FF034AB190F86000003018BF0120F8
:10F9100070BD0133E0E7002070BD184670BDF0B542
:10F9200090F871E085B0002474452FDA2501476F07
:10F930007E197D598D4227D1F4894CB3357B15F062
:10F940000C0127D090F8601021B315F0080F14BFF8
:10F9500001250225ADF80A300139012380F8601035
:10F960008DF8045080F87830002501A9808F8DF83B
:10F970000550ADF80640ADF808500392FFF73EFF82
:10F98000B0FA80F0400906E00134CDE7002002E043
:10F99000204600E0084605B0F0BD70B590F87160F3
:10F9A0000023B34210DA1A01456FAC18AA588A42F4
:10F9B00008D1E08948B1237B13F0300F14BF012038
:10F9C000002070BD0133ECE7002070BD7FB590F8DA
:10F9D00071600023B3422EDA1A01456FAC18AA58A1
:10F9E0008A4226D1E28942B3217B11F0300326D02E
:10F9F000012311F0100F14BF194602211A44ADF86B
:10FA00000210ADF80620002102228DF80510ADF895
:10FA10000810ADF80A2080F878306A4401A9808F78
:10FA20008DF804300392FFF7E9FEB0FA80F0400948
:10FA300006E00133CEE7002002E0104600E0184661
:10FA400004B070BD03681B6C18477FB590F87160F7
:10FA50000023B3422ADA1A01456FAC18AA588A4229
:10FA600022D1E28922B3237B13F030034FF000014F
:10FA700020D001231A44ADF806200222ADF802106E
:10FA80008DF80510ADF80810ADF80A2080F8783030
:10FA90006A4401A9808F8DF804300392FFF7AEFE0F
:10FAA000B0FA80F0400906E00133D2E7002002E01E
:10FAB000104600E0184604B070BD11F1270F08B5DC
:10FAC00014DB11F11D0F14DB11F1130F14DB11F115
:10FAD0000F0F14DB11F10B0F14DBCA1D15DBCB1C50
:10FAE00016DB0029D4BF0020042013E06FF02700AC
:10FAF00010E06FF01D000DE06FF013000AE06FF0F2
:10FB00000F0007E06FF00B0004E06FF0070001E06A
:10FB10006FF00300FFF75EFEB0FA80F0400908BD09
:10FB20001321808FFFF754BE07B501466846FFF7E3
:10FB300047FE086920B103680DF10102DB699847AF
:10FB400003B05DF804FB000013B5044602A80023CF
:10FB500040F8043DFFF76AFE019803F015F9084BE1
:10FB6000002203F077F903F057FC236933B11A68D8
:10FB700000EE100A126A21461846904702B010BDE6
:10FB80000000D03F704710B5044686B0182200210F
:10FB9000684603F059FDA37A33B994F83430002B4A
:10FBA00014BF0223032300E000238DF80030A38854
:10FBB00068460A221B0193FBF2F3ADF81030FFF701
:10FBC00003FE06B010BD2DE9F043054690F8610034
:10FBD0008FB00C460023142683425DDA06FB03F245
:10FBE000696E8F188A58A24207D12046FFF77EF926
:10FBF000C30751D57B6813B94EE00133ECE795F8A4
:10FC000033600DF11808324605F11401404603F047
:10FC100010FD236820461B69984704300644F6B25D
:10FC20001F2E39D87868FFF788F801466846FFF735
:10FC300093FD236895F833701B69204698470EABF7
:10FC40001F44033007F8200C95F833703B4416220C
:10FC5000684603F81F2CFFF7AFFD0237038828F82A
:10FC60000730236895F83370DB682046984723688F
:10FC700081461B6920469847043747440246494657
:10FC8000384603F0D6FC00231A4631464046FFF7BB
:10FC900099FDAC63012000E000200FB0BDE8F083C7
:10FCA0002DE9F047D4B04FF48E7304460DF10A01EC
:10FCB0000DA8ADF80A30FFF7B3FD0346002840F069
:10FCC0004482BDF83420302A00F03C8111D8112A3A
:10FCD0005CD004D8012A21D0102A27D035E2142A7A
:10FCE00000F0C780192A00F0D080132A40F02D823E
:10FCF0009BE0382A00F0DA8106D8322A00F06481CD
:10FD0000362A00F0BA8120E2502A00F0D180522A2F
:10FD100000F01281392A40F01882ECE194F860205A
:10FD20009DF83C30134484F860300EE2BDF8380092
:10FD3000A08705A9FFF776FD20699DF8143084F8A7
:10FD4000603028B103680DF13D021B6821469847D9
:10FD5000E288052A12D92389B3F5486F0ED8ADF889
:10FD600016300023ADF8183005A94FF4C873A08FE2
:10FD7000ADF81420ADF81A30FFF728FD94F868307C
:10FD8000002B00F0E2810022012109E14FF6FF7211
:10FD9000A28784F8600005464FF01409804694F865
:10FDA00061309D4216DA676E09FB05F6BB19B8593A
:10FDB00083F8108083F81180FFF79AF840B120692A
:10FDC00030B10368BA59D3F814A021460023D047B4
:10FDD0000135E4E7206918B1036821465B6898475C
:10FDE00000230C20194694F86820934202DB00237C
:10FDF000184605E0E26E00FB032201339160F2E752
:10FE000094F87120934208DA616F1A0111440133AA
:10FE10000873616F0A44D081F2E7002384F87830D8
:10FE2000236820469B6998478FE1E068002800F02E
:10FE30008681FEF78AFF002840F08181012303229A
:10FE40008DF80F3062F306138DF80C3007238DF810
:10FE50000D30102300218DF80E30E36D05938DF8E1
:10FE6000101009910A910B910691079105AB03AA15
:10FE700068E1E16DBDF84420488A904218BF1946F8
:10FE8000A08F1A46FFF7B2FC5FE19DF83C20002AE4
:10FE900040F05B81E06820B11C2304F14001FEF7D3
:10FEA00067FF2069002800F0508103689B68E1E04B
:10FEB000BDF83A8006464FF0140994F861309E422E
:10FEC00080F24381616E09FB06F3CF183A894245FF
:10FED0000CD12069002800F0388103689DF8442087
:10FEE00000921D693A680DF1460323E1BA89424543
:10FEF00020D19DF847009DF8462042EA002295B2A5
:10FF000002F001023A74C5F340027A7415F0030559
:10FF1000C85818BF0125FEF7EBFFA8420AD0206998
:10FF2000002800F0128103683A685E6921462B467A
:10FF3000B0470AE10136C0E702460146A08FFFF74D
:10FF40006BFC02E1BDF83A2072BBBDF840500DA930
:10FF500013460C26AB421CDA94F868700020B842B5
:10FF600014DAE26E91F810C006FB002292F806E067
:10FF7000F44509D1B1F80EC0B2F804E0F44503D15C
:10FF8000D1F81200906001E00130E8E70133083158
:10FF9000E0E70DAB03EBC5050022A989013189B269
:10FFA000A08FFFF725FCD0E094F868200C20934246
:10FFB00080F2CB80E16E00FB03110D8915B14D89F4
:10FFC000002D4BD10133F2E7BDF83A2094F87030A0
:10FFD000002A36D1E66E03EB430306EB83030A25C2
:10FFE0009B6805930DAB9A8905FB0235AB4223D084
:10FFF000002194F87120914219DA626F94F8700030
:020000022000DC
:1000000002EB011200EB400056F820705068874266
:100010000BD11F7C907A874207D11089DF898742F4
:1000200001BF987C1073D88AD0810131E1E7DA8A68
:10003000ADF814200A33D9E705A9A08FFFF7DAFB42
:1000400083E001330C2294F868005A4383420CDAAF
:10005000E16E11440D892DB14D891DB184F87030C8
:100060000831EAE701330C32F0E7206900286CD050
:100070000368DB682146984767E0BDF83A1084F8CA
:10008000780040F20512914201D1E268CAB9BDF888
:10009000401094F871000023834256DA626F02EB3D
:1000A0000312D5898D423BD00133F5E7BDF83A10F4
:1000B00084F8780040F20512914246D1E268002AA5
:1000C00043D01A0E8DF8183042F00102DBB28DF8E1
:1000D000172043F00103032262F306138DF8143056
:1000E00007238DF8153005A91023A08F8DF8163041
:1000F000FFF778FB29E09DF84230BDF84050022B15
:1001000003D12946A08FFFF77BFB94F871100023E1
:100110008B421ADA626F02EB0312D089A8420CD12B
:10012000206990B19DF844100368009112689D69A0
:100130000DF146032146A84707E00133E8E7002315
:100140001A468521A08FFFF74FFB54B0BDE8F0871A
:1001500010B50446FFF76EFB606F08B103F052FA6A
:10016000E06E08B103F04EFA606E08B103F04AFA8F
:10017000002384F8613084F8683084F8713010BD51
:1001800010B5054B03600446FFF7E2FF2046FEF77B
:10019000E8FE204610BD00BF4066020010B50446D0
:1001A000FFF7EEFF204602F07DFC204610BD07B5AC
:1001B0001288ADF80020ADF802106A4601464FF6ED
:1001C000FF700193FFF724FB03B05DF804FB000010
:1001D0002DE9F04FEDB09A469DF8E8310193A24B1E
:1001E000769E9DF8E0810546186808900F4608A89D
:1001F00000211446FFF71CFB9C4B0993142200219D
:100200000DA803F021FA0A2309A9ADF834300DA88E
:1002100001238DF840308DF83C30FFF7FFFA28229B
:10022000ADF82C205022ADF82E204FF000094FF4ED
:10023000C8720BA8ADF83220ADF83090FFF7CEFAB7
:100240004846FFF7C7FA6B7506230222AB750323F6
:100250002A7585F833301FB314B31444B9451FDA37
:1002600095F8330014F8023C2A1801331375023054
:1002700014F8013C5375C0B285F83300284414F8D3
:10028000022C2146143003F0D4F914F8023C95F8FE
:100290003320134485F8333009F101091F34DDE7B9
:1002A00024AFBAF1000F20D00EB34FF00009023690
:1002B0004B46D1451CDA16F802BC16F8011C0BF1AE
:1002C0000102FA549C1CFA18E4B2517038195A46CB
:1002D000314603F0AEF95C444FF00102E3B285F819
:1002E000342009F101091F36E3E7534600E03346A5
:1002F0003A4695F8331005F11400FFF763FA002031
:10030000FFF76AFA002442F6030644450DDA779BAC
:1003100053F82400FEF713FDB04202BF95F8613098
:10032000013385F861300134EFE795F86100033857
:10033000C0B285F8610000EB8000800003F05AF93C
:1003400000266866ADF814600296B146464580F214
:10035000BE81779B53F826402046FEF7EEFC01460F
:1003600017A8FFF7F9F917A8FFF726FA074617A805
:10037000FFF724FA022809D17A783B7843EA02236E
:10038000ADF8283001238DF82A301CE03B460DF1F2
:10039000B00E07F1100C18685968724603C2083392
:1003A00063459646F7D17A7B3B7B43EA0223ADF85F
:1003B00028300DF12A0100232CA88DF8BD308DF8CE
:1003C000BC30FFF731FA2046FEF7B9FCB0F5205FEC
:1003D000204611D1FEF7B1FC254903F08FFF00281C
:1003E00000F073812046FEF7A8FC224903F086FF47
:1003F000002800F06A8131E2FEF7A1FC42F6030317
:10040000984240F0358104B1043C271D3846FEF780
:1004100094FC194903F072FFB8B99DF8B03001227D
:1004200062F3030362F307138DF8B03023682046AC
:10043000DB689847236807461B692046984739467A
:1004400082B22CA8FFF7CCF93FE13846FEF775FCE5
:100450000A4903F053FF98B923682046DB689847A0
:100460000088FFF7B9F930E13266020080200020F1
:100470002465020033650200296502002E65020032
:100480003846FEF75AFCC14903F038FF002800F057
:100490001C812046FEF72AFD236882461B69204600
:1004A00098476A6EADF8160009EB89014FEA810B97
:1004B00002EB0B0342F821400027029A5A601F7496
:1004C0005F741C2239461DA803F0BEF82AF0010310
:1004D0001AF0300F8DF8743010D00123194663F3F1
:1004E00007118DF81810194606AA63F3071163F374
:1004F00042078DF819108DF81A70229200231AF015
:10050000320FADF81C308DF81E300BD09DF81C302A
:10051000E968012262F3030301B1022262F30713C7
:100520008DF81C301AF00C0F10D0EB6801222BB1A3
:100530009DF81D3062F30303022203E09DF81D3095
:1005400062F3030362F307138DF81D309DF81E302C
:10055000012262F342038DF81E30236820469B6916
:1005600098479DF81E3080F0010060F300038DF87D
:100570001E30771C47453CDA779B53F827A050463E
:10058000FEF7DDFBB0F5245F33D1BAF1000F01D0E7
:10059000AAF1040A0AF1040318460393FEF7CDFBFF
:1005A0007B4903F0ABFE039BA0B9DAF8003050465C
:1005B0009B6898471E90DAF800305046DB689847F1
:1005C000DAF80030ADF87C00DB6850469847ADF8AB
:1005D0007E000CE01846FEF7B0FB6E4903F08EFE7D
:1005E00028B9DAF8003050469B68984720900137C8
:1005F000C0E71422002112A803F026F80DF1160A14
:100600000AAB129307AB1393BAF80030ADF8503031
:10061000236820469B6898476B6EADF8540000270E
:100620005B44083312AA1DA938461697FFF7ECF869
:10063000BAF80030BBB12CABBAF800200393974254
:1006400008DA22683946526920469047039BD855FC
:100650000137F1E76B6E9B4452462CAB0021BBF88F
:100660000800FFF7A4FD09F101095FFA89F92CE000
:100670002046FEF764FBB0F5245F26D104B1043CAC
:10068000271D3846FEF759FB414903F037FEE0B11C
:100690003846FEF752FB404903F030FEA8B1384619
:1006A000FEF74BFB3D4903F029FE70B13846FEF7DB
:1006B00044FB384903F022FE38B1D6E02CAB524659
:1006C0000021BDF81400FFF772FD01363EE6019BE4
:1006D00023B3A3F102085FFA88F6002442F6030769
:1006E000B442B0461CDA799B53F824804046FEF7AA
:1006F00026FBB0F5205F05D195F86830013385F809
:10070000683009E04046FEF71AFBB84202BF95F890
:100710007130013385F871300134E1E7DDF8048090
:1007200095F8680000EB4000800002F063FFE86687
:1007300095F87100000102F05DFFDDF8E491686753
:10074000002609EB88083746B246C14579D059F8EA
:10075000044B2046FEF7F1FA01462CA8FEF7FCFFF9
:100760002CA8FFF729F883462CA8FFF727F80228C2
:1007700016D19BF801209BF8003043EA0223ADF824
:100780005C3001238DF85E3029E000BF386502003F
:100790009C660200A1660200A6660200AB6602002B
:1007A0005B460DF1740E0BF1100C18685968724617
:1007B00003C2083363459646F7D19BF80D209BF89A
:1007C0000C3043EA0223ADF85C300DF15E010023EA
:1007D0001DA88DF881308DF88030FFF725F8204670
:1007E000FEF7ADFAB0F5205F10D1EA6E07EB4701D6
:1007F0008B00D01842F82140179A4260EA6E1344E9
:10080000013700229A60FFB2A2469EE72046FEF71B
:1008100096FA42F60303984297D1696F3301CA18DA
:1008200004B1043CCC50C2F804A0179991606A6FDF
:100830001A44002111736A6F13440136D981F6B24C
:1008400083E7E86818B1FEF780FA002865D12B68C5
:1008500028469B6998476DB0BDE8F08F05AA0AA9A4
:100860000120FEF7CFFF02942FE723682046DB68C4
:10087000984712AF14220021ADF81C001DA802F009
:10088000E3FE4FF0010A00233B806AF34203BB7092
:1008900023682046DB689847BDF81C10BB78EA68DF
:1008A00080B2401A18BF012060F30003BB703B7890
:1008B0002AB16AF30303022262F3071303E06AF327
:1008C00003036AF307133B700AAB1E971D9323685B
:1008D000ADF87C10DB682046984700270DF11C0A14
:1008E000ADF8800005AA1DA938462197FEF78EFFB6
:1008F000BAF80030002B3FF4E8AE0DF1B00BBAF8B7
:1009000000309F42BFF6DAAE236839461B692046A5
:1009100098470BF807000137F1E71C23002205F187
:100920004001E868FEF733FA91E700BF2DE9F04F88
:1009300087B004460D46002601274FF014090DF13B
:10094000060894F861309E4252DA09FB06F3626EA3
:1009500002EB030AD358AB4248D1A36B9D4204D1AA
:10096000236829465B6A204698472B6828461B69FE
:1009700098472B68ADF80600DB68BAF808B028463F
:1009800098474246034600215846FFF710FC1022C4
:10099000002102A802F058FEBAF80830ADF808307D
:1009A0009AF81030CDF8108073B194F8603053B1DC
:1009B000013B84F8603002A90123A08F8DF80A3032
:1009C000FEF728FF00E01F469AF8113073B194F843
:1009D000603053B1013B84F8603002A90223A08F3C
:1009E0008DF80A30FEF716FF00E01F460136A8E733
:1009F000384607B0BDE8F08F10B50446FEF7B8FAE8
:100A0000104B236000214FF6FF7304F1400084F87F
:100A1000331084F83410A163A38784F8601084F83D
:100A20006110616684F86810E16684F8701084F8DB
:100A30007110616784F87810E0651C2202F004FEF2
:100A4000204610BD406602002DE9F84380460D4661
:100A5000174601EB02090C464C45A4EB050609D0EC
:100A6000D8F8003014F8011B1B684046984700284E
:100A7000F2D100E03E463046BDE8F88370472030B2
:100A800001F0A6BD38B5437F0D462BB100F16804D7
:100A9000204601F0ABFD08B1002038BD20462946B4
:100AA00001F079FD012038BD203001F083BD2030F8
:100AB00001F094BD2DE9F0411E464FF47A730025F4
:100AC0008360104B4560044640F8203B174688463B
:100AD00001F056FD04F1680001F052FD0A4B9DF84B
:100AE0001820C4F8108053F8222062769DF81C204C
:100AF000676153F82230A376267665772046BDE8F5
:100B0000F08100BFB8660200D8660200837E4FF015
:100B1000A04203F5E07330B5012140F20C64C176C8
:100B200042F82340437E03F5E07342F82340036913
:100B30004FF0CC72C3F824250622C3F80025827E2C
:100B4000C3F80825427EC3F80C25027E53B2D2B208
:100B500002F01F055C09A94060340F4D002B45F8D9
:100B6000241006DA0D4B02F00F02134440221A76CD
:100B700006E003F1604303F56143402283F800235C
:100B8000037E01215AB203F01F0301FA03F3520955
:100B9000014941F8223030BD00E100E0FCEC00E00A
:100BA0002DE9F8430646894698461546B2B100F14C
:100BB0002007384601F0FAFC34690122C4F8889510
:100BC0002262C4F83475C4F838552260D4F84C3128
:100BD0003BB9D4F82431002BF8D002E01046BDE830
:100BE000F8830023C4F84C31D4F85C311BB9D4F835
:100BF0002431002BF8D00023C4F85C310122B8F175
:100C0000000F02D1D4F8243143B16261D4F8043129
:100C1000002BFBD00023C4F8043107E0E261D4F8D4
:100C20004831002BFBD00023C4F84831D4F82431DC
:100C300013B10023C4F82431D4F83C053066C0B2A7
:100C4000BDE8F8830123FFF7ABBF10B5044680F879
:100C5000B010683001F0AAFC0123637710BDF8B52D
:100C6000056900234377044690F8B030C5F888350D
:100C7000012668302E62C5F844050F4601F0A8FC35
:100C80002369C5F848059E60D3F850211AB9D3F8F6
:100C90002421002AF8D00022C3F85021D3F8602183
:100CA0001AB9D3F82421002AF8D00022C3F8602111
:100CB000012217B9D3F8241141B15A61D3F80421A4
:100CC000002AFBD00022C3F8042107E0DA61D3F840
:100CD0004821002AFBD00022C3F84821D3F8240180
:100CE00068B10022C3F82421D3F8C404C3F8C404B3
:100CF000022804D0042814BF04200320F8BDF8BD46
:100D00000121FFF7ACBF4369D3F8642170B50446F5
:100D100082B10022012500F12006C3F86421057785
:100D2000304601F043FC63694022C3F83465C3F8E0
:100D300038251D636369D3F86821D2B10025C3F853
:100D4000685104F16806012363772577304601F086
:100D50002DFCD4F8B43003B1984765776569304607
:100D6000C5F8446501F034FC6369C5F84805012203
:100D70005A636369D3F804215AB10022C3F80421ED
:100D8000227F32B1D3F83C05D4F8B830206603B1E5
:100D900098476369D3F8242142B10022C3F8242183
:100DA000D3F8D024C3F8D02401225A6170BD0000CA
:100DB0000148FFF7A8BF00BFFC2B002007B50C239C
:100DC0000B228DE80C004FF040220423114603480B
:100DD000FFF770FE03B05DF804FB00BFFC2B0020A2
:100DE00070B505460C468E18B44206D021782846C8
:100DF000FDF778FF04F8010BF6E770BD014A0260C9
:100E000041607047D42B0020704770B504461546EA
:100E10000E464068002101F043F904F10801206802
:100E2000267265720222FFF7DBFF60680121BDE8D0
:100E3000704001F035B938B504460D4640680021D0
:100E400001F02EF9214665F07F0501F8085F0222C6
:100E50002068FFF7C5FF6068012101F021F9607A81
:100E600038BD10B504460121406801F0F7F80121B2
:100E7000606801F015F92068FDF71EFF0F2120467C
:100E8000FFF7D9FF032819D141221A212046FFF785
:100E9000BCFF02221F212046FFF7B7FFD8221C21EA
:100EA0002046FFF7B2FF012227212046FFF7ADFFC2
:100EB0002046C1221B21FFF7A8FF002010BD000023
:100EC00070B54D00E91C0646FFF7B5FFA91C0446A6
:100ED0003046FFF7B0FF40EA042000B201F054FFB3
:100EE0000022044B01F0B6FF02F096FA00EE100A61
:100EF00070BD00BF0000103F2922427000228270A6
:100F0000C2708280827170470346002280799A7194
:100F100070470000F8B50C4C0E4605464178204657
:100F20001746FFF792FE310A2046FFF7ABFDF1B2FC
:100F30002046FFF7A7FD39462046FFF7A3FD2046D0
:100F4000FFF7DEFE2870F8BDFC2B0020F8B50E4C34
:100F50000F460546417820461646FFF776FE390AC9
:100F60002046FFF78FFDF9B22046FFF78BFD310ACF
:100F70002046FFF787FDF1B22046FFF783FD2046AC
:100F8000FFF7BEFE2870F8BDFC2B002070B5104C9A
:100F900005460E4641782046FFF757FE310A2046A7
:100FA000FFF770FDF1B22046FFF76CFD2046FFF71A
:100FB000A7FE6978287001222046FFF743FE2046ED
:100FC000FFF772FD05462046FFF79AFEE8B270BDB6
:100FD000FC2B0020154B10B5044633F8112081700E
:100FE0009621FFF7B3FFA378E278B2FBF3F2204635
:100FF0002421FFF78FFFA37820462121142292FBA2
:10100000F3F2FFF787FF2D212046FFF7BFFFA278FD
:1010100020F00100012A14BF024640F00102D2B2C2
:1010200020462D21BDE81040FFF774BFD0660200B6
:101030004B1E022B01D8FFF7CDBF704710B53022F1
:1010400004464FF48571FFF765FF204646223F2195
:10105000FFF760FF2046FF223121FFF75BFF2046AC
:1010600063224021FFF772FF204601222E21FFF765
:1010700051FF204609221B21FFF74CFF2046312259
:101080003E21FFF747FF204624221421FFF742FFAD
:10109000204631221C21FFF73DFF204640F2A321CC
:1010A0000022FFF737FF20460121BDE81040FFF77F
:1010B00091BF38B5044600F07DFF85B24F21204630
:1010C000FFF764FF43070DD4A388002BF6D000F090
:1010D00071FFA38880B2401B9842EFDD0123A3710A
:1010E000FF2038BD62212046FFF750FF0122054650
:1010F00015212046FFF70EFF284638BD10B5012206
:1011000004461821FFF706FF2046BDE81040FFF710
:10111000D0BF000070B5134C05460E4641782046FE
:10112000FFF793FD310A2046FFF7ACFCF1B22046F1
:10113000FFF7A8FC2046FFF7E3FD6978287002223C
:101140002046FFF77FFD2046FFF7AEFC0546204610
:10115000FFF7AAFC40EA052085B22046FFF7D0FD44
:10116000284670BDFC2B002038B524210446FFF72B
:101170000DFF1621E0702046FFF708FF0128054605
:1011800040F0A880A070024640F207212046FFF7F9
:10119000C1FE2A4620464FF40271FFF7BBFE2046EF
:1011A00000229621FFF7B6FE2046FD229721FFF789
:1011B000B1FE20460022E321FFF7ACFE20460422C8
:1011C000E421FFF7A7FE20460222E521FFF7A2FE59
:1011D0002A462046E621FFF79DFE20460322E7210E
:1011E000FFF798FE20460222F521FFF793FE2046E6
:1011F0000522D921FFF78EFE2046CE22DB21FFF704
:1012000089FE20460322DC21FFF784FE2046F822D7
:10121000DD21FFF77FFE204600229F21FFF77AFEA7
:1012200020463C22A321FFF775FE20460022B7216D
:10123000FFF770FE20463C22BB21FFF76BFE2046E5
:101240000922B221FFF766FE20460922CA21FFF7D4
:1012500061FE2A4620464FF4CC71FFF75BFE204624
:1012600017224FF4D871FFF755FE2046002240F2B6
:10127000AD11FFF74FFE20460522FF21FFF74AFE82
:10128000204605224FF48071FFF744FE20460522D8
:1012900040F29911FFF73EFE20461B224FF4D37116
:1012A000FFF738FE20463E224FF4D671FFF732FE9C
:1012B00020461F2240F2A711FFF72CFE20460022F5
:1012C0003021FFF727FE204600221621BDE83840D6
:1012D000FFF720BE96212046FFF71CFF542801D1BE
:1012E000032303E07F280CBF02230123A370E278CD
:1012F000A37812FB03F3E37038BD000000F0E4B8FC
:10130000F0B52DED048BB0EE409AF0EE609A3A4CB9
:101310008BB000F0D1F994F90030B0EE408AF0EED5
:10132000608A013338D0B0EE490AF0EE690A00F065
:10133000EBFD88B32CA3D3E9002351EC190B02F089
:1013400019F8054680BB2AA3D3E9002351EC190BF9
:1013500001F0F2FF00B394F90030284A0895002606
:1013600000270421022B8DED049B8DED029BCDE91E
:1013700006678DE806002FD0684600F0FBFD58B3E5
:10138000089B1BB102F0CAF8089B03609DED060B99
:101390000BB0BDEC048BF0BDB0EE480AF0EE680A6D
:1013A0000BB0BDEC048BF0BD144A237801920321ED
:1013B00000228DED049B8DED029B009108922BB9CC
:1013C0000F4B4FF06042CDE90623D5E70D490020D1
:1013D000022BCDE90601CFD102F0A0F82223036051
:1013E000CEE700BFAFF30080EF39FAFE422E864011
:1013F00051302DD5104987C0902000205867020039
:10140000FFFFEF470000F07FD0B52DED048BB0EE6D
:10141000409AF0EE609A294C8AB000F0DFFA94F915
:101420000030B0EE408AF0EE608A01330FD0B0EEAB
:10143000490AF0EE690A00F06FFD40B1002600276E
:1014400051EC190B32463B4601F076FF38B9B0EE4D
:10145000480AF0EE680A0AB0BDEC048BD0BD184B08
:1014600024780193012200238DED049B8DED029BD6
:10147000009208936CB9CDE90667684600F07AFDE2
:1014800088B1089BA3B99DED060B0AB0BDEC048B97
:10149000D0BD32463B463046394601F005FE022CAF
:1014A000CDE90601E9D102F039F821230360E8E72C
:1014B00002F034F8089B0360E5E700BF90200020AD
:1014C0005C6702000000000051EC110B43422DE963
:1014D000F047034321F00048754F48EAD373BB42FD
:1014E00055EC104B49D86342234325F0004A4AEAA1
:1014F000D373BB42A94640D801F1404303F58013A2
:1015000003438E4650D08E1706F0020654EA0A03B3
:1015100046EAD57639D050EA08033ED0B84555D0D2
:10152000BA453AD0C8EB0A084FEA2858B8F13C0F40
:1015300040DC002970DB02460B462046294601F0BC
:10154000B3FD41EC100B00F0D7FC00F019FB51EC9F
:10155000100B012E5AD0022E48D0002E42D03EA3AE
:10156000D3E9002301F0C2FA3DA3D3E9002301F03F
:10157000BDFA41EC100BBDE8F08722462B4601F086
:10158000B7FA41EC100BBDE8F087022E16D0032EFF
:101590000ED19FED350BBDE8F087B9F1000F11DBDF
:1015A0009FED330BBDE8F087BDE8F04700F0E8BAE7
:1015B000BDE8F0872EA1D1E90001CAE79FED280B15
:1015C000BDE8F0879FED2C0BBDE8F087C24529D020
:1015D000022EF3D0032EDCD0012E2DD09FED280B50
:1015E000BDE8F08741EC100BBDE8F0871AA3D3E902
:1015F000002301F07BFA02460B4619A1D1E9000154
:1016000001F074FA41EC100BBDE8F08701F10041E4
:1016100041EC100BBDE8F08718F13C0F8BDA00208D
:10162000002196E7022E13D0032E0DD0012E07D0F5
:101630009FED150BBDE8F0879FED150BBDE8F0871A
:101640009FED150BBDE8F0879FED150BBDE8F0870A
:101650009FED150BBDE8F087075C143326A6A13C6F
:10166000182D4454FB210940182D4454FB2109C076
:10167000182D4454FB21F93F182D4454FB21F9BF88
:101680000000000000000000182D4454FB21E93F39
:101690000000000000000080182D4454FB21E9BF29
:1016A000D221337F7CD902C0D221337F7CD9024042
:1016B0000000F07F000000002DE9F04F55EC104BCA
:1016C000BD4925F000428A4283B04FEAD5770DD953
:1016D000BA498A422AD9C5F31303234340F0FA805A
:1016E0000FB19FED9D0B03B0BDE8F08FB44B9A4254
:1016F00000F2D580B34B9A4200F2EA8098A3D3E976
:10170000002310EE100A294601F0F2F90022AE4B38
:1017100001F030FE002800F01C81204629460022FE
:10172000A94B01F0E5F941EC100BDCE78EA3D3E9FE
:10173000002310EE100A294601F01CFE002840F09C
:10174000D3808BA3D3E900232046294601F0F4FD82
:101750000028C6D19D4E88A3D3E9002306EBC70617
:101760002046294601F076FBD6E9002301F0C0F9B6
:1017700001F00AFE064601F007FB81A3D3E900232E
:101780008046894601F066FB02460B462046294604
:1017900001F0ACF97CA3D3E90023CDE90001404678
:1017A000494601F057FB82468B4652465B46DDE9CF
:1017B000000101F09BF904460D4622462B462046C7
:1017C000294601F047FB72A3D3E9002380468946EE
:1017D00001F040FB70A3D3E9002301F087F94246F2
:1017E0004B4601F037FB6EA3D3E9002301F080F9EB
:1017F00042464B4601F02EFB6BA3D3E9002301F0D8
:1018000075F942464B4601F025FB69A3D3E9002355
:1018100001F06EF942464B4601F01CFB02460B46B6
:101820002046294601F062F980468946002E65D09F
:101830002046294642464B4601F00CFB42460446F0
:101840000D464B4600204FF0804101F04FF9024613
:101850000B462046294601F027FC02460B4650461F
:10186000594601F043F9DDE9002301F03FF90B4649
:1018700002465549002001F039F96FF47F739E420A
:1018800060DA06F57A7601EB065100224FF0B87364
:1018900001F0E0FA41EC100B03B0BDE8F08F4C4BC7
:1018A0009A423FF657AF4B4B4FEAC7084344D3E940
:1018B000002310EE100A294601F018F9464BC7F133
:1018C00001069844CDE90001D8E900ABF61B6CE7AE
:1018D000002672E710EE102A2B462046294601F01A
:1018E00007F941EC100BFEE61DA3D3E900231046D7
:1018F000194601F0AFFA41EC100BF4E602460B4634
:101900002046294601F0A6FA002206460F464FF06F
:1019100080434046494601F0E9F802460B4630460E
:10192000394601F0C1FB22462B4601F0DFF80246A2
:101930000B460020244901F0D9F841EC100B03B00C
:10194000BDE8F08F01EB065141EC100B03B0BDE890
:10195000F08F064631E700BF0000000000000000E5
:101960009C7500883CE4377EEF39FAFE422E8640B3
:1019700051302DD5104987C0FE822B654715F73FA2
:101980000000E0FE422EE63F763C7935EF39EA3D35
:10199000D0A4BE726937663EF16BD2C541BDBB3E75
:1019A0002CDE25AF6A56113F93BDBE166CC1663F53
:1019B0003E5555555555C53F412E8640FFFFEF7F9B
:1019C000422ED63FFFFF2F3E0000F03F6867020027
:1019D000B1A2F03F88670200786702002DE9F0416C
:1019E000654955EC104B0E462940B14200F09780F6
:1019F000002D2B4610EE102A74DD2F157FD0A7F294
:101A0000FF37C3F31303F90743F4801365D403EBE3
:101A1000D27100260B447F105200B64616204FF4B8
:101A200000110EEB01049C424FEAD2754FEA4202CC
:101A300003DC1B1B04EB010E0E44013805EB4303D2
:101A40004FEA5101EDD1844620244FF0004109E0D6
:101A500020D003EBD275013C4FEA51012B444FEAF1
:101A6000420220D09E4501EB0C05F1DA002D05EB7A
:101A7000010C09DBF0469542CEEB030300D9013B94
:101A8000521B0844C646E4E7BCF1000FF2DB0EF13E
:101A90000108F0E795421ED8002D05EB010C50DB44
:101AA00098460023ECE7134304D0421C4DD000F0CD
:101AB0000103184440087110F30701F17F5101F54B
:101AC000001148BF40F0004001EB0753024643ECD1
:101AD000102BBDE8F0817346BBE75B0003EBD273CC
:101AE000520094E725F00041214328D0ADBB2F469A
:101AF000D30A153F5205002BFAD0DD0228D400216D
:101B000000E001465B00DC0201F10100F9D5C0F103
:101B1000200422FA04F423437F1A82406FE710EE78
:101B2000102A2B4610EE100A294601F093F922469E
:101B30002B4600F0DDFF41EC100BBDE8F081BDE865
:101B4000F081BCF1000FABDBA1E701362046B2E724
:101B500020244FF0FF310020DBE710EE102A2B4647
:101B60002046294600F0C2FF02460B4601F09CFACF
:101B700041EC100BBDE8F0810000F07F0000000098
:101B80002DE9F84F55EC104BD14B25F000469E4205
:101B9000AB4610DDCF4B9E4200F3B28000F0AD802B
:101BA000BBF1000F40F3FD80ADA5D5E9004545EC44
:101BB000104BBDE8F88FC84B9E4200F3C080A3F1E4
:101BC000DE739E4240F3A8804FF0FF3A22462B4638
:101BD0002046294601F03EF902460B4680468946DA
:101BE00001F038F9A0A3D3E9002306460F4601F01F
:101BF00031F99FA3D3E9002300F07AFF32463B4638
:101C000001F028F99CA3D3E9002300F071FF3246CC
:101C10003B4601F01FF99AA3D3E9002300F068FFC7
:101C200032463B4601F016F997A3D3E9002300F0B2
:101C30005FFF32463B4601F00DF995A3D3E900233F
:101C400000F056FF42464B4601F004F992A3D3E957
:101C50000023804689463046394601F0FBF890A3C0
:101C6000D3E9002300F042FF32463B4601F0F2F890
:101C70008DA3D3E9002300F039FF32463B4601F043
:101C8000E9F88BA3D3E9002300F030FF32463B464E
:101C900001F0E0F888A3D3E9002300F027FF3246E3
:101CA0003B4601F0D7F8BAF1FF3F02460B467CD025
:101CB0004046494600F01CFF22462B4601F0CAF878
:101CC000864E874B4FEACA0A56449A44DAE9002303
:101CD00000F00CFF22462B4600F008FF02460B46A0
:101CE000D6E9000100F002FFBBF1000F52DB044611
:101CF0000D4645EC104BBDE8F88F002C3FF450AF7B
:101D000022462B462046294600F0F2FE04460D46A8
:101D100045EC104BBDE8F88F69A3D3E9002310EE22
:101D2000100A294600F0E4FE00226E4B01F022FB6F
:101D300000283FF449AF45EC104BBDE8F88F00F0A8
:101D4000DBF8694B9E4255EC104B3FDCA3F550236A
:101D50009E4268DC10EE102A10EE100A2B4629462F
:101D600000F0C6FE00225F4B00F0C0FE00220646D7
:101D70000F464FF080432046294600F0B9FE024648
:101D80000B463046394601F08FF94FF0000A044601
:101D90000D461BE7044601F1004545EC104BBDE83C
:101DA000F88F49A5D5E90045B2E74046494600F01D
