:020000021000EC
:10C000000000012059320200813202008332020016
:10C0100085320200873202008932020000000000EF
:10C020000000000000000000000000008B32020051
:10C030008D320200000000008F32020091320200B7
:10C040009332020093320200453B02009332020019
:10C05000D11D02009332020093320200933202009B
:10C0600093320200933202009332020093320200B4
:10C0700093320200933202009332020093320200A4
:10C080009332020011330200933202009332020015
:10C090009332020093320200933202009332020084
:10C0A0009332020093320200933202009332020074
:10C0B00093320200933202000000000000000000F2
:10C0C0009332020093320200933202009332020054
:10C0D000933202009332020093320200000000000B
:10C0E0000000000000000000000000000000000050
:10C0F0000000000000000000000000000000000040
:10C10000000000000000000000000000000000002F
:10C11000000000000000000000000000000000001F
:10C40000044B05481B1A062B02D9044B03B11847ED
:10C41000704700BF57210020542100200000000079
:10C4200005490648091A891001EBD171491002D05B
:10C43000034B03B1184770475421002054210020BA
:10C440000000000010B5064C237843B9FFF7D8FF71
:10C45000044B13B10448AFF300800123237010BDD7
:10C460005821002000000000E481020008B5084BBC
:10C470001BB108490848AFF300800848036813B9A6
:10C48000BDE80840CCE7064B002BF9D09847F7E70A
:10C49000000000005C210020E48102005021002007
:10C4A00000000000154B002B08BF134B9D46A3F561
:10C4B000803A00218B460F461348144A121A08F09E
:10C4C00065FA0F4B002B00D098470E4B002B00D085
:10C4D00098470020002104000D000D48002802D0DC
:10C4E0000C48AFF3008008F0E7F92000290007F0BE
:10C4F00067FC08F0BBF900BF000008000000012045
:10C50000000000000000000058210020302E002014
:10C510000000000000000000F0B50B680C4687B07A
:10C520000846DB689847236806461B6920469847FB
:10C530001E490746684607F05DFB3546AB1BDBB27C
:10C540009F424FF010020CD915F8011B03A807F009
:10C55000ABFB03A9684607F0CFFB03A807F008FB75
:10C56000ECE700210098124D09F01EF911492860EE
:10C57000114807F038F80A2229680F4807F0B4F884
:10C5800023682046DB689847236805461B692046D8
:10C5900098470146284604F0D3F80A2006F0AAFE80
:10C5A000684607F0E5FA07B0F0BD00BFE17702008A
:10C5B000E423002074740200B82D00202DE9F04718
:10C5C0002DED108B0B680E469EB00846DB68984731
:10C5D000336805461B69304698471349074615A836
:10C5E00007F008FB2C46631BDBB29F4220D91022C8
:10C5F00014F8011B18A807F057FB1A9B012B0AD14E
:10C600000A491BA807F0F6FA1BA915A807F074FB46
:10C610001BA807F0ADFA18A915A807F06DFB18A81C
:10C6200007F0A6FADFE700BFE1770200A07502007D
:10C63000054B1B7873B10549054806F0D4FF15A9D1
:10C64000034806F0DFFF05E084200020827402002A
:10C65000B82D00200223002215A91BA807F086FB95
:10C660000023032202A91BA807F068FB1BA807F000
:10C670007FFA0423022215A91BA807F077FB0023E9
:10C68000032203A91BA807F059FB1BA807F070FAA7
:10C690000623042215A91BA807F068FB0023032228
:10C6A00004A91BA807F04AFB1BA807F061FA08239E
:10C6B000062215A91BA807F059FB0023032205A990
:10C6C0001BA807F03BFB1BA807F052FA0A2308221D
:10C6D00015A91BA807F04AFB0023032206A91BA8E3
:10C6E00007F02CFB1BA807F043FA0C230A2215A91C
:10C6F0001BA807F03BFB0023032207A91BA807F098
:10C700001DFB1BA807F034FA0E230C2215A91BA849
:10C7100007F02CFB0023032208A91BA807F00EFB3F
:10C720001BA807F025FA10230E2215A91BA807F055
:10C730001DFB0023032209A91BA807F0FFFA1BA871
:10C7400007F016FA1223102215A91BA807F00EFBFA
:10C75000002303220AA91BA807F0F0FA1BA807F080
:10C7600007FA1423122215A91BA807F0FFFA0023C9
:10C7700003220BA91BA807F0E1FA1BA807F0F8F9A0
:10C780001623142215A91BA807F0F0FA0023032290
:10C790000CA91BA807F0D2FA1BA807F0E9F9182387
:10C7A000162215A91BA807F0E1FA002303220DA900
:10C7B0001BA807F0C3FA1BA807F0DAF91A231822FE
:10C7C00015A91BA807F0D2FA002303220EA91BA863
:10C7D00007F0B4FA1BA807F0CBF91C231A2215A9FD
:10C7E0001BA807F0C3FA002303220FA91BA807F018
:10C7F000A5FA1BA807F0BCF91E231C2215A91BA82B
:10C8000007F0B4FA0023032210A91BA807F096FA38
:10C810001BA807F0ADF920231E2215A91BA807F0BD
:10C82000A5FA0023032211A91BA807F087FA1BA869
:10C8300007F09EF92223202215A91BA807F096FADB
:10C840000023032212A91BA807F078FA1BA807F0FF
:10C850008FF92423222215A91BA807F087FA0023A9
:10C86000032213A91BA807F069FA1BA807F080F997
:10C870002623242215A91BA807F078FA00230322F7
:10C8800014A91BA807F05AFA1BA807F071F928236E
:10C89000262215A91BA807F069FA0023032218A96C
:10C8A0001BA807F04BFA1BA807F062F91022002121
:10C8B00002A808F079FF10220021054603A808F01D
:10C8C00073FF1022002180460DEB020008F06CFF80
:10C8D00010220021044605A808F066FF07EE900A22
:10C8E0001022002106A8F8EEE7EA08F05DFF07EE47
:10C8F000900A1022002107A8B8EEE7FA08F054FFCA
:10C9000007EE900A1022002108A8B8EEE7EA08F026
:10C910004BFF07EE900A1022002109A8F8EEE7DA93
:10C9200008F042FF07EE900A102200210AA8F8EE54
:10C93000E7CA08F039FF07EE900A102200210BA881
:10C94000B8EEE7DA08F030FF07EE900A1022002177
:10C950000CA8B8EEE7CA08F027FF07EE900A1022ED
:10C9600000210DA8F8EEE7BA08F01EFF07EE900AC6
:10C97000102200210EA8F8EEE7AA08F015FF07EE36
:10C98000900A102200210FA8B8EEE7BA08F00CFFB9
:10C9900007EE900A1022002110A8B8EEE7AA08F0CE
:10C9A00003FF07EE900A1022002111A8F8EEE79A83
:10C9B00008F0FAFE07EE900A1022002112A8F8EE05
:10C9C000E78A08F0F1FE07EE900A1022002113A872
:10C9D000B8EEE79A08F0E8FE07EE900A1022002170
:10C9E00014A8B8EEE78A08F0DFFE07EE900A1022DE
:10C9F000002118A8CD4FF8EEE7FA08F0D5FE3B78F5
:10CA00000190002B00F00D81C949CA4806F0EBFDEA
:10CA10000A222946C74806F065FEC749C54806F000
:10CA2000E2FD0A224146C34806F05CFEC249C14805
:10CA300006F0D9FD0A222146BE4806F053FEBE4943
:10CA4000BC4806F0D0FD1EEE900A07F051FB41EC09
:10CA5000100B0221B74806F0EFFEB749B54806F0C3
:10CA6000C2FD1FEE100A07F043FB41EC100B022140
:10CA7000B04806F0E1FEB049AE4806F0B4FD1EEE47
:10CA8000100A07F035FB41EC100B0221A94806F013
:10CA9000D3FEA949A74806F0A6FD1DEE900A07F0AF
:10CAA00027FB41EC100B0221A24806F0C5FEA2496B
:10CAB000A04806F098FD1CEE900A07F019FB41EC27
:10CAC000100B02219B4806F0B7FE9B49994806F0DF
:10CAD0008AFD1DEE100A07F00BFB41EC100B022142
:10CAE000944806F0A9FE9449924806F07CFD1CEE9D
:10CAF000100A07F0FDFA41EC100B02218D4806F0F8
:10CB00009BFE8D498B4806F06EFD1BEE900A07F0E8
:10CB1000EFFA41EC100B0221864806F08DFE8649A3
:10CB2000844806F060FD1AEE900A07F0E1FA41EC45
:10CB3000100B02217F4806F07FFE7F497D4806F0FA
:10CB400052FD1BEE100A07F0D3FA41EC100B022144
:10CB5000784806F071FE7849764806F044FD1AEEF2
:10CB6000100A07F0C5FA41EC100B0221714806F0DB
:10CB700063FE71496F4806F036FD19EE900A07F022
:10CB8000B7FA41EC100B02216A4806F055FE6A49DB
:10CB9000684806F028FD18EE900A07F0A9FA41EC63
:10CBA000100B0221634806F047FE6349614806F016
:10CBB0001AFD19EE100A07F09BFA41EC100B022146
:10CBC0005C4806F039FE5C495A4806F00CFD18EE48
:10CBD000100A07F08DFA41EC100B0221554806F0BF
:10CBE0002BFE5549534806F0FEFC1FEE900A07F055
:10CBF0007FFA41EC100B02214E4806F01DFE4E4913
:10CC00004C4806F0F0FCDDED017AF8EEE77A17EE1D
:10CC1000900A07F06DFA41EC100B0221454806F02E
:10CC20000EFEF2EE044ACBEE245A6423012C03FBE1
:10CC300005859FED423ADFED423A8AEE037AEAEE4D
:10CC4000A45A8FEE244A75EE875A89EEA37A8DEEA8
:10CC5000245AC9EE247A8EEE036ACCEE036A75EE8E
:10CC6000875A88EE037AE8EEA47AAEEEA44AACEED8
:10CC7000A45A34EE064A35EE265A37EE878A8DEEF0
:10CC8000A36ACBEEA36ACFEEA37A34EE064A35EE62
:10CC9000265A38EE278A1ED0022C21D0032C24D00D
:10CCA000042C29D0052C2ED0062C31D0072C34D0C2
:10CCB000082C47D0092C4ED00A2C53D00B2C58D01E
:10CCC0000C2C5DD00D2C64D00E2C67D00F2C6ED1A7
:10CCD000FFEE007A6DE0FFEE007AB7EE007A61E0D9
:10CCE000F7EE007ABFEE007A65E0FFEE007AB0EE74
:10CCF000677AF7EE006A49E0F7EE007AB0EE677AFD
:10CD0000FFEE006A59E0FFEE007AB7EE007A2DE000
:10CD1000F7EE007ABFEE007A21E0FFEE007AB0EE87
:10CD2000677AF0EE676AB7EE006A48E08420002078
:10CD30008E740200B82D00209774020000007A441F
:10CD40000050C347F7EE007AB0EE677AF0EE676AFC
:10CD5000BFEE006A33E0FFEE007AB7EE007AF0EE45
:10CD6000476A2AE0F7EE007ABFEE007AF0EE676AD3
:10CD70001AE0FFEE007AB0EE677AF7EE006A1CE088
:10CD8000F7EE007AB0EE677AFFEE006AB0EE666A00
:10CD900015E0FFEE007AB7EE007A0CE0F7EE007ACD
:10CDA000BFEE007AF0EE476AB0EE476A07E0F7EEB2
:10CDB000007AB0EE677AF0EE676AB0EE676A3B78A9
:10CDC00064EE069A25EE269A65EE878A28EE278A73
:10CDD000002B5BD079497A4806F005FC0A222946E7
:10CDE000774806F07FFC7749754806F0FCFB0A227D
:10CDF000691C734806F076FC7249714806F0F3FB33
:10CE00000A22A91C6E4806F06DFC6E496C4806F0BB
:10CE1000EAFB0A22E91C6A4806F066FC6A4968488F
:10CE200006F0E1FB19EE900A07F062F941EC100BF5
:10CE30000721634806F000FD6249614806F0D3FB14
:10CE400019EE100A07F054F941EC100B07215C4869
:10CE500006F0F2FC5B495A4806F0C5FB18EE900A52
:10CE600007F046F941EC100B0721554806F0E4FCA9
:10CE70005449534806F0B7FB18EE100A07F038F98A
:10CE800041EC100B07214E4806F0D9FCB5F5F87FB0
:10CE90000ADA4E4B03EB8502C2ED009A82ED019A4D
:10CEA000C2ED028A82ED038A494A136840F2E231F8
:10CEB00004338B42136090460DDC3B78002B62D02C
:10CEC00044493F4806F08FFB0A22D8F800103C483E
:10CED00006F00AFC57E0404B19781D460029ECD1BA
:10CEE000DFF8E8909FED3D8A01232B70CA460C467F
:10CEF000FAEC017AF4EEC87AF1EE10FA1ADD0023AA
:10CF00002B703B78B3B136492D4806F06CFB0A22F2
:10CF100021462B4806F0E6FB3249294806F063FB20
:10CF20005AF8040C07F0E4F841EC100B02212448F5
:10CF300006F085FC013440F2EF139C42D8D12B78E7
:10CF4000002BBAD03B78002BB7D0002426491C48D0
:10CF500006F049FB0A222146194806F0C3FB234983
:10CF6000174806F040FB59F8040B07F0C1F841ECF4
:10CF7000100B0221124806F062FC013440F2EF135C
:10CF80009C42E3D199E73B7863B133683046DB6874
:10CF90009847336804461B69304698470146204647
:10CFA00003F0CEFB0A2006F0A5F915A806F0E0FD77
:10CFB0001EB0BDEC108BBDE8F08700BF9B74020073
:10CFC000B82D002097740200B074020024240020C1
:10CFD000F8230020F6740200402200200000C44222
:10CFE000C5740200D8740200E0740200ED740200FF
:10CFF0000C4B012210B51A600B4B00221A600B4B30
:10D000001B78044663B10A490A4806F0E3FA204651
:10D0100002F0F4FEBDE810400146064806F0FCBAF6
:10D0200010BD00BFE4230020F8230020842000204E
:10D0300004750200B82D00200B4A002310B51360C0
:10D040000A4A13600A4B1B78044663B109490A482F
:10D0500006F0C0FA204602F0D1FEBDE810400146BD
:10D06000054806F0D9BA10BDE4230020F8230020BB
:10D07000842000201F750200B82D002010B5034B3E
:10D080000360044602F0FEFE204610BD247B020031
:10D0900010B50446FFF7F2FF204606F0A5FE204635
:10D0A00010BD000010B5034B03600446FFF7E6FF18
:10D0B000204610BD4C74020010B50446FFF7F2FF85
:10D0C000204606F091FE204610BD00000000000042
:10D0D0002DE9F04FF34C90ED005AD4ED044AD4ED15
:10D0E000027A6368E5EE247A04F58D65AB462DED92
:10D0F000028B84ED035AD0ED015A94ED065AC4ED2B
:10D10000055AE5EE857A87B0AA46D4ED085A90ED27
:10D11000026AE6EE257AA946A84684ED076AD0EDB4
:10D12000036A94ED0A6AC4ED096AE6EE867A2E4631
:10D130002F4690ED047AD4ED0C6A84ED0B7AE7EE7D
:10D14000267A2360D4ED0D6A94ED0E7AE6EE877AA6
:10D15000D4ED0F6A94ED107AE6EE877AD4ED116A79
:10D1600094ED127AE6EE877AD4ED136A94ED147A90
:10D17000E6EE877AD4ED156A94ED167AE6EE877AB4
:10D18000B7EE008AC4ED017AF1EE677A17EE900AE5
:10D1900006F0AEFF41EC100B05F022FA002251EC34
:10D1A000100BC14B06F046FE02460B460020BE495E
:10D1B00007F01CF907F0D2FA07EE900A38EE677A0A
:10D1C000D4ED036AE36FA36727EE277AD4ED207AC4
:10D1D00084ED187A94ED217AE065E6EE877A606650
:10D1E000A066D4ED056A94ED227AE066E6EE877AD1
:10D1F00020676067D4ED076A94ED237AE6EE877ABC
:10D20000D4ED096A94ED247AE6EE877AD4ED0B6AC0
:10D2100094ED257AE6EE877AD4ED0D6A94ED267AC0
:10D22000E6EE877AD4ED0F6A94ED277AE6EE877AF8
:10D23000D4ED116A94ED287AE6EE877AD4ED136A7C
:10D2400094ED297AE6EE877AD4ED156A94ED2A7A80
:10D25000E6EE877AC4ED1F7AF1EE677A17EE900A50
:10D2600006F046FF41EC100B05F0BAF9002251EC34
:10D27000100B8D4B06F0DEFD02460B4600208A495E
:10D2800007F0B4F807F06AFA07EE900A38EE677A0A
:10D29000D4ED036AD4F8CC30C4F8C83027EE277A2E
:10D2A000D4ED347A84ED2C7A94ED357AC4F8AC0060
:10D2B000E6EE877AC4F8B400C4F8B800D4ED056A85
:10D2C00094ED367AC4F8BC00E6EE877AC4F8C00064
:10D2D000C4F8C400D4ED076A94ED377AE6EE877A95
:10D2E000D4ED096A94ED387AE6EE877AD4ED0B6ACC
:10D2F00094ED397AE6EE877AD4ED0D6A94ED3A7AB8
:10D30000E6EE877AD4ED0F6A94ED3B7AE6EE877A03
:10D31000D4ED116A94ED3C7AE6EE877AD4ED136A87
:10D3200094ED3D7AE6EE877AD4ED156A94ED3E7A77
:10D33000E6EE877AC4ED337AF1EE677A17EE900A5B
:10D3400006F0D6FE41EC100B05F04AF9002251EC34
:10D35000100B554B06F06EFD02460B46002052495D
:10D3600007F044F807F0FAF907EE900A38EE677A0A
:10D37000D4ED036AD4F81C31C4F8183127EE277AAB
:10D38000D4ED487A84ED407A94ED497AC4F8FC00F3
:10D39000E6EE877AC4F80401C4F80801D4ED056A02
:10D3A00094ED4A7AC4F80C01E6EE877AC4F81001CD
:10D3B000C4F81401D4ED076A94ED4B7AE6EE877A4F
:10D3C000D4ED096A94ED4C7AE6EE877AD4ED0B6AD7
:10D3D00094ED4D7AE6EE877AD4ED0D6A94ED4E7AAF
:10D3E000E6EE877AD4ED0F6A94ED4F7AE6EE877A0F
:10D3F000D4ED116A94ED507AE6EE877AD4ED136A93
:10D4000094ED517AE6EE877AD4ED156A94ED527A6E
:10D41000E6EE877AC4ED477AF1EE677A17EE900A66
:10D4200006F066FE41EC100B05F0DAF8002251EC34
:10D43000100B1D4B06F0FEFC02460B4600201A495D
:10D4400006F0D4FF07F08AF907EE900A38EE677A03
:10D45000D4ED036AD4F86C31C4F8683127EE277A2A
:10D46000D4ED5C7A84ED547A94ED5D7AC4F84C0185
:10D47000E6EE877AC4F85401C4F85801D4ED056A81
:10D4800094ED5E7AC4F85C01E6EE877AC4F8600138
:10D49000C4F86401D4ED076A94ED5F7AE6EE877A0A
:10D4A00004E000BF242400200000F03FD4ED096A0E
:10D4B00094ED607AE6EE877AD4ED0B6A94ED617AAA
:10D4C000E6EE877AD4ED0D6A94ED627AE6EE877A1D
:10D4D000D4ED0F6A94ED637AE6EE877AD4ED116AA3
:10D4E00094ED647AE6EE877AD4ED136A94ED657A6A
:10D4F000E6EE877AD4ED156A94ED667AE6EE877AE1
:10D50000C4ED5B7AF1EE677A17EE900A06F0F0FD53
:10D5100041EC100B05F064F8002251EC100BF84BB5
:10D5200006F088FC02460B460020F54906F05EFF37
:10D5300007F014F907EE900A38EE677AD4ED036A23
:10D54000D4F8BC31C4F8B83127EE277AD4ED707A1C
:10D5500084ED687A94ED717AC4F89C01E6EE877ADE
:10D56000C4F8A401C4F8A801D4ED056A94ED727A58
:10D57000C4F8AC01E6EE877AC4F8B001C4F8B4018F
:10D58000D4ED076A94ED737AE6EE877AD4ED096AF2
:10D5900094ED747AE6EE877AD4ED0B6A94ED757AA1
:10D5A000E6EE877AD4ED0D6A94ED767AE6EE877A28
:10D5B000D4ED0F6A94ED777AE6EE877AD4ED116AAE
:10D5C00094ED787AE6EE877AD4ED136A94ED797A61
:10D5D000E6EE877AD4ED156A94ED7A7AE6EE877AEC
:10D5E000C4ED6F7AF1EE677A17EE900A06F080FDCF
:10D5F00041EC100B04F0F4FF002251EC100BC04B77
:10D6000006F018FC02460B460020BD4906F0EEFE6F
:10D6100007F0A4F807EE900A38EE677AD4ED036AB3
:10D62000D4F8FC31C4F8F83127EE277AD4ED807AAB
:10D6300084ED7C7A94ED817AC4F8EC01E6EE877A89
:10D64000C4F8F401D4ED056A94ED827AE6EE877AA7
:10D65000D4ED076A94ED837AE6EE877AD4ED096A11
:10D6600094ED847AE6EE877AD4ED0B6A94ED857AB0
:10D67000E6EE877AD4ED0D6A94ED867AE6EE877A47
:10D68000D4ED0F6A94ED877AE6EE877AD4ED116ACD
:10D6900094ED887AE6EE877AD4ED136A94ED897A70
:10D6A000E6EE877AD4ED156A94ED8A7AE6EE877A0B
:10D6B000C4ED7F7AF1EE677A17EE900A06F018FD56
:10D6C00041EC100B04F08CFF002251EC100B8C4B42
:10D6D00006F0B0FB02460B460020894906F086FEA4
:10D6E00007F03CF807EE900A38EE677AD4ED036A4B
:10D6F000D4F83C32C4F8383227EE277AD4ED907A49
:10D7000084ED8C7A94ED917AC4F82C02E6EE877A57
:10D71000C4F83402D4ED056A94ED927AE6EE877A85
:10D72000D4ED076A94ED937AE6EE877AD4ED096A30
:10D7300094ED947AE6EE877AD4ED0B6A94ED957ABF
:10D74000E6EE877AD4ED0D6A94ED967AE6EE877A66
:10D75000D4ED0F6A94ED977AE6EE877AD4ED116AEC
:10D7600094ED987AE6EE877AD4ED136A94ED997A7F
:10D77000E6EE877AD4ED156A94ED9A7AE6EE877A2A
:10D78000C4ED8F7AF1EE677A17EE900A06F0B0FCDE
:10D7900041EC100B04F024FF002251EC100B584B0D
:10D7A00006F048FB02460B460020554906F01EFED7
:10D7B00006F0D4FF07EE900A38EE677AD4ED036ADC
:10D7C000D4F87C32C4F8783227EE277AD4EDA07AE8
:10D7D00084ED9C7A94EDA17AC4F86C02E6EE877A27
:10D7E000C4F87402D4ED056A94EDA27AE6EE877A65
:10D7F000D4ED076A94EDA37AE6EE877AD4ED096A50
:10D8000094EDA47AE6EE877AD4ED0B6A94EDA57ACE
:10D81000E6EE877AD4ED0D6A94EDA67AE6EE877A85
:10D82000D4ED0F6A94EDA77AE6EE877AD4ED116A0B
:10D8300094EDA87AE6EE877AD4ED136A94EDA97A8E
:10D84000E6EE877AD4ED156A94EDAA7AE6EE877A49
:10D85000C4ED9F7AF1EE677A17EE900A06F048FC65
:10D8600041EC100B04F0BCFE002251EC100B244BD9
:10D8700006F0E0FA02460B460020214906F0B6FD0C
:10D8800006F06CFF07EE900A38EE677AD4ED036A73
:10D89000D4F8BC32C4F8B83227EE277AD4EDB07A87
:10D8A00084EDAC7A94EDB17AC4F8AC02E6EE877AF6
:10D8B000C4F8B402D4ED056A94EDB27AE6EE877A44
:10D8C000D4ED076A94EDB37AE6EE877AD4ED096A6F
:10D8D00094EDB47AE6EE877AD4ED0B6A94EDB57ADE
:10D8E000E6EE877AD4ED0D6A94EDB67AE6EE877AA5
:10D8F000D4ED0F6A94EDB77AE6EE877A02E000BFC6
:10D900000000F03FD4ED116A94EDB87AE6EE877A24
:10D91000D4ED136A94EDB97AE6EE877AD4ED156A00
:10D9200094EDBA7AE6EE877AC4EDAF7AF1EE677AD3
:10D9300017EE900A06F0DCFB41EC100B04F050FEF1
:10D94000002251EC100BF64B06F074FA02460B461F
:10D950000020F34906F04AFD06F000FF07EE900AAA
:10D9600038EE677AD4EDC56A94EDC46AD4EDC35A33
:10D9700094EDC25AD4EDC04A94EDBF4AC4F8EC020B
:10D9800027EE277AD4ED0B7A84EDBC7A94EDC67A33
:10D9900084EDBE4A27EE877AD4ED097AC4F8F40202
:10D9A00067EEA66AD4ED077A27EE866AD4ED057A8B
:10D9B00067EEA55AD4ED037A27EE855AD4ED7D7A29
:10D9C00067EEA44AD4EDC17AE4EE247AD4ED194A84
:10D9D000E5EE247A94ED1A5AE5EE857AD4ED1B5AD9
:10D9E000E6EE257A94ED1C6AE6EE867AD4ED1D6AA1
:10D9F000E7EE267AC4EDBF7AF1EE677A17EE900A69
:10DA000006F076FB41EC100B04F0EAFD002251EC2D
:10DA1000100BC34B06F00EFA02460B460020C0491D
:10DA200006F0E4FC06F09AFE07EE100A78EE477A5C
:10DA3000D4EDCF6A94EDCE6AD4EDCD5A94EDCC5AA4
:10DA4000D4EDCA4A94EDC94A606367EE877A94EDD3
:10DA5000D07AC4EDC77AD4ED0B7A84EDC84A27EEAC
:10DA6000877AD4ED097A67EEA66AD4ED077A27EEB5
:10DA7000866AD4ED057A67EEA55AD4ED037A27EECF
:10DA8000855AD4ED8D7A67EEA44AD4EDCB7AE4EED4
:10DA9000247AD4ED2D4AE5EE247A94ED2E5AE5EE63
:10DAA000857AD4ED2F5AE6EE257A94ED306AE6EECB
:10DAB000867AD4ED316AE7EE267AC4EDC97AF1EEC2
:10DAC000677A17EE900A06F013FB41EC100B04F096
:10DAD00087FD002251EC100B914B06F0ABF902468A
:10DAE0000B4600208E4906F081FC06F037FE07EE5B
:10DAF000100A78EE477AD4EDD96A94EDD86AD4ED5D
:10DB0000D75A94EDD65AD4EDD44A94EDD34AE06373
:10DB100067EE877A94EDDA7AC4EDD17AD4ED0B7A98
:10DB200084EDD24A27EE877AD4ED097A67EEA66AA9
:10DB3000D4ED077A27EE866AD4ED057A67EEA55A0A
:10DB4000D4ED037A27EE855AD4ED9D7A67EEA44A88
:10DB5000D4EDD57AE4EE247AD4ED414AE5EE247A88
:10DB600094ED425AE5EE857AD4ED435AE6EE257AF5
:10DB700094ED446AE6EE867AD4ED456AE7EE267ABD
:10DB8000C4EDD37AF1EE677A17EE900A06F0B0FA98
:10DB900041EC100B04F024FD002251EC100B604B03
:10DBA00006F048F902460B4600205D4906F01EFCCF
:10DBB00006F0D4FD07EE100A78EE477AD4EDE36A5A
:10DBC00094EDE26AD4EDE15A94EDE05AD4EDDE4AE8
:10DBD00094EDDD4A606467EE877A94EDE47AC4EDF3
:10DBE000DB7AD4ED0B7A84EDDC4A27EE877AD4ED2C
:10DBF000097A67EEA66AD4ED077A27EE866AD4ED35
:10DC0000057A67EEA55AD4ED037A27EE855AD4ED4E
:10DC1000AD7A67EEA44AD4EDDF7AE4EE247AD4ED4F
:10DC2000554AE5EE247A94ED565AE5EE857AD4ED20
:10DC3000575AE6EE257A94ED586AE6EE867AD4EDE8
:10DC4000596AE7EE267AC4EDDD7AF1EE677A17EECF
:10DC5000900A06F04DFA41EC100B04F0C1FC0022D2
:10DC600051EC100B2E4B06F0E5F802460B46002057
:10DC70002B4906F0BBFB06F071FD07EE100A78EEAB
:10DC8000477AD4EDED6A94EDEC6AD4EDEB5A94ED5D
:10DC9000EA5AD4EDE84A94EDE74AE06467EE877A01
:10DCA00094EDEE7AC4EDE57AD4ED0B7A84EDE64A94
:10DCB00027EE877AD4ED097A67EEA66AD4ED077A63
:10DCC00027EE866AD4ED057A67EEA55AD4ED037A7D
:10DCD00027EE855AD4EDBD7A67EEA44AD4EDE97AF1
:10DCE000E4EE247AD4ED694AE5EE247A94ED6A5A9A
:10DCF000E5EE857AD4ED6B5AE6EE257A94ED6C6A02
:10DD0000E6EE867AD4ED6D6AE7EE267AC4EDE77A20
:10DD1000F1EE677A17EE900A06F0EAF902E000BF2A
:10DD20000000F03F41EC100B04F05AFC002251ECD3
:10DD3000100BF34B06F07EF802460B460020F0492C
:10DD400006F054FB06F00AFD07EE100A78EE477A5B
:10DD500094ED036AD4EDF36AD4F8C433C4F8C03345
:10DD600067EE877A6065C4EDEF7AD4EDF27AE6EE7D
:10DD7000267A94ED056AD4EDF46AE6EE267A94EDFF
:10DD8000076AD4EDF56AE6EE267A94ED096AD4EDD9
:10DD9000F66AE6EE267A94ED0B6AD4EDF76AE6EEC3
:10DDA000267A94ED0D6AD4EDF86AE6EE267A94EDC3
:10DDB0000F6AD4EDF96AE6EE267A94ED116AD4ED95
:10DDC000FA6AE6EE267A94ED136AD4EDFB6AE6EE83
:10DDD000267AD4EDFC6AE7EE267AC4EDF17AF1EE0C
:10DDE000677A17EE900A06F083F941EC100B04F005
:10DDF000F7FB002251EC100BC14B06F01BF802465A
:10DE00000B460020BE4906F0F1FA06F0A7FC07EE2B
:10DE1000900A04F2044338EE677A04F580621968C8
:10DE2000116027EE277A04F5816204F20C41D4EDEB
:10DE3000036AD2ED007A84EDFE7A91ED007AC4F89F
:10DE4000F403E6EE877A04F58262C4F8FC0392EDEF
:10DE5000007AD4ED056AE6EE877A04F2144292ED78
:10DE6000007AD4ED076AE6EE877A04F5836292EDD4
:10DE7000007AD4ED096AE6EE877A04F21C4292ED4C
:10DE8000007AD4ED0B6AE6EE877A04F5846292EDAF
:10DE9000007AD4ED0D6AE6EE877A04F2244292ED20
:10DEA000007AD4ED0F6AE6EE877A04F5856292ED8A
:10DEB000007AD4ED116AE6EE877A04F22C4292EDF4
:10DEC000007AD4ED136AE6EE877A04F5866292ED65
:10DED000007AD4ED156AE6EE877AC3ED007AF1EEAA
:10DEE000677A17EE900A06F003F941EC100B04F084
:10DEF00077FB002251EC100B814B05F09BFF024693
:10DF00000B4600207E4906F071FA06F027FC07EE6A
:10DF1000900A04F2344338EE677A186027EE277AC5
:10DF200004F5876304F2444283ED007A586004F5F7
:10DF300088631168196004F5896304F24C4191ED1E
:10DF4000007AD4ED036AD3ED007AE6EE877A04F521
:10DF50008A6393ED007AD4ED056AE6EE877A04F2DF
:10DF6000544393ED007AD4ED076AE6EE877A04F520
:10DF70008B6393ED007AD4ED096AE6EE877A04F2BA
:10DF80005C4393ED007AD4ED0B6AE6EE877A04F5F4
:10DF90008C6393ED007AD4ED0D6AE6EE877A04F295
:10DFA000644393ED007AD4ED0F6AE6EE877A2B4650
:10DFB000B3EC017AD4ED116AE6EE877A93ED007A3C
:10DFC000D4ED136AE6EE877AD4ED156A95ED027A00
:10DFD000E6EE877AC2ED007AF1EE677A17EE900AE4
:10DFE00006F086F841EC100B04F0FAFA002251EC2E
:10DFF000100B434B05F01EFF02460B460020404924
:10E0000006F0F4F906F0AAFB07EE900A38EE677AFC
:10E01000D4ED036AE86027EE277AD5ED087A85ED1E
:10E02000047A95ED097AE6EE877A2B46D4ED056AF7
:10E0300095ED0A7A43F8140FE6EE877A00932B46A3
:10E04000D4ED076A95ED0B7A53F81C2FAA61E6EE22
:10E05000877AD4ED096A95ED0C7AE6EE877AD4EDED
:10E060000B6A95ED0D7AE6EE877AD4ED0D6A95EDA3
:10E070000E7AE6EE877AD4ED0F6A95ED0F7AE6EE2A
:10E08000877AD4ED116A95ED107AE6EE877AD4EDB1
:10E09000136A95ED117AE6EE877AD4ED156A95ED5F
:10E0A000127AE6EE877AC3ED007AF1EE677A17EE20
:10E0B000900A06F01DF841EC100B04F091FA0022D2
:10E0C00051EC100B0E4B05F0B5FE02460B4600203E
:10E0D0000B4906F08BF906F041FB07EE900A38EE8B
:10E0E000677AD4ED036A4BF8540F27EE277AD5ED03
:10E0F000187A85ED147A95ED197AE86402E000BF8C
:10E100000000F03FE6EE877A2B46D4ED056A95EDE8
:10E110001A7A53F85C2FAA65E6EE877AD4ED076A7F
:10E1200095ED1B7AE6EE877AD4ED096A95ED1C7AB7
:10E13000E6EE877AD4ED0B6A95ED1D7AE6EE877AE6
:10E14000D4ED0D6A95ED1E7AE6EE877AD4ED0F6A6E
:10E1500095ED1F7AE6EE877AD4ED116A95ED207A77
:10E16000E6EE877AD4ED136A95ED217AE6EE877AAA
:10E17000D4ED156A95ED227AE6EE877AC3ED007A42
:10E18000F1EE677A17EE900A05F0B2FF41EC100B42
:10E1900004F026FA002251EC100BEF4B05F04AFE7A
:10E1A00002460B460020EC4906F020F906F0D6FAAC
:10E1B00007EE900A38EE677AD4ED036A4AF8940FB6
:10E1C00027EE277AD5ED287A85ED247A95ED297A00
:10E1D000C5F88C00E6EE877A2B46D4ED056A95EDFE
:10E1E0002A7A53F89C2FC5F89820E6EE877AD4ED6A
:10E1F000076A95ED2B7AE6EE877AD4ED096A95EDFC
:10E200002C7AE6EE877AD4ED0B6A95ED2D7AE6EE60
:10E21000877AD4ED0D6A95ED2E7AE6EE877AD4ED05
:10E220000F6A95ED2F7AE6EE877AD4ED116A95EDB7
:10E23000307AE6EE877AD4ED136A95ED317AE6EE20
:10E24000877AD4ED156A95ED327AE6EE877AD5EDC8
:10E25000336A95ED347AE6EE877AD5ED356A95ED39
:10E26000367AE6EE877AC3ED007AF1EE677A17EE3A
:10E27000900A05F03DFF41EC100B04F0B1F90022CB
:10E2800051EC100BB44B05F0D5FD02460B460020B7
:10E29000B14906F0ABF806F061FA2B4607EE900A9A
:10E2A00043F8EC0F38EE677A019327EE277A2B4676
:10E2B000D4ED036A43F8F00F85ED387AD5ED457A51
:10E2C00095ED467A0293E6EE877A2B46D5F8102133
:10E2D00043F8F40FD4ED056A95ED477A0393E6EE23
:10E2E000877A2B46C5F80C2143F8F80FD4ED076A5E
:10E2F00095ED487A0493E6EE877A2B4649F8E40FC9
:10E3000043F8FC0FD4ED096A95ED497A0593E6EEE2
:10E31000877A04F5AD6348F8E80F18605860986094
:10E32000D4ED0B6AC5F8DC0095ED4A7AE6EE877A03
:10E33000D4ED0D6A95ED4B7AE6EE877AD4ED0F6A4F
:10E3400095ED4C7AE6EE877AD4ED116A95ED4D7A2B
:10E35000E6EE877AD4ED136A95ED4E7AE6EE877A8B
:10E36000D4ED156A95ED4F7AE6EE877AD5ED336AEE
:10E3700095ED507AE6EE877AD5ED356A95ED517ACE
:10E38000E6EE877AC5ED447AF1EE677A17EE900AE9
:10E3900005F0AEFE41EC100B04F022F9002251EC26
:10E3A000100B6D4B05F046FD02460B4600206A49F6
:10E3B00006F01CF806F0D2F907EE900A38EE677AFC
:10E3C000D4ED036AD5F87C21C5F8782127EE277AA9
:10E3D000D5ED607A85ED537A95ED617AC5F84801FF
:10E3E000E6EE877A04F5B763D4ED056A95ED627AB7
:10E3F0001860E6EE877A58609860D4ED076A95ED6C
:10E40000637AD860E6EE877A18615861D4ED096ABC
:10E4100095ED647A9861E6EE877AD8611862D4ED5A
:10E420000B6A95ED657A5862E6EE877AD4ED0D6A4F
:10E4300095ED667AE6EE877A95ED677AD4ED0F6A08
:10E44000E6EE877AD4ED116A95ED687AE6EE877A82
:10E45000D4ED136A95ED697AE6EE877AD4ED156A04
:10E4600095ED6A7AE6EE877AD5ED336A95ED6B7AAB
:10E47000E6EE877AD5ED356A95ED6C7AE6EE877A29
:10E48000C5ED5F7AF1EE677A17EE900A05F030FE7F
:10E4900041EC100B04F0A4F8002251EC100B2E4BB1
:10E4A00005F0C8FC02460B4600202B4905F09EFFF4
:10E4B00006F054F907EE900A38EE677AD4ED036A55
:10E4C000D5F8C421C5F8C02127EE277AD5ED727A98
:10E4D00085ED6E7A95ED737AC5F8B401E6EE877A2C
:10E4E00004F22463D4ED056A95ED747A1860E6EEC3
:10E4F000877AD4ED076A95ED757AE6EE877AD4EDE2
:10E50000096A95ED767AE6EE877AD4ED0B6A95ED99
:10E51000777AE6EE877AD4ED0D6A95ED787AE6EEB5
:10E52000877AD4ED0F6A95ED797AE6EE877AD4EDA5
:10E53000116A95ED7A7AE6EE877AD4ED136A95ED55
:10E540007B7AE6EE877AD4ED156A95ED7C7AE6EE75
:10E55000877AD5ED336A01E00000F03F95ED7D7AD2
:10E56000E6EE877AD5ED356A95ED7E7AE6EE877A26
:10E57000C5ED717AF1EE677A17EE900A05F0B8FDF5
:10E5800041EC100B04F02CF8002251EC100BF64B70
:10E5900005F050FC02460B460020F34905F026FF2B
:10E5A00006F0DCF807EE900A38EE677AD4ED136ACD
:10E5B00094ED116AD4ED0F5A94ED0D5AD4ED0B4A37
:10E5C00095ED894AD5ED883A95ED873AD5ED862ABD
:10E5D00095ED842AD5ED831AC5F8FC0127EE277A3C
:10E5E000D5ED8F7A85ED807A94ED157AC5ED821A96
:10E5F00027EE277AD5ED8E7A66EEA76AD5ED8D7A6D
:10E6000026EE276AD5ED8C7A65EEA75AD5ED8B7A82
:10E6100025EE275AD5ED8A7A64EEA74AD4ED097A19
:10E6200027EE844AD4ED077A67EEA33AD4ED057A53
:10E6300027EE833AD4ED037A67EEA22AD5ED6F7AFE
:10E6400027EE822AD5ED857AE1EE827A04F26C63B8
:10E6500099ED002A1860E2EE827AD8ED002A019A3C
:10E66000E3EE227A92ED003A029AE3EE837AD2ED5B
:10E67000003A039AE4EE237A92ED004A049AE4EE1B
:10E68000847AD2ED004A059AE5EE247A92ED005A9A
:10E69000E5EE857A05F58072D2ED005AE6EE257A30
:10E6A00092ED016AE6EE867AD2ED026AE7EE267A0C
:10E6B000C5ED837AF1EE677A17EE900A05F018FD42
:10E6C00041EC100B03F08CFF002251EC100BA64B19
:10E6D00005F0B0FB02460B460020A34905F086FE7C
:10E6E00006F03CF807EE100A78EE477AD4ED136A8C
:10E6F00094ED116AD4ED0F5A94ED0D5AD4ED0B4AF6
:10E7000095ED984AD5ED973A95ED963AD5ED952A3F
:10E7100095ED932AD5ED921AC6F8CC0067EE877A6C
:10E7200094ED157AC5ED907AD5ED9E7AC5ED911AE6
:10E7300027EE277AD5ED9D7A66EEA76AD5ED9C7A0D
:10E7400026EE276AD5ED9B7A65EEA75AD5ED9A7A23
:10E7500025EE275AD5ED997A64EEA74AD4ED097AC9
:10E7600027EE844AD4ED077A67EEA33AD4ED057A12
:10E7700027EE833AD4ED037A67EEA22AD5ED817AAB
:10E7800027EE822AD5ED947AE1EE827A95ED542A2D
:10E79000E2EE827AD5ED552AE3EE227A95ED563AED
:10E7A000E3EE837AD5ED573AE4EE237A95ED584AB5
:10E7B000E4EE847AD5ED594AE5EE247A95ED5A5A7D
:10E7C000E5EE857AD5ED5B5AE6EE257A95ED5C6A45
:10E7D000E6EE867AD5ED5D6AE7EE267AC5ED927AA9
:10E7E000F1EE677A17EE900A05F082FC41EC100B0F
:10E7F00003F0F6FE002251EC100B5B4B05F01AFB08
:10E800000B4602465849002005F0F0FD05F0A6FF32
:10E8100007EE100A78EE477A94ED036AD5EDA36A05
:10E82000D5F88422C5F8802267EE877AC7F8D4002D
:10E83000C5ED9F7AD5EDA27AE6EE267A94ED056ACB
:10E84000D5EDA46AE6EE267A94ED076AD5EDA56AC1
:10E85000E6EE267A94ED096AD5EDA66AE6EE267A0A
:10E8600094ED0B6AD5EDA76AE6EE267A94ED0D6A73
:10E87000D5EDA86AE6EE267A94ED0F6AD5EDA96A81
:10E88000E6EE267A94ED116AD5EDAA6AE6EE267ACE
:10E8900094ED136AD5EDAB6AE6EE267A94ED156A2F
:10E8A000D5EDAC6AE6EE267A95ED336AD5EDAD6A24
:10E8B000E6EE267AD5EDAE6AE7EE267AC5EDA17AC8
:10E8C000F1EE677A17EE900A05F012FC41EC100B9E
:10E8D00003F086FE002251EC100B234B05F0AAFA40
:10E8E0000B4602462049002005F080FD05F036FF6A
:10E8F00007EE900A38EE677AD4ED036AD5F8CC2299
:10E90000C5F8C82227EE277AD5EDB47A85EDB07A1E
:10E9100095EDB57AC5F8BC02E6EE877AC5F8C40273
:10E92000D4ED056A95EDB67AE6EE877AD4ED076AFE
:10E9300095EDB77AE6EE877AD4ED096A95EDB87A67
:10E94000E6EE877AD4ED0B6A95EDB97AE6EE877A32
:10E95000D4ED0D6A95EDBA7AE6EE877AD4ED0F6ABA
:10E9600095EDBB7A02E000BF0000F03FE6EE877A4B
:10E97000D4ED116A95EDBC7AE6EE877AD4ED136A90
:10E9800095EDBD7AE6EE877AD4ED156A95EDBE7AFF
:10E99000E6EE877AD5ED336A95EDBF7AE6EE877AB3
:10E9A000D5ED356A95EDC07AE6EE877AC5EDB37A96
:10E9B000F1EE677A17EE900A05F09AFB41EC100B26
:10E9C00003F00EFE002251EC100B674B05F032FAFB
:10E9D0000B4602466449002005F008FD05F0BEFE26
:10E9E00007EE100A78EE477AD5EDCC6A95EDCB6A42
:10E9F000D5EDCA5A95EDC95AD5EDC84A95EDC74A25
:10EA0000D4EDFF3AD5F81423C5F8102367EE877AC2
:10EA1000A5F12C02C5EDC27AD5ED337AC5F8040311
:10EA200067EEA66AD4ED157AC5F80C0327EE866A60
:10EA3000D4ED137A67EEA55AD4ED117A27EE855AF4
:10EA4000D4ED0F7A67EEA44AD4ED0D7A27EE844A0E
:10EA5000D5EDC67AE4EE237A92ED004A009AE4EE10
:10EA6000847AD2ED004AE5EE247A9BED005AE5EE79
:10EA7000857ADAED005AE6EE257A95EDB16AE6EE92
:10EA8000867A95EDCD6AD5ED356A66EE866AE7EE53
:10EA9000267A95EDCE7AD4ED036AE6EE877AD4ED48
:10EAA000056A95EDCF7AE6EE877AD4ED076A95EDA3
:10EAB000D07AE6EE877AD4ED096A95EDD17AE6EE62
:10EAC000877AD4ED0B6A95EDD27AE6EE877AC5EDBA
:10EAD000C57AF1EE677A17EE900A05F009FB41EC72
:10EAE000100B03F07DFD002251EC100B1E4B05F0C6
:10EAF000A1F90B4602461C49002005F077FC05F001
:10EB00002DFE08EE900A194BC5F84C0338EE688AC2
:10EB10001B7828EE288A85EDD48A6BB114491548F4
:10EB200004F061FD18EE900A05F0E2FA41EC100BDA
:10EB30000221104804F083FE18EE900A05F0D8FA7E
:10EB400007A3D3E900234FF0010405F0B5FD00B998
:10EB50000446E0B207B0BDEC028BBDE8F08F00BF09
:10EB60009A9999999999E93F0000F03F84200020F3
:10EB700091750200B82D0020374B1A684FF47A7354
:10EB800093FBF2F307EE903A344BF8EEE77A70B568
:10EB9000334DC3ED007A334C334EFF231A461946EA
:10EBA000284601F0A1FC224630492846304D05F0A8
:10EBB00025FE3049304801F061FD02222F492846E8
:10EBC00001F064FD28462E4D2246314605F016FE22
:10EBD00008222C49284601F059FD31462A4E22468A
:10EBE000284605F00BFE294D29490C2312223046F8
:10EBF00001F072F93046274E2246294605F0FEFD07
:10EC0000142312222449304601F066F93046234E7F
:10EC10002246294605F0F2FD1423082220493046F9
:10EC200001F05AF929461F4D2246304605F0E6FD0F
:10EC30000721284603F0F2F828461B4D1B492246BF
:10EC400005F0DCFD284603F069F9224628461849FC
:10EC5000BDE8704005F0D2BD88200020742100205E
:10EC60006C22002080200020A5D001005D0402005D
:10EC7000E42100209D75020010220020A2750200F0
:10EC800044220020A77502001822002085FE010002
:10EC9000AC75020000240020B1750200A421002000
:10ECA000B675020088210020042C0020291E0200D5
:10ECB000411F020038B5054641B1012908D002299B
:10ECC00008D003290CBF2C242D2404E00C4602E0BC
:10ECD0002A2400E02B2421460F4802F0C6FF2946D3
:10ECE0000D4802F0DFFE00210B4802F0C8FF21466C
:10ECF0000322094802F0B6FF074802F0E5FE044689
:10ED0000054802F0E1FE0546034802F0DDFE44EA54
:10ED1000052080B238BD00BFF82C002000000000A4
:10ED200008B5FFF7C7FF07EE900AF8EE677A17EE0F
:10ED3000900A05F0DDF90AA3D3E9002305F02CFAC7
:10ED400005F00CFD05F0D4F907A3D3E9002305F085
:10ED50006FF805F003FD00EE100A08BDAFF3008068
:10ED60007B14AE47E17A943F666666666612714030
:10ED700008B501462720FFF7D3FFF2EE027A20EE16
:10ED8000270AF1EE047A80EE277ADFED057A77EE36
:10ED9000277A17EE900A05F0ABF941EC100B08BD8D
:10EDA0000000004208B501462620FFF7B9FFF2EE49
:10EDB000027A20EE270AF1EE047A80EE277ADFED60
:10EDC000057A77EE277A17EE900A05F091F941EC73
:10EDD000100B08BD000000422DE9F04FCD4BCE4C8A
:10EDE0002DED048BD4ED007A93ED008A9BB037EEC5
:10EDF000888A04F04FFA07EE900AF8EE677AB4EECC
:10EE0000E78AF1EE10FA40F15D8504F043FAC34B56
:10EE100007EE900A1A78F8EE677A9A46C4ED007AFF
:10EE2000DAB1BF49BF4804F0F7FBBF49BD4804F061
:10EE3000DAFB94ED007ADFEDBD7AC7EE276A16EEB5
:10EE4000900A05F055F941EC100B0221B54804F089
:10EE5000F3FCB749B34804F0DFFBB64B01931A78D3
:10EE6000BAB1B549AF4804F0BEFB04F013FA07EE9F
:10EE7000900AB8EE677AD4ED007A77EE677A17EEEB
:10EE8000900A05F035F941EC100B0221A54804F079
:10EE9000D6FCAA48AA4FAB4EAB4DDFF8DCB201F06E
:10EEA00079F90021132004F06BFA0021142004F0FA
:10EEB00067FA386805F01CF9804601208946FFF79B
:10EEC00071FF404653EC102B494604F0B3FF00227B
:10EED0009E4B05F061F905F041FC9D4B38601868C8
:10EEE00005F006F9804601208946FFF741FF4046BC
:10EEF00053EC102B494604F09DFF0022934B05F084
:10EF00004BF905F02BFC924B1860924B186805F0FA
:10EF1000EFF8804602208946FFF72AFF404653EC6F
:10EF2000102B494604F086FF0022884B05F034F987
:10EF300005F014FC874B1860306805F0D9F880465E
:10EF400002208946FFF72EFF404653EC102B49461E
:10EF500004F070FF00227D4B05F01EF905F0FEFB6A
:10EF60007D4B3060186805F0C3F880460320894661
:10EF7000FFF7FEFE404653EC102B494604F05AFFC3
:10EF80000022724B05F008F905F0E8FB724B18609F
:10EF9000286805F0ADF8804603208946FFF702FF98
:10EFA000404653EC102B494604F044FF0022674BC7
:10EFB00005F0F2F805F0D2FB2860DBF8000005F060
:10EFC00097F8804604208946FFF7D2FE404653EC6E
:10EFD000102B494604F02EFF00225C4BDFF89C8189
:10EFE000DFF8709105F0D8F805F0B8FBCBF8000019
:10EFF000D8F8000005F07CF8CDE902010420FFF705
:10F00000D1FEDDE9020153EC102B04F013FF0022C6
:10F010004E4B05F0C1F805F0A1FBD6ED007A97ED57
:10F02000007A4E4B4C4AC8F8000037EE277AD5EDEF
:10F03000007A029277EE277A06EE900A77EEA67AA9
:10F04000B5EE007A67EE877AC3ED007A019B1B78F4
:10F05000BBB14349334804F0C6FA04F01BF907EE8C
:10F06000900AB8EE677AD4ED007A77EE677A17EEF9
:10F07000900A05F03DF841EC100B0221294804F0FC
:10F08000DEFB9AF80030002B00F0F8803549254867
:10F0900004F0A9FA386805F02BF841EC100B0221B6
:10F0A000204804F0C9FB30491E4804F09CFA2F495F
:10F0B0001C4804F098FA264B186805F019F841EC42
:10F0C000100B0221174804F0B7FB2749154804F03C
:10F0D000A3FA2749134804F086FA306805F008F8C7
:10F0E00041EC100B02210F4804F0A6FB1E490D480D
:10F0F00004F079FA1F490B4804F075FAD9F80000BA
:10F1000004F0F6FF41EC100B0221064804F094FBDA
:10F11000154935E0742100203C2200208420002085
:10F12000D6740200B82D0020BB75020000007A449E
:10F13000C275020078210020C57502006C220020F3
:10F14000D4210020D8210020A02100200000E03F91
:10F15000E8230020EC230020F02300207C21002065
:10F16000E975020002760200387F0200097602008B
:10F170001276020019760200F4230020E02100201C
:10F18000674804F049FA6749654804F02CFA286892
:10F19000654D04F0ADFF41EC100B0221604804F016
:10F1A0004BFB62495E4804F01EFA61495C4804F07A
:10F1B0001AFA604B186804F09BFF41EC100B022117
:10F1C000574804F039FB5949554804F025FA5A4983
:10F1D000534804F008FA594B186804F089FF41ECD1
:10F1E000100B02214E4804F027FB50494C4804F014
:10F1F000FAF953494A4804F0F6F9DBF8000004F044
:10F2000077FF41EC100B0221454804F015FB4749FC
:10F21000434804F001FA4B49414804F0E4F92868F6
:10F2200004F066FF41EC100B02213D4804F004FBA2
:10F230003E493B4804F0F0F94349394804F0D3F91A
:10F24000686804F055FF41EC100B0221344804F0CB
:10F25000F3FA3649324804F0DFF93C49304804F00B
:10F26000C2F9A86804F044FF41EC100B02212C48BD
:10F2700004F0E2FA2D492A4804F0CEF9344D354E17
:10F28000297811B30021344803F05DF83146324843
:10F2900002F064FF9AF8003028B98BB12F4920485A
:10F2A00004F0BAF90CE01BB12D491D4804F09BF99C
:10F2B0009AF8003023B10A223178194804F0E6F9AF
:10F2C000254803F061F8002376E0234802F0F8FFB8
:10F2D0002449214802F0E2FE30B99AF800301BB10F
:10F2E00021490F4804F098F920491B4802F0F6FE26
:10F2F00030B99AF800301BB11D49094804F08CF967
:10F30000184F1548391D02F009FF9AF8003098BBD4
:10F31000002B4DD01749024804F07EF948E000BFA9
:10F32000B82D002022760200C8210020387F02007C
:10F3300029760200F023002032760200E02100202E
:10F3400039760200427602004C76020056760200C0
:10F35000AC2C0020002C0020042C00206076020041
:10F360007E760200802100208A7602008221002021
:10F37000A2760200BC760200D3B19F499F4804F0F8
:10F3800032F90A2239889D4804F0AEF99C499B481D
:10F3900004F029F90A227988984804F0A3F99849D9
:10F3A000964804F020F90A22B988944804F09CF9A0
:10F3B000944802F0A1FF01230022114691482B70CE
:10F3C00002F044FE012200218E4802F03FFE019B24
:10F3D0001B78BBB18C49894804F005F903F05AFF4A
:10F3E00007EE900AB8EE677AD4ED007A77EE677A86
:10F3F00017EE900A04F07CFE41EC100B02217F48CE
:10F4000004F01DFA00218148814D824F02F06AFD0F
:10F4100001217E4885ED000A02F064FD02217B484F
:10F4200085ED010A02F05EFD286885ED020AB0EE66
:10F43000408A28EE088A04F05BFED5ED017AA7EE3B
:10F44000A78A41EC190B18EE100A04F051FE41ECAA
:10F45000100B03F049F9B0EE401AF0EE601AB0EE6E
:10F46000490AF0EE690A03F0B9F861A3D3E9002371
:10F4700051EC100B04F090FEC7E90001A86880F081
:10F48000004004F035FECDE90201686880F00040DC
:10F4900004F02EFE9DED021B41EC100B03F09EF8D4
:10F4A00053A3D3E9002351EC100B04F075FE5A4B23
:10F4B000C3E90001052003F01DFF019B02971B78A3
:10F4C000BBB156494D4804F08EF803F0E3FE07EE59
:10F4D000900AB8EE677AD4ED007A77EE677A17EE85
:10F4E000900A04F005FE41EC100B0221434804F0A1
:10F4F000A6F9019B1B78BBB14949404804F073F859
:10F5000003F0C8FE07EE900AB8EE677AD4ED007AF1
:10F5100077EE677A17EE900A04F0EAFD41EC100BE3
:10F520000221364804F08BF93378FF22B3FBF2F363
:10F5300007EE903A3B4BF8EEE77AD3ED006ACDED5B
:10F54000157ADFED397A394B86EEA77AD9ED006A64
:10F550008DED167A86EEA77AD3ED006A8DED177AD7
:10F5600086EEA77ADBED006A8DED187A86EEA77A33
:10F570008DED197A03F08EFE2D4B1F781FB115A863
:10F58000FDF7A6FD0746019B1B78BBB129491B4827
:10F5900004F029F803F07EFE07EE900AB8EE677AD1
:10F5A000D4ED007A77EE677A17EE900A04F0A0FDAA
:10F5B00041EC100B0221114804F041F9DFF8808082
:10F5C0009FED1D8AD8ED007A37EE888A03F062FE3F
:10F5D00007EE900AF8EE677AB4EEE78AF1EE10FAD9
:10F5E00030DD164B01221A705AE000BFAFF30080E5
:10F5F00046DF617EDCA54C40D5760200B82D0020A8
:10F60000E0770200042C0020E1760200882100202F
:10F61000C8210020F82B002008220020FD760200DF
:10F620001D770200E82300200000CC42F0230020D8
:10F63000402200204B77020000803B4568220020DA
:10F64000A82C002067B3A24A17784FBB01211920CC
:10F6500003F096FE4FF4167003F04CFE3946192065
:10F6600003F08EFE0121132003F08AFEC82003F070
:10F6700041FE3946132003F083FE0121142003F0DC
:10F680007FFEC82003F036FE3946142003F078FED2
:10F6900003F000FE07EE900AF8EE677AC8ED007AF4
:10F6A0000021192003F06CFE0021142003F068FEF5
:10F6B0009AF800304BB18749874803F094FF874B95
:10F6C000854819680A2204F00FF8854BD3E9002316
:10F6D000CDE90423029B93ED007B8DED027B03F0CB
:10F6E000F1FD80490968401A7F4909688842DDE9CF
:10F6F0000423C0F0B1801946104604F0E7FF00F182
:10F70000B408DDE9020104F0E1FF0A2200F1B407C8
:10F71000414606A804F0B6FA0A22394609A804F0C0
:10F72000B1FA72490CA804F065FA9AF800307BB17E
:10F730006F49694803F057FF09A9674803F04EFF76
:10F740006C49654803F04FFF06A9634803F05AFF70
:10F750000FA8694900F046FD0FA800F03EFB002805
:10F760006BD033788DF84A30644B95ED007AD3ED49
:10F77000007ADFED636A8DF8488077EEA77A0A2178
:10F78000FCEEE77A0CA817EE903AD9ED007A8DF8E6
:10F790004B3077EEA77A8DF84970FCEEE77A17EEDA
:10F7A000903A8DF84C30574BD3ED007A77EEA77A2C
:10F7B000FCEEE77A17EE903ADBED007A8DF84D30EB
:10F7C00077EEA77AFCEEE77A17EE903AF7EE007A3A
:10F7D00037EE277A8DF84E3027EE267ABCEEC77AC0
:10F7E00017EE103A95ED017A8DF84F3037EE277A03
:10F7F00027EE267ABCEEC77A17EE103A95ED027A1C
:10F800008DF8503077EE277A67EEA67AFCEEE77A2D
:10F8100017EE903A8DF8513004F082FA0B210378FC
:10F820008DF852300CA804F07BFA0C22037836488D
:10F830008DF8533012A900F03AFB2A4A2A4B11687E
:10F840001B680CA80B44136004F092F909A804F09B
:10F850008FF906A804F08CF9019B1B78BBB12B49EA
:10F860001D4803F0C0FE03F015FD07EE900AB8EE48
:10F87000677AD4ED007A77EE677A17EE900A04F093
:10F8800037FC41EC100B0221134803F0D8FF019B19
:10F890001B78BBB11E49104803F0A5FE03F0FAFC2B
:10F8A00007EE900AB8EE677AD4ED007A77EE677AC1
:10F8B00017EE900A04F01CFC41EC100B02210648E4
:10F8C00003F0BDFF1BB0BDEC048BBDE8F08F00BFA3
:10F8D000682200206E770200B82D0020E42300206B
:10F8E00008220020FC230020DC2100207A7702007F
:10F8F0009C770200D67402006C220020E8230020CE
:10F900000000C842F023002018220020B077020037
:10F91000CC77020030B59B4C9B4891B04FF4E1315D
:10F9200003F0D9FF23781BB19849974803F05BFE99
:10F93000322003F0DFFC964802F0F8F8322003F0A2
:10F94000D9FC0121132003F0F9FC0121142003F05C
:10F95000F5FC0021132003F013FD0021142003F017
:10F960000FFD0121192003F0E9FC0021192003F00B
:10F9700007FD8849844803F036FE874802F081FA83
:10F980000A220146804803F0AFFE40F6B83003F08B
:10F99000B1FC824802F020FD237828B14BB18049A8
:10F9A000794803F039FE04E01BB17E49764803F044
:10F9B0003DFE0321794802F0EFFB28B923781BB103
:10F9C0007949714803F028FE0021744802F0BBFC1D
:10F9D000237810B133B1754901E01BB174496A480D
:10F9E00003F01AFE02216D4802F0BEFB00216B48B5
:10F9F00002F066FC237810B133B16E4901E01BB10F
:10FA00006D49614803F008FE6C496D4800F0CDFB7C
:10FA10006A496B4800F059FD6A4800F09EF90146BA
:10FA2000674800F0BFFB4FF6FF71654800F050FDDE
:10FA30006449634800F010FD6349614800F00CFD23
:10FA400062495F4800F008FD61495D4800F004FD2F
:10FA500060495B4800F000FD5F49594800F0FCFC3C
:10FA60005E4A5748002100F0CAFB5D4A5448012114
:10FA700000F0C5FB5B4A5C48002100F062FA594A7D
:10FA80005A48002100F05DFA594A5A48002100F016
:10FA900058FA574A5848002100F053FA10A9002597
:10FAA00001F8395D0122504800F001FA10A9012245
:10FAB00001F83A5D4D4800F0FAF91422294606A8EB
:10FAC00004F064FF06A94B4800F0CDF91422294642
:10FAD0000BA804F05BFF0BA9474800F0C4F9474BA3
:10FAE00049F640421A6003F0EDFB454B186034487C
:10FAF00000F0A8FB23781BB14249234803F08CFD9A
:10FB0000414B424A424918680023834203DA42F8D3
:10FB1000041B0133F9E7032102A800F026F90421B0
:10FB200003A800F022F9052104A800F01EF906211F
:10FB300005A800F01AF902A800F020F918B135491B
:10FB4000114803F069FD03A800F018F918B1324913
:10FB50000D4803F061FD04A800F010F918B12F4919
:10FB6000094803F059FD05A800F008F918B12C491F
:10FB7000054803F051FD4FF4FA7003F0BBFB11B0E0
:10FB800030BD00BF84200020B82D0020D8770200AF
:10FB9000F82C0020E277020088210020042C0020AD
:10FBA000FB7702001D78020049780200727802009B
:10FBB0008F780200C2780200DF780200127902001A
:10FBC0006C22002010220020E82100204822002082
:10FBD0001C22002004240020A8210020F1CF0100D5
:10FBE00039D0010019C50100E42100204422002081
:10FBF000BDC5010000240020A4210020DC2100203C
:10FC0000FC2300201C7902008C20002024240020EA
:10FC10007DFFC742367902005E79020086790200D4
:10FC2000AE79020038B50025057329B90B4B0C4A93
:10FC30000C48232104F0E8FD01600B4951F8222013
:10FC4000027151F8233083719DF8103051F8233040
:10FC500043710223C371856038BD00BF137A02006F
:10FC6000D6790200217A0200887D0200037B23B945
:10FC70004373837303610123037370471FB50DF151
:10FC8000100E0EE90E009DF80810026800230129ED
:10FC9000C2F80035039B08D004D3032907D143F0F1
:10FCA000040304E043F0020301E043F00603C2F85A
:10FCB0005435019BC2F824350123C2F8003505B044
:10FCC0005DF804FB10B5FFF7D1FF03688279C3F834
:10FCD00008254279C3F80C250279C3F81025034B97
:10FCE000BDE810400ECBFFF7C9BF00BFB02C00200D
:10FCF0000368C3F81C15D3F80821002AFBD0D3F8F9
:10FD000018050022C3F80821C0B2704713B50D4B87
:10FD10000D490E484FF080421A6000229A60032479
:10FD200002221A71009405230422FFF77BFF00943E
:10FD3000052304224FF040210548FFF773FF02B06E
:10FD400010BD00BFB02C002000300040BC2C0020B3
:10FD5000D02C002001608280704700687047808846
:10FD6000704729DF704728DF70474FF080531A69CA
:10FD70005B69013B591A5143016070470368186879
:10FD8000013018BF0120704708B54FF080531A6941
:10FD90000368B3FBF2F31846FFF7E5FF1128FAD02A
:10FDA00008BD38B504460D461946FFF7EDFF8B0830
:10FDB0001A4629462068FFF7D4FF1128F8D038BD2D
:10FDC00010B502680846043A441AA34204D952F80E
:10FDD000044F40F8044BF7E710BD07B50023062297
:10FDE000694604300093ADF8043004F0B5FD0030EE
:10FDF00018BF012003B05DF804FB000010B5034CF0
:10FE00000430214600F05AFC204610BDE42C0020AE
:10FE10000B6843608B880381704700234360038134
:10FE2000704708B50160FFF7F8FF08BD807A70479A
:10FE3000C0687047007C704700207047C368585CFA
:10FE4000704770B50D46114602680446D6691A46D9
:10FE5000B0470123A374A36923B121462846BDE816
:10FE60007040184770BD70B5044608460D4605F051
:10FE7000F9FB2368C2B229462046DB69BDE8704021
:10FE800018470000044B10B504460360C06808B171
:10FE900004F05AFD204610BD907A020010B50446C9
:10FEA000FFF7F0FF204603F09FFF204610BD10B57E
:10FEB000837A9A42044628BF1A460274C06804F046
:10FEC0005AFD606928B1036821461B68BDE81040EF
:10FED0001847012010BD000070B504461D461646A7
:10FEE000043042F6030200F08FF8142D4FF00002A8
:10FEF00028460A4B236028BF1420A072E2602274B7
:10FF00006674A274E2746261A261E261226215B158
:10FF100004F012FDE060204670BD00BF907A020040
:10FF2000407C7047C07C70470346002ADA7414BFD7
:10FF300007220822084653F822200AB11946104722
:10FF400070470B299CBF063140F821207047416162
:10FF50007047704770477047002070477047704780
:10FF60000020704700207047002070470020704735
:10FF70000020704700207047002070470020704725
:10FF80000020704700207047002070470020704715
:10FF9000704770477047704710B5044603F024FF60
:10FFA000204610BD054A02606422828001210022A1
:10FFB000C28002818172C26002617047C07A020011
:10FFC000016170470120704710B5034B0360044680
:10FFD000FFF758FF204610BD247B020010B50446F1
:10FFE000FFF7F2FF204603F0FFFE204610BD0000A1
:10FFF00038B504461D46FFF76FFF024B257423609A
:020000022000DC
:10000000204638BD247B020010B50446FFF7A2FE4F
:10001000024A137801331370204610BDF62C0020DD
:10002000014B1878704700BFF62C0020C0680368A9
:100030001B6A1847A0F10400FFF7F8BFC068036807
:100040005B6A1847A0F10400FFF7F8BFC0680368B7
:100050009B6A1847A0F10400FFF7F8BFC068036867
:10006000DB6A1847A0F10400FFF7F8BFC068036817
:100070001B6B1847A0F10800FFF7F8BFC0680368C2
:100080005B6B1847A0F10800FFF7F8BFC068036872
:100090009B6B1847A0F10800FFF7F8BFC06810B4C9
:1000A0000468E46BA4465DF8044B6047A0F10800C7
:1000B000FFF7F4BFC06803681B6C1847A0F1080085
:1000C000FFF7F8BFC06803685B6C1847A0F1080031
:1000D000FFF7F8BFC06803689B6C1847A0F10800E1
:1000E000FFF7F8BFC0680368DB6C1847A0F1080091
:1000F000FFF7F8BFD0F8703113B100F5AE701847B4
:100100007047D0F8743113B100F5AE7018477047DE
:1001100030B414461A4623685D6A9DF8083000F52D
:10012000AE71AC46204630BC60477047704770B532
:10013000054600F5AE7411462046FFF769FED5F876
:1001400068311BB12046BDE87040184770BDD0F83B
:100150006C3110B500F5AE740BB1204698472046BF
:10016000BDE81040FFF759BE10B4144600F5AE715B
:100170001A4620465DF8044BFFF7D6BE10B414466D
:1001800000F5AE711A4620469DF804305DF8044B28
:1001900000F056BAC0680368DB681847C068036897
:1001A0001B691847C0F888107047C0F8981070474E
:1001B00038B5D0F8A43004460D463BB900F01CFA1F
:1001C00000B2800004F0B8FBC4F8A40094F8A820A2
:1001D000D4F8A43043F8225094F8A830013384F8BE
:1001E000A83038BD38B505460C460846FFF7D2FFA3
:1001F00004F5AE7107C985E80700284638BD0F2908
:100200009CBF5A3140F82120704710B50446FFF7D3
:1002100007FF00B2800004F08FFB04F1AC03036021
:1002200004F1B803436004F1DC03836004F1FC03D0
:10023000C36004F584730361052384F8A030C4F817
:100240009C0010BD2DE9F043D0F88C10A5B0002320
:1002500004468DF81C30E1B10DA800F097FA0DA806
:1002600000F0C6FA022805468CBF152314238DF82A
:100270004C000DA88DF84D3000F0B8FA2A46014622
:10028000C5F114050DF14E0004F075FBEDB2012629
:1002900001E016250E46D4F8881039B30DA800F0F9
:1002A00075FA0DA800F0A4FA431CAB4280461DDA93
:1002B0001627774324AB3B4402288CBF0622022238
:1002C00003F8440C03F8432C0DA800F08FFA24AB7C
:1002D0001F4401464246A7F14200023D04F04BFB99
:1002E0000136C8EB0505F6B205F0FF05D4F890100D
:1002F000D1B194F89420BAB1022D15D9531C16200F
:10030000AB4200FB06F024AB0344A4BF023DEAB2BB
:10031000FF2503F8442C03F8435C24AB184442380F
:1003200004F029FB0136F6B2D4F89850BDB1284646
:1003300005F098F9C0B214288ABF14238DF81C0068
:100340008DF81C309DF81C2090428CBF082009209D
:100350008DF81D0029460DF11E0004F00CFBD4F8A9
:100360009C3013B92046FFF750FF002742F60308E0
:1003700004F1040994F8A0309F4205DB002742F6FF
:10038000030804F108091BE0D4F89C3053F8275007
:100390002846FFF7E4FC404506D10DB1281F00E0D8
:1003A00028464946FFF7D3FD0137E3E7D4F8A430E8
:1003B00053F827502846FFF7D2FC404505D00137B7
:1003C00094F8A8309F42F1DB07E00DB1281F00E050
:1003D0002846494600F048F9F1E74BB104F594711D
:1003E0002046FFF7E5FE04F59A712046FFF7E0FE90
:1003F000E06894F8A81002680491D4F8A41003915E
:1004000094F8A01002919DF81C30D4F89C10019132
:1004100007A90033009118BF01239568314613AA3C
:10042000A847E06803681B6D984725B0BDE8F083D6
:1004300038B5D0F89C3004460D460BB9FFF7E5FE01
:1004400094F8A020D4F89C3043F8225094F8A030BF
:10045000013384F8A03038BDFFF7EABF154B10B563
:1004600003F1680203600446803342608360FFF753
:1004700095FED4F8A40008B104F066FAD4F89C0004
:1004800008B104F061FA04F5987000F0BBF804F5C7
:100490008270FFF7F7FC04F1D800FFF7F3FC04F1DA
:1004A000B400FFF7EFFC04F1100000F07FFE2046DF
:1004B00010BD00BF787B020010B50446FFF7CEFFE9
:1004C000204603F091FC204610BDB430FFF7CBBCB2
:1004D00007B502AB022223F8021DD8301946FFF7F8
:1004E000E6FC03B05DF804FB2DE9F843354BDFF87B
:1004F000E890DFF8E88003F108020446026000F1AA
:10050000100703F17002883300254260836038468B
:1005100001F084FA04F1B406C4F88850C4F88C5091
:10052000C4F8905084F89450C4F89850C4F89C5083
:1005300084F8A050C4F8A45084F8A850224904F1CB
:10054000AC0000F09BF81323022220493046FFF74D
:10055000C3FC02231A461E4904F1D800FFF7BCFC75
:10056000494604F1FC0000F089F8042320224146AA
:1005700004F58270FFF7B0FC494604F5947000F072
:1005800075F82022414604F5987000F043F82146A2
:1005900004F5AE70FFF745FC10222946E76004F52C
:1005A000B47004F0F3F90B493046FFF75CFC2946C0
:1005B0002046FFF78DFFE0682146FFF701FD20464A
:1005C000BDE8F883707B02004C7B0200517B020087
:1005D000567B0200657B02005B7B0200607B0200B1
:1005E00010B50446FFF7B6FB024A137801331370C7
:1005F000204610BDF72C0020014B1878704700BF33
:10060000F72C0020704710B5044603F0EDFB2046A0
:1006100010BD000038B504461546043042F603020A
:10062000FFF7DEFF054B23600023A572E372A36290
:1006300084F822306362204638BD00BF207C02006F
:1006400070B50446C3720D460C3011461A4604F0CC
:1006500092F9012384F82230A36A23B12146284667
:10066000BDE87040184770BD4162704710B54FF447
:1006700020520446FFF7B4FF204610BD10B54FF4DA
:1006800020520446FFF7C0FC204610BD13B50123DD
:100690000446FFF7ADFC02A9064B2360002301F8D6
:1006A000013D01222046FFF702FC034B2360204658
:1006B00002B010BD307C02004C74020070B58AB0EC
:1006C00004460E4601A81B4903F094FA194904A8F0
:1006D00003F090FA0634052514F8013D0F2B03D8DA
:1006E000154901A803F00CFB1022217807A803F09C
:1006F000DBFA07A904A803F0ACFA07A803F038FA5C
:1007000004A901A803F0F8FA1DB10C4901A803F0EF
:10071000F7FA15F1FF35DFD200231222314601A886
:1007200003F00CFB04A803F023FA01A803F020FA5D
:100730000AB070BDE1770200A0750200587C02008B
:10074000F8B505460F460446631B9F4213DD237828
:1007500013F0F00F264603D109490A4802F043FF7F
:1007600031780848102202F08FFF0749054801340C
:1007700002F039FFE8E70348BDE8F84002F03ABF6D
:10078000A0750200B82D0020D6740200F7B504460B
:1007900000232160037508460E468DF804308DF85D
:1007A00005308DF8063004F05DFF451E002D1ADB84
:1007B000277D0F2F17D8735D2D2B01D1013510E048
:1007C0007219002112F8012C8DF8042001A81022C2
:1007D0008DF8053005F070F827443871237D01331A
:1007E0002375023DE2E7204603B0F0BD04307047B8
:1007F000007D704771DF704772DF704773DF7047AD
:1008000075DF704776DF704777DF704778DF7047B6
:100810007ADF70477CDF70477EDF70477FDF70478D
:1008200086DF704790DF704792DF704796DF704732
:1008300098DF704799DF7047A0DF7047A2DF7047ED
:10084000A3DF7047A4DF7047A6DF7047A9DF7047BA
:1008500060DF704761DF704762DF704763DF7047BA
:1008600053DF704710DF704711DF704790F85C006E
:10087000003018BF0120704770B590F86D600023FC
:10088000B34214DA1A01056FAC18AA588A420CD187
:10089000E38973B1227B02F0020202F0FF0342B14E
:1008A00090F8740080F0010070BD0133E8E700208B
:1008B00070BD184670BD70B590F86D600023B342EE
:1008C0001ADA1A01056FAC18AA588A4212D1E189C6
:1008D000A1B1227B02F0020202F0FF0382B10123E8
:1008E00080F874300022008FFFF7A0FFB0FA80F08C
:1008F000400970BD0133E2E7002070BD084670BDBD
:10090000184670BD70B590F86D600023B3421CDAD4
:100910001A01056FAC18AA588A4214D1E389B3B101
:10092000227B130704D590F8740080F0010070BD9D
:1009300002F0040202F0FF034AB190F85C000030BC
:1009400018BF012070BD0133E0E7002070BD1846DC
:1009500070BDF0B590F86DE085B0002474452FDAD5
:100960002501076F7E197D598D4227D1F4894CB33B
:10097000357B15F00C0127D090F85C1021B315F0F1
:10098000080F14BF01250225ADF80A3001390123F3
:1009900080F85C108DF8045080F87430002501A9AF
:1009A000008F8DF80550ADF80640ADF80850039261
:1009B000FFF73EFFB0FA80F0400906E00134CDE7D2
:1009C000002002E0204600E0084605B0F0BD70B50A
:1009D00090F86D600023B34210DA1A01056FAC186D
:1009E000AA588A4208D1E08948B1237B13F0300F1E
:1009F00014BF0120002070BD0133ECE7002070BD62
:100A00007FB590F86D600023B3422EDA1A01056FAE
:100A1000AC18AA588A4226D1E28942B3217B11F050
:100A2000300326D0012311F0100F14BF1946022104
:100A30001A44ADF80210ADF80620002102228DF80C
:100A40000510ADF80810ADF80A2080F874306A443B
:100A500001A9008F8DF804300392FFF7E9FEB0FA88
:100A600080F0400906E00133CEE7002002E01046A6
:100A700000E0184604B070BD03681B6C18477FB5D2
:100A800090F86D600023B3422ADA1A01056FAC18A2
:100A9000AA588A4222D1E28922B3237B13F0300381
:100AA0004FF0000120D001231A44ADF806200222A5
:100AB000ADF802108DF80510ADF80810ADF80A2059
:100AC00080F874306A4401A9008F8DF804300392D5
:100AD000FFF7AEFEB0FA80F0400906E00133D2E73E
:100AE000002002E0104600E0184604B070BD11F18D
:100AF000270F08B514DB11F11D0F14DB11F1130FD3
:100B000014DB11F10F0F14DB11F10B0F14DBCA1DF5
:100B100015DBCB1C16DB0029D4BF0020042013E01A
:100B20006FF0270010E06FF01D000DE06FF0130074
:100B30000AE06FF00F0007E06FF00B0004E06FF0C9
:100B4000070001E06FF00300FFF75EFEB0FA80F0EF
:100B5000400908BD1321008FFFF754BE07B50146B9
:100B60006846FFF747FE086920B103680DF10102EE
:100B7000DB69984703B05DF804FB000013B5044639
:100B800002A8002340F8043DFFF76AFE019803F035
:100B90009DFA084B002203F0FFFA03F0DFFD236902
:100BA00033B11A6800EE100A126A214618469047BF
:100BB00002B010BD0000D03F704710B5044686B0AB
:100BC00000211822684603F0E1FEA37A002B14BF2F
:100BD000002303238DF80030A38868460A221B01F6
:100BE00093FBF2F3ADF81030FFF708FE06B010BD2E
:100BF0002DE9F043054690F85D008FB00C460023C8
:100C0000142683425DDA06FB03F2296E8F188A5898
:100C1000A24207D12046FFF783F9C30751D57B686D
:100C200013B94EE00133ECE795F833600DF1180885
:100C3000324605F11401404603F09DFE236820462C
:100C40001B69984704300644F6B21F2E39D87868DD
:100C5000FFF783F801466846FFF798FD236895F88B
:100C600033701B69204698470EAB1F44033007F8CA
:100C7000200C95F833703B441622684603F81F2C6D
:100C8000FFF7B4FD0237038828F80730236895F88A
:100C90003370DB6820469847236881461B692046ED
:100CA00098470437474402464946384603F063FEF6
:100CB00000231A4631464046FFF79EFD6C63012033
:100CC00000E000200FB0BDE8F0832DE9F047D4B07C
:100CD0004FF48E7304460DF10A010DA8ADF80A30E9
:100CE000FFF7B8FD0346002840F04482BDF83420E9
:100CF000302A00F03C8111D8112A5CD004D8012A96
:100D000021D0102A27D035E2142A00F0C780192AF2
:100D100000F0D080132A40F02D829BE0382A00F0AA
:100D2000DA8106D8322A00F06481362A00F0BA81CE
:100D300020E2502A00F0D180522A00F01281392A94
:100D400040F01882ECE194F85C209DF83C301344AC
:100D500084F85C300EE2BDF83800208705A9FFF763
:100D60007BFD20699DF8143084F85C3028B103685D
:100D70000DF13D021B6821469847E288052A12D9E9
:100D80002389B3F5486F0ED8ADF816300023ADF8BF
:100D9000183005A94FF4C873208FADF81420ADF8B2
:100DA0001A30FFF72DFD94F86430002B00F0E2813B
:100DB0000022012109E14FF6FF72228784F85C00CE
:100DC00005464FF01409804694F85D309D4216DACE
:100DD000276E09FB05F6BB19B85983F8108083F814
:100DE0001180FFF79FF840B1206930B10368BA590C
:100DF000D3F814A021460023D0470135E4E7206949
:100E000018B1036821465B68984700230C201946F7
:100E100094F86420934202DB0023184605E0A26E9A
:100E200000FB032201339160F2E794F86D209342B6
:100E300008DA216F1A01114401330873216F0A4443
:100E4000D081F2E7002384F87430236820469B6940
:100E500098478FE1E068002800F08681FEF78EFF5A
:100E6000002840F08181012303228DF80F3062F3C6
:100E700006138DF80C3007238DF80D301023002158
:100E80008DF80E30A36D05938DF8101009910A911D
:100E90000B910691079105AB03AA68E1A16DBDF81E
:100EA0004420488A904218BF1946208F1A46FFF7FF
:100EB000B7FC5FE19DF83C20002A40F05B81E068D0
:100EC00020B11C2304F13C01FEF76BFF20690028D0
:100ED00000F0508103689B68E1E0BDF83A80064667
:100EE0004FF0140994F85D309E4280F24381216EE8
:100EF00009FB06F3CF183A8942450CD12069002836
:100F000000F0388103689DF8442000921D693A681A
:100F10000DF1460323E1BA89424520D19DF84700EF
:100F20009DF8462042EA002295B202F001023A748E
:100F3000C5F340027A7415F00305C85818BF01259F
:100F4000FEF7F0FFA8420AD02069002800F01281C5
:100F500003683A685E6921462B46B0470AE10136CC
:100F6000C0E702460146208FFFF770FC02E1BDF8A2
:100F70003A2072BBBDF840500DA913460C26AB4277
:100F80001CDA94F864700020B84214DAA26E91F86A
:100F900010C006FB002292F806E0F44509D1B1F832
:100FA0000EC0B2F804E0F44503D1D1F8120090600D
:100FB00001E00130E8E701330831E0E70DAB03EB76
:100FC000C5050022A989013189B2208FFFF72AFCCB
:100FD000D0E094F864200C20934280F2CB80A16E84
:100FE00000FB03110D8915B14D89002D4BD1013343
:100FF000F2E7BDF83A2094F86C30002A36D1A66E9C
:1010000003EB430306EB83030A259B6805930DABB3
:101010009A8905FB0235AB4223D0002194F86D205C
:10102000914219DA226F94F86C0002EB011200EB86
:10103000400056F82070506887420BD11F7C907A90
:10104000874207D11089DF89874201BF987C1073DE
:10105000D88AD0810131E1E7DA8AADF814200A3369
:10106000D9E705A9208FFFF7DFFB83E001330C22CE
:1010700094F864005A4383420CDAA16E11440D893E
:101080002DB14D891DB184F86C300831EAE7013388
:101090000C32F0E7206900286CD00368DB68214639
:1010A000984767E0BDF83A1084F8740040F20512E2
:1010B000914201D1E268CAB9BDF8401094F86D00C0
:1010C0000023834256DA226F02EB0312D5898D4248
:1010D0003BD00133F5E7BDF83A1084F8740040F2D4
:1010E0000512914246D1E268002A43D01A0E8DF8CB
:1010F000183042F00102DBB28DF8172043F00103F3
:10110000032262F306138DF8143007238DF815308F
:1011100005A91023208F8DF81630FFF77DFB29E0FD
:101120009DF84230BDF84050022B03D12946208F54
:10113000FFF780FB94F86D1000238B421ADA226FC0
:1011400002EB0312D089A8420CD1206990B19DF81E
:1011500044100368009112689D690DF14603214611
:10116000A84707E00133E8E700231A468521208FCE
:10117000FFF754FB54B0BDE8F08710B50446FFF705
:1011800073FB206F08B103F0DFFBA06E08B103F022
:10119000DBFB206E08B103F0D7FB002384F85D3041
:1011A00084F8643084F86D3010BD000010B5054B34
:1011B00003600446FFF7E1FF2046FEF7ECFE204601
:1011C00010BD00BF687C020010B50446FFF7EEFFBB
:1011D000204602F009FE204610BD07B51288ADF882
:1011E0000020ADF802106A4601464FF6FF700193E9
:1011F000FFF728FB03B05DF804FB00002DE9F04F7A
:10120000EDB09A469DF8E8310193A04B769E9DF88B
:10121000E0810546186808900F4608A8002114468A
:10122000FFF720FB9A4B0993142200210DA803F02D
:10123000ADFB0A2309A9ADF834300DA801238DF8C0
:1012400040308DF83C30FFF703FB2822ADF82C200E
:101250005022ADF82E204FF000094FF4C8720BA8B1
:10126000ADF83220ADF83090FFF7D2FA4846FFF7DC
:10127000CBFA6B7506230222AB7503232A7585F81A
:1012800033301FB314B31444B9451FDA95F8330053
:1012900014F8023C2A1801331375023014F8013C8B
:1012A0005375C0B285F83300284414F8022C214647
:1012B000143003F060FB14F8023C95F8332013441B
:1012C00085F8333009F101091634DDE724AFBAF1AE
:1012D000000F1CD0EEB14FF0000902364B46D1454D
:1012E00018DA16F802BC16F8011C0BF10102FA54C8
:1012F0009C1CFA18E4B25170381931465A465C44C5
:1013000003F039FB09F10109E3B21636E7E753466A
:1013100000E033463A4695F8331005F11400FFF724
:101320006BFA0020FFF772FA002442F603064445E8
:101330000DDA779B53F82400FEF711FDB04202BF8F
:1013400095F85D30013385F85D300134EFE795F8AD
:101350005D000338C0B285F85D0000EB80008000BE
:1013600003F0EAFA00262866ADF814600296B1464A
:10137000464580F2BE81779B53F826402046FEF713
:10138000ECFC014617A8FFF701FA17A8FFF72EFAA1
:10139000074617A8FFF72CFA022809D17A783B787C
:1013A00043EA0223ADF8283001238DF82A301CE0EF
:1013B0003B460DF1B00E07F1100C186859687246E3
:1013C00003C2083363459646F7D17A7B3B7B43EAF9
:1013D0000223ADF828300DF12A0100232CA88DF846
:1013E000BD308DF8BC30FFF739FA2046FEF7B7FC68
:1013F000B0F5205F204611D1FEF7AFFC254904F07F
:101400001FF9002800F073812046FEF7A6FC224950
:1014100004F016F9002800F06A8131E2FEF79FFC23
:1014200042F60303984240F0358104B1043C271D85
:101430003846FEF792FC194904F002F9B8B99DF854
:10144000B030012262F3030362F307138DF8B0306A
:1014500023682046DB689847236807461B692046B7
:101460009847394682B22CA8FFF7D4F93FE13846B5
:10147000FEF773FC0A4904F0E3F898B923682046A4
:10148000DB6898470088FFF7C1F930E15A7C020019
:10149000802000204C7B02005B7B0200517B02001D
:1014A000567B02003846FEF758FCC14904F0C8F8E4
:1014B000002800F01C812046FEF732FD236882469A
:1014C0001B69204698472A6EADF8160009EB890182
:1014D0004FEA810B02EB0B0342F821400027029AEE
:1014E0005A601F745F741C2239461DA803F04EFA1F
:1014F0002AF001031AF0300F8DF8743010D0012358
:10150000194663F307118DF81810194606AA63F3FC
:10151000071163F342078DF819108DF81A702292A3
:1015200000231AF0320FADF81C308DF81E300BD0AE
:101530009DF81C30E968012262F3030301B1022225
:1015400062F307138DF81C301AF00C0F10D0EB6803
:1015500001222BB19DF81D3062F30303022203E048
:101560009DF81D3062F3030362F307138DF81D30FD
:101570009DF81E30012262F342038DF81E3023686D
:1015800020469B6998479DF81E3080F0010060F36B
:1015900000038DF81E30771C47453CDA779B53F8E3
:1015A00027A05046FEF7DBFBB0F5245F33D1BAF13C
:1015B000000F01D0AAF1040A0AF1040318460393AC
:1015C000FEF7CBFB7B4904F03BF8039BA0B9DAF8AC
:1015D000003050469B6898471E90DAF8003050461D
:1015E000DB689847DAF80030ADF87C00DB685046DD
:1015F0009847ADF87E000CE01846FEF7AEFB6E494A
:1016000004F01EF828B9DAF8003050469B68984775
:1016100020900137C0E71422002112A803F0B6F988
:101620000DF1160A0AAB129307AB1393BAF8003008
:10163000ADF85030236820469B6898472B6EADF874
:10164000540000275B44083312AA1DA93846169798
:10165000FFF7F4F8BAF80030BBB12CABBAF80020B1
:101660000393974208DA2268394652692046904728
:10167000039BD8550137F1E72B6E9B4452462CABA8
:101680000021BBF80800FFF7A8FD09F101095FFA86
:1016900089F92CE02046FEF762FBB0F5245F26D1E5
:1016A00004B1043C271D3846FEF757FB414903F0BF
:1016B000C7FFE0B13846FEF750FB404903F0C0FFDA
:1016C000A8B13846FEF749FB3D4903F0B9FF70B1B8
:1016D0003846FEF742FB384903F0B2FF38B1D6E096
:1016E0002CAB52460021BDF81400FFF776FD013601
:1016F0003EE6019B23B3A3F102085FFA88F60024BB
:1017000042F60307B442B0461CDA799B53F82480B2
:101710004046FEF724FBB0F5205F05D195F8643014
:10172000013385F8643009E04046FEF718FBB84203
:1017300002BF95F86D30013385F86D300134E1E773
:10174000DDF8048095F8640000EB4000800003F0B1
:10175000F3F8A86695F86D00000103F0EDF8DDF8E8
:10176000E4912867002609EB88083746B246C14550
:1017700079D059F8044B2046FEF7EFFA01462CA821
:10178000FFF704F82CA8FFF731F883462CA8FFF7E1
:101790002FF8022816D19BF801209BF8003043EA6D
:1017A0000223ADF85C3001238DF85E3029E000BFE4
:1017B000607B0200C47C0200C97C0200CE7C020077
:1017C000D37C02005B460DF1740E0BF1100C18680F
:1017D0005968724603C2083363459646F7D19BF8B1
:1017E0000D209BF80C3043EA0223ADF85C300DF17C
:1017F0005E0100231DA88DF881308DF88030FFF741
:101800002DF82046FEF7ABFAB0F5205F10D1AA6E96
:1018100007EB47018B00D01842F82140179A42602D
:10182000AA6E1344013700229A60FFB2A2469EE7D7
:101830002046FEF794FA42F60303984297D1296FA7
:101840003301CA1804B1043CCC50C2F804A0179963
:1018500091602A6F1A44002111732A6F13440136D4
:10186000D981F6B283E7E86818B1FEF787FA002855
:1018700065D12B6828469B6998476DB0BDE8F08F0D
:1018800005AA0AA90120FEF7D7FF02942FE72368D3
:101890002046DB68984712AF14220021ADF81C00E7
:1018A0001DA803F073F84FF0010A00233B806AF390
:1018B0004203BB7023682046DB689847BDF81C10C4
:1018C000BB78EA6880B2401A18BF012060F30003B9
:1018D000BB703B782AB16AF30303022262F3071359
:1018E00003E06AF303036AF307133B700AAB1E9726
:1018F0001D932368ADF87C10DB68204698470027CD
:101900000DF11C0AADF8800005AA1DA938462197E3
:10191000FEF796FFBAF80030002B3FF4E8AE0DF169
:10192000B00BBAF800309F42BFF6DAAE23683946F2
:101930001B69204698470BF807000137F1E71C2385
:10194000002205F13C01E868FEF73AFA91E700BF92
:101950002DE9F04F87B004460D46002601274FF0D1
:1019600014090DF1060894F85D309E4252DA09FB25
:1019700006F3226E02EB030AD358AB4248D1636BE5
:101980009D4204D1236829465B6A204698472B680C
:1019900028461B6998472B68ADF80600DB68BAF843
:1019A00008B0284698474246034600215846FFF7AC
:1019B00014FC1022002102A802F0E8FFBAF8083057
:1019C000ADF808309AF81030CDF8108073B194F863
:1019D0005C3053B1013B84F85C3002A90123208FB5
:1019E0008DF80A30FEF730FF00E01F469AF81130FC
:1019F00073B194F85C3053B1013B84F85C3002A9B8
:101A00000223208F8DF80A30FEF71EFF00E01F46EC
:101A10000136A8E7384607B0BDE8F08F10B5044698
:101A2000FEF7C0FA0F4B236000214FF6FF7304F15D
:101A30003C0084F833106163238784F85C1084F8D9
:101A40005D10216684F86410A16684F86C1084F837
:101A50006D10216784F87410A0651C2202F096FFB7
:101A6000204610BD687C02002DE9F84380460D46F3
:101A7000174601EB02090C464C45A4EB050609D0BC
:101A8000D8F8003014F8011B1B684046984700281E
:101A9000F2D100E03E463046BDE8F8837047203082
:101AA00001F000BF38B5437F0D462BB100F168044B
:101AB000204601F005FF08B1002038BD2046294628
:101AC00001F0D3FE012038BD203001F0DDBE203012
:101AD00001F0EEBE2DE9F0411E464FF47A73002569
:101AE0008360104B4560044640F8203B174688460B
:101AF00001F0B0FE04F1680001F0ACFE0A4B9DF865
:101B00001820C4F8108053F8222062769DF81C201B
:101B1000676153F82230A376267665772046BDE8C4
:101B2000F08100BFE07C0200887D0200837E4FF0E0
:101B3000A04203F5E07330B5012140F20C64C17698
:101B400042F82340437E03F5E07342F823400369E3
:101B50004FF0CC72C3F824250622C3F80025827EFC
:101B6000C3F80825427EC3F80C25027E53B2D2B2D8
:101B700002F01F055C09A94060340F4D002B45F8A9
:101B8000241006DA0D4B02F00F02134440221A769D
:101B900006E003F1604303F56143402283F800232C
:101BA000037E01215AB203F01F0301FA03F3520925
:101BB000014941F8223030BD00E100E0FCEC00E0DA
:101BC0002DE9F8430646894698461546B2B100F11C
:101BD0002007384601F054FE34690122C4F8889584
:101BE0002262C4F83475C4F838552260D4F84C31F8
:101BF0003BB9D4F82431002BF8D002E01046BDE800
:101C0000F8830023C4F84C31D4F85C311BB9D4F804
:101C10002431002BF8D00023C4F85C310122B8F144
:101C2000000F02D1D4F8243143B16261D4F80431F9
:101C3000002BFBD00023C4F8043107E0E261D4F8A4
:101C40004831002BFBD00023C4F84831D4F82431AC
:101C500013B10023C4F82431D4F83C053066C0B277
:101C6000BDE8F8830123FFF7ABBF10B5044680F849
:101C7000B010683001F004FE0123637710BDF8B5A1
:101C8000056900234377044690F8B030C5F88835DD
:101C9000012668302E62C5F844050F4601F002FEA9
:101CA0002369C5F848059E60D3F850211AB9D3F8C6
:101CB0002421002AF8D00022C3F85021D3F8602153
:101CC0001AB9D3F82421002AF8D00022C3F86021E1
:101CD000012217B9D3F8241141B15A61D3F8042174
:101CE000002AFBD00022C3F8042107E0DA61D3F810
:101CF0004821002AFBD00022C3F84821D3F8240150
:101D000068B10022C3F82421D3F8C404C3F8C40482
:101D1000022804D0042814BF04200320F8BDF8BD15
:101D20000121FFF7ACBF4369D3F8642170B50446C5
:101D300082B10022012500F12006C3F86421057755
:101D4000304601F09DFD63694022C3F83465C3F855
:101D500038251D636369D3F86821D2B10025C3F823
:101D6000685104F16806012363772577304601F056
:101D700087FDD4F8B43003B198476577656930467C
:101D8000C5F8446501F08EFD6369C5F84805012278
:101D90005A636369D3F804215AB10022C3F80421BD
:101DA000227F32B1D3F83C05D4F8B830206603B1B5
