:020000021000EC
:10C000000000012069C6010091C6010093C601002D
:10C0100095C6010097C6010099C601000000000006
:10C020000000000000000000000000009BC60100AE
:10C030009DC60100000000009FC60100A1C60100CE
:10C04000A3C60100A3C60100C1CD0100A3C6010023
:10C05000A3C60100A3C60100A3C60100A3C6010038
:10C06000A3C60100A3C60100A3C60100A3C6010028
:10C07000A3C60100A3C60100A3C60100A3C6010018
:10C08000A3C60100F1C60100A3C60100A3C60100BA
:10C09000A3C60100A3C60100A3C60100A3C60100F8
:10C0A000A3C60100A3C60100A3C60100A3C60100E8
:10C0B000A3C60100A3C601000000000000000000AC
:10C0C000A3C60100A3C60100A3C60100A3C60100C8
:10C0D000A3C60100A3C60100A3C601000000000022
:10C0E0000000000000000000000000000000000050
:10C0F0000000000000000000000000000000000040
:10C10000000000000000000000000000000000002F
:10C11000000000000000000000000000000000001F
:10C40000044B05481B1A062B02D9044B03B11847ED
:10C41000704700BFFF200020FC200020000000002B
:10C4200005490648091A891001EBD171491002D05B
:10C43000034B03B118477047FC200020FC2000206C
:10C440000000000010B5064C237843B9FFF7D8FF71
:10C45000044B13B10448AFF300800123237010BDD7
:10C46000FC2000200000000068D0010008B5084B47
:10C470001BB108490848AFF300800848036813B9A6
:10C48000BDE80840CCE7064B002BF9D09847F7E70A
:10C49000000000000021002068D00100F8200020EA
:10C4A00000000000154B002B08BF134B9D46A3F561
:10C4B000803A00218B460F461348144A121A00F0A6
:10C4C00039FD0F4B002B00D098470E4B002B00D0AE
:10C4D00098470020002104000D000D48002802D0DC
:10C4E0000C48AFF3008000F0FFFC2000290000F0B2
:10C4F0007FFC00F0E5FC00BF000008000000012008
:10C500000000000000000000FC200020842100202A
:10C51000000000000000000070B5022000F0FEF8EE
:10C52000434C44490546204600F0B4FA2946424DA2
:10C530000A22204600F001FB2946204600F0AAFA14
:10C54000032000F0EBF83D490646204600F0A2FA31
:10C550000A223146204600F0EEFA2946204600F035
:10C5600099FA042000F0DAF835490646204600F032
:10C5700091FA0A223146204600F0DDFA294620468B
:10C5800000F088FA052000F0C9F82E49064620463A
:10C5900000F080FA0A223146204600F0CCFA294603
:10C5A000204600F077FA1C2000F0B8F8264906462D
:10C5B000204600F06FFA0A223146204600F0BBFA0E
:10C5C0002946204600F066FA1D2000F0A7F81F4912
:10C5D0000646204600F05EFA0A223146204600F068
:10C5E000AAFA2946204600F055FA1E2000F096F8D7
:10C5F00017490646204600F04DFA0A2231462046E9
:10C6000000F099FA2946204600F044FA1F2000F075
:10C6100085F810490546204600F03CFA2946204698
:10C620000A2200F08AFA0A20BDE8704000F052B8F1
:10C630002021002070CF010075CF010077CF0100CD
:10C640007CCF010081CF010086CF01008BCF01009C
:10C6500090CF010095CF01004FF41651014800F032
:10C6600078BA00BF202100200649074A074B9B1AD1
:10C6700003DD043BC858D050FBDC00F02DF9FFF778
:10C6800011FF000074D0010080200020FC20002059
:10C69000FEE7FEE7FEE7FEE7FEE7FEE7FEE7FEE772
:10C6A000FEE7FEE7094B1968094B30B5D3F80405DE
:10C6B0000A060B0A02434FF47A71A2FB014501FB03
:10C6C0000355E00B40EA454030BD00BF1821002073
:10C6D0000010014038B5044648B1FFF7E3FF0546B6
:10C6E00000F01AF8FFF7DEFF401B8442F8D838BD8F
:10C6F000074B0022C3F8042182B0D3F80431054A65
:10C700000193019B13680133DBB2136002B07047E1
:10C710000010014018210020704700001F2837B585
:10C7200000F293804A4B53F82030052B19D007D8DC
:10C73000032B12D013D8022B40F08780012215E082
:10C740001D2B10D003D81C2B7FD105220EE01E2BF1
:10C750000BD01F2B79D1082208E0022206E0032229
:10C7600004E0042202E0062200E00722394B1968A7
:10C77000082908DD0A2909DD0D29B5BF0C240E247E
:10C780000223032304E00824002301E00A240123F8
:10C790003148C0F8F0350123C0F8003500200546C7
:10C7A000030103F1804303F5E04301300828C3F897
:10C7B0001455C3F81055F3D1284B1868284B1B6843
:10C7C00000021B0303F4805300F4E0601843224B83
:10C7D000C3F81805C3F81425C3F810250DF1060297
:10C7E000C3F82C260122C3F830261A60D3F80001C2
:10C7F000194A0028FAD00023C2F8003101235360FF
:10C80000D2F80401144B0028FAD00022C3F8042106
:10C8100001229A60D3F81421002AFBD00E4A00238B
:10C82000C2F81431BDF906209A420B4AB8BFADF8E0
:10C8300006308C42C2F80035BDF9060006D08BBF29
:10C84000611A091BC840884000E0002003B030BDD9
:10C850009CCF010084200020007000408020002038
:10C860001C2100200C4B1B78062B10D10B4B1B6896
:10C870001A070CD10A4B186800F0F003302B08D0CF
:10C8800000F0E000A0F140035842584170470020FA
:10C8900070470120704700BFE00F00F0E40F00F088
:10C8A000E80F00F0094B1B78062B0CD1084B1B68D6
:10C8B0001A0708D1074B186800F0F000A0F1300308
:10C8C0005842584170470020704700BFE00F00F009
:10C8D000E40F00F0E80F00F008B5FFF7E3FF10B138
:10C8E0004B4B4C4A1A60FFF7BDFF28B14A4B4B4AED
:10C8F0001B68C3F342331360FFF7D4FF20B1484AEB
:10C90000D36823F08073D360FFF7ACFF40B14FF0E2
:10C9100080430022C3F80C21C3F81021C3F8382546
:10C92000FFF7C0FF10B13F4B03221A60FFF7BAFFB9
:10C9300040B13D4B05221A6001229A6700229A609D
:10C940003F225A60394B1B78062B09D1384B1B68A4
:10C950001B0705D1374B1B6803F0F003502B0ED09B
:10C96000354AD2F8883043F47003C2F88830BFF3F8
:10C970004F8FBFF36F8F314B314A1A6008BD4FF0B4
:10C980008052304BD2F80414C3F82015D2F80814A2
:10C99000C3F82415D2F80C14C3F82815D2F81014D3
:10C9A000C3F82C15D2F81414C3F83015D2F81814A3
:10C9B000C3F83415D2F81C14C3F84015D2F820146B
:10C9C000C3F84415D2F82414C3F84815D2F8281433
:10C9D000C3F84C15D2F82C14C3F85015D2F8301403
:10C9E000C3F85415D2F83414C3F86015D2F83814CB
:10C9F000C3F86415D2F83C14C3F86815D2F8401493
:10CA0000C3F86C15D2F84424C3F87025A8E700BF1A
:10CA100074C007400DF0ADBA440200103C05004060
:10CA2000F0ED00E0A005004010560040E00F00F0DF
:10CA3000E40F00F0E80F00F000ED00E08820002097
:10CA40000090D00300C000402DE9F04106460D469D
:10CA500001EB02080C464445A4EB050707D03368F8
:10CA600014F8011B1B68304698470028F3D138465C
:10CA7000BDE8F08170B505460C46084649B100F0A6
:10CA800061FA2B680246214628465B68BDE8704083
:10CA9000184770BD08B5FFF7EDFF08BD03681B68B8
:10CAA0001847000008B50249FFF7E4FF08BD00BFC2
:10CAB0001CD00100F0B58BB000238DF82430012A82
:10CAC00098BF0A220DF12305B1FBF2F402FB141604
:10CAD000F3B2092E94BF30333733DBB22F462146F1
:10CAE00005F80139002CEFD13946FFF7C3FF0BB031
:10CAF000F0BD2DE9F04107460E4615462AB90368F8
:10CB0000C9B21B68BDE8F04118470A2A02D10029C2
:10CB100001DA04E0D2B2BDE8F041FFF7CBBF2D212E
:10CB2000FFF7BCFF2A46044671423846FFF7C2FFB2
:10CB30002044BDE8F081FFF7DCBF38B50546FFF7BC
:10CB4000D8FF04462846FFF7ADFF204438BD01203A
:10CB5000704703681322DB69184770470369C3F8FD
:10CB60001C15D3F81C21002AFBD00022C3F81C217D
:10CB70000120704790F85C305AB2520910B401217C
:10CB800020320F4C03F01F0301FA03F344F8223064
:10CB900003695DF8044B0422C3F80823002259609E
:10CBA000D960C3F800254FF0FF32C3F80C251430CC
:10CBB000C3F81425C3F80825C3F8102500F060B9A0
:10CBC00000E100E0143000F06DB9143000F070B9ED
:10CBD000143000F059B90000026990F85E3030B5A9
:10CBE000C2F80C3590F85D30C2F8143590F8613019
:10CBF000012B01BF90F85F40C2F8104590F86040EB
:10CC0000C2F8084518BF0023B1F5966FC2F86C351D
:10CC10002ED9B1F5166F2ED9B1F5965F2ED9B1F593
:10CC2000165F2DD9B1F5615F2CD9B1F5964F2BD98F
:10CC3000B1F5E14F2AD9B1F5164F29D9B1F5614FB8
:10CC400029D9B1F5963F29D9B1F5E13F28D9B1F5F8
:10CC5000613F28D9344B994228D9B1F5E12F28D921
:10CC6000B1F5612F8CBF4FF080534FF0706322E01D
:10CC70004FF49E231FE04FF41D231CE02B4B1AE0C2
:10CC80002B4B18E02B4B16E02B4B14E02B4B12E0F8
:10CC90004FF41D030FE04FF46B030CE0284B0AE048
:10CCA0004FF0EB7307E04FF06C7304E04FF08063DC
:10CCB00001E04FF0E863C2F8243500210423C2F8F4
:10CCC0000035C2F80811C2F81C11012111609160F1
:10CCD000C2F8043390F85C2053B2D2B202F01F05C0
:10CCE0005C09A9406034174D002B45F8241006DA82
:10CCF000154B02F00F02134460221A7606E003F18E
:10CD0000604303F56143602283F8002390F85C30B0
:10CD100001215AB203F01F0301FA03F35209094932
:10CD200041F8223030BD00BF90D0030000B01300A6
:10CD30000050270000F03A0000A04E0000C075002F
:10CD400000903A0100E100E0FCEC00E02DE9F04148
:10CD50001E464FF47A73002583600E4B45600446EF
:10CD600040F8143B1746884600F074F80A4AC4F8A5
:10CD7000108052F8263084F85D309DF8183084F821
:10CD80005C7052F8233084F85E3084F8615020469D
:10CD9000BDE8F08138D001009CCF01000369D3F8D1
:10CDA000082110B504464AB1D3F818151430C9B299
:10CDB00000F05BF823690022C3F8082110BD0000D1
:10CDC0000148FFF7EBBF00BF2021002007B50D236E
:10CDD000009302220E2303490348FFF7B7FF03B075
:10CDE0005DF804FB00200040202100207047000077
:10CDF00008B500F011F8FFF7F9FF0120FFF76AFC12
:10CE0000FFF72AFC034CFFF787FB002CFBD0AFF3A6
:10CE10000080F8E7000000000D4BE02283F81123AA
:10CE20004FF40032C3F880211A604FF08043012292
:10CE3000C3F818259A6003F588330021C3F8081554
:10CE40000221C3F80413C3F844131A60704700BFEB
:10CE500000E100E010B540220446002100F06AF82D
:10CE6000002323646364204610BD026C10B5531C7C
:10CE7000446C03F03F039C421CBF8154036410BD0B
:10CE80000023036443647047436C026C93421FBFEA
:10CE9000C25C013303F03F03436414BF10464FF0FC
:10CEA000FF307047036C406C181A48BF4030704721
:10CEB000436C026C934214BFC05C4FF0FF3070476C
:10CEC00008B5074B044613B10021AFF30080054BB2
:10CED0001868836A03B19847204600F03BF800BF0A
:10CEE0000000000064D0010070B50E4B0E4CE41A37
:10CEF000A41000251E46A54204D056F825309847B8
:10CF00000135F8E700F028F8084C094BE41AA410A2
:10CF100000251E46A54204D056F825309847013515
:10CF2000F8E770BDEC200020EC200020F420002069
:10CF3000EC20002002440346934202D003F8011B78
:10CF4000FAE77047034613F8012B002AFBD1181AA1
:10CF500001387047FEE700BFF8B500BFF8BC08BC59
:10CF60009E467047F8B500BFF8BC08BC9E467047A7
:10CF700041303A2000090041313A200041323A2044
:10CF80000041333A200041343A200041353A200034
:10CF900041363A200041373A2000000000000000EE
:10CFA0000100000002000000030000000400000077
:10CFB0000500000006000000070000000800000057
:10CFC000090000000A0000000B0000000C00000037
:10CFD0000D0000000E0000000F0000001000000017
:10CFE00011000000120000001300000014000000F7
:10CFF00015000000160000001700000018000000D7
:10D00000190000001A0000001B0000001C000000B6
:10D010001D0000001E0000001F0000000D0A006E31
:10D02000616E00696E66006F7666002E000000007B
:10D0300000000000000000005DCB010049CA0100B3
:10D04000C5CB0100D1CB0100CBCB01005BCB0100F4
:10D0500053CB0100D9CB010075CB01004FCB0100B0
:0CD06000430000008C20002000000000B5
:08D06C0038F4FF7F0100000011
:10D07400010000000A0000000090D003000000003E
:10D08400000000000000000000000000000000009C
:10D0940000000000000000000000000060D001005B
:10D0A400000000000000000000000000000000007C
:10D0B400000000000000000000000000000000006C
:10D0C400000000000000000000000000000000005C
:10D0D4000000000000000000000000006DC401001A
:0CD0E400CDCD010045C40100000000009B
:040000031000C669BA
:00000001FF
