:020000021000EC
:10C000000000012051E5010079E501007BE5010018
:10C010007DE501007FE5010081E5010000000000F1
:10C0200000000000000000000000000083E50100A7
:10C0300085E501000000000087E5010089E50100B9
:10C040008BE501008BE5010089EA01008BE5010029
:10C050008BE501008BE501008BE501008BE501001C
:10C060008BE501008BE501008BE501008BE501000C
:10C070008BE501008BE501008BE501008BE50100FC
:10C080008BE50100D9E501008BE501008BE501009E
:10C090008BE501008BE501008BE501008BE50100DC
:10C0A0008BE501008BE501008BE501008BE50100CC
:10C0B0008BE501008BE5010000000000000000009E
:10C0C0008BE501008BE501008BE501008BE50100AC
:10C0D0008BE501008BE501008BE50100000000000D
:10C0E0000000000000000000000000000000000050
:10C0F0000000000000000000000000000000000040
:10C10000000000000000000000000000000000002F
:10C11000000000000000000000000000000000001F
:10C40000044B05481B1A062B02D9044B03B11847ED
:10C41000704700BF432100204021002000000000A1
:10C4200005490648091A891001EBD171491002D05B
:10C43000034B03B1184770474021002040210020E2
:10C440000000000010B5064C237843B9FFF7D8FF71
:10C45000044B13B10448AFF300800123237010BDD7
:10C4600040210020000000002C27020008B5084BE6
:10C470001BB108490848AFF300800848036813B9A6
:10C48000BDE80840CCE7064B002BF9D09847F7E70A
:10C4900000000000442100202C2702003C21002045
:10C4A00000000000154B002B08BF134B9D46A3F561
:10C4B000803A00218B460F461348144A121A03F0A3
:10C4C00005F90F4B002B00D098470E4B002B00D0E6
:10C4D00098470020002104000D000D48002802D0DC
:10C4E0000C48AFF3008003F0A1F82000290002F00F
:10C4F000E3FA03F075F800BF000008000000012017
:10C50000000000000000000040210020582400200E
:10C51000000000000000000010B5044600F030FCF0
:10C52000D4F89031D4F8940114331B1A1422B3FBBD
:10C53000F2F002FB103010BDA0F5BE70FFF7ECBFAB
:10C5400010B5044600F01CFCD4F89401D4F89031E6
:10C5500098421FBF01301422B0FBF2F302FB13001C
:10C560001ABF001990F898014FF0FF3010BDA0F5E8
:10C57000BE70FFF7E5BF10B5044600F001FCD4F82B
:10C580009401D4F8903198421FBF421C1420B2FB92
:10C59000F0F300FB13201DBFC4F89401001990F8BC
:10C5A00098014FF0FF3010BDA0F5BE70FFF7E3BF5C
:10C5B00000F00EBC38B504460D4600F0E1FB04F572
:10C5C000087000F0A3FA70B1D4F8AC315A1C2344BF
:10C5D000142AC4F8AC2183F8B05103D12368204653
:10C5E000DB6E9847012038BDA0F5BE70FFF7E2BFB3
:10C5F0002DE9F041044600F061FD4FF47A73C4F870
:10C600008431374B374F384903F10802226003F178
:10C610008802002504F5E276626003F1A002C833C7
:10C62000C4F87C31A260C4F88051304600F010FE9E
:10C6300004F5F27839462D4A04F5E67000F08CFADC
:10C64000142304222A49404600F03AFA3946294A7E
:10C6500004F5027000F080FA14231022264904F534
:10C66000087000F02DFA254A394604F5117000F0E3
:10C6700073FA234BC4F8AC5131462046C4F89451A8
:10C68000C4F89051C4F88C511C6000F0D0FC04F543
:10C69000E871204600F0CBFC304600F066F9014618
:10C6A000204600F075FB04F5F471204600F0BFFC55
:10C6B00004F50371204600F0BAFC124A29464046B0
:10C6C00000F033FA04F50971204600F0B0FC204672
:10C6D00004F5127100F0ABFC2046BDE8F08100BF0C
:10C6E000E41F02005E1F0200341F0200591F0200F7
:10C6F000631F0200881F0200A21F0200C71F020062
:10C700005C2100206DC701000FB408B5029800F04D
:10C7100086FBBDE8084004B0704710B5044601F040
:10C7200035FFD4F88C316433984204D22046BDE8FA
:10C73000104000F025BB23682046DB6EBDE81040AA
:10C74000184730B50A44142591420ED0D0F89031E4
:10C750005C1CB4FBF5F305FB1343C0F890310344B4
:10C7600011F8014B83F89841EEE730BD094B70B5E5
:10C770001D680B680C460846DB6898472368064628
:10C780001B6920469847314602462846BDE870405E
:10C79000FFF7D7BF5C210020D0F8AC2110B50446CC
:10C7A00092B100F5D871D2B200F5087000F073F9BB
:10C7B00001F0ECFE0023C4F88C01C4F8AC31204633
:10C7C000BDE8104000F0DCBA10BDA0F5BE70FFF768
:10C7D000E3BF0000134B03F1080210B5026003F140
:10C7E0008802426003F1A002C83304468260C0F8A8
:10C7F0007C3100F5117000F0A0F904F5087000F02C
:10C8000035F904F5027000F098F904F5F27000F0C3
:10C810002DF904F5E67000F090F9204600F00AFCCE
:10C82000204610BDE41F020010B50446FFF7D2FFFA
:10C83000204602F055F9204610BD77DF70473BDFF8
:10C84000704748DF7047000010B5074C02220A21EC
:10C8500020460923FFF7CCFE2046044A0449BDE8E0
:10C86000104002F08BBE00BF60210020802000201D
:10C87000D5C7010010B5094C0949204600F08BFAD4
:10C880004FF4E131074801F0C7FF2046FFF73CFFB6
:10C890006FF00300BDE81040FFF7CFBF602100201C
:10C8A000591F0200E423002008B5054801F0F4FFF9
:10C8B000011E04DDC9B20348FFF77CFEF5E708BDA1
:10C8C000E42300206021002008B50648FFF725FF7B
:10C8D00020BFFFF7E9FF0120FFF7B1FFBDE80840E7
:10C8E000FFF7AFBF6021002038B50025057329B9D7
:10C8F0000B4B0C4A0C48232102F046FE01600B4909
:10C9000051F82220027151F8233083719DF81030C4
:10C9100051F8233043710223C371856038BD00BFD5
:10C9200001210200C42002000F2102007C2302002A
:10C9300007B5094B09490A484FF080421A600022A6
:10C940009A6002221A711323009314221223FFF714
:10C95000CBFF03B05DF804FBBC2300200030004097
:10C96000C82300200160828070470068704780887B
:10C97000704729DF704728DF704703681868013067
:10C9800018BF0120704708B54FF080531A6903683B
:10C99000B3FBF2F31846FFF7EEFF1128FAD008BDFB
:10C9A00038B504460D461946FFF7EDFF8B081A46C9
:10C9B00029462068FFF7DDFF1128F8D038BD10B5F3
:10C9C00002680846043A441AA34204D952F8044FB4
:10C9D00040F8044BF7E710BD07B50023062269466F
:10C9E00004300093ADF8043002F056FE003018BF5A
:10C9F000012003B05DF804FB0B6843608B88038162
:10CA00007047002343600381704708B50160FFF75A
:10CA1000F8FF08BD807A7047C0687047007C704797
:10CA200000207047C368585C704770B50D461146CA
:10CA300002680446D6691A46B0470123A374A36965
:10CA400023B121462846BDE87040184770BD70B537
:10CA5000044608460D4603F095FC2368C2B22946F9
:10CA60002046DB69BDE8704018470000044B10B554
:10CA700004460360C06808B102F006FE204610BDFF
:10CA80008021020010B50446FFF7F0FF204602F0B7
:10CA900027F8204610BD10B5837A9A42044628BF75
:10CAA0001A460274C06802F006FE606928B1036885
:10CAB00021461B68BDE810401847012010BD00004A
:10CAC00070B504461D461646043042F6030200F0D7
:10CAD00091F8142D4FF0000228460A4B236028BF1E
:10CAE0001420A072E26022746674A274E27462611F
:10CAF000A261E261226215B102F0BEFDE060204653
:10CB000070BD00BF80210200407C7047C07C704730
:10CB10000346002ADA7414BF07220822084653F895
:10CB200022200AB11946104770470B299CBF0631D5
:10CB300040F8212070474161704770470069704795
:10CB4000007D70470369585C704710B5044601F0DA
:10CB5000C7FF204610BD000038B504461546043016
:10CB60004FF4245200F046F8044B23602561284618
:10CB700003F008FC2075204638BD00BFB02102003C
:10CB8000704770477047002070477047704700201B
:10CB90007047002070470020704700207047002039
:10CBA0007047002070470020704700207047002029
:10CBB0007047002070470020704700207047704782
:10CBC00070477047704710B5044601F089FF204652
:10CBD00010BD0000054A026064228280012100220B
:10CBE000C28002818172C26002617047CC21020062
:10CBF0000161704710B50446FFF7B4FE024A13788E
:10CC000001331370204610BDDC230020014B18783F
:10CC1000704700BFDC230020C06803681B6A184708
:10CC2000A0F10400FFF7F8BFC06803685B6A18470B
:10CC3000A0F10400FFF7F8BFC06803689B6A1847BB
:10CC4000A0F10400FFF7F8BFC0680368DB6A18476B
:10CC5000A0F10400FFF7F8BFC06803681B6B18471A
:10CC6000A0F10800FFF7F8BFC06803685B6B1847C6
:10CC7000A0F10800FFF7F8BFC06803689B6B184776
:10CC8000A0F10800FFF7F8BFC06810B40468E46BB7
:10CC9000A4465DF8044B6047A0F10800FFF7F4BF1D
:10CCA000C06803681B6C1847A0F10800FFF7F8BFC5
:10CCB000C06803685B6C1847A0F10800FFF7F8BF75
:10CCC000C06803689B6C1847A0F10800FFF7F8BF25
:10CCD000C0680368DB6C1847A0F10800FFF7F8BFD5
:10CCE000D0F8743113B100F5B07018477047D0F820
:10CCF000783113B100F5B0701847704730B414465E
:10CD00001A4623685D6A9DF8083000F5B071AC469C
:10CD1000204630BC60477047704770B5054600F547
:10CD2000B07411462046FFF767FED5F86C311BB191
:10CD30002046BDE87040184770BDD0F8703110B57E
:10CD400000F5B0740BB1204698472046BDE810406E
:10CD5000FFF757BE10B4144600F5B0711A462046CE
:10CD60005DF8044BFFF7D4BE10B4144600F5B07163
:10CD70001A4620469DF804305DF8044B00F04ABA8C
:10CD8000C0680368DB681847C06803681B691847F8
:10CD9000C0F88C107047C0F89C10704738B5D0F8B8
:10CDA000A83004460D463BB900F010FA00B28000EE
:10CDB00002F062FCC4F8A80094F8AC20D4F8A830C3
:10CDC00043F8225094F8AC30013384F8AC3038BDCD
:10CDD00010B50446FFF7D4FF04F5B070BDE810406D
:10CDE000FFF7FABD10B50446FFF710FF00B2800050
:10CDF00002F042FC04F1B003036004F1BC034360A1
:10CE000004F1E003836004F58073C36004F5867366
:10CE10000361052384F8A430C4F8A00010BD2DE9F7
:10CE2000F043D0F89010ADB0002304468DF83030B8
:10CE3000E1B106A800F014FA06A800F043FA0228AF
:10CE400005468CBF152314238DF8500006A88DF8D5
:10CE5000513000F035FA2A460146C5F11A050DF1A8
:10CE6000520002F028FCEDB2012601E01C250E461E
:10CE7000D4F88C1031B306A800F0F2F906A800F03F
:10CE800021FA431CAB4207461CDAC6EB46182CAB12
:10CE9000434402288CBF0622022203F8600C03F8E8
:10CEA0005F2C06A800F00CFA2CAB984401463A46D9
:10CEB000A8F15E00023D02F0FEFB0136ED1BF6B26A
:10CEC00005F0FF05D4F89410C9B194F89820B2B1D8
:10CED000022D14D9531CAB42C6EB46102CAB0344B5
:10CEE000A4BF023DEAB2FF2503F8602C03F85F5CA3
:10CEF0002CAB18445E3802F0DEFB0136F6B2D4F8F3
:10CF00009C50BDB1284603F03DFAC0B21D288ABF2F
:10CF10001D238DF830008DF830309DF83020904280
:10CF20008CBF082009208DF8310029460DF1320010
:10CF300002F0C1FBD4F8A03013B92046FFF752FF2E
:10CF4000002742F6030804F1040994F8A4309F4234
:10CF500005DB002742F6030804F108091BE0D4F8BA
:10CF6000A03053F827502846FFF701FD404506D171
:10CF70000DB1281F00E028464946FFF7DCFD0137C8
:10CF8000E3E7D4F8A83053F827502846FFF7EFFC22
:10CF9000404505D0013794F8AC309F42F1DB07E003
:10CFA0000DB1281F00E02846494600F047F9F1E797
:10CFB0004BB104F596712046FFF7F0FE04F59C7125
:10CFC0002046FFF7EBFEE06894F8AC10026804918D
:10CFD000D4F8A810039194F8A41002919DF8303071
:10CFE000D4F8A01001910CA90033009118BF0123BF
:10CFF0009568314614AAA847E06803681B6D9847F6
:10D000002DB0BDE8F08338B5D0F8A03004460D4609
:10D010000BB9FFF7E7FE94F8A420D4F8A03043F84A
:10D02000225094F8A430013384F8A43038BDFFF7BF
:10D03000EABF0000154B10B503F168020360044617
:10D04000803342608360FFF79FFED4F8A80008B1E8
:10D0500002F01AFBD4F8A00008B102F015FB04F5A9
:10D060009A7000F0B9F804F58470FFF7FFFC04F142
:10D07000DC00FFF7FBFC04F1B800FFF7F7FC04F15C
:10D08000100000F001FE204610BD00BF5422020037
:10D0900010B50446FFF7CEFF204601F021FD2046E3
:10D0A00010BD07B502AB022223F8021DDC30194681
:10D0B000FFF7F1FC03B05DF804FB00002DE9F84335
:10D0C000354BDFF8E890DFF8E88003F1080204460A
:10D0D000026000F1100703F17002883300254260FE
:10D0E0008360384601F00CFA04F1B806C4F88C509D
:10D0F000C4F89050C4F8945084F89850C4F89C50E8
:10D10000C4F8A05084F8A450C4F8A85084F8AC50D7
:10D11000224904F1B00000F09BF8132302222049B9
:10D120003046FFF7CDFC02231A461E4904F1DC000D
:10D13000FFF7C6FC494604F5807000F089F8042327
:10D140002022414604F58470FFF7BAFC494604F5F5
:10D15000967000F075F82022414604F59A7000F0B0
:10D1600043F8214604F5B070FFF74FFC1022294622
:10D17000E76004F5B67002F0A9FA0B493046FFF7F4
:10D1800066FC29462046FFF78CFFE0682146FFF742
:10D190002FFD2046BDE8F8834C2202002822020021
:10D1A0002D22020032220200412202003722020018
:10D1B0003C22020010B50446FFF7D4FB024A137864
:10D1C00001331370204610BDDD230020014B187879
:10D1D000704700BFDD230020704710B5044601F002
:10D1E0007FFC204610BD000038B5044615460430CB
:10D1F00042F60302FFF7DEFF054B23600023A57212
:10D20000E372A36284F822306362204638BD00BF17
:10D21000FC22020070B50446C3720D460C30114664
:10D220001A4602F048FA012384F82230A36A23B197
:10D2300021462846BDE87040184770BD41627047DE
:10D2400010B54FF420520446FFF7B4FF204610BD3E
:10D2500010B54FF420520446FFF7CCFC204610BD19
:10D26000F7B5044600232160037508460E468DF885
:10D2700004308DF805308DF8063003F083F8451E34
:10D28000002D1ADB277D0F2F17D8735D2D2B01D1B1
:10D29000013510E07219002112F8012C8DF80420DC
:10D2A00001A810228DF8053003F0F2F827443871F8
:10D2B000237D01332375023DE2E7204603B0F0BD34
:10D2C00004307047007D704771DF704772DF704730
:10D2D00073DF704775DF704776DF704777DF704721
:10D2E00078DF70477ADF70477CDF70477EDF7047FA
:10D2F0007FDF704786DF704790DF704792DF7047AF
:10D3000096DF704798DF704799DF7047A0DF70475E
:10D31000A2DF7047A3DF7047A4DF7047A6DF704726
:10D32000A9DF704760DF704761DF704762DF7047D9
:10D3300063DF704753DF704710DF704711DF7047BE
:10D3400090F86000003018BF0120704770B590F869
:10D3500071600023B34214DA1A01456FAC18AA5861
:10D360008A420CD1E38973B1227B02F0020202F0FF
:10D37000FF0342B190F8780080F0010070BD0133E6
:10D38000E8E7002070BD184670BD70B590F8716078
:10D390000023B3421ADA1A01456FAC18AA588A4220
:10D3A00012D1E189A1B1227B02F0020202F0FF0357
:10D3B00082B1012380F878300022808FFFF7A0FF30
:10D3C000B0FA80F0400970BD0133E2E7002070BD83
:10D3D000084670BD184670BD70B590F871600023A6
:10D3E000B3421CDA1A01456FAC18AA588A4214D10C
:10D3F000E389B3B1227B130704D590F8780080F05D
:10D40000010070BD02F0040202F0FF034AB190F87F
:10D410006000003018BF012070BD0133E0E700203C
:10D4200070BD184670BDF0B590F871E085B000246D
:10D4300074452FDA2501476F7E197D598D4227D11A
:10D44000F4894CB3357B15F00C0127D090F86010AF
:10D4500021B315F0080F14BF01250225ADF80A30DD
:10D460000139012380F860108DF8045080F878307D
:10D47000002501A9808F8DF80550ADF80640ADF864
:10D4800008500392FFF73EFFB0FA80F0400906E033
:10D490000134CDE7002002E0204600E0084605B058
:10D4A000F0BD70B590F871600023B34210DA1A0134
:10D4B000456FAC18AA588A4208D1E08948B1237B4D
:10D4C00013F0300F14BF0120002070BD0133ECE7D2
:10D4D000002070BD7FB590F871600023B3422EDA52
:10D4E0001A01456FAC18AA588A4226D1E28942B384
:10D4F000217B11F0300326D0012311F0100F14BF4F
:10D50000194602211A44ADF80210ADF80620002198
:10D5100002228DF80510ADF80810ADF80A2080F849
:10D5200078306A4401A9808F8DF804300392FFF7A8
:10D53000E9FEB0FA80F0400906E00133CEE70020B2
:10D5400002E0104600E0184604B070BD03681B6C92
:10D5500018477FB590F871600023B3422ADA1A01A8
:10D56000456FAC18AA588A4222D1E28922B3237BA4
:10D5700013F030034FF0000120D001231A44ADF81E
:10D5800006200222ADF802108DF80510ADF8081043
:10D59000ADF80A2080F878306A4401A9808F8DF8B0
:10D5A00004300392FFF7AEFEB0FA80F0400906E0C7
:10D5B0000133D2E7002002E0104600E0184604B034
:10D5C00070BD11F1270F08B514DB11F11D0F14DB2D
:10D5D00011F1130F14DB11F10F0F14DB11F10B0F0D
:10D5E00014DBCA1D15DBCB1C16DB0029D4BF0020C1
:10D5F000042013E06FF0270010E06FF01D000DE035
:10D600006FF013000AE06FF00F0007E06FF00B00FF
:10D6100004E06FF0070001E06FF00300FFF75EFE2B
:10D62000B0FA80F0400908BD1321808FFFF754BE87
:10D6300007B501466846FFF747FE086920B1036851
:10D640000DF10102DB69984703B05DF804FB0000AF
:10D6500013B5044602A8002340F8043DFFF76AFE14
:10D66000019801F013FC084B002201F075FC01F059
:10D6700035FF236933B11A6800EE100A126A214699
:10D680001846904702B010BD0000D03F704710B55B
:10D69000044686B018220021684602F017F8A37AE3
:10D6A00033B994F83430002B14BF0223032300E075
:10D6B00000238DF80030A38868460A221B0193FBE3
:10D6C000F2F3ADF81030FFF703FE06B010BD2DE900
:10D6D000F043054690F861008FB00C4600231426F5
:10D6E00083425DDA06FB03F2696E8F188A58A24204
:10D6F00007D12046FFF708FAC30751D57B6813B955
:10D700004EE00133ECE795F833600DF1180832462E
:10D7100005F11401404601F0CEFF236820461B6945
:10D72000984704300644F6B21F2E39D87868FFF7C0
:10D730001CF901466846FFF793FD236895F833709E
:10D740001B69204698470EAB1F44033007F8200C96
:10D7500095F833703B441622684603F81F2CFFF7F8
:10D76000AFFD0237038828F80730236895F8337037
:10D77000DB6820469847236881461B692046984706
:10D780000437474402464946384601F094FF0023D7
:10D790001A4631464046FFF799FDAC63012000E090
:10D7A00000200FB0BDE8F0832DE9F047D4B04FF46E
:10D7B0008E7304460DF10A010DA8ADF80A30FFF78B
:10D7C000B3FD0346002840F04482BDF83420302ADF
:10D7D00000F03C8111D8112A5CD004D8012A21D054
:10D7E000102A27D035E2142A00F0C780192A00F049
:10D7F000D080132A40F02D829BE0382A00F0DA8195
:10D8000006D8322A00F06481362A00F0BA8120E27C
:10D81000502A00F0D180522A00F01281392A40F0BB
:10D820001882ECE194F860209DF83C30134484F8B1
:10D8300060300EE2BDF83800A08705A9FFF776FD3D
:10D8400020699DF8143084F8603028B103680DF128
:10D850003D021B6821469847E288052A12D9238990
:10D86000B3F5486F0ED8ADF816300023ADF8183078
:10D8700005A94FF4C873A08FADF81420ADF81A3085
:10D88000FFF728FD94F86830002B00F0E2810022B9
:10D89000012109E14FF6FF72A28784F86000054676
:10D8A0004FF01409804694F861309D4216DA676E95
:10D8B00009FB05F6BB19B85983F8108083F811806D
:10D8C000FFF724F940B1206930B10368BA59D3F8A1
:10D8D00014A021460023D0470135E4E7206918B1A0
:10D8E000036821465B68984700230C20194694F88A
:10D8F0006820934202DB0023184605E0E26E00FB3D
:10D90000032201339160F2E794F87120934208DA20
:10D91000616F1A01114401330873616F0A44D081A9
:10D92000F2E7002384F87830236820469B69984703
:10D930008FE1E068002800F08681FFF71EF80028DC
:10D9400040F08181012303228DF80F3062F306132A
:10D950008DF80C3007238DF80D30102300218DF841
:10D960000E30E36D05938DF8101009910A910B911B
:10D970000691079105AB03AA68E1E16DBDF844206B
:10D98000488A904218BF1946A08F1A46FFF7B2FC8A
:10D990005FE19DF83C20002A40F05B81E06820B107
:10D9A0001C2304F14001FEF7FBFF2069002800F072
:10D9B000508103689B68E1E0BDF83A8006464FF06D
:10D9C000140994F861309E4280F24381616E09FB34
:10D9D00006F3CF183A8942450CD12069002800F09F
:10D9E000388103689DF8442000921D693A680DF162
:10D9F000460323E1BA89424520D19DF847009DF8AE
:10DA0000462042EA002295B202F001023A74C5F3C0
:10DA100040027A7415F00305C85818BF0125FFF7B6
:10DA200075F8A8420AD02069002800F01281036826
:10DA30003A685E6921462B46B0470AE10136C0E7E5
:10DA400002460146A08FFFF76BFC02E1BDF83A20C9
:10DA500072BBBDF840500DA913460C26AB421CDA30
:10DA600094F868700020B84214DAE26E91F810C0A1
:10DA700006FB002292F806E0F44509D1B1F80EC089
:10DA8000B2F804E0F44503D1D1F81200906001E04F
:10DA90000130E8E701330831E0E70DAB03EBC505E2
:10DAA0000022A989013189B2A08FFFF725FCD0E0BF
:10DAB00094F868200C20934280F2CB80E16E00FB4A
:10DAC00003110D8915B14D89002D4BD10133F2E7BA
:10DAD000BDF83A2094F87030002A36D1E66E03EB98
:10DAE000430306EB83030A259B6805930DAB9A89D4
:10DAF00005FB0235AB4223D0002194F871209142FE
:10DB000019DA626F94F8700002EB011200EB40002A
:10DB100056F82070506887420BD11F7C907A87425C
:10DB200007D11089DF89874201BF987C1073D88A9A
:10DB3000D0810131E1E7DA8AADF814200A33D9E760
:10DB400005A9A08FFFF7DAFB83E001330C2294F8DC
:10DB500068005A4383420CDAE16E11440D892DB1FD
:10DB60004D891DB184F870300831EAE701330C3279
:10DB7000F0E7206900286CD00368DB6821469847ED
:10DB800067E0BDF83A1084F8780040F2051291423F
:10DB900001D1E268CAB9BDF8401094F871000023C1
:10DBA000834256DA626F02EB0312D5898D423BD075
:10DBB0000133F5E7BDF83A1084F8780040F2051219
:10DBC000914246D1E268002A43D01A0E8DF81830EF
:10DBD00042F00102DBB28DF8172043F0010303226B
:10DBE00062F306138DF8143007238DF8153005A95C
:10DBF0001023A08F8DF81630FFF778FB29E09DF8F1
:10DC00004230BDF84050022B03D12946A08FFFF7C8
:10DC10007BFB94F8711000238B421ADA626F02EBDF
:10DC20000312D089A8420CD1206990B19DF844100C
:10DC30000368009112689D690DF146032146A847CB
:10DC400007E00133E8E700231A468521A08FFFF79C
:10DC50004FFB54B0BDE8F08710B50446FFF76EFBEC
:10DC6000606F08B101F010FDE06E08B101F00CFD2D
:10DC7000606E08B101F008FD002384F8613084F87B
:10DC8000683084F8713010BD10B5054B0360044650
:10DC9000FFF7E2FF2046FEF795FF204610BD00BFCC
:10DCA0001023020010B50446FFF7EEFF204600F0F7
:10DCB00017FF204610BD07B51288ADF80020ADF85B
:10DCC00002106A4601464FF6FF700193FFF724FBEE
:10DCD00003B05DF804FB00002DE9F04FEDB09A466B
:10DCE0009DF8E8310193A24B769E9DF8E0810546B0
:10DCF000186808900F4608A800211446FFF71CFB7F
:10DD00009C4B0993142200210DA801F0DFFC0A238B
:10DD100009A9ADF834300DA801238DF840308DF8F5
:10DD20003C30FFF7FFFA2822ADF82C205022ADF846
:10DD30002E204FF000094FF4C8720BA8ADF8322026
:10DD4000ADF83090FFF7CEFA4846FFF7C7FA6B758B
:10DD500006230222AB7503232A7585F833301FB3DF
:10DD600014B31444B9451FDA95F8330014F8023C93
:10DD70002A1801331375023014F8013C5375C0B2F0
:10DD800085F83300284414F8022C2146143001F0A1
:10DD900092FC14F8023C95F83320134485F8333094
:10DDA00009F101091F34DDE724AFBAF1000F20D0DB
:10DDB0000EB34FF0000902364B46D1451CDA16F877
:10DDC00002BC16F8011C0BF10102FA549C1CFA1853
:10DDD000E4B2517038195A46314601F06CFC5C448B
:10DDE0004FF00102E3B285F8342009F101091F3632
:10DDF000E3E7534600E033463A4695F8331005F121
:10DE00001400FFF763FA0020FFF76AFA002442F6D5
:10DE1000030644450DDA779B53F82400FEF7A7FD6F
:10DE2000B04202BF95F86130013385F861300134AA
:10DE3000EFE795F861000338C0B285F8610000EBA8
:10DE40008000800001F018FC00266866ADF81460C0
:10DE50000296B146464580F2BE81779B53F8264034
:10DE60002046FEF782FD014617A8FFF7F9F917A82B
:10DE7000FFF726FA074617A8FFF724FA022809D168
:10DE80007A783B7843EA0223ADF8283001238DF8F5
:10DE90002A301CE03B460DF1B00E07F1100C18685B
:10DEA0005968724603C2083363459646F7D17A7BB8
:10DEB0003B7B43EA0223ADF828300DF12A01002311
:10DEC0002CA88DF8BD308DF8BC30FFF731FA204614
:10DED000FEF74DFDB0F5205F204611D1FEF745FD60
:10DEE000254902F045FA002800F073812046FEF72C
:10DEF0003CFD224902F03CFA002800F06A8131E240
:10DF0000FEF735FD42F60303984240F0358104B137
:10DF1000043C271D3846FEF728FD194902F028FA6F
:10DF2000B8B99DF8B030012262F3030362F307131E
:10DF30008DF8B03023682046DB6898472368074691
:10DF40001B6920469847394682B22CA8FFF7CCF9C6
:10DF50003FE13846FEF709FD0A4902F009FA98B98F
:10DF600023682046DB6898470088FFF7B9F930E15D
:10DF70000423020080200020282202003722020011
:10DF80002D220200322202003846FEF7EEFCC14983
:10DF900002F0EEF9002800F01C812046FEF7B4FDE7
:10DFA000236882461B69204698476A6EADF81600C2
:10DFB00009EB89014FEA810B02EB0B0342F8214088
:10DFC0000027029A5A601F745F741C2239461DA8EC
:10DFD00001F07CFB2AF001031AF0300F8DF8743049
:10DFE00010D00123194663F307118DF81810194654
:10DFF00006AA63F3071163F342078DF819108DF831
:10E000001A70229200231AF0320FADF81C308DF8EE
:10E010001E300BD09DF81C30E968012262F3030327
:10E0200001B1022262F307138DF81C301AF00C0FB5
:10E0300010D0EB6801222BB19DF81D3062F3030371
:10E04000022203E09DF81D3062F3030362F307131D
:10E050008DF81D309DF81E30012262F342038DF8C9
:10E060001E30236820469B6998479DF81E3080F03B
:10E07000010060F300038DF81E30771C47453CDA41
:10E08000779B53F827A05046FEF771FCB0F5245F4C
:10E0900033D1BAF1000F01D0AAF1040A0AF1040346
:10E0A00018460393FEF761FC7B4902F061F9039B7C
:10E0B000A0B9DAF8003050469B6898471E90DAF80D
:10E0C00000305046DB689847DAF80030ADF87C0045
:10E0D000DB6850469847ADF87E000CE01846FEF726
:10E0E00044FC6E4902F044F928B9DAF80030504691
:10E0F0009B68984720900137C0E71422002112A89E
:10E1000001F0E4FA0DF1160A0AAB129307AB139370
:10E11000BAF80030ADF85030236820469B68984725
:10E120006B6EADF8540000275B44083312AA1DA99A
:10E1300038461697FFF7ECF8BAF80030BBB12CABB5
:10E14000BAF800200393974208DA226839465269E8
:10E1500020469047039BD8550137F1E76B6E9B44EF
:10E1600052462CAB0021BBF80800FFF7A4FD09F1D3
:10E1700001095FFA89F92CE02046FEF7F8FBB0F5BB
:10E18000245F26D104B1043C271D3846FEF7EDFB81
:10E19000414902F0EDF8E0B13846FEF7E6FB4049B0
:10E1A00002F0E6F8A8B13846FEF7DFFB3D4902F081
:10E1B000DFF870B13846FEF7D8FB384902F0D8F8DE
:10E1C00038B1D6E02CAB52460021BDF81400FFF761
:10E1D00072FD01363EE6019B23B3A3F102085FFA0C
:10E1E00088F6002442F60307B442B0461CDA799B55
:10E1F00053F824804046FEF7BAFBB0F5205F05D106
:10E2000095F86830013385F8683009E04046FEF73C
:10E21000AEFBB84202BF95F87130013385F871301A
:10E220000134E1E7DDF8048095F8680000EB400078
:10E23000800001F021FAE86695F87100000101F014
:10E240001BFADDF8E4916867002609EB8808374679
:10E25000B246C14579D059F8044B2046FEF785FBFC
:10E2600001462CA8FEF7FCFF2CA8FFF729F88346EF
:10E270002CA8FFF727F8022816D19BF801209BF85D
:10E28000003043EA0223ADF85C3001238DF85E30A4
:10E2900029E000BF3C2202005E1F02006C23020046
:10E2A00071230200762302005B460DF1740E0BF120
:10E2B000100C18685968724603C2083363459646C5
:10E2C000F7D19BF80D209BF80C3043EA0223ADF800
:10E2D0005C300DF15E0100231DA88DF881308DF8B2
:10E2E0008030FFF725F82046FEF741FBB0F5205FB0
:10E2F00010D1EA6E07EB47018B00D01842F821409D
:10E30000179A4260EA6E1344013700229A60FFB206
:10E31000A2469EE72046FEF72AFB42F603039842F8
:10E3200097D1696F3301CA1804B1043CCC50C2F8CC
:10E3300004A0179991606A6F1A44002111736A6FE3
:10E3400013440136D981F6B283E7E86818B1FEF7C5
:10E3500014FB002865D12B6828469B6998476DB04F
:10E36000BDE8F08F05AA0AA90120FEF7CFFF0294AD
:10E370002FE723682046DB68984712AF142200215C
:10E38000ADF81C001DA801F0A1F94FF0010A00230F
:10E390003B806AF34203BB7023682046DB689847E2
:10E3A000BDF81C10BB78EA6880B2401A18BF012083
:10E3B00060F30003BB703B782AB16AF303030222C7
:10E3C00062F3071303E06AF303036AF307133B7076
:10E3D0000AAB1E971D932368ADF87C10DB682046BE
:10E3E000984700270DF11C0AADF8800005AA1DA969
:10E3F00038462197FEF78EFFBAF80030002B3FF425
:10E40000E8AE0DF1B00BBAF800309F42BFF6DAAEBD
:10E41000236839461B69204698470BF807000137E7
:10E42000F1E71C23002205F14001E868FEF7C7FA76
:10E4300091E700BF2DE9F04F87B004460D46002656
:10E4400001274FF014090DF1060894F861309E423F
:10E4500052DA09FB06F3626E02EB030AD358AB42B1
:10E4600048D1A36B9D4204D1236829465B6A2046AC
:10E4700098472B6828461B6998472B68ADF806001B
:10E48000DB68BAF808B028469847424603460021A0
:10E490005846FFF710FC1022002102A801F016F9DF
:10E4A000BAF80830ADF808309AF81030CDF810807E
:10E4B00073B194F8603053B1013B84F8603002A925
:10E4C0000123A08F8DF80A30FEF728FF00E01F46D9
:10E4D0009AF8113073B194F8603053B1013B84F86D
:10E4E000603002A90223A08F8DF80A30FEF716FFD4
:10E4F00000E01F460136A8E7384607B0BDE8F08FB8
:10E5000010B50446FEF766FB104B236000214FF662
:10E51000FF7304F1400084F8331084F83410A163D1
:10E52000A38784F8601084F86110616684F868102D
:10E53000E16684F8701084F87110616784F87810CF
:10E54000E0651C2201F0C2F8204610BD1023020035
:10E550000649074A074B9B1A03DD043BC858D050B5
:10E56000FBDC00F089F8FDF79DFF00003827020072
:10E570008020002040210020FEE7FEE7FEE7FEE7C6
:10E58000FEE7FEE7FEE7FEE7FEE7FEE7094B196858
:10E59000094B30B5D3F804050A060B0A02434FF4C1
:10E5A0007A71A2FB014501FB0355E00B40EA4540AF
:10E5B00030BD00BFE02300200010014038B5044604
:10E5C00048B1FFF7E3FF054600F01AF8FFF7DEFF5A
:10E5D000401B8442F8D838BD074B0022C3F8042101
:10E5E00082B0D3F80431054A0193019B13680133CB
:10E5F000DBB2136002B0704700100140E02300203E
:10E60000704700000C4B1B78062B10D10B4B1B687E
:10E610001A070CD10A4B186800F0F003302B08D011
:10E6200000F0E000A0F1400358425841704700203C
:10E6300070470120704700BFE00F00F0E40F00F0CA
:10E64000E80F00F0094B1B78062B0CD1084B1B6818
:10E650001A0708D1074B186800F0F000A0F130034A
:10E660005842584170470020704700BFE00F00F04B
:10E67000E40F00F0E80F00F008B5FFF7E3FF10B17A
:10E680004B4B4C4A1A60FFF7BDFF28B14A4B4B4A2F
:10E690001B68C3F342331360FFF7D4FF20B1484A2D
:10E6A000D36823F08073D360FFF7ACFF40B14FF025
:10E6B00080430022C3F80C21C3F81021C3F8382589
:10E6C000FFF7C0FF10B13F4B03221A60FFF7BAFFFC
:10E6D00040B13D4B05221A6001229A6700229A60E0
:10E6E0003F225A60394B1B78062B09D1384B1B68E7
:10E6F0001B0705D1374B1B6803F0F003502B0ED0DE
:10E70000354AD2F8883043F47003C2F88830BFF33A
:10E710004F8FBFF36F8F314B314A1A6008BD4FF0F6
:10E720008052304BD2F80414C3F82015D2F80814E4
:10E73000C3F82415D2F80C14C3F82815D2F8101415
:10E74000C3F82C15D2F81414C3F83015D2F81814E5
:10E75000C3F83415D2F81C14C3F84015D2F82014AD
:10E76000C3F84415D2F82414C3F84815D2F8281475
:10E77000C3F84C15D2F82C14C3F85015D2F8301445
:10E78000C3F85415D2F83414C3F86015D2F838140D
:10E79000C3F86415D2F83C14C3F86815D2F84014D5
:10E7A000C3F86C15D2F84424C3F87025A8E700BF5D
:10E7B00074C007400DF0ADBA440200103C050040A3
:10E7C000F0ED00E0A005004010560040E00F00F022
:10E7D000E40F00F0E80F00F000ED00E084200020DE
:10E7E0000090D00300C000402DE9F04106460D46E0
:10E7F00001EB02080C464445A4EB050707D033683B
:10E8000014F8011B1B68304698470028F3D138469E
:10E81000BDE8F0810120704703681322DB691847C7
:10E8200070470369C3F81C15D3F81C21002AFBD0DC
:10E830000022C3F81C2101207047000090F85C30D2
:10E840005AB2520910B4012120320F4C03F01F03B9
:10E8500001FA03F344F8223003695DF8044B042203
:10E86000C3F8082300225960D960C3F800254FF08F
:10E87000FF32C3F80C251430C3F81425C3F808255B
:10E88000C3F8102500F062B900E100E0143000F098
:10E890006FB9143000F072B9143000F05BB90000A9
:10E8A000026990F85E3030B5C2F80C3590F85D30F2
:10E8B000C2F8143590F86130012B01BF90F85F4029
:10E8C000C2F8104590F86040C2F8084518BF002310
:10E8D000B1F5966FC2F86C352ED9B1F5166F2ED9F9
:10E8E000B1F5965F2ED9B1F5165F2DD9B1F5615FFF
:10E8F0002CD9B1F5964F2BD9B1F5E14F2AD9B1F505
:10E90000164F29D9B1F5614F29D9B1F5963F29D9CB
:10E91000B1F5E13F28D9B1F5613F28D9344B99428F
:10E9200028D9B1F5E12F28D9B1F5612F8CBF4FF06F
:10E9300080534FF0706322E04FF49E231FE04FF4AA
:10E940001D231CE02B4B1AE02B4B18E02B4B16E041
:10E950002B4B14E02B4B12E04FF41D030FE04FF450
:10E960006B030CE0284B0AE04FF0EB7307E04FF02D
:10E970006C7304E04FF0806301E04FF0E863C2F88D
:10E98000243500210423C2F80035C2F80811C2F86A
:10E990001C11012111609160C2F8043390F85C20D1
:10E9A00053B2D2B202F01F055C09A9406034174D82
:10E9B000002B45F8241006DA154B02F00F02134421
:10E9C00060221A7606E003F1604303F5614360229A
:10E9D00083F8002390F85C3001215AB203F01F0342
:10E9E00001FA03F35209094941F8223030BD00BF52
:10E9F00090D0030000B013000050270000F03A0050
:10EA000000A04E0000C0750000903A0100E100E057
:10EA1000FCEC00E02DE9F0411E464FF47A7300252E
:10EA200083600E4B4560044640F8143B1746884609
:10EA300000F076F80A4AC4F8108052F8263084F8BC
:10EA40005D309DF8183084F85C7052F8233084F8FB
:10EA50005E3084F861502046BDE8F0810424020055
:10EA60007C2302000369D3F8082110B504464AB19B
:10EA7000D3F818151430C9B200F05DF823690022EC
:10EA8000C3F8082110BD00000148FFF7EBBF00BF2D
:10EA9000E423002007B50D23009302220E2303492F
:10EAA0000348FFF7B7FF03B05DF804FB0020004008
:10EAB000E42300207047000008B500F013F8FFF7CA
:10EAC000F9FF0120FFF77AFDFDF7D4FE034CFDF7B7
:10EAD000FBFE002CFBD0AFF30080F8E70000000045
:10EAE00000F0D2BD0D4BE02283F811234FF4003229
:10EAF000C3F880211A604FF080430122C3F8182523
:10EB00009A6003F588330021C3F808150221C3F881
:10EB10000413C3F844131A60704700BF00E100E01B
:10EB200010B540220446002100F0D0FD00232364EC
:10EB30006364204610BD026C10B5531C446C03F096
:10EB40003F039C421CBF8154036410BD0023036437
:10EB500043647047436C026C93421FBFC25C013335
:10EB600003F03F03436414BF10464FF0FF3070477B
:10EB7000036C406C181A48BF40307047436C026CFD
:10EB8000934214BFC05C4FF0FF30704753EC102B22
:10EB900033F0004110B408D01148A3F5801484422A
:10EBA00008D804205DF8044B70471AB902205DF8BC
:10EBB000044B704703F1FF43094803F5E003834228
:10EBC000EFD9B1F5801F01D20320EBE7054B994245
:10EBD00001D00020E6E7B2FA82F04009E2E700BF88
:10EBE000FFFFDF7F0000F07F81F0004102E000BF07
:10EBF00083F0004330B54FEA41044FEA430594EAFD
:10EC0000050F08BF90EA020F1FBF54EA000C55EA37
:10EC1000020C7FEA645C7FEA655C00F0E2804FEA08
:10EC20005454D4EB5555B8BF6D420CDD2C4480EAEA
:10EC3000020281EA030382EA000083EA010180EA1A
:10EC4000020281EA0303362D88BF30BD11F0004F68
:10EC50004FEA01314FF4801C4CEA113102D040429E
:10EC600061EB410113F0004F4FEA03334CEA1333D9
:10EC700002D0524263EB430394EA050F00F0A780F1
:10EC8000A4F10104D5F1200E0DDB02FA0EFC22FAEC
:10EC900005F2801841F1000103FA0EF2801843FAE0
:10ECA00005F359410EE0A5F120050EF1200E012AD1
:10ECB00003FA0EFC28BF4CF0020C43FA05F3C0180F
:10ECC00051EBE37101F0004507D54FF0000EDCF188
:10ECD000000C7EEB00006EEB0101B1F5801F1BD331
:10ECE000B1F5001F0CD349085FEA30004FEA3C0C35
:10ECF00004F101044FEA445212F5800F80F09A802B
:10ED0000BCF1004F08BF5FEA500C50F1000041EB2E
:10ED1000045141EA050130BD5FEA4C0C404141EB32
:10ED2000010111F4801FA4F10104E9D191F0000F59
:10ED300004BF01460020B1FA81F308BF2033A3F1DC
:10ED40000B03B3F120020CDA0C3208DD02F1140CD3
:10ED5000C2F10C0201FA0CF021FA02F10CE002F10E
:10ED60001402D8BFC2F1200C01FA02F120FA0CFC07
:10ED7000DCBF41EA0C019040E41AA2BF01EB045150
:10ED8000294330BD6FEA04041F3C1CDA0C340EDC4E
:10ED900004F11404C4F1200220FA04F001FA02F391
:10EDA00040EA030021FA04F345EA030130BDC4F14F
:10EDB0000C04C4F1200220FA02F001FA04F340EA44
:10EDC0000300294630BD21FA04F0294630BD94F0F5
:10EDD000000F83F4801306BF81F480110134013DDC
:10EDE0004EE77FEA645C18BF7FEA655C29D094EA4D
:10EDF000050F08BF90EA020F05D054EA000C04BFCB
:10EE00001946104630BD91EA030F1EBF00210020B5
:10EE100030BD5FEA545C05D14000494128BF41F054
:10EE2000004130BD14F580043CBF01F5801130BDB8
:10EE300001F0004545F0FE4141F470014FF0000043
:10EE400030BD7FEA645C1ABF194610467FEA655CF4
:10EE50001CBF0B46024650EA013406BF52EA033596
:10EE600091EA030F41F4002130BD00BF90F0000F84
:10EE700004BF0021704730B54FF4806404F13204C0
:10EE80004FF000054FF0000150E700BF90F0000F79
:10EE900004BF0021704730B54FF4806404F13204A0
:10EEA00010F0004548BF40424FF000013EE700BF70
:10EEB00042004FEAE2014FEA31014FEA02701FBF00
:10EEC00012F07F4393F07F4F81F06051704792F0D2
:10EED000000F14BF93F07F4F704730B54FF460744C
:10EEE00001F0004521F0004120E700BF50EA010297
:10EEF00008BF704730B54FF000050AE050EA010244
:10EF000008BF704730B511F0004502D5404261EBB3
:10EF100041014FF4806404F132045FEA915C3FF4F4
:10EF2000DCAE4FF003025FEADC0C18BF03325FEA8D
:10EF3000DC0C18BF033202EBDC02C2F1200300FA42
:10EF400003FC20FA02F001FA03FE40EA0E0021FA67
:10EF500002F11444C1E600BF70B54FF0FF0C4CF451
:10EF6000E06C1CEA11541DBF1CEA135594EA0C0F07
:10EF700095EA0C0F00F0DEF82C4481EA030621EA42
:10EF80004C5123EA4C5350EA013518BF52EA03357D
:10EF900041F4801143F4801338D0A0FB02CE4FF02F
:10EFA0000005E1FB02E506F00042E0FB03E54FF05F
:10EFB0000006E1FB03569CF0000F18BF4EF0010E57
:10EFC000A4F1FF04B6F5007F64F5407404D25FEA53
:10EFD0004E0E6D4146EB060642EAC62141EA555106
:10EFE0004FEAC52040EA5E504FEACE2EB4F1FD0C48
:10EFF00088BFBCF5E06F1ED8BEF1004F08BF5FEAC6
:10F00000500E50F1000041EB045170BD06F0004677
:10F0100046EA010140EA020081EA0301B4EB5C0424
:10F02000C2BFD4EB0C0541EA045170BD41F480111C
:10F030004FF0000E013C00F3AB8014F1360FDEBF41
:10F04000002001F0004170BDC4F10004203C35DA1D
:10F050000C341BDC04F11404C4F1200500FA05F3A0
:10F0600020FA04F001FA05F240EA020001F0004241
:10F0700021F0004110EBD37021FA04F642EB0601B7
:10F080005EEA430E08BF20EAD37070BDC4F10C04E1
:10F09000C4F1200500FA04F320FA05F001FA04F2A5
:10F0A00040EA020001F0004110EBD37041F1000191
:10F0B0005EEA430E08BF20EAD37070BDC4F120059C
:10F0C00000FA05F24EEA020E20FA04F301FA05F204
:10F0D00043EA020321FA04F001F0004121FA04F2AC
:10F0E00020EA020000EBD3705EEA430E08BF20EA7C
:10F0F000D37070BD94F0000F0FD101F000464000B6
:10F1000041EB010111F4801F08BF013CF7D041EA37
:10F11000060195F0000F18BF704703F0004652003B
:10F1200043EB030313F4801F08BF013DF7D043EA0C
:10F130000603704794EA0C0F0CEA135518BF95EAC2
:10F140000C0F0CD050EA410618BF52EA4306D1D149
:10F1500081EA030101F000414FF0000070BD50EA68
:10F16000410606BF1046194652EA430619D094EAF2
:10F170000C0F02D150EA013613D195EA0C0F05D1DC
:10F1800052EA03361CBF104619460AD181EA030130
:10F1900001F0004141F0FE4141F470014FF00000E8
:10F1A00070BD41F0FE4141F4780170BD70B54FF083
:10F1B000FF0C4CF4E06C1CEA11541DBF1CEA135503
:10F1C00094EA0C0F95EA0C0F00F0A7F8A4EB0504E5
:10F1D00081EA030E52EA03354FEA013100F08880DC
:10F1E0004FEA03334FF0805545EA131343EA1263A5
:10F1F0004FEA022245EA111545EA10654FEA00265A
:10F200000EF000419D4208BF964244F1FD0404F512
:10F21000407402D25B084FEA3202B61A65EB03056E
:10F220005B084FEA32024FF480104FF4002CB6EB2B
:10F23000020E75EB030E22BFB61A754640EA0C00AB
:10F240005B084FEA3202B6EB020E75EB030E22BFEB
:10F25000B61A754640EA5C005B084FEA3202B6EB2C
:10F26000020E75EB030E22BFB61A754640EA9C00EB
:10F270005B084FEA3202B6EB020E75EB030E22BFBB
:10F28000B61A754640EADC0055EA060E18D04FEA79
:10F29000051545EA16754FEA06164FEAC30343EA19
:10F2A00052734FEAC2025FEA1C1CC0D111F4801FE6
:10F2B0000BD141EA00014FF000004FF0004CB6E7DF
:10F2C00011F4801F04BF01430020B4F1FD0C88BF7E
:10F2D000BCF5E06F3FF6AFAEB5EB030C04BFB6EB89
:10F2E000020C5FEA500C50F1000041EB045170BD7C
:10F2F0000EF0004E4EEA113114EB5C04C2BFD4EBA9
:10F300000C0541EA045170BD41F480114FF0000E2C
:10F31000013C90E645EA060E8DE60CEA135594EAA8
:10F320000C0F08BF95EA0C0F3FF43BAF94EA0C0FAB
:10F330000AD150EA01347FF434AF95EA0C0F7FF420
:10F3400025AF104619462CE795EA0C0F06D152EA74
:10F3500003353FF4FDAE1046194622E750EA410658
:10F3600018BF52EA43067FF4C5AE50EA41047FF469
:10F370000DAF52EA43057FF4EBAE12E74FF0FF3CCE
:10F3800006E000BF4FF0010C02E000BF4FF0010C9F
:10F390004DF804CD4FEA410C7FEA6C5C4FEA430C18
:10F3A00018BF7FEA6C5C1BD001B050EA410C0CBF67
:10F3B00052EA430C91EA030F02BF90EA020F0020C9
:10F3C000704710F1000F91EA030F58BF994208BF30
:10F3D00090422CBFD8176FEAE37040F001007047ED
:10F3E0004FEA410C7FEA6C5C02D150EA013C07D144
:10F3F0004FEA430C7FEA6C5CD6D152EA033CD3D08F
:10F400005DF8040B704700BF8446104662468C4688
:10F410001946634600E000BF01B5FFF7B7FF0028BB
:10F4200048BF10F1000F01BD4DF808EDFFF7F4FFE4
:10F430000CBF012000205DF808FB00BF4DF808ED6F
:10F44000FFF7EAFF34BF012000205DF808FB00BF92
:10F450004DF808EDFFF7E0FF94BF012000205DF8B4
:10F4600008FB00BF4DF808EDFFF7CEFF94BF012069
:10F4700000205DF808FB00BF4DF808EDFFF7C4FF62
:10F4800034BF012000205DF808FB00BF4FEA4102B5
:10F4900012F5001215D211D56FF47873B3EB6252E6
:10F4A00012D94FEAC12343F0004343EA505311F00D
:10F4B000004F23FA02F018BF404270474FF000009F
:10F4C000704750EA013005D111F0004008BF6FF0DD
:10F4D000004070474FF00000704700BF4FEA410204
:10F4E000B2F1E04324BFB3F5001CDCF1FE5C0DD9A2
:10F4F00001F0004C4FEAC0024CEA5070B2F1004FEC
:10F5000040EB830008BF20F00100704711F0804FEE
:10F5100021D113F13872BCBF01F00040704741F4B3
:10F5200080114FEA5252C2F11802C2F1200C10FAB7
:10F530000CF320FA02F018BF40F001004FEAC1239B
:10F540004FEAD32303FA0CFC40EA0C0023FA02F33F
:10F550004FEA4303CCE77FEA625307D150EA013315
:10F560001EBF4FF0FE4040F44000704701F00040E5
:10F5700040F0FE4040F40000704700BF0B460146DB
:10F58000184600F01FB800001FB51C46094B1B6849
:10F590000546D86812B9084B1A4600E0074B02929C
:10F5A0008DE80A0022462B46054900F02DF801F0AF
:10F5B00039F800BFE8200020672402002C24020054
:10F5C0003924020010B5054C13462CB10A460146F9
:10F5D0000220AFF3008010BD204610BD00000000E7
:10F5E00008B5074B044613B10021AFF30080054B6B
:10F5F0001868836A03B19847204602F08DFC00BF6B
:10F60000000000006C2402000EB403B5014603ABF9
:10F61000054853F8042B0068019300F023F902B069
:10F620005DF804EB03B07047E820002070B50E4B86
:10F630000E4CE41AA41000251E46A54204D056F82C
:10F64000253098470135F8E702F068FC084C094B73
:10F65000E41AA41000251E46A54204D056F8253011
:10F6600098470135F8E770BD2821002028210020A7
:10F670003821002028210020024B0146186800F0A4
:10F6800073B800BFE8200020024B0146186800F064
:10F6900025B800BFE820002010B50139024490428F
:10F6A00007D010F8013B11F8014FA342F7D0181B07
:10F6B00010BD002010BD10B5431E0A44914204D075
:10F6C00011F8014B03F8014FF8E710BD024403465F
:10F6D000934202D003F8011BFAE7704730B50029C6
:10F6E0003ED051F8042C0B1F1E49002AB8BF9B18AE
:10F6F0000A680C4612B95A600B6030BD9A420ED9A6
:10F7000019685818824204BF106852685A6004BFD2
:10F7100009181960236030BD994203D80A46516820
:10F720000029F9D1146815199D420AD11B68234498
:10F73000D0188142136013D10868034413604B68EA
:10F740000DE002D90C23036030BD18681C18A142DB
:10F7500004BF0C684968596004BF00191860536001
:10F7600030BD00BF4C24002070B5CD1C25F0030532
:10F7700008350C2D38BF0C25002D064603DA0C2366
:10F780003360002070BDA942F9D81F4B1C681A468F
:10F790002146A1B10B685B1B0ED40B2B03D90B6068
:10F7A000CC18CD501EE08C420DBF63684B6863607F
:10F7B000136018BF0C4615E00C464968E9E7134C86
:10F7C00023681BB9304600F0C3FD2060294630464F
:10F7D00000F0BEFD431CD2D0C41C24F00304A042A0
:10F7E0000AD1256004F10B00231D20F00700C31A85
:10F7F00009D05A42E25070BD211A304600F0A8FDEF
:10F800000130EED1BBE770BD4C240020482400201D
:10F810009368013B002B10B4936009DA9469A3420A
:10F8200002DBCBB20A2B03D15DF8044B00F03ABEE9
:10F830001368581C10601970C8B25DF8044B70470B
:10F84000F8B506460F461446D518AC4208D03A46DD
:10F8500014F8011B3046FFF7DBFF431CF5D100E035
:10F860000020F8BD2DE9F04F9DB00C4617460393DC
:10F87000064618B183690BB901F0FCFD7F4B9C4231
:10F8800001D1746808E07E4B9C4201D1B46803E06A
:10F890007C4B9C4208BFF468A38918070CD52369E8
:10F8A00053B10023099320238DF8293030238DF89C
:10F8B0002A30DFF8D4B144E02146304600F046FE5D
:10F8C0000028EED04FF0FF30D5E0039A111D1268EA
:10F8D0000391002A80F28C80524243F0020007928A
:10F8E000049098F800302E2B00F08480032298F8C2
:10F8F0000010654801F09CFE48B14023CBEB0000AE
:10F9000003FA00F0049B1843049008F1010898F8EA
:10F9100000105E488DF82810062208F1010701F05A
:10F9200087FE002800F09580594B002B40F088801E
:10F93000039B073323F0070308330393099B5344C6
:10F940000993B846454615F8013B1BB9B8EB0709C2
:10F950000FD003E0252BF9D0A846F3E74B463A46F3
:10F9600021463046FFF76CFF01307FD0099B4B44A6
:10F97000099398F80030002B78D000234FF0FF3225
:10F9800004930793059206938DF853301A93012739
:10F99000052229783F4801F04BFE05F10108049B40
:10F9A00038B13C4A801A07FA00F0184304904546E3
:10F9B000EEE7D90644BF20228DF853201A0744BF32
:10F9C0002B228DF853202A782A2A3FF47EAF079AFB
:10F9D00000210A20A846013598F80030303B092B59
:10F9E00003D800FB02320121F4E700293FF479AF8C
:10F9F000079276E798F801302A2B0BD1039B1A1D4A
:10FA00001B680392002BB8BF4FF0FF3308F10208C8
:10FA100005936BE70023059308F1010019460A25B9
:10FA20008046013098F80020303A092A03D805FBB7
:10FA300001210123F4E7002B3FF458AF059155E76E
:10FA400003AB00932246144B04A9304600F0BAF8E9
:10FA500007E003AB009322460F4B04A9304600F0A9
:10FA600051FBB0F1FF3F82467FF468AFA3895B068C
:10FA70003FF528AF09981DB0BDE8F08FC4250200FE
:10FA8000E425020004260200762402007A24020003
:10FA9000C5FB01007024020041F801002DE9FF4779
:10FAA00055EC104B0D9FDDF830A0002D0E46914611
:10FAB0001946B8BF22462B4627F02007BBBF05F1E9
:10FAC00000431D4600232D23B8BF1446462F0B705C
:10FAD00003D0452F03D1013601E0032100E00221CC
:10FAE00003AB019302AB00933246534645EC104BF7
:10FAF00000F02EFE472F804602D119F0010F28D0CA
:10FB0000462F08EB060911D198F80030302B0AD1A6
:10FB10000022002320462946FFF786FC18B9C6F1CB
:10FB20000106CAF80060DAF8003099440022002388
:10FB300020462946FFF778FC08B9302202E0CDF8CC
:10FB40000C9006E0039B994503D9591C03911A7048
:10FB5000F8E7039B0E9AC8EB03034046136004B01A
:10FB6000BDE8F08773B503460029B8BF494203F8E2
:10FB7000022BB4BF2D222B220929427019DD0DF171
:10FB8000070216460A2591FBF5F405FB14113031E6
:10FB9000092C02F8011D2146F5DC3031541E02F813
:10FBA000011CB4421A460AD214F8012B03F8012BA7
:10FBB000F7E730241A46214402F8024B5970101A14
:10FBC00002B070BD2DE9F04F8BB00C4616461F46B3
:10FBD000DDF85080054601F0D7FCD0F800B058465B
:10FBE00000F0D0FB00230893D8F8003004900733CE
:10FBF00023F0070303F1080294F81890C8F80020D6
:10FC0000D3E90023C4E9122394ED120BFEF7BEFFE3
:10FC1000012819D100220023D4E91201FFF70EFCBC
:10FC200010B12D2384F84330974B984AB9F1470F10
:10FC30008CBF9046984603232361236823F0040376
:10FC400023604FF0000A8EE094ED120BFEF79EFF4A
:10FC5000226860B98E4B8F4922F00402B9F1470F38
:10FC60008CBF88469846032323612260E9E76168D8
:10FC70004B1C94ED120B08A801D1062309E0B9F141
:10FC8000670F02D0B9F1470F04D1002940F0AF81CE
:10FC900001236360002342F48062039307AB029068
:10FCA000009322600DF11B03CDF804906168284693
:10FCB000FFF7F4FE09F0DF03472B804609D1079BCD
:10FCC000D81C02DB6268934230DDA9F102095FFAB9
:10FCD00089F9B9F1650F079912D801394A4604F13B
:10FCE00050000791FFF73EFF089A8318012A8246C9
:10FCF000236102DC2268D1072FD5013323612CE078
:10FD0000B9F1660F14D10029636807DD216113B9C9
:10FD10002268D2071DD501330B4419E013B92268BC
:10FD2000D00701D5023313E0012311E04FF067093A
:10FD3000079B089A934205DB22682361D10708D507
:10FD4000013305E0002BD4BFC3F1020301231344A8
:10FD50002361079BA3654FF0000A9DF81B3013B188
:10FD60002D2384F843300097334609AA21462846BC
:10FD700000F052F9013002D14FF0FF3048E1236822
:10FD80005A0501D4236965E0B9F1650F40F2D480CA
:10FD900000220023D4E91201FFF746FB78B30123C8
:10FDA0003D4A31462846B8470130E5D0089B079ABE
:10FDB0009A420BDB2368D80708D423689B0740F1DD
:10FDC00010814FF0000804F1190905E1049B5A461F
:10FDD00031462846B8470130CED04FF0000804F134
:10FDE0001A09089B013B9845E7DA01234A46314648
:10FDF0002846B8470130BFD008F10108F1E7079B5A
:10FE0000002B29DC0123244A31462846B84701301B
:10FE1000B2D0079B23B9089B13B92368D907CCD567
:10FE2000049B5A4631462846B8470130A4D04FF0CB
:10FE3000000904F11A0A079B5B42994509DA01237C
:10FE4000524631462846B847013095D009F101099C
:10FE5000F1E7089B4246A6E0089AA36D9A42A8BF24
:10FE60001A46002A914607DC04F11A034FF0000AF3
:10FE700029EAE97905931BE01346314642462846B4
:10FE8000B8470130F0D177E78124020085240200D1
:10FE9000892402008D2402002B2202000123059AEE
:10FEA00031462846B84701303FF466AF0AF1010AEF
:10FEB000A36DC9EB03029245F0DB08EB0309079A37
:10FEC000089B9A420FDB2368DA070CD4089B079A39
:10FED0009844C9EB08089B1A9845A8BF9846B8F102
:10FEE000000F08DC0FE0049B5A4631462846B8470D
:10FEF0000130EBD140E743464A4631462846B847F1
:10FF000001303FF439AF4FF0000928EAE87804F1F6
:10FF10001A0A09E00123524631462846B847013003
:10FF20003FF42AAF09F10109079A089B9B1AC8EB15
:10FF300003039945EEDB40E7089A012A01DCDB0761
:10FF400038D50123424631462846B84701303FF4B0
:10FF500013AF049B5A4631462846B84701303FF458
:10FF60000BAF00220023D4E91201FFF75DFA20B1A4
:10FF70004FF0000804F11A090EE0089B08F1010295
:10FF8000013B19E001234A4631462846B847013073
:10FF90003FF4F2AE08F10108089B013B9845F1DB04
:10FFA000534604F1500231462846B84701307FF4E9
:10FFB00004AFE1E60123424631462846B847013006
:10FFC000EED1D9E601234A4631462846B8470130EA
:10FFD0003FF4D2AE08F10108E368099A9B1A9845EC
:10FFE000F0DBE068099B9842B8BF184610E0002398
:10FFF00042F48062039307AB029000932260CDF835
:020000022000DC
:1000000004900DF11B032846FFF748FD804656E695
:100010000BB0BDE8F08F00BF2DE9F04791461F46B9
:100020000A698B68DDF820809342B8BF1346C9F88F
:10003000003091F8432006460C4612B10133C9F84E
:1000400000302368990642BFD9F800300233C9F85E
:100050000030256815F0060510D104F1190A07E0F3
:100060000123524639463046C04701301AD0013587
:10007000E368D9F800209B1A9D42F1DB94F84330E5
:100080002268003318BF012392060FD5E1185A1CCD
:10009000302081F84300224494F8451082F8431040
:1000A000023303E04FF0FF30BDE8F08704F1430274
:1000B00039463046C0470130F4D02268D9F80050A4
:1000C000E36802F00602042A08BF5D1B2269A368E8
:1000D0000CBF25EAE57500259342C4BF9B1AED18B5
:1000E0004FF000091A344D4509D001232246394604
:1000F0003046C0470130D5D009F10109F3E70020AF
:10010000BDE8F0872DE9F04317460A7E85B06E2AD8
:10011000984606460C460C9B01F1430E00F0AE805B
:1001200011D8632A22D009D8002A00F0BB80582AAF
:1001300040F0CA8081F84520834955E0642A1ED0EA
:10014000692A1CD0C0E0732A00F0B08009D86F2A59
:100150002ED0702A40F0B8800A6842F020020A606F
:100160003EE0752A24D0782A3AD0ADE01A6801F131
:100170004205111D1960136884F84230A8E0216817
:100180001A6811F0800F02D0111D196008E011F0FB
:10019000400F02F10401196002D0B2F9003000E012
:1001A0001368002B3CDA2D225B4284F8432037E0B1
:1001B00021681A6811F0800F02D0111D196007E044
:1001C00011F0400F02F10401196001D0138800E022
:1001D0001368227E5C496F2A14BF0A2208221BE0A2
:1001E00078225A4984F845202268186812F0800F56
:1001F00000F104051D6003D1550601D5038800E018
:100200000368D00744BF42F0200222601BB9226875
:1002100022F0200222601022002084F8430001E036
:1002200049490A226568A560002D08DB206820F096
:10023000040020602BB9002D7DD175460CE0002B09
:1002400079D07546B3FBF2F002FB1033CB5C05F8B6
:10025000013D03460028F5D1082A0BD12368DA07AF
:1002600008D5236962689A42DEBF302305F8013C55
:1002700005F1FF35C5EB0E0323612EE008681A680F
:10028000496910F0800F03D0101D1860136808E052
:1002900010F0400F02F104001860136801D01980BB
:1002A00000E0196000232361754616E01A68111DED
:1002B0001960156862680021284601F0B9F908B193
:1002C000401B6060636804E004F1420584F842204A
:1002D00001232361002384F84330CDF800803B469E
:1002E00003AA21463046FFF797FE013002D14FF0B6
:1002F000FF3026E023692A4639463046C0470130A0
:10030000F5D023689B0710D5002504F1190907E0F3
:1003100001234A4639463046C0470130E7D001350F
:10032000E368039A9B1A9D42F2DBE068039B9842C4
:10033000B8BF184605E00B7884F8423004F1420556
:100340008AE705B0BDE8F08391240200A2240200F0
:1003500038B5064C002305460846236001F0C6FD6B
:10036000431C02D1236803B12B6038BD5424002004
:1003700010F8012B11F8013B012A28BF9A42F7D04F
:10038000D01A7047034613F8012B002AFBD1181A24
:10039000013870472DE9F04780463C48D0F800907E
:1003A0000E46354615F8014B09EB0400407800F085
:1003B000080000F0FF0708B12E46F2E72D2C03D10C
:1003C000B51C7478012703E02B2C04BF7478B51C8E
:1003D00013B1102B0AD153E0302C4FD1287800F004
:1003E000DF00582845D16C78102302354FF0FF3CD0
:1003F0000026BCFBF3FC03FB0CFA6FEA0A0A30464A
:1004000009EB040E9EF801E01EF0040F01D0303C11
:100410000BE01EF0030E1AD0BEF1010F0CBF4FF01F
:10042000370E4FF0570ECEEB0404A3420FDD002E23
:1004300008DB604506D801D1544503DC03FB0040CE
:10044000012601E04FF0FF3615F8014BD8E7002EEA
:1004500007DA2223C8F800304FF0FF302AB9BDE890
:10046000F08707B1404272B106B1691E1160BDE864
:10047000F0873024002BB9D10823B7E70A23B5E76A
:10048000302CABD0B2E7BDE8F08700BFEC200020F5
:1004900013460A46014602480068FFF77BBF00BFCB
:1004A000E8200020F8B50F461446064618B18369C7
:1004B0000BB900F0DFFF224B9C4201D1746808E0C9
:1004C000204B9C4201D1B46803E01F4B9C4208BF03
:1004D000F468A369A360A3891A0709D523693BB10E
:1004E00023682069181A63699842FDB20FDB08E09F
:1004F0002146304600F02AF80028F1D04FF0FF30B6
:10050000F8BD2146304600F04BFF0028F6D1A36825
:10051000013BA36023685A1C22601F706269431C60
:10052000934204D0A389DB0707D50A2D05D12146C4
:10053000304600F035FF0028E0D12846F8BD00BF66
:10054000C4250200E425020004260200314B70B5E8
:100550001D6806460C4625B1AB6913B9284600F064
:1005600089FF2D4B9C4201D16C6808E02B4B9C42CB
:1005700001D1AC6803E02A4B9C4208BFEC68A38918
:100580009AB211071DD4D50602D40922326038E090
:10059000500712D5616B41B104F14403994202D076
:1005A0003046FFF79BF800236363A38923F02403FD
:1005B000A3810023636023692360A38943F00803B8
:1005C000A38123694BB9A38903F42073B3F5007F9A
:1005D00003D02146304600F0DBFFA38913F001026F
:1005E00005D00022A26062695242A26103E099072D
:1005F00058BF6269A26022694AB903F0800080B2E4
:1006000030B143F04003A3814FF0FF3070BD0020B4
:1006100070BD00BFE8200020C4250200E4250200D0
:100620000426020008B5062001F060FB012001F05D
:1006300073FC2DE9F74F03690C699C42804600F377
:100640008380013C01F114074FEA840E00F1140687
:1006500057F8245006EB0E030193013556F8243069
:10066000B3FBF5F507EB0E09002D39D04FF0000A6A
:100670003846B446D34650F8042B93B205FB03A387
:100680004FEA134A9BB2C3EB0B03120CBCF800B049
:1006900005FB02A213FA8BF34FEA124A1FFA82FB00
:1006A000DCF80020CBEB124202EB23429BB243EA80
:1006B000024381454FEA224B4CF8043BDBD256F80B
:1006C0000E306BB9019B043B9E421A4602D3C8F818
:1006D000104005E01268043B002AF8D1013CF3E722
:1006E000404601F002FA00282CDB013530464FF07D
:1006F000000E57F8041BD0F800C08AB2C2EB0E03FC
:10070000090C13FA8CF3C1EB1C4202EB23429BB29F
:1007100043EA0243B9454FEA224E40F8043BE8D28F
:1007200056F8242006EB840362B9043B9E421A4625
:1007300002D3C8F8104005E01268043B002AF8D143
:10074000013CF3E7284600E0002003B0BDE8F08F4D
:100750002DE9F04F59EC108B97B0456A069182460F
:1007600009921093209CCDE9008945B91020FEF72D
:1007700083FFCAF82400456085600560C560DAF82B
:100780002430196859B15A684A60012393408B603C
:10079000504600F0D2FFDAF8243000221A60019BA4
:1007A0009F4A002BBFBF01232360019B23F000431E
:1007B000B8BF0193019FA4BF0023236027F000432B
:1007C0001B0D1B0593421DD1109A42F20F7313604B
:1007D000009B43B9934A944BC7F31300002814BFFE
:1007E0001846104600E09048219B002B00F04A85F7
:1007F000C37813B100F1080300E0C31C219A136011
:1008000000F040BDDDE900450022002320462946D6
:10081000FEF70AFE804658B1109A01231360219B0F
:10082000002B00F0228581481860013800F02ABDB5
:1008300014AA15A945EC104B504601F0D1F9C7F3A5
:100840000A5602905EB1C5F3130343F07F51204670
:1008500041F44011A6F2FF36CDF844801DE0159B0F
:10086000149E1E4406F23243202B0ADD009A06F243
:100870001240C3F1400322FA00F007FA03F31843D1
:1008800004E0C3F12000009B03FA00F0FEF7EEFA4B
:100890000123A1F1F871013E11930022644BFEF790
:1008A000A7F959A3D3E90023FEF756FB58A3D3E9D0
:1008B0000023FEF79FF9044630460D46FEF7E6FAA0
:1008C00055A3D3E90023FEF747FB02460B4620461B
:1008D0002946FEF78FF904460D46FEF7D7FD0022A4
:1008E0008346002320462946FEF7A8FD58B1584606
:1008F000FEF7CCFA02460B4620462946FEF794FD49
:1009000008B90BF1FF3BBBF1160F0DD8494901EBBC
:10091000CB01DDE90023D1E90001FEF7ADFD30B1E7
:100920000BF1FF3B002300E001230D9300E00D904D
:10093000149B9E1B731E059343BFC3F10009002344
:1009400005934FF00009BBF1000F07DB059BCDF8C5
:1009500030B05B4405930023079306E0CBF100031E
:1009600007930023CBEB09090C93069B092B27D88F
:10097000052BC4BF043B0693069BA3F10203CCBF27
:1009800000250125032B20D8DFE803F0060E020422
:10099000012302E0012308E000230893099B002BB8
:1009A0001CDD039398461EE000230893099B5B44DB
:1009B00003F1010803934346012BB8BF012312E062
:1009C000012500230693089501E0012308934FF0C9
:1009D000FF33039398460022122303E0012303937D
:1009E00098461A460992DAF82440002262600421EF
:1009F00001F114029A421FD8626801326260490014
:100A0000F6E700BFAFF3008061436F63A787D23F73
:100A1000B3C8608B288AC63FFB799F501344D33FED
:100A20000000F07FB4250200BD2502002C22020048
:100A30000000F83F302602006168504600F048FE92
:100A4000DAF8243020601B680493B8F10E0F00F22E
:100A50005D81002D00F05A819DED007BBBF1000F00
:100A60008DED0E7B31DDA04A0BF00F0302EBC303CB
:100A700093ED007B4FEA2B14E2068DED0A7B0CD53B
:100A80009A4BDDE90E01D3E90823FEF78FFB04F052
:100A90000F04CDE90001032600E00226934D6CB15E
:100AA000E30708D5DDE90A01D5E90023FEF754FA8A
:100AB000CDE90A01013664100835F0E7DDE90A23C3
:100AC000DDE90001FEF772FB20E0CBF1000404B386
:100AD000854B864D04F00F0203EBC203D3E90023DC
:100AE000DDE90E01FEF738FACDE9000124110023FB
:100AF000022654B1E70705D5D5E90023FEF72CFA05
:100B00000136012364100835F3E71BB1CDE900017C
:100B100000E002260D9BEBB1DDE900450022744B9D
:100B200020462946FEF78AFCA0B1B8F1000F11D08B
:100B3000039B002B40F3E6800BF1FF330A93002266
:100B40006C4B20462946FEF707FA0136CDE9000135
:100B5000039F02E0CDF828B047463046FEF796F9ED
:100B6000DDE90023FEF7F8F90022634BFEF742F8B7
:100B70000446A1F15075CFB90022604BDDE90001B8
:100B8000FEF736F822462B46CDE90001FEF774FC4D
:100B9000002840F04182224605F10043DDE90001D2
:100BA000FEF74CFC002840F02E82ABE0089A4E4B3A
:100BB000791E002A4AD003EBC103D3E900230020A9
:100BC0004F49FEF7F3FA22462B46FEF711F8049C34
:100BD00005460E46DDE90001FEF758FC1290FEF7CF
:100BE00055F902460B46DDE90001FEF701F8129BBC
:100BF000303304F8013B2A463346CDE90001FEF7C5
:100C00001DFC002840F02183DDE900230020384945
:100C1000FDF7EEFF2A463346FEF710FC002840F0B1
:100C2000D280049BE31ABB426CDA0022314B284687
:100C30003146FEF791F9002205460E462D4BDDE9BF
:100C40000001FEF789F9CDE90001C3E703EBC1011B
:100C500022462B46D1E90001FEF77EF9049BCDE93F
:100C60001201DC191D46DDE90001FEF70FFC064606
:100C7000FEF70CF9303602460B46DDE90001FDF7C0
:100C8000B7FF05F8016BAC42CDE900014FF000025F
:100C900023D11B4BDDE91201FDF7ACFF02460B46E9
:100CA000DDE90001FEF7E8FB002840F08C80DDE97B
:100CB000122300201249FDF79BFF02460B46DDE997
:100CC0000001FEF7BBFBE8B114F8013C302B04F146
:100CD000FF3240F0BA821446F6E7064BFEF73CF9C5
:100CE000CDE90001BFE700BF30260200F826020070
:100CF0000000F03F0000244000001C4000001440B1
:100D00000000E03FDDE90E34CDE90034159B002BF7
:100D10007CDBBBF10E0F79DC8F4B03EBCB03D3E90C
:100D20000067099B002B14DAB8F1000F11DC40F0CA
:100D30006C810022894B30463946FEF70DF9DDE91A
:100D40000023FEF78FFB45464646002840F05F81B2
:100D500066E1049C32463B46DDE90001FEF726FAD7
:100D6000FEF794FB0546FEF791F832463B46FEF748
:100D7000F3F80B460246DDE90001FDF739FF05F106
:100D8000300E04F801EB049BC3EB040EF045CDE9F3
:100D900000012ED102460B46FDF72CFF8046894606
:100DA00002460B4630463946FEF748FB78B94246C4
:100DB0004B4630463946FEF737FB002800F04782A5
:100DC000E90704D443E2DDF828B000E01C4614F83B
:100DD000012C392A04F1FF3307D1049A9A42F5D144
:100DE000049930220BF1010B0A701A7801321A7043
:100DF0002DE200225A4BFEF7AFF800220023CDE986
:100E00000001FEF711FB0028A4D020E2089A002A76
:100E10002DD0069A012A0ADC119A12B103F233434B
:100E200002E0149BC3F13603079D4C4615E0079B77
:100E300008F1FF35AB42BFBF079B0795EA1A0C9B31
:100E4000B7BF9B185D1B0C930025B8F1000FB9BF0D
:100E5000C8EB090400234C464346059A01211A4475
:100E600050469944059200F007FD064602E0079DB2
:100E7000089E4C465CB1059B002B08DDA342059AF9
:100E8000A8BF2346C3EB0909E41AD31A0593079BAD
:100E9000002B1DDD089BABB185B131462A4650467B
:100EA00000F084FD029A01460646504600F0EDFC33
:100EB00002990746504600F040FC0297079B5A1BD8
:100EC00006D000E0079A0299504600F06FFD0290AC
:100ED0000121504600F0D0FC0C9B05465BB31A463E
:100EE0000146504600F062FD069B012B054618DCCA
:100EF000009B83B9019BC3F3130373B9019B23F0D8
:100F000000473F0D3F054FB1059B013309F1010932
:100F10000593012702E0002700E0009F0C9B73B1BE
:100F200000E000272B6905EB8303186900F057FCEC
:100F3000C0F1200004E0069B012BD9DD0C9F0120AD
:100F4000059B184410F01F000ED0C0F12003042BA5
:100F500008DDC0F11C0008E030260200000014404B
:100F60000000244006D018461C30059B03448144F1
:100F700004440593B9F1000F05DD4A460299504635
:100F800000F062FD0290059B002B05DD29461A4604
:100F9000504600F059FD05460D9BEBB129460298DD
:100FA00000F0A3FD002817DA00230A220299504618
:100FB00000F0DAFB089B02900BF1FF3B002B00F0E6
:100FC0005881002331460A22504600F0CDFB039B96
:100FD000002B064637DC33E0B8F1000F2ADC069B15
:100FE000022B27DDCDF80C80039B83B9294605220F
:100FF000504600F0B9FB01460546029800F075FD29
:1010000000280DDC03E03D4600E000252E46099B4C
:10101000049C6FEA030B0AE0DDF828B03D463E462B
:10102000049B049A5C1C312313700BF1010BB04636
:101030000026F7E0089BCDF80C8023B9049CB1E0B2
:10104000069B022BD0DC002C05DD314622465046A3
:1010500000F0FAFC06469FB17168504600F038FB7C
:10106000326902320446920006F10C010C30FEF7A0
:1010700022FB01222146504600F0E6FC804600E0BB
:10108000B046009BDDF8109003F00103059329465C
:101090000298FFF7CEFA3146044600F13007029875
:1010A00000F023FD424600902946504600F039FDED
:1010B000C36802463BB901460790029800F015FD4F
:1010C000079A034600E0012311465046079300F0BB
:1010D00034FB079B4BB9069A3AB9059A2AB9392FBE
:1010E00028D0009B002B1ADC1BE0009A002A04DBAE
:1010F0001AD1069AC2B9059AB2B9002B11DD0122A4
:101100000299504600F0A0FC2946029000F0EDFC48
:10111000002802DC05D1FA0703D5392F0AD004F1E3
:10112000310709F101040CE0002B09F101040BDD8A
:10113000392F05D1392389F8003009F1010954E02C
:10114000013789F800706DE0049B039A04F8017C74
:10115000E31A9342A1463AD000230A22029950464C
:1011600000F002FB464502904FF000034FF00A02E8
:101170003146504604D100F0F7FA0646804686E72D
:1011800000F0F2FA4146064600230A22504600F0DB
:10119000EBFA80467BE700230A220299504600F0D2
:1011A000E3FA029029460298FFF743FA00F130076C
:1011B00004F8017B049B039AE31A9342EBDB049B44
:1011C000012AACBF9B180133B04699460026012284
:1011D0000299504600F038FC2946029000F085FC48
:1011E000002802DC15D1FB0713D54C4614F8013C4E
:1011F000392B04F1FF3209D1049B934204D10BF146
:10120000010B3123049A02E01446EFE70133137017
:1012100008E04C4614F8013C302B04F1FF3201D1B8
:101220001446F7E72946504600F087FAB8F1000F58
:101230000DD02EB1464503D03146504600F07DFA20
:101240004146504600F079FA01E0DDF828B00299F5
:10125000504600F072FA0023109A23700BF101033C
:101260001360219B1BB11C6001E008480AE0049850
:1012700008E0039B002B3FF7E1AE069B022B7FF7B4
:10128000DDAEB1E617B0BDE8F08F00BF2B22020043
:101290008A892DE9F041054610070C4659D44B6860
:1012A000002B02DC0B6C002B17DDE66AAEB102F4FA
:1012B0008052002392B22F682B600AB1606D15E056
:1012C000216A01232846B047411C0FD12B686BB11E
:1012D0001D2B01D0162B03D12F600020BDE8F0811B
:1012E000A38943F04003A381BDE8F081A3895A0795
:1012F00005D56368C01A636B0BB1236CC01A002359
:101300000246E66A216A2846B047431CA38906D1F3
:1013100029681D293AD8214ACA40D60736D5002265
:101320006260D9042269226004D5421C01D12B6875
:1013300003B96065616B2F600029CED004F14403CE
:10134000994202D02846FEF7C9F900206063BDE843
:10135000F0810F69002FC0D093070E6808BF4B695A
:101360000F6018BF0023C7EB06088B6002E007443C
:10137000C0EB0808B8F1000FAFDD43463A46216ADA
:10138000A66A2846B0470028F1DCA38943F0400351
:10139000A3814FF0FF30BDE8F08100BF0100402085
:1013A00038B50B6905460C46DBB118B183690BB93A
:1013B00000F060F80C4B9C4201D16C6808E00B4BCC
:1013C0009C4201D1AC6803E0094B9C4208BFEC6829
:1013D000B4F90C302BB121462846BDE83840FFF760
:1013E00057BF002038BD00BFC4250200E42502001D
:1013F00004260200014900F0A9B800BFA1130200B1
:10140000002310B504460360436083608181436616
:10141000C281036143618361194608225C30FEF793
:1014200055F9054B6362054BA362054BE362054B1F
:101430002462236310BD00BF251D0200471D02006A
:101440007F1D0200A31D020070B568234D1E5D4381
:101450000E4605F17401FEF787F9044640B10021FC
:1014600080E842000C30A06005F16802FEF72EF91A
:10147000204670BD836910B5044633BB8364C364E2
:101480000365124B124A1B688262984204BF012313
:10149000836100F01FF86060204600F01BF8A06038
:1014A000204600F017F80022E06004216068FFF792
:1014B000A7FF01220921A068FFF7A2FF0222122143
:1014C000E068FFF79DFF0123A36110BD6C240200BB
:1014D000F5130200F8B51C4B1E68B369074613B933
:1014E0003046FFF7C7FF4836B4687368013B04D441
:1014F000B4F90C507DB16834F8E733680BB1366845
:10150000F2E704213846FFF79FFF30600028F6D14C
:101510000C233B60F8BD4FF6FF73E3810123A381E9
:1015200065662560A560656025616561A561082225
:10153000294604F15C00FEF7C9F86563A563A5645C
:10154000E5642046F8BD00BF6C2402002DE9F84395
:101550008046894600F14804002694B1A568676872
:10156000013F0CD4AB89012B07D9B5F90E300133FB
:1015700003D029464046C84706436835F0E724684B
:10158000EBE73046BDE8F88300487047F0200020C4
:10159000F0B58B899D0791B006460C4626D4B1F96B
:1015A0000E10002909DAA38913F0800F4FF000050F
:1015B00014BF40274FF480670DE001AA00F018FC2B
:1015C0000028F0DB029D05F47045A5F500514D4261
:1015D0004D414FF4806739463046FEF7C5F860B993
:1015E000A3899A051DD443F00203A38104F14703A4
:1015F000236023610123636113E00B4BB362A38972
:10160000206043F08003A381206167614DB1B4F98C
:101610000E10304600F0FEFB18B1A38943F0010321
:10162000A38111B0F0BD00BFF5130200000000005F
:1016300001F0FF01102A2BDB10F0070F08D010F883
:10164000013B013A8B422DD010F0070F42B3F6D187
:10165000F0B441EA012141EA014122F007047FF0A0
:1016600000070023F0E80256083C85EA010586EAF7
:10167000010685FA47F5A3FA87F586FA47F6A5FA33
:1016800087F68EB9EED1F0BC01F0FF0102F007023F
:1016900032B110F8013B013A83EA010313B1F8D1EA
:1016A0000020704701387047002D06BF35460338CB
:1016B000073815F0010F07D1013015F4807F02BF04
:1016C000013015F4C03F0130F0BC0138704700BF55
:1016D00070B5456A04460E463DB91020FDF7CCFFB3
:1016E0006062456085600560C560656AEB6843B10E
:1016F000636ADB6853F8260078B1026843F8262055
:1017000017E021220421204600F0B8FA636AE8605D
:10171000DB68002BECD1002070BD012101FA06F539
:101720006A1D9200204600F0A9FA0028F3D0466016
:10173000856000230361C36070BD70B5446A0646CE
:101740000D463CB91020FDF797FF7062446084603D
:101750000460C4603DB1736A6A68DB6853F82210A4
:10176000296043F8225070BD2DE9F0410D691F46F4
:1017700006460C4601F1140E0023DEF8000081B28B
:1017800002FB01710F0C000C02FB007089B20133E7
:1017900001EB00419D424FEA10474EF8041BECDC80
:1017A000D7B1A3689D4212DB616830460131FFF773
:1017B0008FFF2269023204F10C01804692000C3046
:1017C000FDF779FF21463046FFF7B7FF444604EBAB
:1017D000850301355F6125612046BDE8F081030C7A
:1017E0001B0413B90004102300E0002310F07F4F06
:1017F00004BF0002083310F0704F04BF000104332F
:1018000010F0404F04BF80000233002803DB420089
:1018100003D5581C7047184670472020704703684E
:1018200013F007020BD0D90722D49A074BBF5B08ED
:101830009B08036003604CBF01200220704799B2EF
:1018400009B91B0C102213F0FF0F04BF1B0A08324A
:10185000190704BF1B090432990704BF9B08023211
:10186000D90702D45B0805D00132036010467047E7
:10187000002070472020704710B50C460121FFF76B
:1018800027FF01224461026110BD2DE9F74F144684
:101890000A6923699A42B8BF0B468846BCBFA04676
:1018A0001C46D8F81070D4F81090D8F80830D8F842
:1018B000041007EB09069E42C8BF0131FFF708FF7D
:1018C00000F1140505EB860C2B460022634502D27D
:1018D00043F8042BFAE704F1140208F1140102EBB7
:1018E000890301EB87070093009B0192934257D92C
:1018F000B2F800B0BBF1000F23D08946AE464FF0DE
:10190000000859F8044BBEF800A0A3B20BFB03A3D8
:101910004FEA144ADEF8004043444FEA14480BFBF8
:101920000A8404EB1344F2469BB243EA04434F4556
:101930004FEA14484AF8043B01D9D646E1E7CEF80D
:101940000480019BB3F802A00432BAF1000F21D049
:101950002B682C4689464FF00008B9F800E0B4F82F
:1019600002B00AFB0EBEF044A3469BB243EA084312
:101970004BF8043B59F8043BB4F804E01B0C0AFB99
:1019800003E303EB18434F454FEA134801D95C4684
:10199000E3E763600435A7E75CF8043D13B9013E53
:1019A000002EF9DC066103B0BDE8F08F2DE9F843A5
:1019B000154612F0030206460F4607D0013A214CA5
:1019C000002354F82220FFF7CFFE0746AD1036D093
:1019D000746A3CB91020FDF74FFE70624460846069
:1019E0000460C460D6F82480D8F808404CB940F2AE
:1019F00071213046FFF740FF0023C8F80800044675
:101A000003604FF00008EB070AD5394622463046FE
:101A1000FFF73BFF394681463046FFF78EFE4F46C3
:101A20006D100CD0206808B10446ECE72246214630
:101A30003046FFF72AFF2060C0F80080F4E7384600
:101A4000BDE8F883202702002DE9F0470C464FEA55
:101A5000621A26694968A368564407469146751C70
:101A6000AB4202DA01315B00FAE73846FFF730FE9D
:101A70000023804600F114011A46534503DA41F869
:101A800023200133F9E72AEAEA73206901EB830393
:101A900019F01F0904F1140101EB800E14D0C9F1F3
:101AA000200C0022086800FA09F002439A4643F825
:101AB000042B51F8042B8E4522FA0CF2F2D8CAF806
:101AC000042042B1B51C06E0043B51F8042B43F856
:101AD000042F8E45F9D8013D3846C8F810502146EC
:101AE000FFF72BFE4046BDE8F08703690A699B1AA1
:101AF00010B511D192001430143183180A4453F8F0
:101B0000044D52F8041D8C4202D007D3012010BDB1
:101B10009842F4D3002010BD184610BD4FF0FF309E
:101B200010BD2DE9F8430C460746114620461546E0
:101B3000FFF7DBFF061E08D131463846FFF7C8FD28
:101B4000012303614661BDE8F883BCBF23462C46F0
:101B500038466168BABF1D4601260026FFF7B8FD6A
:101B60002B69C660266905F11409143404EB860755
:101B700009EB830800F114054FF0000C54F8043B06
:101B800059F8042B1CFA83F11FFA82FE120CCEEBDB
:101B90000101C2EB134303EB214389B24FEA234C0B
:101BA000C84541EA0343A64645F8043BE6D8BE458E
:101BB0000ED25EF8041B1CFA81F2131403EB1143DE
:101BC00092B242EA03424FEA234C45F8042BEEE777
:101BD00055F8043D0BB9013EFAE70661BDE8F8830C
:101BE0002DE9F7430E46012159EC108B1546FFF7FE
:101BF0006FFDC9F30A540746C9F313030CB143F44C
:101C000080130193B8F1000F19D002A840F8088D95
:101C1000FFF705FE009B48B1019AC0F1200102FACE
:101C200001F10B43C2407B61019200E07B61019BAB
:101C3000BB61002B14BF02210121396107E001A81B
:101C4000FFF7EDFD019B7B6101213961203034B14B
:101C5000A4F2334404443460C0F1350009E007EBDA
:101C60008103A0F2324030601869FFF7B8FDC0EB85
:101C700041102860384603B0BDE8F08338B502FB58
:101C800001F42146FDF770FD054618B122460021FA
:101C9000FDF71CFD284638BD1F2938B504460D4602
:101CA00004D9162303604FF0FF3038BD426C12B1E7
:101CB00052F821304BB9204600F032F82A4601464E
:101CC0002046BDE8384000F019B8012B0CD0591C53
:101CD00003D116230360012038BD0024284642F8B2
:101CE00025409847204638BD002038BD024B0146AC
:101CF0001868FFF7D1BF00BFE820002038B5074CB7
:101D00000023054608461146236000F0D7F8431C1F
:101D100002D1236803B12B6038BD00BF54240020DA
:101D200000F0BCB810B50C46B1F90E1000F094F8F4
:101D30000028ABBF636DA3891B1823F48053ACBF8D
:101D40006365A38110BD2DE9F0411F468B89DB053A
:101D500005460C46164605D502230022B1F90E10A1
:101D600000F068F8A389B4F90E1023F48053A3811E
:101D700032463B462846BDE8F04100F017B810B5A2
:101D80000C46B1F90E1000F055F8431CA38915BF9D
:101D9000606523F4805343F48053A38118BFA3816B
:101DA00010BDB1F90E1000F013B8000038B5074CA3
