:020000021000EC
:10C000000000012011660200396602003B66020052
:10C010003D6602003F66020041660200000000002B
:10C020000000000000000000000000004366020065
:10C0300045660200000000004766020049660200F3
:10C040004B6602004B660200117002004B66020054
:10C05000355402004B6602004B6602004B6602003C
:10C060004B6602004B6602004B6602004B66020004
:10C070004B6602004B6602004B6602004B660200F4
:10C080004B660200C96602004B6602004B66020066
:10C090004B6602004B6602004B6602004B660200D4
:10C0A0004B6602004B6602004B6602004B660200C4
:10C0B0004B6602004B66020000000000000000001A
:10C0C0004B6602004B6602004B6602004B660200A4
:10C0D0004B6602004B6602004B6602000000000047
:10C0E0000000000000000000000000000000000050
:10C0F0000000000000000000000000000000000040
:10C10000000000000000000000000000000000002F
:10C11000000000000000000000000000000000001F
:10C40000044B05481B1A062B02D9044B03B11847ED
:10C41000704700BF6F2100206C2100200000000049
:10C4200005490648091A891001EBD171491002D05B
:10C43000034B03B1184770476C2100206C2100208A
:10C440000000000010B5064C237843B9FFF7D8FF71
:10C45000044B13B10448AFF300800123237010BDD7
:10C4600070210020000000000CAF020008B5084B4E
:10C470001BB108490848AFF300800848036813B9A6
:10C48000BDE80840CCE7064B002BF9D09847F7E70A
:10C4900000000000742100200CAF02006821002081
:10C4A00000000000154B002B08BF134B9D46A3F561
:10C4B000803A00218B460F461348144A121A0BF09B
:10C4C0008BFB0F4B002B00D098470E4B002B00D05E
:10C4D00098470020002104000D000D48002802D0DC
:10C4E0000C48AFF300800BF027FB200029000AF076
:10C4F000A7FD0BF0FBFA00BF0000080000000120C0
:10C50000000000000000000070210020BC2D002071
:10C51000000000000000000010B5044607F0EEF92E
:10C52000D4F89031D4F8940114331B1A1422B3FBBD
:10C53000F2F002FB103010BDA0F5BE70FFF7ECBFAB
:10C5400010B5044607F0DAF9D4F89401D4F8903124
:10C5500098421FBF01301422B0FBF2F302FB13001C
:10C560001ABF001990F898014FF0FF3010BDA0F5E8
:10C57000BE70FFF7E5BF10B5044607F0BFF9D4F869
:10C580009401D4F8903198421FBF421C1420B2FB92
:10C59000F0F300FB13201DBFC4F89401001990F8BC
:10C5A00098014FF0FF3010BDA0F5BE70FFF7E3BF5C
:10C5B00007F0CCB938B504460D4607F09FF904F5ED
:10C5C000087007F061F870B1D4F8AC315A1C2344FC
:10C5D000142AC4F8AC2183F8B05103D12368204653
:10C5E000DB6E9847012038BDA0F5BE70FFF7E2BFB3
:10C5F0002DE9F041044607F01FFB4FF47A73C4F8AD
:10C600008431374B374F384903F10802226003F178
:10C610008802002504F5E276626003F1A002C833C7
:10C62000C4F87C31A260C4F88051304607F0CEFBDC
:10C6300004F5F27839462D4A04F5E67007F04AF819
:10C64000142304222A49404606F0F8FF3946294AB5
:10C6500004F5027007F03EF814231022264904F571
:10C66000087006F0EBFF254A394604F5117007F013
:10C6700031F8234BC4F8AC5131462046C4F89451EC
:10C68000C4F89051C4F88C511C6007F08EFA04F580
:10C69000E871204607F089FA304606F01CFF014693
:10C6A000204607F033F904F5F471204607F07DFACF
:10C6B00004F50371204607F078FA124A29464046ED
:10C6C00006F0F1FF04F50971204607F06EFA2046E6
:10C6D00004F5127107F069FA2046BDE8F08100BF49
:10C6E000F4A402006EA4020044A4020069A40200A3
:10C6F00073A4020098A40200B2A40200D7A402000E
:10C700008C2100206DC701000FB408B5029807F016
:10C7100044F9BDE8084004B0704710B5044609F07C
:10C7200095FFD4F88C316433984204D22046BDE89A
:10C73000104007F0E3B823682046DB6EBDE81040E8
:10C74000184730B50A44142591420ED0D0F89031E4
:10C750005C1CB4FBF5F305FB1343C0F890310344B4
:10C7600011F8014B83F89841EEE730BD094B70B5E5
:10C770001D680B680C460846DB6898472368064628
:10C780001B6920469847314602462846BDE870405E
:10C79000FFF7D7BF8C210020D0F8AC2110B504469C
:10C7A00092B100F5D871D2B200F5087006F031FFF1
:10C7B00009F04CFF0023C4F88C01C4F8AC312046CA
:10C7C000BDE8104007F09AB810BDA0F5BE70FFF7A5
:10C7D000E3BF0000134B03F1080210B5026003F140
:10C7E0008802426003F1A002C83304468260C0F8A8
:10C7F0007C3100F5117006F05EFF04F5087006F05C
:10C80000F3FE04F5027006F056FF04F5F27006F030
:10C81000EBFE04F5E67006F04EFF204607F0C8F97F
:10C82000204610BDF4A4020010B50446FFF7D2FF65
:10C8300020460AF019FC204610BD77DF70473BDF29
:10C84000704748DF704700009FEDF87ADFEDF87A17
:10C85000E0EE077A2DE9F04F9FEDF67AE0EE877A69
:10C860009FEDF57AE1EE077A9FEDF47AE1EE877AB3
:10C870009FEDF37AE2EE077A9FEDF27A77EEC77AD0
:10C880009FEDF17A77EEC77A9FEDF07A77EEC77A6F
:10C890009FEDEF7A77EEC77A9FEDEE7A2DED108B54
:10C8A00077EE877A87B0F1EE677A17EE900AB0EEEE
:10C8B000419AF0EE618AB0EE428AB0EE40AAF0EE04
:10C8C000609A0AF055FD41EC100B09F065F8002262
:10C8D00051EC100BE04B0AF0EDFB02460B4600203A
:10C8E000DD490AF0C3FE0BF079F89FEDDC7ADFED4D
:10C8F000DC7AEAEE077A9FEDDB7AE9EE877A9FED44
:10C90000DA7AE9EE077A9FEDD97AE8EE877A9FED39
:10C91000D87AE8EE077A9FEDD77A77EE877A9FED9F
:10C92000D67A77EE877A9FEDD57A77EE877A9FED84
:10C93000D47A77EEC77A9FEDD37A77EE877A0CEECA
:10C94000900AF1EE677A17EE900A0AF011FD41ECB9
:10C95000100B09F021F8002251EC100BBE4B0AF02D
:10C96000A9FB02460B460020BB490AF07FFE0BF0F4
:10C9700035F89FEDC57ADFEDC57AEAEE077A9FEDCF
:10C98000C47AE9EE877A9FEDC37AE9EE077A9FEDE4
:10C99000C27AE8EE877A9FEDC17AE8EE077A9FEDDA
:10C9A000C07A77EE877A9FEDBF7A77EEC77A9FEDF0
:10C9B000BE7A77EE877A9FEDBD7A77EE877A9FED24
:10C9C000BC7A77EE877A0CEE100AF1EE677A17EEF2
:10C9D000900A0AF0CDFC41EC100B08F0DDFF0022BC
:10C9E00051EC100B9C4B0AF065FB02460B460020F5
:10C9F00099490AF03BFE0AF0F1FF9FEDAE7ADFEDB8
:10CA0000AE7AEAEE077A9FEDAD7AE9EE877A9FED8E
:10CA1000AC7AE9EE077A9FEDAB7AE8EE877A9FED84
:10CA2000AA7AE8EE077A9FEDA97A77EE877A9FEDEA
:10CA3000A87A77EE877A9FEDA77A77EE877A9FEDCF
:10CA4000A67A77EE877A9FEDA57A77EE877A0DEE54
:10CA5000900AF1EE677A17EE900A0AF089FC41EC31
:10CA6000100B08F099FF002251EC100B7A4B0AF0E2
:10CA700021FB02460B46002077490AF0F7FD0AF039
:10CA8000ADFF9FED977ADFED977AEAEE077A9FED9B
:10CA9000967AE9EE877A9FED957AE9EE077A9FED2F
:10CAA000947AE8EE877A9FED937AE8EE077A9FED25
:10CAB000927A77EE877A9FED917A77EEC77A9FED3B
:10CAC000907A77EE877A9FED8F7A77EEC77A9FED2F
:10CAD0008E7A77EE877A0DEE100AF1EE677A17EE0E
:10CAE000900A0AF045FC41EC100B08F055FF0022BB
:10CAF00051EC100B584B0AF0DDFA02460B460020B1
:10CB000055490AF0B3FD0AF069FF9FED807ADFED29
:10CB1000807AEAEE077A9FED7F7AE9EE877A9FEDD9
:10CB20007E7AE9EE077A9FED7D7AE8EE877A9FEDCF
:10CB30007C7AE8EE077A9FED7B7A77EE877A9FED35
:10CB40007A7A77EE877A9FED797A77EE877A9FED1A
:10CB5000787A77EE877A9FED777A77EE877A0AEEA2
:10CB6000900AF1EE677A17EE900A0AF001FC41ECA8
:10CB7000100B08F011FF9FED707ADFED707AB0EEC8
:10CB800040BAF0EE60BAEAEE077A9FED6D7AE9EE10
:10CB9000877A9FED6C7AE9EE077A9FED6B7AE8EE83
:10CBA000877A9FED6A7AE8EE077A9FED697A77EEE9
:10CBB000877A9FED687A77EE877A9FED677A77EECE
:10CBC000877A9FED667A77EE877A9FED657A77EEC2
:10CBD000877AF1EE677A17EE900A0AF0C9FB41EC0A
:10CBE000100B08F0D9FE9FED5F7ADFED5F7AEAEE79
:10CBF000077A9FED5E7AE9EE877A9FED5D7AE9EE3E
:10CC0000077A9FED5C7AE8EE877A9FED5B7AE8EE33
:10CC1000077A9FED5A7A77EE877A9FED597A77EE09
:10CC2000877A9FED587A77EE877ADDE09CEAB63D09
:10CC3000A574803F2A2BCD3CFA0E993D4D5C283DD2
:10CC400025D5843D9686453DBFA2103D81E9843DB2
:10CC500086E63E3D76AD483D0000F03F5BCC703D42
:10CC600060C3803F606A5FBD18BEF23CE52C9A3C11
:10CC7000FD95DA3DF5696D3DC183C23DD39FD23D3F
:10CC8000AE9D693DC80C083E0CE83ABD9DD7803F7B
:10CC90000A4AD33D443FCA3D2DB1023D33B8CDBC15
:10CCA000350F853D6B4F463D0694983C0DDF743D36
:10CCB000650F9F3D0E5F56BD33D8803F418F2ABC24
:10CCC0006C8A35BD527B153DC50B9B3D8C757B3DFC
:10CCD00027CC4B3DAEB28F3D80F1833D1939D43D19
:10CCE000858200BD698B803FF3624ABD94C7EB3DEE
:10CCF000B2AC91BD1556D63DAC1FB33D4E8D2A3D0D
:10CD00000C3F063D44A5003D7383F53DFD50583E64
:10CD10001657843FBC494D3E6E862C3EFAD8883E5D
:10CD2000BE736D3D5CC61A3E6E0E823E5B5A963EE9
:10CD30004BC2273EA579883EDDB0523ECEBC833F34
:10CD4000666C473E7479773EAD3A013ECA19C03DE4
:10CD5000CCB5263E8956883E42008D3E6FD6943E25
:10CD6000F61B1E3ED46E453E4EB3843FAFA2F93D46
:10CD7000D2B6073E4D1A4F3ED8E938BC45EC963E38
:10CD800011C5A03E708D613E1AD00D3EE78C6F3EFE
:10CD9000AE198A3EA25F853F3183253ECADF0F3E32
:10CDA00074AC903E8ED287BB4AE9273E234E373E75
:10CDB0004496703E270D243ECB208C3E4F1E883E6D
:10CDC0007568843F9C99BA3D27BC243EAF68593EA4
:10CDD000945AECBB7D4B843E3798663E8B50273E81
:10CDE000E7DC723E75F19C3E1FED197A77EE877A8B
:10CDF0001FED1A7A77EE877A5BEC10ABF1EE677A6B
:10CE000017EE900A0AF0B4FA41EC100B08F0C4FDDA
:10CE10001FED217A5FED217AEAEE077A1FED227A83
:10CE2000E9EE877A1FED237AE9EE077A1FED247A7F
:10CE3000E8EE877A1FED257AE8EE077A1FED267A6D
:10CE400077EE877A1FED277A77EE877A1FED287ABB
:10CE500077EE877A1FED297A77EE877A1FED2A7AA7
:10CE600077EE877A59EC108BF1EE677A17EE900A1D
:10CE70000AF07EFA41EC100B08F08EFD1FED317ABE
:10CE80005FED317AEAEE077A1FED327AE9EE877AC2
:10CE90001FED337AE9EE077A1FED347AE8EE877AF0
:10CEA0001FED357AE8EE077A1FED367A77EE877A4E
:10CEB0001FED377A77EE877A1FED387A77EE877A2B
:10CEC0001FED397A77EE877A1FED3A7A77EE877A17
:10CED00057EC106BF1EE677A17EE900A0AF048FAF9
:10CEE00041EC100B08F058FD51EC1B0B0022F44BE9
:10CEF00055EC104B0AF0DEF802460B460020F049D4
:10CF00000AF0B4FB0AF06AFD9FEDEE7ADFEDEE7AEF
:10CF100006EE900AE6EE877A9FEDEC7A2AEE077A23
:10CF2000ECEE877A9FEDEA7A29EE877AECEE877A43
:10CF30009FEDE87A29EE077AECEE877A9FEDE67AA4
:10CF400028EE877AECEE877A9FEDE47A28EE077A6E
:10CF5000ECEE877AF1EE677A17EE900A0AF008FA9B
:10CF600041EC100B08F018FD002251EC100BD44BD3
:10CF70000AF0A0F802460B460020D1490AF076FBE1
:10CF80000AF02CFD00220CEE900ACD4B504659467B
:10CF90000AF090F802460B460020C9490AF066FBE9
:10CFA0000AF01CFD9FEDCE7ADFEDCE7A06EE900AF8
:10CFB000E6EE877A9FEDCC7A2AEE077AECEE077AD6
:10CFC0009FEDCA7A29EE877AECEE077A9FEDC87A50
:10CFD00029EE077AECEE077A9FEDC67A28EE877A7B
:10CFE000ECEE077A9FEDC47A28EE077AECEE077A2A
:10CFF000F1EE677A17EE900A0AF0BAF941EC100BDD
:10D0000008F0CAFC002251EC100BAD4B0AF052F8AC
:10D0100002460B460020AA490AF028FB0AF0DEFC73
:10D0200000220CEE100AA64B404649460AF042F890
:10D0300002460B460020A2490AF018FB0AF0CEFC7B
:10D040009FEDAE7ADFEDAE7A06EE900AE6EE877AD5
:10D050009FEDAC7A2AEE077AEDEE877A9FEDAA7AF9
:10D0600029EE877AEDEE877A9FEDA87A29EE077A86
:10D07000EDEE877A9FEDA67A28EE877AEDEE877A35
:10D080009FEDA47A28EE077AEDEE877AF1EE677AC3
:10D0900017EE900A0AF06CF941EC100B08F07CFCDA
:10D0A000002251EC100B864B0AF004F802460B46A6
:10D0B000002083490AF0DAFA0AF090FC00220BEE15
:10D0C000900A7F4B3046394609F0F4FF02460B4682
:10D0D00000207B490AF0CAFA0AF080FC9FED8E7AA4
:10D0E000DFED8E7A06EE900AE6EE877A9FED8C7A77
:10D0F0002AEE077AEDEE077A9FED8A7A29EE877A93
:10D10000EDEE077A9FED887A29EE077AEDEE077A41
:10D110009FED867A28EE877AEDEE077A9FED847A86
:10D1200028EE077AEDEE077AF1EE677A17EE900AAD
:10D130000AF01EF941EC100B08F02EFC002251EC15
:10D14000100B5F4B09F0B6FF02460B4600205C490E
:10D150000AF08CFA0AF042FC00220BEE100A584B3F
:10D160002046294609F0A6FF02460B4600205449F6
:10D170000AF07CFA0AF032FC9FED6E7ADFED6E7AEF
:10D1800006EE900AE6EE877A9FED6C7A2AEE077A31
:10D19000EAEE877A9FED6A7A29EE877AEAEE877A55
:10D1A0009FED687A29EE077AEAEE877A9FED667A34
:10D1B00028EE877AEAEE877A9FED647A28EE077A7E
:10D1C000EAEE877AF1EE677A17EE900A0AF0D0F865
:10D1D00041EC100B08F0E0FB002251EC100B384B37
:10D1E00009F068FF02460B46002035490AF03EFA76
:10D1F0000AF0F4FB9FED567ADFED567AEAEE077AF5
:10D200009FED557AE9EE877A9FED547AE9EE077A39
:10D210009FED537AE8EE877A9FED527AE8EE077A2F
:10D220009FED517AECEE877A9FED507AECEE077A1B
:10D230009FED4F7AEBEE877A9FED4E7AEBEE077A11
:10D240000AEE900A9FED4C7AEAEE877AF1EE677A61
:10D2500017EE900A0AF08CF841EC100B08F09CFBDA
:10D260009FED467ADFED467AEAEE077A9FED457A42
:10D27000E9EE877A9FED447AE9EE077A9FED437AEB
:10D28000E8EE877A9FED427AE8EE077A9FED417AE1
:10D29000ECEE877A9FED407AECEE077A9FED3F7ACD
:10D2A000EBEE877A9FED3E7AEBEE077A9FED3D7AC3
:10D2B000EAEE877A8DED000BF1EE677AD0E000BFE1
:10D2C0000000F03F4C896F41D757423ED0AB733ED0
:10D2D000379A943EABA8853EBF9C483E09D9223E72
:10D2E000BC3F6E4124A065BC93D0B63E6587BF3E6F
:10D2F00051F3823E132DB23E41C80E3C3CD16C41ED
:10D30000F0C6813DBB8C8D3E9F8EB03E919FA13E6D
:10D310001752AB3E6493F33D19616E410857CB3D04
:10D32000B7EBB43E15F2B33E8C39693EDD1FB13E1A
:10D330005167883D60C56C41CC41263E90C82D3E6A
:10D34000E294AD3E7899883E34349F3E0CF0CD3D5A
:10D35000FD52A4C1DBD9EF41E2D8CFC191ACE3418A
:10D360001254B63F43D070C1D4880CC0C52610C03B
:10D3700059470CC096EA0DC05A7C13C096979AC0C4
:10D3800039A0FA411AC21AC298869A41504B864176
:10D390003F3686BDC5C5ADC0FC73B0C0E96AACC040
:10D3A0002C55B1C0637DAFC022AA0F42D1AF174147
:10D3B000FBB515C2BF5B02C2B4C8A141B6E3AAC1A6
:10D3C0000A7CC63E0924A73E3BA9EA3EA485D73E77
:10D3D000B19DD03EFBCBB24120FF7C4256538FC261
:10D3E0000FFE03C212D2F041C14B2DC0DF655BC0FE
:10D3F000911B55C016F75AC0836B5CC06AA856C013
:10D40000DDA80D42DFD01641D48416C23E2FFAC1EA
:10D410005FB59E410A91A7C18F2F9A3EF3BDE03EB2
:10D42000EAE0B43ED6A3E73E77AF8E3EB045D33CAC
:10D430003D19813FAFE2EA3B942D3BBC17F4943B8E
:10D440008A5CB5BC92481BBD26BDB83DC22D7DBDD2
:10D45000E9D1EB3C0CE747BD87018D3D9BAA173C0A
:10D4600017EE900A09F084FF41EC100B08F094FAD3
:10D470001FED337A5FED337AEAEE077A1FED347AE7
:10D48000E9EE877A1FED357AE9EE077A1FED367AF5
:10D49000E8EE877A1FED377AE8EE077A1FED387AE3
:10D4A000ECEE877A1FED397AECEE077A1FED3A7AC7
:10D4B000EBEE877A1FED3B7AEBEE077A1FED3C7AB5
:10D4C000EAEE877A8DED020BF1EE677A17EE900A9D
:10D4D00009F04EFF41EC100B08F05EFA1FED437AA5
:10D4E0005FED437AB0EE40FAF0EE60FAEAEE077ACA
:10D4F0001FED467AE9EE877A1FED477AE9EE077A63
:10D500001FED487AE8EE877A1FED497AE8EE077A50
:10D510001FED4A7AECEE877A1FED4B7AECEE077A34
:10D520001FED4C7AEBEE877A1FED4D7AEBEE077A22
:10D530001FED4E7AEAEE877AF1EE677A17EE900ADF
:10D5400009F016FF41EC100B08F026FA1FED547A93
:10D550005FED547AEAEE077A1FED557AE9EE877AA5
:10D560001FED567AE9EE077A1FED577AE8EE877AD3
:10D570001FED587AE8EE077A1FED597AECEE877ABC
:10D580001FED5A7AECEE077A1FED5B7AEBEE877AA5
:10D590001FED5C7AEBEE077A1FED5D7AEAEE877A93
:10D5A0005BEC10ABF1EE677A17EE900A09F0E0FE43
:10D5B00041EC100B08F0F0F91FED647A5FED647A2E
:10D5C000EAEE077A1FED657AE9EE877A1FED667A53
:10D5D000E9EE077A1FED677AE8EE877A1FED687A41
:10D5E000E8EE077A1FED697AECEE877A1FED6A7A2A
:10D5F000ECEE077A1FED6B7AEBEE877A1FED6C7A13
:10D60000EBEE077A1FED6D7AEAEE877A1FED6E7A00
:10D6100077EE877A1FED6F7A77EEC77A55EC104B6D
:10D62000F1EE677A17EE900A09F0A2FE41EC100BBA
:10D6300008F0B2F9002251EC100BF84B09F03AFD5A
:10D6400002460B460020F5490AF010F80AF0C6F928
:10D650009FEDF37ADFEDF37AEAEE077A9FEDF27A47
:10D66000E9EE877A9FEDF17AE9EE077A9FEDF07A9D
:10D67000E8EE877A9FEDEF7AE8EE077A9FEDEE7A93
:10D68000ECEE877A9FEDED7AECEE077A9FEDEC7A7F
:10D69000EBEE877A9FEDEB7AEBEE077A9FEDEA7A75
:10D6A000EAEE877A9FEDE97A77EEC77A9FEDE87A1E
:10D6B00077EEC77A0DEE900AF1EE677A17EE900AD0
:10D6C00009F056FE41EC100B08F066F9002251EC0F
:10D6D000100BD24B09F0EEFC02460B460020CF495E
:10D6E00009F0C4FF0AF07AF99FEDDA7ADFEDDA7A11
:10D6F000EAEE077A9FEDD97AE9EE877A9FEDD87A3C
:10D70000E9EE077A9FEDD77AE8EE877A9FEDD67A31
:10D71000E8EE077A9FEDD57AECEE877A9FEDD47A22
:10D72000ECEE077A9FEDD37AEBEE877A9FEDD27A13
:10D73000EBEE077A9FEDD17AEAEE877A9FEDD07A09
:10D7400077EE877A9FEDCF7A77EE877A0DEE100A23
:10D75000F1EE677A17EE900A09F00AFE41EC100B21
:10D7600008F01AF99FEDC87ADFEDC87AEAEE077A79
:10D770009FEDC77AE9EE877A9FEDC67AE9EE077AE0
:10D780009FEDC57AE8EE877A9FEDC47AE8EE077AD6
:10D790009FEDC37AECEE877A9FEDC27AECEE077AC2
:10D7A0009FEDC17AEBEE877A9FEDC07AEBEE077AB8
:10D7B0009FEDBF7AEAEE877A9FEDBE7A77EE877AA1
:10D7C0009FEDBD7A77EE877A59EC108BF1EE677A90
:10D7D00017EE900A09F0CCFD41EC100B08F0DCF8D4
:10D7E00000228E4B4046494657EC106B09F062FC14
:10D7F00002460B460020894909F038FF0AF0EEF88E
:10D800009FEDAE7ADFEDAE7A06EE900AE6EE877A0D
:10D810009FEDAC7A2AEE077AEDEE877A9FEDAA7A31
:10D8200029EE877AEDEE877A9FEDA87A29EE077ABE
:10D83000EDEE877A9FEDA67A28EE877AEDEE877A6D
:10D840009FEDA47A28EE077AEDEE877A9FEDA27A13
:10D850002CEE877AEDEE877A9FEDA07A2CEE077A90
:10D86000EDEE877A9FED9E7A2BEE877AEDEE877A42
:10D870009FED9C7A2BEE077AEDEE877A9FED9A7AF0
:10D880002AEE877AEDEE877AF1EE677A17EE900A44
:10D8900009F06EFD41EC100B08F07EF8002251EC0F
:10D8A000100B5E4B09F006FC02460B4600205B495C
:10D8B00009F0DCFE0AF092F800220DEE900A574BB8
:10D8C0003046394609F0F6FB02460B460020534924
:10D8D00009F0CCFE0AF082F89FED847ADFED847ABD
:10D8E00006EE900AE6EE877A9FED827A2AEE077AB4
:10D8F000EDEE077A9FED807A29EE877AEDEE077AD2
:10D900009FED7E7A29EE077AEDEE077A9FED7C7A1D
:10D9100028EE877AEDEE077A9FED7A7A28EE077A7D
:10D92000EDEE077A9FED787A2CEE877AEDEE077AA6
:10D930009FED767A2CEE077AEDEE077A9FED747AFA
:10D940002BEE877AEDEE077A9FED727A2BEE077A4F
:10D95000EDEE077A9FED707A2AEE877AEDEE077A80
:10D96000F1EE677A17EE900A09F002FD41EC100B18
:10D9700008F012F8002251EC100B284B09F09AFB2A
:10D9800002460B460020254909F070FE0AF026F8F1
:10D990009FED627ADFED627AEAEE077A9FED617AB7
:10D9A000E9EE877A9FED607AE9EE077A9FED5F7A7C
:10D9B000E8EE877A9FED5E7AE8EE077A9FED5D7A72
:10D9C000ECEE877A9FED5C7AECEE077A9FED5B7A5E
:10D9D000EBEE877A9FED5A7AEBEE077A9FED597A54
:10D9E000EAEE877A9FED587AEDEE877A0DEE100A0F
:10D9F0009FED567AEDEE077AF1EE677A17EE900A10
:10DA000009F0B6FC41EC100B07F0C6FF9FED507A11
:10DA1000DFED507AEAEE077AB4E000BF0000F03F95
:10DA2000902FFB3B29CA803F3754B03C4A101D3D24
:10DA30000B95E43D86DD993D45167C3D36E1EE3D96
:10DA4000D02DB5BC6855343DCD7FD23C2E16403D1F
:10DA5000B9AB6D3DE84F153DE094843F00B45B3DAC
:10DA60005F2FD73D67A88E3D21762DBC6EB1C73D97
:10DA7000533A323ED679623E0E559D3DD1794C3EA9
:10DA80003847FD3DAD3D0A3EF9F8BD3CAAB7833F9E
:10DA90003CCFFC3C6A08A33D3A74053EAFD6C83C77
:10DAA00048049D3D13D7D83DD4E9283ED215613EA8
:10DAB000D42A453EB4D0A53DA4822C3E62CF4C4131
:10DAC000425CC83D13BCF73DD21C203EC3127E3ED3
:10DAD0006576273EF367EB3D1BCC963D0FB9343E90
:10DAE0003ECAC03DA7458D3EA28E8D3E28054B41C6
:10DAF0008DE5613D676A093E96BC543E57F1D63DBF
:10DB0000026C6C3ECF57E83AB3EFF53DDDB15D3EB8
:10DB1000E1CBD73DB9C56B3E39D2803EBCFCFA4162
:10DB2000D71BE03FCD2D81C12849E1419B887A4137
:10DB300000AF1A413D5DF1C0191AF4C067F9F1C098
:10DB40009C68F4C0A001F5C01303F7C06EA5F3C034
:10DB5000A824C73F17E4A140FDC73EC1ECB09940DF
:10DB60006D7C61408ECFBBBFC84C3CBF007A5DBFAF
:10DB7000BF3C5EBF0F5364BFAC504BBF0AAD67BF25
:10DB80005B8F5ABF1FED0C7AE9EE877A1FED0D7A95
:10DB9000E9EE077A1FED0E7AE8EE877A1FED0F7A2D
:10DBA000E8EE077A1FED107AECEE877A1FED117A16
:10DBB000ECEE077A1FED127AEBEE877A1FED137AFF
:10DBC000EBEE077A1FED147AEAEE877A1FED157AED
:10DBD000EDEE877A1FED167AEDEE077A57EC106BB3
:10DBE000F1EE677A17EE900A09F0C2FB41EC100BD8
:10DBF00007F0D2FE002251EC100B694B09F05AFAE3
:10DC000002460B460020664909F030FD09F0E6FEA9
:10DC100000220490624B3046394609F04BFA024626
:10DC20000B4600205E4909F021FD09F0D7FE0022D5
:10DC300005905B4B2046294609F03CFA02460B460C
:10DC40000020574909F012FD09F0C8FE00220EEE2F
:10DC5000100A534B5046594609F02CFA02460B461F
:10DC600000204F4909F002FD09F0B8FE00220EEE37
:10DC7000900A4B4B51EC1F0B09F01CFA02460B4665
:10DC80000020474909F0F2FC09F0A8FE00220FEE3F
:10DC9000100A434BDDE9020109F00CFA02460B467B
:10DCA00000203F4909F0E2FC09F098FE00220FEE47
:10DCB000900A3B4BDDE9000109F0FCF902460B46F6
:10DCC0000020374909F0D2FC09F088FEDFED357AF3
:10DCD00007EE100A6CEEA7CADFED337AE7EE2C7A76
:10DCE0009FED327A2CEE07CA9FED317AEFEE8C7AF7
:10DCF0006BEE87BA9FED2F7AEFEE2B7A2BEE07BAF9
:10DD00009FED2D7AEEEE8B7A6AEE87AA9FED2B7A45
:10DD1000EEEE2A7A6DEE87DA9DED057AE7EE2D7A42
:10DD20009FED277A2DEE07DA9DED047AE7EE0D7A66
:10DD30009FED247AEAEE077A9FED237AE9EE877A5F
:10DD40009FED227AE9EE077A9FED217AE8EE877A55
:10DD50009FED207AE8EE077AF1EE677A17EE900AE7
:10DD600009F006FB41EC100B07F016FE002251EC07
:10DD7000100B0B4B09F09EF902460B460020084998
:10DD800009F074FC09F02AFE9FED130A07EE900AD1
:10DD900027EE800A07B0BDEC108BBDE8F08F00BF06
:10DDA0000000F03F3E6CB9C030B1BB401192B7C02B
:10DDB000103C1EC18B3C2FC1A9841DC1D7C504C115
:10DDC000462D15C0C4E96140F8D8844224E8DCC17E
:10DDD0006A18D6C145747CC10000C8429FEDF87A2C
:10DDE000DFEDF87AE0EE077A2DE9F04F9FEDF67A55
:10DDF000E0EE877A9FEDF57AE1EE077A9FEDF47A0F
:10DE0000E1EE877A9FEDF37AE2EE077A9FEDF27A00
:10DE1000E2EE877A9FEDF17AE3EE077A9FEDF07AF2
:10DE200077EE877A9FEDEF7A77EE877A9FEDEE7A3D
:10DE300077EE877A9FEDED7A77EE877A9FEDEC7A31
:10DE40002DED108B77EE877A89B0F1EE677A17EEB9
:10DE5000900AB0EE41AAF0EE619AB0EE429AF0EE6E
:10DE6000628AB0EE438AB0EE40BAF0EE60AA09F0E2
:10DE70007FFA41EC100B07F08FFD002251EC100BE4
:10DE8000DC4B09F017F902460B460020D94909F08E
:10DE9000EDFB09F0A3FD9FEDD87ADFEDD87AEBEE2C
:10DEA000077A9FEDD77AEAEE877A9FEDD67AEAEE87
:10DEB000077A9FEDD57AE9EE877A9FEDD47AE9EE7D
:10DEC000077A9FEDD37AE8EE877A9FEDD27AE8EE73
:10DED000077A9FEDD17A77EEC77A9FEDD07A77EE09
:10DEE000877A9FEDCF7A77EE877A9FEDCE7A77EEBD
:10DEF000C77A9FEDCD7A77EE877A0BEE900AF1EE36
:10DF0000677A17EE900A09F033FA41EC100B07F02C
:10DF100043FD002251EC100BB64B09F0CBF8024642
:10DF20000B460020B34909F0A1FB09F057FD9FED16
:10DF3000BF7ADFEDBF7AEBEE077A9FEDBE7AEAEEAD
:10DF4000877A9FEDBD7AEAEE077A9FEDBC7AE9EE1B
:10DF5000877A9FEDBB7AE9EE077A9FEDBA7AE8EE11
:10DF6000877A9FEDB97AE8EE077A9FEDB87A77EE77
:10DF7000877A9FEDB77A77EE877A9FEDB67A77EE5C
:10DF8000C77A9FEDB57A77EE877A9FEDB47A77EE10
:10DF9000C77A0DEE100AF1EE677A17EE900A09F0D3
:10DFA000E7F941EC100B07F0F7FC002251EC100BE5
:10DFB000904B09F07FF802460B4600208D4909F08E
:10DFC00055FB09F00BFD9FEDA67ADFEDA67AEBEE8F
:10DFD000077A9FEDA57AEAEE877A9FEDA47AEAEEBA
:10DFE000077A9FEDA37AE9EE877A9FEDA27AE9EEB0
:10DFF000077A9FEDA17AE8EE877A9FEDA07AE8EEA6
:10E00000077A9FED9F7A77EE877A9FED9E7A77EE7B
:10E01000877A9FED9D7A77EE877A9FED9C7A77EEEF
:10E02000C77A9FED9B7A77EEC77A0EEE100AF1EE73
:10E03000677A17EE900A09F09BF941EC100B07F094
:10E04000ABFC002251EC100B6A4B09F033F802468E
:10E050000B460020674909F009FB09F0BFFC9FED62
:10E060008D7ADFED8D7AEBEE077A9FED8C7AEAEE12
:10E07000877A9FED8B7AEAEE077A9FED8A7AE9EE4E
:10E08000877A9FED897AE9EE077A9FED887AE8EE44
:10E09000877A9FED877AE8EE077A9FED867A77EEAA
:10E0A000877A9FED857A77EEC77A9FED847A77EE4F
:10E0B000877A9FED837A77EE877A9FED827A77EE83
:10E0C000C77A0DEE900AF1EE677A17EE900A09F022
:10E0D0004FF941EC100B07F05FFC002251EC100BE4
:10E0E000444B08F0E7FF02460B460020414909F087
:10E0F000BDFA09F073FC9FED747ADFED747AEBEEF4
:10E10000077A9FED737AEAEE877A9FED727AEAEEEC
:10E11000077A9FED717AE9EE877A9FED707AE9EEE2
:10E12000077A9FED6F7AE8EE877A9FED6E7AE8EED8
:10E13000077A9FED6D7A77EE877A9FED6C7A77EEAE
:10E14000C77A9FED6B7A77EE877A9FED6A7A77EEE2
:10E15000877A9FED697A77EEC77A0EEE900AF1EE34
:10E16000677A17EE900A09F003F941EC100B07F0FB
:10E1700013FC9FED627ADFED627AEBEE077A9FED9A
:10E18000617AEAEE877A9FED607AEAEE077A9FED90
:10E190005F7AE9EE877A9FED5E7AE9EE077A9FED86
:10E1A0005D7AE8EE877A9FED5C7AE8EE077A9FED7C
:10E1B0005B7A77EE877A9FED5A7A77EE877A05E178
:10E1C000DE37383E3EF4B33F4B34E93DB16816BD0F
:10E1D00033CFBF3D9918D3BDEE7E22BD977EA4BC40
:10E1E00054F0F53D171F3F3E06A0C53D697C413EFA
:10E1F00072D5713E0000F03F7FDECFBC4A19813FEF
:10E200001A954B3CACFB8F3C22AF413DB9A9DF3D99
:10E21000871486BD9F91A33D5EB5823D61CA863D50
:10E2200057FE8F3D0D6F2B3D69E45E3CAFC4913DC1
:10E230002302813F6F19623BDC1493BD5227AB3D33
:10E24000C9A20E3CF368B73C4AFACE3D8E28633C27
:10E25000A6D4CB3DFE470E3C6F08893BAFFB8E3DFD
:10E260008F688B3D47F4803F5B0A28BDEB287B3DE0
:10E2700008AF8F3D78AAA73C42C0A93C6D1E523C16
:10E28000205C8F3D2D5A5F3D229DAC3DE187193DBD
:10E29000B4788A3DE0AABA3D8214813F172465BC58
:10E2A00092A541BDD6D4CD3CB186D13D97F108BDF4
:10E2B000319EB63DCC92B93D37C3B93C057CA03DFB
:10E2C0005F25F53D08353E3D492DD7BDF58D873F8E
:10E2D000EE72CBBD9759F4BE903AE63E643F24BE41
:10E2E0008EF3813E17C0BBBD52329E3DE108653DB5
:10E2F000283C2A3D514A953C661B7B3D5A0ADA3D33
:10E3000086C2853F0791EB3D095E463E26B9123E27
:10E310002F0A2B3EC7AB6D3D6C834FBDEC6ED23DDB
:10E32000CA14683E3E6AF93D731FFD3D555A903E42
:10E330008EB9A33D894C853F56A8853EE5EE713EDA
:10E34000329B803EE50E9C3DEA79CA3DC23B86BDCC
:10E35000601ABA3D19CA5F3E741EBA3DC9400E3EEE
:10E36000418BFB3D5B7B653E69F5843FD205FD3DFE
:10E370000A25083ED355643EA536B23B5D83DE3D9B
:10E380000CB8DBBBA5C7273D790E353E3ACF243EFE
:10E390009F985A3E2B3B253E6559D43DE850853F1A
:10E3A0001E70833EEE222D3ED350603ED206253EA7
:10E3B0003A08053E8818CB3CD844693D3914063EDE
:10E3C00087FCFB3D7478273E8F5A4A3E1FED2B7A1F
:10E3D00077EE877A1FED2C7A77EE877A1FED2D7A0C
:10E3E00077EE877A5BEC10ABF1EE677A17EE900A66
:10E3F00008F0BEFF41EC100B07F0CEFA1FED347AA7
:10E400005FED347AEBEE077A1FED357AEAEE877A24
:10E410001FED367AEAEE077A1FED377AE9EE877A52
:10E420001FED387AE9EE077A1FED397AE8EE877A40
:10E430001FED3A7AE8EE077A1FED3B7A77EE877A9E
:10E440001FED3C7A77EE877A1FED3D7A77EE877A7B
:10E450001FED3E7A77EE877A1FED3F7A77EE877A67
:10E4600059EC108BF1EE677A17EE900A08F080FFF6
:10E4700041EC100B07F090FA1FED467A5FED467AFB
:10E48000EBEE077A1FED477AEAEE877A1FED487ABE
:10E49000EAEE077A1FED497AE9EE877A1FED4A7AAC
:10E4A000E9EE077A1FED4B7AE8EE877A1FED4C7A9A
:10E4B000E8EE077A1FED4D7A77EE877A1FED4E7AF8
:10E4C00077EE877A1FED4F7A77EE877A1FED507AD5
:10E4D00077EE877A1FED517A77EE877A57EC106BDB
:10E4E000F1EE677A17EE900A08F042FF41EC100B4C
:10E4F00007F052FA1FED587A5FED587AEBEE077A83
:10E500001FED597AEAEE877A1FED5A7AEAEE077A1A
:10E510001FED5B7AE9EE877A1FED5C7AE9EE077A08
:10E520001FED5D7AE8EE877A1FED5E7AE8EE077AF6
:10E530001FED5F7A77EE877A1FED607A77EE877A44
:10E540001FED617A77EE877A1FED627A77EE877A30
:10E550001FED637A77EE877A55EC104BF1EE677A10
:10E5600017EE900A08F004FF41EC100B07F014FAC4
:10E570000022F34BB0EE40CAF0EE60CA5046594656
:10E5800008F098FD02460B460020ED4909F06EF8B0
:10E5900009F024FA9FEDEB7ADFEDEB7A06EE900AB4
:10E5A000E6EE877A9FEDE97A2BEE077AEBEE877A33
:10E5B0009FEDE77A2AEE877AEBEE877A9FEDE57A90
:10E5C0002AEE077AEBEE877A9FEDE37A29EE877AD7
:10E5D000EBEE877A9FEDE17A29EE077AEBEE877A08
:10E5E0009FEDDF7A28EE877AEBEE877A9FEDDD7A72
:10E5F00028EE077AEBEE877AF1EE677A17EE900A4B
:10E6000008F0B6FE41EC100B07F0C6F9002251EC01
:10E61000100BCB4B08F04EFD02460B460020C849BC
:10E6200009F024F809F0DAF900220BEE900AC44B45
:10E630004046494608F03EFD02460B460020C049D0
:10E6400009F014F809F0CAF99FEDC77ADFEDC77A2F
:10E6500006EE900AE6EE877A9FEDC57A2BEE077AF2
:10E66000EDEE077A9FEDC37A2AEE877AEDEE077A10
:10E670009FEDC17A2AEE077AEDEE077A9FEDBF7A19
:10E6800029EE877AEDEE077A9FEDBD7A29EE077ABB
:10E69000EDEE077A9FEDBB7A28EE877AEDEE077AEA
:10E6A0009FEDB97A28EE077AEDEE077AF1EE677AF8
:10E6B00017EE900A08F05CFE41EC100B07F06CF9C5
:10E6C000002251EC100B9E4B08F0F4FC02460B4666
:10E6D00000209B4908F0CAFF09F080F900220DEEE6
:10E6E000100A974B3046394608F0E4FC02460B46C8
:10E6F0000020934908F0BAFF09F070F99FEDA37A62
:10E70000DFEDA37A06EE900AE6EE877A9FEDA17A16
:10E710002BEE077AEEEE077A9FED9F7A2AEE877A44
:10E72000EEEE077A9FED9D7A2AEE077AEEEE077AF3
:10E730009FED9B7A29EE877AEEEE077A9FED997A24
:10E7400029EE077AEEEE077A9FED977A28EE877A20
:10E75000EEEE077A9FED957A28EE077AEEEE077ACD
:10E76000F1EE677A17EE900A08F002FE41EC100B0A
:10E7700007F012F9002251EC100B714B08F09AFCD3
:10E7800002460B4600206E4908F070FF09F026F99A
:10E7900000220EEE100A6A4B2046294608F08AFC39
:10E7A00002460B460020664908F060FF09F016F9A2
:10E7B0009FED7F7ADFED7F7A06EE900AE6EE877AAC
:10E7C0009FED7D7A2BEE077AEDEE877A9FED7B7ACF
:10E7D0002AEE877AEDEE877A9FED797A2AEE077A2C
:10E7E000EDEE877A9FED777A29EE877AEDEE877ADC
:10E7F0009FED757A29EE077AEDEE877A9FED737AB1
:10E8000028EE877AEDEE877A9FED717A28EE077A07
:10E81000EDEE877AF1EE677A17EE900A08F0A8FD20
:10E8200041EC100B07F0B8F8002251EC100B444BF0
:10E8300008F040FC02460B460020414908F016FF54
:10E8400009F0CCF800220DEE900A3D4B51EC1C0B68
:10E8500008F030FC02460B460020394908F006FF5C
:10E8600009F0BCF89FED5B7ADFED5B7A06EE900A6B
:10E87000E6EE877A9FED597A2BEE077AEEEE877AED
:10E880009FED577A2AEE877AEEEE877A9FED557ADA
:10E890002AEE077AEEEE877A9FED537A29EE877A91
:10E8A000EEEE877A9FED517A29EE077AEEEE877ABF
:10E8B0009FED4F7A28EE877AEEEE877A9FED4D7ABC
:10E8C00028EE077AEEEE877AF1EE677A17EE900A75
:10E8D00008F04EFD41EC100B07F05EF8002251EC01
:10E8E000100B174B08F0E6FB02460B4600201449BC
:10E8F00008F0BCFE09F072F89FED3F7ADFED3F7A39
:10E90000EBEE077A9FED3E7AEAEE877A9FED3D7A4D
:10E91000EAEE077A9FED3C7AE9EE877A9FED3B7A43
:10E92000E9EE077A9FED3A7AE8EE877A9FED397A39
:10E93000E8EE077A9FED387AEBEE877AFCE000BFCD
:10E940000000F03F50252541C785433FB2BFEA3E56
:10E950004B4FDD3EEB01C6BE1D49D33FC85608BE36
:10E96000305C203F891C22BC5FF83841D0332F3EF9
:10E97000330F523E440F933EB1039F3E653B383EFA
:10E980003936403EC2D97F3EDE76853C08943F4111
:10E9900029E2213E1BC2613E0C9E833E1358633E1A
:10E9A0009F44823ECA57FD3B83E79B3EA247DA3D28
:10E9B0009B174541070C0D3E907E8F3E4D7EB73E26
:10E9C000E03E7C3E359F823E8C75B63C98B2013E5F
:10E9D0002BF48E3DAF62414190D61F3EBF4D563E57
:10E9E0008AF99B3EC8EF953E37E8783EA5033F3D48
:10E9F00046535D3EED8597BDCC71D8BEFC98F33F84
:10EA0000CAF312BFD85D2DBF3BF44EBE1F2D34BFDD
:10EA1000EA56D4BE268687BEDE1FBCBED559B5BE1B
:10EA20004036C3BEA136AFBE1F66DDBEEF97BA3F0C
:10EA3000298B9640EC681741A7D3D741C4E5E0C1C4
:10EA4000495D89BF840C9C4054F4DDBE0B9C4BC0D7
:10EA5000EA3C55C0026458C0060158C017F857C0B8
:10EA6000E88F9BBC424825407B11CC3E560CEA3FC8
:10EA7000E11F36C0E2BD1A3FE7E79CBF24680C3EA9
:10EA80004E640BBF72B224BF647B2CBFF29510BFE3
:10EA9000F24539BFC9A5313F433B9B40976EA44027
:10EAA000C8E27C41E48989C146F85ABF01837840B5
:10EAB000B32C00BE8CE114C0038015C0B21719C07E
:10EAC000654813C0917016C0CA665F4075278140C3
:10EAD00063EFA44056DD8741BC03ADC1D0934440F1
:10EAE0000420ECC06C096BC002A495BF8E849CBF4F
:10EAF000803E92BFEC349DBFC3AB95BFBF9F25BD89
:10EB00001F8F803F53FDA73DDE00F33C6BC9FFBC68
:10EB10001D02BE3CA986B0BD8BD5B63C202AACBD3B
:10EB2000076DB43D59605FBDE72BACBD2880373D14
:10EB30001600F13ADFB1DC3D1FED487AEDEE077AC1
:10EB40001FED497AEEEE077A1FED4A7AEDEE877AED
:10EB50000CEE100A1FED4C7AECEE077AF1EE677AB4
:10EB600017EE900A08F004FC41EC100B06F014FFBD
:10EB70001FED527A5FED527AEBEE077A1FED537A72
:10EB8000EAEE877A1FED547AEAEE077A1FED557A9E
:10EB9000E9EE877A1FED567AE9EE077A1FED577A8C
:10EBA000E8EE877A1FED587AE8EE077A1FED597A7A
:10EBB000EBEE877A1FED5A7AEDEE077A1FED5B7A5E
:10EBC000EEEE077A1FED5C7AEDEE877A1FED5D7A47
:10EBD000ECEE077A8DED000BF1EE677A17EE900AF6
:10EBE00008F0C6FB41EC100B06F0D6FE1FED647A70
:10EBF0005FED647AEBEE077A1FED657AEAEE877ACD
:10EC00001FED667AEAEE077A1FED677AE9EE877AFA
:10EC10001FED687AE9EE077A1FED697AE8EE877AE8
:10EC20001FED6A7AE8EE077A1FED6B7AEBEE877AD2
:10EC30001FED6C7AEDEE077A1FED6D7AEEEE077A36
:10EC40001FED6E7AEDEE877A1FED6F7AECEE077AA4
:10EC50008DED020BF1EE677A17EE900A08F088FB53
:10EC600041EC100B06F098FE1FED767A5FED767A98
:10EC7000B0EE40FAF0EE60FAEBEE077A1FED797A2B
:10EC8000EAEE877A1FED7A7AEAEE077A1FED7B7A51
:10EC9000E9EE877A1FED7C7AE9EE077A1FED7D7A3F
:10ECA000E8EE877A1FED7E7AE8EE077A1FED7F7A2D
:10ECB000EBEE877A1FED807AEDEE077A1FED817A11
:10ECC000EEEE077A1FED827AEDEE877A1FED837AFA
:10ECD000ECEE077AF1EE677A17EE900A08F048FB3F
:10ECE00041EC100B06F058FE1FED897A5FED897A32
:10ECF000EBEE077A1FED8A7AEAEE877A1FED8B7AC0
:10ED0000EAEE077A1FED8C7AE9EE877A1FED8D7AAD
:10ED1000E9EE077A1FED8E7AE8EE877A1FED8F7A9B
:10ED2000E8EE077A1FED907AEBEE877A1FED917A85
:10ED3000EDEE077A1FED927AEEEE077A1FED937AE9
:10ED4000EDEE877A1FED947AECEE077A5BEC10AB70
:10ED5000F1EE677A17EE900A08F00AFB41EC100B0F
:10ED600006F01AFE1FED9B7A5FED9B7AEBEE077AB9
:10ED70001FED9C7AEAEE877A1FED9D7AEAEE077A1C
:10ED80001FED9E7AE9EE877A1FED9F7AE9EE077A0A
:10ED90001FEDA07AE8EE877A1FEDA17AE8EE077AF8
:10EDA0001FEDA27AEBEE877A1FEDA37AEDEE077ADC
:10EDB0001FEDA47AEEEE077A1FEDA57AEDEE877AC5
:10EDC0001FEDA67AECEE077A1FEDA77A77EE877A29
:10EDD0001FEDA87A77EE877A55EC104BF1EE677A43
:10EDE00017EE900A08F0C4FA41EC100B06F0D4FDBF
:10EDF000002251EC100BF74B08F05CF902460B4671
:10EE00000020F44908F032FC08F0E8FD9FEDF27AAA
:10EE1000DFEDF27AEBEE077A9FEDF17AEAEE877A90
:10EE20009FEDF07AEAEE077A9FEDEF7AE9EE877AC6
:10EE30009FEDEE7AE9EE077A9FEDED7AE8EE877ABC
:10EE40009FEDEC7AE8EE077A9FEDEB7AEBEE877AAE
:10EE50009FEDEA7AEDEE077A9FEDE97AEEEE077A1A
:10EE60009FEDE87AEDEE877A9FEDE77AECEE077A90
:10EE70009FEDE67A77EE877A9FEDE57A77EEC77AAF
:10EE80000EEE900AF1EE677A17EE900A08F070FA2B
:10EE900041EC100B06F080FD002251EC100BCD4B25
:10EEA00008F008F902460B460020CA4908F0DEFBCC
:10EEB00008F094FD9FEDD77ADFEDD77AEBEE077A75
:10EEC0009FEDD67AEAEE877A9FEDD57AEAEE077A59
:10EED0009FEDD47AE9EE877A9FEDD37AE9EE077A4F
:10EEE0009FEDD27AE8EE877A9FEDD17AE8EE077A45
:10EEF0009FEDD07AEBEE877A9FEDCF7AEDEE077A31
:10EF00009FEDCE7AEEEE077A9FEDCD7AEDEE877A21
:10EF10009FEDCC7AECEE077A9FEDCB7A77EE877A8D
:10EF20009FEDCA7A77EE877A0CEE900AF1EE677A57
:10EF300017EE900A08F01CFA41EC100B06F02CFDBD
:10EF40009FEDC37ADFEDC37AEBEE077A9FEDC27ACD
:10EF5000EAEE877A9FEDC17AEAEE077A9FEDC07AF2
:10EF6000E9EE877A9FEDBF7AE9EE077A9FEDBE7AE8
:10EF7000E8EE877A9FEDBD7AE8EE077A9FEDBC7ADE
:10EF8000EBEE877A9FEDBB7AEDEE077A9FEDBA7ACA
:10EF9000EEEE077A9FEDB97AEDEE877A9FEDB87ABB
:10EFA000ECEE077A9FEDB77A77EE877A9FEDB67A27
:10EFB00077EE877A59EC108BF1EE677A17EE900AAC
:10EFC00008F0D6F941EC100B06F0E6FC0022814B6C
:10EFD0004046494657EC106B08F06CF802460B4669
:10EFE00000207C4908F042FB08F0F8FC9FEDA77A6E
:10EFF000DFEDA77A06EE900AE6EE877A9FEDA57A16
:10F000002BEE077AEEEE877A9FEDA37A2AEE877AC7
:10F01000EEEE877A9FEDA17A2AEE077AEEEE877AF6
:10F020009FED9F7A29EE877AEEEE877A9FED9D7AA3
:10F0300029EE077AEEEE877A9FED9B7A28EE877AA3
:10F04000EEEE877A9FED997A28EE077AEEEE877AD0
:10F050009FED977A2BEE877AEEEE877A9FED957A81
:10F060002DEE077AEEEE877A9FED937A2EEE077AF1
:10F07000EEEE877A9FED917A2DEE877AEEEE877A23
:10F080009FED8F7A2CEE077AEEEE877AF1EE677AB3
:10F0900017EE900A08F06CF941EC100B06F07CFCBE
:10F0A000002251EC100B4B4B08F004F802460B46C3
:10F0B0000020484908F0DAFA08F090FC00220EEE31
:10F0C000900A444B3046394607F0F4FF02460B469F
:10F0D0000020404908F0CAFA08F080FC9FED797AD8
:10F0E000DFED797A06EE900AE6EE877A9FED777A81
:10F0F0002BEE077AECEE877A9FED757A2AEE877A07
:10F10000ECEE877A9FED737A2AEE077AECEE877A37
:10F110009FED717A29EE877AECEE877A9FED6F7A10
:10F1200029EE077AECEE877A9FED6D7A28EE877AE2
:10F13000ECEE877A9FED6B7A28EE077AECEE877A11
:10F140009FED697A2BEE877AECEE877A9FED677AEE
:10F150002DEE077AECEE877A9FED657A2EEE077A30
:10F16000ECEE877A9FED637A2DEE877AECEE877A64
:10F170009FED617A2CEE077AECEE877AF1EE677AF2
:10F1800017EE900A08F0F4F841EC100B06F004FCBE
:10F19000002251EC100B0F4B07F08CFF02460B4680
:10F1A00000200C4908F062FA08F018FC9FED537A31
:10F1B000DFED537AEBEE077A9FED527AEAEE877A2B
:10F1C0009FED517AEAEE077A9FED507AE9EE877A61
:10F1D000D0E000BF0000F03F0CEB6DBD4AB4803FB3
:10F1E000B751963D72E79C3D2A01243D13B2C23DC2
:10F1F000AEE27C3CCC2080BD78E1A8BDDD465EBDA2
:10F20000F29B94BD743613BD5A91713C3B404F3D07
:10F21000A06D8B3C2040593CDAEF813F14F5BA3D9C
:10F22000CF82B83D18739A3D5E1AB03C90E0483BDF
:10F23000FFBCC3BD9AF20E3D1D4CBD3DF8947DBC94
:10F24000C4EA1E3ECF929C3D3F73EC3D0EFBD83D81
:10F250006918E63D8504833F882DAD3D72E2A23DED
:10F2600076B71F3D98B243BD88031BBDC8433BBD65
:10F2700025D5693D79817A3CAEA38BBCF83AAA3D8D
:10F280000E8010BCD13FEE3DB6C60F3D4393B84053
:10F29000661C833DBAA4083E982E933C32F0543E3F
:10F2A000F23D7F3D3E0E123E6782093E4BFB2F3CF6
:10F2B000EF59573DECDB3C3E25F0D03DB470253E88
:10F2C000B2619E3D84C5A24010E3903D5E5F143E56
:10F2D000A61D463D01EB2A3EC25A213EC0758ABC9E
:10F2E00018E9223E15BFC33DF8EA103EAAB92E3EEA
:10F2F0003D0F003E7E6D543D2364F43D69891ABE86
:10F300005B66FD3F5EFA103D50DD813F2C3CEFBF58
:10F31000F114923E05F329BE227236BEF14CBEBEF8
:10F32000D20A06BF0131D5BEBB3D02BF78C7E1BEE0
:10F330004739F6BEE16BF6BEDCB99FBEF557C83F54
:10F340000A0CA7BEF00F3DBED8F972BF8F4E053D27
:10F350001CE19BBE574F1FBEC67E0ABF0A37E8BEE0
:10F3600089CBFABE1D561ABF54BADEBE38FFFEBEA8
:10F370004C92DEBE1FED1A7AE9EE077A1FED1B7A7A
:10F38000E8EE877A1FED1C7AE8EE077A1FED1D7A0A
:10F39000EBEE877A1FED1E7AEDEE077A1FED1F7AEE
:10F3A000EEEE077A1FED207AEDEE877A1FED217AD7
:10F3B000ECEE077A1FED227AEEEE877A0CEE900AD9
:10F3C0001FED247AECEE877AF1EE677A17EE900A59
:10F3D00007F0CEFF41EC100B06F0DEFA1FED2A7AA3
:10F3E0005FED2A7AEBEE077A1FED2B7AEAEE877A49
:10F3F0001FED2C7AEAEE077A1FED2D7AE9EE877A77
:10F400001FED2E7AE9EE077A1FED2F7AE8EE877A64
:10F410001FED307AE8EE077A1FED317AEBEE877A4E
:10F420001FED327AEDEE077A1FED337AEEEE077AB2
:10F430001FED347AEDEE877A1FED357AECEE077A20
:10F440001FED367AEEEE877A1FED377AECEE877A8B
:10F4500057EC106BF1EE677A17EE900A07F088FF11
:10F4600041EC100B06F098FA002251EC100B6E4B99
:10F4700007F020FE02460B4600206B4908F0F6F824
:10F4800008F0ACFA00220490674B3046394607F08A
:10F4900011FE02460B460020634908F0E7F808F029
:10F4A0009DFA00220590604B2046294607F002FE97
:10F4B00002460B4600205C4908F0D8F808F08EFAA6
:10F4C00000220690584B5046594607F0F3FD02467D
:10F4D0000B460020544908F0C9F808F07FFA0022D2
:10F4E0000790514B51EC1F0B07F0E4FD02460B4611
:10F4F00000204D4908F0BAF808F070FA00220FEE2B
:10F50000100A494BDDE9020107F0D4FD02460B4623
:10F510000020454908F0AAF808F060FA00220FEE32
:10F52000900A414BDDE9000107F0C4FD02460B469D
:10F5300000203D4908F09AF808F050FADFED3B7AD8
:10F5400007EE100A6BEEA7BADFED397AE7EE2B7AF9
:10F550009FED387A2DEE07DA9FED377AEFEE8D7A50
:10F560002EEE07EA9FED357AEFEE0E7A6DEE87DA32
:10F570009DED077AE7EE2D7A9FED317A2CEE07CAE2
:10F580009DED067AE7EE0C7A9FED2E7A6EEE87EA15
:10F590009DED057AE7EE2E7A9FED2B7A6CEE87CA09
:10F5A0009DED047AE7EE2C7A9FED287AEBEE077A50
:10F5B0009FED277AEAEE877A9FED267AEAEE077AC0
:10F5C0009FED257AE9EE877A9FED247AE9EE077AB6
:10F5D0009FED237AE8EE877A9FED227AE8EE077AAC
:10F5E000F1EE677A17EE900A07F0C2FE41EC100BBD
:10F5F00006F0D2F9002251EC100B0B4B07F05AFD2C
:10F6000002460B460020084908F030F808F0E6F9F9
:10F610009FED150A07EE900A27EE800A09B0BDECAF
:10F62000108BBDE8F08F00BF0000F03F42954CBF4B
:10F63000DCA2B6C0B5204E4195DEB63F921CF2402A
:10F640005BF65F412F76553F5001063ED89F344010
:10F65000714E034152E02F42F3075EC246C2343F6F
:10F6600079EB9AC0A43B0BC10000C8429FEDF87A29
:10F67000DFEDF87AE0EE077A2DE9F04F9FEDF67AAC
:10F68000E0EE877A9FEDF57AE1EE077A9FEDF47A66
:10F69000E1EE877A9FEDF37AE2EE077A9FEDF27A58
:10F6A00077EE877A9FEDF17A77EEC77A9FEDF07A61
:10F6B00077EE877A9FEDEF7A77EE877A9FEDEE7A95
:10F6C0002DED108B77EEC77A87B0F1EE677A17EEE3
:10F6D000900AB0EE419AF0EE618AB0EE428AB0EE46
:10F6E00040AAF0EE609A07F043FE41EC100B06F0E2
:10F6F00053F9002251EC100BE04B07F0DBFC024603
:10F700000B460020DD4907F0B1FF08F067F99FEDD7
:10F71000DC7ADFEDDC7AEAEE077A9FEDDB7AE9EE60
:10F72000877A9FEDDA7AE9EE077A9FEDD97AE8EEEB
:10F73000877A9FEDD87AE8EE077A9FEDD77A77EE51
:10F74000C77A9FEDD67A77EEC77A9FEDD57A77EEB6
:10F75000877A9FEDD47A77EEC77A9FEDD37A77EEEA
:10F76000877A0CEE900AF1EE677A17EE900A07F0AE
:10F77000FFFD41EC100B06F00FF9002251EC100BCD
:10F78000BE4B07F097FC02460B460020BB4907F032
:10F790006DFF08F023F99FEDC57ADFEDC57AEAEE3B
:10F7A000077A9FEDC47AE9EE877A9FEDC37AE9EE96
:10F7B000077A9FEDC27AE8EE877A9FEDC17AE8EE8C
:10F7C000077A9FEDC07A77EE877A9FEDBF7A77EE62
:10F7D000877A9FEDBE7A77EEC77A9FEDBD7A77EE96
:10F7E000C77A9FEDBC7A77EE877A0CEE100AF1EEBD
:10F7F000677A17EE900A07F0BBFD41EC100B06F09C
:10F80000CBF8002251EC100B9C4B07F053FC024646
:10F810000B460020994907F029FF08F0DFF89FED1B
:10F82000AE7ADFEDAE7AEAEE077A9FEDAD7AE9EED9
:10F83000877A9FEDAC7AE9EE077A9FEDAB7AE8EE36
:10F84000877A9FEDAA7AE8EE077A9FEDA97A77EE9C
:10F85000877A9FEDA87A77EE877A9FEDA77A77EE81
:10F86000C77A9FEDA67A77EEC77A9FEDA57A77EEF5
:10F87000C77A0DEE900AF1EE677A17EE900A07F05C
:10F8800077FD41EC100B06F087F8002251EC100BCD
:10F890007A4B07F00FFC02460B460020774907F031
:10F8A000E5FE08F09BF89FED977ADFED977AEAEE98
:10F8B000077A9FED967AE9EE877A9FED957AE9EEE1
:10F8C000077A9FED947AE8EE877A9FED937AE8EED7
:10F8D000077A9FED927A77EE877A9FED917A77EEAD
:10F8E000877A9FED907A77EE877A9FED8F7A77EE21
:10F8F000877A9FED8E7A77EEC77A0DEE100AF1EED9
:10F90000677A17EE900A07F033FD41EC100B06F012
:10F9100043F8002251EC100B584B07F0CBFB02468A
:10F920000B460020554907F0A1FE08F057F89FED5F
:10F93000807ADFED807AEAEE077A9FED7F7AE9EE52
:10F94000877A9FED7E7AE9EE077A9FED7D7AE8EE81
:10F95000877A9FED7C7AE8EE077A9FED7B7A77EEE7
:10F96000877A9FED7A7A77EE877A9FED797A77EECC
:10F97000877A9FED787A77EE877A9FED777A77EEC0
:10F98000877A0AEE900AF1EE677A17EE900A07F08E
:10F99000EFFC41EC100B05F0FFFF9FED707ADFEDFF
:10F9A000707AB0EE40BAF0EE60BAEAEE077A9FEDF8
:10F9B0006D7AE9EE877A9FED6C7AE9EE077A9FED32
:10F9C0006B7AE8EE877A9FED6A7AE8EE077A9FED28
:10F9D000697A77EE877A9FED687A77EE877A9FED7E
:10F9E000677A77EE877A9FED667A77EE877A9FED72
:10F9F000657A77EE877AF1EE677A17EE900A07F06C
:10FA0000B7FC41EC100B05F0C7FF9FED5F7ADFED0F
:10FA10005F7AEAEE077A9FED5E7AE9EE877A9FEDEC
:10FA20005D7AE9EE077A9FED5C7AE8EE877A9FEDE2
:10FA30005B7AE8EE077A9FED5A7A77EE877A9FED48
:10FA4000597A77EE877A9FED587A77EE877ADDE0FC
:10FA500083582C3DD4E1803F4A41CE3D3BD0E33D2D
:10FA600010CBB33DF67EDCBB52AF783D133BE43B9D
:10FA70008475613CAE185C3DFE72E63C0000F03FD0
:10FA800000F50E3DC529813F1815393CC08E5BBD80
:10FA9000E8695B3D5085E23C8302343DD27B023D08
:10FAA0001D484B3BCA2B9F3B72CB0E3E909F02BB27
:10FAB000C0A2803FF66FC43C1F87023D69037ABD38
:10FAC00030A17ABC0BEE333DF6B9FB3DDB6B373D25
:10FAD0002C3F5F3CB7A0053E8FAE123CE5A8803FAF
:10FAE00061BC043E3C81D2BC9959C73DE5BBDC3DBD
:10FAF000044D9A3D996CF33CABAA713DAA25D33CC9
:10FB00001428853DE61480BBFE7E813FF3F54CBD95
:10FB10009F16773D75800BBD88F7C03CF927013DE6
:10FB2000EDCA883DA30FAF3D98F8003D35783B3DC9
:10FB30003E80433EB601853FD92C8D3E6B71383EE9
:10FB400015BF053E0584533E173DF93D04E6503E82
:10FB5000D886093ED1603B3E1C840B3E12A37C3EFE
:10FB60004475833FD7CE603E52C95F3E9B2B203EFB
:10FB70000F8A2F3E6CD4003E61135B3E9ED8363E0A
:10FB80008180563EA5431A3E0F96AF3D01E7833F65
:10FB9000514FFA3D9927133E15AE773E1C84463EE1
:10FBA000448B693E1254BE3DBFDA8E3E48148A3EF5
:10FBB0006BBA393EFF302F3E2F9B843FB1D4C33DFB
:10FBC00074BC8B3E9AFC173E4AC2EE3D5D5A8D3E98
:10FBD000D761973E9098F43DAFD3273ED428FA3DA5
:10FBE000C4B6373E117E843F3129333EC93BE03DE8
:10FBF0009E24183E2287863DCC8A863E12F4E73D3D
:10FC0000F0F6523EF87C873E0E065F3E1FED197AF5
:10FC100077EE877A1FED1A7A77EE877A5BEC10AB76
:10FC2000F1EE677A17EE900A07F0A2FB41EC100B99
:10FC300005F0B2FE1FED217A5FED217AEAEE077A38
:10FC40001FED227AE9EE877A1FED237AE9EE077A33
:10FC50001FED247AE8EE877A1FED257AE8EE077A21
:10FC60001FED267A77EE877A1FED277A77EE877A6F
:10FC70001FED287A77EE877A1FED297A77EE877A5B
:10FC80001FED2A7A77EE877A59EC108BF1EE677ABE
:10FC900017EE900A07F06CFB41EC100B05F07CFEB0
:10FCA0001FED317A5FED317AEAEE077A1FED327A95
:10FCB000E9EE877A1FED337AE9EE077A1FED347AA1
:10FCC000E8EE877A1FED357AE8EE077A1FED367A8F
:10FCD00077EE877A1FED377A77EE877A1FED387ADD
:10FCE00077EE877A1FED397A77EE877A1FED3A7AC9
:10FCF00077EE877A57EC106BF1EE677A17EE900A81
:10FD000007F036FB41EC100B05F046FE51EC1B0BE7
:10FD10000022F44B55EC104B07F0CCF902460B4691
:10FD20000020F04907F0A2FC07F058FE9FEDEE7AA4
:10FD3000DFEDEE7A06EE900AE6EE877A9FEDEC7A3A
:10FD40002AEE077AECEE877A9FEDEA7A29EE877A37
:10FD5000ECEE877A9FEDE87A29EE077AECEE877A67
:10FD60009FEDE67A28EE877AECEE877A9FEDE47ACB
:10FD700028EE077AECEE877AF1EE677A17EE900AB2
:10FD800007F0F6FA41EC100B05F006FE002251ECEC
:10FD9000100BD44B07F08EF902460B460020D149D8
:10FDA00007F064FC07F01AFE00220CEE900ACD4B1F
:10FDB0005046594607F07EF902460B460020C949D5
:10FDC00007F054FC07F00AFE9FEDCE7ADFEDCE7A05
:10FDD00006EE900AE6EE877A9FEDCC7A2AEE077A55
:10FDE000ECEE077A9FEDCA7A29EE877AECEE077A75
:10FDF0009FEDC87A29EE077AECEE077A9FEDC67A76
:10FE000028EE877AECEE077A9FEDC47A28EE077A1F
:10FE1000ECEE077AF1EE677A17EE900A07F0A8FA8F
:10FE200041EC100B05F0B8FD002251EC100BAD4B6E
:10FE300007F040F902460B460020AA4907F016FCDD
:10FE400007F0CCFD00220CEE100AA64B40464946B6
:10FE500007F030F902460B460020A24907F006FCE5
:10FE600007F0BCFD9FEDAE7ADFEDAE7A06EE900AAC
:10FE7000E6EE877A9FEDAC7A2AEE077AEDEE877A86
:10FE80009FEDAA7A29EE877AEDEE877A9FEDA87A20
:10FE900029EE077AEDEE877A9FEDA67A28EE877A2B
:10FEA000EDEE877A9FEDA47A28EE077AEDEE877A59
:10FEB000F1EE677A17EE900A07F05AFA41EC100B50
:10FEC00005F06AFD002251EC100B864B07F0F2F8AA
:10FED00002460B460020834907F0C8FB07F07EFD71
:10FEE00000220BEE900A7F4B3046394607F0E2F8CD
:10FEF00002460B4600207B4907F0B8FB07F06EFD79
:10FF00009FED8E7ADFED8E7A06EE900AE6EE877A26
:10FF10009FED8C7A2AEE077AEDEE077A9FED8A7ACA
:10FF200029EE877AEDEE077A9FED887A29EE077A37
:10FF3000EDEE077A9FED867A28EE877AEDEE077A66
:10FF40009FED847A28EE077AEDEE077AF1EE677A74
:10FF500017EE900A07F00CFA41EC100B05F01CFDAF
:10FF6000002251EC100B5F4B07F0A4F802460B4641
:10FF700000205C4907F07AFB07F030FD00220BEE11
:10FF8000100A584B2046294607F094F802460B46C3
:10FF90000020544907F06AFB07F020FD9FED6E7AC0
:10FFA000DFED6E7A06EE900AE6EE877A9FED6C7AC8
:10FFB0002AEE077AEAEE877A9FED6A7A29EE877A47
:10FFC000EAEE877A9FED687A29EE077AEAEE877A79
:10FFD0009FED667A28EE877AEAEE877A9FED647A5B
:10FFE00028EE077AEAEE877AF1EE677A17EE900A42
:10FFF00007F0BEF941EC100B05F0CEFC002251ECED
:020000022000DC
:10000000100B384B07F056F802460B4600203549D6
:1000100007F02CFB07F0E2FC9FED567ADFED567AF5
:10002000EAEE077A9FED557AE9EE877A9FED547AEA
:10003000E9EE077A9FED537AE8EE877A9FED527AE0
:10004000E8EE077A9FED517AECEE877A9FED507AD1
:10005000ECEE077A9FED4F7AEBEE877A9FED4E7AC2
:10006000EBEE077A0AEE900A9FED4C7AEAEE877A79
:10007000F1EE677A17EE900A07F07AF941EC100B6F
:1000800005F08AFC9FED467ADFED467AEAEE077AC4
:100090009FED457AE9EE877A9FED447AE9EE077A9B
:1000A0009FED437AE8EE877A9FED427AE8EE077A91
:1000B0009FED417AECEE877A9FED407AECEE077A7D
:1000C0009FED3F7AEBEE877A9FED3E7AEBEE077A73
:1000D0009FED3D7AEAEE877A8DED000BF1EE677ABF
:1000E000D0E000BF0000F03F22284041A55ECC3D9B
:1000F0000F1D863EB1D39F3E95327E3E602C9B3EC7
:1001000039A0623E441F44414F244F3C761C993E27
:1001100073DCAF3EE4DE943E6F128D3E9F3D2C3E7D
:1001200019724641569A1F3E502A803EDC175D3EAA
:100130001D72593E4DD6A53E1A49243E0714424130
:10014000B3BE2B3E0834843E65B54F3EC751463E94
:10015000EE2C9D3EBF67783E27815641DB77FC3D04
:100160006583B33E59389A3EA871AC3EA5444E3ED5
:1001700005F0AE3DD53D42C288DB28429A0C8AC1CB
:100180003B8DB6C02F50A7BE3BBF9EC1275CFD4034
:10019000B49601418FFB00411E7E0041E56EFE409A
:1001A0006EE0AEC128569E414D4079C13BF392406E
:1001B000F52F22C1C5A5A8C029CD7640F0D876403C
:1001C000456474405DE27540E3FF7740D719F0C1A4
:1001D000B7F3324231E103C27BA89F3F1C07F6C14F
:1001E00013BC5E41444FAF4028BCAB408A3CAA40A0
:1001F0007E8BAD40F2FBA940B35AF4C137D50E4215
:100200009D69B0C1E0FA9740CF2C71C12A93FFC01D
:1002100018858E40B68B8F4070508F40420D9440B1
:100220003E9E92409DDFACC12D969B41D54177C14A
:10023000D4FF9140E8AE1DC1B6D5A3C0C36E7540D2
:100240002E5A6D4095876D40F42373404C397840A9
:10025000C17E653CAB7F803F7AFCC23DA1B953BDF6
:10026000B50E7ABD56AC863CDF4DE23C42F9813D8D
:100270007C75C7BB3BC0A53DB89F27BD3531A53DAB
:1002800065FECA3D17EE900A07F072F841EC100BBC
:1002900005F082FB1FED337A5FED337AEAEE077AE1
:1002A0001FED347AE9EE877A1FED357AE9EE077AA9
:1002B0001FED367AE8EE877A1FED377AE8EE077A97
:1002C0001FED387AECEE877A1FED397AECEE077A7B
:1002D0001FED3A7AEBEE877A1FED3B7AEBEE077A69
:1002E0001FED3C7AEAEE877A8DED020BF1EE677A2C
:1002F00017EE900A07F03CF841EC100B05F04CFBB0
:100300001FED437A5FED437AB0EE40FAF0EE60FA0B
:10031000EAEE077A1FED467AE9EE877A1FED477A13
:10032000E9EE077A1FED487AE8EE877A1FED497A01
:10033000E8EE077A1FED4A7AECEE877A1FED4B7AEA
:10034000ECEE077A1FED4C7AEBEE877A1FED4D7AD3
:10035000EBEE077A1FED4E7AEAEE877AF1EE677AD6
:1003600017EE900A07F004F841EC100B05F014FBAF
:100370001FED547A5FED547AEAEE077A1FED557A55
:10038000E9EE877A1FED567AE9EE077A1FED577A84
:10039000E8EE877A1FED587AE8EE077A1FED597A72
:1003A000ECEE877A1FED5A7AECEE077A1FED5B7A56
:1003B000EBEE877A1FED5C7AEBEE077A1FED5D7A44
:1003C000EAEE877A5BEC10ABF1EE677A17EE900AF3
:1003D00006F0CEFF41EC100B05F0DEFA1FED647A5B
:1003E0005FED647AEAEE077A1FED657AE9EE877AC7
:1003F0001FED667AE9EE077A1FED677AE8EE877AF5
:100400001FED687AE8EE077A1FED697AECEE877ADD
:100410001FED6A7AECEE077A1FED6B7AEBEE877AC6
:100420001FED6C7AEBEE077A1FED6D7AEAEE877AB4
:100430001FED6E7A77EEC77A1FED6F7A77EE877AC7
:1004400055EC104BF1EE677A17EE900A06F090FF2C
:1004500041EC100B05F0A0FA002251EC100BF84B08
:1004600006F028FE02460B460020F54907F0FEF88C
:1004700007F0B4FA9FEDF37ADFEDF37AEAEE077A4C
:100480009FEDF27AE9EE877A9FEDF17AE9EE077A4D
:100490009FEDF07AE8EE877A9FEDEF7AE8EE077A43
:1004A0009FEDEE7AECEE877A9FEDED7AECEE077A2F
:1004B0009FEDEC7AEBEE877A9FEDEB7AEBEE077A25
:1004C0009FEDEA7AEAEE877A9FEDE97A77EE877A0E
:1004D0009FEDE87A77EEC77A0DEE900AF1EE677A33
:1004E00017EE900A06F044FF41EC100B05F054FAA9
:1004F000002251EC100BD24B06F0DCFD02460B46FD
:100500000020CF4907F0B2F807F068FA9FEDDA7AD9
:10051000DFEDDA7AEAEE077A9FEDD97AE9EE877AAB
:100520009FEDD87AE9EE077A9FEDD77AE8EE877AE1
:100530009FEDD67AE8EE077A9FEDD57AECEE877AD2
:100540009FEDD47AECEE077A9FEDD37AEBEE877AC3
:100550009FEDD27AEBEE077A9FEDD17AEAEE877AB9
:100560009FEDD07A77EE877A9FEDCF7A77EE877A14
:100570000DEE100AF1EE677A17EE900A06F0F8FE1B
:1005800041EC100B05F008FA9FEDC87ADFEDC87A50
:10059000EAEE077A9FEDC77AE9EE877A9FEDC67A91
:1005A000E9EE077A9FEDC57AE8EE877A9FEDC47A87
:1005B000E8EE077A9FEDC37AECEE877A9FEDC27A78
:1005C000ECEE077A9FEDC17AEBEE877A9FEDC07A69
:1005D000EBEE077A9FEDBF7AEAEE877A9FEDBE7A5F
:1005E00077EE877A9FEDBD7A77EE877A59EC108B9C
:1005F000F1EE677A17EE900A06F0BAFE41EC100BA6
:1006000005F0CAF900228E4B4046494657EC106B64
:1006100006F050FD02460B460020894907F026F8F7
:1006200007F0DCF99FEDAE7ADFEDAE7A06EE900AC8
:10063000E6EE877A9FEDAC7A2AEE077AEDEE877ABE
:100640009FEDAA7A29EE877AEDEE877A9FEDA87A58
:1006500029EE077AEDEE877A9FEDA67A28EE877A63
:10066000EDEE877A9FEDA47A28EE077AEDEE877A91
:100670009FEDA27A2CEE877AEDEE877A9FEDA07A35
:100680002CEE077AEDEE877A9FED9E7A2BEE877A35
:10069000EDEE877A9FED9C7A2BEE077AEDEE877A66
:1006A0009FED9A7A2AEE877AEDEE877AF1EE677AF5
:1006B00017EE900A06F05CFE41EC100B05F06CF9A9
:1006C000002251EC100B5E4B06F0F4FC02460B4688
:1006D00000205B4906F0CAFF07F080F900220DEE0A
:1006E000900A574B3046394606F0E4FC02460B466A
:1006F0000020534906F0BAFF07F070F99FED847AA5
:10070000DFED847A06EE900AE6EE877A9FED827A34
:100710002AEE077AEDEE077A9FED807A29EE877A46
:10072000EDEE077A9FED7E7A29EE077AEDEE077AF5
:100730009FED7C7A28EE877AEDEE077A9FED7A7A44
:1007400028EE077AEDEE077A9FED787A2CEE877A1D
:10075000EDEE077A9FED767A2CEE077AEDEE077ACA
:100760009FED747A2BEE877AEDEE077A9FED727A21
:100770002BEE077AEDEE077A9FED707A2AEE877AF4
:10078000EDEE077AF1EE677A17EE900A06F0F0FDCB
:1007900041EC100B05F000F9002251EC100B284B36
:1007A00006F088FC02460B460020254906F05EFF55
:1007B00007F014F99FED627ADFED627AEAEE077ACC
:1007C0009FED617AE9EE877A9FED607AE9EE077A2C
:1007D0009FED5F7AE8EE877A9FED5E7AE8EE077A22
:1007E0009FED5D7AECEE877A9FED5C7AECEE077A0E
:1007F0009FED5B7AEBEE877A9FED5A7AEBEE077A04
:100800009FED597AEAEE877A9FED587AEDEE877A76
:100810000DEE100A9FED567AEDEE077AF1EE677A4B
:1008200017EE900A06F0A4FD41EC100B05F0B4F8A9
:100830009FED507ADFED507AEAEE077AB4E000BF20
:100840000000F03F6DEE6BBD8772803FC27F653D5B
:100850003E28E0BCF65EC93D889D803DC2047CBD5B
:100860008446B23D606B993DDB4717BD2C645A3D11
:10087000D5AED43CD88C2E3D7F22FE3DF8C3823FBE
:100880005B08813D107E0D3DCB90023E2E69B03C51
:100890006681273EAC38D63DC14C1B3E5A55143EAE
:1008A000D928393E6A87FD3DEFAB373D70B42E3E07
:1008B000A23C823F2C56283E57431E3EA733463D5E
:1008C000C7F5703BF8DA343E808B723D6F7DA23DF8
:1008D000205B3E3E3AEB323EBA83BC3C60DE263EB5
:1008E000C38B294190AD153EA2F58B3D33F5D73D25
:1008F0007C00173EC8CA3F3E611AD13D6A4A423E5B
:1009000050C1523EE4A1DA3DB28C103EC408793D9C
:1009100007272541FA9C353D18D6613EB34A023E71
:10092000BFBE573E3B31AB3DEEBF3B3EBE1F153E0B
:100930009470A53DC27B393E6CADA53DD023903D62
:100940008B213DC1147B0C419BF401C180B5BD3F9F
:100950009DF0A3C09409B7BF0F63B03F4DE5B33F0F
:10096000DF83BE3F6E42B73FB2AEB73F0CA1AF3F91
:10097000D31DBB3FE4B054C1DC6C1B41BD2610C18C
:10098000A536DF3F697FB8C0CAD2DCBF8CD6CC3F6A
:100990006626DB3F9BA5D33FA9A0D93FFEF0CF3F02
:1009A000184AD63FDCC0DE3F1FED0C7AE9EE877AAD
:1009B0001FED0D7AE9EE077A1FED0E7AE8EE877AE1
:1009C0001FED0F7AE8EE077A1FED107AECEE877ACA
:1009D0001FED117AECEE077A1FED127AEBEE877AB3
:1009E0001FED137AEBEE077A1FED147AEAEE877AA1
:1009F0001FED157AEDEE877A1FED167AEDEE077A88
:100A000057EC106BF1EE677A17EE900A06F0B0FC27
:100A100041EC100B04F0C0FF002251EC100B694BAD
:100A200006F048FB02460B460020664906F01EFE13
:100A300006F0D4FF00220490624B3046394606F09F
:100A400039FB02460B4600205E4906F00FFE06F019
:100A5000C5FF002205905B4B2046294606F02AFB85
:100A600002460B460020574906F000FE06F0B6FF8E
:100A700000220EEE100A534B5046594606F01AFB60
:100A800002460B4600204F4906F0F0FD06F0A6FF97
:100A900000220EEE900A4B4B51EC1F0B06F00AFBA6
:100AA00002460B460020474906F0E0FD06F096FF9F
:100AB00000220FEE100A434BDDE9020106F0FAFABC
:100AC00002460B4600203F4906F0D0FD06F086FFA7
:100AD00000220FEE900A3B4BDDE9000106F0EAFA36
:100AE00002460B460020374906F0C0FD06F076FFAF
:100AF000DFED357A07EE100A6CEEA7CADFED337A28
:100B0000E7EE2C7A9FED327A2CEE07CA9FED317A10
:100B1000EFEE8C7A6BEE87BA9FED2F7AEFEE2B7AA1
:100B20002BEE07BA9FED2D7AEEEE8B7A6AEE87AA4E
:100B30009FED2B7AEEEE2A7A6DEE87DA9DED057A3F
:100B4000E7EE2D7A9FED277A2DEE07DA9DED047AF8
:100B5000E7EE0D7A9FED247AEAEE077A9FED237A8D
:100B6000E9EE877A9FED227AE9EE077A9FED217A06
:100B7000E8EE877A9FED207AE8EE077AF1EE677A61
:100B800017EE900A06F0F4FB41EC100B04F004FFA2
:100B9000002251EC100B0B4B06F08CFA02460B4670
:100BA0000020084906F062FD06F018FF9FED130AC9
:100BB00007EE900A27EE800A07B0BDEC108BBDE867
:100BC000F08F00BF0000F03FDFD96841A8AEA6411A
:100BD0004002914060F65F41F1B7BE40A03E8F40B9
:100BE000ED643F40BB0C49400D8B46C295D8D2C145
:100BF00033C56B4167B653C1701496410000C842BB
:100C00009FEDF87ADFEDF87AE0EE077A2DE9F04F04
:100C10009FEDF67AE0EE877A9FEDF57AE1EE077ABE
:100C20009FEDF47AE1EE877A9FEDF37AE2EE077AB0
:100C30009FEDF27AE2EE877A9FEDF17AE3EE077AA2
:100C40009FEDF07A77EE877A9FEDEF7A77EE877AED
:100C50009FEDEE7A77EE877A9FEDED7A77EEC77AA1
:100C60009FEDEC7A2DED108B77EE877A89B0F1EE5F
:100C7000677A17EE900AB0EE41AAF0EE619AB0EEF4
:100C8000429AF0EE628AB0EE438AB0EE40BAF0EEDD
:100C900060AA06F06DFB41EC100B04F07DFE002213
:100CA00051EC100BDC4B06F005FA02460B46002017
:100CB000D94906F0DBFC06F091FE9FEDD87ADFED16
:100CC000D87AEBEE077A9FEDD77AEAEE877A9FED36
:100CD000D67AEAEE077A9FEDD57AE9EE877A9FED2C
:100CE000D47AE9EE077A9FEDD37AE8EE877A9FED22
:100CF000D27AE8EE077A9FEDD17A77EE877A9FED88
:100D0000D07A77EE877A9FEDCF7A77EE877A9FED6C
:100D1000CE7A77EE877A9FEDCD7A77EE877A0BEEF3
:100D2000900AF1EE677A17EE900A06F021FB41EC8B
:100D3000100B04F031FE002251EC100BB64B06F004
:100D4000B9F902460B460020B34906F08FFC06F0C5
:100D500045FE9FEDBF7ADFEDBF7AEBEE077A9FEDA0
:100D6000BE7AEAEE877A9FEDBD7AEAEE077A9FEDCA
:100D7000BC7AE9EE877A9FEDBB7AE9EE077A9FEDC0
:100D8000BA7AE8EE877A9FEDB97AE8EE077A9FEDB6
:100D9000B87A77EE877A9FEDB77A77EE877A9FED0C
:100DA000B67A77EE877A9FEDB57A77EE877A9FED00
:100DB000B47A77EE877A0DEE100AF1EE677A17EEC5
:100DC000900A06F0D5FA41EC100B04F0E5FD002284
:100DD00051EC100B904B06F06DF902460B460020CB
:100DE0008D4906F043FC06F0F9FD9FEDA67ADFED94
:100DF000A67AEBEE077A9FEDA57AEAEE877A9FED69
:100E0000A47AEAEE077A9FEDA37AE9EE877A9FED5E
:100E1000A27AE9EE077A9FEDA17AE8EE877A9FED54
:100E2000A07AE8EE077A9FED9F7A77EEC77A9FED7A
:100E30009E7A77EE877A9FED9D7A77EE877A9FED9F
:100E40009C7A77EE877A9FED9B7A77EEC77A0EEEE3
:100E5000100AF1EE677A17EE900A06F089FA41EC73
:100E6000100B04F099FD002251EC100B6A4B06F0B8
:100E700021F902460B460020674906F0F7FB06F011
:100E8000ADFD9FED8D7ADFED8D7AEBEE077A9FED6C
:100E90008C7AEAEE877A9FED8B7AEAEE077A9FEDFD
:100EA0008A7AE9EE877A9FED897AE9EE077A9FEDF3
:100EB000887AE8EE877A9FED877AE8EE077A9FEDE9
:100EC000867A77EE877A9FED857A77EE877A9FED3F
:100ED000847A77EEC77A9FED837A77EE877A9FEDF3
:100EE000827A77EE877A0DEE900AF1EE677A17EE46
:100EF000900A06F03DFA41EC100B04F04DFD002283
:100F000051EC100B444B06F0D5F802460B4600207E
:100F1000414906F0ABFB06F061FD9FED747ADFED11
:100F2000747AEBEE077A9FED737AEAEE877A9FED9B
:100F3000727AEAEE077A9FED717AE9EE877A9FED91
:100F4000707AE9EE077A9FED6F7AE8EE877A9FED87
:100F50006E7AE8EE077A9FED6D7A77EE877A9FEDED
:100F60006C7A77EE877A9FED6B7A77EE877A9FEDD2
:100F70006A7A77EE877A9FED697A77EE877A0EEE56
:100F8000900AF1EE677A17EE900A06F0F1F941EC5B
:100F9000100B04F001FD9FED627ADFED627AEBEE5B
:100FA000077A9FED617AEAEE877A9FED607AEAEE42
:100FB000077A9FED5F7AE9EE877A9FED5E7AE9EE38
:100FC000077A9FED5D7AE8EE877A9FED5C7AE8EE2E
:100FD000077A9FED5B7A77EE877A9FED5A7A77EE04
:100FE000877A05E1A3EC5FBD91BE803F926851BD59
:100FF0001E6D6BBD3597553DD9E667BD35210CBDDE
:10100000736CC43CC77C073DFCABD73D293B043E19
:101010001DDDAA3C7D7F013D0000F03FB8B482BCDD
:1010200049D5803FBF1D3DBD995CA13D09BE463CF1
:10103000D0DB77BD1686BC3D0A05A53D1FB61B3D1E
:10104000A343D43D2669273DD7EA933D892A533CE3
:101050001D5CD73D819A803FD0C4B43C787CF43D80
:10106000A47ABA3D52B3D73C77B1603DF3821B3DC1
:10107000117F073B5206DD3CDFA4EA3D51B1433D01
:1010800037BCBF3DE0AE423C97CE803FD958E93DEA
:101090007C42C53D2222293C52E2E33C8171CB3D9A
:1010A000C95F753D5E30E13B0514B33D5D897A3D16
:1010B00013B0A43B9993863D476B91BD2085803F3B
:1010C0005F7AC33DE52FBA3D76E56E3DC33995BDE8
:1010D000B56EB83DB6989C3C3009B83D09231B3D20
:1010E0005FBE943CBC79D03D6EA3BB3DD877213E1A
:1010F000AD12843FE88AFE3D4C9FF13D11DED23DAA
:10110000284F543ED62A113EEDCE323DEF4C0B3ED9
:10111000EA266B3E9C84403EDF102B3E5D5F7D3EA9
:10112000FD27523EE15B833F55D4CC3DFC966F3E9C
:10113000B9B34C3EB90C533E460F213E813B5EBCD9
:101140002FBE253E5E16E53DB1742B3E0D23613E5C
:10115000A3FC1A3E51773A3E4569833FF0466F3E05
:10116000237BEA3D368A313E9C0E303ECF59D63D38
:1011700041C2443CDE3D0F3EBC33793E74A3373E52
:10118000EDB2B93DA8851E3E0AA8493E4904833FF9
:10119000FBA0523E44EE6D3DD9FB263EB93E2E3EAD
:1011A0006D8E0A3EE5B3423D7BC73F3E0FF05B3E8E
:1011B000D13EBE3D7AD6363EE7C45E3E5E285B3EFB
:1011C000A4A8823FC295673E72D7D03D886C833D0C
:1011D0000E45EC3DE146343E0D26A63D43742B3EC4
:1011E0002F46F43D81E46E3EBE9A423E5254643E28
:1011F0001FED2B7A77EE877A1FED2C7A77EE877AC0
:101200001FED2D7A77EE877A5BEC10ABF1EE677A03
:1012100017EE900A06F0ACF841EC100B04F0BCFBA2
:101220001FED347A5FED347AEBEE077A1FED357AF5
:10123000EAEE877A1FED367AEAEE077A1FED377A03
:10124000E9EE877A1FED387AE9EE077A1FED397AF1
:10125000E8EE877A1FED3A7AE8EE077A1FED3B7ADF
:1012600077EE877A1FED3C7A77EE877A1FED3D7A2D
:1012700077EE877A1FED3E7A77EE877A1FED3F7A19
:1012800077EE877A59EC108BF1EE677A17EE900AB9
:1012900006F06EF841EC100B04F07EFB1FED467A71
:1012A0005FED467AEBEE077A1FED477AEAEE877A32
:1012B0001FED487AEAEE077A1FED497AE9EE877A60
:1012C0001FED4A7AE9EE077A1FED4B7AE8EE877A4E
:1012D0001FED4C7AE8EE077A1FED4D7A77EE877AAC
:1012E0001FED4E7A77EE877A1FED4F7A77EE877A89
:1012F0001FED507A77EE877A1FED517A77EE877A75
:1013000057EC106BF1EE677A17EE900A06F030F8A2
:1013100041EC100B04F040FB1FED587A5FED587A5A
:10132000EBEE077A1FED597AEAEE877A1FED5A7ACB
:10133000EAEE077A1FED5B7AE9EE877A1FED5C7AB9
:10134000E9EE077A1FED5D7AE8EE877A1FED5E7AA7
:10135000E8EE077A1FED5F7A77EE877A1FED607A05
:1013600077EE877A1FED617A77EE877A1FED627AE2
:1013700077EE877A1FED637A77EE877A55EC104B1C
:10138000F1EE677A17EE900A05F0F2FF41EC100BD0
:1013900004F002FB0022F34BB0EE40CAF0EE60CA4C
:1013A0005046594605F086FE02460B460020ED49A0
:1013B00006F05CF906F012FB9FEDEB7ADFEDEB7ABD
:1013C00006EE900AE6EE877A9FEDE97A2BEE077A31
:1013D000EBEE877A9FEDE77A2AEE877AEBEE877A53
:1013E0009FEDE57A2AEE077AEBEE877A9FEDE37AB6
:1013F00029EE877AEBEE877A9FEDE17A29EE077A7C
:10140000EBEE877A9FEDDF7A28EE877AEBEE877A2C
:101410009FEDDD7A28EE077AEBEE877AF1EE677AB8
:1014200017EE900A05F0A4FF41EC100B04F0B4FA9B
:10143000002251EC100BCB4B05F03CFE02460B4654
:101440000020C84906F012F906F0C8FA00220BEE97
:10145000900AC44B4046494605F02CFE02460B4616
:101460000020C04906F002F906F0B8FA9FEDC77AED
:10147000DFEDC77A06EE900AE6EE877A9FEDC57A31
:101480002BEE077AEDEE077A9FEDC37A2AEE877A84
:10149000EDEE077A9FEDC17A2AEE077AEDEE077A34
:1014A0009FEDBF7A29EE877AEDEE077A9FEDBD7A40
:1014B00029EE077AEDEE077A9FEDBB7A28EE877A60
:1014C000EDEE077A9FEDB97A28EE077AEDEE077A0E
:1014D000F1EE677A17EE900A05F04AFF41EC100B27
:1014E00004F05AFA002251EC100B9E4B05F0E2FD7D
:1014F00002460B4600209B4906F0B8F806F06EFA4B
:1015000000220DEE100A974B3046394605F0D2FD09
:1015100002460B460020934906F0A8F806F05EFA52
:101520009FEDA37ADFEDA37A06EE900AE6EE877AC6
:101530009FEDA17A2BEE077AEEEE077A9FED9F7A68
:101540002AEE877AEEEE077A9FED9D7A2AEE077AE9
:10155000EEEE077A9FED9B7A29EE877AEEEE077A18
:101560009FED997A29EE077AEEEE077A9FED977A4A
:1015700028EE877AEEEE077A9FED957A28EE077AC5
:10158000EEEE077AF1EE677A17EE900A05F0F0FEBC
:1015900041EC100B04F000FA002251EC100B714BDF
:1015A00005F088FD02460B4600206E4906F05EF805
:1015B00006F014FA00220EEE100A6A4B2046294665
:1015C00005F078FD02460B460020664906F04EF80D
:1015D00006F004FA9FED7F7ADFED7F7A06EE900A3F
:1015E000E6EE877A9FED7D7A2BEE077AEDEE877A2D
:1015F0009FED7B7A2AEE877AEDEE877A9FED797AF6
:101600002AEE077AEDEE877A9FED777A29EE877AD0
:10161000EDEE877A9FED757A29EE077AEDEE877AFF
:101620009FED737A28EE877AEDEE877A9FED717AD7
:1016300028EE077AEDEE877AF1EE677A17EE900AD8
:1016400005F096FE41EC100B04F0A6F9002251ECD7
:10165000100B444B05F02EFD02460B46002041497D
:1016600006F004F806F0BAF900220DEE900A3D4BA0
:1016700051EC1C0B05F01EFD02460B4600203949BB
:1016800005F0F4FF06F0AAF99FED5B7ADFED5B7AD7
:1016900006EE900AE6EE877A9FED597A2BEE077AEE
:1016A000EEEE877A9FED577A2AEE877AEEEE877A0A
:1016B0009FED557A2AEE077AEEEE877A9FED537A00
:1016C00029EE877AEEEE877A9FED517A29EE077A36
:1016D000EEEE877A9FED4F7A28EE877AEEEE877AE4
:1016E0009FED4D7A28EE077AEEEE877AF1EE677A73
:1016F00017EE900A05F03CFE41EC100B04F04CF99B
:10170000002251EC100B174B05F0D4FC02460B469F
:101710000020144905F0AAFF06F060F99FED3F7A1A
:10172000DFED3F7AEBEE077A9FED3E7AEAEE877ABD
:101730009FED3D7AEAEE077A9FED3C7AE9EE877AF3
:101740009FED3B7AE9EE077A9FED3A7AE8EE877AE9
:101750009FED397AE8EE077A9FED387AEBEE877ADB
:10176000FCE000BF0000F03F34B35B41B207103E25
:101770000C22983EEE395F3ED0D4803EF7F93A3ED7
:1017800003497B3E3770CD3D76B3593DF22B5B412B
:1017900066E481BC03A93B3ED9F3893EABACA03ED5
:1017A0003CA58B3EFCDD8C3E5EEA1C3E67522D3D27
:1017B0009F645B4129B1353D0446953EEA92293E3E
:1017C0003D57A33E1C59AA3E5C63293EA50C933DA0
:1017D0007830263D8C985941D334153CA442763E4E
:1017E0008254783E81A5943EFF58893E1A21523E8C
:1017F000CDBF043EDDB00D3E0F5E5C41CE6DCF3DF2
:10180000B4C32B3E20B9973E28C5943ECFE9943E01
:101810001BE7853DFED37A3DFC0D5A3D5F4913C25F
:10182000F30EC9410F2ECDC1B8BA4D42F02706C202
:101830002AB725404BA6C74180E306BD41236CBFB4
:10184000739977BFEC326EBF9EC262BFD82352BF7E
:1018500055CEC5C1276CC6405DD282C1221500425B
:10186000A7C70CC1AFAD0540817DACC08ACC00C01C
:10187000BE3AC73F54B4C53F2DE1D13F5DEAC23FF8
:10188000B653D03F929DB5C1F375AA41D5FA95C123
:1018900061F4E441F3A9A2C1C5B33B40AAD292C00E
:1018A000417EF34077D2753F1EDE7C3F216A5E3F6A
:1018B0004D895F3FCFDC5C3FE29F93C03C0CDF4033
:1018C0001765E4C057C51741C96AAAC04D8CFFBF50
:1018D0001E7F36C083B534C1C65FF53ECE7A013F68
:1018E00035B1153F038B083F6147113FC34925C000
:1018F00022276E406F1012C087965640B50715C05C
:1019000061EB0ABE22D184BF91E80AC0FC3E47BE0B
:10191000223B56BECE0B32BE991C1CBEE3AA98BE1B
:10192000BC1EE53D1F9F803FE184D73D30C76FBDA2
:10193000EF12993D4A27A33D140AD13BFB206C3D91
:10194000B25ADA3C5FE44D3DD1ECD43D72B4993CDF
:1019500053A2E73C5D78983D455B493D1FED487AD1
:10196000EDEE077A1FED497AEEEE077A1FED4A7A1F
:10197000EDEE877A0CEE100A1FED4C7AECEE077A4A
:10198000F1EE677A17EE900A05F0F2FC41EC100BCD
:1019900004F002F81FED527A5FED527AEBEE077A0F
:1019A0001FED537AEAEE877A1FED547AEAEE077A52
:1019B0001FED557AE9EE877A1FED567AE9EE077A40
:1019C0001FED577AE8EE877A1FED587AE8EE077A2E
:1019D0001FED597AEBEE877A1FED5A7AEDEE077A12
:1019E0001FED5B7AEEEE077A1FED5C7AEDEE877AFB
:1019F0001FED5D7AECEE077A8DED000BF1EE677A64
:101A000017EE900A05F0B4FC41EC100B03F0C4FF94
:101A10001FED647A5FED647AEBEE077A1FED657A6D
:101A2000EAEE877A1FED667AEAEE077A1FED677AAB
:101A3000E9EE877A1FED687AE9EE077A1FED697A99
:101A4000E8EE877A1FED6A7AE8EE077A1FED6B7A87
:101A5000EBEE877A1FED6C7AEDEE077A1FED6D7A6B
:101A6000EEEE077A1FED6E7AEDEE877A1FED6F7A54
:101A7000ECEE077A8DED020BF1EE677A17EE900A25
:101A800005F076FC41EC100B03F086FF1FED767A33
:101A90005FED767AB0EE40FAF0EE60FAEBEE077AA0
:101AA0001FED797AEAEE877A1FED7A7AEAEE077A05
:101AB0001FED7B7AE9EE877A1FED7C7AE9EE077AF3
:101AC0001FED7D7AE8EE877A1FED7E7AE8EE077AE1
:101AD0001FED7F7AEBEE877A1FED807AEDEE077AC5
:101AE0001FED817AEEEE077A1FED827AEDEE877AAE
:101AF0001FED837AECEE077AF1EE677A17EE900A23
:101B000005F036FC41EC100B03F046FF1FED897A1F
:101B10005FED897AEBEE077A1FED8A7AEAEE877A33
:101B20001FED8B7AEAEE077A1FED8C7AE9EE877A61
:101B30001FED8D7AE9EE077A1FED8E7AE8EE877A4F
:101B40001FED8F7AE8EE077A1FED907AEBEE877A39
:101B50001FED917AEDEE077A1FED927AEEEE077A9D
:101B60001FED937AEDEE877A1FED947AECEE077A0B
:101B70005BEC10ABF1EE677A17EE900A05F0F8FB1C
:101B800041EC100B03F008FF1FED9B7A5FED9B7A91
:101B9000EBEE077A1FED9C7AEAEE877A1FED9D7ACD
:101BA000EAEE077A1FED9E7AE9EE877A1FED9F7ABB
:101BB000E9EE077A1FEDA07AE8EE877A1FEDA17AA9
:101BC000E8EE077A1FEDA27AEBEE877A1FEDA37A93
:101BD000EDEE077A1FEDA47AEEEE077A1FEDA57AF7
:101BE000EDEE877A1FEDA67AECEE077A1FEDA77A65
:101BF00077EEC77A1FEDA87A77EE877A55EC104B0F
:101C0000F1EE677A17EE900A05F0B2FB41EC100B8B
:101C100003F0C2FE002251EC100BF74B05F04AFA1C
:101C200002460B460020F44905F020FD05F0D6FEE3
:101C30009FEDF27ADFEDF27AEBEE077A9FEDF17A23
:101C4000EAEE877A9FEDF07AEAEE077A9FEDEF7A77
:101C5000E9EE877A9FEDEE7AE9EE077A9FEDED7A6D
:101C6000E8EE877A9FEDEC7AE8EE077A9FEDEB7A63
:101C7000EBEE877A9FEDEA7AEDEE077A9FEDE97A4F
:101C8000EEEE077A9FEDE87AEDEE877A9FEDE77A40
:101C9000ECEE077A9FEDE67A77EE877A9FEDE57AAC
:101CA00077EEC77A0EEE900AF1EE677A17EE900A99
:101CB00005F05EFB41EC100B03F06EFE002251ECD0
:101CC000100BCD4B05F0F6F902460B460020CA4931
:101CD00005F0CCFC05F082FE9FEDD77ADFEDD77AD8
:101CE000EBEE077A9FEDD67AEAEE877A9FEDD57A0A
:101CF000EAEE077A9FEDD47AE9EE877A9FEDD37A00
:101D0000E9EE077A9FEDD27AE8EE877A9FEDD17AF5
:101D1000E8EE077A9FEDD07AEBEE877A9FEDCF7AE7
:101D2000EDEE077A9FEDCE7AEEEE077A9FEDCD7A53
:101D3000EDEE877A9FEDCC7AECEE077A9FEDCB7AC9
:101D400077EE877A9FEDCA7A77EE877A0CEE900A63
:101D5000F1EE677A17EE900A05F00AFB41EC100BE2
:101D600003F01AFE9FEDC37ADFEDC37AEBEE077A3C
:101D70009FEDC27AEAEE877A9FEDC17AEAEE077AA2
:101D80009FEDC07AE9EE877A9FEDBF7AE9EE077A98
:101D90009FEDBE7AE8EE877A9FEDBD7AE8EE077A8E
:101DA0009FEDBC7AEBEE877A9FEDBB7AEDEE077A7A
